:100000000C94FE010C9426020C9426020C942602F9
:100010000C9426020C9426020C9426020C942602C0
:100020000C9426020C9426020C9426020C94C20B0B
:100030000C9426020C9426020C9426020C942602A0
:100040000C946D0B0C9426020C9426020C94260240
:100050000C9426020C9426020C9426020C94260280
:100060000C9426020C942602E01AE21AFF1A011BD5
:10007000031B051B151B151B151B151B151B151B22
:10008000151BC402E102F00206030C0312031C0359
:100090002A03380342035D03720389030101FF034E
:1000A0000101F703A0009C000000000024002700CD
:1000B0002A0000000000250028002B0005008930E0
:1000C00008023802497868140000486172640045EB
:1000D0006173790017534400161378001613140047
:1000E0001510200015201000540A03E181867F3E80
:1000F000186D830F0F0E0183866033186DC3198F3F
:100100001803C38E6033186DE330CF1803C39E60AD
:100110003630CDE360CF3006C79E7E3E30CDB36033
:10012000CF300CC6F6603330D9B660CF33CFCCF6C3
:100130006061B0DB1E60CF30D86CE6C061B0DB1E02
:10014000618F19986CC6C063B19B0E330F0FB078E6
:10015000C6FF7E1F1B061E0F050068013801000048
:100160000500380168010000CF00CA00536F6C69B8
:10017000746169726500F6E8DBCFC3B8AEA49B92E8
:100180008A827B746E68625C57524E4945413E3AA2
:100190003734312E2C29272523210A0A153A49679D
:1001A0006E6F7265006D560A0A504C4541534520EA
:1001B0005455524E204F464620004C4F5720424146
:1001C000545445525921200003053F213F12081283
:1001D0000A100A0E1C0E0C1E0C141A14161F161EE2
:1001E000131E1E1B1E1E1F1E3F213F3A2F3A173D96
:1001F000173F213F181F02040A041F0E04040E1F9C
:100200000A1F0A0E0E1F04110E2E252E2F2A2E262F
:100210002929021F02081F08150E04040E150E15C9
:10022000151B151B040604040C0400000000170035
:100230000300031F0A1F16371A1904130A153A0080
:100240000300000E11110E000A040A040E0400300F
:10025000000404040010001804031F111F121F10D3
:100260001D151711151F07041F17151D1F151D013B
:10027000011F1F151F17151F000A00003200040A76
:10028000110A0A0A110A040115020E11171E051E91
:100290001F150A0E110A1F110E1F15111F05010E41
:1002A000111D1F041F111F1108100F1F041B1F1009
:1002B000101F061F1E040F0E110E1F09060E112E11
:1002C0001F051A121509011F011F101F0F180F1FFC
:1002D0000C1F1B041B031C03191513001F1103041F
:1002E00018111F000201022020200001020C121E22
:1002F0001F120C0C12120C121F0C1A14041E0524CF
:100300002A1E1F021C141D1020201D1F0814111F5F
:10031000101E041E1E021C0C120C3E0A040C123E7F
:100320001E040214160A020F120E101E0E100E1ECC
:10033000081E120C1226281E322A26041E21001F17
:1003400000211E040102013F213F172B1520102020
:100350004C4F4144455200172B16201314000A4EEF
:100360006F2053442063617264206F720A6E6F20A5
:100370004C4F414445522E4845580A0A153A457893
:100380006974001D20466C617368696E670A2020DD
:100390006C6F616465722E2E2E0A0A444F4E2754EC
:1003A000205455524E204F464621000000000023A5
:1003B00000260029000404040404040404020202C8
:1003C0000202020303030303030102040810204096
:1003D000800102040810200102040810200000001F
:1003E00008000201000003040700000000000000F4
:1003F0000045006801000000D21FA81F11241FBE85
:10040000CFEFD8E0DEBFCDBF11E0A0E0B1E0E2E485
:10041000F7E402C005900D92A432B107D9F724E0A9
:10042000A4E2B1E001C01D92AD3DB207E1F711E0D9
:10043000CDEFD1E004C02197FE010E947523CC3F8F
:10044000D107C9F70E946F160C9494230C940000F6
:10045000089580E090E00895FC0182814181882325
:1004600011F06A3010F0842F089596819A3018F4B4
:10047000292F30E002C02AE030E0261B310921504C
:100480003109220F822F840F089580912B018D3026
:1004900091F4809132018D3071F4809139018D3069
:1004A00051F4809140018D3031F485E090E09093DB
:1004B0000101809300010895FC01643508F053C0E8
:1004C000403308F050C090A1742F759575957595BF
:1004D000262F062E000C330B542F57709230A1F4A8
:1004E000F901E85BFD4F84E57802E00DF11D112470
:1004F000808190E0052E02C0959587950A94E2F7D9
:100500008095982F91700AC0933041F48485817052
:10051000462740954170841303C014C0911112C046
:1005200084E57802200D311D1124F901E85BFD4FAF
:1005300081E090E001C0880F5A95EAF7809590819C
:10054000892310C084E57802200D311D1124F901A2
:10055000E85BFD4F81E090E001C0880F5A95EAF713
:100560009081892B808308950F931F93CF93DF93FE
:10057000FA013197ED30F10508F0EDC0D62FC82F04
:10058000EF5BFF4F0C94752311E0180F462F612F7E
:1005900089E994E00E945C0201E00D0F24E0402F05
:1005A0006C2F89E994E00E94240D62E06C0F24E036
:1005B000402F89E994E00E94240D42E04D0F612F05
:1005C00089C00E94770D6D2F8C2F0E946F0D6D2FAB
:1005D0008C2F0E94470D6D2F8C2F0E94560D0EC040
:1005E0000E94770D6D2F8C2F0E946F0D6D2F8C2F19
:1005F0000E94470D6D2F8C2F0E94660D6D2F8C2F42
:10060000DF91CF911F910F910C945E0DDF91CF91EF
:100610001F910F910C94550EDF91CF911F910F9167
:100620000C943D0E0E943D0E6D2F8C2FDF91CF91CB
:100630001F910F910C94560D0E94770D6D2F8C2FEA
:100640000E946F0D6D2F8C2FDF91CF911F910F9115
:100650000C94660D0E943D0E6D2F8C2F0E94560D3E
:100660006D2F8C2FDF91CF911F910F910C946F0DF7
:100670000E94550E6D2F8C2FDF91CF911F910F91FE
:100680000C94770D0E94770D6D2F8C2F0E946F0DAB
:100690006D2F8C2F0E94660D6D2F8C2F0E945E0D8A
:1006A0006D2F8C2F0E94560D6D2F8C2F0E944F0D99
:1006B0006EEF6C0F25E04D2F46C00E946F0D6D2F21
:1006C0008C2F0E94660D6D2F8C2F0E945E0D43E0D3
:1006D0004D0F6C2F89E994E0DF91CF911F910F911D
:1006E0000C945C020E94770D6D2F8C2F0E946F0D71
:1006F0006D2F8C2F0E944F0D43E04D0F23E06C2F88
:1007000089E994E00E940C0C44E04D0F61E06C0F0D
:10071000E1CF0E944F0D6D2F8C2F0E94560D42E0AD
:100720004D0F61E06C0F89E994E00E945C02CE5F9E
:1007300022E04D2F6C2F89E994E00E94240D43E0C4
:100740004D0F22E06C2F89E994E0DF91CF911F914A
:100750000F910C94240DDF91CF911F910F9108956B
:100760000F931F93CF93DF93082FC62F413051056E
:1007700009F449C00CF5452B09F0ADC0D2E0D80F03
:10078000462F6D2F89E994E00E945C0241E04C0FF6
:1007900061E0600F23E089E994E00E940C0C42E0E4
:1007A0004C0F25E0602F89E994E00E940C0C43E097
:1007B0004C0F25E0602F80C04230510509F450C035
:1007C0004330510509F087C0D2E0D80F462F6D2F76
:1007D00089E994E00E945C0211E0100F41E04C0FA7
:1007E00023E0612F89E994E00E940C0C42E04C0F59
:1007F00025E0602F89E994E00E940C0C43E04C0F47
:1008000023E0612F59C0D1E0D80F23E0462F6D2F90
:1008100089E994E00E940C0C42E04C0F23E06D2F1C
:1008200089E994E00E940C0CCF5F23E04C2F602FED
:1008300089E994E00E94240D64E0600F23E04C2FCE
:1008400089E994E00E94240D62E0600F24E04C2FBF
:1008500089E994E0DF91CF911F910F910C94240DC1
:10086000D1E0D80F462F6D2F89E994E00E945C02F9
:1008700063E0600F4C2F89E994E00E945C0241E044
:100880004C0F25E0602F89E994E00E940C0C42E0B7
:100890004C0F25E0602F89E994E00E940C0C43E0A6
:1008A0004C0F23E06D2F89E994E00E940C0C44E08A
:1008B0004C0F62E0600F07C089E994E00E940C0CC5
:1008C00044E04C0F6D2F89E994E0DF91CF911F91A7
:1008D0000F910C945C02DF91CF911F910F910895BD
:1008E000DC0116969C911697992359F01396ED9179
:1008F000FC911497915016969C93E90FF11D8081FD
:10090000089581E00895DC0116962C91169730E049
:10091000621773075CF4261B370B1396ED91FC915D
:100920001497E20FF31F31978081089582E20895B2
:10093000FC0126818581281748F48381948131E068
:10094000320F3683FC01E20FF11D60830895FC0134
:1009500083819481009711F00C94C42008950F9323
:100960001F93CF93DF938C01FC0116826583C62F02
:10097000D0E0CE010E942F20FC01C80FD91F21E03A
:10098000EC17FD0711F02193FBCFF80194838383CB
:10099000DF91CF911F910F910895FC01908197FFF6
:1009A00002C09F7701C0906890830895EF92FF92F4
:1009B0000F931F93CF93DF931F92CDB7DEB700E065
:1009C00010E0C801835A9E4F7C01FC018681882378
:1009D00071F0C7010E947004898387FF04C0CE01B3
:1009E00001960E94CD046981C7010E949804095FA5
:1009F0001F4F0133110529F70F90DF91CF911F9100
:100A00000F91FF90EF9008950E94AD0D0E94351355
:100A100081E090E090930101809300010E94D60450
:100A20000E9445021092510108953F924F925F92A9
:100A30006F927F928F929F92AF92BF92CF92DF92EE
:100A4000EF92FF920F931F93CF93DF93CDB7DEB753
:100A500027970FB6F894DEBF0FBECDBF81E080931D
:100A60009F049091BB04992309F45CC18093A10475
:100A70001092A00410929F04109263048093B90412
:100A80008093BA0499EE492E90E0592ECC24C39459
:100A90001CE00E94690E8823E1F3ECE6F1E084910A
:100AA000E8EEF0E0A490F2018490F090B9040A2CF2
:100AB000000CBB081A141B040CF11092A204109332
:100AC000A3048CE691E00E948C1380919D04982FE2
:100AD000990F890F81958D5A8093A20480919E046D
:100AE000982F990F890F8195835D8093A30480913E
:100AF000BC0484FFA7C084EE90E0A6C01814ECF6F6
:100B0000482D41330CF040E33A2DF5E5AF16B10422
:100B10000CF034E5E090A50487E0A80EB11C83E05A
:100B2000B594A7948A95E1F700E088E492E021E08B
:100B30006AEE70E0842E440F9908402F50E048156B
:100B400059050CF0BACFFB01D490F1E0FF1218C0A8
:100B5000FB01DC0140E8542F5D2119F05C91522B20
:100B60005C9350E0559547954115510519F4319620
:100B7000D49040E811965A2F581B531760F359C070
:100B8000F1101AC0722E7094FB01DC0140E8542F62
:100B90005D2119F05C9157215C9350E05595479584
:100BA0004115510519F43196D49040E811965A2F09
:100BB000581B531760F33DC043E0F41223C0622E6C
:100BC0006094FB01DC0140E8782E3A2E381A542F4D
:100BD0005D2141F03E245C9130FE02C0522B01C0E9
:100BE00056215C9350E0559547954115510519F4F0
:100BF0003196D49040E811965A2F5719531728F37D
:100C0000EC2417C0FB01DC0140E8542F5D2119F0F2
:100C10005C9152275C9350E05595479541155105DD
:100C200019F43196D49040E811965A2F581B531757
:100C300060F3220F19F48C5A9F4F21E00F5F6A0D69
:100C40007B1D7BCF80EE90E00E94AD1380919D04D0
:100C5000982F990F890F81958D5A8093A2048091C6
:100C6000A3048F5F8093A30480917504882319F0F7
:100C70008CED90E002C088ED90E00E94AD13809171
:100C80009D04982F990F890F81958D5A8093A20406
:100C90008091A3048F5F8093A30484ED90E00E9471
:100CA000AD13809161048130A1F4809175048F5F50
:100CB0006091760487FD09C0082E000C990B70E046
:100CC0006F5F7F4F0E946123682F609375040E94BD
:100CD0001B14809160048130B9F08091BB04482FCF
:100CE00050E060E070E08090BC049090BD04A09063
:100CF000BE04B090BF0484169506A606B70608F495
:100D00004FC18F3F09F44CC18FEF8093BB0480E04B
:100D10000E94D01360E080E691E00E94E71381E03A
:100D200080936304C0906504D0906604C094D0940E
:100D3000E12CF12C0E940E0B4B015C010E940E0B6A
:100D4000A50194012095309540955095609570953A
:100D5000809590950E9445239B01AC01C701B60187
:100D60000E9445234B015C0180914C0490914D04FD
:100D70006C01E12CF12C0E940E0BC60ED71EE81E52
:100D8000F91EC701B601680D791D8A1D9B1D6115ED
:100D900071058105910511F00E94AF211092630445
:100DA00010925C0110925B01109251018BE08093D4
:100DB0005A0185E080935901109258011092500118
:100DC000E12CF12CC70174E0880F991F7A95E1F7A7
:100DD000082F006811E0612F602B8AE491E00E94E7
:100DE00098041F5F1E30B9F78FEFE81AF80A94E0F5
:100DF000E916F10439F700E010E02091500130E0ED
:100E0000021713077CF57901E01AF10A49F00E94F4
:100E1000AA219701FF0C440B550B0E94B82103C077
:100E200060E070E0CB0120914D0130914E01F9015D
:100E3000E60FF71F9081A0915001B0E0A01BB10B0D
:100E4000A20FB31F11978C91808380915001E82FDE
:100E5000F0E0E01BF10BE20FF31F319790830F5F7F
:100E60001F4FCBCF10922B011092320110923901FB
:100E70001092400180E090E0FC01E35AFE4F1682A0
:100E8000079681339105C1F7109236025DE5852EF4
:100E900051E0952E00E010E066E0462EDE0111964E
:100EA0005D017724739455245394602E660C780169
:100EB000C12CD12C8AE491E00E9470048F830E151E
:100EC0001F0521F4CE0107960E94CD042091360221
:100ED000F501442D11924A95E9F75982429EC001CD
:100EE000112482579E4FF501DC01342D01900D92A3
:100EF0003A95E1F7DC0112967C92129713967C9258
:100F00001397F401EC0DFD1D308114963C9314975A
:100F10003181360D15963C9315971196EC921197E9
:100F20003F813C932F5F20933602BFEFEB1AFB0A01
:100F3000E7E0CE0ED11CF7E0EF16F10409F0BACFCE
:100F40000F5F1F4F47E0840E911C0730110509F019
:100F5000ACCF109236021092010110920001109253
:100F60009F0488248A94612C10E090E3E92E00E02D
:100F70009924939423E0722E38E6C32E31E0D32EC9
:100F80004AE6A42E41E0B42E0E94690E8823E1F3C4
:100F9000809160040E2C000CFF08813049F432C0AF
:100FA00080916204813009F074CD0E94D3146ECD1B
:100FB00090916104913031F180916204813009F4A3
:100FC000ACC061102DC080915F048F3F21F0837011
:100FD000813009F49AC080915D048F3F21F08370C5
:100FE000813009F496C0023021F007FF03C001E010
:100FF00001C000E080919E0414E0180F809F10193A
:1010000011241CC010919E04110F119512508130B3
:1010100009F088C060E080E691E00E94E713802E2E
:10102000C701811B910917FD939502972CF4882025
:1010300009F450C083E04FC066246394C701810F58
:10104000911D17FD9A9597FD01962C015594479493
:10105000E42C1092A2044092A3049092A104109256
:10106000A004011102C07092A204F601859194912E
:101070000E94AD13013039F47092A20480919E0455
:10108000840D8093A304F501859194910E94AD1382
:101090001092B9041092BA0480919E04442D089FC6
:1010A000400D1124415024E560E089E994E00E945C
:1010B0000C0C9092B9049092BA0480919E0463E063
:1010C000680F942D089F900D1124892F82500E9443
:1010D0004E135ACF81E08093240127960FB6F894DF
:1010E000DEBF0FBECDBFDF91CF911F910F91FF905B
:1010F000EF90DF90CF90BF90AF909F908F907F90B8
:101100006F905F904F903F9008950F5F0E941B1467
:1011100062CF01500E941B1466CF10919E04110FE4
:101120001195125060E088E591E00E94E71378CFB6
:10113000FC01208130E084E0359527958A95E1F720
:101140002370332781E02230310529F02330310527
:1011500011F080E008950895CF92DF92EF92FF9210
:101160000F931F93CF93DF931F92CDB7DEB7E82E77
:10117000F62E142F498347FF02C083E001C080E0B0
:101180008093B9048093BA040CE028E0DD24D39462
:10119000DF0C4D2DCC24C394CE0C6C2D89E994E04A
:1011A0000E942F0C81E08093B9048093BA0428E058
:1011B0004F2D6C2D89E994E00E940C0C28E04DE045
:1011C0004F0D6C2D89E994E00E940C0C2CE04D2D04
:1011D0006E2D89E994E00E94240D2CE04D2D69E0EC
:1011E0006E0D89E994E00E94240D17FD23C0CE0105
:1011F00001960E949808882329F083E08093B9041F
:101200008093BA04412F50E084E0559547958A9524
:10121000E1F74370552762E06F0D82E08E0D0E946A
:10122000B0031F70412F50E067E06F0D85E08E0D19
:101230000E94B4020F90DF91CF911F910F91FF9008
:10124000EF90DF90CF900895EF92FF920F931F934E
:10125000CF93DF937C01FC01C681D0E0CA30D10579
:1012600014F02A9702C0C0E0D0E000E010E0F701DF
:1012700066816A3018F4862F90E002C08AE090E020
:1012800008171907B4F470E0601B710B6150710905
:101290006C1B7D0BC7010E948304602F660FF70152
:1012A0009181690F482F80810E94AC080F5F1F4F0A
:1012B000DECFDF91CF911F910F91FF90EF900895B6
:1012C000DF92EF92FF920F931F93CF93DF93809162
:1012D0005001882339F041E860914B0180914A0127
:1012E0000E94AC08C0E0D0E060915801643008F082
:1012F0004FC070E0C617D707ACF46C1B7D0B615074
:10130000710982E591E00E9483042C2F220F9091B5
:101310005201482F60915301822F890F0E94AC081F
:101320002196E2CFC5E2D1E000E010E083E0D82EC4
:10133000C8018B5D9E4F7C01FC018681882361F092
:1013400060E070E0CE010E948304482FF7016181C4
:1013500088810E94AC080BC0D092B904D092BA0424
:101360002EE04AE0F701618188810E947312095FD3
:101370001F4F27960C311105D9F6CDE5D1E0CE01EE
:101380000E9424092796F1E0CE38DF07C1F706C096
:10139000C330D1053CF663E070E0AFCFDF91CF9171
:1013A0001F910F91FF90EF90DF900895CF92DF9201
:1013B000EF92FF920F931F93CF93DF936C017A010B
:1013C0008B01C0E0D0E0CE15DF0589F0D8016D912A
:1013D0008D01D601ED91FC910190F081E02DC601C7
:1013E0000995892B11F47E0102C02196ECCFC7012B
:1013F000DF91CF911F910F91FF90EF90DF90CF90F1
:1014000008950E948F23833081F028F4813099F071
:101410008230A1F008958730A9F08830B9F0843087
:10142000D1F4809180008F7D03C0809180008F7700
:1014300080938000089584B58F7702C084B58F7D36
:1014400084BD08958091B0008F7703C08091B00073
:101450008F7D8093B00008951F93CF93DF93282F43
:1014600030E0F901E352FC4F8491F901E753FC4F5E
:10147000D491F901EB54FC4FC491CC23C9F0162F41
:1014800081110E94030AEC2FF0E0EE0FFF1FEE54D3
:10149000FF4FA591B4918FB7F894111105C09C919D
:1014A000ED2FE095E92302C0EC91ED2BEC938FBF7B
:1014B000DF91CF911F910895CF93DF9390E0FC01CE
:1014C000E753FC4F2491FC01EB54FC4F849188239B
:1014D00061F190E0880F991FFC01E855FF4FC5911D
:1014E000D491FC01EE54FF4FA591B491611109C054
:1014F0009FB7F8948881209582238883EC912E23CE
:101500000BC0623061F49FB7F8943881822F8095C8
:1015100083238883EC912E2B2C939FBF06C08FB71B
:10152000F894E8812E2B28838FBFDF91CF91089507
:101530001F93CF93DF93182FEB0161E00E945C0AA9
:10154000209711F460E004C0CF3FD10539F461E089
:10155000812FDF91CF911F910C942C0AE12FF0E0A5
:10156000E352FC4FE491E330F9F048F4E130B9F094
:10157000E230A1F584B5806284BDC8BD34C0E730D7
:10158000E9F0E83019F1E43049F58091800080629B
:1015900080938000D0938B00C0938A0024C084B5D0
:1015A000806884BDC7BD1FC0809180008068809323
:1015B0008000D0938900C093880015C08091B0004E
:1015C00080688093B000C093B3000DC08091B000DC
:1015D00080628093B000C093B40005C0C038D105CC
:1015E0000CF0B5CFAFCFDF91CF911F9108958E3022
:1015F00008F08E508770806480937C0080917A0020
:10160000806480937A0080917A0086FDFCCF80917F
:1016100078002091790090E0922B08953FB7F894DC
:1016200080913E0290913F02A0914002B091410210
:1016300026B5A89B05C02F3F19F00196A11DB11D2D
:101640003FBFBA2FA92F982F8827820F911DA11D68
:10165000B11DBC01CD0142E0660F771F881F991FA5
:101660004A95D1F708958F929F92AF92BF92CF92F1
:10167000DF92EF92FF926B017C010E940E0B4B01F7
:101680005C01C114D104E104F104F1F00E940E0BDD
:10169000DC01CB0188199909AA09BB09883E93404E
:1016A000A105B10570F321E0C21AD108E108F108E3
:1016B00088EE880E83E0981EA11CB11CC114D104D1
:1016C000E104F10419F7DDCFFF90EF90DF90CF90A8
:1016D000BF90AF909F908F9008951F920F920FB67A
:1016E0000F9211242F933F938F939F93AF93BF93A8
:1016F0008091440290914502A0914602B091470228
:1017000030913D0223E0230F2D3720F40196A11DD7
:10171000B11D05C026E8230F0296A11DB11D20931F
:101720003D028093440290934502A0934602B093F9
:10173000470280913E0290913F02A0914002B091F9
:1017400041020196A11DB11D80933E0290933F027C
:10175000A0934002B0934102BF91AF919F918F91AE
:101760003F912F910F900FBE0F901F901895809171
:101770004804882319F080914A0401C080E08093D6
:10178000B40008951F920F920FB60F9211242F9359
:101790003F934F935F936F937F938F939F93AF93F9
:1017A000BF93EF93FF9360914904662321F18091E9
:1017B0003C028F5F80933C02909142028917D8F0DF
:1017C0009091480481E089278093480410923C025C
:1017D00080914302882369F08091020193E4899FFC
:1017E000802D1124895B809302010E9455239093E0
:1017F0004A040E94B70BFF91EF91BF91AF919F9167
:101800008F917F916F915F914F913F912F910F90A9
:101810000FBE0F901F901895DF92EF92FF920F93DB
:101820001F93CF93DF931F92CDB7DEB78C01D62ED7
:10183000F42EE12CE21654F46E2D6D0D4F2DC801DF
:1018400029830E945C02E3942981F4CF0F90DF91F9
:10185000CF911F910F91FF90EF90DF900895DF924D
:10186000EF92FF920F931F93CF93DF937C01D62FBC
:10187000D22EC42F002E000C110B040F111D47FD9A
:101880001A954C2F0C2E000C550B4017510744F4A1
:101890002D2D4C2F6D2FC7010E940C0CCF5FF1CF67
:1018A000DF91CF911F910F91FF90EF90DF900895FE
:1018B0006F927F928F929F92AF92BF92CF92DF9260
:1018C000EF92FF920F931F93CF93DF93EC016A3057
:1018D00019F42D819885A1C06D3009F4A4C0188534
:1018E000BA84D98488A083E58D150CF47FC08FE27B
:1018F0008B150CF47BC08C8190E00197189F9001B0
:10190000199F300D1124C9018D0D911DD7FC9A9599
:10191000181619060CF06AC08D81819FC001112430
:101920008B0D911DB7FC9A95181619060CF05EC028
:101930009D2CCD2CE62EF12CEC2DED190E2E000C4D
:10194000FF0B8C8190E0E817F9070CF04EC001976F
:10195000E817F90779F0E89E9001E99E300DF89EAE
:10196000300D1124E20FF31F8E8D9F8DE80FF91FAC
:10197000749001C0712C6B2CAB2C2A2D2B19022ECC
:10198000000C330B8D8190E0281739075CF570FE51
:1019900010C0113031F44A2D6C2DCE010E945C0232
:1019A0001DC0012F212F462D692DCE010E942F0C25
:1019B00015C089A198A1891789F088A3113031F445
:1019C0004A2D6C2DCE010E945C0207C0012F212FF1
:1019D000462D692DCE010E942F0C88A27694A394E7
:1019E000610ECBCFC394910EA7CF88A228853C81EE
:1019F0008985329F800D112489879F81992399F0D1
:101A0000082E000C990B44E550E0239F4019510922
:101A10001124481759073CF49D818A85299F800D20
:101A200011248A87198681E090E0DF91CF911F9180
:101A30000F91FF90EF90DF90CF90BF90AF909F906D
:101A40008F907F906F900895DF92EF92FF920F93A7
:101A50001F93CF93DF931F92CDB7DEB78C01D62EA5
:101A6000F42EE12CE21654F44E2D4F0D6D2DC801CD
:101A700029830E945C02E3942981F4CF0F90DF91C7
:101A8000CF911F910F91FF90EF90DF90089542E06A
:101A9000460F23E0682F89E994E00C940C0C462F44
:101AA00023E0682F89E994E00C94240D42E0460F6E
:101AB00023E0682F89E994E00C94240D44E0460F5C
:101AC00023E0682F89E994E00C940C0C42E0460F67
:101AD00062E0680F23E089E994E00C94240D462F1E
:101AE00062E0680F23E089E994E00C94240D462F0E
:101AF00023E0682F89E994E00C940C0C1F93CF939A
:101B0000DF93C82F162F861721F1862F90E08C1BAC
:101B1000910963E070E00E946123D62F611117C024
:101B20006091BC047091BD048091BE049091BF048B
:101B300023E030E040E050E00E94EA21672B682B70
:101B4000692B29F4C11710F0DFEF01C0D1E08D2F10
:101B50008C0FDF91CF911F91089580915B0190913F
:101B60005C018630910554F482309105A4F400970D
:101B7000E9F00197D1F422E531E01AC08D309105EA
:101B8000A4F4069747E0489F9001499F300D112427
:101B9000235A3E4F0DC0029747E0489F9001499F4E
:101BA000300D11242B5D3E4F03C008952AE431E02F
:101BB000C9010895CF93DF93C0913B0287E0C89F8E
:101BC000E0011124CB5DDE4F8E81882309F451C0E2
:101BD000CE010E94700480934101888110924201DD
:101BE00080934301898110924401809345010E94B2
:101BF000AA2122E030E040E050E00E94B821672BAB
:101C0000682B692B19F4CFEFDFEF02C0C1E0D0E001
:101C10000E94AA2120E031E040E050E00E94B8217B
:101C2000DC01CB019F5FAF4FBF4FC89F9001C99FA1
:101C3000300DD89F300D1124309347012093460179
:101C40000E94AA2120E032E040E050E00E94B8214A
:101C50007195619571097093490160934801809174
:101C60003B0290E001968370992780933B0281E0CC
:101C700001C080E0DF91CF910895CF93DF93C82F0B
:101C8000D62F0E94770D6D2F8C2F0E944F0D6D2F38
:101C90008C2F0E94470D6D2F8C2F0E94660D6D2F8B
:101CA0008C2FDF91CF910C945E0DCF93DF93C82FD3
:101CB000D62F0E944F0D6D2F8C2F0E94470D6D2F38
:101CC0008C2F0E946F0D6D2F8C2FDF91CF910C9474
:101CD000660D4F925F926F927F928F929F92AF921A
:101CE000BF92CF92DF92EF92FF920F931F93CF9309
:101CF000DF9300D000D0CDB7DEB74091CB04509138
:101D0000CC046091CD047091CE042FB7F8948091EB
:101D1000440290914502A0914602B09147022FBF24
:101D2000481B590B6A0B7B0B8091CA0490E0A0E022
:101D3000B0E0C090C604D090C704E090C804F09012
:101D4000C90484179507A607B70730F4C114D10456
:101D5000E104F10409F0E6C2CD28CE28CF2809F02D
:101D6000DFC28091620481508E3F08F5809161044A
:101D7000813011F5809175048F5F6091760487FD45
:101D800009C0082E000C990B70E06F5F7F4F0E9416
:101D90006123682F6093750487E593E09093D004E6
:101DA0008093CF0488E48093D1040E941B14809117
:101DB000620481508E3F70F480916004813009F09C
:101DC0005DC38AE493E09093D0048093CF0488E4C9
:101DD0008093D10480E00E940815809171048823CB
:101DE00009F4ABC0809185048111A7C080917D0466
:101DF00090917E04E0918204F0918304EE0FFF1F26
:101E0000E80FF91F4591549141155105F1F42091C6
:101E10008104222331F01092830410928204FC0189
:101E200012C01092710480917004882341F080E008
:101E30000E940815E0918204F09183042DC080E097
:101E40000E94BB137AC0459154919A01369527950B
:101E50003695279540FF51C0CA01B6E09695879503
:101E6000BA95E1F78F71952F969596959695905125
:101E70002F70223071F1F8F4211117C08B3008F067
:101E80008AE080938604E0918204F0918304319685
:101E9000F0938304E0938204EE0FFF1F80917D0492
:101EA00090917E04E80FF91FCECF213061F760E0FA
:101EB0000E944815E8CF2330B1F0243021F720915B
:101EC0007404829F802D112480938D0490938E043E
:101ED000DACF20917404829F802D1124809389048D
:101EE00090938A04D0CF20917404829F802D112476
:101EF00080938B0490938C04C6CF2F73209384041B
:101F000080917404859F802D112480938504109204
:101F10009504109294041092930481E080938704B6
:101F200080934804109288048091820490918304E5
:101F30000196909383048093820480918704882380
:101F400009F4EEC080918504811103C00E94BB1387
:101F5000E7C081508093850480919504811146C02B
:101F600020919304309194042F5F3F4FC901880F53
:101F7000991FE0918F04F0919004E80FF91F65918B
:101F80007491862F877080939604AB0163E0569519
:101F900047956A95E1F7CA0196958795972F96958B
:101FA0009695909397048F7390917404899F802DD8
:101FB000112480939504417040934302309394041C
:101FC000209393048091910490E02817390770F0D2
:101FD00020919204222339F0821B9109909394045A
:101FE0008093930403C080E00E94BB13809195040A
:101FF0008150809395048091880421E0280F2093DC
:1020000088044091840430919704340F80917C04BB
:10201000380F3093720460918B04662371F070E086
:10202000822F022E000C990B0E94612380918C0458
:10203000869F300D1124309372048091720490E0D9
:10204000849664E270E00E94612380937204309170
:1020500086043093730460918904662381F0062E10
:10206000000C770B822F022E000C990B0E9461232B
:1020700080918A04869F300D1124309373046091FF
:102080008D046623A1F0822F220F990B70E00E942D
:102090006123CB0162E070E00E94612320918E04F5
:1020A00090917304289F900D112490937304809154
:1020B00073044F3341F08A300CF089E087FD80E0F3
:1020C0008093730402C010927304F894E091720438
:1020D000F0E0EA58FE4FE491E0934202309173043D
:1020E00020919804320390011124409196044203F8
:1020F000C001439F900D11240090750402C0880F09
:10210000991F0A94E2F797FF02C081589F4F880FEA
:10211000892F881F990B8093490480934A047894EF
:102120008091D104882309F450C08C3020F49CE0C5
:10213000D92ED81A01C0D12CEE24E394E092A10448
:102140001092B9041092BA0410919E043DE2F32E4D
:10215000CF2CC11ACD0C03E0010F2EE44C2D63E00F
:1021600089E994E00E942F0C145003E00C0D212FFC
:1021700041E0602F80E50E948315212F42E0602F0F
:1021800083E00E948315E092B904E092BA04809142
:102190009E0463E0680FF81A8F2D8D0D0E944E1378
:1021A00084E08093A20480919E04D81A8D2D815DD5
:1021B0008093A3048091CF049091D0040E948C134B
:1021C0008091D10481508093D104809167049091D3
:1021D0006804892B09F47CC011E01093B9041092B3
:1021E000BA0490919D0485E5891B8093A204109206
:1021F000A30480916404813009F44DC030F09091C3
:102200006304853008F05FC05AC080E00E94D0139C
:102210001093A104E8ECF1E0E491EF5FE0939D04FA
:10222000E9ECF1E0E491EF5FE0939E048AEC91E049
:102230009093B8048093B7041092680410926704D6
:1022400010929F0418EA0E94690E8823E1F38AEB3A
:1022500091E00E948C13609165047091660480E0A7
:1022600090E04AE00E94E61585EA91E00E948C1316
:10227000612F62956F7070E080E090E04AE00E940C
:10228000E6158AE991E00E948C1380916004813008
:1022900009F0FAC01DC08091BC049091BD04A091CA
:1022A000BE04B091BF048F709927AA27BB27089757
:1022B000A105B10510F487E009C088E707C099239C
:1022C00039F08B5F03C0992319F08FE20E94271623
:1022D0000E94931480919F0481110EC088EF91E0B9
:1022E000E8E4F2E0DF019C011D9221503040E1F76B
:1022F0001092A2041092A3040E940E0B6093C604D5
:102300007093C7048093C8049093C9042091C204B9
:102310003091C304621B730B7093C1046093C004BB
:1023200080E0CCC02FB7F894809144029091450290
:10233000A0914602B09147022FBF2091CA04820F9C
:10234000911DA11DB11D8093CB049093CC04A0934B
:10235000CD04B093CE048091BC049091BD04A091B3
:10236000BE04B091BF040196A11DB11D8093BC04B1
:102370009093BD04A093BE04B093BF041092C60412
:102380001092C7041092C8041092C9040E940E0B48
:102390006093C2047093C3048093C4049093C504F3
:1023A00080914C0490914D042FE0289F8001299F3B
:1023B000100D112485E10E94F70A800F911F24E07F
:1023C000969587952A95E1F790934D0480934C0458
:1023D00020914B04222309F44BC060914F04262F17
:1023E00030E040E050E029833A834B835C83C09027
:1023F0005004D12CE12CF12C409153045091540401
:102400004A01A12CB12C2091510430915204290190
:10241000612C712C8217930728F09C0148175907EB
:1024200008F49A01C901A0E0B0E09C01AD012419B3
:1024300035094609570969817A818B819C816C191C
:102440007D098E099F090E944523A5019401241945
:102450003509460957090E94B821C20ED31EE41E51
:10246000F51EC0924E046C2D70E085E00E94980A23
:102470000E9420140E94321681E020C0893209F0A7
:10248000A9CC0E94D314A6CC115009F0DCCE60E098
:1024900070E085E00E94980A83B7817F846083BFE3
:1024A00083B7816083BF83B7816083BF889583B71B
:1024B0008E7F83BF83B78E7F83BFC5CE0F900F9073
:1024C0000F900F90DF91CF911F910F91FF90EF90A0
:1024D000DF90CF90BF90AF909F908F907F906F9044
:1024E0005F904F9008950F931F93CF93DF93C82F62
:1024F000162FD42F022F242F462F682F89E994E01E
:102500000E940C0C4FEF400F410F2D2F6C2F89E9CB
:1025100094E00E940C0C202F412F6C2F89E994E04D
:102520000E94240DD1506D2F6C0F202F412F89E96F
:1025300094E0DF91CF911F910F910C94240DAF92F5
:10254000BF92CF92DF92EF92FF920F931F93CF93A0
:10255000DF93182F062FC1E0D3E08AEFD82E9EEF2D
:10256000E92E842F8470C82E842F8270B82E842F79
:102570008870A82E4170F42E8C2F880F8F5FE80E84
:10258000CC2081F04D2F400F6C2F610F89E994E032
:102590000E945C024C2F400F6D2F610F89E994E07F
:1025A0000E945C02BB2081F0402F4D1B6C2F610FFD
:1025B00089E994E00E945C02402F4C1B6D2F610F53
:1025C00089E994E00E945C02AA2081F04C2F400F20
:1025D000612F6D1B89E994E00E945C024D2F400F32
:1025E000612F6C1B89E994E00E945C02FF2081F05E
:1025F000402F4C1B612F6D1B89E994E00E945C0207
:10260000402F4D1B612F6C1B89E994E00E945C02F6
:10261000CD1744F4E7FC04C0D150D394D394ED0C0F
:10262000CF5FAACFDF91CF911F910F91FF90EF90D5
:10263000DF90CF90BF90AF900895BC01009791F0CC
:10264000FC0101900020E9F73197AF01481B590BBD
:10265000E0919904F0919A040280F381E02D89E9D8
:1026600094E0099480E090E008950F931F93CF9336
:10267000DF938C01C091D804D0E0219750F0BE01C7
:1026800082ED94E00E948304682FC8010E949804A0
:10269000F4CFDF91CF911F910F9108951F93CF93A6
:1026A000DF93C82F162F2EE4482F63E089E994E0CA
:1026B0000E940C0CDC2FD10F4FEF4D0F2EE463E086
:1026C00089E994E00E940C0C1650CD5F212F4C2F0D
:1026D00060E089E994E00E94240D212F4C2F63E5EE
:1026E00089E994E00E94240D41E06C2F83E00E9470
:1026F0009F1242E06C2F80E50E949F12D45044E06C
:102700006D2F80E50E949F1248E06D2F83E0DF91DE
:10271000CF911F910C949F120F931F93CF93DF9330
:102720008C01C0E0D0E0F801EC0FFD1F649166233E
:1027300071F0E0919904F0919A040190F081E02DFC
:1027400089E994E00995892B11F02196ECCFCE010F
:10275000DF91CF911F910F910895CF93DF930E9446
:102760008C13EC0189E191E00E941D138C0F9D1FD9
:10277000DF91CF910895811112C0109287041092B9
:10278000850410929404109293041092880410927D
:102790004A0410924904109248040C94B70B08950F
:1027A000811114C010928704109285041092940431
:1027B000109293041092880410924A0410924904D3
:1027C000109248040E94B70B1092710408950F9361
:1027D0001F93CF93DF931F92CDB7DEB78C01862F67
:1027E00069830E94D0136981E62FF0E0DF01AA0F10
:1027F000BB1FA85ABB4F96961C930E939597DF016B
:10280000AA0FBB1FA35ABB4F96961C921E92959778
:10281000E55BFB4F81E086A389E083AF16AEDF0165
:102820005B9695961C927D9615A20F90DF91CF91A5
:102830001F910F91089560E081EF93E00C94E713EE
:10284000CF92DF92EF92FF920F931F93CF93DF937C
:10285000C5E5D4E00CE514E0FF24FA9497E0E92EF6
:10286000E00E62E088810E945C0A288130E0F90174
:10287000E352FC4F8491F901E753FC4FC490F901F6
:10288000EB54FC4FD490DD2071F081110E94030ABB
:10289000ED2DF0E0EE0FFF1FE555FC4FA591B49133
:1028A000EC91EC21B1F4F80180818F5F808360E0CE
:1028B00088810E945C0A21960F5F1F4FE012D1CFE2
:1028C000DF91CF911F910F91FF90EF90DF90CF900C
:1028D0000895F8018081882371F3F8018F3F11F486
:1028E0001082E5CFF082E3CFCF93C82FF89460E059
:1028F0008091A8040E942C0A8091A90418161CF447
:1029000060E00E942C0ACEBD00000DB407FEFDCF92
:102910008EB58091A90418161CF461E00E942C0A5F
:102920007894CF9108950F931F93CF938091A5042E
:102930008F5F8093A50408E412E0C0E08C2F8064D0
:102940000E94741480E80E94741461E08091A804CD
:102950000E942C0A8091A90418161CF460E00E94C1
:102960002C0A80E090E0F801E80FF91F20812EBDCD
:1029700000000DB407FEFDCF2EB5019684359105FC
:1029800091F78091A90418161CF461E00E942C0AAA
:10299000CF5F0C5A1F4FC63089F680E4CF911F914C
:1029A0000F910C94741488EF91E0E8E4F2E0DF01F9
:1029B0009C011D9221503040E1F71092A204109228
:1029C000A30483E893E00E948C130E9493148CB5B7
:1029D00083608CBD8DB58E7F8DBD8CE191E0EEEF77
:1029E000FFE3099510929F048EE593E00E94AD13DA
:1029F0000E9493140E94201480916004813039F069
:102A000062E370E080E090E00E94330BF3CF089522
:102A1000CF93DF93482F50E0EA01C55BDB4F9DA1C8
:102A2000992399F19EA1911130C09EA5FA01EE0F54
:102A3000FF1FEE5AFB4F35A126A1E32FF22FE90F1E
:102A4000F11DE90FF11D259134912F3F9FEF3907BB
:102A500011F41DA21AC039AB440F551FFA01EB5AED
:102A6000FB4F3327220F331F05A0F6A1E02DE20F05
:102A7000F31F25913491811104C060E0C9010E94C7
:102A8000E71329968DA18F5F8DA3DF91CF910895D4
:102A900070E0DB01AA0FBB1FA55BBB4FD4962C9146
:102AA000D497D5969C91D597E22FF92FE80FF11D79
:102AB000E80FF11D259134915F9696963C932E93E5
:102AC0009597F9018591949190917404989F802D28
:102AD0001124655B7B4FFB01B19685A3F901A5919C
:102AE000B4914B2F50E0E82FF0E04E175F0720F431
:102AF000F90125913491832FFB01B296899F802D96
:102B0000112485A308959F92AF92BF92CF92DF9236
:102B1000EF92FF920F931F93CF93DF93F82EE62E41
:102B2000B22E03E0020FD0E0C3E08AEFC82E1EEF02
:102B3000842F8170982EAA24A394A20E4270D42EC2
:102B4000DF5F802F8B19180F9920A1F02C2F220FF7
:102B50002A0D4E2D4C1B6D2F6F0D89E994E00E94BC
:102B6000240D202F4E2D4D1B6C2F6F0D89E994E005
:102B70000E94240DDD20A1F02C2F220F2A0D4E2DB6
:102B80004C1B6F2D6D1B89E994E00E94240D202FB2
:102B90004E2D4D1B6F2D6C1B89E994E00E94240D76
:102BA000DC1744F417FD04C0C150C394C3941C0D3A
:102BB0000E5FC6CFDF91CF911F910F91FF90EF90E5
:102BC000DF90CF90BF90AF909F9008958F929F928B
:102BD000AF92BF920F931F93CF93DF93CDB7DEB722
:102BE000A1970FB6F894DEBF0FBECDBF19A2423039
:102BF00008F44AE08E010F5D1F4F842E912CA12C0A
:102C0000B12CA50194010E94EA21E62FB901CA0165
:102C100001501109EA3014F4E05D01C0E95CD8010B
:102C2000EC93232B242B252B61F7C8010E941D1345
:102C3000A1960FB6F894DEBF0FBECDBFDF91CF9146
:102C40001F910F91BF90AF909F908F900895E0914A
:102C50009904F0919A040190F081E02D682F89E9A0
:102C600094E009948091670490916804892BB1F1F4
:102C700080916F048F7169F584E10E94F70ABC01AD
:102C8000990F880B990B0E944C2226EE3FE34EECE5
:102C900050E40E94B0220E941B229B0170936604A4
:102CA00060936504672B91F084E080936404E7E609
:102CB000F4E080E0419151912417350718F4809396
:102CC000640408958F5F8430A9F703C08FEF809369
:102CD000640480916F048F5F80936F040895CF9395
:102CE000DF9300D000D01F92CDB7DEB7789484B5C3
:102CF000826084BD84B5816084BD85B5826085BDF8
:102D000085B5816085BD80916E00816080936E0085
:102D10001092810080918100826080938100809177
:102D20008100816080938100809180008160809328
:102D300080008091B10084608093B1008091B000E8
:102D400081608093B00080917A00846080937A00E3
:102D500080917A00826080937A0080917A0081600D
:102D600080937A0080917A00806880937A00109234
:102D7000C10082E38093CA0481E090E0A0E0B0E06B
:102D80008093C6049093C704A093C804B093C90469
:102D90008FEF8093BB04E0E8F7E725913491213071
:102DA000304C09F049C0E6E9F7E7E491E093A40468
:102DB000E7E9F7E7E491E0934F04E8E9F7E7E49106
:102DC000E0935004E9E9F7E78591949190935204D8
:102DD00080935104EBE9F7E7859194919093540423
:102DE0008093530488E080937604EEE9F7E7E4915A
:102DF000E0937504EFE9F7E7E491E093BB04E0EAC0
:102E0000F7E7859194919093680480936704E2EAD0
:102E1000F7E78591949190936A0480936904E4EABA
:102E2000F7E78591949190936C0480936B04E6EAA4
:102E3000F7E7859194912CC09CE39093A4041092A1
:102E40004F048093500480E293E090935204809367
:102E5000510484ED93E0909354048093530488E0EC
:102E600080937604809375048CEA9DE090936804C7
:102E7000809367048EED9DE090936A0480936904CB
:102E800084E79EE090936C0480936B048CE39FE056
:102E900090936E0480936D0411E010934B046FEFD8
:102EA00070E085E00E94980A88E08093550489E0EC
:102EB0008093560487E08093570486E080935804FB
:102EC00004E00093590482E080935A0481E18093E6
:102ED0005B040E9420148CE39FE09093660480932F
:102EE00065040093640410936F048BE08093A7043F
:102EF0008DE08093A60480E18093A8048EE0809307
:102F0000AA048FE08093A9041093A1041093B9043C
:102F10001092BA041093A004E8ECF1E0E491EF5FA2
:102F2000E0939D04E9ECF1E0E491EF5FE0939E040F
:102F30008AEC91E09093B8048093B7041FB7F8949B
:102F400080913702811127C0EFEBF3E08491E3ED2C
:102F5000F3E09491E82FF0E0EE0FFF1FE855FF4FEC
:102F6000A591B491EC91E92321F461E08AE00E94FB
:102F70002C0A61E08AE00E945C0A8CB580618CBDFD
:102F80008CB580648CBD61E08DE00E945C0A61E0DC
:102F90008BE00E945C0A809137028F5F809337023A
:102FA0001FBF8CB58F7D8CBD8CB58C7F81608CBD37
:102FB0008DB581608DBD8CB58C608CBD61E08091DC
:102FC000A7040E945C0A61E08091A6040E945C0A4A
:102FD00061E08091A8040E945C0A8091AA041816FE
:102FE0001CF461E00E945C0A8091A90418161CF48C
:102FF00061E00E945C0A8091AA04181674F460E0F3
:103000000E942C0A6AE070E080E090E00E94330B9E
:1030100061E08091AA040E942C0A8091A604082EE7
:10302000000C990BFC01EB54FC4FE491F0E0EE0F27
:10303000FF1FEE54FF4F259134913093AE0420933F
:10304000AD04FC01E753FC4FE491E093B40480919C
:10305000A704082E000C990BFC01EB54FC4FE491E3
:10306000F0E0EE0FFF1FEE54FF4F259134913093A7
:10307000AC042093AB04FC01E753FC4FE491E093D4
:10308000B3048091A904082E000C990BFC01EB54A9
:10309000FC4FE491F0E0EE0FFF1FEE54FF4F25913F
:1030A00034913093B0042093AF04FC01E753FC4FFC
:1030B000E491E093B5048091A804082E000C990BCC
:1030C000FC01EB54FC4FE491F0E0EE0FFF1FEE54D7
:1030D000FF4F259134913093B2042093B104FC0149
:1030E000E753FC4FE491E093B60481E20E9474142C
:1030F00084E10E9474148091A40487FF03C08FE7C9
:103100008093A4048091A40480680E94741480E2D7
:103110000E9474148CE00E9474140E94931481E045
:103120008093740484E08093980484EA90E0909300
:10313000800480937F0460E080E00E94481561E095
:1031400070E083E00E94980A8091B100887F8160DE
:103150008093B100F8941092800010928100109238
:1031600085001092840088E191E09093890080931B
:103170008800809181008860809381008091810027
:1031800081608093810080916F00826080936F00E6
:1031900078940E94321680916104813009F02FC525
:1031A0001092750485E28093250181E080932601C9
:1031B0001092270191E390932C0180932D0110929E
:1031C0002E019DE3909333018093340110923501D9
:1031D00099E490933A0180933B0110923C01EFE512
:1031E000F1E080E031E121E0DF01129791E0980FFA
:1031F0009C9311963C9391E02083845F37968435AD
:1032000099F790934A0190934B0110924C018DE0F5
:1032100080935201909353010E9415058824839452
:10322000912C74E0E72EF12C0E94690E882309F49A
:10323000DEC480916204813009F4ECC48091000105
:10324000909101018130910521F0039709F48EC01E
:1032500000C1A0905B01B0905C0180915E04813060
:1032600071F4B5E0AB16B10451F06CE0A616B104F0
:1032700031F0C501019690935C0180935B018091D0
:103280005C04813071F480915B0190915C01009746
:1032900041F08630910529F0019790935C0180936D
:1032A0005B0180915F04813041F48091510188235A
:1032B00009F4B3C481508093510180915D04813041
:1032C00011F5C0905B01D0905C0186010650110998
:1032D0000730110508F0B4C40E94AD0D7090510183
:1032E000672D70E06F5F7F4FDC0116962C9130E008
:1032F000621773070CF0A4C40E94830487FDA0C466
:1033000073947092510180916104813059F48091DD
:103310005B0190915C01863091050CF0A7C4019788
:1033200009F4A4C4109160041130A9F480915B01E8
:1033300090915C018130910509F040C50E94AD0D6E
:103340006C019093390280933802DC0116968C91BF
:1033500016978111F9C480915B0190915C01A816C8
:10336000B90609F476C01092510173C080915E04D1
:10337000813079F480915B0190915C0185309105F9
:1033800041F08C30910529F0019690935C01809377
:103390005B0180915C04813079F480915B019091B4
:1033A0005C018130910541F08630910529F001974B
:1033B00090935C0180935B0180915F04813071F494
:1033C00080915B0190915C018130910509F040C5CD
:1033D00087E090E090935C0180935B0180915D04B5
:1033E000813069F480915B0190915C018930910595
:1033F0000CF434C5079790935C0180935B01809136
:103400006004813031F580915B0190915C018630E0
:1034100091050CF05AC5823091050CF452C580918B
:10342000D804813009F08FC50E94AD0DDC011696DD
:103430002C9160E070E0211119C582ED94E00E94AA
:1034400083048F70813009F07EC50E9404050E94BC
:10345000450200910001109101010530110511F0A4
:103460000E9460090230110509F4BAC244F4011542
:10347000110581F00130110509F495C0B8C304307D
:10348000110509F413C30CF4EDC20530110509F45C
:1034900053C3ADC3809136028C3198F44091BC0483
:1034A0005091BD046091BE047091BF0443705527D4
:1034B00066277727452B462B472B19F48F5F809380
:1034C00036028091360291E08C3109F090E011E9EA
:1034D000C12E11E0D12E03E911E020E9A22E21E056
:1034E000B22E612C712C282E312C621473040CF036
:1034F00052C0D5018C91F80122912F01821306C090
:10350000D6013C91F80120813217C9F1F6E0F69D11
:103510009001F79D300D112422573E4FD9014C9157
:10352000F60160812D833C830E94AC08D2014C904F
:10353000642DF50180810E947E0D982FD5018C931A
:10354000F8015080652DD6018C919B830E947E0DE1
:10355000F60180839B812D813C8194110FC08511E0
:103560000DC0F80134978081F7E0F89FC001112465
:10357000D9016C91835A9E4F0E94980490E0BFEF4E
:103580006B1A7B0AE6E0CE0ED11C0A5F1F4FF6E0F5
:10359000AF0EB11CAACF992309F429C3909201015F
:1035A0008092000124C380915B0190915C018D3079
:1035B000910508F07EC0FC01EC5CFF4F0C94752374
:1035C0006BE00FC06091580170E06115710531F03A
:1035D000643071052CF4660F6B5E03C067E101C0B7
:1035E0006BE180915A010E947E0D80935A0165E043
:1035F000809159010E947E0D809359015AC06EE15D
:1036000005C06AE203C066E301C062E480915A012A
:103610000E947E0D80935A0165E0809159010E94BD
:103620007E0D8093590121E045C09C01265031094F
:10363000099794F447E0429FF001439FF00D112455
:10364000E35AFE4F6081665F80915A010E947E0DB1
:1036500080935A0120E011C067E0629FF001639FF0
:10366000F00D1124E35AFE4F6081675080915A019A
:103670000E947E0D80935A0121E0609151012D83BB
:10368000611107C00E94AD0D60E00E942C0264E051
:1036900007C06B830E94AD0D6B810E942C026EEF00
:1036A000680F809159010E947E0D809359012D81F0
:1036B00001C020E010915901D0905A0103E00D0D96
:1036C000B6E07B2E710EA12CB12C222309F4C1C0CF
:1036D00044244394CC24C3944092B9044092BA0445
:1036E000512E5A0C302E3A0C452D632D89E994E069
:1036F0000E945C02672C6A18462D632D89E994E0CC
:103700000E945C021092B9041092BA042A2D452D31
:10371000602F89E994E00E940C0C2A2D462D602F21
:1037200089E994E00E940C0C8FEFA81AB80A94E083
:10373000A916B10479F6C092B904C092BA0427E080
:10374000412F62E06D0D89E994E00E94240D22E092
:1037500042E0410F6D2D89E994E00E940C0C22E0BB
:1037600044E0410F6D2D89E994E00E940C0C03E0C8
:10377000010F402F6D2D89E994E00E945C021092A8
:10378000B9041092BA0422E0402F61E06D0D89E97E
:1037900094E00E940C0CC0905101CC2009F427C287
:1037A0000E94AD0D6C2D70E00E948304C82E8983A9
:1037B0008F70A82EB12C8A3011F030E001C032E0B9
:1037C00081E08093B9048093BA045D2D531B4DE0D2
:1037D000430F29E06FEF610F84EF850F3C835B831C
:1037E0000E9473121092B9041092BA04402F6D2DEA
:1037F00089E994E00E945C023C812BE0230F5B810D
:1038000065EF650F07E0412F89E994E00E942F0CD6
:10381000CE0101960E949808811102C081E001C08A
:1038200083E08093B9048093BA041F5FA501612FE0
:1038300086EF8D0D0E94B4024C2D50E0A4E055950A
:103840004795AA95E1F743705527612F8AEF8D0DB3
:10385000C4C033243394CC24C3943092B90430923E
:10386000BA04412E4A0C442D602F89E994E00E944D
:103870005C02572C5A18452D602F89E994E00E946C
:103880005C021092B9041092BA0466246394600E2C
:103890002A2D442D662D89E994E00E940C0C2A2DD6
:1038A000452D662D89E994E00E940C0CAFEFAA1A11
:1038B000BA0A0150B4E0AB16B10469F6C092B9047B
:1038C000C092BA0427E0412FE4E0BE2EBD0C6B2D60
:1038D00089E994E00E94240D22E042E0410F05E0D6
:1038E0000D0D602F89E994E00E940C0C22E044E069
:1038F000410F602F89E994E00E940C0CF3E0CF2E79
:10390000C10E06E00D0D4C2D602F89E994E00E9458
:103910005C021092B9041092BA0422E04C2D6B2D77
:1039200089E994E00E940C0CB0905101BB2009F48D
:103930005EC10E94AD0D6B2D70E00E948304782E55
:1039400089838F70A82EB12C8A3011F0612C02C0AF
:1039500072E0672E81E08093B9048093BA0429E075
:103960004DE0460D6FEF610F802F0E947312109291
:10397000B9041092BA044C2D602F89E994E00E949A
:103980005C0207E02BE0260D412F67E06D0D89E911
:1039900094E00E942F0CCE0101960E94980881119C
:1039A00002C081E001C083E08093B9048093BA042F
:1039B0001F5F062D0D0DA501612F88E0800F0E946D
:1039C000B402472D50E064E0559547956A95E1F7BC
:1039D00043705527612F8CE0800F0E94B00307C110
:1039E00082ED94E00E94240961E18091D2040E945A
:1039F0007E0D082F8093D20461E08091D3040E9451
:103A00007E0D182F8093D304013109F0F0C081306E
:103A100009F0EDC060E070E082ED94E00E94830464
:103A2000682F82E591E00E94980480913A028823F1
:103A300009F4B4CD815080933A021092D8048AE4FC
:103A400091E00E9470048983CE0101960E94CD040A
:103A5000698182ED94E00E9498041093D20410933F
:103A6000D304C5C082ED94E00E9424090E94AD0DEC
:103A70008C01FC018281882329F0D680DD0CD3944F
:103A8000D39402C032E0D32ED8016C918091D2043D
:103A90000E947E0D8093D204F80161816D0D8091AA
:103AA000D3040E947E0D8093D304A1C000913802FC
:103AB00010913902D80112968C911297882329F01F
:103AC00016968C91D82EDD0C01C0D12CF8016081A6
:103AD0008091D2040E947E0D8093D204D801119669
:103AE0006C916D0D8091D3040E947E0D8093D30460
:103AF00082ED94E00E9424099091D204F801808123
:103B0000981375C02091D30430E041818D2D90E051
:103B1000840F911D2817390709F069C0C8010E9458
:103B2000351390920101809200010E94D6040E94F8
:103B30004502109251015BC080919F04811107C022
:103B400081E080939F040E9460090E94DA0D4091F9
:103B500048015091490140585F4F509349014093AB
:103B6000480120914201309143018091460190919A
:103B70004701280F391F3093430120934201809160
:103B8000440190914501840F951F8130F2E29F0717
:103B90002CF4909345018093440114C080E092E29C
:103BA00090934501809344016CEF6403C001659FCD
:103BB000900D112465E070E00E946123709349012B
:103BC000609348016091450140914101832F0E941B
:103BD000AC088091420190914301965F81309E45EF
:103BE00030F00E94DA0D811102C00E94150580E0BC
:103BF00090E0892B09F418CB0E94000012CB809131
:103C00006404882309F4CCCA60E08CEB90E00E9445
:103C1000E713C8CA0E94150511CB80915B019091F2
:103C20005C018230910514F4069605C0863091053A
:103C30000CF043CB079690935C0180935B013DCBE6
:103C4000B8E0CB16D10444F0E7E0CE1AD108D09208
:103C50005C01C0925B0157CBF6E0CF16D1040CF4A7
:103C600052CB10935C0100935B014DCB0E94AD0DD4
:103C70008C01DC0116968C91882309F453CB60E00B
:103C800070E0C8010E948304612C712C282F2F70D2
:103C9000F301EB5DFE4F6F01868181111FC0213062
:103CA000E9F41092D804D8018C918093D20460E09A
:103CB000C8010E942C028093D304C8010E947004A2
:103CC000682F82ED94E00E949804D0923902C0924D
:103CD0003802F0920101E092000124CB60E070E034
:103CE000C6012D830E948304582E60E070E0C80155
:103CF0000E948304652D70E094E0759567959A9510
:103D0000E1F763707727482F50E024E055954795F9
:103D10002A95E1F7437055272D816417750759F4EB
:103D2000452D4F7050E04F5F5F4F8F7090E0481708
:103D3000590709F4B6CFB7E06B0E711CECE16E16B3
:103D4000710409F0A5CFEECA1092D8048C9180932B
:103D5000D20460E0C6010E942C028093D304F601D5
:103D600086810091510110E0282F30E00F5F1F4F36
:103D7000201731070CF48901801BD60116968C930D
:103D8000612C712C6016710691F0F601868103801A
:103D9000F481E02DE60DF71DE80FF11D608182ED45
:103DA00094E00E949804FFEF6F1A7F0AEBCF83E044
:103DB00090E09093010180930001CDCA823091057B
:103DC0000CF041C0892B09F0C6CA809150018823AC
:103DD00031F11092D8048AE491E00E947004898342
:103DE000CE0101960E94CD04698182ED94E00E948B
:103DF00098041093D2041093D304909124018091DD
:103E00005001492F50E0282F30E02417350714F0D7
:103E10008FEF890F80933A0282E090E0CACF8091C1
:103E20005801882309F497CA82E591E00E94700442
:103E30008983CE0101960E94CD0469818AE491E0D4
:103E40000E949804ECCF0697079708F084CA76CAB8
:103E5000863091050CF0C2CA0796BCCA06970CF4CE
:103E6000CECA90925C0180925B01C9CA0E94830411
:103E7000182F60E070E082ED94E00E948304412FEF
:103E800050E034E0559547953A95E1F74370552752
:103E9000282F30E064E0359527956A95E1F7237087
:103EA00033274217530709F04EC01F70212F30E00F
:103EB0002F5F3F4F8F7090E02817390709F043C0FC
:103EC000C4CA019709F43FC0C4CA0D970CF0C1CA17
:103ED0000E94AD0DFC012681222331F160E070E0EB
:103EE0000E9483048A836091D80470E06150710954
:103EF00082ED94E00E948304182F8983CE010296FC
:103F00000E949808082FCE0101960E949808081771
:103F1000D1F02A812F7030E01F70812F90E0019640
:103F20002817390781F40CC06091D80470E0615003
:103F3000710982ED94E00E9483048F708D3019F432
:103F40000E94040586CAF0920101E092000181CA34
:103F5000CF93DF93CEE8D1E02797CE010E94A7044C
:103F600081E0CD35D807C1F78AE391E00E94A7042C
:103F700083E391E00E94A7048CE291E00E94A704F1
:103F800085E291E00E94A70482E591E00E94A704E7
:103F90008AE491E00E94A70482ED94E0DF91CF9142
:103FA0000C94A70410929C0410929B0481E191E070
:103FB00090939A04809399046DE082ED94E00E94BE
:103FC000AF0464E38AE491E00E94AF0464E382E515
:103FD00091E00E94AF046DE085E291E00E94AF04A1
:103FE0006DE08CE291E00E94AF046DE083E391E02C
:103FF0000E94AF046DE08AE391E00E94AF0464E1A7
:104000008DE591E00E94AF0464E184E691E00E94B6
:10401000AF0464E18BE691E00E94AF0464E182E7C3
:1040200091E00E94AF0464E189E791E00E94AF044F
:1040300064E180E891E00E94AF0464E187E891E0E8
:104040000E94AF04EEE8F1E081E08083369692E0D2
:10405000E633F907D1F781E0809341010895CF93CA
:10406000DF938230910510F482E090E0E091DB0470
:10407000F091DC0420E030E0C0E0D0E0309711F1B6
:104080004081518148175907C0F04817590761F41A
:1040900082819381209719F09B838A832BC0909310
:1040A000DC048093DB0426C02115310519F042178A
:1040B000530718F49A01BE01DF01EF010280F3817A
:1040C000E02DDCCF2115310509F1281B390B2430F7
:1040D000310590F412968D919C911397611571059D
:1040E00021F0FB019383828304C09093DC048093CE
:1040F000DB04FD01329644C0FD01E20FF31F819302
:104100009193225031092D933C933AC02091D904C8
:104110003091DA04232B41F42091050130910601FE
:104120003093DA042093D9042091030130910401E3
:104130002115310541F42DB73EB74091070150914B
:104140000801241B350BE091D904F091DA04E21741
:10415000F307A0F42E1B3F0B2817390778F0AC01AA
:104160004E5F5F4F2417350748F04E0F5F1F509387
:10417000DA044093D9048193919302C0E0E0F0E027
:10418000CF01DF91CF9108950F931F93CF93DF93CA
:10419000009709F48CC0FC013297138212820091BF
:1041A000DB041091DC040115110581F420813181BB
:1041B000820F931F2091D9043091DA042817390710
:1041C00079F5F093DA04E093D90471C0D80140E0A6
:1041D00050E0AE17BF0750F412962D913C91139703
:1041E000AD012115310509F1D901F3CF9D01DA01A6
:1041F0003383228360817181860F971F8217930713
:1042000069F4EC0128813981260F371F2E5F3F4F5B
:10421000318320838A819B8193838283452B29F478
:10422000F093DC04E093DB0442C01396FC93EE931E
:104230001297ED01499159919E01240F351FE21704
:10424000F30771F480819181840F951F0296119676
:104250009C938E938281938113969C938E93129755
:10426000E0E0F0E0D80112968D919C9113970097B1
:1042700019F0F8018C01F6CF8D919C9198012E5F79
:104280003F4F820F931F2091D9043091DA042817F1
:10429000390769F4309729F41092DC041092DB049A
:1042A00002C0138212821093DA040093D904DF91C2
:1042B000CF911F910F9108958F929F92AF92BF92CD
:1042C000CF92DF92EF92FF92CF93DF93EC01688160
:1042D00079818A819B81611571058105910521F4A0
:1042E00064E279ED8BE597E02DE133EF41E050E0BA
:1042F0000E94B82149015A019B01AC01A7EAB1E42F
:104300000E94D7216B017C01ACEEB4EFA5019401B2
:104310000E94E521DC01CB018C0D9D1DAE1DBF1D52
:10432000B7FF03C00197A109B04888839983AA8386
:10433000BB83BC01CD019F77DF91CF91FF90EF90C0
:10434000DF90CF90BF90AF909F908F9008950E9484
:104350005C21089589E091E00E945C2108956093BA
:10436000090170930A0180930B0190930C01089549
:10437000052E97FB1EF400940E94CF2157FD07D015
:104380000E94EA2107FC03D04EF40C94CF215095F3
:104390004095309521953F4F4F4F5F4F0895909531
:1043A0008095709561957F4F8F4F9F4F08950E9424
:1043B0000C22A59F900DB49F900DA49F800D911D80
:1043C00011240895B7FF0C94D7210E94D721821B96
:1043D000930B0895A1E21A2EAA1BBB1BFD010DC071
:1043E000AA1FBB1FEE1FFF1FA217B307E407F507A5
:1043F00020F0A21BB30BE40BF50B661F771F881F81
:10440000991F1A9469F760957095809590959B0116
:10441000AC01BD01CF010895A29FB001B39FC001BF
:10442000A39F700D811D1124911DB29F700D811DE0
:104430001124911D08950E948F2288F09F5798F0B3
:10444000B92F9927B751B0F0E1F0660F771F881F99
:10445000991F1AF0BA95C9F714C0B13091F00E94B3
:10446000A922B1E008950C94A922672F782F8827FC
:10447000B85F39F0B93FCCF3869577956795B395DA
:10448000D9F73EF490958095709561957F4F8F4F49
:104490009F4F0895E89409C097FB3EF4909580954E
:1044A000709561957F4F8F4F9F4F9923A9F0F92FFA
:1044B00096E9BB279395F695879577956795B79578
:1044C000F111F8CFFAF4BB0F11F460FF1BC06F5F5E
:1044D0007F4F8F4F9F4F16C0882311F096E911C070
:1044E000772321F09EE8872F762F05C0662371F091
:1044F00096E8862F70E060E02AF09A95660F771FA5
:10450000881FDAF7880F9695879597F9089557FDD4
:104510009058440F551F59F05F3F71F04795880F31
:1045200097FB991F61F09F3F79F0879508951216C8
:1045300013061406551FF2CF4695F1DF08C0161674
:1045400017061806991FF1CF869571056105089425
:104550000895E894BB2766277727CB0197F908953C
:104560000E94C3220C9434230E94262338F00E9418
:104570002D2320F0952311F00C941D230C9423235C
:1045800011240C94AA220E94872270F3959FC1F3F4
:10459000950F50E0551F629FF001729FBB27F00DF1
:1045A000B11D639FAA27F00DB11DAA1F649F662746
:1045B000B00DA11D661F829F2227B00DA11D621F95
:1045C000739FB00DA11D621F839FA00D611D221F4F
:1045D000749F3327A00D611D231F849F600D211D33
:1045E000822F762F6A2F11249F5750409AF0F1F0B6
:1045F00088234AF0EE0FFF1FBB1F661F771F881F1F
:1046000091505040A9F79E3F510580F00C941D2316
:104610000C94AA225F3FE4F3983ED4F386957795F5
:104620006795B795F795E7959F5FC1F7FE2B880FC4
:10463000911D9695879597F9089597F99F6780E85A
:1046400070E060E008959FEF80EC089500240A94E4
:104650001616170618060906089500240A9412165D
:104660001306140605060895092E0394000C11F490
:10467000882352F0BB0F40F4BF2B11F460FF04C03D
:104680006F5F7F4F8F4F9F4F0895DB018F939F93F5
:104690000E94D721BF91AF91A29F800D911DA39F32
:1046A000900DB29F900D11240895991B79E004C0DC
:1046B000991F961708F0961B881F7A95C9F7809561
:1046C000089597FB072E16F4009407D077FD09D0C4
:1046D0000E947B2307FC05D03EF4909581959F4F67
:1046E0000895709561957F4F0895EE0FFF1F059017
:1046F000F491E02D0994AA1BBB1B51E107C0AA1F2E
:10470000BB1FA617B70710F0A61BB70B881F991F72
:104710005A95A9F780959095BC01CD01089581E047
:1047200090E0F8940C94942311E0CDEFD1E004C014
:10473000FE010E9475232196CE3FD107C9F7F89458
:02474000FFCFA9
:104742000100010000DD0480000100000000000003
:1047520000580CD609290228020D0A004C4F414488
:0447620045520000BC
:00000001FF
