:100000000C94F2010C941A020C941A020C941A0229
:100010000C941A020C941A020C941A020C941A02F0
:100020000C941A020C941A020C941A020C94280EC6
:100030000C941A020C941A020C941A020C941A02D0
:100040000C94D30D0C941A020C941A020C941A02FC
:100050000C941A020C941A020C941A020C941A02B0
:100060000C941A020C941A02C917CB17B516D417A0
:10007000D617D817DA17E317EC17FB1704180D1863
:1000800016187E039C03AD03CB03D403E203E703FE
:10009000FD031304250441045E0477040101FF03FA
:1000A0000101F703A0009C000000000024002700CD
:1000B0002A0000000000250028002B0005008930E0
:1000C0000802380249786814000005003801680108
:1000D000000017534400161378001613140015106F
:1000E000200015201000540A03E181867F3E186D20
:1000F000830F0F0E0183866033186DC3198F1803A9
:10010000C38E6033186DE330CF1803C39E60363062
:10011000CDE360CF3006C79E7E3E30CDB360CF309A
:100120000CC6F6603330D9B660CF33CFCCF6606101
:10013000B0DB1E60CF30D86CE6C061B0DB1E618FD3
:1001400019986CC6C063B19B0E330F0FB078C6FF11
:100150007E1F1B061E0F536F6C6974616972650008
:10016000450068010000F6E8DBCFC3B8AEA49B925F
:100170008A827B746E68625C57524E4945413E3AB2
:100180003734312E2C29272523210A0A153A4967AD
:100190006E6F7265006D560A0A504C4541534520FA
:1001A0005455524E204F464620004C4F5720424156
:1001B000545445525921200003053F213F12081293
:1001C0000A100A0E1C0E0C1E0C141A14161F161EF2
:1001D000131E1E1B1E1E1F1E3F213F3A2F3A173DA6
:1001E000173F213F181F02040A041F0E04040E1FAC
:1001F0000A1F0A0E0E1F04110E2E252E2F2A2E2640
:100200002929021F02081F08150E04040E150E15D9
:10021000151B151B040604040C0400000000170045
:100220000300031F0A1F16371A1904130A153A0090
:100230000300000E11110E000A040A040E0400301F
:10024000000404040010001804031F111F121F10E3
:100250001D151711151F07041F17151D1F151D014B
:10026000011F1F151F17151F000A00003200040A86
:10027000110A0A0A110A040115020E11171E051EA1
:100280001F150A0E110A1F110E1F15111F05010E51
:10029000111D1F041F111F1108100F1F041B1F1019
:1002A000101F061F1E040F0E110E1F09060E112E21
:1002B0001F051A121509011F011F101F0F180F1F0C
:1002C0000C1F1B041B031C03191513001F1103042F
:1002D00018111F000201022020200001020C121E32
:1002E0001F120C0C12120C121F0C1A14041E0524DF
:1002F0002A1E1F021C141D1020201D1F0814111F70
:10030000101E041E1E021C0C120C3E0A040C123E8F
:100310001E040214160A020F120E101E0E100E1EDC
:10032000081E120C1226281E322A26041E21001F27
:1003300000211E040102013F213F172B1520102030
:100340004C4F4144455200172B16201314000A4EFF
:100350006F2053442063617264206F720A6E6F20B5
:100360004C4F414445522E4845580A0A153A4578A3
:100370006974001D20466C617368696E670A2020ED
:100380006C6F616465722E2E2E0A0A444F4E2754FC
:10039000205455524E204F464621000000000023B5
:1003A00000260029000404040404040404020202D8
:1003B00002020203030303030301020408102040A6
:1003C000800102040810200102040810200000002F
:1003D0000800020100000304070000000000000004
:1003E0000000511911241FBECFEFD8E0DEBFCDBFF2
:1003F00011E0A0E0B1E0EAE9F7E302C005900D9258
:10040000A032B107D9F725E0A0E2B1E001C01D920A
:10041000AC3CB207E1F711E0C2EFD1E004C0219794
:10042000FE010E94AC1BC13FD107C9F70E94A41373
:100430000C94CB1B0C940000089580E090E008958C
:10044000FC01643508F053C0403308F050C090A15F
:10045000742F759575957595262F062E000C330B08
:10046000542F57709230A1F4F901E35FFC4F84E5FB
:100470007802E00DF11D1124808190E0052E02C06C
:10048000959587950A94E2F78095982F91700AC008
:10049000933041F4848581704627409541708413E0
:1004A00003C014C0911112C084E57802200D311DE3
:1004B0001124F901E35FFC4F81E090E001C0880F57
:1004C0005A95EAF780959081892310C084E57802D7
:1004D000200D311D1124F901E35FFC4F81E090E014
:1004E00001C0880F5A95EAF79081892B808308957F
:1004F000AF92BF92CF92DF92EF92FF920F931F9332
:10050000CF93DF93082F162FF42E47FF02C083E00E
:1005100001C080E080937E0580937F05C1E0C10F1C
:10052000EE24E394E00EDC2FCC2E0C2E000CDD0824
:100530008CE0C80ED11C8D2F0D2E000C990B8C1544
:100540009D054CF428E04D2F6E2D8EE595E00E9420
:10055000720EDF5FF0CF81E080937E0580937F0590
:1005600028E0412F6E2D8EE595E00E94720E28E066
:100570004DE0410F6E2D8EE595E00E94720E2CE04D
:100580004C2F602F8EE595E00E948B0F2CE04C2FB6
:1005900069E0600F8EE595E00E948B0FF7FCD7C1F4
:1005A0008F2D90E074E0959587957A95E1F78370AB
:1005B00099279C01225031092230310508F4C1C12C
:1005C00022E0B22EB10E32E0D32ED00ED4E0D00F06
:1005D00043E0C42EC10E53E0E52EE00E64E0A62EEB
:1005E000A10EC5E0C00F8230910509F444C08330EC
:1005F000910509F450C00197C9F04B2D6D2F8EE580
:1006000095E00E94200223E04C2D6E2D8EE595E0B2
:100610000E94720E25E04A2D6D2D8EE595E00E9418
:10062000720E25E045E0410F6D2D4DC023E04B2DAE
:100630006E2D8EE595E00E94720E23E04A2D6E2D00
:100640008EE595E00E94720E23E04C2D6D2D8EE517
:1006500095E00E948B0F23E04C2D66E0600F8EE545
:1006600095E00E948B0F24E04C2D6D2F8EE595E0D8
:100670000E948B0F33C04B2D6E2D8EE595E00E94AE
:1006800020024B2D6C2F8EE595E00E94200225E084
:100690004C2D6D2D09C04B2D6D2F8EE595E00E94E0
:1006A000200223E04C2D6E2D8EE595E00E94720E07
:1006B00025E04A2D6D2D8EE595E00E94720E23E017
:1006C00045E0410F6E2D8EE595E00E94720E46E0EA
:1006D000410F6D2F8EE595E00E942002D7E0D10FEB
:1006E000EF2DEF704E2F50E0FA013197ED30F1050C
:1006F00008F02DC1EF5BFF4F0C94AC1B86E0F82E89
:10070000F00E4D2F6F2D8EE595E00E942002D8E06F
:10071000D10F24E04D2F6C2F8EE595E00E948B0FBA
:1007200067E0600F24E04D2F8EE595E00E948B0F6F
:1007300049E0410F6F2DB4C06D2F8C2F0E94DE0F4A
:100740006D2F8C2F0E94D60F6D2F8C2F0E94AE0F15
:100750006D2F8C2F0E94BD0F10C06D2F8C2F0E940B
:10076000DE0F6D2F8C2F0E94D60F6D2F8C2F0E94C5
:10077000AE0F6D2F8C2F0E94CD0F6D2F8C2FDF9120
:10078000CF911F910F91FF90EF90DF90CF90BF908E
:10079000AF900C94C50F6D2F8C2F0E94B60F6D2F4C
:1007A0008C2F0E94AE0F17C06D2F8C2FDF91CF9131
:1007B0001F910F91FF90EF90DF90CF90BF90AF907F
:1007C0000C9414106D2F8C2F0E9414101EC06D2FCE
:1007D0008C2F0E94DE0F6D2F8C2F0E94D60F6D2F55
:1007E0008C2FDF91CF911F910F91FF90EF90DF90B1
:1007F000CF90BF90AF900C94CD0F6D2F8C2F0E9497
:1008000014106D2F8C2F0E94D60F6D2F8C2FDF911F
:10081000CF911F910F91FF90EF90DF90CF90BF90FD
:10082000AF900C94BD0F6D2F8C2F0E9414106D2F64
:100830008C2FDF91CF911F910F91FF90EF90DF9060
:10084000CF90BF90AF900C94D60F6D2F8C2F0E943D
:10085000DE0F6D2F8C2F0E94D60F6D2F8C2F0E94D4
:10086000CD0F6D2F8C2F0E94C50F6D2F8C2F0E94E6
:10087000BD0F6D2F8C2F0E94B60F25E04D2F6E2DD2
:1008800052C06D2F8C2F0E94D60F6D2F8C2F0E947F
:10089000CD0F6D2F8C2F0E94C50F4AE0410F6C2F9A
:1008A0008EE595E0DF91CF911F910F91FF90EF9032
:1008B000DF90CF90BF90AF900C9420026D2F8C2FC3
:1008C0000E94DE0F6D2F8C2F0E94D60F6D2F8C2F64
:1008D0000E94B60F4AE0410F23E06C2F8EE595E0B1
:1008E0000E94720E4BE0410F66E0600FD9CF6D2F72
:1008F0008C2F0E94B60F6D2F8C2F0E94BD0F49E0E8
:10090000410F66E0600F8EE595E00E942002095FCE
:1009100022E04D2F602F8EE595E00E948B0F4AE07C
:10092000410F22E0602F8EE595E0DF91CF911F917E
:100930000F91FF90EF90DF90CF90BF90AF900C940D
:100940008B0F23E020937E0520937F0539CEDF9126
:10095000CF911F910F91FF90EF90DF90CF90BF90BC
:10096000AF900895FC0132969C012A5E3F4F41E012
:100970004193E217F307E1F7FC01168A0895FC01A1
:10098000908197FF02C09F7701C09068908308957F
:100990002F923F924F925F926F927F928F929F928F
:1009A000AF92BF92CF92DF92EF92FF920F931F937D
:1009B000CF93DF93CDB7DEB7E7970FB6F894DEBFDE
:1009C0000FBECDBF80918005882309F487C181E0E7
:1009D00080936605109265051092640510922805B3
:1009E00080937E0580937F0590E6292E91E0392E35
:1009F000BB24B394CC24C3941CE00E94D207882368
:100A0000E1F3E6E5F1E08491E6EEF0E08490E7EED4
:100A1000F0E04490F0907E05082C000C9908181422
:100A200019040CF1109267051093680586E591E0B2
:100A30000E94311180916205982F990F890F81953D
:100A40008D5A8093670580916305982F990F890FC0
:100A50008195835D809368058091810584FFA7C09F
:100A600082EE90E0A6C01414ECF6442D41330CF055
:100A700040E3382DF5E58F1691040CF034E5E09055
:100A80006A0587E0880E911C83E0959487948A9587
:100A9000E1F700E08DE093E021E068EE70E0442EA5
:100AA000440F5508402F50E0441555050CF0BACFBF
:100AB000FB01D490F1E0FF1218C0FB01DC0140E81B
:100AC000542F5D2119F05C91522B5C9350E05595A9
:100AD00047954115510519F43196D49040E8119687
:100AE0005A2F581B531760F359C0F1101AC0A22E89
:100AF000A094FB01DC0140E8542F5D2119F05C91CA
:100B00005A215C9350E0559547954115510519F4CC
:100B10003196D49040E811965A2F581B531760F322
:100B20003DC043E0F41223C0722E7094FB01DC013F
:100B300040E8A82E6A2E681A542F5D2141F06E24D9
:100B40005C9160FE02C0522B01C057215C9350E0C3
:100B5000559547954115510519F43196D49040E8C3
:100B600011965A2F5A19531728F3EB2417C0FB017B
:100B7000DC0140E85D2D542319F05C9152275C9311
:100B800050E0559547954115510519F43196D4908B
:100B900040E811965A2F581B531760F3220F19F48F
:100BA0008C5A9F4F21E00F5F680D791D7BCF8EED32
:100BB00090E00E94521180916205982F990F890F41
:100BC00081958D5A80936705809168058F5F80932A
:100BD000680580913A05882319F08AED90E002C0FB
:100BE00086ED90E00E94521180916205982F990F36
:100BF000890F81958D5A80936705809168058F5F75
:100C00008093680582ED90E00E9452118091260544
:100C1000813041F580913A058F5F60913B0587FDFA
:100C200009C0082E000C990B70E06F5F7F4F0E9487
:100C3000981B682F60933A0580E00E9467103092FD
:100C40004305209242051092480510924705C09234
:100C5000360589E080934B0510924E0510925005A1
:100C600010925205809125058130B9F08091800560
:100C7000482F50E060E070E0409081055090820580
:100C800060908305709084054416550666067706C5
:100C900008F480C18F3F09F47DC18FEF80938005F8
:100CA00080E00E94671080E00E9467108AEC90E06C
:100CB0009093430580934205109248051092470592
:100CC00081E08093360599E090934B0510924E0594
:100CD000109250051092520580932805C0902A0565
:100CE000D0902B05C094D094E12CF12C0E94740D6F
:100CF0004B015C010E94740DA50194012095309573
:100D00004095509560957095809590950E947C1BBC
:100D10009B01AC01C701B6010E947C1B4B015C0129
:100D200080911105909112056C01E12CF12C0E942B
:100D3000740DC60ED71EE81EF91EC701B601680D58
:100D4000791D8A1D9B1D611571058105910511F0A5
:100D50000E94E619109228051092FC028BE0809305
:100D6000010185E080930001FE0131968F0121E0B1
:100D7000CE01C5962193E817F907E1F71DAA85E38F
:100D8000F801A6ECB2E001900D928A95E1F710927D
:100D9000CB0520E030E0C90174E0880F991F7A95F7
:100DA000E1F7982F906881E0E091CB05E43350F4AF
:100DB00041E04E0F4093CB05F0E0E956FA4F482F43
:100DC000492B40838F5F8E3079F72F5F3F4F243060
:100DD000310509F7E12CF12C2091CB0530E0E2162A
:100DE000F30614F56901CE18DF0849F00E94E119F5
:100DF0009601DD0C440B550B0E94EF1903C060E017
:100E000070E0CB01DB01A956BA4F8C91E091CB0584
:100E1000F0E0EE19FF09EA56FA4F90819C93808327
:100E20008FEFE81AF80AD8CF5AE6E52E52E0F52EF1
:100E300067E1D62EC8010E94B204F801D7018D2DBA
:100E400001900D928A95E1F797E1E90EF11CA6EC6D
:100E5000EA16A2E0FA0671F799ECA92E91E0B92EF4
:100E6000750120E037E1C32E41E1D42EC8012FAB3C
:100E70000E94B204F801D7018C2D01900D928A9541
:100E8000E1F72FA981E0820FF7018083D182F7E19A
:100E9000EF0EF11C245F243549F71092C801E12CB4
:100EA000F12C86E0482E77247394552453946E2CAD
:100EB000660C6701812C912C0E9444108EABEC14BF
:100EC000FD0421F4CE01C6960E94BF048091C801A2
:100ED000D801E42D1D92EA95E9F75982489E9001C8
:100EE0001124205E3E4FF801D901942D01900D92FE
:100EF0009A95E1F7D90112967C92129713967C92FB
:100F00001397F501E80DF91D908114969C931497A1
:100F10009181960D15969C9315971196CC921197E9
:100F20009EA99C938F5F8093C801BFEFCB1ADB0A09
:100F3000E7E18E0E911CF7E0CF16D10409F0BCCF8B
:100F40004FEFE41AF40A87E1A80EB11C97E0E91606
:100F5000F10409F0ACCF1092C80110920301109275
:100F60000201E7960FB6F894DEBF0FBECDBFDF914A
:100F7000CF911F910F91FF90EF90DF90CF90BF9096
:100F8000AF909F908F907F906F905F904F903F9029
:100F90002F90089580912705813009F02ECD0E9471
:100FA000601126CD4F925F926F927F928F929F92A7
:100FB000AF92BF92CF92DF92EF92FF920F931F9367
:100FC000CF93DF9300D000D01F92CDB7DEB7409112
:100FD00090055091910560919205709193052FB7FE
:100FE000F8948091030390910403A0910503B091BC
:100FF00006032FBF481B590B6A0B7B0B80918F0593
:1010000090E0A0E0B0E000918B0510918C0520915C
:101010008D0530918E0584179507A607B70730F424
:10102000011511052105310509F044C3012B022BDF
:10103000032B09F03DC38091270581508E3FC0F5F9
:10104000809126058130C9F580913A058F5F6091C6
:101050003B0587FD09C0082E000C990B70E06F5FFF
:101060007F4F0E94981B682F60933A0587E493E0B6
:10107000909395058093940588E48093960580E08D
:101080000E94671080E691E09093430580934205AB
:10109000109248051092470581E08093360589E05B
:1010A00080934B0510924E051092500510925205F8
:1010B0008091270581508E3F70F480912505813005
:1010C00009F0A4C38AE393E0909395058093940577
:1010D00088E48093960580E00E9495118091360502
:1010E000882309F4ABC080914A058111A7C0809183
:1010F000420590914305E0914705F0914805EE0FB8
:10110000FF1FE80FF91F4591549141155105F1F466
:1011100020914605222331F0109248051092470590
:10112000FC0112C01092360580913505882341F0EC
:1011300080E00E949511E0914705F09148052DC08F
:1011400080E00E9452107AC0459154919A013695E0
:1011500027953695279540FF51C0CA01B6E0969570
:101160008795BA95E1F78F71952F969596959695F7
:1011700090512F70223071F1F8F4211117C08B308B
:1011800008F08AE080934B05E0914705F09148050F
:101190003196F0934805E0934705EE0FFF1F8091CD
:1011A000420590914305E80FF91FCECF213061F73A
:1011B00060E00E94FF11E8CF2330B1F0243021F726
:1011C00020913905829F802D1124809352059093A0
:1011D0005305DACF20913905829F802D1124809309
:1011E0004E0590934F05D0CF20913905829F802DD9
:1011F00011248093500590935105C6CF2F732093EF
:10120000490580913905859F802D112480934A05D9
:1012100010925A05109259051092580581E080935A
:101220004C0580930D0510924D05809147059091D6
:1012300048050196909348058093470580914C0599
:10124000882309F4EEC080914A05811103C00E94F1
:101250005210E7C0815080934A0580915A05811150
:1012600046C020915805309159052F5F3F4FC90165
:10127000880F991FE0915405F0915505E80FF91F6B
:1012800065917491862F877080935B05AB0163E055
:10129000569547956A95E1F7CA0196958795972FD8
:1012A0009695969590935C058F7390913905899FDB
:1012B000802D112480935A0541704093020330938E
:1012C0005905209358058091560590E02817390755
:1012D00070F020915705222339F0821B91099093D9
:1012E00059058093580503C080E00E9452108091F8
:1012F0005A05815080935A0580914D0521E0280FB1
:1013000020934D054091490530915C05340F809143
:101310004105380F3093370560915005662371F011
:1013200070E0822F022E000C990B0E94981B809176
:101330005105869F300D1124309337058091370574
:1013400090E0849664E270E00E94981B80933705D9
:1013500030914B053093380560914E05662381F03E
:10136000062E000C770B822F022E000C990B0E9488
:10137000981B80914F05869F300D112430933805BE
:10138000609152056623A1F0822F220F990B70E025
:101390000E94981BCB0162E070E00E94981B209194
:1013A000530590913805289F900D1124909338058E
:1013B000809138054F3341F08A300CF089E087FD89
:1013C00080E08093380502C010923805F894E091CF
:1013D0003705F0E0EA59FE4FE491E09301033091C4
:1013E000380520915D0532039001112440915B0581
:1013F0004203C001439F900D112400903A0502C0A2
:10140000880F991F0A94E2F797FF02C081589F4FF7
:10141000880F892F881F990B80930E0580930F05E5
:10142000789480919605882309F497C08C3020F435
:101430009CE0D92ED81A01C0D12C81E0809366059A
:1014400010927E0510927F051091630583E0810F55
:101450003D2D311B335D032FE82E880FFF08E30E6F
:10146000F11C37FDFA94802F002E000C990B8E157D
:101470009F055CF42EE4402F63E08EE595E03D830C
:101480000E94720E0F5F3D81EECF145003E0030FF8
:10149000212F41E0602F80E50E94B812212F42E009
:1014A000602F83E00E94B81281E080937E058093D4
:1014B0007F05009163058D2D801B3DE2F32EF80E14
:1014C0002EE44F2D63E08EE595E00E94720E13E04E
:1014D000100F1F0D4FEF410F2EE463E08EE595E0F6
:1014E0000E94720E035033E0F30E202F4F2D60E068
:1014F0008EE595E00E948B0F202F4F2D63E58EE542
:1015000095E00E948B0F41E06F2D83E00E943A121C
:1015100042E06F2D80E50E943A12145044E0612FA2
:1015200080E50E943A1248E0612F83E00E943A125F
:1015300084E08093670580916305D81A8D2D815DC5
:101540008093680580919405909195050E943111D2
:101550008091960581508093960580912C059091FD
:101560002D05892B09F47CC011E010937E051092A3
:101570007F059091620585E5891B80936705109230
:10158000680580912905813009F44DC030F09091B3
:101590002805853008F05FC05AC080E00E946710BF
:1015A00010936605E8EBF1E0E491EF5FE0936205EC
:1015B000E9EBF1E0E491EF5FE09363058AEB91E002
:1015C00090937D0580937C0510922D0510922C053B
:1015D0001092640518EA0E94D2078823E1F38AEA90
:1015E00091E00E94311160912A0570912B0580E0F5
:1015F00090E04AE00E941B1385E991E00E943111BE
:10160000612F62956F7070E080E090E04AE00E9488
:101610001B138AE891E00E943111809125058130E9
:1016200009F0FAC01DC08091810590918205A091BA
:101630008305B09184058F709927AA27BB27089747
:10164000A105B10510F487E009C088E707C0992318
:1016500039F08B5F03C0992319F08FE20E945C136D
:101660000E94F1108091640581110EC088EF91E015
:10167000EDE0F3E0DF019C011D9221503040E1F7E5
:1016800010926705109268050E94740D60938B0597
:1016900070938C0580938D0590938E05209187051E
:1016A00030918805621B730B7093860560938505E6
:1016B00080E0CCC02FB7F89480910303909104038D
:1016C000A0910503B09106032FBF20918F05820FD3
:1016D000911DA11DB11D8093900590939105A0933C
:1016E0009205B09393058091810590918205A09118
:1016F0008305B09184050196A11DB11D80938105DC
:1017000090938205A0938305B093840510928B0576
:1017100010928C0510928D0510928E050E94740D0A
:1017200060938705709388058093890590938A0557
:1017300080911105909112052FE0289F8001299F2B
:10174000100D112485E10E945D0D800F911F24E092
:10175000969587952A95E1F7909312058093110548
:1017600020911005222309F44BC060911405262F07
:1017700030E040E050E029833A834B835C83C090A3
:101780001505D12CE12CF12C40911805509119052B
:101790004A01A12CB12C2091160530911705290181
:1017A000612C712C8217930728F09C014817590768
:1017B00008F49A01C901A0E0B0E09C01AD01241930
:1017C00035094609570969817A818B819C816C1999
:1017D0007D098E099F090E947C1BA5019401241993
:1017E0003509460957090E94EF19C20ED31EE41E9F
:1017F000F51EC09213056C2D70E085E00E94FE0C72
:101800000E947E100E94671381E020C0893209F097
:1018100062CC0E9460115FCC115009F0DCCE60E018
:1018200070E085E00E94FE0C83B7817F846083BFF7
:1018300083B7816083BF83B7816083BF889583B797
:101840008E7F83BF83B78E7F83BFC5CE0F900F90EF
:101850000F900F900F90DF91CF911F910F91FF90FC
:10186000EF90DF90CF90BF90AF909F908F907F9040
:101870006F905F904F900895CF92DF92EF92FF921A
:101880000F931F93CF93DF936C017A018B01C0E01C
:10189000D0E0CE15DF0589F0D8016D918D01D6011C
:1018A000ED91FC910190F081E02DC6010995892B05
:1018B00011F47E0102C02196ECCFC701DF91CF91D8
:1018C0001F910F91FF90EF90DF90CF9008950E94AD
:1018D000C61B833081F028F4813099F08230A1F06A
:1018E00008958730A9F08830B9F08430D1F4809120
:1018F00080008F7D03C0809180008F77809380006F
:10190000089584B58F7702C084B58F7D84BD089516
:101910008091B0008F7703C08091B0008F7D80935D
:10192000B00008951F93CF93DF93282F30E0F90183
:10193000E353FC4F8491F901E754FC4FD491F90132
:10194000EB55FC4FC491CC23C9F0162F81110E9496
:10195000690CEC2FF0E0EE0FFF1FEE54FF4FA59146
:10196000B4918FB7F894111105C09C91ED2FE095BB
:10197000E92302C0EC91ED2BEC938FBFDF91CF9167
:101980001F910895CF93DF9390E0FC01E754FC4F43
:101990002491FC01EB55FC4F8491882361F190E088
:1019A000880F991FFC01E855FF4FC591D491FC01A8
:1019B000EE54FF4FA591B491611109C09FB7F894FF
:1019C0008881209582238883EC912E230BC062307E
:1019D00061F49FB7F8943881822F809583238883A0
:1019E000EC912E2B2C939FBF06C08FB7F894E88103
:1019F0002E2B28838FBFDF91CF9108951F93CF9314
:101A0000DF93182FEB0161E00E94C20C209711F4C4
:101A100060E004C0CF3FD10539F461E0812FDF9150
:101A2000CF911F910C94920CE12FF0E0E353FC4F07
:101A3000E491E330F9F048F4E130B9F0E230A1F597
:101A400084B5806284BDC8BD34C0E730E9F0E830B9
:101A500019F1E43049F58091800080628093800024
:101A6000D0938B00C0938A0024C084B5806884BD65
:101A7000C7BD1FC080918000806880938000D09394
:101A80008900C093880015C08091B0008068809361
:101A9000B000C093B3000DC08091B000806280930D
:101AA000B000C093B40005C0C038D1050CF0B5CF6C
:101AB000AFCFDF91CF911F9108958E3008F08E50F7
:101AC0008770806480937C0080917A00806480932A
:101AD0007A0080917A0086FDFCCF80917800209179
:101AE000790090E0922B08953FB7F8948091090314
:101AF00090910A03A0910B03B0910C0326B5A89B0B
:101B000005C02F3F19F00196A11DB11D3FBFBA2F8F
:101B1000A92F982F8827820F911DA11DB11DBC01EF
:101B2000CD0142E0660F771F881F991F4A95D1F7B4
:101B300008958F929F92AF92BF92CF92DF92EF92D1
:101B4000FF926B017C010E94740D4B015C01C1147A
:101B5000D104E104F104F1F00E94740DDC01CB0129
:101B600088199909AA09BB09883E9340A105B105C6
:101B700070F321E0C21AD108E108F10888EE880E5E
:101B800083E0981EA11CB11CC114D104E104F1042E
:101B900019F7DDCFFF90EF90DF90CF90BF90AF901F
:101BA0009F908F9008951F920F920FB60F9211245D
:101BB0002F933F938F939F93AF93BF938091030392
:101BC00090910403A0910503B0910603309108039E
:101BD00023E0230F2D3720F40196A11DB11D05C070
:101BE00026E8230F0296A11DB11D209308038093C0
:101BF000030390930403A0930503B093060380911D
:101C0000090390910A03A0910B03B0910C03019674
:101C1000A11DB11D8093090390930A03A0930B03A8
:101C2000B0930C03BF91AF919F918F913F912F91F2
:101C30000F900FBE0F901F90189580910D0588236F
:101C400019F080910F0501C080E08093B4000895E1
:101C50001F920F920FB60F9211242F933F934F9321
:101C60005F936F937F938F939F93AF93BF93EF9304
:101C7000FF9360910E05662321F1809107038F5F2A
:101C800080930703909101038917D8F090910D0577
:101C900081E0892780930D0510920703809102034C
:101CA000882369F08091040193E4899F802D112499
:101CB000895B809304010E948C1B90930F050E9406
:101CC0001D0EFF91EF91BF91AF919F918F917F91E9
:101CD0006F915F914F913F912F910F900FBE0F9099
:101CE0001F901895DF92EF92FF920F931F93CF935F
:101CF000DF931F92CDB7DEB78C01D62EF42EE12CE8
:101D0000E21654F46E2D6D0D4F2DC80129830E94EB
:101D10002002E3942981F4CF0F90DF91CF911F919E
:101D20000F91FF90EF90DF9008952F923F924F9286
:101D30005F926F927F928F929F92AF92BF92CF925B
:101D4000DF92EF92FF920F931F93CF93DF93EC01FB
:101D50006A3019F42D819885C3C06D3009F4C6C06E
:101D600038847A84D98448A083E58D150CF4A1C009
:101D70008FE287150CF49DC08C8190E00197389E0E
:101D80009001399E300D1124C9018D0D911DD7FC94
:101D90009A95181619060CF08CC08D81839DC00190
:101DA0001124870D911D77FC9A95181619060CF0D1
:101DB00080C05D2CCD2CE62EF12CA32C032C000C26
:101DC000BB08EC2DED190E2E000CFF0B8C8190E062
:101DD000E817F9070CF06CC00197E817F90779F0DC
:101DE000E89E9001E99E300DF89E300D1124E20F1F
:101DF000F31F8E8D9F8DE80FF91F149101C010E025
:101E0000072D672C262D2719022E000C330B8D81F0
:101E100090E0281739070CF048C010FF1EC081E081
:101E2000381206C0462D6C2DCE010E94200239C00A
:101E3000202E4501800E911C07FD9A94822D022CC4
:101E4000000C990B8815990564F5232D422D652DFD
:101E5000CE010E94720E2394F1CF89A198A1891717
:101E600001F188A381E0381206C0462D6C2DCE0109
:101E70000E94200215C0202E4501800E911C07FDF6
:101E80009A94822D022C000C990B8815990544F424
:101E9000232D422D652DCE010E94720E2394F1CF89
:101EA00048A216956394030DADCFC394530C89CF0C
:101EB00048A228853C818985329F800D112489871D
:101EC0009F81992399F0082E000C990B44E550E06E
:101ED000239F401951091124481759073CF49D814B
:101EE0008A85299F800D11248A87198681E090E0D8
:101EF000DF91CF911F910F91FF90EF90DF90CF90E6
:101F0000BF90AF909F908F907F906F905F904F9019
:101F10003F902F900895DF92EF92FF920F931F93BF
:101F2000CF93DF931F92CDB7DEB78C01D62EF42E60
:101F3000E12CE21654F44E2D4F0D6D2DC80129836E
:101F40000E942002E3942981F4CF0F90DF91CF917A
:101F50001F910F91FF90EF90DF90089542E0460FA0
:101F600023E0682F8EE595E00C94720E462F23E057
:101F7000682F8EE595E00C948B0F42E0460F23E02E
:101F8000682F8EE595E00C948B0F44E0460F23E01C
:101F9000682F8EE595E00C94720E42E0460F62E0E9
:101FA000680F23E08EE595E00C948B0F462F62E0DE
:101FB000680F23E08EE595E00C948B0F462F23E00D
:101FC000682F8EE595E00C94720E1F93CF93DF93EC
:101FD000C82F162F861721F1862F90E08C1B9109B0
:101FE00063E070E00E94981BD62F611117C06091CA
:101FF000810570918205809183059091840523E08D
:1020000030E040E050E00E94211A672B682B692BDA
:1020100029F4C11710F0DFEF01C0D1E08D2F8C0F34
:10202000DF91CF911F910895CF93DF93C82FD62FC3
:102030000E94DE0F6D2F8C2F0E94B60F6D2F8C2FFC
:102040000E94AE0F6D2F8C2F0E94CD0F6D2F8C2F05
:10205000DF91CF910C94C50FBC01009791F0FC016A
:1020600001900020E9F73197AF01481B590BE0912F
:102070005E05F0915F050280F381E02D8EE595E02D
:10208000099480E090E00895E091CB05EE2341F0C3
:10209000E150E093CB05F0E0E956FA4F80810895D6
:1020A00081E00895811112C010924C0510924A05EA
:1020B000109259051092580510924D0510920F0577
:1020C00010920E0510920D050C941D0E08958111AD
:1020D00014C010924C0510924A05109259051092A6
:1020E000580510924D0510920F0510920E05109292
:1020F0000D050E941D0E109236050895CF92DF92B5
:10210000EF92FF920F931F93CF93DF93CAE1D5E035
:1021100001E215E0FF24FA9497E0E92EE00E62E078
:1021200088810E94C20C288130E0F901E353FC4F02
:102130008491F901E754FC4FC490F901EB55FC4F31
:10214000D490DD2071F081110E94690CED2DF0E03A
:10215000EE0FFF1FE556FC4FA591B491EC91EC21D9
:10216000B1F4F80180818F5F808360E088810E94F4
:10217000C20C21960F5F1F4FE012D1CFDF91CF919C
:102180001F910F91FF90EF90DF90CF900895F8018D
:102190008081882371F3F8018F3F11F41082E5CF1D
:1021A000F082E3CFCF93C82FF89460E080916D0563
:1021B0000E94920C80916E0518161CF460E00E943B
:1021C000920CCEBD00000DB407FEFDCF8EB5809100
:1021D0006E0518161CF461E00E94920C7894CF9161
:1021E00008950F931F93CF9380916A058F5F80931B
:1021F0006A050DE013E0C0E08C2F80640E94D210CD
:1022000080E80E94D21061E080916D050E94920CDE
:1022100080916E0518161CF460E00E94920C80E01C
:1022200090E0F801E80FF91F20812EBD00000DB4E9
:1022300007FEFDCF2EB501968435910591F780916B
:102240006E0518161CF461E00E94920CCF5F0C5AC8
:102250001F4FC63089F680E4CF911F910F910C94E7
:10226000D2100F931F93CF93DF938C01C0E0D0E087
:10227000F801EC0FFD1F6491662371F0E0915E059B
:10228000F0915F050190F081E02D8EE595E00995D4
:10229000892B11F02196ECCFCE01DF91CF911F91C8
:1022A0000F910895CF93DF930E943111EC0185E1E6
:1022B00091E00E942C108C0F9D1FDF91CF9108950B
:1022C00088EF91E0EDE0F3E0DF019C011D922150E9
:1022D0003040E1F7109267051092680583E793E0BC
:1022E0000E9431110E94F1108CB583608CBD8DB5B8
:1022F0008E7F8DBD88E191E0EEEFFFE309951092AE
:1023000064058EE493E00E9452110E94F1100E9435
:102310007E1080912505813039F062E370E080E025
:1023200090E00E94990DF3CF0895AF92BF92CF92A3
:10233000DF92EF92FF920F931F93CF93DF93C82EFC
:10234000D12CE601C05FDA4F9DA1992309F44CC05E
:102350007E019FEFE91AF90AF70195A1911144C096
:102360009EA58601000F111F005F1A4FF80134A5CA
:1023700025A5E32FF22FE90FF11DE90FF11D25919E
:1023800034912F3FFFEF3F0711F41DA22DC039AB51
:10239000F601EE0FFF1FE65EFA4F3327220F331FC1
:1023A00005A0F6A1E02DE20FF31FA590B4908111D6
:1023B00017C00E946710F801B3AAA2AAF601EE0F97
:1023C000FF1FEE5DFA4F16A215A281E0F70185A36B
:1023D00089E08BAF1EAEFE017B9615A2329615A248
:1023E00029968DA18F5F8DA3DF91CF911F910F91C2
:1023F000FF90EF90DF90CF90BF90AF90089570E086
:10240000DB01AA0FBB1FA05FBA4FD4962C91D497C3
:10241000D5969C91D597E22FF92FE80FF11DE80F83
:10242000F11D259134915F9696963C932E93959746
:10243000F9018591949190913905989F802D1124EF
:10244000605F7A4FFB01B19685A3F901A591B49124
:102450004B2F50E0E82FF0E04E175F0720F4F90112
:1024600025913491832FFB01B296899F802D1124F1
:1024700085A30895AF92BF92CF92DF92EF92FF9221
:102480000F931F93CF93DF93182F062FC1E0D3E054
:102490008AEFD82E9EEFE92E842F8470C82E842FC9
:1024A0008270B82E842F8870A82E4170F42E8C2F45
:1024B000880F8F5FE80ECC2081F04D2F400F6C2FDE
:1024C000610F8EE595E00E9420024C2F400F6D2F8A
:1024D000610F8EE595E00E942002BB2081F0402F25
:1024E0004D1B6C2F610F8EE595E00E942002402F5E
:1024F0004C1B6D2F610F8EE595E00E942002AA20F3
:1025000081F04C2F400F612F6D1B8EE595E00E94EE
:1025100020024D2F400F612F6C1B8EE595E00E942D
:102520002002FF2081F0402F4C1B612F6D1B8EE598
:1025300095E00E942002402F4D1B612F6C1B8EE501
:1025400095E00E942002CD1744F4E7FC04C0D1506E
:10255000D394D394ED0CCF5FAACFDF91CF911F918D
:102560000F91FF90EF90DF90CF90BF90AF900895C4
:102570009F92AF92BF92CF92DF92EF92FF920F9312
:102580001F93CF93DF93F82EE62EB22E03E0020FB7
:10259000D0E0C3E08AEFC82E1EEF842F8170982E02
:1025A000AA24A394A20E4270D42EDF5F802F8B1931
:1025B000180F9920A1F02C2F220F2A0D4E2D4C1B05
:1025C0006D2F6F0D8EE595E00E948B0F202F4E2D05
:1025D0004D1B6C2F6F0D8EE595E00E948B0FDD205B
:1025E000A1F02C2F220F2A0D4E2D4C1B6F2D6D1B91
:1025F0008EE595E00E948B0F202F4E2D4D1B6F2DE9
:102600006C1B8EE595E00E948B0FDC1744F417FDE0
:1026100004C0C150C394C3941C0D0E5FC6CFDF919C
:10262000CF911F910F91FF90EF90DF90CF90BF90CF
:10263000AF909F9008958F929F92AF92BF920F9309
:102640001F93CF93DF93CDB7DEB7A1970FB6F89462
:10265000DEBF0FBECDBF19A2423008F44AE08E01A2
:102660000F5D1F4F842E912CA12CB12CA50194013C
:102670000E94211AE62FB901CA0101501109EA305E
:1026800014F4E05D01C0E95CD801EC93232B242B0A
:10269000252B61F7C8010E942C10A1960FB6F89463
:1026A000DEBF0FBECDBFDF91CF911F910F91BF90C5
:1026B000AF909F908F900895E0915E05F0915F0537
:1026C0000190F081E02D682F8EE595E009948091CE
:1026D0002C0590912D05892BB1F1809134058F71D6
:1026E00069F584E10E945D0DBC01990F880B990B7F
:1026F0000E94831A26EE3FE34EEC50E40E94E71A54
:102700000E94521A9B0170932B0560932A05672B38
:1027100091F084E080932905ECE2F5E080E04191BE
:1027200051912417350718F48093290508958F5F78
:102730008430A9F703C08FEF809329058091340579
:102740008F5F809334050895789484B5826084BD4A
:1027500084B5816084BD85B5826085BD85B58160A5
:1027600085BD80916E00816080936E001092810023
:1027700080918100826080938100809181008160DE
:10278000809381008091800081608093800080919F
:10279000B10084608093B1008091B000816080932B
:1027A000B00080917A00846080937A0080917A00F2
:1027B000826080937A0080917A00816080937A00B1
:1027C00080917A00806880937A001092C10082E341
:1027D00080938F0581E090E0A0E0B0E080938B05CE
:1027E00090938C05A0938D05B0938E058FEF809309
:1027F0008005E0E8F7E7259134912130304C09F06D
:1028000049C0E6E9F7E7E491E0936905E7E9F7E70E
:10281000E491E0931405E8E9F7E7E491E093150506
:10282000E9E9F7E785919491909317058093160550
:10283000EBE9F7E78591949190931905809318053A
:1028400088E080933B05EEE9F7E7E491E0933A05F1
:10285000EFE9F7E7E491E0938005E0EAF7E7859197
:10286000949190932D0580932C05E2EAF7E78591EA
:10287000949190932F0580932E05E4EAF7E78591D4
:1028800094919093310580933005E6EAF7E78591BE
:1028900094912CC09CE39093690510921405809349
:1028A000150580E293E0909317058093160584ED5B
:1028B00093E0909319058093180588E080933B0579
:1028C00080933A058CEA9DE090932D0580932C052A
:1028D0008EED9DE090932F0580932E0584E79EE07A
:1028E00090933105809330058CE39FE090933305FE
:1028F00080933205C1E0C09310056FEF70E085E072
:102900000E94FE0C88E080931A0589E080931B05E5
:1029100087E080931C0586E080931D05D4E0D0936A
:102920001E0582E080931F0581E1809320050E94AF
:102930007E108CE39FE090932B0580932A05D09323
:102940002905C09334058BE080936C058DE080935E
:102950006B0580E180936D058EE080936F058FE0BD
:1029600080936E05C0936605C0937E0510927F0527
:10297000C0936505E8EBF1E0E491EF5FE093620559
:10298000E9EBF1E0E491EF5FE09363058AEB91E01E
:1029900090937D0580937C05CFB7F8948091FD02DC
:1029A000811127C0EFEAF3E08491E3ECF3E0949126
:1029B000E82FF0E0EE0FFF1FE855FF4FA591B4910F
:1029C000EC91E92321F461E08AE00E94920C61E03D
:1029D0008AE00E94C20C8CB580618CBD8CB580648D
:1029E0008CBD61E08DE00E94C20C61E08BE00E9432
:1029F000C20C8091FD028F5F8093FD02CFBF8CB52A
:102A00008F7D8CBD8CB58C7F81608CBD8DB58160D8
:102A10008DBD8CB58C608CBD61E080916C050E9491
:102A2000C20C61E080916B050E94C20C61E0809154
:102A30006D050E94C20C80916F0518161CF461E0B0
:102A40000E94C20C80916E0518161CF461E00E9471
:102A5000C20C80916F05181674F460E00E94920C0D
:102A60006AE070E080E090E00E94990D61E0809162
:102A70006F050E94920C80916B05082E000C990B3B
:102A8000FC01EB55FC4FE491F0E0EE0FFF1FEE541C
:102A9000FF4F259134913093730520937205FC010B
:102AA000E754FC4FE491E093790580916C05082E82
:102AB000000C990BFC01EB55FC4FE491F0E0EE0F9C
:102AC000FF1FEE54FF4F25913491309371052093F1
:102AD0007005FC01E754FC4FE491E0937805809188
:102AE0006E05082E000C990BFC01EB55FC4FE49190
:102AF000F0E0EE0FFF1FEE54FF4F2591349130931D
:102B0000750520937405FC01E754FC4FE491E093B4
:102B10007A0580916D05082E000C990BFC01EB5590
:102B2000FC4FE491F0E0EE0FFF1FEE54FF4F2591B4
:102B300034913093770520937605FC01E754FC4FE0
:102B4000E491E0937B0581E20E94D21084E10E942F
:102B5000D2108091690587FF03C08FE780936905D4
:102B60008091690580680E94D21080E20E94D21094
:102B70008CE00E94D2100E94F110C1E0C093390590
:102B800084E080935D0584EA90E09093450580930E
:102B9000440560E080E00E94FF1161E070E083E0A6
:102BA0000E94FE0C8091B100887F81608093B1000B
:102BB000F89410928000109281001092850010927B
:102BC000840088E191E0909389008093880080914F
:102BD0008100886080938100809181008160809372
:102BE000810080916F00826080936F0078940E94D2
:102BF000671380912605813019F410923A051CC0A4
:102C0000809129058823C9F380E00E9467108CEB2E
:102C100090E09093430580934205109248051092EE
:102C20004705C093360589E080934B0510924E0509
:102C300010925005109252050E94C80457E1F52EDB
:102C4000CC24C394D12C0E94D207882309F412C14A
:102C500080912705813009F415C18091020190917E
:102C60000301019709F053C080912305813049F495
:102C70008091FC02853029F08C3019F08F5F8093B1
:102C8000FC0280912105813049F48091FC02882367
:102C900029F0863019F081508093FC028091240540
:102CA000813041F48091FC02823008F0EEC08A5FEE
:102CB0008093FC0280912205813041F48091FC02D6
:102CC000883008F4E7C087508093FC02C091250546
:102CD000C130E9F48091CB058823C9F00E944410EB
:102CE0008093FB028BEF92E00E94BF04C09300032D
:102CF000C093FF028091CB05833008F082E080937F
:102D0000FE0282E090E090930301809302018091A3
:102D1000CB05882329F041E861E081E00E94780238
:102D2000C0E0D0E08091FA02843008F0B8C0282FCB
:102D300030E0C217D3070CF0B8C02C1B3D0B21505C
:102D4000310990E0281739073CF4821B930BFC01F2
:102D5000EB53FD4F408101C041E08C2F880F61E0B3
:102D6000835F0E9478022196DDCF6EE180910101A0
:102D70000E94E50F8093010165E0809100010E94AF
:102D8000E50F8093000181E0C0910001D091010125
:102D900013E01D0F46E0742E7C0EA12CB12C66248E
:102DA0006394882309F44DC101E060927E0560922E
:102DB0007F059C2E9A0C812E8A0C492D682D8EE55C
:102DC00095E00E942002E72CEA184E2D682D8EE532
:102DD00095E00E94200210927E0510927F052A2D18
:102DE000492D612F8EE595E00E94720E2A2D4E2D01
:102DF000612F8EE595E00E94720EFFEFAF1ABF0AB9
:102E000084E0A816B10481F600937E0500937F0547
:102E100062E06D0F27E04C2F8EE595E00E948B0F4E
:102E200042E04C0F22E06D2F8EE595E00E94720E7D
:102E300044E04C0F22E06D2F8EE595E00E94720E6B
:102E4000CD5F4C2F6D2F8EE595E00E9420021092F1
:102E50007E0510927F0561E06D0F22E04C2F8EE51C
:102E600095E00E94720E8091020190910301892BDE
:102E700009F490C180E090E0892B09F4E4CE0E942F
:102E80000000E1CE0E94C804E8CE863008F012CFE0
:102E9000895F0ECF863008F419CF865015CFC33026
:102EA000D1051CF423E030E048CF80E8A82E82E072
:102EB000B82EC5E200E010E0F5018081882371F0B2
:102EC000F09EF001F19EF00D1124E80FF11DE5597F
:102ED000FD4F408161E08C2F0E9478020F5F1F4FF1
:102EE000F7E1AF0EB11CC45FC53531F7CFEDD1E0CE
:102EF000412C512C00E010E0F49C3001F59C700C4A
:102F000011244E0195E1891A91085E01E6E1AE1A9D
:102F1000B108888190E008171907F4F49C01201B80
:102F2000310B21503109281739074CF4FC01E21B01
:102F3000F30BE60DF71DE653FE4F408101C042E260
:102F4000602F660FF4018081680FF50180810E9477
:102F500078020F5F1F4FDDCFFFEF4F1A5F0A6796B2
:102F600087E04816510431F68091020190910301E7
:102F70008130910509F0C6C0E091FC028E2F90E0EF
:102F80008D30910508F05BC0FC01EC5CFF4F0C94A8
:102F9000AC1B6BE001C06BE1809101010E94E50F69
:102FA0008093010165E020C06AE2E0CE66E3DECEF8
:102FB00062E4DCCE6BE0809101010E94E50F80931A
:102FC000010165E111C067E1809101010E94E50FF7
:102FD0008093010167E108C063E2809101010E94D2
:102FE000E50F8093010169E1809100010E94E50FE6
:102FF0008093000124C06EE1809101010E94E50FE1
:10300000809301016BE1B9CE6AE2809101010E94D7
:10301000E50F809301016DE1B0CE66E3809101017F
:103020000E94E50F809301016FE1A7CE62E48091D9
:1030300001010E94E50F8093010161E29ECE80E0D4
:10304000A3CE01E060927E0560927F058C2E8A0CF3
:10305000482D612F8EE595E00E942002972C9A184A
:10306000492D612F8EE595E00E94200210927E0589
:1030700010927F05EE24E394E10E2A2D482D6E2D4B
:103080008EE595E00E94720E2A2D492D6E2D8EE55B
:1030900095E00E94720E9FEFA91AB90A1150E4E060
:1030A000AE16B10471F600937E0500937F0514E01F
:1030B0001D0F27E04C2F612F8EE595E00E948B0FAE
:1030C00005E00D0F42E04C0F22E0602F8EE595E009
:1030D0000E94720E44E04C0F22E0602F8EE595E0D6
:1030E0000E94720ECD5F66E06D0F4C2F8EE595E06D
:1030F0000E94200210927E0510927F0522E04C2F44
:10310000612FADCE029709F0AECED091FF02C091F3
:1031100000034091FB026D2F8C2F0E94780261E129
:103120008C2F0E94E50FC82F8093000361E08D2F44
:103130000E94E50F8093FF02C13109F094CE8130E7
:1031400009F091CE8091FB02E091FA02E43340F461
:1031500091E09E0F9093FA02F0E0EA53FD4F8083D6
:103160008091FE02882389F081508093FE020E94A4
:1031700044108093FB028BEF92E00E94BF0481E039
:10318000809300038093FF026ECED0920301C09221
:10319000020169CE8091C8018C3198F4409181057B
:1031A0005091820560918305709184054370552785
:1031B00066277727452B462B472B19F48F5F809383
:1031C000C8018091C80191E08C3109F090E003E2E0
:1031D00011E0C5E2D1E022E2A22E21E0B22E412C84
:1031E000512C882E912C36E0E32E481459040CF013
:1031F00050C0F5018081FE0122913F01821305C07C
:10320000F801308128813217D1F1E49CF001E59C6E
:10321000F00D1124E05EFE4F4081F80160810E94B4
:103220007802F3016080662DF50180810E94E50F30
:10323000382EF50180837880672DF80180810E9407
:10324000E50FF8018083361019C0871117C0FE0101
:103250003497808131973081F89EC0011124FC01A0
:10326000E753FE4F2689243148F441E0420F468B54
:10327000820F911DFC01E553FE4F308390E0FFEF7C
:103280004F1A5F0A0A5F1F4F269686E0A80EB11CF0
:10329000ACCF992309F4EECDD0920301C092020184
:1032A000E9CDCF93DF9310926105109260058DE018
:1032B00091E090935F0580935E0581E08093FB022F
:1032C000E7E9F5E0819395E0EB3CF907D9F7109237
:1032D000CB05E6ECF2E081E0819392E0EA3FF9076A
:1032E000D9F71092FA02CAE6D2E0CE010E94B204E7
:1032F000679682E0C63CD807C1F7C9ECD1E0CE01A1
:103300000E94B204679692E0CA36D907C1F7E0E29C
:10331000F1E081E08083369691E0E83CF907D1F74F
:10332000DF91CF9108958F929F92AF92BF92CF92EB
:10333000DF92EF92FF92CF93DF93EC016881798166
:103340008A819B81611571058105910521F464E2F3
:1033500079ED8BE597E02DE133EF41E050E00E94FD
:10336000EF1949015A019B01AC01A7EAB1E40E949F
:103370000E1A6B017C01ACEEB4EFA50194010E9422
:103380001C1ADC01CB018C0D9D1DAE1DBF1DB7FFAE
:1033900003C00197A109B04888839983AA83BB839E
:1033A000BC01CD019F77DF91CF91FF90EF90DF902F
:1033B000CF90BF90AF909F908F9008950E949319E7
:1033C000089585E091E00E949319089560930501A6
:1033D0007093060180930701909308010895052ECC
:1033E00097FB1EF400940E94061A57FD07D00E9416
:1033F000211A07FC03D04EF40C94061A5095409500
:10340000309521953F4F4F4F5F4F08959095809590
:10341000709561957F4F8F4F9F4F08950E94431A7B
:10342000A59F900DB49F900DA49F800D911D112418
:103430000895B7FF0C940E1A0E940E1A821B930B6C
:103440000895A1E21A2EAA1BBB1BFD010DC0AA1FE5
:10345000BB1FEE1FFF1FA217B307E407F50720F0FD
:10346000A21BB30BE40BF50B661F771F881F991F78
:103470001A9469F760957095809590959B01AC01C1
:10348000BD01CF010895A29FB001B39FC001A39FCA
:10349000700D811D1124911DB29F700D811D11248D
:1034A000911D08950E94C61A88F09F5798F0B92F71
:1034B0009927B751B0F0E1F0660F771F881F991F69
:1034C0001AF0BA95C9F714C0B13091F00E94E01A11
:1034D000B1E008950C94E01A672F782F8827B85F21
:1034E00039F0B93FCCF3869577956795B395D9F7C1
:1034F0003EF490958095709561957F4F8F4F9F4FCB
:103500000895E89409C097FB3EF4909580957095D6
:1035100061957F4F8F4F9F4F9923A9F0F92F96E91F
:10352000BB279395F695879577956795B795F11194
:10353000F8CFFAF4BB0F11F460FF1BC06F5F7F4F31
:103540008F4F9F4F16C0882311F096E911C0772343
:1035500021F09EE8872F762F05C0662371F096E84C
:10356000862F70E060E02AF09A95660F771F881F1B
:10357000DAF7880F9695879597F9089557FD905833
:10358000440F551F59F05F3F71F04795880F97FB27
:10359000991F61F09F3F79F08795089512161306E1
:1035A0001406551FF2CF4695F1DF08C01616170610
:1035B0001806991FF1CF8695710561050894089545
:1035C000E894BB2766277727CB0197F908950E94D7
:1035D000FA1A0C946B1B0E945D1B38F00E94641B4E
:1035E00020F0952311F00C94541B0C945A1B1124B9
:1035F0000C94E11A0E94BE1A70F3959FC1F3950FC7
:1036000050E0551F629FF001729FBB27F00DB11D66
:10361000639FAA27F00DB11DAA1F649F6627B00DF6
:10362000A11D661F829F2227B00DA11D621F739FDF
:10363000B00DA11D621F839FA00D611D221F749FED
:103640003327A00D611D231F849F600D211D822F34
:10365000762F6A2F11249F5750409AF0F1F088235B
:103660004AF0EE0FFF1FBB1F661F771F881F915088
:103670005040A9F79E3F510580F00C94541B0C94C8
:10368000E11A5F3FE4F3983ED4F38695779567950A
:10369000B795F795E7959F5FC1F7FE2B880F911DB2
:1036A0009695879597F9089597F99F6780E870E058
:1036B00060E008959FEF80EC089500240A941616A8
:1036C000170618060906089500240A941216130610
:1036D000140605060895092E0394000C11F488239E
:1036E00052F0BB0F40F4BF2B11F460FF04C06F5FBA
:1036F0007F4F8F4F9F4F0895DB018F939F930E94C1
:103700000E1ABF91AF91A29F800D911DA39F900DA6
:10371000B29F900D11240895991B79E004C0991F60
:10372000961708F0961B881F7A95C9F7809508951B
:1037300097FB072E16F4009407D077FD09D00E945E
:10374000B21B07FC05D03EF4909581959F4F0895DC
:10375000709561957F4F0895EE0FFF1F0590F491CE
:10376000E02D0994AA1BBB1B51E107C0AA1FBB1F78
:10377000A617B70710F0A61BB70B881F991F5A95FD
:10378000A9F780959095BC01CD01089581E090E066
:0A379000F8940C94CB1BF894FFCFC3
:10379A00050B0100010100000000000000950E3C2D
:1037AA000C1D021C020D0A004C4F414445520000F8
:00000001FF
