:100000000C94F3010C941B020C941B020C941B0225
:100010000C941B020C941B020C941B020C941B02EC
:100020000C941B020C941B020C941B020C94780E73
:100030000C941B020C941B020C941B020C941B02CC
:100040000C94230E0C941B020C941B020C941B02A8
:100050000C941B020C941B020C941B020C941B02AC
:100060000C941B020C941B025E19601969196B1920
:100070006D196F19781978197819971997199719AF
:1000800097199703B503C603E403ED03FB030004CC
:1000900016042C043E045A04770490040101FF0363
:1000A0000101F703A0009C000000000024002700CD
:1000B0002A0000000000250028002B0005008930E0
:1000C0000802380249786814000005003801680108
:1000D000000017534400161378001613140015106F
:1000E000200015201000540A03E181867F3E186D20
:1000F000830F0F0E0183866033186DC3198F1803A9
:10010000C38E6033186DE330CF1803C39E60363062
:10011000CDE360CF3006C79E7E3E30CDB360CF309A
:100120000CC6F6603330D9B660CF33CFCCF6606101
:10013000B0DB1E60CF30D86CE6C061B0DB1E618FD3
:1001400019986CC6C063B19B0E330F0FB078C6FF11
:100150007E1F1B061E0F536F6C6974616972650008
:10016000450068010000F6E8DBCFC3B8AEA49B925F
:100170008A827B746E68625C57524E4945413E3AB2
:100180003734312E2C29272523210A0A153A4967AD
:100190006E6F7265006D560A0A504C4541534520FA
:1001A0005455524E204F464620004C4F5720424156
:1001B000545445525921200003053F213F12081293
:1001C0000A100A0E1C0E0C1E0C141A14161F161EF2
:1001D000131E1E1B1E1E1F1E3F213F3A2F3A173DA6
:1001E000173F213F181F02040A041F0E04040E1FAC
:1001F0000A1F0A0E0E1F04110E2E252E2F2A2E2640
:100200002929021F02081F08150E04040E150E15D9
:10021000151B151B040604040C0400000000170045
:100220000300031F0A1F16371A1904130A153A0090
:100230000300000E11110E000A040A040E0400301F
:10024000000404040010001804031F111F121F10E3
:100250001D151711151F07041F17151D1F151D014B
:10026000011F1F151F17151F000A00003200040A86
:10027000110A0A0A110A040115020E11171E051EA1
:100280001F150A0E110A1F110E1F15111F05010E51
:10029000111D1F041F111F1108100F1F041B1F1019
:1002A000101F061F1E040F0E110E1F09060E112E21
:1002B0001F051A121509011F011F101F0F180F1F0C
:1002C0000C1F1B041B031C03191513001F1103042F
:1002D00018111F000201022020200001020C121E32
:1002E0001F120C0C12120C121F0C1A14041E0524DF
:1002F0002A1E1F021C141D1020201D1F0814111F70
:10030000101E041E1E021C0C120C3E0A040C123E8F
:100310001E040214160A020F120E101E0E100E1EDC
:10032000081E120C1226281E322A26041E21001F27
:1003300000211E040102013F213F172B1520102030
:100340004C4F4144455200172B16201314000A4EFF
:100350006F2053442063617264206F720A6E6F20B5
:100360004C4F414445522E4845580A0A153A4578A3
:100370006974001D20466C617368696E670A2020ED
:100380006C6F616465722E2E2E0A0A444F4E2754FC
:10039000205455524E204F464621000000000023B5
:1003A00000260029000404040404040404020202D8
:1003B00002020203030303030301020408102040A6
:1003C000800102040810200102040810200000002F
:1003D0000800020100000304070000000000000004
:1003E0000000191BEF1A11241FBECFEFD8E0DEBFAB
:1003F000CDBF11E0A0E0B1E0EAECFDE302C0059062
:100400000D92A432B107D9F724E0A4E2B1E001C013
:100410001D92A13CB207E1F711E0C2EFD1E004C0A8
:100420002197FE010E94B91EC13FD107C9F70E9462
:100430000C140C94D81E0C940000089580E090E0F9
:100440000895CF93DF93C82FD62F0E942E106D2FC3
:100450008C2F0E9406106D2F8C2F0E94FE0F6D2F87
:100460008C2F0E941D106D2F8C2FDF91CF910C943B
:100470001510FC01643508F053C0403308F050C03B
:1004800090A1742F759575957595262F062E000CE5
:10049000330B542F57709230A1F4F901E35DFD4FF7
:1004A00084E57802E00DF11D1124808190E0052E95
:1004B00002C0959587950A94E2F78095982F9170E0
:1004C0000AC0933041F4848581704627409541707D
:1004D000841303C014C0911112C084E57802200D6A
:1004E000311D1124F901E35DFD4F81E090E001C071
:1004F000880F5A95EAF780959081892310C084E58A
:100500007802200D311D1124F901E35DFD4F81E0DA
:1005100090E001C0880F5A95EAF79081892B80837B
:100520000895AF92BF92CF92DF92EF92FF920F9316
:100530001F93CF93DF93082F162FF42E47FF02C08F
:1005400083E001C080E080939E0480939F04C1E01B
:10055000C10FEE24E394E00EDC2FCC2E0C2E000C09
:10056000DD088CE0C80ED11C8D2F0D2E000C990BD0
:100570008C159D054CF428E04D2F6E2D8EE794E0F0
:100580000E94C20EDF5FF0CF81E080939E048093D3
:100590009F0428E0412F6E2D8EE794E00E94C20E4A
:1005A00028E04DE0410F6E2D8EE794E00E94C20ED0
:1005B0002CE04C2F602F8EE794E00E94DB0F2CE0A4
:1005C0004C2F69E0600F8EE794E00E94DB0FF7FC90
:1005D000D7C18F2D90E074E0959587957A95E1F7D6
:1005E000837099279C01225031092230310508F48B
:1005F000C1C122E0B22EB10E32E0D32ED00ED4E033
:10060000D00F43E0C42EC10E53E0E52EE00E64E0AF
:10061000A62EA10EC5E0C00F8230910509F444C09A
:100620008330910509F450C00197C9F04B2D6D2F0F
:100630008EE794E00E94390223E04C2D6E2D8EE768
:1006400094E00E94C20E25E04A2D6D2D8EE794E0C5
:100650000E94C20E25E045E0410F6D2D4DC023E004
:100660004B2D6E2D8EE794E00E94C20E23E04A2DA2
:100670006E2D8EE794E00E94C20E23E04C2D6D2D6E
:100680008EE794E00E94DB0F23E04C2D66E0600FC4
:100690008EE794E00E94DB0F24E04C2D6D2F8EE757
:1006A00094E00E94DB0F33C04B2D6E2D8EE794E05B
:1006B0000E9439024B2D6C2F8EE794E00E94390284
:1006C00025E04C2D6D2D09C04B2D6D2F8EE794E04C
:1006D0000E94390223E04C2D6E2D8EE794E00E949B
:1006E000C20E25E04A2D6D2D8EE794E00E94C20EC9
:1006F00023E045E0410F6E2D8EE794E00E94C20E8C
:1007000046E0410F6D2F8EE794E00E943902D7E05A
:10071000D10FEF2DEF704E2F50E0FA013197ED30F1
:10072000F10508F02DC1EF5BFF4F0C94B91E86E078
:10073000F82EF00E4D2F6F2D8EE794E00E943902B7
:10074000D8E0D10F24E04D2F6C2F8EE794E00E946B
:10075000DB0F67E0600F24E04D2F8EE794E00E94EE
:10076000DB0F49E0410F6F2DB4C06D2F8C2F0E941D
:100770002E106D2F8C2F0E9426106D2F8C2F0E9413
:10078000FE0F6D2F8C2F0E940D1010C06D2F8C2F1F
:100790000E942E106D2F8C2F0E9426106D2F8C2FF3
:1007A0000E94FE0F6D2F8C2F0E941D106D2F8C2F1D
:1007B000DF91CF911F910F91FF90EF90DF90CF903D
:1007C000BF90AF900C9415106D2F8C2F0E940610C7
:1007D0006D2F8C2F0E94FE0F17C06D2F8C2FDF9175
:1007E000CF911F910F91FF90EF90DF90CF90BF902E
:1007F000AF900C9421026D2F8C2F0E9421021EC0FD
:100800006D2F8C2F0E942E106D2F8C2F0E94261082
:100810006D2F8C2FDF91CF911F910F91FF90EF9053
:10082000DF90CF90BF90AF900C941D106D2F8C2F48
:100830000E9421026D2F8C2F0E9426106D2F8C2F6D
:10084000DF91CF911F910F91FF90EF90DF90CF90AC
:10085000BF90AF900C940D106D2F8C2F0E94210231
:100860006D2F8C2FDF91CF911F910F91FF90EF9003
:10087000DF90CF90BF90AF900C9426106D2F8C2FEF
:100880000E942E106D2F8C2F0E9426106D2F8C2F02
:100890000E941D106D2F8C2F0E9415106D2F8C2F14
:1008A0000E940D106D2F8C2F0E94061025E04D2FF9
:1008B0006E2D52C06D2F8C2F0E9426106D2F8C2F05
:1008C0000E941D106D2F8C2F0E9415104AE0410FC1
:1008D0006C2F8EE794E0DF91CF911F910F91FF90E5
:1008E000EF90DF90CF90BF90AF900C9439026D2FB6
:1008F0008C2F0E942E106D2F8C2F0E9426106D2F92
:100900008C2F0E9406104AE0410F23E06C2F8EE7E7
:1009100094E00E94C20E4BE0410F66E0600FD9CF19
:100920006D2F8C2F0E9406106D2F8C2F0E940D10A2
:1009300049E0410F66E0600F8EE794E00E943902C3
:10094000095F22E04D2F602F8EE794E00E94DB0FBD
:100950004AE0410F22E0602F8EE794E0DF91CF91D3
:100960001F910F91FF90EF90DF90CF90BF90AF90CD
:100970000C94DB0F23E020939E0420939F0439CE38
:10098000DF91CF911F910F91FF90EF90DF90CF906B
:10099000BF90AF900895DC0115962C91159730E02B
:1009A000621773075CF4261B370B1296ED91FC91CE
:1009B0001397E20FF31F31978081089582E2089523
:1009C0000F931F93CF93DF938C01C0E0D0E0F80129
:1009D000658170E0C617D70794F46C1B7D0B6150DE
:1009E0007109C8010E94CB046C2F660FF801918138
:1009F000690F482F80810E9491022196E8CFDF91F4
:100A0000CF911F910F910895FC01258184812817B2
:100A100048F48281938131E0320F3583FC01E20F8B
:100A2000F11D60830895FC0182819381009711F08C
:100A30000C94081C08950F931F93CF93DF938C01A0
:100A4000FC0115826483C62FD0E0CE010E94731B87
:100A5000FC01C80FD91F21E0EC17FD0711F021930D
:100A6000FBCFF80193838283DF91CF911F910F9188
:100A70000895FC01908197FF02C09F7701C09068A4
:100A8000908308952F923F924F925F926F927F9240
:100A90008F929F92AF92BF92CF92DF92EF92FF928E
:100AA0000F931F93CF93DF93CDB7DEB727970FB682
:100AB000F894DEBF0FBECDBF8091A004882309F457
:100AC00087C181E08093860410928504109284048B
:100AD0001092480480939E0480939F0490E6292EF0
:100AE00091E0392EBB24B394CC24C3941CE00E9423
:100AF00022088823E1F3E6E5F1E08491E6EEF0E0F8
:100B00008490E7EEF0E04490F0909E04082C000CF6
:100B10009908181419040CF1109287041093880492
:100B200086E591E00E94991180918204982F990F97
:100B3000890F81958D5A8093870480918304982F23
:100B4000990F890F8195835D809388048091A1041A
:100B500084FFA7C082EE90E0A6C01414ECF6442DEA
:100B600041330CF040E3382DF5E58F1691040CF07D
:100B700034E5E0908A0487E0880E911C83E0959428
:100B800087948A95E1F700E08DE292E021E068EE3B
:100B900070E0442E440F5508402F50E04415550591
:100BA0000CF0BACFFB01D490F1E0FF1218C0FB01AA
:100BB000DC0140E8542F5D2119F05C91522B5C93CD
:100BC00050E0559547954115510519F43196D4904B
:100BD00040E811965A2F581B531760F359C0F11073
:100BE0001AC0A22EA094FB01DC0140E8542F5D2125
:100BF00019F05C915A215C9350E055954795411549
:100C0000510519F43196D49040E811965A2F581B8B
:100C1000531760F33DC043E0F41223C0722E70946A
:100C2000FB01DC0140E8A82E6A2E681A542F5D21D2
:100C300041F06E245C9160FE02C0522B01C057212E
:100C40005C9350E0559547954115510519F431963F
:100C5000D49040E811965A2F5A19531728F3EB24D1
:100C600017C0FB01DC0140E8542F5D2119F05C91B5
:100C700052275C9350E0559547954115510519F45D
:100C80003196D49040E811965A2F581B531760F3B1
:100C9000220F19F48C5A9F4F21E00F5F680D791DC8
:100CA0007BCF8EED90E00E94BA1180918204982F44
:100CB000990F890F81958D5A8093870480918804BC
:100CC0008F5F8093880480915A04882319F08AEDFD
:100CD00090E002C086ED90E00E94BA1180918204FB
:100CE000982F990F890F81958D5A80938704809151
:100CF00088048F5F8093880482ED90E00E94BA118F
:100D000080914604813041F580915A048F5F609153
:100D10005B0487FD09C0082E000C990B70E06F5F23
:100D20007F4F0E94A51E682F60935A0480E00E94A6
:100D3000CF103092630420926204109268041092E3
:100D40006704C092560489E080936B0410926E048D
:100D50001092700410927204809145048130B9F0B1
:100D60008091A004482F50E060E070E04090A10422
:100D70005090A2046090A3047090A40444165506F9
:100D80006606770608F456C18F3F09F453C18FEF0A
:100D90008093A00480E00E94CF1080E00E94CF10DA
:100DA0008AEC90E09093630480936204109268044C
:100DB0001092670481E08093560499E090936B044D
:100DC00010926E0410927004109272048093480482
:100DD000C0904A04D0904B04C094D094E12CF12CE4
:100DE0000E94C40D4B015C010E94C40DA501940139
:100DF000209530954095509560957095809590958B
:100E00000E94891E9B01AC01C701B6010E94891E88
:100E10004B015C0180913104909132046C01E12C12
:100E2000F12C0E94C40DC60ED71EE81EF91EC70184
:100E3000B601680D791D8A1D9B1D6115710581051F
:100E4000910511F00E94F31C1092480410921E02AA
:100E500010921D028BE08093250185E08093240190
:100E6000109216021092BC04E12CF12CC70124E070
:100E7000880F991F2A95E1F7082F006811E0612F6C
:100E8000602B87EB94E00E9404051F5F1E30B9F7CA
:100E90008FEFE81AF80A94E0E916F10439F700E058
:100EA00010E02091BC0430E0021713077CF57901B3
:100EB000E01AF10A49F00E94EE1C9701FF0C440B66
:100EC000550B0E94FC1C03C060E070E0CB01209138
:100ED000B9043091BA04F901E60FF71F9081A0918F
:100EE000BC04B0E0A01BB10BA20FB31F11978C91F3
:100EF00080838091BC04E82FF0E0E01BF10BE20F4F
:100F0000F31F319790830F5F1F4FCBCF1092FE01DD
:100F10001092040210920A021092100280E090E0F7
:100F2000FC01E153FE4F158206968A329105C1F706
:100F30001092CE018FEC882E81E0982E00E010E018
:100F400096E0492EDE0111965D01772473945524B5
:100F50005394602E660C7801C12CD12C0E94A910EC
:100F60008F830E151F0521F4CE0107960E943905C7
:100F70002091CE01F501442D11924A95E9F759824D
:100F8000429EC00111248A5D9E4FF501DC01342D83
:100F900001900D923A95E1F7DC0112967C9212973E
:100FA00013967C921397F401EC0DFD1D308114967D
:100FB0003C9314973181360D15963C9315971196F5
:100FC000EC9211973F813C932F5F2093CE01BFEFAE
:100FD000EB1AFB0AE6E0CE0ED11CF7E0EF16F104A7
:100FE00009F0BCCF0F5F1F4F46E0840E911C073005
:100FF000110509F0AECF1092CE01109201011092AE
:10100000000127960FB6F894DEBF0FBECDBFDF916B
:10101000CF911F910F91FF90EF90DF90CF90BF90F5
:10102000AF909F908F907F906F905F904F903F9088
:101030002F90089580914704813009F058CD0E9487
:10104000C81150CD4F925F926F927F928F929F9274
:10105000AF92BF92CF92DF92EF92FF920F931F93C6
:10106000CF93DF9300D000D01F92CDB7DEB7409171
:10107000B0045091B1046091B2047091B3042FB7E1
:10108000F8948091230290912402A0912502B091BE
:1010900026022FBF481B590B6A0B7B0B8091AF04B4
:1010A00090E0A0E0B0E00091AB041091AC0420917E
:1010B000AD043091AE0484179507A607B70730F446
:1010C000011511052105310509F044C3012B022B3F
:1010D000032B09F03DC38091470481508E3FC0F53A
:1010E000809146048130C9F580915A048F5F6091E8
:1010F0005B0487FD09C0082E000C990B70E06F5F40
:101100007F4F0E94A51E682F60935A0487E493E0E6
:101110009093B5048093B40488E48093B60480E08F
:101120000E94CF1080E691E0909363048093620464
:10113000109268041092670481E08093560489E05D
:1011400080936B0410926E041092700410927204DB
:101150008091470481508E3F70F480914504813026
:1011600009F0A4C38AE393E09093B5048093B40498
:1011700088E48093B60480E00E94FD1180915604BB
:10118000882309F4ABC080916A048111A7C08091C3
:10119000620490916304E0916704F0916804EE0F9B
:1011A000FF1FE80FF91F4591549141155105F1F4C6
:1011B00020916604222331F0109268041092670493
:1011C000FC0112C01092560480915504882341F00E
:1011D00080E00E94FD11E0916704F09168042DC049
:1011E00080E00E94BA107AC0459154919A013695D8
:1011F00027953695279540FF51C0CA01B6E09695D0
:101200008795BA95E1F78F71952F96959695969556
:1012100090512F70223071F1F8F4211117C08B30EA
:1012200008F08AE080936B04E0916704F091680411
:101230003196F0936804E0936704EE0FFF1F8091EE
:10124000620490916304E80FF91FCECF213061F75B
:1012500060E00E946712E8CF2330B1F0243021F71C
:1012600020915904829F802D1124809372049093C1
:101270007304DACF20915904829F802D112480932A
:101280006E0490936F04D0CF20915904829F802DDB
:1012900011248093700490937104C6CF2F73209310
:1012A000690480915904859F802D112480936A04DC
:1012B00010927A04109279041092780481E080935D
:1012C0006C0480932D0410926D04809167049091BA
:1012D00068040196909368048093670480916C047D
:1012E000882309F4EEC080916A04811103C00E9432
:1012F000BA10E7C0815080936A0480917A0481110A
:1013000046C020917804309179042F5F3F4FC90186
:10131000880F991FE0917404F0917504E80FF91F8C
:1013200065917491862F877080937B04AB0163E095
:10133000569547956A95E1F7CA0196958795972F37
:101340009695969590937C048F7390915904899FFC
:10135000802D112480937A044170409322023093AF
:101360007904209378048091760490E02817390757
:1013700070F020917704222339F0821B9109909319
:1013800079048093780403C080E00E94BA108091B1
:101390007A04815080937A0480916D0421E0280FB3
:1013A00020936D044091690430917C04340F809146
:1013B0006104380F3093570460917004662371F014
:1013C00070E0822F022E000C990B0E94A51E8091C6
:1013D0007104869F300D1124309357048091570477
:1013E00090E0849664E270E00E94A51E809357040A
:1013F00030916B043093580460916E04662381F041
:10140000062E000C770B822F022E000C990B0E94E7
:10141000A51E80916F04869F300D112430935804CF
:10142000609172046623A1F0822F220F990B70E065
:101430000E94A51ECB0162E070E00E94A51E2091D3
:10144000730490915804289F900D11249093580490
:10145000809158044F3341F08A300CF089E087FDC9
:1014600080E08093580402C010925804F894E091F0
:101470005704F0E0EA59FE4FE491E09321023091E5
:10148000580420917D0432039001112440917B0483
:101490004203C001439F900D112400905A0402C0E2
:1014A000880F991F0A94E2F797FF02C081589F4F57
:1014B000880F892F881F990B80932E0480932F0407
:1014C00078948091B604882309F497C08C3020F476
:1014D0009CE0D92ED81A01C0D12C81E080938604DB
:1014E00010929E0410929F041091830483E0810F58
:1014F0003D2D311B335D032FE82E880FFF08E30ECF
:10150000F11C37FDFA94802F002E000C990B8E15DC
:101510009F055CF42EE4402F63E08EE794E03D836A
:101520000E94C20E0F5F3D81EECF145003E0030F07
:10153000212F41E0602F80E50E942013212F42E0FF
:10154000602F83E00E94201381E080939E048093AB
:101550009F04009183048D2D801B3DE2F32EF80E35
:101560002EE44F2D63E08EE794E00E94C20E13E05C
:10157000100F1F0D4FEF410F2EE463E08EE794E054
:101580000E94C20E035033E0F30E202F4F2D60E077
:101590008EE794E00E94DB0F202F4F2D63E58EE74E
:1015A00094E00E94DB0F41E06F2D83E00E94A212C5
:1015B00042E06F2D80E50E94A212145044E0612F9A
:1015C00080E50E94A21248E0612F83E00E94A212EF
:1015D00084E08093870480918304D81A8D2D815DE7
:1015E000809388048091B4049091B5040E9499116D
:1015F0008091B60481508093B60480914C04909100
:101600004D04892B09F47CC011E010939E041092C4
:101610009F049091820485E5891B80938704109232
:10162000880480914904813009F44DC030F09091D4
:101630004804853008F05FC05AC080E00E94CF1097
:1016400010938604E8EBF1E0E491EF5FE09382040D
:10165000E9EBF1E0E491EF5FE09383048AEB91E042
:1016600090939D0480939C0410924D0410924C041E
:101670001092840418EA0E9422088823E1F38AEA7F
:1016800091E00E94991160914A0470914B0480E0AE
:1016900090E04AE00E94831385E991E00E9499114D
:1016A000612F62956F7070E080E090E04AE00E94E8
:1016B00083138AE891E00E9499118091450481305A
:1016C00009F0FAC01DC08091A1049091A204A091DC
:1016D000A304B091A4048F709927AA27BB27089769
:1016E000A105B10510F487E009C088E707C0992378
:1016F00039F08B5F03C0992319F08FE20E94C41365
:101700000E9459118091840481110EC088EF91E0EC
:10171000EDE2F2E0DF019C011D9221503040E1F743
:1017200010928704109288040E94C40D6093AB0449
:101730007093AC048093AD049093AE042091A70401
:101740003091A804621B730B7093A6046093A504E8
:1017500080E0CCC02FB7F8948091230290912402AE
:10176000A0912502B09126022FBF2091AF04820FD5
:10177000911DA11DB11D8093B0049093B104A0935D
:10178000B204B093B3048091A1049091A204A091FB
:10179000A304B091A4040196A11DB11D8093A104DE
:1017A0009093A204A093A304B093A4041092AB045A
:1017B0001092AC041092AD041092AE040E94C40DBD
:1017C0006093A7047093A8048093A9049093AA043B
:1017D00080913104909132042FE0289F8001299F4D
:1017E000100D112485E10E94AD0D800F911F24E0A2
:1017F000969587952A95E1F790933204809331046A
:1018000020913004222309F44BC060913404262F28
:1018100030E040E050E029833A834B835C83C09002
:101820003504D12CE12CF12C40913804509139042D
:101830004A01A12CB12C20913604309137042901A2
:10184000612C712C8217930728F09C0148175907C7
:1018500008F49A01C901A0E0B0E09C01AD0124198F
:1018600035094609570969817A818B819C816C19F8
:101870007D098E099F090E94891EA50194012419E2
:101880003509460957090E94FC1CC20ED31EE41EEE
:10189000F51EC09233046C2D70E085E00E944E0D61
:1018A0000E94E6100E94CF1381E020C0893209F027
:1018B00062CC0E94C8115FCC115009F0DCCE60E010
:1018C00070E085E00E944E0D83B7817F846083BF06
:1018D00083B7816083BF83B7816083BF889583B7F7
:1018E0008E7F83BF83B78E7F83BFC5CE0F900F904F
:1018F0000F900F900F90DF91CF911F910F91FF905C
:10190000EF90DF90CF90BF90AF909F908F907F909F
:101910006F905F904F900895CF92DF92EF92FF9279
:101920000F931F93CF93DF936C017A018B01C0E07B
:10193000D0E0CE15DF0589F0D8016D918D01D6017B
:10194000ED91FC910190F081E02DC6010995892B64
:1019500011F47E0102C02196ECCFC701DF91CF9137
:101960001F910F91FF90EF90DF90CF9008950E940C
:10197000D31E833081F028F4813099F08230A1F0B9
:1019800008958730A9F08830B9F08430D1F480917F
:1019900080008F7D03C0809180008F7780938000CE
:1019A000089584B58F7702C084B58F7D84BD089576
:1019B0008091B0008F7703C08091B0008F7D8093BD
:1019C000B00008951F93CF93DF93282F30E0F901E3
:1019D000E353FC4F8491F901E754FC4FD491F90192
:1019E000EB55FC4FC491CC23C9F0162F81110E94F6
:1019F000B90CEC2FF0E0EE0FFF1FEE54FF4FA59156
:101A0000B4918FB7F894111105C09C91ED2FE0951A
:101A1000E92302C0EC91ED2BEC938FBFDF91CF91C6
:101A20001F910895CF93DF9390E0FC01E754FC4FA2
:101A30002491FC01EB55FC4F8491882361F190E0E7
:101A4000880F991FFC01E855FF4FC591D491FC0107
:101A5000EE54FF4FA591B491611109C09FB7F8945E
:101A60008881209582238883EC912E230BC06230DD
:101A700061F49FB7F8943881822F809583238883FF
:101A8000EC912E2B2C939FBF06C08FB7F894E88162
:101A90002E2B28838FBFDF91CF9108951F93CF9373
:101AA000DF93182FEB0161E00E94120D209711F4D3
:101AB00060E004C0CF3FD10539F461E0812FDF91B0
:101AC000CF911F910C94E20CE12FF0E0E353FC4F17
:101AD000E491E330F9F048F4E130B9F0E230A1F5F7
:101AE00084B5806284BDC8BD34C0E730E9F0E83019
:101AF00019F1E43049F58091800080628093800084
:101B0000D0938B00C0938A0024C084B5806884BDC4
:101B1000C7BD1FC080918000806880938000D093F3
:101B20008900C093880015C08091B00080688093C0
:101B3000B000C093B3000DC08091B000806280936C
:101B4000B000C093B40005C0C038D1050CF0B5CFCB
:101B5000AFCFDF91CF911F9108958E3008F08E5056
:101B60008770806480937C0080917A008064809389
:101B70007A0080917A0086FDFCCF809178002091D8
:101B8000790090E0922B08953FB7F8948091290254
:101B900090912A02A0912B02B0912C0226B5A89B0D
:101BA00005C02F3F19F00196A11DB11D3FBFBA2FEF
:101BB000A92F982F8827820F911DA11DB11DBC014F
:101BC000CD0142E0660F771F881F991F4A95D1F714
:101BD00008958F929F92AF92BF92CF92DF92EF9231
:101BE000FF926B017C010E94C40D4B015C01C1148A
:101BF000D104E104F104F1F00E94C40DDC01CB0139
:101C000088199909AA09BB09883E9340A105B10525
:101C100070F321E0C21AD108E108F10888EE880EBD
:101C200083E0981EA11CB11CC114D104E104F1048D
:101C300019F7DDCFFF90EF90DF90CF90BF90AF907E
:101C40009F908F9008951F920F920FB60F921124BC
:101C50002F933F938F939F93AF93BF9380912302D2
:101C600090912402A0912502B09126023091280281
:101C700023E0230F2D3720F40196A11DB11D05C0CF
:101C800026E8230F0296A11DB11D20932802809300
:101C9000230290932402A0932502B0932602809100
:101CA000290290912A02A0912B02B0912C02019658
:101CB000A11DB11D8093290290932A02A0932B02AB
:101CC000B0932C02BF91AF919F918F913F912F9133
:101CD0000F900FBE0F901F90189580912D048823B0
:101CE00019F080912F0401C080E08093B400089522
:101CF0001F920F920FB60F9211242F933F934F9381
:101D00005F936F937F938F939F93AF93BF93EF9363
:101D1000FF9360912E04662321F1809127028F5F4B
:101D200080932702909121028917D8F090912D0479
:101D300081E0892780932D0410922702809122024E
:101D4000882369F08091020193E4899F802D1124FA
:101D5000895B809302010E94991E90932F040E9438
:101D60006D0EFF91EF91BF91AF919F918F917F91F8
:101D70006F915F914F913F912F910F900FBE0F90F8
:101D80001F901895DF92EF92FF920F931F93CF93BE
:101D9000DF931F92CDB7DEB78C01D62EF42EE12C47
:101DA000E21654F46E2D6D0D4F2DC80129830E944B
:101DB0003902E3942981F4CF0F90DF91CF911F91E5
:101DC0000F91FF90EF90DF9008952F923F924F92E6
:101DD0005F926F927F928F929F92AF92BF92CF92BB
:101DE000DF92EF92FF920F931F93CF93DF93EC015B
:101DF0006A3019F42D819885C3C06D3009F4C6C0CE
:101E000038847A84D98448A083E58D150CF4A1C068
:101E10008FE287150CF49DC08C8190E00197389E6D
:101E20009001399E300D1124C9018D0D911DD7FCF3
:101E30009A95181619060CF08CC08D81839DC001EF
:101E40001124870D911D77FC9A95181619060CF030
:101E500080C05D2CCD2CE62EF12CA32C032C000C85
:101E6000BB08EC2DED190E2E000CFF0B8C8190E0C1
:101E7000E817F9070CF06CC00197E817F90779F03B
:101E8000E89E9001E99E300DF89E300D1124E20F7E
:101E9000F31F8E8D9F8DE80FF91F149101C010E084
:101EA000072D672C262D2719022E000C330B8D8150
:101EB00090E0281739070CF048C010FF1EC081E0E1
:101EC000381206C0462D6C2DCE010E94390239C051
:101ED000202E4501800E911C07FD9A94822D022C24
:101EE000000C990B8815990564F5232D422D652D5D
:101EF000CE010E94C20E2394F1CF89A198A1891727
:101F000001F188A381E0381206C0462D6C2DCE0168
:101F10000E94390215C0202E4501800E911C07FD3C
:101F20009A94822D022C000C990B8815990544F483
:101F3000232D422D652DCE010E94C20E2394F1CF98
:101F400048A216956394030DADCFC394530C89CF6B
:101F500048A228853C818985329F800D112489877C
:101F60009F81992399F0082E000C990B44E550E0CD
:101F7000239F401951091124481759073CF49D81AA
:101F80008A85299F800D11248A87198681E090E037
:101F9000DF91CF911F910F91FF90EF90DF90CF9045
:101FA000BF90AF909F908F907F906F905F904F9079
:101FB0003F902F900895DF92EF92FF920F931F931F
:101FC000CF93DF931F92CDB7DEB78C01D62EF42EC0
:101FD000E12CE21654F44E2D4F0D6D2DC8012983CE
:101FE0000E943902E3942981F4CF0F90DF91CF91C1
:101FF0001F910F91FF90EF90DF90089542E0460F00
:1020000023E0682F8EE794E00C94C20E462F23E065
:10201000682F8EE794E00C94DB0F42E0460F23E03C
:10202000682F8EE794E00C94DB0F44E0460F23E02A
:10203000682F8EE794E00C94C20E42E0460F62E0F7
:10204000680F23E08EE794E00C94DB0F462F62E0EC
:10205000680F23E08EE794E00C94DB0F462F23E01B
:10206000682F8EE794E00C94C20E1F93CF93DF93FA
:10207000C82F162F861721F1862F90E08C1B91090F
:1020800063E070E00E94A51ED62F611117C0609119
:10209000A1047091A2048091A3049091A40423E070
:1020A00030E040E050E00E942E1D672B682B692B2A
:1020B00029F4C11710F0DFEF01C0D1E08D2F8C0F94
:1020C000DF91CF911F91089580911D0290911E0282
:1020D0008630910554F482309105A4F40097E9F01C
:1020E0000197D1F421E132E01AC08D309105A4F4BA
:1020F000069746E0489F9001499F300D11242153D7
:102100003E4F0DC0029746E0489F9001499F300D19
:10211000112427503E4F03C0089527EB34E0C90136
:102120000895BC01009791F0FC0101900020E9F7AF
:102130003197AF01481B590BE0917E04F0917F0469
:102140000280F381E02D8EE794E0099480E090E036
:1021500008958091BC04882359F0E091B904F0916E
:10216000BA0481508093BC04E80FF11D808108956A
:1021700081E00895811112C010926C0410926A04DB
:10218000109279041092780410926D0410922F042A
:1021900010922E0410922D040C946D0E089581114E
:1021A00014C010926C0410926A0410927904109278
:1021B000780410926D0410922F0410922E04109245
:1021C0002D040E946D0E109256040895CF92DF9256
:1021D000EF92FF920F931F93CF93DF93CAE3D4E064
:1021E00001E414E0FF24FA9497E0E92EE00E62E0A7
:1021F00088810E94120D288130E0F901E353FC4FE1
:102200008491F901E754FC4FC490F901EB55FC4F60
:10221000D490DD2071F081110E94B90CED2DF0E019
:10222000EE0FFF1FE556FC4FA591B491EC91EC2108
:10223000B1F4F80180818F5F808360E088810E9423
:10224000120D21960F5F1F4FE012D1CFDF91CF917A
:102250001F910F91FF90EF90DF90CF900895F801BC
:102260008081882371F3F8018F3F11F41082E5CF4C
:10227000F082E3CFCF93C82FF89460E080918D0473
:102280000E94E20C80918E0418161CF460E00E94FB
:10229000E20CCEBD00000DB407FEFDCF8EB58091DF
:1022A0008E0418161CF461E00E94E20C7894CF9121
:1022B00008950F931F93CF9380918A048F5F80932B
:1022C0008A040DE212E0C0E08C2F80640E943A1173
:1022D00080E80E943A1161E080918D040E94E20C36
:1022E00080918E0418161CF460E00E94E20C80E0DD
:1022F00090E0F801E80FF91F20812EBD00000DB419
:1023000007FEFDCF2EB501968435910591F780919A
:102310008E0418161CF461E00E94E20CCF5F0C5A88
:102320001F4FC63089F680E4CF911F910F910C9416
:102330003A110F931F93CF93DF938C01C0E0D0E04D
:10234000F801EC0FFD1F6491662371F0E0917E04AB
:10235000F0917F040190F081E02D8EE794E00995E3
:10236000892B11F02196ECCFCE01DF91CF911F91F7
:102370000F910895CF93DF930E949911EC0189E1A9
:1023800091E00E9491108C0F9D1FDF91CF910895D5
:1023900088EF91E0EDE2F2E0DF019C011D92215017
:1023A0003040E1F7109287041092880483E793E0AD
:1023B0000E9499110E9459118CB583608CBD8DB516
:1023C0008E7F8DBD8CE191E0EEEFFFE309951092D9
:1023D00084048EE493E00E94BA110E9459110E9475
:1023E000E61080914504813039F062E370E080E0CE
:1023F00090E00E94E90DF3CF0895AF92BF92CF9283
:10240000DF92EF92FF920F931F93CF93DF93C82E2B
:10241000D12CE601C05DDB4F9DA1992309F44CC08E
:102420007E019FEFE91AF90AF70195A1911144C0C5
:102430009EA58601000F111F005D1B4FF80134A5FA
:1024400025A5E32FF22FE90FF11DE90FF11D2591CD
:1024500034912F3FFFEF3F0711F41DA22DC039AB80
:10246000F601EE0FFF1FE65CFB4F3327220F331FF1
:1024700005A0F6A1E02DE20FF31FA590B490811105
:1024800017C00E94CF10F801B3AAA2AAF601EE0F5E
:10249000FF1FEE5BFB4F16A215A281E0F70185A39B
:1024A00089E08BAF1EAEFE017B9615A2329615A277
:1024B00029968DA18F5F8DA3DF91CF911F910F91F1
:1024C000FF90EF90DF90CF90BF90AF90089570E0B5
:1024D000DB01AA0FBB1FA05DBB4FD4962C91D497F4
:1024E000D5969C91D597E22FF92FE80FF11DE80FB3
:1024F000F11D259134915F9696963C932E93959776
:10250000F9018591949190915904989F802D1124FF
:10251000605D7B4FFB01B19685A3F901A591B49154
:102520004B2F50E0E82FF0E04E175F0720F4F90141
:1025300025913491832FFB01B296899F802D112420
:1025400085A30895AF92BF92CF92DF92EF92FF9250
:102550000F931F93CF93DF93182F062FC1E0D3E083
:102560008AEFD82E9EEFE92E842F8470C82E842FF8
:102570008270B82E842F8870A82E4170F42E8C2F74
:10258000880F8F5FE80ECC2081F04D2F400F6C2F0D
:10259000610F8EE794E00E9439024C2F400F6D2F9F
:1025A000610F8EE794E00E943902BB2081F0402F3A
:1025B0004D1B6C2F610F8EE794E00E943902402F73
:1025C0004C1B6D2F610F8EE794E00E943902AA2008
:1025D00081F04C2F400F612F6D1B8EE794E00E941D
:1025E00039024D2F400F612F6C1B8EE794E00E9443
:1025F0003902FF2081F0402F4C1B612F6D1B8EE7AD
:1026000094E00E943902402F4D1B612F6C1B8EE716
:1026100094E00E943902CD1744F4E7FC04C0D15085
:10262000D394D394ED0CCF5FAACFDF91CF911F91BC
:102630000F91FF90EF90DF90CF90BF90AF900895F3
:102640009F92AF92BF92CF92DF92EF92FF920F9341
:102650001F93CF93DF93F82EE62EB22E03E0020FE6
:10266000D0E0C3E08AEFC82E1EEF842F8170982E31
:10267000AA24A394A20E4270D42EDF5F802F8B1960
:10268000180F9920A1F02C2F220F2A0D4E2D4C1B34
:102690006D2F6F0D8EE794E00E94DB0F202F4E2DE3
:1026A0004D1B6C2F6F0D8EE794E00E94DB0FDD2039
:1026B000A1F02C2F220F2A0D4E2D4C1B6F2D6D1BC0
:1026C0008EE794E00E94DB0F202F4E2D4D1B6F2DC7
:1026D0006C1B8EE794E00E94DB0FDC1744F417FDBF
:1026E00004C0C150C394C3941C0D0E5FC6CFDF91CC
:1026F000CF911F910F91FF90EF90DF90CF90BF90FF
:10270000AF909F9008958F929F92AF92BF920F9338
:102710001F93CF93DF93CDB7DEB7A1970FB6F89491
:10272000DEBF0FBECDBF19A2423008F44AE08E01D1
:102730000F5D1F4F842E912CA12CB12CA50194016B
:102740000E942E1DE62FB901CA0101501109EA307D
:1027500014F4E05D01C0E95CD801EC93232B242B39
:10276000252B61F7C8010E949110A1960FB6F8942D
:10277000DEBF0FBECDBFDF91CF911F910F91BF90F4
:10278000AF909F908F900895E0917E04F0917F0428
:102790000190F081E02D682F8EE794E009948091FC
:1027A0004C0490914D04892BB1F1809154048F71A8
:1027B00069F584E10E94AD0DBC01990F880B990B5E
:1027C0000E94901D26EE3FE34EEC50E40E94F41D63
:1027D0000E945F1D9B0170934B0460934A04672B1A
:1027E00091F084E080934904ECE4F4E080E04191CE
:1027F00051912417350718F48093490408958F5F89
:102800008430A9F703C08FEF80934904809154046A
:102810008F5F809354040895CF93DF9300D01F926D
:10282000CDB7DEB7789484B5826084BD84B581600D
:1028300084BD85B5826085BD85B5816085BD80918B
:102840006E00816080936E00109281008091810003
:1028500082608093810080918100816080938100FB
:10286000809180008160809380008091B1008460BD
:102870008093B1008091B00081608093B00080911E
:102880007A00846080937A0080917A0082608093DD
:102890007A0080917A00816080937A0080917A003A
:1028A000806880937A001092C10082E38093AF0425
:1028B00081E090E0A0E0B0E08093AB049093AC04A2
:1028C000A093AD04B093AE048FEF8093A004E0E832
:1028D000F7E7259134912130304C09F049C0E6E901
:1028E000F7E7E491E0938904E7E9F7E7E491E093FF
:1028F0003404E8E9F7E7E491E0933504E9E9F7E720
:10290000859194919093370480933604EBE9F7E72F
:1029100085919491909339048093380488E0809352
:102920005B04EEE9F7E7E491E0935A04EFE9F7E797
:10293000E491E093A004E0EAF7E785919491909305
:102940004D0480934C04E2EAF7E7859194919093CB
:102950004F0480934E04E4EAF7E7859194919093B5
:10296000510480935004E6EAF7E7859194912CC0D6
:102970009CE390938904109234048093350480E2A0
:1029800093E0909337048093360484ED93E0909322
:1029900039048093380488E080935B0480935A0460
:1029A0008CEA9DE090934D0480934C048EED9DE065
:1029B00090934F0480934E0484E79EE090935104DB
:1029C000809350048CE39FE09093530480935204CF
:1029D00011E0109330046FEF70E085E00E944E0D1F
:1029E00088E080933A0489E080933B0487E08093F9
:1029F0003C0486E080933D0404E000933E0482E0C2
:102A000080933F0481E1809340040E94E6108CE3B0
:102A10009FE090934B0480934A04009349041093E1
:102A200054048BE080938C048DE080938B0480E1D0
:102A300080938D048EE080938F048FE080938E04CA
:102A40001093860410939E0410929F0410938504A3
:102A5000E8EBF1E0E491EF5FE0938204E9EBF1E071
:102A6000E491EF5FE09383048AEB91E090939D04FF
:102A700080939C041FB7F89480911F02811127C096
:102A8000EFEAF3E08491E3ECF3E09491E82FF0E0D7
:102A9000EE0FFF1FE855FF4FA591B491EC91E9238C
:102AA00021F461E08AE00E94E20C61E08AE00E9489
:102AB000120D8CB580618CBD8CB580648CBD61E0DD
:102AC0008DE00E94120D61E08BE00E94120D80915A
:102AD0001F028F5F80931F021FBF8CB58F7D8CBD3F
:102AE0008CB58C7F81608CBD8DB581608DBD8CB5C2
:102AF0008C608CBD61E080918C040E94120D61E0BD
:102B000080918B040E94120D61E080918D040E94DF
:102B1000120D80918F0418161CF461E00E94120DB2
:102B200080918E0418161CF461E00E94120D8091B1
:102B30008F04181674F460E00E94E20C6AE070E002
:102B400080E090E00E94E90D61E080918F040E9496
:102B5000E20C80918B04082E000C990BFC01EB55C4
:102B6000FC4FE491F0E0EE0FFF1FEE54FF4F259174
:102B700034913093930420939204FC01E754FC4F6A
:102B8000E491E093990480918C04082E000C990B39
:102B9000FC01EB55FC4FE491F0E0EE0FFF1FEE540B
:102BA000FF4F259134913093910420939004FC01C0
:102BB000E754FC4FE491E093980480918E04082E32
:102BC000000C990BFC01EB55FC4FE491F0E0EE0F8B
:102BD000FF1FEE54FF4F25913491309395042093BD
:102BE0009404FC01E754FC4FE491E0939A04809133
:102BF0008D04082E000C990BFC01EB55FC4FE49161
:102C0000F0E0EE0FFF1FEE54FF4F2591349130930B
:102C1000970420939604FC01E754FC4FE491E09361
:102C20009B0481E20E943A1184E10E943A11809152
:102C3000890487FF03C08FE780938904809189040A
:102C400080680E943A1180E20E943A118CE00E9452
:102C50003A110E94591111E01093590484E08093B5
:102C60007D0484EA90E0909365048093640460E0BE
:102C700080E00E94671261E070E083E00E944E0DE8
:102C80008091B100887F81608093B100F8941092A8
:102C9000800010928100109285001092840088E1DB
:102CA00091E09093890080938800809181008860F2
:102CB0008093810080918100816080938100809168
:102CC0006F00826080936F0078940E94CF13809190
:102CD0004604813009F066C110925A0485E280935F
:102CE000F90181E08093FA0191E39093FF018093D1
:102CF00000029DE3909305028093060299E490936D
:102D00000B0280930C02EFECF1E080E091E121E016
:102D1000280F20839183845F36968435C1F781E044
:102D20008093B7048093B8049DE090931102809340
:102D300012020E94420588248394912C33243394F8
:102D40000E942208882309F425C18091470481301C
:102D500009F446C1809100019091010181309105F3
:102D600021F0039709F44EC0ACC080914304813038
:102D700079F480911D0290911E028530910541F0F9
:102D80008C30910529F0019690931E0280931D02CC
:102D900080914104813071F480911D0290911E0256
:102DA000009741F08630910529F0019790931E021B
:102DB00080931D0280914404813069F480911D024A
:102DC00090911E02823091050CF00DC106969093F1
:102DD0001E0280931D0280914204813069F480912B
:102DE0001D0290911E02883091050CF402C10797D4
:102DF00090931E0280931D0210914504113009F03A
:102E000060C04EC080914304813079F480911D02EE
:102E100090911E028530910541F08C30910529F08A
:102E2000019690931E0280931D028091410481308F
:102E300079F480911D0290911E028130910541F03C
:102E40008630910529F0019790931E0280931D0210
:102E500080914404813071F480911D0290911E0292
:102E60008130910509F039C187E090E090931E020E
:102E700080931D0280914204813069F480911D028B
:102E800090911E02893091050CF42DC10797909303
:102E90001E0280931D0280914504813091F42BC164
:102EA000E0901D02F0901E02B1E0EB16F10409F46F
:102EB000ABC00CF0A4C0EF2821F48091BC048111B8
:102EC000ECC08091BC04882339F041E86091B804DB
:102ED0008091B7040E94910200E010E06091160218
:102EE000643008F021C170E006171707B4F4601BC6
:102EF000710B6150710981E192E00E94CB04202F97
:102F0000220F90911102482F60911202822F890F97
:102F10000E9491020F5F1F4FE1CF09EF11E0E12CFA
:102F2000F12C83E0B82EC70187509E4F6C01DC0165
:102F300015968C91882309F4FEC060E070E0C8010A
:102F40000E94CB04482FF6016181D8018C910E9428
:102F50009102B6E0EB0EF11C0A5F1F4FE8E1EE169E
:102F6000F10409F70FEC11E0C8010E94E0040A5FC8
:102F70001F4FF1E0093F1F07B9F7809100019091C1
:102F800001018130910509F48CC10CF0FBC0892B43
:102F900009F400C180E090E0892B09F4D1CE0E94B1
:102FA0000000CCCE80914904882309F495CE80E0BE
:102FB0000E94CF108CEB90E09093630480936204A6
:102FC00010926804109267041093560489E080936D
:102FD0006B0410926E0410927004109272047ECEF4
:102FE0000E944205B7CE863091050CF0F4CE0796CC
:102FF000EECE863091050CF4FFCE0697F9CEC701D0
:103000000697079708F05DCF0E9464108C01DC01E1
:1030100015968C911597882309F453CF10921C02B2
:1030200015968C91C82ED12C1C141D041CF4CC2494
:10303000C394D12C8C19F801858380E090E08C1525
:103040009D0594F4D80115968C9115971296ED91E3
:10305000FC911397E80FF11D608187E192E00E94D7
:10306000040581E090E0EBCFF801808180931702A6
:103070009181F6E0EF16F1042CF0D80115968C91B1
:10308000880F01C080E0890F80931802E3E0F0E030
:10309000F0930101E093000114CF10921C020E94F2
:1030A000A9108983CE0101960E943905698187E1C3
:1030B00092E00E9404051093170210931802809169
:1030C000BC04833008F082E08093200282E090E02C
:1030D0009093010180930001F4CE863091050CF0AD
:1030E000C9CE0796C3CE06970CF4D5CE90921E0299
:1030F00080921D02D0CE80911D0290911E020197F8
:103100000C9708F0DECE60E070E087E192E00E946C
:10311000CB048A830E9464106A810E940405909205
:10312000010180920001CDCE033011050CF0F5CEE7
:1031300063E070E0DCCEB0929E04B0929F04F60192
:10314000C180D801DC902AE04C2D6D2D8EE794E0F3
:103150000E94C20E4DE04C0D2AE06D2D8EE794E0EA
:103160000E94C20E2EE04C2D6D2D8EE794E00E9441
:10317000DB0F69E06D0D2EE04C2D8EE794E00E9490
:10318000DB0FE7CE8230910509F4C2C1039709F441
:10319000FFC100CF8091CE018C3198F44091A10401
:1031A0005091A2046091A3047091A4044370552728
:1031B00066277727452B462B472B19F48F5F809383
:1031C000CE018091CE0191E08C3109F090E059E27E
:1031D000E52E51E0F52E0BE211E068E2C62E61E02B
:1031E000D62EA12CB12C482E512CA414B5040CF0D1
:1031F00050C0D6018C91F80122913F01821306C084
:10320000D7013C91F80120813217B9F1F6E0FA9D1F
:103210009001FB9D300D11242A5D3E4FD9014C9148
:10322000F70160812A833B830E949102D3016C9055
:10323000662DF60180810E943510282ED6018C93D0
:10324000F8017080672DD7018C910E943510F7012D
:1032500080832A813B8126100FC087110DC0F801A1
:1032600034978081F6E0F89FC0011124D9016C9158
:1032700081539E4F0E94040590E0BFEFAB1ABB0A3A
:10328000E6E0EE0EF11C0A5F1F4FF6E0CF0ED11CF8
:10329000ACCF992309F47ECE909201018092000177
:1032A00079CE80911D0290911E028D30910508F01B
:1032B0005EC0FC01EC5CFF4F0C94B91E6BE001C0DA
:1032C0006BE1809125010E9435108093250165E016
:1032D00027C06EE105C06AE203C066E301C062E494
:1032E000809125010E9435108093250165E037C04B
:1032F000069726E0289F8001299F100D1124015375
:103300001E4FD8016C91665F809125010E94351097
:1033100080932501F80181816581660F680F6E5FDA
:10332000809124010E9435108093240120C00697CB
:1033300026E0289F8001299F100D112401531E4F64
:10334000D8016C916750809125010E9435108093BF
:103350002501F80181816581660F680F6E5F80919C
:1033600024010E9435108093240181E001C080E097
:10337000109124010091250133E0F32EF00E46E078
:10338000E42EE10EC12CD12C882309F45BC03092CD
:103390009E0430929F04A12EAC0C7F2C7C0C4A2DF5
:1033A000672D8EE794E00E943902BE2CBC184B2D8D
:1033B000672D8EE794E00E94390210929E041092CD
:1033C0009F042C2D4A2D6F2D8EE794E00E94C20E93
:1033D0002C2D4B2D6F2D8EE794E00E94C20EFFEF37
:1033E000CF1ADF0A44E0C416D10489F630929E0455
:1033F00030929F0462E0600F27E0412F8EE794E057
:103400000E94DB0F42E0410F22E0602F8EE794E044
:103410000E94C20E44E0410F22E0602F8EE794E04C
:103420000E94C20E1D5F412F602F8EE794E00E9424
:10343000390210929E0410929F0461E0600F22E016
:10344000412F61C030929E0430929F04712E7C0CFB
:10345000472D6F2D8EE794E00E943902AE2CAC18F8
:103460004A2D6F2D8EE794E00E94390210929E043F
:1034700010929F04BB24B394BF0C2C2D472D6B2DB1
:103480008EE794E00E94C20E2C2D4A2D6B2D8EE704
:1034900094E00E94C20E8FEFC81AD80AFA9494E002
:1034A000C916D10479F630929E0430929F0494E0BC
:1034B000F92EF00E27E0412F6F2D8EE794E00E9449
:1034C000DB0F25E0E22EE00E42E0410F22E06E2D00
:1034D0008EE794E00E94C20E44E0410F22E06E2D80
:1034E0008EE794E00E94C20E1D5F66E0600F412FE0
:1034F0008EE794E00E94390210929E0410929F047D
:1035000022E0412F6F2D8EE794E00E94C20E42CD43
:1035100087E192E00E94E00461E1809117020E943D
:103520003510082F8093170261E0809118020E94E5
:103530003510182F80931802013109F02BCD8130FE
:1035400009F028CD60E070E087E192E00E94CB04B2
:10355000682F81E192E00E94040580912002882377
:1035600009F49ACE81508093200210921C020E948E
:10357000A9108983CE0101960E943905698187E1EE
:1035800092E00E940405109317021093180202CDD6
:1035900087E192E00E94E0040E9464107C01809127
:1035A0001D0290911E02069734F0D70115961C91CA
:1035B000110F1E5F01C012E0F701608180911702B8
:1035C0000E94351080931702D70111966C91610FFC
:1035D000809118020E94351080931802DBCCCF93A3
:1035E000DF93C9EFD1E02697CE010E94130581E059
:1035F000CF3CD807C1F78BE092E00E94130585E02D
:1036000092E00E9413058FEF91E00E94130589EF6D
:1036100091E00E94130581E192E00E94130587EB7F
:1036200094E00E94130587E192E0DF91CF910C9422
:103630001305109281041092800481E191E090932F
:103640007F0480937E046DE087E192E00E941B0579
:1036500064E387EB94E00E941B0564E381E192E060
:103660000E941B056DE089EF91E00E941B056DE053
:103670008FEF91E00E941B056DE085E092E00E94D3
:103680001B056DE08BE092E00E941B0564E18FEC6E
:1036900091E00E941B0564E185ED91E00E941B050D
:1036A00064E18BED91E00E941B0564E181EE91E005
:1036B0000E941B0564E187EE91E00E941B0564E116
:1036C0008DEE91E00E941B0564E183EF91E00E9482
:1036D0001B05E6E2F1E081E08083369691E0EE3C66
:1036E000F907D1F70895CF93DF938230910510F455
:1036F00082E090E0E091BF04F091C00420E030E06F
:10370000C0E0D0E0309711F140815181481759074E
:10371000C0F04817590761F482819381209719F00E
:103720009B838A832BC09093C0048093BF0426C0E0
:103730002115310519F04217530718F49A01BE01FB
:10374000DF01EF010280F381E02DDCCF211531058F
:1037500009F1281B390B2430310590F412968D9114
:103760009C9113976115710521F0FB01938382836E
:1037700004C09093C0048093BF04FD01329644C0FE
:10378000FD01E20FF31F81939193225031092D9394
:103790003C933AC02091BD043091BE04232B41F4E8
:1037A00020910501309106013093BE042093BD04A1
:1037B00020910301309104012115310541F42DB709
:1037C0003EB74091070150910801241B350BE09151
:1037D000BD04F091BE04E217F307A0F42E1B3F0BCB
:1037E0002817390778F0AC014E5F5F4F2417350773
:1037F00048F04E0F5F1F5093BE044093BD04819369
:10380000919302C0E0E0F0E0CF01DF91CF91089505
:103810000F931F93CF93DF93009709F48CC0FC01A3
:103820003297138212820091BF041091C0040115D7
:10383000110581F420813181820F931F2091BD04F5
:103840003091BE042817390779F5F093BE04E09350
:10385000BD0471C0D80140E050E0AE17BF0750F47E
:1038600012962D913C911397AD012115310509F167
:10387000D901F3CF9D01DA01338322836081718105
:10388000860F971F8217930769F4EC01288139810D
:10389000260F371F2E5F3F4F318320838A819B8104
:1038A00093838283452B29F4F093C004E093BF04F3
:1038B00042C01396FC93EE931297ED0149915991F2
:1038C0009E01240F351FE217F30771F48081918167
:1038D000840F951F029611969C938E9382819381FB
:1038E00013969C938E931297E0E0F0E0D801129625
:1038F0008D919C911397009719F0F8018C01F6CFE8
:103900008D919C9198012E5F3F4F820F931F2091C4
:10391000BD043091BE042817390769F4309729F4A3
:103920001092C0041092BF0402C01382128210933E
:10393000BE040093BD04DF91CF911F910F910895B4
:103940008F929F92AF92BF92CF92DF92EF92FF92AF
:10395000CF93DF93EC01688179818A819B81611526
:1039600071058105910521F464E279ED8BE597E01D
:103970002DE133EF41E050E00E94FC1C49015A0167
:103980009B01AC01A7EAB1E40E941B1D6B017C0105
:10399000ACEEB4EFA50194010E94291DDC01CB011E
:1039A0008C0D9D1DAE1DBF1DB7FF03C00197A10962
:1039B000B04888839983AA83BB83BC01CD019F77DC
:1039C000DF91CF91FF90EF90DF90CF90BF90AF90BD
:1039D0009F908F9008950E94A01C089589E091E027
:1039E0000E94A01C08956093090170930A018093BE
:1039F0000B0190930C010895052E97FB1EF4009483
:103A00000E94131D57FD07D00E942E1D07FC03D0F6
:103A10004EF40C94131D50954095309521953F4FD1
:103A20004F4F5F4F089590958095709561957F4FAA
:103A30008F4F9F4F08950E94501DA59F900DB49FDA
:103A4000900DA49F800D911D11240895B7FF0C9433
:103A50001B1D0E941B1D821B930B0895A1E21A2EB1
:103A6000AA1BBB1BFD010DC0AA1FBB1FEE1FFF1F22
:103A7000A217B307E407F50720F0A21BB30BE40B72
:103A8000F50B661F771F881F991F1A9469F76095B9
:103A90007095809590959B01AC01BD01CF01089573
:103AA000A29FB001B39FC001A39F700D811D11247F
:103AB000911DB29F700D811D1124911D08950E94CA
:103AC000D31D88F09F5798F0B92F9927B751B0F0C0
:103AD000E1F0660F771F881F991F1AF0BA95C9F792
:103AE00014C0B13091F00E94ED1DB1E008950C9426
:103AF000ED1D672F782F8827B85F39F0B93FCCF3D9
:103B0000869577956795B395D9F73EF4909580950E
:103B1000709561957F4F8F4F9F4F0895E89409C02E
:103B200097FB3EF490958095709561957F4F8F4FF0
:103B30009F4F9923A9F0F92F96E9BB279395F69506
:103B4000879577956795B795F111F8CFFAF4BB0F84
:103B500011F460FF1BC06F5F7F4F8F4F9F4F16C0E8
:103B6000882311F096E911C0772321F09EE8872F72
:103B7000762F05C0662371F096E8862F70E060E02E
:103B80002AF09A95660F771F881FDAF7880F9695A7
:103B9000879597F9089557FD9058440F551F59F090
:103BA0005F3F71F04795880F97FB991F61F09F3F2A
:103BB00079F087950895121613061406551FF2CF53
:103BC0004695F1DF08C0161617061806991FF1CFA3
:103BD00086957105610508940895E894BB276627CA
:103BE0007727CB0197F908950E94071E0C94781E41
:103BF0000E946A1E38F00E94711E20F0952311F079
:103C00000C94611E0C94671E11240C94EE1D0E94EE
:103C1000CB1D70F3959FC1F3950F50E0551F629F28
:103C2000F001729FBB27F00DB11D639FAA27F00D15
:103C3000B11DAA1F649F6627B00DA11D661F829F3C
:103C40002227B00DA11D621F739FB00DA11D621F21
:103C5000839FA00D611D221F749F3327A00D611D3E
:103C6000231F849F600D211D822F762F6A2F112420
:103C70009F5750409AF0F1F088234AF0EE0FFF1F53
:103C8000BB1F661F771F881F91505040A9F79E3FAA
:103C9000510580F00C94611E0C94EE1D5F3FE4F31F
:103CA000983ED4F3869577956795B795F795E79500
:103CB0009F5FC1F7FE2B880F911D9695879597F909
:103CC000089597F99F6780E870E060E008959FEF9E
:103CD00080EC089500240A941616170618060906A3
:103CE000089500240A941216130614060506089572
:103CF000092E0394000C11F4882352F0BB0F40F4FA
:103D0000BF2B11F460FF04C06F5F7F4F8F4F9F4F39
:103D10000895DB018F939F930E941B1DBF91AF916C
:103D2000A29F800D911DA39F900DB29F900D112415
:103D30000895991B79E004C0991F961708F0961B07
:103D4000881F7A95C9F78095089597FB072E16F47A
:103D5000009407D077FD09D00E94BF1E07FC05D054
:103D60003EF4909581959F4F0895709561957F4F92
:103D70000895EE0FFF1F0590F491E02D0994AA1B02
:103D8000BB1B51E107C0AA1FBB1FA617B70710F046
:103D9000A61BB70B881F991F5A95A9F78095909578
:103DA000BC01CD01089581E090E0F8940C94D81EF8
:103DB00011E0C2EFD1E004C0FE010E94B91E2196BD
:0A3DC000C33FD107C9F7F894FFCF05
:103DCA000100010000C104800001000000000000A1
:103DDA0000E50E8C0C1E021D020D0A004C4F4144D8
:043DEA00455200003E
:00000001FF
