:100000000C94E6020C940E030C940E030C940E0355
:100010000C940E030C940E030C940E030C940E031C
:100020000C940E030C940E030C940E030C94C00A53
:100030000C940E030C940E030C940E030C940E03FC
:100040000C94760A0C940E030C940E030C940E037D
:100050000C940E030C940E030C940E030C940E03DC
:100060000C940E030C940E033520BB206822B3229F
:10007000D922D922F91EC004DD04EC0402050805CA
:100080000E051805260534053E0559056E0585053E
:100090001B071F0738073807380738073F073F0790
:1000A0003F0754075407540754070101FF03010198
:1000B000F703556E646F206C617374206D6F766505
:1000C000005361766520666F72206C617465720002
:1000D00047616D652073746174697374696373003B
:1000E000517569742067616D6500526573756D6542
:1000F0002067616D6500AE00AA00000000002400CA
:1001000027002A0000000000250028002B00050021
:10011000893008023802497868140000EA00E000DB
:10012000D000C100B20045000801000045001801E0
:1001300000004861726420776F6E3A2020202020F2
:10014000004861726420737461727465643A2000BF
:100150004561737920776F6E3A202020202000457A
:1001600061737920737461727465643A20000500CC
:100170006801380100000500380168010000F6E858
:10018000DBCFC3B8AEA49B928A827B746E68625C3C
:1001900057524E4945413E3A3734312E2C292725B6
:1001A00023210A0A153A49676E6F7265006D560A77
:1001B0000A504C45415345205455524E204F464617
:1001C00020004C4F572042415454455259212000A1
:1001D00003053F213F1208120A100A0E1C0E0C1EC6
:1001E0000C141A14161F161E131E1E1B1E1E1F1E75
:1001F0003F213F3A2F3A173D173F213F181F020476
:100200000A041F0E04040E1F0A1F0A0E0E1F0411FB
:100210000E2E252E2F2A2E262929021F02081F08FE
:10022000150E04040E150E15151B151B04060404EB
:100230000C040000000017000300031F0A1F1637FC
:100240001A1904130A153A000300000E11110E00CA
:100250000A040A040E04003000040404001000180C
:1002600004031F111F121F101D151711151F07045E
:100270001F17151D1F151D01011F1F151F17151F06
:10028000000A00003200040A110A0A0A110A0401D5
:1002900015020E11171E051E1F150A0E110A1F1139
:1002A0000E1F15111F05010E111D1F041F111F1117
:1002B00008100F1F041B1F10101F061F1E040F0E17
:1002C000110E1F09060E112E1F051A121509011F06
:1002D000011F101F0F180F1F0C1F1B041B031C03F3
:1002E000191513001F11030418111F000201022029
:1002F00020200001020C121E1F120C0C12120C12F4
:100300001F0C1A14041E05242A1E1F021C141D1083
:1003100020201D1F0814111F101E041E1E021C0C7D
:10032000120C3E0A040C123E1E040214160A020F9E
:10033000120E101E0E100E1E081E120C1226281E63
:10034000322A26041E21001F00211E040102013F43
:10035000213F172B152010204C4F414445520017C8
:100360002B16201314004E65772068617264206795
:10037000616D65004E657720656173792067616DF9
:100380006500175344001613780016131400151057
:10039000200015201000540A03E181867F3E186D6D
:1003A000830F0F0E0183866033186DC3198F1803F6
:1003B000C38E6033186DE330CF1803C39E603630B0
:1003C000CDE360CF3006C79E7E3E30CDB360CF30E8
:1003D0000CC6F6603330D9B660CF33CFCCF660614F
:1003E000B0DB1E60CF30D86CE6C061B0DB1E618F21
:1003F00019986CC6C063B19B0E330F0FB078C6FF5F
:100400007E1F1B061E0F74036603D00040240000ED
:1004100080000124000000848000010400000088A6
:1004200080000104000000908F161D24CE0000A063
:1004300099993325990000C090912125110000A0C1
:10044000909121261F000090909121251000008896
:1004500099913325980000848F111D24CF0000004E
:10046000000000000000000000000000000000107C
:100470001C700E00100000103EF83F801000003885
:100480003EF83F803800007C3FF83F807C0000FE53
:100490003FF9DF70FE0001FF1FF3FFF9FF0003FFCC
:1004A0008FF3FFFBFF8003FF8FE3FFF9FF0003FFE4
:1004B00087C3F5F8FE0001D70381E4F07C0000104B
:1004C000038004003800003801000E00100000FE18
:1004D00001003F801000000000000000000000004C
:1004E000009000400000003C00820000000000443A
:1004F000008200000000004078979C4B38000060AC
:10050000CC92024C64000018849202484400000C13
:1005100084921E487C0000048492224840000044DB
:10052000CC9222486000007878939E483C00000AF4
:100530004E6F2053442063617264206F720A6E6FA5
:10054000204C4F414445522E4845580A0A153A4519
:10055000786974001D20466C617368696E670A20B3
:10056000206C6F616465722E2E2E0A0A444F4E274E
:1005700054205455524E204F4646210000000000A2
:1005800023002600290004040404040404040202D5
:100590000202020203030303030301020408102002
:1005A000408001020408102001020408102000000D
:1005B0000008000201000003040700000000000022
:1005C000000045006801000056252C2511241FBE9F
:1005D000CFEFD8E0DEBFCDBF11E0A0E0B1E0EEE8A4
:1005E000F2E502C005900D92A432B107D9F725E0DB
:1005F000A4E2B1E001C01D92AA31B207E1F712E016
:10060000C5EED2E004C02197FE010E941B29C43E22
:10061000D107C9F70E94A91B0C943A290C94000039
:1006200042E0460F23E0682F86ED94E00C94480BDF
:1006300044E0460F23E0682F86ED94E00C94480BCD
:10064000462F23E0682F86ED94E00C94480B462F4C
:1006500023E0682F86ED94E00C94600C42E0460F96
:1006600023E0682F86ED94E00C94600C42E0460F86
:1006700062E0680F23E086ED94E00C94600CCF9369
:10068000DF93C82FD62F0E9420036D2F8C2F0E943E
:1006900027036D2F8C2F0E9410036D2F8C2F0E942B
:1006A00036036D2F8C2FDF91CF910C941803462FBA
:1006B00062E0680F23E086ED94E00C94600CCF9329
:1006C000DF93C82FD62F0E9427036D2F8C2F0E94F7
:1006D00010036D2F8C2F0E9457036D2F8C2FDF91ED
:1006E000CF910C943603EF92FF920F931F93CF9309
:1006F000DF9300D0CDB7DEB7182F1A8219826AEACD
:10070000CE0101960E94EB1262E472E081E090E07B
:100710000E949B0C60E472E083E090E00E949B0CDE
:100720006EE372E085E090E00E949B0C6CE372E067
:1007300087E090E00E949B0C89E090E09A83898397
:10074000612FCE0101960E94EB121123D1F164E2D8
:1007500071E08AE090E00E94830C6EE471E08BE02F
:1007600090E00E945F0D8C01055F1F4F65E571E011
:10077000C8010E945F0D080F191F95E2E92E91E054
:10078000F92EB701C8010E945F0D080F191F87E0FD
:10079000E80EF11C81E4E81681E0F80691F78FE598
:1007A000E82E81E0F82EB701C8010E945F0D080F06
:1007B000191F87E0E80EF11C80E9E81681E0F806D1
:1007C00091F70F900F90DF91CF911F910F91FF90B4
:1007D000EF90089540E06CE271E08DEA94E00C94B3
:1007E000140B1F93CF93DF93C82F162F861721F179
:1007F000862F90E08C1B910963E070E00E9407292E
:10080000D62F611117C06091F9047091FA0480919C
:10081000FB049091FC0423E030E040E050E00E94B3
:100820009027672B682B692B29F4C11710F0DFEF95
:1008300001C0D1E08D2F8C0FDF91CF911F910895D2
:1008400080914101909142018630910554F48230AB
:100850009105A4F40097E9F00197D1F425E531E082
:100860001AC08D309105A4F4069747E0489F900187
:10087000499F300D1124215A3E4F0DC0029747E089
:10088000489F9001499F300D11242B5D3E4F03C0BE
:1008900008952EE431E0C9010895CF93DF93C0910C
:1008A0003B0287E0C89FE0011124CB5DDE4F8E81C3
:1008B000882309F451C0CE010E9463138093430141
:1008C00088811092440180934501898110924601EC
:1008D000809347010E943A2722E030E040E050E058
:1008E0000E945E27672B682B692B19F4CFEFDFEF8F
:1008F00002C0C1E0D0E00E943A2720E031E040E0B1
:1009000050E00E945E27DC01CB019F5FAF4FBF4FDD
:10091000C89F9001C99F300DD89F300D112430938E
:100920004901209348010E943A2720E032E040E04C
:1009300050E00E945E2771956195710970934B019B
:1009400060934A0180913B0290E001968370992761
:1009500080933B0281E001C080E0DF91CF91089558
:100960000F931F93CF93DF93FA013197ED30F10589
:1009700008F0EDC0D62FC82FE55CFF4F0C941B2963
:1009800011E0180F462F612F86ED94E00E940B13A3
:1009900001E00D0F24E0402F6C2F86ED94E00E94C3
:1009A000600C62E06C0F24E0402F86ED94E00E9422
:1009B000600C42E04D0F612F89C00E9420036D2F13
:1009C0008C2F0E9457036D2F8C2F0E9410036D2FC8
:1009D0008C2F0E942E030EC00E9420036D2F8C2F9F
:1009E0000E9457036D2F8C2F0E9410036D2F8C2FA8
:1009F0000E9436036D2F8C2FDF91CF911F910F91A5
:100A00000C941803DF91CF911F910F910C945F0309
:100A1000DF91CF911F910F910C943F030E943F03F0
:100A20006D2F8C2FDF91CF911F910F910C942E037E
:100A30000E9420036D2F8C2F0E9457036D2F8C2F47
:100A4000DF91CF911F910F910C9436030E943F03C9
:100A50006D2F8C2F0E942E036D2F8C2FDF91CF9145
:100A60001F910F910C9457030E945F036D2F8C2FE1
:100A7000DF91CF911F910F910C9420030E942003CE
:100A80006D2F8C2F0E9457036D2F8C2F0E943603E1
:100A90006D2F8C2F0E9418036D2F8C2F0E942E0318
:100AA0006D2F8C2F0E9427036EEF6C0F25E04D2FCA
:100AB00046C00E9457036D2F8C2F0E9436036D2F66
:100AC0008C2F0E94180343E04D0F6C2F86ED94E0AD
:100AD000DF91CF911F910F910C940B130E94200373
:100AE0006D2F8C2F0E9457036D2F8C2F0E94270390
:100AF00043E04D0F23E06C2F86ED94E00E94480BFD
:100B000044E04D0F61E06C0FE1CF0E9427036D2F91
:100B10008C2F0E942E0342E04D0F61E06C0F86ED9A
:100B200094E00E940B13CE5F22E04D2F6C2F86EDD8
:100B300094E00E94600C43E04D0F22E06C2F86EDA4
:100B400094E0DF91CF911F910F910C94600CDF9195
:100B5000CF911F910F9108950F931F93CF93DF9320
:100B6000082FC62F4130510509F449C00CF5452B1B
:100B700009F0ADC0D2E0D80F462F6D2F86ED94E07E
:100B80000E940B1341E04C0F61E0600F23E086ED03
:100B900094E00E94480B42E04C0F25E0602F86ED68
:100BA00094E00E94480B43E04C0F25E0602F80C08A
:100BB0004230510509F450C04330510509F087C057
:100BC000D2E0D80F462F6D2F86ED94E00E940B13D4
:100BD00011E0100F41E04C0F23E0612F86ED94E00F
:100BE0000E94480B42E04C0F25E0602F86ED94E018
:100BF0000E94480B43E04C0F23E0612F59C0D1E025
:100C0000D80F23E0462F6D2F86ED94E00E94480B0D
:100C100042E04C0F23E06D2F86ED94E00E94480BDC
:100C2000CF5F23E04C2F602F86ED94E00E94600C94
:100C300064E0600F23E04C2F86ED94E00E94600C8E
:100C400062E0600F24E04C2F86ED94E0DF91CF91BD
:100C50001F910F910C94600CD1E0D80F462F6D2F8F
:100C600086ED94E00E940B1363E0600F4C2F86ED3D
:100C700094E00E940B1341E04C0F25E0602F86EDBD
:100C800094E00E94480B42E04C0F25E0602F86ED77
:100C900094E00E94480B43E04C0F23E06D2F86ED5B
:100CA00094E00E94480B44E04C0F62E0600F07C0E4
:100CB00086ED94E00E94480B44E04C0F6D2F86EDCA
:100CC00094E0DF91CF911F910F910C940B13DF9162
:100CD000CF911F910F910895CF92DF92EF92FF92E3
:100CE0000F931F93CF93DF931F92CDB7DEB7E82EFC
:100CF000F62E142F498347FF02C083E001C080E035
:100D00008093F6048093F7040CE028E0DD24D3946C
:100D1000DF0C4D2DCC24C394CE0C6C2D86ED94E0CD
:100D20000E946B0B81E08093F6048093F70428E027
:100D30004F2D6C2D86ED94E00E94480B28E04DE08D
:100D40004F0D6C2D86ED94E00E94480B2CE04D2D4C
:100D50006E2D86ED94E00E94600C2CE04D2D69E034
:100D60006E0D86ED94E00E94600C17FD23C0CE014D
:100D700001960E940C17882329F083E08093F604E3
:100D80008093F704412F50E084E0559547958A956C
:100D9000E1F74370552762E06F0D82E08E0D0E94EF
:100DA000AC051F70412F50E067E06F0D85E08E0DA0
:100DB0000E94B0040F90DF91CF911F910F91FF908F
:100DC000EF90DF90CF900895FC01828141818823CC
:100DD00011F06A3010F0842F089596819A3018F43B
:100DE000292F30E002C02AE030E0261B31092150D3
:100DF0003109220F822F840F0895CF92DF92EF9254
:100E0000FF920F931F93CF93DF931F92CDB7DEB75F
:100E10007C018B016A010E942004DC01E091410108
:100E2000F0914201ED30F10508F053C0E85BFF4F4F
:100E30009C910C941B29965FF701908315C0169620
:100E40002C91169730E02115310539F02430310509
:100E500034F421503109220F03C020E001C024E006
:100E6000965F290FF701208311968C918C5F17C034
:100E70009750F701908311968C918C5F25C0965FF7
:100E8000F701908360915C01662311F02EEF01C0A1
:100E900024E0CD0129830E94E4062981820FF80114
:100EA0008083F601108215C09750F70190836091FE
:100EB0005C01662311F02EEF01C024E0CD012983EF
:100EC0000E94E4062981820FF801808381E0F60107
:100ED00080830F90DF91CF911F910F91FF90EF9042
:100EE000DF90CF900895EF92FF920F931F93CF93CF
:100EF000DF937C01FC01C681D0E0CA30D10514F03B
:100F00002A9702C0C0E0D0E000E010E0F70166815F
:100F10006A3018F4862F90E002C08AE090E008174B
:100F20001907B4F470E0601B710B615071096C1B00
:100F30007D0BC7010E947613602F660FF701918128
:100F4000690F482F80810E946C060F5F1F4FDECF14
:100F5000DF91CF911F910F91FF90EF900895DF9255
:100F6000EF92FF920F931F93CF93DF9380915401E1
:100F7000882339F041E860914F0180914E010E9431
:100F80006C06C0E0D0E060915B01643008F04FC0B7
:100F900070E0C617D707ACF46C1B7D0B615071096C
:100FA00085E591E00E9476132C2F220F9091550138
:100FB000482F60915601822F890F0E946C0621965E
:100FC000E2CFC5E2D1E000E010E083E0D82EC80116
:100FD0008B5D9E4F7C01FC018681882361F060E07F
:100FE00070E0CE010E947613482FF701618188815D
:100FF0000E946C060BC0D092F604D092F7042EE04B
:101000004AE0F701618188810E94B717095F1F4F8D
:1010100027960C311105D9F6CFE5D1E0CE010E941B
:1010200073072796F1E0C039DF07C1F706C0C33068
:10103000D1053CF663E070E0AFCFDF91CF911F9117
:101040000F91FF90EF90DF90089580912B018D30EC
:1010500061F5809132018D3041F5809139018D30FB
:1010600021F5809140018D3001F586E090E090936C
:1010700001018093000180912401813051F480911D
:101080004002909141020196909341028093400268
:1010900009C080913C0290913D02019690933D02DF
:1010A00080933C0280E00C9473030895CF92DF920A
:1010B000EF92FF920F931F93CF93DF936C017A010E
:1010C0008B01C0E0D0E0CE15DF0589F0D8016D912D
:1010D0008D01D601ED91FC910190F081E02DC601CA
:1010E0000995892B11F47E0102C02196ECCFC7012E
:1010F000DF91CF911F910F91FF90EF90DF90CF90F4
:1011000008950E943529DC01ED91FC910190F08158
:10111000E02D0994EF92FF920F931F93CF93DF93EB
:101120008C017B01C0E0D0E0F701EC0FFD1F649162
:10113000662361F0D801ED91FC910190F081E02DE2
:10114000C8010995892B11F02196EECFCE01DF91D0
:10115000CF911F910F91FF90EF9008956115710548
:1011600079F0FB0101900020E9F73197AF01461BB0
:10117000570BDC01ED91FC910280F381E02D099485
:1011800080E090E008954F925F926F927F92EF928D
:10119000FF920F931F93CF93DF93CDB7DEB7A19745
:1011A0000FB6F894DEBF0FBECDBF7C01FA01CB01B4
:1011B00019A2223008F42AE08E010F5D1F4F422E43
:1011C000512C612C712CBF01A30192010E94902728
:1011D000F901CA01015011096A3014F4605D01C0BF
:1011E000695CD8016C93232B242B252B61F7B80164
:1011F000C7010E94AE08A1960FB6F894DEBF0FBEDD
:10120000CDBFDF91CF911F910F91FF90EF907F9015
:101210006F905F904F900895833081F028F4813073
:1012200099F08230A1F008958730A9F08830B9F0A4
:101230008430D1F4809180008F7D03C08091800044
:101240008F7780938000089584B58F7702C084B52E
:101250008F7D84BD08958091B0008F7703C0809109
:10126000B0008F7D8093B00008951F93CF93DF93DC
:10127000282F30E0F901E255FA4F8491F901E65642
:10128000FA4FD491F901EA57FA4FC491CC23C9F02F
:10129000162F81110E940C09EC2FF0E0EE0FFF1FBA
:1012A000EC5FFE4FA591B4918FB7F894111105C072
:1012B0009C91ED2FE095E92302C0EC91ED2BEC938E
:1012C0008FBFDF91CF911F910895CF93DF9390E06F
:1012D000FC01E656FA4F2491FC01EA57FA4F84913B
:1012E000882361F190E0880F991FFC01E650FF4FC1
:1012F000C591D491FC01EC5FFE4FA591B4916111B1
:1013000009C09FB7F8948881209582238883EC9147
:101310002E230BC0623061F49FB7F8943881822F7E
:10132000809583238883EC912E2B2C939FBF06C03E
:101330008FB7F894E8812E2B28838FBFDF91CF9150
:1013400008951F93CF93DF93182FEB0161E00E9464
:101350006509209711F460E004C0CF3FD10539F44E
:1013600061E0812FDF91CF911F910C943509E12F1E
:10137000F0E0E255FA4FE491E330F9F048F4E1305F
:10138000B9F0E230A1F584B5806284BDC8BD34C037
:10139000E730E9F0E83019F1E43049F58091800058
:1013A000806280938000D0938B00C0938A0024C019
:1013B00084B5806884BDC7BD1FC0809180008068EF
:1013C00080938000D0938900C093880015C08091DD
:1013D000B00080688093B000C093B3000DC08091CE
:1013E000B00080628093B000C093B40005C0C038E4
:1013F000D1050CF0B5CFAFCFDF91CF911F910895FC
:101400008E3008F08E508770806480937C008091CD
:101410007A00806480937A0080917A0086FDFCCF08
:10142000809178002091790090E0922B08953FB749
:10143000F8948091460290914702A0914802B091A1
:10144000490226B5A89B05C02F3F19F00196A11DA2
:10145000B11D3FBFBA2FA92F982F8827820F911D4A
:10146000A11DB11DBC01CD0142E0660F771F881F91
:10147000991F4A95D1F708958F929F92AF92BF928C
:10148000CF92DF92EF92FF926B017C010E94170ACC
:101490004B015C01C114D104E104F104F1F00E949C
:1014A000170ADC01CB0188199909AA09BB09883EF2
:1014B0009340A105B10570F321E0C21AD108E108FB
:1014C000F10888EE880E83E0981EA11CB11CC1149F
:1014D000D104E104F10419F7DDCFFF90EF90DF9024
:1014E000CF90BF90AF909F908F9008951F920F92D2
:1014F0000FB60F9211242F933F938F939F93AF9327
:10150000BF9380914F0290915002A0915102B091EF
:1015100052023091450223E0230F2D3720F401962B
:10152000A11DB11D05C026E8230F0296A11DB11D06
:101530002093450280934F0290935002A093510252
:10154000B09352028091460290914702A0914802C6
:10155000B09149020196A11DB11D8093460290935E
:101560004702A0934802B0934902BF91AF919F9167
:101570008F913F912F910F900FBE0F901F90189554
:101580001F920F920FB60F9211242F936F937F9398
:101590008F939F9360914C02662359F1809144028E
:1015A0008F5F8093440290914D02891710F1209132
:1015B0004A0281E0282720934A0210924402809137
:1015C0004E02882369F08091020193E4899F802D67
:1015D0001124895B809302010E94FB2890934B02A7
:1015E000222329F080914B028093B40002C080E056
:1015F000FBCF9F918F917F916F912F910F900FBE95
:101600000F901F901895FC0161110DC0178A158A63
:1016100014A213A2108E10924B0210924C02109240
:101620004A021092B4000895EF92FF920F931F9315
:10163000CF93DF931F92CDB7DEB77C018B014111B1
:1016400005C060E049830E94030B498150E0FA0124
:10165000EE0FFF1FEE0DFF1D16870587DA011996A5
:10166000AA0FBB1FAE0DBF1D1D921C92F701E40F08
:10167000F51F81E0818389E0868B118E138E158E94
:101680000F90DF91CF911F910F91FF90EF900895F0
:10169000DF92EF92FF920F931F93CF93DF931F92EE
:1016A000CDB7DEB78C01D62EF42EE12CE21654F421
:1016B0006E2D6D0D4F2DC80129830E940B13E394ED
:1016C0002981F4CF0F90DF91CF911F910F91FF905F
:1016D000EF90DF900895DF92EF92FF920F931F93A8
:1016E000CF93DF937C01D62FD22EC42F002E000C77
:1016F000110B040F111D47FD1A954C2F0C2E000CD9
:10170000550B4017510744F42D2D4C2F6D2FC70159
:101710000E94480BCF5FF1CFDF91CF911F910F91C6
:10172000FF90EF90DF9008956F927F928F929F923B
:10173000AF92BF92CF92DF92EF92FF920F931F93DF
:10174000CF93DF93EC016A3019F42D819885A1C005
:101750006D3009F4A4C01885BA84D98488A083E5C3
:101760008D150CF47FC08FE28B150CF47BC08C813F
:1017700090E00197189F9001199F300D1124C90125
:101780008D0D911DD7FC9A95181619060CF06AC09C
:101790008D81819FC00111248B0D911DB7FC9A95FD
:1017A000181619060CF05EC09D2CCD2CE62EF12CDF
:1017B000EC2DED190E2E000CFF0B8C8190E0E8173C
:1017C000F9070CF04EC00197E817F90779F0E89E89
:1017D0009001E99E300DF89E300D1124E20FF31FA9
:1017E0008E8D9F8DE80FF91F749001C0712C6B2CAA
:1017F000AB2C2A2D2B19022E000C330B8D8190E07F
:10180000281739075CF570FE10C0113031F44A2DED
:101810006C2DCE010E940B131DC0012F212F462DD0
:10182000692DCE010E946B0B15C089A198A1891763
:1018300089F088A3113031F44A2D6C2DCE010E941D
:101840000B1307C0012F212F462D692DCE010E94B9
:101850006B0B88A27694A394610ECBCFC394910EA8
:10186000A7CF88A228853C818985329F800D1124CD
:1018700089879F81992399F0082E000C990B44E5E4
:1018800050E0239F401951091124481759073CF48F
:101890009D818A85299F800D11248A87198681E080
:1018A00090E0DF91CF911F910F91FF90EF90DF902B
:1018B000CF90BF90AF909F908F907F906F90089542
:1018C000DF92EF92FF920F931F93CF93DF931F92BC
:1018D000CDB7DEB78C01D62EF42EE12CE21654F4EF
:1018E0004E2D4F0D6D2DC80129830E940B13E394DB
:1018F0002981F4CF0F90DF91CF911F910F91FF902D
:10190000EF90DF9008950F931F93CF93DF9300D054
:10191000CDB7DEB78B01FB0160819A838983CE014D
:1019200001960E94EB12C8010F900F90DF91CF91AA
:101930001F910F910895EF92FF920F931F93CF93F2
:10194000DF9300D0CDB7DEB78C017B01FB01608156
:101950009A838983CE0101960E94EB12F70161817F
:101960000F5F1F4F1A830983CE0101960E94EB126D
:10197000C7010F900F90DF91CF911F910F91FF90B2
:10198000EF9008950F931F93CF93DF938C01EB019A
:101990000E9448278883C80101960E9448278983AE
:1019A000CE01DF91CF911F910F9108950F931F9357
:1019B000CF93DF931F92CDB7DEB78B010E946313E5
:1019C0008983CE0101960E94C0136981C8010E94DB
:1019D0008B130F90DF91CF911F910F9108950E946B
:1019E000A80D8823E1F31092DF041092E0046FE564
:1019F00071E086ED94E00E948A0880914202909105
:101A000043020E94151860E571E086ED94E00E94A3
:101A10008A0880914002909141020E94151861E469
:101A200071E086ED94E00E948A0880913E029091D8
:101A30003F020E94151862E371E086ED94E00E9477
:101A40008A0880913C0290913D020E941518809175
:101A50009D04813049F080919E04813029F080916D
:101A60009F04813009F0BBCF0895DF92EF92FF927F
:101A70000F931F93CF93DF93EC017B01FB01168241
:101A80000E944827D82E21968E01802F8C1B8D1501
:101A900050F4C8010E944827682FC7010E948B1389
:101AA0000F5F1F4FF2CFF701858190E00196DF9124
:101AB000CF911F910F91FF90EF90DF900895CF92FB
:101AC000DF92EF92FF920F931F93CF93DF9300D09B
:101AD000CDB7DEB77C018B01FB0186818983BE0116
:101AE0006F5F7F4FC7010E94830CC12CD12CFFEF89
:101AF000EF1AFF0AF801858190E0C816D906E4F4D0
:101B0000F801268130E0C216D30694F42C193D0961
:101B1000B90161507109C8010E94761397012C0D1B
:101B20003D1D3A832983682FCE0101960E94EB1256
:101B3000FFEFCF1ADF0ADECF01960F900F90DF91F3
:101B4000CF911F910F91FF90EF90DF90CF9008956C
:101B50004F925F926F927F928F929F92AF92BF92BD
:101B6000CF92DF92EF92FF920F931F93CF93DF9369
:101B700000D000D0CDB7DEB74091080550910905DF
:101B800060910A0570910B052FB7F89480914F0270
:101B900090915002A0915102B09152022FBF481B68
:101BA000590B6A0B7B0B8091070590E0A0E0B0E039
:101BB000C0900305D0900405E0900505F09006055F
:101BC00084179507A607B70730F4C114D104E104C0
:101BD000F10409F0FFC2CD28CE28CF2809F0F8C2C1
:101BE00080919F0481508E3F08F580919E04813042
:101BF00011F58091B2048F5F6091B30487FD09C035
:101C0000082E000C990B70E06F5F7F4F0E94072930
:101C1000682F6093B2048FE593E090930D05809355
:101C20000C0588E480930E050E944E1880919F0455
:101C300081508E3F70F480919D04813009F076C30D
:101C400082E593E090930D0580930C0588E48093E2
:101C50000E0580E00E9452198091AE04882309F499
:101C6000ADC08091C2048111A9C08091BA04909145
:101C7000BB04E091BF04F091C004EE0FFF1FE80F1A
:101C8000F91F459154914115510501F52091BE046C
:101C9000222331F01092C0041092BF04FC0114C042
:101CA0001092AE048091AD04882341F080E00E9440
:101CB0005219E091BF04F091C0042FC060E08DEA9A
:101CC00094E00E94030B7AC0459154919A01369595
:101CD00027953695279540FF51C0CA01B6E09695E5
:101CE0008795BA95E1F78F71952F9695969596956C
:101CF00090512F70223071F1F8F4211117C08B3000
:101D000008F08AE08093C304E091BF04F091C0041E
:101D10003196F093C004E093BF04EE0FFF1F809153
:101D2000BA049091BB04E80FF91FCECF213061F7C0
:101D300060E00E949319E8CF2330B1F0243021F7FE
:101D40002091B104829F802D11248093CA04909326
:101D5000CB04DACF2091B104829F802D112480938F
:101D6000C6049093C704D0CF2091B104829F802DE8
:101D700011248093C8049093C904C6CF2F73209375
:101D8000C1048091B104859F802D11248093C204E9
:101D90001092D2041092D1041092D00481E080936A
:101DA000C40480934A021092C5048091BF049091AC
:101DB000C00401969093C0048093BF048091C40432
:101DC000882309F4F3C08091C204811106C060E049
:101DD0008DEA94E00E94030BE9C081508093C20415
:101DE0008091D204811148C02091D0043091D10457
:101DF0002F5F3F4FC901880F991FE091CC04F091EC
:101E0000CD04E80FF91F65917491862F8770809338
:101E1000D304AB0163E0569547956A95E1F7CA0193
:101E200096958795972F969596959093D4048F7352
:101E30009091B104899F802D11248093D204417028
:101E400040934E023093D1042093D0048091CE046D
:101E500090E02817390780F02091CF04222339F031
:101E6000821B91099093D1048093D00405C060E057
:101E70008DEA94E00E94030B8091D20481508093FC
:101E8000D2048091C50421E0280F2093C50440911D
:101E9000C1043091D404340F8091B904380F3093C9
:101EA000AF046091C804662371F070E0822F022EA7
:101EB000000C990B0E9407298091C904869F300D60
:101EC00011243093AF048091AF0490E0849664E2D3
:101ED00070E00E9407298093AF043091C3043093CF
:101EE000B0046091C604662381F0062E000C770BC7
:101EF000822F022E000C990B0E9407298091C704A3
:101F0000869F300D11243093B0046091CA0466237B
:101F1000A1F0822F220F990B70E00E940729CB01BC
:101F200062E070E00E9407292091CB049091B004F8
:101F3000289F900D11249093B0048091B0044F33EA
:101F400041F08A300CF089E087FD80E08093B00496
:101F500002C01092B004F894E091AF04F0E0E258AF
:101F6000FE4FE491E0934D023091B0042091D504EE
:101F70003203900111244091D3044203C001439FD6
:101F8000900D11240090B20402C0880F991F0A948A
:101F9000E2F797FF02C081589F4F880F892F881F53
:101FA000990B80934C0280934B02789480910E059C
:101FB000882309F452C08C3020F49CE0D92ED81A22
:101FC00001C0D12CEE24E394E092DE041092F604DA
:101FD0001092F7041091DB043DE2F32ECF2CC11ACE
:101FE000CD0C03E0010F2EE44C2D63E086ED94E070
:101FF0000E946B0B145003E00C0D212F41E0602F69
:1020000080E50E940C1A212F42E0602F83E00E949D
:102010000C1AE092F604E092F7048091DB0463E08E
:10202000680FF81A8F2D8D0D0E94CE1984E08093D1
:10203000DF048091DB04D81A8D2D815D8093E0044C
:1020400060910C0570910D0586ED94E00E948A0860
:1020500080910E05815080930E058091A40490918B
:10206000A504892B09F48CC011E01093F60410929A
:10207000F7049091DA0485E5891B8093DF041092C0
:10208000E0046091A104613009F45BC030F08091FC
:10209000A004653008F06DC068C060E08DEA94E08F
:1020A0000E94030B1092AE041093DE04E0EDF1E009
:1020B000E491EF5FE093DA04E1EDF1E0E491EF5FAA
:1020C000E093DB0482ED91E09093F5048093F404B7
:1020D0001092A5041092A4041092DC0418EA0E9445
:1020E000A80D8823E1F362EC71E086ED94E00E9494
:1020F0008A084091A2045091A30460E070E02AE0B5
:1021000086ED94E00E94C3086DEA71E086ED94E0EC
:102110000E948A08412F42954F7050E060E070E0C5
:102120002AE086ED94E00E94C30862EA71E086ED41
:1021300094E00E948A0880919D04813009F0FCC0DF
:102140001FC08091F9049091FA04A091FB04B09112
:10215000FC048F709927AA27BB270897A105B10512
:1021600010F467E009C068E707C0882349F06B5F97
:1021700003C0882329F06FE286ED94E00E94830873
:102180000E94C8188091DC0481110EC088EF91E094
:10219000E4E5F2E0DF019C011D9221503040E1F7BF
:1021A0001092DF041092E0040E94170A6093030566
:1021B0007093040580930505909306052091FF0414
:1021C00030910005621B730B7093FE046093FD0455
:1021D00080E0CCC02FB7F89480914F0290915002CC
:1021E000A0915102B09152022FBF20910705820F9A
:1021F000911DA11DB11D8093080590930905A09321
:102200000A05B0930B058091F9049091FA04A0910E
:10221000FB04B091FC040196A11DB11D8093F9044B
:102220009093FA04A093FB04B093FC04109203056E
:102230001092040510920505109206050E94170AD7
:102240006093FF047093000580930105909302054D
:102250008091890490918A042FE0289F8001299F12
:10226000100D112485E10E94000A800F911F24E0C7
:10227000969587952A95E1F790938A04809389042F
:1022800020918804222309F44BC060918C04262FEE
:1022900030E040E050E029833A834B835C83C09078
:1022A0008D04D12CE12CF12C40919004509191049B
:1022B0004A01A12CB12C20918E0430918F04290168
:1022C000612C712C8217930728F09C01481759073D
:1022D00008F49A01C901A0E0B0E09C01AD01241905
:1022E00035094609570969817A818B819C816C196E
:1022F0007D098E099F090E94EB28A50194012419EC
:102300003509460957090E945E27C20ED31EE41EF6
:10231000F51EC0928B046C2D70E085E00E94A1092F
:102320000E9455180E946F1A81E020C0893209F07E
:1023300090CC0E941B198DCC115009F0D0CE60E0DA
:1023400070E085E00E94A10983B7817F846083BF2C
:1023500083B7816083BF83B7816083BF889583B76C
:102360008E7F83BF83B78E7F83BFB9CE0F900F90D0
:102370000F900F90DF91CF911F910F91FF90EF90F1
:10238000DF90CF90BF90AF909F908F907F906F9095
:102390005F904F9008952F923F924F925F926F926D
:1023A0007F928F929F92AF92BF92CF92DF92EF92E5
:1023B000FF920F931F93CF93DF9300D000D01F9213
:1023C000CDB7DEB7382E292EB62E1092DC042FEFB3
:1023D0002A8319821C8200E31D82662E712C8FEFE6
:1023E000860F8B83AA24A3940E94A80D8823E1F36F
:1023F00080919D04002E000C110B8130A1F1909171
:102400009E04913081F180919F04813009F4B6C01F
:10241000998191113CC080919C048F3F21F0837081
:10242000813009F49FC080919A048F3F21F083701E
:10243000813009F49DC0ED818E2F0E2E000C990B7A
:102440008615970529F0E7FF04C0FB81FD8301C0D5
:102450001D828091DB0494E0980F2D81829F90195A
:1024600011249C831FC09091DB0491959B9D902D1E
:10247000112492509C83813009F088C040E066E7C7
:1024800071E08DEA94E00E94140B2D812A83C8012B
:10249000EC818E1B9109E7FD939502970CF47EC0A9
:1024A000F1E0F9832C81020F111D27FD1A9517FF0A
:1024B00002C00F5F1F4F7801F594E7941E2D0E2D7B
:1024C0001092DF04E092E004A092DE041092DD049A
:1024D000C32CD22C812C912C8D81482E880F55082D
:1024E00086149704D9F08414950461F493E09093D2
:1024F000DF048091DB04E12FFD81F89FE00D1124C2
:10250000E093E004F601859194910E9408192FEF61
:10251000821A920A82E0C80ED11CE2CF1092F60411
:102520001092F7048091DB044E2D9D81989F400D01
:102530001124415024E560E086ED94E00E94480BB0
:10254000A092F604A092F7048091DB0463E0680F88
:10255000EE2DFD81F89FE00D11248E2F82500E94F8
:10256000CE1942CF8D818F5F8D830E944E185BCF35
:102570009D8191509D830E944E185DCF8091DB0418
:1025800081958B9D802D112482508C8340E06EE6D6
:1025900071E08DEA94E00E94140B79CF8A810F904C
:1025A0000F900F900F900F90DF91CF911F910F918F
:1025B000FF90EF90DF90CF90BF90AF909F908F9063
:1025C0007F906F905F904F903F902F900895089567
:1025D00080E090E00895EF92FF920F931F93CF93C6
:1025E000DF931F92CDB7DEB77C01FC010081118122
:1025F000C80169830E9448276981681719F0C801DA
:102600000E945027C7010F90DF91CF911F910F912A
:10261000FF90EF900895FC01643508F053C04033FB
:1026200008F050C090A1742F759575957595262F5B
:10263000062E000C330B542F57709230A1F4F90181
:10264000EC5AFD4F84E57802E00DF11D11248081E4
:1026500090E0052E02C0959587950A94E2F7809543
:10266000982F91700AC0933041F484858170462779
:1026700040954170841303C014C0911112C084E5C9
:102680007802200D311D1124F901EC5AFD4F81E033
:1026900090E001C0880F5A95EAF7809590818923D0
:1026A00010C084E57802200D311D1124F901EC5A87
:1026B000FD4F81E090E001C0880F5A95EAF79081C4
:1026C000892B80830895DC0116969C911697992397
:1026D00059F01396ED91FC911497915016969C9396
:1026E000E90FF11D8081089581E00895DC011696BF
:1026F0002C91169730E0621773075CF4261B370B9A
:102700001396ED91FC911497E20FF31F319780819E
:10271000089581E00895FC0126818581281748F4F9
:102720008381948131E0320F3683FC01E20FF11D89
:1027300060830895FC0183819481009711F00C94CB
:10274000542608950F931F93CF93DF938C01FC01C0
:1027500016826583C62FD0E0CE010E94BF25FC0102
:10276000C80FD91F21E0EC17FD0711F02193FBCF13
:10277000F80194838383DF91CF911F910F91089586
:10278000FC01908197FF02C09F7701C09068908301
:102790000895DF92EF92FF920F931F93CF93DF93F1
:1027A0001F92CDB7DEB700E010E0D12CC801815AEE
:1027B0009E4F7C01FC018681882381F0C7010E9425
:1027C0006313898387FF06C0CE0101960E94C01360
:1027D000DD24D3946981C7010E948B13095F1F4FC9
:1027E0000133110519F70E94250810925C01AE0112
:1027F0004F5F5F4F6DE571E08EE591E00E94FD0651
:102800008D2D0F90DF91CF911F910F91FF90EF9041
:10281000DF9008951F93CF93DF9300D000D01F92D5
:10282000CDB7DEB70E94200420914C0130914D01BC
:102830003B832A839D838C83109115051F70198318
:102840000E949E1781E090E0909301018093000127
:102850000E94C913882311F01068198349815A8195
:102860006B817C818D810E94E3170F900F900F90F8
:102870000F900F90DF91CF911F9108952F923F926B
:102880004F925F926F927F928F929F92AF92BF9280
:10289000CF92DF92EF92FF920F931F93CF93DF932C
:1028A000CDB7DEB7E5970FB6F894DEBF0FBECDBF4C
:1028B0004EE2842E45E0942ECE0101967C0181E00B
:1028C0008093DC049091F804992309F4BDC08093AF
:1028D000DE041092DD041092DC041092A0048093B8
:1028E000F6048093F7040E94A80D8823E1F3F40115
:1028F0008491882319F01091DB0401C010E066E98F
:1029000073E080E00E94AC1A6CE074E08CE0810F10
:102910000E94AC1A1092DF04FCE0F093E0046EE237
:1029200075E086ED94E00E948A088091DA04982F81
:10293000990F890F81958D5A8093DF048091DB0474
:10294000982F990F890F8195835D8093E004809182
:10295000F90484FF03C082E993E002C08EE893E0AB
:102960000E9408198091DA04982F990F890F819598
:102970008D5A8093DF048091E0048F5F8093E004A0
:102980008091B204882319F08AE893E002C086E8B7
:1029900093E00E9408198091DA04982F990F890F0B
:1029A00081958D5A8093DF048091E0048F5F80933E
:1029B000E00482E893E00E94081980919E0481302F
:1029C000A1F48091B2048F5F6091B30487FD09C0C8
:1029D000082E000C990B70E06F5F7F4F0E94072953
:1029E000682F6093B2040E944E1880919D0481303C
:1029F000B9F08091F804482F50E060E070E0009159
:102A0000F9041091FA042091FB043091FC0404179E
:102A100015072607370708F4DEC18F3F09F4DBC12D
:102A20008FEF8093F80460E08DEA94E00E94030B3E
:102A30001092AE0440E066E771E08DEA94E00E94F7
:102A4000140B81E08093A0044090A2045090A30452
:102A500040945094612C712C0E94170A5B016C0108
:102A60000E94170AA6019501209530954095509532
:102A700060957095809590950E94EB289B01AC0124
:102A8000C301B2010E94EB285B016C0140908904F4
:102A900050908A04612C712C0E94170ADC01CB0132
:102AA000840D951DA61DB71DBC01CD016A0D7B1DB2
:102AB0008C1D9D1D611571058105910511F00E9408
:102AC0003F271092A004F701CE01C39610823596DD
:102AD000E817F907D9F71CAA1BAA84E3F701A4E5B4
:102AE000B4E001900D928A95E1F7109242011092A4
:102AF000410110925C018BE080935E0184E0809341
:102B00005D0110925B0110925401C12CD12CC601C1
:102B100034E0880F991F3A95E1F7082F006811E01B
:102B2000612F602B8EE491E00E948B131F5F1E309B
:102B3000B9F72FEFC21AD20A84E0C816D10439F7C8
:102B400000E010E02091540130E0021713077CF5FB
:102B50006901C01AD10A49F00E943A279601DD0C9A
:102B6000440B550B0E945E2703C060E070E0CB0170
:102B70002091510130915201F901E60FF71F908128
:102B8000A0915401B0E0A01BB10BA20FB31F11978D
:102B90008C91808380915401E82FF0E0E01BF10BD1
:102BA000E20FF31F319790830F5F1F4FCBCF10922F
:102BB0002B0110923201109239011092400180E0F5
:102BC00090E0FC01E15AFE4F168207968133910591
:102BD000C1F7109238029FE5C92E91E0D92E360137
:102BE00000E010E026E0222E302E330C2801A12C2C
:102BF000B12C8EE491E00E9463138DAB0415150592
:102C000021F4CE01C5960E94C01340913802D7012D
:102C1000E22D1D92EA95E9F7F1E0F983249EC001C7
:102C2000112480579E4FF701DC01322D01900D9247
:102C30003A95E1F7E1E0DC011296EC9312971396D6
:102C40001C921397F301EA0DFB1D308114963C93FF
:102C500014973181330D15963C93159711964C922C
:102C600011973DA93C9381E0840F80933802FFEFD8
:102C70004F1A5F0A27E0A20EB11C87E048165104E4
:102C800009F0B7CF0F5F1F4F97E0690E711C073037
:102C9000110509F0A9CF109238021092010110928B
:102CA000000180E090E00E9448278A3A09F05AC06B
:102CB00062E472E081E090E00E94C20C60E472E0A5
:102CC00083E090E00E94C20C6EE372E085E090E049
:102CD0000E94C20C6CE372E087E090E00E94C20C9C
:102CE00089E090E00E9448278823D1F181E0809319
:102CF00053028AE090E00E944827809324016EE40A
:102D000071E08BE090E00E94350D8C01055F1F4F54
:102D100065E571E0C8010E94350D080F191F85E2B5
:102D2000A82E81E0B82EB501C8010E94350D080F0C
:102D3000191FA7E0AA0EB11CB1E4AB16B1E0BB06A7
:102D400091F7B601C8010E94350D080F191FE7E081
:102D5000CE0ED11CF0E9CF16F1E0DF0691F702C0EC
:102D60001092530280915302882361F080E00E9408
:102D7000730381E090E0909301018093000133C0E0
:102D80000E94EF0C63E086E094E00E94CB118F3F3D
:102D900009F495CD81110DC081E0809324018091CB
:102DA0004202909143020196909343028093420223
:102DB0000EC0813029F783E08093240180913E0288
:102DC00090913F02019690933F0280933E0280E0F3
:102DD0000E94730308C080919F04813009F083CD65
:102DE0000E941B1980CDE5960FB6F894DEBF0FBE8A
:102DF000CDBFDF91CF911F910F91FF90EF90DF90AA
:102E0000CF90BF90AF909F908F907F906F905F908A
:102E10004F903F902F900895FC01208130E084E096
:102E2000359527958A95E1F72370332781E0223085
:102E3000310529F02330310511F080E0089508951F
:102E4000AF92BF92CF92DF92EF92FF920F931F93B8
:102E5000CF93DF93182F062FC1E0D3E08AEFD82E4F
:102E60009EEFE92E842F8470C82E842F8270B82E96
:102E7000842F8870A82E4170F42E8C2F880F8F5FBE
:102E8000E80ECC2081F04D2F400F6C2F610F86EDA6
:102E900094E00E940B134C2F400F6D2F610F86EDB5
:102EA00094E00E940B13BB2081F0402F4D1B6C2F30
:102EB000610F86ED94E00E940B13402F4C1B6D2F89
:102EC000610F86ED94E00E940B13AA2081F04C2F35
:102ED000400F612F6D1B86ED94E00E940B134D2F68
:102EE000400F612F6C1B86ED94E00E940B13FF20B6
:102EF00081F0402F4C1B612F6D1B86ED94E00E94EA
:102F00000B13402F4D1B612F6C1B86ED94E00E942C
:102F10000B13CD1744F4E7FC04C0D150D394D394E1
:102F2000ED0CCF5FAACFDF91CF911F910F91FF9052
:102F3000EF90DF90CF90BF90AF9008950F931F93C5
:102F4000CF93DF938C01C0911505D0E0219750F00D
:102F5000BE018FE095E00E947613682FC8010E94A1
:102F60008B13F4CFDF91CF911F910F9108950F93A1
:102F70001F93CF93DF93C82F162FD42F022F242F08
:102F8000462F682F86ED94E00E94480B4FEF400FCC
:102F9000410F2D2F6C2F86ED94E00E94480B202FBF
:102FA000412F6C2F86ED94E00E94600CD1506D2F64
:102FB0006C0F202F412F86ED94E0DF91CF911F9170
:102FC0000F910C94600CCF93DF9300D000D01F9230
:102FD000CDB7DEB749835A836B837C838D83A09101
:102FE000860491E09A0F9093860485E08A9FD00131
:102FF0001124AC5ABB4FFE01319601900D928A9577
:10300000E1F79A3010F010928604809187048F5F68
:103010008B3008F08AE0809387040F900F900F9018
:103020000F900F90DF91CF910895CF92DF92EF92A2
:10303000FF92CF93DF936C01990FEE08FF08F7FE24
:1030400016C06DE286ED94E00E948308EC014427EF
:103050005527BA014C195D096E097F092AE086EDF2
:1030600094E00E94C3087C01EC0EFD1E08C02AE01B
:10307000B701A60186ED94E00E94C3087C0169E1D6
:1030800071E086ED94E00E94AE088E0D9F1DDF91E9
:10309000CF91FF90EF90DF90CF90089540E062ECE9
:1030A00075E08DEA94E00C94140BCF92DF92EF92CE
:1030B000FF920F931F93CF93DF93C2E9D4E009E906
:1030C00014E0FF24FA9497E0E92EE00E62E0888194
:1030D0000E946509288130E0F901E255FA4F849198
:1030E000F901E656FA4FC490F901EA57FA4FD49025
:1030F000DD2071F081110E940C09ED2DF0E0EE0F42
:10310000FF1FE458FA4FA591B491EC91EC21B1F472
:10311000F80180818F5F808360E088810E9465096B
:1031200021960F5F1F4FE012D1CFDF91CF911F91FA
:103130000F91FF90EF90DF90CF900895F80180817C
:10314000882371F3F8018F3F11F41082E5CFF082EC
:10315000E3CFCF93C82FF89460E08091E5040E94FC
:1031600035098091E60418161CF460E00E943509C8
:10317000CEBD00000DB407FEFDCF8EB58091E604F4
:1031800018161CF461E00E9435097894CF910895D7
:103190000F931F93CF938091E2048F5F8093E2049B
:1031A00004E512E0C0E08C2F80640E94A91880E83A
:1031B0000E94A91861E08091E5040E943509809180
:1031C000E60418161CF460E00E94350980E090E0E7
:1031D000F801E80FF91F20812EBD00000DB407FE95
:1031E000FDCF2EB501968435910591F78091E604C7
:1031F00018161CF461E00E943509CF5F0C5A1F4F6E
:10320000C63089F680E4CF911F910F910C94A918D4
:10321000CF93DF93BC0186ED94E00E948A08EC0115
:1032200069E171E086ED94E00E94AE088C0F9D1F6D
:10323000DF91CF91089588EF91E0E4E5F2E0DF01BE
:103240009C011D9221503040E1F71092DF04109252
:10325000E00464E575E086ED94E00E948A080E942F
:10326000C8188CB583608CBD8DB58E7F8DBD8CE10B
:1032700091E0EEEFFFE309951092DC048FE295E018
:103280000E9408190E94C8180E94551880919D0438
:10329000813039F062E370E080E090E00E943C0A07
:1032A000F3CF0895CF93DF93482F50E0EA01C8573A
:1032B000DB4F9DA19923A1F19EA1911131C09EA543
:1032C000FA01EE0FFF1FE157FB4F35A126A1E32FB7
:1032D000F22FE90FF11DE90FF11D259134912F3FD8
:1032E0009FEF390711F41DA21BC039AB440F551FC6
:1032F000FA01EE56FB4F3327220F331F05A0F6A12C
:10330000E02DE20FF31F65917491811105C040E03B
:103310008DEA94E00E94140B29968DA18F5F8DA3F6
:10332000DF91CF91089570E0DB01AA0FBB1FA85772
:10333000BB4FD4962C91D497D5969C91D597E22FDC
:10334000F92FE80FF11DE80FF11D259134915F96DB
:1033500096963C932E939597F9018591949190912F
:10336000B104989F802D112468577B4FFB01B196C3
:1033700085A3F901A591B4914B2F50E0E82FF0E01F
:103380004E175F0720F4F90125913491832FFB013B
:10339000B296899F802D112485A308951F93CF9302
:1033A000DF93C82F162F2EE4482F63E086ED94E0BC
:1033B0000E94480BDC2FD10F4FEF4D0F2EE463E03E
:1033C00086ED94E00E94480B1650CD5F212F4C2FC4
:1033D00060E086ED94E00E94600C212F4C2F63E5A5
:1033E00086ED94E00E94600C41E06C2F83E00E9427
:1033F000201742E06C2F80E50E942017D45044E053
:103400006D2F80E50E94201748E06D2F83E0DF914B
:10341000CF911F910C9420179F92AF92BF92CF92A1
:10342000DF92EF92FF920F931F93CF93DF93F82ECB
:10343000E62EB22E03E0020FD0E0C3E08AEFC82EE2
:103440001EEF842F8170982EAA24A394A20E42709E
:10345000D42EDF5F802F8B19180F9920A1F02C2F0D
:10346000220F2A0D4E2D4C1B6D2F6F0D86ED94E013
:103470000E94600C202F4E2D4D1B6C2F6F0D86ED82
:1034800094E00E94600CDD20A1F02C2F220F2A0D69
:103490004E2D4C1B6F2D6D1B86ED94E00E94600C31
:1034A000202F4E2D4D1B6F2D6C1B86ED94E00E943E
:1034B000600CDC1744F417FD04C0C150C394C394DE
:1034C0001C0D0E5FC6CFDF91CF911F910F91FF9022
:1034D000EF90DF90CF90BF90AF909F900895809134
:1034E000A4049091A504892BB1F18091AC048F7153
:1034F00069F584E10E94000ABC01990F880B990BC1
:103500000E94F22726EE3FE34EEC50E40E9456283C
:103510000E94C1279B017093A3046093A204672BB0
:1035200091F084E08093A104E4EAF4E080E041912A
:1035300051912417350718F48093A10408958F5FE3
:103540008430A9F703C08FEF8093A1048091AC046D
:103550008F5F8093AC0408958F929F92AF92BF9239
:10356000CF92DF92EF92FF920F931F93CF93DF934F
:10357000FB0124913196C490F090F604022E000CC9
:10358000330B121613060CF0D7C080330CF0D4C0E6
:10359000482F082E000C550BFA01EC0DF11DC7FC4D
:1035A000FA951E161F060CF0C7C06E5F7F4FD9013B
:1035B000179693E0B595A7959A95E1F787FF0BC00D
:1035C000C80EA49FC001A59F900DB49F900D11241B
:1035D000681B790B80E04C2D0C2C000C550B480F10
:1035E000511D87FD5A95413351051CF090E3C92EBA
:1035F000C81A2535310514F024E530E01091E204B5
:103600001827982F977031E001C0330F9A95EAF789
:10361000859585958595F4E58F02C00111248C5A16
:103620009D4F00E00C2C000CDD08BB24B394402F10
:1036300050E04C155D050CF07FC0FB01E490F1E01B
:10364000FF1218C0FB01EC0140E8542F5E2119F075
:103650005881532B588350E0559547954115510596
:1036600019F43196E49040E821965C2F581B5217CC
:1036700060F359C0F1101AC0A32EA094FB01EC0115
:1036800040E8542F5E2119F058815A21588350E0A8
:10369000559547954115510519F43196E49040E848
:1036A00021965C2F581B521760F33DC043E0F41283
:1036B00023C0932E9094FB01EC0140E8A82E8C2EA1
:1036C000881A542F5E2141F08126588180FE02C065
:1036D000532B01C05921588350E05595479541150A
:1036E000510519F43196E49040E821965C2F5A195F
:1036F000521728F31B2517C0FB01EC0140E8542F9B
:103700005E2119F058815327588350E0559547950D
:103710004115510519F43196E49040E821965C2F4B
:10372000581B521760F3330F19F48C5A9F4F31E036
:103730000F5F6A0F7B1F7BCFDF91CF911F910F919E
:10374000FF90EF90DF90CF90BF90AF909F908F90C1
:103750000895CF93DF93CDB7DEB72B970FB6F894CC
:10376000DEBF0FBECDBF789484B5826084BD84B5C2
:10377000816084BD85B5826085BD85B5816085BD6C
:1037800080916E00816080936E0010928100809124
:1037900081008260809381008091810081608093AC
:1037A0008100809180008160809380008091B100D1
:1037B00084608093B1008091B00081608093B000FC
:1037C00080917A00846080937A0080917A00826090
:1037D00080937A0080917A00816080937A00809152
:1037E0007A00806880937A001092C10082E380930F
:1037F000070581E090E0A0E0B0E08093030590939E
:103800000405A0930505B09306058FEF8093F80497
:10381000E0E8F7E7259134912130304C09F049C0B8
:10382000E6E9F7E7E491E093E104E7E9F7E7E491FB
:10383000E0938C04E8E9F7E7E491E0938D04E9E98B
:10384000F7E78591949190938F0480938E04EBE930
:10385000F7E785919491909391048093900488E088
:103860008093B304EEE9F7E7E491E093B204EFE963
:10387000F7E7E491E093F804E0EAF7E785919491A3
:103880009093A5048093A404E2EAF7E785919491CC
:103890009093A7048093A604E4EAF7E785919491B6
:1038A0009093A9048093A804E6EAF7E785919491A0
:1038B0002CC09CE39093E10410928C0480938D04BF
:1038C00080E293E090938F0480938E0484ED93E0E4
:1038D000909391048093900488E08093B304809344
:1038E000B2048CEA9DE09093A5048093A4048EED2D
:1038F0009DE09093A7048093A60484E79EE09093B4
:10390000A9048093A8048CE39FE09093AB04809378
:10391000AA0411E0109388046FEF70E085E00E9424
:10392000A10988E08093920489E08093930487E062
:103930008093940486E08093950404E000939604B9
:1039400082E08093970481E1809398040E94551847
:103950008CE39FE09093A3048093A2040093A104BE
:103960001093AC048BE08093E4048DE08093E30437
:1039700080E18093E5048EE08093E7048FE08093FC
:10398000E6041093DE041093F6041092F7041093EB
:10399000DD04E0EDF1E0E491EF5FE093DA04E1EDC6
:1039A000F1E0E491EF5FE093DB0482ED91E090932E
:1039B000F5048093F4041FB7F894809139028111C3
:1039C00027C0E0E9F5E08491E4EAF5E09491E82F7E
:1039D000F0E0EE0FFF1FE650FF4FA591B491EC9180
:1039E000E92321F461E08AE00E94350961E08AE080
:1039F0000E9465098CB580618CBD8CB580648CBDDE
:103A000061E08DE00E94650961E08BE00E9465093C
:103A1000809139028F5F809339021FBF8CB58F7DF3
:103A20008CBD8CB58C7F81608CBD8DB581608DBD6A
:103A30008CB58C608CBD61E08091E4040E946509C6
:103A400061E08091E3040E94650961E08091E504F2
:103A50000E9465098091E70418161CF461E00E9439
:103A600065098091E60418161CF461E00E9465095E
:103A70008091E704181674F460E00E9435096AE04A
:103A800070E080E090E00E943C0A61E08091E704F1
:103A90000E9435098091E304082E000C990BFC016B
:103AA000EA57FA4FE491F0E0EE0FFF1FEC5FFE4F94
:103AB000259134913093EB042093EA04FC01E656FF
:103AC000FA4FE491E093F1048091E404082E000C95
:103AD000990BFC01EA57FA4FE491F0E0EE0FFF1F5B
:103AE000EC5FFE4F259134913093E9042093E80474
:103AF000FC01E656FA4FE491E093F0048091E6046D
:103B0000082E000C990BFC01EA57FA4FE491F0E003
:103B1000EE0FFF1FEC5FFE4F259134913093ED04C3
:103B20002093EC04FC01E656FA4FE491E093F20492
:103B30008091E504082E000C990BFC01EA57FA4F1E
:103B4000E491F0E0EE0FFF1FEC5FFE4F2591349102
:103B50003093EF042093EE04FC01E656FA4FE49113
:103B6000E093F30481E20E94A91884E10E94A9185D
:103B70008091E10487FF03C08FE78093E104809187
:103B8000E10480680E94A91880E20E94A9188CE0D4
:103B90000E94A9180E94C81881E08093B10484E0B3
:103BA0008093D50486EF90E09093BD048093BC048D
:103BB00060E080E00E94931961E070E083E00E9481
:103BC000A1098091B100887F81608093B100F89451
:103BD0001092800010928100109285001092840053
:103BE00088E191E090938900809388008091810022
:103BF0008860809381008091810081608093810042
:103C000080916F00826080936F0078940E946F1A99
:103C100080919E04813009F03CC11092B20485E28B
:103C200080932501109226011092270181E3809351
:103C30002C0110922D0110922E018DE380933301FF
:103C4000109234011092350189E480933A01109268
:103C50003B0110923C01E1E6F1E080E020E191E0DF
:103C6000DF01129731E0380F3C9311962C9390832B
:103C7000845F37968435A1F781E080934E011092DE
:103C80004F01109250018DE0809355011092560122
:103C90000E943E1444244394512C34E0C32ED12C72
:103CA0000E94A80D882309F4ECC080919F04813004
:103CB00009F0FCC08091000190910101019731F45D
:103CC00080918704882321F065E003C063E001C090
:103CD00064E08CE191E00E94CB11823051F024F439
:103CE000813009F4CCC0CDC0833031F0843041F054
:103CF000C8C00E94EF0CDECF81E00E947303BFC0FA
:103D000080918704882309F4BCC020910001309180
:103D100001012130310509F0B4C090918604911160
:103D200002C099E001C09150909386048150809325
:103D30008704E091860485E0E89FF0011124EC5AA5
:103D4000FB4F0081A180B280E380F48006FF0EC0AB
:103D500010E080912401181708F048C06EE471E06B
:103D600085E591E00E94D60C1F5FF3CF05FF0BC0E5
:103D7000809154018823D1F165E571E08EE491E0F2
:103D80000E94D60CF5CF07FF04C0B501C5010E9403
:103D9000D60C10921505D70116968C910F70282F0E
:103DA00030E010E0201731070CF48901801BF70187
:103DB0008683812C912C80169106A9F0D701169646
:103DC0008C9116971396ED91FC911497E80DF91DBF
:103DD000E80FF11D60818FE095E00E948B13BFEF2B
:103DE0008B1A9B0AE8CFC5010E949E170E94C91337
:103DF00048C08091DC04811107C081E08093DC041D
:103E00000E94AF070E944D0420914A0130914B015E
:103E100020583F4F30934B0120934A014091440179
:103E2000509145018091480190914901840F951F5F
:103E30009093450180934401809146019091470100
:103E4000820F931F8130B2E29B070CF00BC490935A
:103E50004701809346016091470140914301809161
:103E600045010E946C068091440190914501965F46
:103E700081309E4530F00E944D04811102C00E94A5
:103E80003E1480E090E0892B09F40ACF0E940000E4
:103E900004CF8091A104882309F4BFCE40E06EE0F6
:103EA00071E08DEA94E00E94140BB9CE809100017C
:103EB000909101018130910509F064C0E0904101C9
:103EC000F090420180919B04813071F425E0E2166C
:103ED000F10451F0ECE0EE16F10431F0C701019667
:103EE000909342018093410180919904813071F453
:103EF0008091410190914201009741F086309105F7
:103F000029F00197909342018093410180919C0494
:103F1000813041F480915C01882309F4BFC3815052
:103F200080935C0180919A04813011F5A090410149
:103F3000B09042018501065011090730110508F0C3
:103F4000C0C30E94200490905C01692D70E06F5FF7
:103F50007F4FDC0116962C9130E0621773070CF04E
:103F6000B0C30E94761387FDACC3939490925C011A
:103F700020919E048091410190914201213009F0ED
:103F800027C451C0039709F05EC080919B04813023
:103F900079F480914101909142018530910541F081
:103FA0008C30910529F00196909342018093410154
:103FB00080919904813079F480914101909142017E
:103FC0008130910541F08630910529F00197909359
:103FD00042018093410180919C04813071F4809171
:103FE0004101909142018130910509F087C487E039
:103FF00090E0909342018093410180919A04813036
:1040000069F48091410190914201893091050CF44D
:104010007BC40797909342018093410180919D0456
:10402000813089F479C4863091050CF060C3019722
:1040300009F45DC38091410190914201E816F906AF
:1040400011F010925C010091000110910101063005
:10405000110511F00E94AF070730110508F011CFCC
:10406000F801EC5CFF4F0C941B29809138028C31D5
:10407000A8F44091F9045091FA046091FB04709106
:10408000FC044370552766277727452B462B472B83
:1040900029F48F5F809338020E94EA0380913802EE
:1040A00091E08C3109F090E0E3E9EE2EE1E0FE2EA4
:1040B00005E911E0F2E9AF2EF1E0BF2E812C912C41
:1040C000282E312C821493040CF052C0D5018C910F
:1040D000F80122913F01821306C0D7013C91F801FB
:1040E00020813217C9F1F6E0F89D9001F99D300D5D
:1040F000112420573E4FD9014C91F70160812A8746
:104100003B870E946C06D3016C90662DF50180817F
:104110000E94F103982FD5018C93F8017080672DD0
:10412000D7018C9199870E94F103F70180839985CB
:104130002A853B8596110FC087110DC0F801349771
:104140008081F7E0F89FC0011124D9016C91815A58
:104150009E4F0E948B1390E0BFEF8B1A9B0AE6E004
:10416000EE0EF11C0A5F1F4FF6E0AF0EB11CAACF96
:104170009111F4C186CEAE01485F5F4FBE016A5F08
:104180007F4FCE0107960E94FD066F8180915E01F0
:104190000E94F103F82E80935E016E8180915D0193
:1041A0000E94F103182F80935D01888503E00F0DB5
:1041B00076E0E72EE10EA12CB12C882309F4C1C0D2
:1041C00066246394992493946092F6046092F704B1
:1041D000712E7A0C302E3A0C472D632D86ED94E02B
:1041E0000E940B138E2C8A18482D632D86ED94E0C7
:1041F0000E940B131092F6041092F7042A2D472DFB
:10420000602F86ED94E00E94480B2A2D482D602FE8
:1042100086ED94E00E94480B2FEFA21AB20A44E008
:10422000A416B10479F69092F6049092F70427E070
:10423000412F62E06F0D86ED94E00E94600C22E059
:1042400042E0410F6F2D86ED94E00E94480B22E082
:1042500044E0410F6F2D86ED94E00E94480B03E08F
:10426000010F402F6F2D86ED94E00E940B131092EA
:10427000F6041092F70422E0402F61E06F0D86ED06
:1042800094E00E94480BE0905C01EE2009F4F9CD27
:104290000E9420046E2D70E00E947613E82E898320
:1042A0008F70A82EB12C8A3011F030E001C032E0BE
:1042B00081E08093F6048093F7045F2D531B4DE05B
:1042C000430F29E06FEF610F84EF850F3B8759871C
:1042D0000E94B7171092F6041092F704402F6F2D2A
:1042E00086ED94E00E940B133B852BE0230F59854C
:1042F00065EF650F07E0412F86ED94E00E946B0BA0
:10430000CE0101960E940C17811102C081E001C00C
:1043100083E08093F6048093F7041F5FA501612F6B
:1043200086EF8F0D0E94B0044E2D50E064E055954D
:1043300047956A95E1F743705527612F8AEF8F0DF6
:10434000C4C033243394992493943092F604309269
:10435000F704612E6A0C462D602F86ED94E00E94D2
:104360000B137E2C7A18472D602F86ED94E00E9467
:104370000B131092F6041092F70488248394800E95
:104380002A2D462D682D86ED94E00E94480B2A2D9B
:10439000472D682D86ED94E00E94480B8FEFA81AF8
:1043A000B80A015094E0A916B10469F69092F60497
:1043B0009092F70427E0412F34E0B32EBF0C6B2D11
:1043C00086ED94E00E94600C22E042E0410F05E09F
:1043D0000F0D602F86ED94E00E94480B22E044E030
:1043E000410F602F86ED94E00E94480B43E0E42EDD
:1043F000E10E06E00F0D4E2D602F86ED94E00E9439
:104400000B131092F6041092F70422E04E2D6B2D40
:1044100086ED94E00E94480BB0905C01BB2009F44B
:1044200030CD0E9420046B2D70E00E947613982EF0
:1044300089838F70A82EB12C8A3011F0812C02C094
:1044400092E0892E81E08093F6048093F70429E0BE
:104450004DE0480D6FEF610F802F0E94B71710924B
:10446000F6041092F7044E2D602F86ED94E00E9422
:104470000B1307E02BE0280D412F67E06F0D86ED51
:1044800094E00E946B0BCE0101960E940C178111E3
:1044900002C081E001C083E08093F6048093F704BA
:1044A0001F5F082D0F0DA501612F88E0800F0E946E
:1044B000B004492D50E084E0559547958A95E1F781
:1044C00043705527612F8CE0800F0E94AC05D9CC3A
:1044D0008FE095E00E94730761E180910F050E94D3
:1044E000F103182F80930F0560E0809110050E9462
:1044F000F10380931005113109F0C3CC8111C1CCB7
:1045000060E070E08FE095E00E947613682F85E50B
:1045100091E00E948B1380913A028823B1F0815080
:1045200080933A02109215056FE075E08EE491E0F9
:104530000E94D60C80914E0180930F0580914F010F
:10454000809310050E94EA039CCC80E4898340E4B8
:104550005A816B817C818D810E94E3175092010109
:10456000409200018ECC8FE095E00E9473070E947C
:1045700020047C01DC0112968C911297882329F08B
:1045800016961C91110F1E5F01C012E0F7016081A9
:1045900080910F050E94F10380930F05D7011196BA
:1045A0006C91610F809110050E94F10380931005BA
:1045B00068CC00914C0110914D01F8018281882353
:1045C00021F02681F22EFF0C01C0F12CD8016C9154
:1045D00080910F050E94F10380930F05F80161811E
:1045E0006F0D809110050E94F103809310058FE0FC
:1045F00095E00E94730790910F05D8018C91981354
:1046000040CC8091100590E011964C912F2D30E018
:10461000240F311D8217930709F033CCC8010E9483
:104620009E170E94C913182F20910001309101019B
:104630002530310591F40E9420049B838A83809168
:104640004C0190914D019D838C83111102C081E03A
:1046500001C081E8898349817BCF2630310509F08B
:104660007DCF0FCCE0E0F2E2F0934701E09346010A
:104670004CEF4203C001439F900D112465E070E0B0
:104680000E94072970934B0160934A0140E066E263
:1046900071E08DEA94E00E94140BDDCB8091410122
:1046A000909142018230910514F4069605C086303F
:1046B00091050CF037CC079690934201809341010D
:1046C00031CCB8E0AB16B10444F0E7E0AE1AB10863
:1046D000B0924201A09241014BCCF6E0AF16B1047A
:1046E0000CF446CC109342010093410141CC0E944E
:1046F00020048C01DC0116968C91882309F49ACC55
:1047000060E070E0C8010E947613812C912C282F64
:104710002F70F401EB5DFE4F5F018681811122C095
:10472000213009F04CC010921505D8018C9180936E
:104730000F0560E0C8010E94E40680931005C801DF
:104740000E946313682F8FE095E00E948B13B09254
:104750004D01A0924C01E5E0F0E0F0930101E093FF
:1047600000016CC060E070E0CF012A870E947613E0
:10477000782E60E070E0C8010E947613672D70E02B
:1047800094E0759567959A95E1F763707727482FC0
:1047900050E024E0559547952A95E1F74370552759
:1047A0002A856417750759F4472D4F7050E04F5F05
:1047B0005F4F8F7090E04817590709F4B4CFF7E0C6
:1047C0008F0E911C4CE18416910409F0A2CF32CCDB
:1047D00020919D04213009F02DCC81309105A9F163
:1047E00084F5892B09F026CC80915401882309F4A3
:1047F00070C0109215056FE075E08EE491E00E94A4
:10480000D60C80914E0180930F0580914F018093CB
:1048100010059091240180915401492F50E0282FD8
:1048200030E02417350714F08FEF890F80933A0298
:1048300082E090E090930101809300010E94EA03DE
:10484000F9CB0697079708F0F5CB0E9420045C018E
:1048500090934D0180934C01DC0116968C91169734
:10486000882309F4E7CB109215058C9180930F05EE
:1048700060E0C5010E94E40680931005F501868181
:1048800000915C0110E0282F30E00F5F1F4F2017D0
:1048900031070CF48901801BD50116968C93812C6D
:1048A000912C8016910691F0F50186810380F481A8
:1048B000E02DE80DF91DE80FF11D60818FE095E016
:1048C0000E948B13FFEF8F1A9F0AEBCF83E090E0DB
:1048D000B1CF80915B01882339F06EE471E085E50A
:1048E00091E00E94D60CF5CF80E2898340E25A81A4
:1048F0006B817C818D810E94E3179CCB8630910572
:104900000CF07BCB079675CB06970CF487CB5092B7
:1049100042014092410182CB40E066E271E08DEAC3
:1049200094E00E94140B80914101909142018630E5
:1049300091050CF04EC0823091050CF446C0809178
:104940001505813009F083C00E942004DC01169611
:104950002C9160E070E0211109C08FE095E00E9489
:1049600076138F70813009F072C02AC00E947613CE
:10497000182F60E070E08FE095E00E947613612FC1
:1049800070E0A4E075956795AA95E1F763707727C5
:10499000482F50E0B4E055954795BA95E1F743703C
:1049A00055276417750709F052C0212F2F7030E08A
:1049B0002F5F3F4F8F7090E02817390709F047C0ED
:1049C0000E940A140E9425083ECB019709F43FC0BB
:1049D0003ACB0D970CF037CB0E942004FC012681C6
:1049E000222331F160E070E00E9476138E836091A3
:1049F000150570E0615071098FE095E00E94761313
:104A0000182F8983CE0106960E940C17082FCE011D
:104A100001960E940C170817D1F02E812F7030E0FC
:104A20001F70812F90E001962817390781F40CC080
:104A30006091150570E0615071098FE095E00E946A
:104A400076138F708D3019F40E940A14FCCAD0922C
:104A50000101C0920001F7CACF93DF93C0E9D1E012
:104A60002797CE010E949A1381E0CF35D807C1F76E
:104A70008AE391E00E949A1383E391E00E949A13E3
:104A80008CE291E00E949A1385E291E00E949A13D1
:104A900085E591E00E949A138EE491E00E949A13BA
:104AA0008FE095E0DF91CF910C949A131092D90486
:104AB0001092D80481E191E09093D7048093D604BA
:104AC0006DE08FE095E00E94A21364E38EE491E034
:104AD0000E94A21368E185E591E00E94A2136DE0B7
:104AE00085E291E00E94A2136DE08CE291E00E94C9
:104AF000A2136DE083E391E00E94A2136DE08AE3CC
:104B000091E00E94A21364E18FE591E00E94A2135C
:104B100064E186E691E00E94A21364E18DE691E0F3
:104B20000E94A21364E184E791E00E94A21364E171
:104B30008BE791E00E94A21364E182E891E00E9479
:104B4000A21364E189E891E00E94A213E4E5F4E095
:104B50001082359684E0E638F807D1F71092870482
:104B600010928604E0E9F1E081E08083369692E0DD
:104B7000E833F907D1F781E0809343010895CF939B
:104B8000DF938230910510F482E090E0E091180507
:104B9000F091190520E030E0C0E0D0E0309711F14D
:104BA0004081518148175907C0F04817590761F4EF
:104BB00082819381209719F09B838A832BC09093E5
:104BC00019058093180526C02115310519F04217E3
:104BD000530718F49A01BE01DF01EF010280F3814F
:104BE000E02DDCCF2115310509F1281B390B2430CC
:104BF000310590F412968D919C9113976115710572
:104C000021F0FB019383828304C090931905809364
:104C10001805FD01329644C0FD01E20FF31F819398
:104C20009193225031092D933C933AC0209116055F
:104C300030911705232B41F4209105013091060195
:104C4000309317052093160520910301309104013C
:104C50002115310541F42DB73EB740910701509120
:104C60000801241B350BE0911605F0911705E2179A
:104C7000F307A0F42E1B3F0B2817390778F0AC017F
:104C80004E5F5F4F2417350748F04E0F5F1F50935C
:104C90001705409316058193919302C0E0E0F0E080
:104CA000CF01DF91CF9108950F931F93CF93DF939F
:104CB000009709F48CC0FC01329713821282009194
:104CC0001805109119050115110581F42081318114
:104CD000820F931F20911605309117052817390769
:104CE00079F5F0931705E093160571C0D80140E0FF
:104CF00050E0AE17BF0750F412962D913C911397D8
:104D0000AD012115310509F1D901F3CF9D01DA017A
:104D10003383228360817181860F971F82179307E7
:104D200069F4EC0128813981260F371F2E5F3F4F30
:104D3000318320838A819B8193838283452B29F44D
:104D4000F0931905E093180542C01396FC93EE9377
:104D50001297ED01499159919E01240F351FE217D9
:104D6000F30771F480819181840F951F029611964B
:104D70009C938E938281938113969C938E9312972A
:104D8000E0E0F0E0D80112968D919C911397009786
:104D900019F0F8018C01F6CF8D919C9198012E5F4E
:104DA0003F4F820F931F209116053091170528174A
:104DB000390769F4309729F41092190510921805F3
:104DC00002C0138212821093170500931605DF911B
:104DD000CF911F910F9108958F929F92AF92BF92A2
:104DE000CF92DF92EF92FF92CF93DF93EC01688135
:104DF00079818A819B81611571058105910521F475
:104E000064E279ED8BE597E02DE133EF41E050E08E
:104E10000E945E2749015A019B01AC01A7EAB1E457
:104E20000E947D276B017C01ACEEB4EFA5019401DB
:104E30000E948B27DC01CB018C0D9D1DAE1DBF1D7B
:104E4000B7FF03C00197A109B04888839983AA835B
:104E5000BB83BC01CD019F77DF91CF91FF90EF9095
:104E6000DF90CF90BF90AF909F908F9008950E9459
:104E7000EC26089589E091E00E94EC260895609365
:104E8000090170930A0180930B0190930C0108951E
:104E9000F999FECF92BD81BDF89A992780B5089502
:104EA000262FF999FECF1FBA92BD81BD20BD0FB646
:104EB000F894FA9AF99A0FBE01960895052E97FB79
:104EC0001EF400940E94752757FD07D00E9490277A
:104ED00007FC03D04EF40C947527509540953095FF
:104EE00021953F4F4F4F5F4F089590958095709556
:104EF00061957F4F8F4F9F4F08950E94B227A59FC6
:104F0000900DB49F900DA49F800D911D11240895C4
:104F1000B7FF0C947D270E947D27821B930B089579
:104F2000A1E21A2EAA1BBB1BFD010DC0AA1FBB1FAD
:104F3000EE1FFF1FA217B307E407F50720F0A21B1F
:104F4000B30BE40BF50B661F771F881F991F1A948C
:104F500069F760957095809590959B01AC01BD01B6
:104F6000CF010895A29FB001B39FC001A39F700D10
:104F7000811D1124911DB29F700D811D1124911D61
:104F800008950E94352888F09F5798F0B92F9927E7
:104F9000B751B0F0E1F0660F771F881F991F1AF024
:104FA000BA95C9F714C0B13091F00E944F28B1E012
:104FB00008950C944F28672F782F8827B85F39F011
:104FC000B93FCCF3869577956795B395D9F73EF4BD
:104FD00090958095709561957F4F8F4F9F4F089565
:104FE000E89409C097FB3EF4909580957095619583
:104FF0007F4F8F4F9F4F9923A9F0F92F96E9BB2739
:105000009395F695879577956795B795F111F8CFB4
:10501000FAF4BB0F11F460FF1BC06F5F7F4F8F4F1F
:105020009F4F16C0882311F096E911C0772321F015
:105030009EE8872F762F05C0662371F096E8862FAD
:1050400070E060E02AF09A95660F771F881FDAF704
:10505000880F9695879597F9089557FD9058440FB6
:10506000551F59F05F3F71F04795880F97FB991FC7
:1050700061F09F3F79F08795089512161306140684
:10508000551FF2CF4695F1DF08C016161706180611
:10509000991FF1CF86957105610508940895E894EC
:1050A000BB2766277727CB0197F908950E946928C7
:1050B0000C94DA280E94CC2838F00E94D32820F0E3
:1050C000952311F00C94C3280C94C92811240C9436
:1050D00050280E942D2870F3959FC1F3950F50E042
:1050E000551F629FF001729FBB27F00DB11D639F9A
:1050F000AA27F00DB11DAA1F649F6627B00DA11D40
:10510000661F829F2227B00DA11D621F739FB00DE5
:10511000A11D621F839FA00D611D221F749F332755
:10512000A00D611D231F849F600D211D822F762FEE
:105130006A2F11249F5750409AF0F1F088234AF0CB
:10514000EE0FFF1FBB1F661F771F881F9150504037
:10515000A9F79E3F510580F00C94C3280C94502869
:105160005F3FE4F3983ED4F3869577956795B795BE
:10517000F795E7959F5FC1F7FE2B880F911D9695D8
:10518000879597F9089597F99F6780E870E060E048
:1051900008959FEF80EC089500240A9416161706D0
:1051A00018060906089500240A9412161306140618
:1051B00005060895092E0394000C11F4882352F07B
:1051C000BB0F40F4BF2B11F460FF04C06F5F7F4F33
:1051D0008F4F9F4F0895DB018F939F930E947D27F0
:1051E000BF91AF91A29F800D911DA39F900DB29F83
:1051F000900D11240895991B79E004C0991F96170A
:1052000008F0961B881F7A95C9F78095089597FB3B
:10521000072E16F4009407D077FD09D00E942129AB
:1052200007FC05D03EF4909581959F4F08957095A9
:1052300061957F4F0895EE0FFF1F0590F491E02DCB
:105240000994AA1BBB1B51E107C0AA1FBB1FA617CD
:10525000B70710F0A61BB70B881F991F5A95A9F71F
:1052600080959095BC01CD01089581E090E0F8947F
:105270000C943A2912E0C5EED2E004C0FE010E946F
:0E5280001B292196C63ED107C9F7F894FFCF2F
:10528E0001000100001A058000010000000000006E
:10529E0000940B5608E812E7120D0A004C4F4144D9
:0452AE004552000065
:00000001FF
