:100000000C94DF020C9407030C9407030C94070371
:100010000C9407030C9407030C9407030C94070338
:100020000C9407030C9407030C9407030C94B90A6F
:100030000C9407030C9407030C9407030C94070318
:100040000C946F0A0C9407030C9407030C94070399
:100050000C9407030C9407030C9407030C940703F8
:100060000C9407030C940703B904D604E504FB04BD
:100070000105070511051F052D0537055205670503
:100080007E05140718073107310731073107380794
:10009000380738074D074D074D074D070101FF038E
:1000A0000101F703556E646F206C617374206D6FEE
:1000B0007665005361766520666F72206C617465A9
:1000C000720047616D65207374617469737469634C
:1000D0007300517569742067616D650052657375B1
:1000E0006D652067616D6500A0009C000000000048
:1000F000240027002A0000000000250028002B0013
:100100000500893008023802497868140000DC00D4
:10011000D200C200B300A400450008010000450061
:10012000180100004861726420776F6E3A20202029
:100130002020004861726420737461727465643AAF
:1001400020004561737920776F6E3A2020202020AF
:10015000004561737920737461727465643A20009C
:100160000500680138010000050038016801000041
:10017000F6E8DBCFC3B8AEA49B928A827B746E682C
:10018000625C57524E4945413E3A3734312E2C2954
:10019000272523210A0A153A49676E6F7265006D9B
:1001A000560A0A504C45415345205455524E204F53
:1001B000464620004C4F5720424154544552592145
:1001C000200003053F213F1208120A100A0E1C0EE0
:1001D0000C1E0C141A14161F161E131E1E1B1E1E98
:1001E0001F1E3F213F3A2F3A173D173F213F181F4F
:1001F00002040A041F0E04040E1F0A1F0A0E0E1F1B
:1002000004110E2E252E2F2A2E262929021F020820
:100210001F08150E04040E150E15151B151B0406DC
:1002200004040C040000000017000300031F0A1F51
:1002300016371A1904130A153A000300000E11119B
:100240000E000A040A040E04003000040404001026
:10025000001804031F111F121F101D151711151F61
:1002600007041F17151D1F151D01011F1F151F173F
:10027000151F000A00003200040A110A0A0A110AB6
:10028000040115020E11171E051E1F150A0E110A74
:100290001F110E1F15111F05010E111D1F041F1127
:1002A0001F1108100F1F041B1F10101F061F1E0414
:1002B0000F0E110E1F09060E112E1F051A12150919
:1002C000011F011F101F0F180F1F0C1F1B041B0302
:1002D0001C03191513001F11030418111F0002013C
:1002E000022020200001020C121E1F120C0C121200
:1002F0000C121F0C1A14041E05242A1E1F021C14A3
:100300001D1020201D1F0814111F101E041E1E0288
:100310001C0C120C3E0A040C123E1E040214160A97
:10032000020F120E101E0E100E1E081E120C1226A8
:10033000281E322A26041E21001F00211E0401024D
:10034000013F213F172B152010204C4F41444552AF
:1003500000172B16201314004E6577206861726415
:100360002067616D65004E65772065617379206750
:10037000616D6500175344001613780016131400BE
:100380001510200015201000540A03E181867F3EDD
:10039000186D830F0F0E0183866033186DC3198F9C
:1003A0001803C38E6033186DE330CF1803C39E600B
:1003B0003630CDE360CF3006C79E7E3E30CDB36091
:1003C000CF300CC6F6603330D9B660CF33CFCCF621
:1003D0006061B0DB1E60CF30D86CE6C061B0DB1E60
:1003E000618F19986CC6C063B19B0E330F0FB07844
:1003F000C6FF7E1F1B061E0F66035803C200402463
:10040000000080000124000000848000010400003E
:10041000008880000104000000908F161D24CE008B
:1004200000A099993325990000C0909121251100D1
:1004300000A0909121261F0000909091212510008E
:10044000008899913325980000848F111D24CF00D6
:10045000000000000000000000000000000000009C
:1004600000101C700E00100000103EF83F801000BD
:1004700000383EF83F803800007C3FF83F807C0029
:1004800000FE3FF9DF70FE0001FF1FF3FFF9FF00E0
:1004900003FF8FF3FFFBFF8003FF8FE3FFF9FF00F4
:1004A00003FF87C3F5F8FE0001D70381E4F07C0069
:1004B0000010038004003800003801000E00100016
:1004C00000FE01003F80100000000000000000005E
:1004D0000000009000400000003C0082000000008E
:1004E0000044008200000000004078979C4B3800D8
:1004F0000060CC92024C64000018849202484400D0
:10050000000C84921E487C00000484922248400023
:100510000044CC9222486000007878939E483C00CA
:10052000000A4E6F2053442063617264206F720A88
:100530006E6F204C4F414445522E4845580A0A15CB
:100540003A45786974001D20466C617368696E676E
:100550000A20206C6F616465722E2E2E0A0A444FA9
:100560004E2754205455524E204F4646210000003D
:1005700000002300260029000404040404040404E9
:10058000020202020202030303030303010204083E
:1005900010204080010204081020010204081020ED
:1005A0000000000800020100000304070000000032
:1005B000000000004500680100003A2510251124C4
:1005C0001FBECFEFD8E0DEBFCDBF11E0A0E0B1E0AD
:1005D000E6E4F2E502C005900D92A432B107D9F726
:1005E00025E0A4E2B1E001C01D92AA31B207E1F713
:1005F00012E0CEEDD2E004C02197FE010E94F72860
:10060000CD3DD107C9F70E94911B0C9416290C947B
:10061000000042E0460F23E0682F86ED94E00C9442
:10062000410B44E0460F23E0682F86ED94E00C94E4
:10063000410B462F23E0682F86ED94E00C94410B8C
:10064000462F23E0682F86ED94E00C94590C42E08D
:10065000460F23E0682F86ED94E00C94590C42E09D
:10066000460F62E0680F23E086ED94E00C94590C8D
:10067000CF93DF93C82FD62F0E9419036D2F8C2F95
:100680000E9420036D2F8C2F0E9409036D2F8C2F49
:100690000E942F036D2F8C2FDF91CF910C941103AB
:1006A000462F62E0680F23E086ED94E00C94590C2D
:1006B000CF93DF93C82FD62F0E9420036D2F8C2F4E
:1006C0000E9409036D2F8C2F0E9450036D2F8C2FD9
:1006D000DF91CF910C942F03EF92FF920F931F9312
:1006E000CF93DF9300D0CDB7DEB7182F1A821982CF
:1006F0006AEACE0101960E94E41262E472E081E0AF
:1007000090E00E94940C60E472E083E090E00E942C
:10071000940C6EE372E085E090E00E94940C6CE330
:1007200072E087E090E00E94940C89E090E09A8368
:100730008983612FCE0101960E94E4121123D1F129
:1007400064E271E08AE090E00E947C0C6EE471E06B
:100750008BE090E00E94580D8C01055F1F4F65E50E
:1007600071E0C8010E94580D080F191F95E2E92E8B
:1007700091E0F92EB701C8010E94580D080F191F0A
:1007800087E0E80EF11C81E4E81681E0F80691F7B5
:100790008FE5E82E81E0F82EB701C8010E94580DC0
:1007A000080F191F87E0E80EF11C80E9E81681E0C8
:1007B000F80691F70F900F90DF91CF911F910F9155
:1007C000FF90EF90089540E06EE171E08DEA94E0D3
:1007D0000C940D0B1F93CF93DF93C82F162F861702
:1007E00021F1862F90E08C1B910963E070E00E945C
:1007F000E328D62F611117C06091F9047091FA04B3
:100800008091FB049091FC0423E030E040E050E054
:100810000E946C27672B682B692B29F4C11710F0F5
:10082000DFEF01C0D1E08D2F8C0FDF91CF911F91B1
:10083000089580914101909142018630910554F4D0
:1008400082309105A4F40097E9F00197D1F425E5F1
:1008500031E01AC08D309105A4F4069747E0489F17
:100860009001499F300D1124215A3E4F0DC002972F
:1008700047E0489F9001499F300D11242B5D3E4F6A
:1008800003C008952EE431E0C9010895CF93DF93AA
:10089000C0913B0287E0C89FE0011124CB5DDE4F91
:1008A0008E81882309F451C0CE010E945C1380938D
:1008B00043018881109244018093450189811092FF
:1008C0004601809347010E94162722E030E040E075
:1008D00050E00E943A27672B682B692B19F4CFEF61
:1008E000DFEF02C0C1E0D0E00E94162720E031E037
:1008F00040E050E00E943A27DC01CB019F5FAF4F00
:10090000BF4FC89F9001C99F300DD89F300D112453
:1009100030934901209348010E94162720E032E0DD
:1009200040E050E00E943A277195619571097093FB
:100930004B0160934A0180913B0290E001968370E5
:10094000992780933B0281E001C080E0DF91CF9145
:1009500008950F931F93CF93DF93FA013197ED30F2
:10096000F10508F0EDC0D62FC82FEC5CFF4F0C94BA
:10097000F72811E0180F462F612F86ED94E00E94B2
:10098000041301E00D0F24E0402F6C2F86ED94E05E
:100990000E94590C62E06C0F24E0402F86ED94E039
:1009A0000E94590C42E04D0F612F89C00E9419032B
:1009B0006D2F8C2F0E9450036D2F8C2F0E940903E6
:1009C0006D2F8C2F0E9427030EC00E9419036D2FDC
:1009D0008C2F0E9450036D2F8C2F0E9409036D2FC6
:1009E0008C2F0E942F036D2F8C2FDF91CF911F91A1
:1009F0000F910C941103DF91CF911F910F910C94E3
:100A00005803DF91CF911F910F910C9438030E94EE
:100A100038036D2F8C2FDF91CF911F910F910C9484
:100A200027030E9419036D2F8C2F0E9450036D2FF6
:100A30008C2FDF91CF911F910F910C942F030E9467
:100A400038036D2F8C2F0E9427036D2F8C2FDF9181
:100A5000CF911F910F910C9450030E9458036D2F5A
:100A60008C2FDF91CF911F910F910C9419030E944D
:100A700019036D2F8C2F0E9450036D2F8C2F0E9415
:100A80002F036D2F8C2F0E9411036D2F8C2F0E942E
:100A900027036D2F8C2F0E9420036EEF6C0F25E033
:100AA0004D2F46C00E9450036D2F8C2F0E942F03A4
:100AB0006D2F8C2F0E94110343E04D0F6C2F86ED9C
:100AC00094E0DF91CF911F910F910C9404130E9439
:100AD00019036D2F8C2F0E9450036D2F8C2F0E94B5
:100AE000200343E04D0F23E06C2F86ED94E00E943D
:100AF000410B44E04D0F61E06C0FE1CF0E942003F9
:100B00006D2F8C2F0E94270342E04D0F61E06C0F88
:100B100086ED94E00E940413CE5F22E04D2F6C2FEF
:100B200086ED94E00E94590C43E04D0F22E06C2FBB
:100B300086ED94E0DF91CF911F910F910C94590CA9
:100B4000DF91CF911F910F9108950F931F93CF9332
:100B5000DF93082FC62F4130510509F449C00CF529
:100B6000452B09F0ADC0D2E0D80F462F6D2F86ED92
:100B700094E00E94041341E04C0F61E0600F23E019
:100B800086ED94E00E94410B42E04C0F25E0602F7F
:100B900086ED94E00E94410B43E04C0F25E0602F6E
:100BA00080C04230510509F450C04330510509F06E
:100BB00087C0D2E0D80F462F6D2F86ED94E00E94BB
:100BC000041311E0100F41E04C0F23E0612F86ED7C
:100BD00094E00E94410B42E04C0F25E0602F86ED2F
:100BE00094E00E94410B43E04C0F23E0612F59C079
:100BF000D1E0D80F23E0462F6D2F86ED94E00E94C0
:100C0000410B42E04C0F23E06D2F86ED94E00E94F3
:100C1000410BCF5F23E04C2F602F86ED94E00E94C4
:100C2000590C64E0600F23E04C2F86ED94E00E94A5
:100C3000590C62E0600F24E04C2F86ED94E0DF91C8
:100C4000CF911F910F910C94590CD1E0D80F462FE2
:100C50006D2F86ED94E00E94041363E0600F4C2F2B
:100C600086ED94E00E94041341E04C0F25E0602FD4
:100C700086ED94E00E94410B42E04C0F25E0602F8E
:100C800086ED94E00E94410B43E04C0F23E06D2F72
:100C900086ED94E00E94410B44E04C0F62E0600F4F
:100CA00007C086ED94E00E94410B44E04C0F6D2F8D
:100CB00086ED94E0DF91CF911F910F910C94041376
:100CC000DF91CF911F910F910895CF92DF92EF9214
:100CD000FF920F931F93CF93DF931F92CDB7DEB791
:100CE000E82EF62E142F498347FF02C083E001C08F
:100CF00080E08093F6048093F7040CE028E0DD2484
:100D0000D394DF0C4D2DCC24C394CE0C6C2D86EDEA
:100D100094E00E94640B81E08093F6048093F704D2
:100D200028E04F2D6C2D86ED94E00E94410B28E0C9
:100D30004DE04F0D6C2D86ED94E00E94410B2CE0B0
:100D40004D2D6E2D86ED94E00E94590C2CE04D2D1A
:100D500069E06E0D86ED94E00E94590C17FD23C0EA
:100D6000CE0101960E94F416882329F083E0809337
:100D7000F6048093F704412F50E084E055954795A1
:100D80008A95E1F74370552762E06F0D82E08E0D82
:100D90000E94A5051F70412F50E067E06F0D85E0B0
:100DA0008E0D0E94A9040F90DF91CF911F910F919A
:100DB000FF90EF90DF90CF900895FC0182814181F8
:100DC000882311F06A3010F0842F089596819A30AC
:100DD00018F4292F30E002C02AE030E0261B310948
:100DE00021503109220F822F840F0895CF92DF9274
:100DF000EF92FF920F931F93CF93DF931F92CDB784
:100E0000DEB77C018B016A010E941904DC01E091CC
:100E10004101F0914201ED30F10508F053C0EF5B64
:100E2000FF4F9C910C94F728965FF701908315C0B3
:100E300016962C91169730E02115310539F02430A3
:100E4000310534F421503109220F03C020E001C0E4
:100E500024E0965F290FF701208311968C918C5F17
:100E600017C09750F701908311968C918C5F25C025
:100E7000965FF701908360915C01662311F02EEF7D
:100E800001C024E0CD0129830E94DD062981820F63
:100E9000F8018083F601108215C09750F701908306
:100EA00060915C01662311F02EEF01C024E0CD01BA
:100EB00029830E94DD062981820FF801808381E069
:100EC000F60180830F90DF91CF911F910F91FF90DA
:100ED000EF90DF90CF900895EF92FF920F931F93C2
:100EE000CF93DF937C01FC01C681D0E0CA30D105ED
:100EF00014F02A9702C0C0E0D0E000E010E0F70153
:100F000066816A3018F4862F90E002C08AE090E093
:100F100008171907B4F470E0601B710B6150710978
:100F20006C1B7D0BC7010E946F13602F660FF701CA
:100F30009181690F482F80810E9465060F5F1F4FC6
:100F4000DECFDF91CF911F910F91FF90EF90089529
:100F5000DF92EF92FF920F931F93CF93DF938091D5
:100F60005401882339F041E860914F0180914E018E
:100F70000E946506C0E0D0E060915B01643008F03B
:100F80004FC070E0C617D707ACF46C1B7D0B6150E7
:100F9000710985E591E00E946F132C2F220F90912B
:100FA0005501482F60915601822F890F0E946506D6
:100FB0002196E2CFC5E2D1E000E010E083E0D82E38
:100FC000C8018B5D9E4F7C01FC018681882361F006
:100FD00060E070E0CE010E946F13482FF70161813D
:100FE00088810E9465060BC0D092F604D092F70467
:100FF0002EE04AE0F701618188810E949F17095F16
:101000001F4F27960C311105D9F6CFE5D1E0CE015F
:101010000E946C072796F1E0C039DF07C1F706C0D0
:10102000C330D1053CF663E070E0AFCFDF91CF91E4
:101030001F910F91FF90EF90DF90089580912B0109
:101040008D3061F5809132018D3041F5809139010B
:101050008D3021F5809140018D3001F585E090E0E3
:10106000909301018093000180912401813051F41B
:1010700080914002909141020196909341028093A9
:10108000400209C080913C0290913D0201969093EC
:101090003D0280933C0280E00C946C030895CF9253
:1010A000DF92EF92FF920F931F93CF93DF936C0128
:1010B0007A018B01C0E0D0E0CE15DF0589F0D801C0
:1010C0006D918D01D601ED91FC910190F081E02DA3
:1010D000C6010995892B11F47E0102C02196ECCF3F
:1010E000C701DF91CF911F910F91FF90EF90DF909B
:1010F000CF9008950E941129DC01ED91FC9101909F
:10110000F081E02D0994EF92FF920F931F93CF93FC
:10111000DF938C017B01C0E0D0E0F701EC0FFD1FF5
:101120006491662361F0D801ED91FC910190F0810A
:10113000E02DC8010995892B11F02196EECFCE0143
:10114000DF91CF911F910F91FF90EF90089561155E
:10115000710579F0FB0101900020E9F73197AF01AB
:10116000461B570BDC01ED91FC910280F381E02DD1
:10117000099480E090E008954F925F926F927F9281
:10118000EF92FF920F931F93CF93DF93CDB7DEB70C
:10119000A1970FB6F894DEBF0FBECDBF7C01FA0158
:1011A000CB0119A2223008F42AE08E010F5D1F4FF7
:1011B000422E512C612C712CBF01A30192010E947F
:1011C0006C27F901CA01015011096A3014F4605DFD
:1011D00001C0695CD8016C93232B242B252B61F76C
:1011E000B801C7010E94A708A1960FB6F894DEBF08
:1011F0000FBECDBFDF91CF911F910F91FF90EF9068
:101200007F906F905F904F900895833081F028F425
:10121000813099F08230A1F008958730A9F08830AC
:10122000B9F08430D1F4809180008F7D03C080912B
:1012300080008F7780938000089584B58F7702C0F7
:1012400084B58F7D84BD08958091B0008F7703C0F1
:101250008091B0008F7D8093B00008951F93CF934D
:10126000DF93282F30E0F901E056FA4F8491F9011D
:10127000E457FA4FD491F901E858FA4FC491CC23BE
:10128000C9F0162F81110E940509EC2FF0E0EE0F36
:10129000FF1FEA50FF4FA591B4918FB7F894111139
:1012A00005C09C91ED2FE095E92302C0EC91ED2B58
:1012B000EC938FBFDF91CF911F910895CF93DF9370
:1012C00090E0FC01E457FA4F2491FC01E858FA4FF2
:1012D0008491882361F190E0880F991FFC01E4510B
:1012E000FF4FC591D491FC01EA50FF4FA591B491F5
:1012F000611109C09FB7F894888120958223888363
:10130000EC912E230BC0623061F49FB7F8943881C2
:10131000822F809583238883EC912E2B2C939FBF63
:1013200006C08FB7F894E8812E2B28838FBFDF91FA
:10133000CF9108951F93CF93DF93182FEB0161E0B6
:101340000E945E09209711F460E004C0CF3FD105F0
:1013500039F461E0812FDF91CF911F910C942E0918
:10136000E12FF0E0E056FA4FE491E330F9F048F471
:10137000E130B9F0E230A1F584B5806284BDC8BD2A
:1013800034C0E730E9F0E83019F1E43049F58091F4
:101390008000806280938000D0938B00C0938A008D
:1013A00024C084B5806884BDC7BD1FC08091800003
:1013B000806880938000D0938900C093880015C016
:1013C0008091B00080688093B000C093B3000DC0DE
:1013D0008091B00080628093B000C093B40005C0DB
:1013E000C038D1050CF0B5CFAFCFDF91CF911F91B1
:1013F00008958E3008F08E508770806480937C0052
:1014000080917A00806480937A0080917A0086FDD2
:10141000FCCF809178002091790090E0922B089584
:101420003FB7F8948091460290914702A0914802FC
:10143000B091490226B5A89B05C02F3F19F001962F
:10144000A11DB11D3FBFBA2FA92F982F8827820F4A
:10145000911DA11DB11DBC01CD0142E0660F771F9A
:10146000881F991F4A95D1F708958F929F92AF9246
:10147000BF92CF92DF92EF92FF926B017C010E94AC
:10148000100A4B015C01C114D104E104F104F1F034
:101490000E94100ADC01CB0188199909AA09BB092D
:1014A000883E9340A105B10570F321E0C21AD1082E
:1014B000E108F10888EE880E83E0981EA11CB11C9B
:1014C000C114D104E104F10419F7DDCFFF90EF90CE
:1014D000DF90CF90BF90AF909F908F9008951F9214
:1014E0000F920FB60F9211242F933F938F939F93D8
:1014F000AF93BF9380914F0290915002A0915102FF
:10150000B09152023091450223E0230F2D3720F491
:101510000196A11DB11D05C026E8230F0296A11D4D
:10152000B11D2093450280934F0290935002A093E7
:101530005102B09352028091460290914702A091CD
:101540004802B09149020196A11DB11D8093460247
:1015500090934702A0934802B0934902BF91AF9184
:101560009F918F913F912F910F900FBE0F901F90E1
:1015700018951F920F920FB60F9211242F936F930D
:101580007F938F939F9360914C02662359F18091D2
:1015900044028F5F8093440290914D02891710F1AD
:1015A00020914A0281E0282720934A0210924402A7
:1015B00080914E02882369F08091020193E4899F13
:1015C000802D1124895B809302010E94D72890937B
:1015D0004B02222329F080914B028093B40002C079
:1015E00080E0FBCF9F918F917F916F912F910F9012
:1015F0000FBE0F901F901895FC0161110DC0178A46
:10160000158A14A213A2108E10924B0210924C0253
:1016100010924A021092B4000895EF92FF920F9335
:101620001F93CF93DF931F92CDB7DEB77C018B0161
:10163000411105C060E049830E94FC0A498150E0E5
:10164000FA01EE0FFF1FEE0DFF1D16870587DA0169
:101650001996AA0FBB1FAE0DBF1D1D921C92F7015C
:10166000E40FF51F81E0818389E0868B118E138E54
:10167000158E0F90DF91CF911F910F91FF90EF90FA
:101680000895DF92EF92FF920F931F93CF93DF9312
:101690001F92CDB7DEB78C01D62EF42EE12CE216C8
:1016A00054F46E2D6D0D4F2DC80129830E94041333
:1016B000E3942981F4CF0F90DF91CF911F910F9187
:1016C000FF90EF90DF900895DF92EF92FF920F93DB
:1016D0001F93CF93DF937C01D62FD22EC42F002EE1
:1016E000000C110B040F111D47FD1A954C2F0C2EE9
:1016F000000C550B4017510744F42D2D4C2F6D2F26
:10170000C7010E94410BCF5FF1CFDF91CF911F91B5
:101710000F91FF90EF90DF9008956F927F928F92DC
:101720009F92AF92BF92CF92DF92EF92FF920F9370
:101730001F93CF93DF93EC016A3019F42D819885C4
:10174000A1C06D3009F4A4C01885BA84D98488A0DA
:1017500083E58D150CF47FC08FE28B150CF47BC0F4
:101760008C8190E00197189F9001199F300D1124F2
:10177000C9018D0D911DD7FC9A95181619060CF00C
:101780006AC08D81819FC00111248B0D911DB7FC12
:101790009A95181619060CF05EC09D2CCD2CE62EDD
:1017A000F12CEC2DED190E2E000CFF0B8C8190E02E
:1017B000E817F9070CF04EC00197E817F90779F020
:1017C000E89E9001E99E300DF89E300D1124E20F45
:1017D000F31F8E8D9F8DE80FF91F749001C0712C3F
:1017E0006B2CAB2C2A2D2B19022E000C330B8D8168
:1017F00090E0281739075CF570FE10C0113031F405
:101800004A2D6C2DCE010E9404131DC0012F212FE3
:10181000462D692DCE010E94640B15C089A198A1A7
:10182000891789F088A3113031F44A2D6C2DCE012F
:101830000E94041307C0012F212F462D692DCE01D0
:101840000E94640B88A27694A394610ECBCFC394BC
:10185000910EA7CF88A228853C818985329F800D73
:10186000112489879F81992399F0082E000C990BE8
:1018700044E550E0239F40195109112448175907A6
:101880003CF49D818A85299F800D11248A871986C1
:1018900081E090E0DF91CF911F910F91FF90EF9049
:1018A000DF90CF90BF90AF909F908F907F906F9080
:1018B0000895DF92EF92FF920F931F93CF93DF93E0
:1018C0001F92CDB7DEB78C01D62EF42EE12CE21696
:1018D00054F44E2D4F0D6D2DC80129830E94041321
:1018E000E3942981F4CF0F90DF91CF911F910F9155
:1018F000FF90EF90DF9008950F931F93CF93DF93A6
:1019000000D0CDB7DEB78B01FB0160819A8389835C
:10191000CE0101960E94E412C8010F900F90DF9152
:10192000CF911F910F910895EF92FF920F931F9304
:10193000CF93DF9300D0CDB7DEB78C017B01FB01E5
:1019400060819A838983CE0101960E94E412F70197
:1019500061810F5F1F4F1A830983CE0101960E9498
:10196000E412C7010F900F90DF91CF911F910F915B
:10197000FF90EF9008950F931F93CF93DF938C0107
:10198000EB010E9424278883C80101960E94242726
:101990008983CE01DF91CF911F910F9108950F930D
:1019A0001F93CF93DF931F92CDB7DEB78B010E94B9
:1019B0005C138983CE0101960E94B9136981C80125
:1019C0000E9484130F90DF91CF911F910F91089582
:1019D0000E94A10D8823E1F31092DF041092E0042D
:1019E00061E571E086ED94E00E94830880914202F7
:1019F000909143020E94FD1762E471E086ED94E04D
:101A00000E94830880914002909141020E94FD173C
:101A100063E371E086ED94E00E94830880913E02CA
:101A200090913F020E94FD1764E271E086ED94E020
:101A30000E94830880913C0290913D020E94FD1714
:101A400080919D04813049F080919E04813029F07D
:101A500080919F04813009F0BBCF0895DF92EF920F
:101A6000FF920F931F93CF93DF93EC017B01FB0158
:101A700016820E942427D82E21968E01802F8C1B3F
:101A80008D1550F4C8010E942427682FC7010E94B9
:101A900084130F5F1F4FF2CFF701858190E001960D
:101AA000DF91CF911F910F91FF90EF90DF900895FC
:101AB000CF92DF92EF92FF920F931F93CF93DF931A
:101AC00000D0CDB7DEB77C018B01FB018681898315
:101AD000BE016F5F7F4FC7010E947C0CC12CD12CCF
:101AE000FFEFEF1AFF0AF801858190E0C816D906CA
:101AF000E4F4F801268130E0C216D30694F42C19E0
:101B00003D09B90161507109C8010E946F13970125
:101B10002C0D3D1D3A832983682FCE0101960E942A
:101B2000E412FFEFCF1ADF0ADECF01960F900F907D
:101B3000DF91CF911F910F91FF90EF90DF90CF90A9
:101B400008954F925F926F927F928F929F92AF9281
:101B5000BF92CF92DF92EF92FF920F931F93CF939A
:101B6000DF9300D000D0CDB7DEB74091080550918B
:101B7000090560910A0570910B052FB7F8948091C3
:101B80004F0290915002A0915102B09152022FBF8A
:101B9000481B590B6A0B7B0B8091070590E0A0E076
:101BA000B0E0C0900305D0900405E0900505F090EA
:101BB000060584179507A607B70730F4C114D104AA
:101BC000E104F10409F0FFC2CD28CE28CF2809F0A6
:101BD000F8C280919F0481508E3F08F580919E0449
:101BE000813011F58091B2048F5F6091B30487FD5D
:101BF00009C0082E000C990B70E06F5F7F4F0E94A8
:101C0000E328682F6093B20481E593E090930D057B
:101C100080930C0588E480930E050E94361880910D
:101C20009F0481508E3F70F480919D04813009F0B3
:101C300076C384E493E090930D0580930C0588E4CB
:101C400080930E0580E00E943A198091AE048823AB
:101C500009F4ADC08091C2048111A9C08091BA0479
:101C60009091BB04E091BF04F091C004EE0FFF1F00
:101C7000E80FF91F459154914115510501F5209147
:101C8000BE04222331F01092C0041092BF04FC0164
:101C900014C01092AE048091AD04882341F080E01E
:101CA0000E943A19E091BF04F091C0042FC060E097
:101CB0008DEA94E00E94FC0A7AC0459154919A0101
:101CC000369527953695279540FF51C0CA01B6E055
:101CD00096958795BA95E1F78F71952F969596957C
:101CE000969590512F70223071F1F8F4211117C0A0
:101CF0008B3008F08AE08093C304E091BF04F09138
:101D0000C0043196F093C004E093BF04EE0FFF1FB0
:101D10008091BA049091BB04E80FF91FCECF213017
:101D200061F760E00E947B19E8CF2330B1F02430E6
:101D300021F72091B104829F802D11248093CA0441
:101D40009093CB04DACF2091B104829F802D11248F
:101D50008093C6049093C704D0CF2091B104829F92
:101D6000802D11248093C8049093C904C6CF2F738B
:101D70002093C1048091B104859F802D112480930C
:101D8000C2041092D2041092D1041092D00481E0C7
:101D90008093C40480934A021092C5048091BF04CA
:101DA0009091C00401969093C0048093BF048091E9
:101DB000C404882309F4F3C08091C204811106C0D1
:101DC00060E08DEA94E00E94FC0AE9C081508093B3
:101DD000C2048091D204811148C02091D004309176
:101DE000D1042F5F3F4FC901880F991FE091CC04A8
:101DF000F091CD04E80FF91F65917491862F8770DB
:101E00008093D304AB0163E0569547956A95E1F75B
:101E1000CA0196958795972F969596959093D40499
:101E20008F739091B104899F802D11248093D204E7
:101E3000417040934E023093D1042093D00480919E
:101E4000CE0490E02817390780F02091CF04222398
:101E500039F0821B91099093D1048093D00405C07E
:101E600060E08DEA94E00E94FC0A8091D2048150E7
:101E70008093D2048091C50421E0280F2093C504EB
:101E80004091C1043091D404340F8091B904380FCB
:101E90003093AF046091C804662371F070E0822F24
:101EA000022E000C990B0E94E3288091C904869FA2
:101EB000300D11243093AF048091AF0490E08496EC
:101EC00064E270E00E94E3288093AF043091C30481
:101ED0003093B0046091C604662381F0062E000C96
:101EE000770B822F022E000C990B0E94E328809121
:101EF000C704869F300D11243093B0046091CA044A
:101F00006623A1F0822F220F990B70E00E94E32834
:101F1000CB0162E070E00E94E3282091CB04909115
:101F2000B004289F900D11249093B0048091B004C8
:101F30004F3341F08A300CF089E087FD80E08093D8
:101F4000B00402C01092B004F894E091AF04F0E045
:101F5000E059FE4FE491E0934D023091B00420919E
:101F6000D5043203900111244091D3044203C001EF
:101F7000439F900D11240090B20402C0880F991F56
:101F80000A94E2F797FF02C081589F4F880F892F6C
:101F9000881F990B80934C0280934B027894809118
:101FA0000E05882309F452C08C3020F49CE0D92E11
:101FB000D81A01C0D12CEE24E394E092DE041092F2
:101FC000F6041092F7041091DB043DE2F32ECF2CBF
:101FD000C11ACD0C03E0010F2EE44C2D63E086ED19
:101FE00094E00E94640B145003E00C0D212F41E09B
:101FF000602F80E50E94F419212F42E0602F83E0DA
:102000000E94F419E092F604E092F7048091DB0458
:1020100063E0680FF81A8F2D8D0D0E94B61984E0C9
:102020008093DF048091DB04D81A8D2D815D80932D
:10203000E00460910C0570910D0586ED94E00E941E
:10204000830880910E05815080930E058091A40431
:102050009091A504892B09F48CC011E01093F6042B
:102060001092F7049091DA0485E5891B8093DF04D0
:102070001092E0046091A104613009F45BC030F07B
:102080008091A004653008F06DC068C060E08DEA02
:1020900094E00E94FC0A1092AE041093DE04E2EC7D
:1020A000F1E0E491EF5FE093DA04E3ECF1E0E49136
:1020B000EF5FE093DB0484EC91E09093F504809370
:1020C000F4041092A5041092A4041092DC0418EAFF
:1020D0000E94A10D8823E1F364EB71E086ED94E0AA
:1020E0000E9483084091A2045091A30460E070E034
:1020F0002AE086ED94E00E94BC086FE971E086ED6D
:1021000094E00E948308412F42954F7050E060E0B8
:1021100070E02AE086ED94E00E94BC0864E971E07A
:1021200086ED94E00E94830880919D04813009F03F
:10213000FCC01FC08091F9049091FA04A091FB04A7
:10214000B091FC048F709927AA27BB270897A10597
:10215000B10510F467E009C068E707C0882349F0BB
:102160006B5F03C0882329F06FE286ED94E00E9444
:102170007C080E94B0188091DC0481110EC088EFA9
:1021800091E0E4E5F2E0DF019C011D922150304036
:10219000E1F71092DF041092E0040E94100A6093AD
:1021A000030570930405809305059093060520911F
:1021B000FF0430910005621B730B7093FE04609363
:1021C000FD0480E0CCC02FB7F89480914F0290912D
:1021D0005002A0915102B09152022FBF20910705E9
:1021E000820F911DA11DB11D8093080590930905D3
:1021F000A0930A05B0930B058091F9049091FA041D
:10220000A091FB04B091FC040196A11DB11D809327
:10221000F9049093FA04A093FB04B093FC04109289
:1022200003051092040510920505109206050E9400
:10223000100A6093FF04709300058093010590934A
:1022400002058091890490918A042FE0289F8001E3
:10225000299F100D112485E10E94F909800F911F1B
:1022600024E0969587952A95E1F790938A048093C8
:10227000890420918804222309F44BC060918C04C6
:10228000262F30E040E050E029833A834B835C8383
:10229000C0908D04D12CE12CF12C409190045091F0
:1022A00091044A01A12CB12C20918E0430918F040D
:1022B0002901612C712C8217930728F09C01481783
:1022C000590708F49A01C901A0E0B0E09C01AD01F2
:1022D000241935094609570969817A818B819C81C6
:1022E0006C197D098E099F090E94C728A5019401D8
:1022F00024193509460957090E943A27C20ED31EF0
:10230000E41EF51EC0928B046C2D70E085E00E94E7
:102310009A090E943D180E94571A81E020C0893214
:1023200009F090CC0E9403198DCC115009F0D0CE49
:1023300060E070E085E00E949A0983B7817F846045
:1023400083BF83B7816083BF83B7816083BF889574
:1023500083B78E7F83BF83B78E7F83BFB9CE0F9045
:102360000F900F900F90DF91CF911F910F91FF90E1
:10237000EF90DF90CF90BF90AF909F908F907F9025
:102380006F905F904F9008952F923F924F925F927F
:102390006F927F928F929F92AF92BF92CF92DF9275
:1023A000EF92FF920F931F93CF93DF9300D000D053
:1023B0001F92CDB7DEB7382E292EB62E1092DC0430
:1023C0002FEF2A8319821C8200E31D82662E712C56
:1023D0008FEF860F8B83AA24A3940E94A10D8823DC
:1023E000E1F380919D04002E000C110B8130A1F1CE
:1023F00090919E04913081F180919F04813009F485
:10240000B6C0998191113CC080919C048F3F21F00E
:102410008370813009F49FC080919A048F3F21F02E
:102420008370813009F49DC0ED818E2F0E2E000C3B
:10243000990B8615970529F0E7FF04C0FB81FD8302
:1024400001C01D828091DB0494E0980F2D81829F52
:10245000901911249C831FC09091DB0491959B9D42
:10246000902D112492509C83813009F088C040E067
:1024700068E671E08DEA94E00E940D0B2D812A83BD
:10248000C801EC818E1B9109E7FD939502970CF42E
:102490007EC0F1E0F9832C81020F111D27FD1A95F2
:1024A00017FF02C00F5F1F4F7801F594E7941E2DB0
:1024B0000E2D1092DF04E092E004A092DE04109250
:1024C000DD04C32CD22C812C912C8D81482E880FB9
:1024D000550886149704D9F08414950461F493E0A8
:1024E0009093DF048091DB04E12FFD81F89FE00DE4
:1024F0001124E093E004F601859194910E94F01874
:102500002FEF821A920A82E0C80ED11CE2CF1092FD
:10251000F6041092F7048091DB044E2D9D81989F64
:10252000400D1124415024E560E086ED94E00E94C6
:10253000410BA092F604A092F7048091DB0463E0C3
:10254000680FEE2DFD81F89FE00D11248E2F825033
:102550000E94B61942CF8D818F5F8D830E943618FD
:102560005BCF9D8191509D830E9436185DCF8091F5
:10257000DB0481958B9D802D112482508C8340E05B
:1025800060E671E08DEA94E00E940D0B79CF8A81BC
:102590000F900F900F900F900F90DF91CF911F91A0
:1025A0000F91FF90EF90DF90CF90BF90AF909F90F2
:1025B0008F907F906F905F904F903F902F900895F5
:1025C000089580E090E00895EF92FF920F931F939B
:1025D000CF93DF931F92CDB7DEB77C01FC01008162
:1025E0001181C80169830E9424276981681719F045
:1025F000C8010E942C27C7010F90DF91CF911F9136
:102600000F91FF90EF900895FC01643508F053C0DE
:10261000403308F050C090A1742F7595759575954D
:10262000262F062E000C330B542F57709230A1F436
:10263000F901EC5AFD4F84E57802E00DF11D1124FB
:10264000808190E0052E02C0959587950A94E2F767
:102650008095982F91700AC0933041F484858170E1
:10266000462740954170841303C014C0911112C0D5
:1026700084E57802200D311D1124F901EC5AFD4F3B
:1026800081E090E001C0880F5A95EAF7809590812B
:10269000892310C084E57802200D311D1124F90131
:1026A000EC5AFD4F81E090E001C0880F5A95EAF79F
:1026B0009081892B80830895DC0116969C91169752
:1026C000992359F01396ED91FC9114979150169619
:1026D0009C93E90FF11D8081089581E00895DC014C
:1026E00016962C91169730E0621773075CF4261B40
:1026F000370B1396ED91FC911497E20FF31F31976E
:102700008081089581E00895FC0126818581281744
:1027100048F48381948131E0320F3683FC01E20F6B
:10272000F11D60830895FC0183819481009711F06D
:102730000C94302608950F931F93CF93DF938C0151
:10274000FC0116826583C62FD0E0CE010E949B2536
:10275000FC01C80FD91F21E0EC17FD0711F02193F0
:10276000FBCFF80194838383DF91CF911F910F9169
:102770000895FC01908197FF02C09F7701C0906887
:1027800090830895DF92EF92FF920F931F93CF9360
:10279000DF931F92CDB7DEB700E010E0D12CC80167
:1027A000815A9E4F7C01FC018681882381F0C701FC
:1027B0000E945C13898387FF06C0CE0101960E94A8
:1027C000B913DD24D3946981C7010E948413095F82
:1027D0001F4F0133110519F70E941E0810925C016A
:1027E000AE014F5F5F4F6DE571E08EE591E00E94B5
:1027F000F6068D2D0F90DF91CF911F910F91FF90D5
:10280000EF90DF900895CF93DF9300D000D000D0F9
:10281000CDB7DEB70E94190420914C0130914D01D3
:102820003B832A839D838C83409115054F704E8393
:102830000E94861781E090E090930101809300014F
:102840000E94C2134E81811140685A816B817C8144
:102850008D810E94CB1726960FB6F894DEBF0FBE6F
:10286000CDBFDF91CF9108952F923F924F925F920B
:102870006F927F928F929F92AF92BF92CF92DF9290
:10288000EF92FF920F931F93CF93DF93CDB7DEB7F5
:1028900027970FB6F894DEBF0FBECDBF40E2842E5F
:1028A00045E0942ECE0101965C0181E08093DC042A
:1028B0009091F804992309F4BDC08093DE0410922E
:1028C000DD041092DC041092A0048093F60480933F
:1028D000F7040E94A10D8823E1F3F4018491882379
:1028E00019F01091DB0401C010E068E873E080E0AB
:1028F0000E94941A6EEF73E08CE0810F0E94941A8C
:102900001092DF04FCE0F093E00460E275E086EDF5
:1029100094E00E9483088091DA04982F990F890F20
:1029200081958D5A8093DF048091DB04982F990F55
:10293000890F8195835D8093E0048091F90484FF81
:1029400003C084E893E002C080E893E00E94F0189E
:102950008091DA04982F990F890F81958D5A809371
:10296000DF048091E0048F5F8093E0048091B204E3
:10297000882319F08CE793E002C088E793E00E9477
:10298000F0188091DA04982F990F890F81958D5A4C
:102990008093DF048091E0048F5F8093E00484E7FC
:1029A00093E00E94F01880919E048130A1F4809100
:1029B000B2048F5F6091B30487FD09C0082E000C3C
:1029C000990B70E06F5F7F4F0E94E328682F609340
:1029D000B2040E94361880919D048130B9F0809134
:1029E000F804482F50E060E070E00091F904109185
:1029F000FA042091FB043091FC0404171507260704
:102A0000370708F4D0C18F3F09F4CDC18FEF809311
:102A1000F80460E08DEA94E00E94FC0A1092AE0493
:102A200040E068E671E08DEA94E00E940D0B81E0E1
:102A30008093A004C090A204D090A304C094D0942A
:102A4000E12CF12C0E94100A2B013C010E94100A7B
:102A5000A301920120953095409550956095709511
:102A6000809590950E94C7289B01AC01C701B601D3
:102A70000E94C7282B013C01C0908904D0908A0491
:102A8000E12CF12C0E94100ADC01CB018C0D9D1D64
:102A9000AE1DBF1DBC01CD01640D751D861D971DAA
:102AA000611571058105910511F00E941B27109297
:102AB000A004109286041092870410924201109292
:102AC000410110925C018BE080935E0184E0809371
:102AD0005D0110925B0110925401E12CF12CC701B1
:102AE00034E0880F991F3A95E1F7082F006811E04C
:102AF000612F602B8EE491E00E9484131F5F1E30D3
:102B0000B9F72FEFE21AF20A84E0E816F10439F778
:102B100000E010E02091540130E0021713077CF52B
:102B20007901E01AF10A49F00E9416279701FF0C7B
:102B3000440B550B0E943A2703C060E070E0CB01C4
:102B40002091510130915201F901E60FF71F908158
:102B5000A0915401B0E0A01BB10BA20FB31F1197BD
:102B60008C91808380915401E82FF0E0E01BF10B01
:102B7000E20FF31F319790830F5F1F4FCBCF10925F
:102B80002B0110923201109239011092400180E025
:102B900090E0FC01E15AFE4F1682079681339105C1
:102BA000C1F7109238029FE5E92E91E0F92E370126
:102BB00000E010E026E0222E302E330C2801C12C3C
:102BC000D12C8EE491E00E945C138F8304151505CF
:102BD00021F4CE0107960E94B91340913802D50125
:102BE000E22D1D92EA95E9F7F1E0F983249EC001F8
:102BF000112480579E4FF501DC01322D01900D927A
:102C00003A95E1F7E1E0DC011296EC931297139606
:102C10001C921397F301EC0DFD1D308114963C932B
:102C200014973181330D15963C93159711964C925C
:102C300011973F813C9381E0840F80933802FFEF2E
:102C40004F1A5F0A27E0C20ED11C87E048165104D4
:102C500009F0B7CF0F5F1F4F97E0690E711C073067
:102C6000110509F0A9CF10923802109201011092BB
:102C7000000180E090E00E9424278A3A09F05AC0BF
:102C800062E472E081E090E00E94BB0C60E472E0DC
:102C900083E090E00E94BB0C6EE372E085E090E080
:102CA0000E94BB0C6CE372E087E090E00E94BB0CDA
:102CB00089E090E00E9424278823D1F181E080936D
:102CC00053028AE090E00E942427809324016EE45E
:102CD00071E08BE090E00E942E0D8C01055F1F4F8C
:102CE00065E571E0C8010E942E0D080F191F85E2ED
:102CF000C82E81E0D82EB601C8010E942E0D080F03
:102D0000191FA7E0CA0ED11CB1E4CB16B1E0DB0657
:102D100091F7B701C8010E942E0D080F191FE7E0B7
:102D2000EE0EF11CF0E9EF16F1E0FF0691F702C09C
:102D30001092530280915302882361F080E00E9438
:102D40006C0381E090E0909301018093000133C017
:102D50000E94E80C63E088EF93E00E94C4118F3F6B
:102D600009F4A3CD81110DC081E0809324018091ED
:102D70004202909143020196909343028093420253
:102D80000EC0813029F783E08093240180913E02B8
:102D900090913F02019690933F0280933E0280E023
:102DA0000E946C0308C080919F04813009F091CD8E
:102DB0000E9403198ECD27960FB6F894DEBF0FBE82
:102DC000CDBFDF91CF911F910F91FF90EF90DF90DA
:102DD000CF90BF90AF909F908F907F906F905F90BB
:102DE0004F903F902F900895FC01208130E084E0C7
:102DF000359527958A95E1F72370332781E02230B6
:102E0000310529F02330310511F080E0089508954F
:102E1000AF92BF92CF92DF92EF92FF920F931F93E8
:102E2000CF93DF93182F062FC1E0D3E08AEFD82E7F
:102E30009EEFE92E842F8470C82E842F8270B82EC6
:102E4000842F8870A82E4170F42E8C2F880F8F5FEE
:102E5000E80ECC2081F04D2F400F6C2F610F86EDD6
:102E600094E00E9404134C2F400F6D2F610F86EDEC
:102E700094E00E940413BB2081F0402F4D1B6C2F67
:102E8000610F86ED94E00E940413402F4C1B6D2FC0
:102E9000610F86ED94E00E940413AA2081F04C2F6C
:102EA000400F612F6D1B86ED94E00E9404134D2F9F
:102EB000400F612F6C1B86ED94E00E940413FF20ED
:102EC00081F0402F4C1B612F6D1B86ED94E00E941A
:102ED0000413402F4D1B612F6C1B86ED94E00E9464
:102EE0000413CD1744F4E7FC04C0D150D394D39419
:102EF000ED0CCF5FAACFDF91CF911F910F91FF9083
:102F0000EF90DF90CF90BF90AF9008950F931F93F5
:102F1000CF93DF938C01C0911505D0E0219750F03D
:102F2000BE018FE095E00E946F13682FC8010E94D8
:102F30008413F4CFDF91CF911F910F9108950F93D8
:102F40001F93CF93DF93C82F162FD42F022F242F38
:102F5000462F682F86ED94E00E94410B4FEF400F03
:102F6000410F2D2F6C2F86ED94E00E94410B202FF6
:102F7000412F6C2F86ED94E00E94590CD1506D2F9B
:102F80006C0F202F412F86ED94E0DF91CF911F91A0
:102F90000F910C94590CCF93DF9300D000D01F9267
:102FA000CDB7DEB749835A836B837C838D83A09131
:102FB000860491E09A0F9093860485E08A9FD00161
:102FC0001124AC5ABB4FFE01319601900D928A95A7
:102FD000E1F79A3010F010928604809187048F5F99
:102FE0008B3008F08AE0809387040F900F900F9049
:102FF0000F900F90DF91CF910895CF92DF92EF92D3
:10300000FF92CF93DF936C01990FEE08FF08F7FE54
:1030100016C06DE286ED94E00E947C08EC01442726
:103020005527BA014C195D096E097F092AE086ED22
:1030300094E00E94BC087C01EC0EFD1E08C02AE052
:10304000B701A60186ED94E00E94BC087C0169E10D
:1030500071E086ED94E00E94A7088E0D9F1DDF9120
:10306000CF91FF90EF90DF90CF90089540E064EB18
:1030700075E08DEA94E00C940D0BCF92DF92EF9205
:10308000FF920F931F93CF93DF93C2E9D4E009E936
:1030900014E0FF24FA9497E0E92EE00E62E08881C4
:1030A0000E945E09288130E0F901E056FA4F8491D0
:1030B000F901E457FA4FC490F901E858FA4FD49057
:1030C000DD2071F081110E940509ED2DF0E0EE0F79
:1030D000FF1FE259FA4FA591B491EC91EC21B1F4A4
:1030E000F80180818F5F808360E088810E945E09A3
:1030F00021960F5F1F4FE012D1CFDF91CF911F912B
:103100000F91FF90EF90DF90CF900895F8018081AC
:10311000882371F3F8018F3F11F41082E5CFF0821C
:10312000E3CFCF93C82FF89460E08091E5040E942C
:103130002E098091E60418161CF460E00E942E0906
:10314000CEBD00000DB407FEFDCF8EB58091E60424
:1031500018161CF461E00E942E097894CF9108950E
:103160000F931F93CF938091E2048F5F8093E204CB
:1031700004E512E0C0E08C2F80640E94911880E882
:103180000E94911861E08091E5040E942E098091CF
:10319000E60418161CF460E00E942E0980E090E01E
:1031A000F801E80FF91F20812EBD00000DB407FEC5
:1031B000FDCF2EB501968435910591F78091E604F7
:1031C00018161CF461E00E942E09CF5F0C5A1F4FA5
:1031D000C63089F680E4CF911F910F910C9491181D
:1031E000CF93DF93BC0186ED94E00E948308EC014D
:1031F00069E171E086ED94E00E94A7088C0F9D1FA5
:10320000DF91CF91089588EF91E0E4E5F2E0DF01EE
:103210009C011D9221503040E1F71092DF04109282
:10322000E00466E475E086ED94E00E9483080E9465
:10323000B0188CB583608CBD8DB58E7F8DBD8CE153
:1032400091E0EEEFFFE309951092DC0481E295E056
:103250000E94F0180E94B0180E943D1880919D04B1
:10326000813039F062E370E080E090E00E94350A3E
:10327000F3CF0895CF93DF93482F50E0EA01C8576A
:10328000DB4F9DA19923A1F19EA1911131C09EA573
:10329000FA01EE0FFF1FE157FB4F35A126A1E32FE7
:1032A000F22FE90FF11DE90FF11D259134912F3F08
:1032B0009FEF390711F41DA21BC039AB440F551FF6
:1032C000FA01EE56FB4F3327220F331F05A0F6A15C
:1032D000E02DE20FF31F65917491811105C040E06C
:1032E0008DEA94E00E940D0B29968DA18F5F8DA32E
:1032F000DF91CF91089570E0DB01AA0FBB1FA857A3
:10330000BB4FD4962C91D497D5969C91D597E22F0C
:10331000F92FE80FF11DE80FF11D259134915F960B
:1033200096963C932E939597F9018591949190915F
:10333000B104989F802D112468577B4FFB01B196F3
:1033400085A3F901A591B4914B2F50E0E82FF0E04F
:103350004E175F0720F4F90125913491832FFB016B
:10336000B296899F802D112485A308951F93CF9332
:10337000DF93C82F162F2EE4482F63E086ED94E0EC
:103380000E94410BDC2FD10F4FEF4D0F2EE463E075
:1033900086ED94E00E94410B1650CD5F212F4C2FFB
:1033A00060E086ED94E00E94590C212F4C2F63E5DC
:1033B00086ED94E00E94590C41E06C2F83E00E945E
:1033C000081742E06C2F80E50E940817D45044E0B3
:1033D0006D2F80E50E94081748E06D2F83E0DF9194
:1033E000CF911F910C9408179F92AF92BF92CF92EA
:1033F000DF92EF92FF920F931F93CF93DF93F82EFC
:10340000E62EB22E03E0020FD0E0C3E08AEFC82E12
:103410001EEF842F8170982EAA24A394A20E4270CE
:10342000D42EDF5F802F8B19180F9920A1F02C2F3D
:10343000220F2A0D4E2D4C1B6D2F6F0D86ED94E043
:103440000E94590C202F4E2D4D1B6C2F6F0D86EDB9
:1034500094E00E94590CDD20A1F02C2F220F2A0DA0
:103460004E2D4C1B6F2D6D1B86ED94E00E94590C68
:10347000202F4E2D4D1B6F2D6C1B86ED94E00E946E
:10348000590CDC1744F417FD04C0C150C394C39415
:103490001C0D0E5FC6CFDF91CF911F910F91FF9052
:1034A000EF90DF90CF90BF90AF909F900895809164
:1034B000A4049091A504892BB1F18091AC048F7183
:1034C00069F584E10E94F909BC01990F880B990BF9
:1034D0000E94CE2726EE3FE34EEC50E40E943228B5
:1034E0000E949D279B017093A3046093A204672B05
:1034F00091F084E08093A104E4EAF4E080E041915B
:1035000051912417350718F48093A10408958F5F13
:103510008430A9F703C08FEF8093A1048091AC049D
:103520008F5F8093AC0408958F929F92AF92BF9269
:10353000CF92DF92EF92FF920F931F93CF93DF937F
:10354000FB0124913196C490F090F604022E000CF9
:10355000330B121613060CF0D7C080330CF0D4C016
:10356000482F082E000C550BFA01EC0DF11DC7FC7D
:10357000FA951E161F060CF0C7C06E5F7F4FD9016B
:10358000179693E0B595A7959A95E1F787FF0BC03D
:10359000C80EA49FC001A59F900DB49F900D11244B
:1035A000681B790B80E04C2D0C2C000C550B480F40
:1035B000511D87FD5A95413351051CF090E3C92EEA
:1035C000C81A2535310514F024E530E01091E204E5
:1035D0001827982F977031E001C0330F9A95EAF7BA
:1035E000859585958595F4E58F02C00111248C5A47
:1035F0009D4F00E00C2C000CDD08BB24B394402F41
:1036000050E04C155D050CF07FC0FB01E490F1E04B
:10361000FF1218C0FB01EC0140E8542F5E2119F0A5
:103620005881532B588350E05595479541155105C6
:1036300019F43196E49040E821965C2F581B5217FC
:1036400060F359C0F1101AC0A32EA094FB01EC0145
:1036500040E8542F5E2119F058815A21588350E0D8
:10366000559547954115510519F43196E49040E878
:1036700021965C2F581B521760F33DC043E0F412B3
:1036800023C0932E9094FB01EC0140E8A82E8C2ED1
:10369000881A542F5E2141F08126588180FE02C095
:1036A000532B01C05921588350E05595479541153A
:1036B000510519F43196E49040E821965C2F5A198F
:1036C000521728F31B2517C0FB01EC0140E8542FCB
:1036D0005E2119F058815327588350E0559547953E
:1036E0004115510519F43196E49040E821965C2F7C
:1036F000581B521760F3330F19F48C5A9F4F31E067
:103700000F5F6A0F7B1F7BCFDF91CF911F910F91CE
:10371000FF90EF90DF90CF90BF90AF909F908F90F1
:103720000895CF93DF93CDB7DEB72B970FB6F894FC
:10373000DEBF0FBECDBF789484B5826084BD84B5F2
:10374000816084BD85B5826085BD85B5816085BD9C
:1037500080916E00816080936E0010928100809154
:1037600081008260809381008091810081608093DC
:103770008100809180008160809380008091B10001
:1037800084608093B1008091B00081608093B0002C
:1037900080917A00846080937A0080917A008260C0
:1037A00080937A0080917A00816080937A00809182
:1037B0007A00806880937A001092C10082E380933F
:1037C000070581E090E0A0E0B0E0809303059093CE
:1037D0000405A0930505B09306058FEF8093F804C8
:1037E000E0E8F7E7259134912130304C09F049C0E9
:1037F000E6E9F7E7E491E093E104E7E9F7E7E4912C
:10380000E0938C04E8E9F7E7E491E0938D04E9E9BB
:10381000F7E78591949190938F0480938E04EBE960
:10382000F7E785919491909391048093900488E0B8
:103830008093B304EEE9F7E7E491E093B204EFE993
:10384000F7E7E491E093F804E0EAF7E785919491D3
:103850009093A5048093A404E2EAF7E785919491FC
:103860009093A7048093A604E4EAF7E785919491E6
:103870009093A9048093A804E6EAF7E785919491D0
:103880002CC09CE39093E10410928C0480938D04EF
:1038900080E293E090938F0480938E0484ED93E014
:1038A000909391048093900488E08093B304809374
:1038B000B2048CEA9DE09093A5048093A4048EED5D
:1038C0009DE09093A7048093A60484E79EE09093E4
:1038D000A9048093A8048CE39FE09093AB048093A9
:1038E000AA0411E0109388046FEF70E085E00E9455
:1038F0009A0988E08093920489E08093930487E09A
:103900008093940486E08093950404E000939604E9
:1039100082E08093970481E1809398040E943D188F
:103920008CE39FE09093A3048093A2040093A104EE
:103930001093AC048BE08093E4048DE08093E30467
:1039400080E18093E5048EE08093E7048FE080932C
:10395000E6041093DE041093F6041092F70410931B
:10396000DD04E2ECF1E0E491EF5FE093DA04E3ECF4
:10397000F1E0E491EF5FE093DB0484EC91E090935D
:10398000F5048093F4041FB7F894809139028111F3
:1039900027C0E2E8F5E08491E6E9F5E09491E82FAC
:1039A000F0E0EE0FFF1FE451FF4FA591B491EC91B1
:1039B000E92321F461E08AE00E942E0961E08AE0B7
:1039C0000E945E098CB580618CBD8CB580648CBD15
:1039D00061E08DE00E945E0961E08BE00E945E097B
:1039E000809139028F5F809339021FBF8CB58F7D24
:1039F0008CBD8CB58C7F81608CBD8DB581608DBD9B
:103A00008CB58C608CBD61E08091E4040E945E09FD
:103A100061E08091E3040E945E0961E08091E50429
:103A20000E945E098091E70418161CF461E00E9470
:103A30005E098091E60418161CF461E00E945E099C
:103A40008091E704181674F460E00E942E096AE081
:103A500070E080E090E00E94350A61E08091E70428
:103A60000E942E098091E304082E000C990BFC01A2
:103A7000E858FA4FE491F0E0EE0FFF1FEA50FF4FD5
:103A8000259134913093EB042093EA04FC01E45730
:103A9000FA4FE491E093F1048091E404082E000CC5
:103AA000990BFC01E858FA4FE491F0E0EE0FFF1F8C
:103AB000EA50FF4F259134913093E9042093E804B4
:103AC000FC01E457FA4FE491E093F0048091E6049E
:103AD000082E000C990BFC01E858FA4FE491F0E035
:103AE000EE0FFF1FEA50FF4F259134913093ED0404
:103AF0002093EC04FC01E457FA4FE491E093F204C4
:103B00008091E504082E000C990BFC01E858FA4F4F
:103B1000E491F0E0EE0FFF1FEA50FF4F2591349142
:103B20003093EF042093EE04FC01E457FA4FE49144
:103B3000E093F30481E20E94911884E10E949118BD
:103B40008091E10487FF03C08FE78093E1048091B7
:103B5000E10480680E94911880E20E9491188CE034
:103B60000E9491180E94B01881E08093B10484E013
:103B70008093D50488EE90E09093BD048093BC04BC
:103B800060E080E00E947B1961E070E083E00E94C9
:103B90009A098091B100887F81608093B100F89488
:103BA0001092800010928100109285001092840083
:103BB00088E191E090938900809388008091810052
:103BC0008860809381008091810081608093810072
:103BD00080916F00826080936F0078940E94571AE2
:103BE00080919E04813009F0D0C11092B20485E228
:103BF00080932501109226011092270181E3809382
:103C00002C0110922D0110922E018DE3809333012F
:103C1000109234011092350189E480933A01109298
:103C20003B0110923C01E1E6F1E080E020E191E00F
:103C3000DF01129731E0380F3C9311962C9390835B
:103C4000845F37968435A1F781E080934E0110920E
:103C50004F01109250018DE0809355011092560152
:103C60000E94341488248394912C34E0E32EF12CA8
:103C70000E94A10D882309F480C180919F048130A6
:103C800009F09EC08091000190910101019731F4EB
:103C900080918704882321F065E003C063E001C0C0
:103CA00064E08EE091E00E94C411823051F024F46F
:103CB000813009F460C161C1833031F0843041F05A
:103CC0005CC10E94E80CDECF81E00E946C0353C10E
:103CD00080918704882309F450C12091000130911C
:103CE00001012130310509F048C1909186049111FC
:103CF00002C099E001C09150909386048150809356
:103D00008704E091860485E0E89FF0011124EC5AD5
:103D1000FB4F0081A180B280C380D48006FF0EC01B
:103D200010E080912401181708F0D4C06EE471E00F
:103D300085E591E00E94CF0C1F5FF3CF05FF0CC01B
:103D400080915401882309F4C5C065E571E08EE4D3
:103D500091E00E94CF0CF4CF07FF04C0B501C5016C
:103D60000E94CF0C10921505D60116968C910F70FB
:103D7000282F30E010E0201731070CF48901801B58
:103D8000F6018683612C712C60167106A9F0D601AC
:103D900016968C9116971396ED91FC911497E60D5B
:103DA000F71DE80FF11D60818FE095E00E948413FC
:103DB000BFEF6B1A7B0AE8CFC5010E9486178AC045
:103DC00080910001909101018130910509F0EAC0D4
:103DD000C0904101D090420180919B04813009F450
:103DE000F9C380919904813009F405C480919C0441
:103DF000813009F411C480919A04813009F427C4F8
:103E000020919E048091410190914201213009F05E
:103E1000C4C4863091050CF051C4019709F44EC416
:103E20008091410190914201C816D90611F010927B
:103E30005C0100910001109101010530110511F0A4
:103E40000E94A8070230110509F439C30CF4FCC024
:103E50000430110509F041C000914C0110914D0151
:103E6000D80112968C911297882309F495C316965F
:103E70002C91D22EDD0CF801608180910F050E94FB
:103E8000EA0380930F05D80111966C916D0D809116
:103E900010050E94EA03809310058FE095E00E94D0
:103EA0006C0790910F05F8018081981366C080918E
:103EB000100590E041812D2D30E0240F311D821737
:103EC000930709F05AC0C8010E9486179092010119
:103ED000809200010E94C21350C0043011050CF4FE
:103EE00039C30530110509F048C08091DC04811107
:103EF00007C081E08093DC040E94A8070E9446046A
:103F000020914A0130914B0120583F4F30934B0193
:103F100020934A014091440150914501809148010C
:103F200090914901840F951F90934501809344011E
:103F30008091460190914701820F931F8130F2E2F8
:103F40009F070CF02BC3909347018093460160912B
:103F5000470140914301809145010E94650680918F
:103F6000440190914501965F81309E4530F00E945A
:103F70004604811102C00E94341480E090E0892B35
:103F800009F476CE0E94000070CE8091A1048823AF
:103F900009F42BCE40E060E071E08DEA94E00E94ED
:103FA0000D0B25CE039709F044CF80919B048130FF
:103FB00079F480914101909142018530910541F061
:103FC0008C30910529F00196909342018093410134
:103FD00080919904813079F480914101909142015E
:103FE0008130910541F08630910529F00197909339
:103FF00042018093410180919C04813071F4809151
:104000004101909142018130910509F05BC487E044
:1040100090E0909342018093410180919A04813015
:1040200069F48091410190914201893091050CF42D
:104030004FC40797909342018093410180919D0462
:10404000813009F0F6CE4CC40115110529F001307C
:10405000110509F487C091CF809138028C31A8F402
:104060004091F9045091FA046091FB047091FC04B2
:104070004370552766277727452B462B472B29F476
:104080008F5F809338020E94E3038091380291E0B1
:104090008C3109F090E0E3E9CE2EE1E0DE2E05E977
:1040A00011E0F2E9AF2EF1E0BF2E612C712C282E29
:1040B000312C621473040CF052C0D5018C91F801BC
:1040C00022912F01821306C0D6013C91F801208174
:1040D0003217C9F1F6E0F69D9001F79D300D1124DD
:1040E00020573E4FD9014C91F60160812A873B87CA
:1040F0000E946506D2014C90642DF50180810E94DA
:10410000EA03982FD5018C93F8015080652DD601D4
:104110008C9199870E94EA03F601808399852A850C
:104120003B8594110FC085110DC0F8013497808133
:10413000F7E0F89FC0011124D9016C91815A9E4F7C
:104140000E94841390E0BFEF6B1A7B0AE6E0CE0E6C
:10415000D11C0A5F1F4FF6E0AF0EB11CAACF911120
:10416000F4C10BCFAE01485F5F4FBE016A5F7F4F66
:10417000CE0107960E94F6066F8180915E010E9433
:10418000EA03D82E80935E016E8180915D010E94CA
:10419000EA03182F80935D01888503E00D0D76E01A
:1041A000C72EC10EA12CB12C882309F4C1C0442410
:1041B0004394772473944092F6044092F704512E6E
:1041C0005A0C302E3A0C452D632D86ED94E00E945A
:1041D00004136C2C6A18462D632D86ED94E00E9422
:1041E00004131092F6041092F7042A2D452D602F27
:1041F00086ED94E00E94410B2A2D462D602F86ED1E
:1042000094E00E94410B2FEFA21AB20A44E0A416D8
:10421000B10479F67092F6047092F70427E0412F0A
:1042200062E06D0D86ED94E00E94590C22E042E0C0
:10423000410F6D2D86ED94E00E94410B22E044E099
:10424000410F6D2D86ED94E00E94410B03E0010FBC
:10425000402F6D2D86ED94E00E9404131092F60419
:104260001092F70422E0402F61E06D0D86ED94E09E
:104270000E94410BC0905C01CC2009F47ECE0E94CC
:1042800019046C2D70E00E946F13C82E89838F7003
:10429000A82EB12C8A3011F030E001C032E081E06C
:1042A0008093F6048093F7045D2D531B4DE0430F7C
:1042B00029E06FEF610F84EF850F3B8759870E94DC
:1042C0009F171092F6041092F704402F6D2D86ED83
:1042D00094E00E9404133B852BE0230F598565EF82
:1042E000650F07E0412F86ED94E00E94640BCE013C
:1042F00001960E94F416811102C081E001C083E0A2
:104300008093F6048093F7041F5FA501612F86EF69
:104310008D0D0E94A9044C2D50E064E05595479501
:104320006A95E1F743705527612F8AEF8D0DC4C060
:1043300033243394772473943092F6043092F70444
:10434000412E4A0C442D602F86ED94E00E94041308
:104350005C2C5A18452D602F86ED94E00E940413C2
:104360001092F6041092F70466246394600E2A2DCE
:10437000442D662D86ED94E00E94410B2A2D452D9B
:10438000662D86ED94E00E94410B8FEFA81AB80AC3
:10439000015094E0A916B10469F67092F604709287
:1043A000F70427E0412F34E0B32EBD0C6B2D86EDD2
:1043B00094E00E94590C22E042E0410F05E00D0D0F
:1043C000602F86ED94E00E94410B22E044E0410F13
:1043D000602F86ED94E00E94410B43E0C42EC10E95
:1043E00006E00D0D4C2D602F86ED94E00E94041325
:1043F0001092F6041092F70422E04C2D6B2D86EDFE
:1044000094E00E94410BB0905C01BB2009F4B5CD53
:104410000E9419046B2D70E00E946F13782E89831F
:104420008F70A82EB12C8A3011F0612C02C092E05E
:10443000692E81E08093F6048093F70429E04DE033
:10444000460D6FEF610F802F0E949F171092F604A8
:104450001092F7044C2D602F86ED94E00E94041317
:1044600007E02BE0260D412F67E06D0D86ED94E00F
:104470000E94640BCE0101960E94F416811102C0C5
:1044800081E001C083E08093F6048093F7041F5F0E
:10449000062D0D0DA501612F88E0800F0E94A90453
:1044A000472D50E084E0559547958A95E1F7437094
:1044B0005527612F8CE0800F0E94A5055ECD8FE00F
:1044C00095E00E946C0761E180910F050E94EA036C
:1044D000182F80930F0560E0809110050E94EA0379
:1044E00080931005113109F048CD811146CD60E06F
:1044F00070E08FE095E00E946F13682F85E591E0F2
:104500000E94841380913A028823B1F081508093F5
:104510003A02109215056FE075E08EE491E00E947A
:10452000CF0C80914E0180930F0580914F018093B5
:1045300010050E94E30321CDA0E4A98340E45A8141
:104540006B817C818D810E94CB17909201018092BA
:10455000000113CD8FE095E00E946C070E941904C2
:104560006C01FC018281882321F01681110F1E5FEE
:1045700001C012E0D6016C9180910F050E94EA0300
:1045800080930F05F6016181610F809110050E94F3
:10459000EA0380931005F1CCD12C6DCC80E092E23F
:1045A00090934701809346014CEF4203C001439F23
:1045B000900D112465E070E00E94E32870934B0198
:1045C00060934A0140E068E171E08DEA94E00E9466
:1045D0000D0BBDCCB5E0CB16D10409F402CCECE058
:1045E000CE16D10409F4FDCBC60101969093420189
:1045F00080934101F6CB8091410190914201009757
:1046000009F4F4CB8630910509F4F0CB019790932F
:10461000420180934101EACB80915C01882321F023
:10462000815080935C01E7CB8091410190914201E0
:104630008230910514F4069605C0863091050CF081
:10464000DACB07969093420180934101D4CBA0909E
:104650004101B09042018501065011090730110552
:1046600078F40E94190470905C01672D70E06F5F10
:104670007F4FDC0116962C9130E06217730764F0CF
:10468000B8E0AB16B10484F0E7E0AE1AB108B0921E
:104690004201A0924101B4CB0E946F1387FDF0CF7D
:1046A000739470925C01ACCBF6E0AF16B1040CF4DD
:1046B000A7CB1093420100934101A2CB0E941904A1
:1046C0008C01DC0116968C91882309F4A9CB60E05B
:1046D00070E0C8010E946F13612C712C282F2F707D
:1046E000F301EB5DFE4F5F018681811120C0213017
:1046F00009F04AC010921505D8018C9180930F05DE
:1047000060E0C8010E94DD0680931005C8010E9488
:104710005C13682F8FE095E00E948413B0924D01E6
:10472000A0924C01F0920101E09200016CC060E0A7
:1047300070E0CF012A870E946F13582E60E070E06E
:10474000C8010E946F13652D70E094E07595679520
:104750009A95E1F763707727482F50E024E055954C
:1047600047952A95E1F7437055272A856417750701
:1047700059F4452D4F7050E04F5F5F4F8F7090E0C0
:104780004817590709F4B6CFB7E06B0E711CECE17E
:104790006E16710409F0A4CF43CB20919D04213003
:1047A00009F03ECB81309105A9F184F5892B09F000
:1047B00037CB80915401882309F470C010921505FD
:1047C0006FE075E08EE491E00E94CF0C80914E0185
:1047D00080930F0580914F018093100590912401E3
:1047E00080915401492F50E0282F30E024173507DD
:1047F00014F08FEF890F80933A0282E090E090935B
:104800000101809300010E94E3030ACB06970797FA
:1048100008F006CB0E9419045C0190934D0180932F
:104820004C01DC0116968C911697882309F4F8CA7E
:10483000109215058C9180930F0560E0C5010E94D0
:10484000DD0680931005F501868100915C0110E082
:10485000282F30E00F5F1F4F201731070CF489011C
:10486000801BD50116968C93612C712C60167106F5
:1048700091F0F50186810380F481E02DE60DF71DAE
:10488000E80FF11D60818FE095E00E948413FFEF37
:104890006F1A7F0AEBCF83E090E0B1CF80915B018C
:1048A000882339F06EE471E085E591E00E94CF0C39
:1048B000F5CF40E249835A816B817C818D810E94D2
:1048C000CB17AECA863091050CF0A7CB0796A1CBCB
:1048D00006970CF4B3CB9092420180924101AECB8B
:1048E00040E068E171E08DEA94E00E940D0B809158
:1048F000410190914201863091050CF04EC082300A
:1049000091050CF446C080911505813009F083C0F3
:104910000E941904DC0116962C9160E070E02111D0
:1049200009C08FE095E00E946F138F70813009F00D
:1049300072C02AC00E946F13182F60E070E08FE0F1
:1049400095E00E946F13612F70E0A4E07595679564
:10495000AA95E1F763707727482F50E0B4E05595AA
:104960004795BA95E1F7437055276417750709F025
:1049700052C0212F2F7030E02F5F3F4F8F7090E09B
:104980002817390709F047C00E9403140E941E0827
:1049900050CA019709F43FC04CCA0D970CF049CAA0
:1049A0000E941904FC012681222331F160E070E0AD
:1049B0000E946F138E836091150570E0615071093C
:1049C0008FE095E00E946F13182F8983CE01069621
:1049D0000E94F416082FCE0101960E94F4160817C3
:1049E000D1F02E812F7030E01F70812F90E0019662
:1049F0002817390781F40CC06091150570E06150EB
:104A000071098FE095E00E946F138F708D3019F45B
:104A10000E9403140ECAF0920101E092000109CA3B
:104A2000CF93DF93C0E9D1E02797CE010E94931383
:104A300081E0CF35D807C1F78AE391E00E94931354
:104A400083E391E00E9493138CE291E00E94931320
:104A500085E291E00E94931385E591E00E94931313
:104A60008EE491E00E9493138FE095E0DF91CF9167
:104A70000C9493131092D9041092D80481E191E020
:104A80009093D7048093D6046DE08FE095E00E9468
:104A90009B1364E38EE491E00E949B1368E185E53B
:104AA00091E00E949B136DE085E291E00E949B13D0
:104AB0006DE08CE291E00E949B136DE083E391E056
:104AC0000E949B136DE08AE391E00E949B1364E1D6
:104AD0008FE591E00E949B1364E186E691E00E94DD
:104AE0009B1364E18DE691E00E949B1364E184E7EF
:104AF00091E00E949B1364E18BE791E00E949B137D
:104B000064E182E891E00E949B1364E189E891E00E
:104B10000E949B131092870410928604E0E9F1E052
:104B200081E08083369692E0E833F907D1F781E09F
:104B3000809343010895CF93DF938230910510F461
:104B400082E090E0E0911805F091190520E030E056
:104B5000C0E0D0E0309711F14081518148175907EA
:104B6000C0F04817590761F482819381209719F0AA
:104B70009B838A832BC0909319058093180526C0C8
:104B80002115310519F04217530718F49A01BE0197
:104B9000DF01EF010280F381E02DDCCF211531052B
:104BA00009F1281B390B2430310590F412968D91B0
:104BB0009C9113976115710521F0FB01938382830A
:104BC00004C09093190580931805FD01329644C0E6
:104BD000FD01E20FF31F81939193225031092D9330
:104BE0003C933AC02091160530911705232B41F4D0
:104BF0002091050130910601309317052093160589
:104C000020910301309104012115310541F42DB7A4
:104C10003EB74091070150910801241B350BE091EC
:104C20001605F0911705E217F307A0F42E1B3F0BB2
:104C30002817390778F0AC014E5F5F4F241735070E
:104C400048F04E0F5F1F5093170540931605819350
:104C5000919302C0E0E0F0E0CF01DF91CF910895A1
:104C60000F931F93CF93DF93009709F48CC0FC013F
:104C700032971382128200911805109119050115BF
:104C8000110581F420813181820F931F2091160537
:104C9000309117052817390779F5F0931705E09338
:104CA000160571C0D80140E050E0AE17BF0750F4C0
:104CB00012962D913C911397AD012115310509F103
:104CC000D901F3CF9D01DA013383228360817181A1
:104CD000860F971F8217930769F4EC0128813981A9
:104CE000260F371F2E5F3F4F318320838A819B81A0
:104CF00093838283452B29F4F0931905E0931805DB
:104D000042C01396FC93EE931297ED01499159918D
:104D10009E01240F351FE217F30771F48081918102
:104D2000840F951F029611969C938E938281938196
:104D300013969C938E931297E0E0F0E0D8011296C0
:104D40008D919C911397009719F0F8018C01F6CF83
:104D50008D919C9198012E5F3F4F820F931F209160
:104D60001605309117052817390769F4309729F48B
:104D7000109219051092180502C013821282109326
:104D8000170500931605DF91CF911F910F9108959C
:104D90008F929F92AF92BF92CF92DF92EF92FF924B
:104DA000CF93DF93EC01688179818A819B816115C2
:104DB00071058105910521F464E279ED8BE597E0B9
:104DC0002DE133EF41E050E00E943A2749015A01BA
:104DD0009B01AC01A7EAB1E40E9459276B017C0159
:104DE000ACEEB4EFA50194010E946727DC01CB0172
:104DF0008C0D9D1DAE1DBF1DB7FF03C00197A109FE
:104E0000B04888839983AA83BB83BC01CD019F7777
:104E1000DF91CF91FF90EF90DF90CF90BF90AF9058
:104E20009F908F9008950E94C826089589E091E090
:104E30000E94C82608956093090170930A01809327
:104E40000B0190930C010895F999FECF92BD81BD9D
:104E5000F89A992780B50895262FF999FECF1FBAA1
:104E600092BD81BD20BD0FB6F894FA9AF99A0FBE93
:104E700001960895052E97FB1EF400940E94512779
:104E800057FD07D00E946C2707FC03D04EF40C940A
:104E9000512750954095309521953F4F4F4F5F4F8B
:104EA000089590958095709561957F4F8F4F9F4F96
:104EB00008950E948E27A59F900DB49F900DA49FEA
:104EC000800D911D11240895B7FF0C9459270E945D
:104ED0005927821B930B0895A1E21A2EAA1BBB1B14
:104EE000FD010DC0AA1FBB1FEE1FFF1FA217B307B6
:104EF000E407F50720F0A21BB30BE40BF50B661FCC
:104F0000771F881F991F1A9469F76095709580958F
:104F100090959B01AC01BD01CF010895A29FB00106
:104F2000B39FC001A39F700D811D1124911DB29FDD
:104F3000700D811D1124911D08950E94112888F083
:104F40009F5798F0B92F9927B751B0F0E1F0660F4D
:104F5000771F881F991F1AF0BA95C9F714C0B1308E
:104F600091F00E942B28B1E008950C942B28672F14
:104F7000782F8827B85F39F0B93FCCF386957795BD
:104F80006795B395D9F73EF49095809570956195A6
:104F90007F4F8F4F9F4F0895E89409C097FB3EF4D1
:104FA00090958095709561957F4F8F4F9F4F992376
:104FB000A9F0F92F96E9BB279395F69587957795F4
:104FC0006795B795F111F8CFFAF4BB0F11F460FFB4
:104FD0001BC06F5F7F4F8F4F9F4F16C0882311F00C
:104FE00096E911C0772321F09EE8872F762F05C020
:104FF000662371F096E8862F70E060E02AF09A95BB
:10500000660F771F881FDAF7880F9695879597F9AF
:10501000089557FD9058440F551F59F05F3F71F0A8
:105020004795880F97FB991F61F09F3F79F087950F
:105030000895121613061406551FF2CF4695F1DF98
:1050400008C0161617061806991FF1CF8695710528
:10505000610508940895E894BB2766277727CB015C
:1050600097F908950E9445280C94B6280E94A82814
:1050700038F00E94AF2820F0952311F00C949F285F
:105080000C94A52811240C942C280E94092870F354
:10509000959FC1F3950F50E0551F629FF001729FDD
:1050A000BB27F00DB11D639FAA27F00DB11DAA1FEC
:1050B000649F6627B00DA11D661F829F2227B00D39
:1050C000A11D621F739FB00DA11D621F839FA00DC4
:1050D000611D221F749F3327A00D611D231F849F14
:1050E000600D211D822F762F6A2F11249F5750406B
:1050F0009AF0F1F088234AF0EE0FFF1FBB1F661FE6
:10510000771F881F91505040A9F79E3F510580F0AE
:105110000C949F280C942C285F3FE4F3983ED4F322
:10512000869577956795B795F795E7959F5FC1F752
:10513000FE2B880F911D9695879597F9089597F9FD
:105140009F6780E870E060E008959FEF80EC08952D
:1051500000240A9416161706180609060895002456
:105160000A9412161306140605060895092E0394D0
:10517000000C11F4882352F0BB0F40F4BF2B11F444
:1051800060FF04C06F5F7F4F8F4F9F4F0895DB011B
:105190008F939F930E945927BF91AF91A29F800D3B
:1051A000911DA39F900DB29F900D11240895991BFE
:1051B00079E004C0991F961708F0961B881F7A950E
:1051C000C9F78095089597FB072E16F4009407D031
:1051D00077FD09D00E94FD2807FC05D03EF490958C
:1051E00081959F4F0895709561957F4F0895EE0FBB
:1051F000FF1F0590F491E02D0994AA1BBB1B51E100
:1052000007C0AA1FBB1FA617B70710F0A61BB70B36
:10521000881F991F5A95A9F780959095BC01CD01DB
:10522000089581E090E0F8940C94162912E0CEEDF8
:10523000D2E004C0FE010E94F7282196CF3DD1079D
:06524000C9F7F894FFCF4E
:1052460001000100001A05800001000000000000B6
:10525600008D0B4F08E112E0120D0A004C4F41443D
:0452660045520000AD
:00000001FF
