:100000000C94D7020C94FF020C94FF020C94FF0294
:100010000C94FF020C94FF020C94FF020C94FF025C
:100020000C94FF020C94FF020C94FF020C94B10A92
:100030000C94FF020C94FF020C94FF020C94FF023C
:100040000C94670A0C94FF020C94FF020C94FF02BC
:100050000C94FF020C94FF020C94FF020C94FF021C
:100060000C94FF020C94FF02B104CE04DD04F304EF
:10007000F904FF040905170525052F054A055F0545
:1000800076050C07100729072907290729073007D4
:100090003007300745074507450745070101FF03BE
:1000A0000101F7035361766520666F72206C6174FD
:1000B00065720047616D652073746174697374695A
:1000C000637300517569742067616D6500526573D3
:1000D000756D652067616D6500A0009C00000000E3
:1000E00000240027002A0000000000250028002B23
:1000F000000500893008023802497868140000CDF4
:1001000000C300B300A4004500080100004500182A
:100110000100004861726420776F6E3A2020202031
:1001200020004861726420737461727465643A20BF
:10013000004561737920776F6E3A202020202000DF
:100140004561737920737461727465643A2000F6B6
:10015000E8DBCFC3B8AEA49B928A827B746E6862E0
:100160005C57524E4945413E3A3734312E2C2927AF
:100170002523210A0A153A49676E6F7265006D568C
:100180000A0A504C45415345205455524E204F4683
:100190004620004C4F57204241545445525921208B
:1001A0000003053F213F1208120A100A0E1C0E0C14
:1001B0001E0C141A14161F161E131E1E1B1E1E1FA5
:1001C0001E3F213F3A2F3A173D173F213F181F028C
:1001D000040A041F0E04040E1F0A1F0A0E0E1F0439
:1001E000110E2E252E2F2A2E262929021F02081F26
:1001F00008150E04040E150E15151B151B04060418
:10020000040C040000000017000300031F0A1F165F
:10021000371A1904130A153A000300000E11110EC3
:10022000000A040A040E0400300004040400100054
:100230001804031F111F121F101D151711151F077A
:10024000041F17151D1F151D01011F1F151F171551
:100250001F000A00003200040A110A0A0A110A04E7
:100260000115020E11171E051E1F150A0E110A1F79
:10027000110E1F15111F05010E111D1F041F111F47
:100280001108100F1F041B1F10101F061F1E040F44
:100290000E110E1F09060E112E1F051A1215090147
:1002A0001F011F101F0F180F1F0C1F1B041B031C07
:1002B00003191513001F11030418111F0002010276
:1002C0002020200001020C121E1F120C0C12120C16
:1002D000121F0C1A14041E05242A1E1F021C141DB2
:1002E0001020201D1F0814111F101E041E1E021CAA
:1002F0000C120C3E0A040C123E1E040214160A02D2
:100300000F120E101E0E100E1E081E120C122628A2
:100310001E322A26041E21001F00211E0401020194
:100320003F213F172B152010204C4F4144455200D0
:10033000172B16201314004E657720686172642015
:1003400067616D65004E657720656173792067612F
:100350006D6500175344001613780016131400152A
:1003600010200015201000540A03E181867F3E18FA
:100370006D830F0F0E0183866033186DC3198F18BC
:1003800003C38E6033186DE330CF1803C39E60360D
:1003900030CDE360CF3006C79E7E3E30CDB360CF18
:1003A000300CC6F6603330D9B660CF33CFCCF660B0
:1003B00061B0DB1E60CF30D86CE6C061B0DB1E617F
:1003C0008F19986CC6C063B19B0E330F0FB078C6FF
:1003D000FF7E1F1B061E0F45033703B3004024009A
:1003E000008000012400000084800001040000005F
:1003F0008880000104000000908F161D24CE0000AC
:10040000A099993325990000C090912125110000F1
:10041000A0909121261F00009090912125100000AE
:100420008899913325980000848F111D24CF0000F6
:1004300000000000000000000000000000000000BC
:10044000101C700E00100000103EF83F80100000DD
:10045000383EF83F803800007C3FF83F807C000049
:10046000FE3FF9DF70FE0001FF1FF3FFF9FF0003FD
:10047000FF8FF3FFFBFF8003FF8FE3FFF9FF000314
:10048000FF87C3F5F8FE0001D70381E4F07C00008C
:1004900010038004003800003801000E0010000036
:1004A000FE01003F8010000000000000000000007E
:1004B00000009000400000003C00820000000000AE
:1004C00044008200000000004078979C4B380000F8
:1004D00060CC92024C6400001884920248440000F0
:1004E0000C84921E487C0000048492224840000044
:1004F00044CC9222486000007878939E483C0000EB
:100500000A4E6F2053442063617264206F720A6E3A
:100510006F204C4F414445522E4845580A0A153A1F
:1005200045786974001D20466C617368696E670ABE
:1005300020206C6F616465722E2E2E0A0A444F4E85
:100540002754205455524E204F46462100000000AB
:100550000023002600290004040404040404040207
:100560000202020202030303030303010204081050
:10057000204080010204081020010204081020001D
:100580000000080002010000030407000000000052
:100590000000004500680100000500680138010006
:1005A000000500380168010000002D2403241124F7
:1005B0001FBECFEFD8E0DEBFCDBF11E0A0E0B1E0BD
:1005C000ECE2F0E502C005900D92A432B107D9F734
:1005D00025E0A4E2B1E001C01D92AA31B207E1F723
:1005E00012E0C6EDD2E004C02197FE010E94EA2786
:1005F000C53DD107C9F70E94551B0C9409280C94DE
:10060000000042E0460F23E0682F86ED94E00C9452
:10061000390B44E0460F23E0682F86ED94E00C94FC
:10062000390B462F23E0682F86ED94E00C94390BAC
:10063000462F23E0682F86ED94E00C94510C42E0A5
:10064000460F23E0682F86ED94E00C94510C42E0B5
:10065000460F62E0680F23E086ED94E00C94510CA5
:10066000CF93DF93C82FD62F0E9411036D2F8C2FAD
:100670000E9418036D2F8C2F0E9401036D2F8C2F69
:100680000E9427036D2F8C2FDF91CF910C940903CB
:10069000462F62E0680F23E086ED94E00C94510C45
:1006A000CF93DF93C82FD62F0E9418036D2F8C2F66
:1006B0000E9401036D2F8C2F0E9448036D2F8C2FF9
:1006C000DF91CF910C942703EF92FF920F931F932A
:1006D000CF93DF9300D0CDB7DEB7182F1A821982DF
:1006E0006AEACE0101960E94A71166E772E081E0F6
:1006F00090E00E948C0C64E772E083E090E00E943E
:100700008C0C62E772E085E090E00E948C0C60E760
:1007100072E087E090E00E948C0C89E090E09A8380
:100720008983612FCE0101960E94A7111123D1F177
:1007300060E471E08AE090E00E94740C62E871E08D
:100740008BE090E00E94370D8C01055F1F4F69E838
:1007500071E0C8010E94370D080F191F94E2E92EBD
:1007600091E0F92EB701C8010E94370D080F191F3B
:1007700087E0E80EF11C80E4E81681E0F80691F7C6
:1007800083E9E82E81E0F82EB701C8010E94370DF9
:10079000080F191F87E0E80EF11C84ECE81681E0D1
:1007A000F80691F70F900F90DF91CF911F910F9165
:1007B000FF90EF90089540E06DE071E08DEA94E0E5
:1007C0000C94050B1F93CF93DF93C82F162F86171A
:1007D00021F1862F90E08C1B910963E070E00E946C
:1007E000D627D62F611117C06091F9047091FA04D1
:1007F0008091FB049091FC0423E030E040E050E065
:100800000E945F26672B682B692B29F4C11710F013
:10081000DFEF01C0D1E08D2F8C0FDF91CF911F91C1
:10082000089580917501909176018630910554F478
:1008300082309105A4F40097E9F00197D1F429E8FA
:1008400031E01AC08D309105A4F4069747E0489F27
:100850009001499F300D11242D563E4F0DC0029737
:1008600047E0489F9001499F300D11242C5D3E4F79
:1008700003C0089522E831E0C9010895CF93DF93C2
:10088000C0916F0287E0C89FE0011124CC5DDE4F6C
:100890008E81882309F451C0CE010E941F128093DB
:1008A0007701888110927801809379018981109273
:1008B0007A0180937B010E94092622E030E040E02B
:1008C00050E00E942D26672B682B692B19F4CFEF7F
:1008D000DFEF02C0C1E0D0E00E94092620E031E055
:1008E00040E050E00E942D26DC01CB019F5FAF4F1E
:1008F000BF4FC89F9001C99F300DD89F300D112464
:1009000030937D0120937C010E94092620E032E093
:1009100040E050E00E942D26719561957109709319
:100920007F0160937E0180916F0290E00196837059
:10093000992780936F0281E001C080E0DF91CF9121
:1009400008950F931F93CF93DF93FA013197ED3002
:10095000F10508F0EDC0D62FC82FEC5CFF4F0C94CA
:10096000EA2711E0180F462F612F86ED94E00E94D0
:10097000C71101E00D0F24E0402F6C2F86ED94E0AD
:100980000E94510C62E06C0F24E0402F86ED94E051
:100990000E94510C42E04D0F612F89C00E9411034B
:1009A0006D2F8C2F0E9448036D2F8C2F0E94010306
:1009B0006D2F8C2F0E941F030EC00E9411036D2FFC
:1009C0008C2F0E9448036D2F8C2F0E9401036D2FE6
:1009D0008C2F0E9427036D2F8C2FDF91CF911F91B9
:1009E0000F910C940903DF91CF911F910F910C94FB
:1009F0005003DF91CF911F910F910C9430030E940F
:100A000030036D2F8C2FDF91CF911F910F910C949C
:100A10001F030E9411036D2F8C2F0E9448036D2F1E
:100A20008C2FDF91CF911F910F910C9427030E947F
:100A300030036D2F8C2F0E941F036D2F8C2FDF91A1
:100A4000CF911F910F910C9448030E9450036D2F7A
:100A50008C2FDF91CF911F910F910C9411030E9465
:100A600011036D2F8C2F0E9448036D2F8C2F0E9435
:100A700027036D2F8C2F0E9409036D2F8C2F0E944E
:100A80001F036D2F8C2F0E9418036EEF6C0F25E053
:100A90004D2F46C00E9448036D2F8C2F0E942703C4
:100AA0006D2F8C2F0E94090343E04D0F6C2F86EDB4
:100AB00094E0DF91CF911F910F910C94C7110E9488
:100AC00011036D2F8C2F0E9448036D2F8C2F0E94D5
:100AD000180343E04D0F23E06C2F86ED94E00E9455
:100AE000390B44E04D0F61E06C0FE1CF0E94180319
:100AF0006D2F8C2F0E941F0342E04D0F61E06C0FA1
:100B000086ED94E00E94C711CE5F22E04D2F6C2F3E
:100B100086ED94E00E94510C43E04D0F22E06C2FD3
:100B200086ED94E0DF91CF911F910F910C94510CC1
:100B3000DF91CF911F910F9108950F931F93CF9342
:100B4000DF93082FC62F4130510509F449C00CF539
:100B5000452B09F0ADC0D2E0D80F462F6D2F86EDA2
:100B600094E00E94C71141E04C0F61E0600F23E068
:100B700086ED94E00E94390B42E04C0F25E0602F97
:100B800086ED94E00E94390B43E04C0F25E0602F86
:100B900080C04230510509F450C04330510509F07E
:100BA00087C0D2E0D80F462F6D2F86ED94E00E94CB
:100BB000C71111E0100F41E04C0F23E0612F86EDCB
:100BC00094E00E94390B42E04C0F25E0602F86ED47
:100BD00094E00E94390B43E04C0F23E0612F59C091
:100BE000D1E0D80F23E0462F6D2F86ED94E00E94D0
:100BF000390B42E04C0F23E06D2F86ED94E00E940C
:100C0000390BCF5F23E04C2F602F86ED94E00E94DC
:100C1000510C64E0600F23E04C2F86ED94E00E94BD
:100C2000510C62E0600F24E04C2F86ED94E0DF91E0
:100C3000CF911F910F910C94510CD1E0D80F462FFA
:100C40006D2F86ED94E00E94C71163E0600F4C2F7A
:100C500086ED94E00E94C71141E04C0F25E0602F23
:100C600086ED94E00E94390B42E04C0F25E0602FA6
:100C700086ED94E00E94390B43E04C0F23E06D2F8A
:100C800086ED94E00E94390B44E04C0F62E0600F67
:100C900007C086ED94E00E94390B44E04C0F6D2FA5
:100CA00086ED94E0DF91CF911F910F910C94C711C5
:100CB000DF91CF911F910F910895CF92DF92EF9224
:100CC000FF920F931F93CF93DF931F92CDB7DEB7A1
:100CD000E82EF62E142F498347FF02C083E001C09F
:100CE00080E08093F6048093F7040CE028E0DD2494
:100CF000D394DF0C4D2DCC24C394CE0C6C2D86EDFB
:100D000094E00E945C0B81E08093F6048093F704EA
:100D100028E04F2D6C2D86ED94E00E94390B28E0E1
:100D20004DE04F0D6C2D86ED94E00E94390B2CE0C8
:100D30004D2D6E2D86ED94E00E94510C2CE04D2D32
:100D400069E06E0D86ED94E00E94510C17FD23C002
:100D5000CE0101960E94CE15882329F083E080936E
:100D6000F6048093F704412F50E084E055954795B1
:100D70008A95E1F74370552762E06F0D82E08E0D92
:100D80000E949D051F70412F50E067E06F0D85E0C8
:100D90008E0D0E94A1040F90DF91CF911F910F91B2
:100DA000FF90EF90DF90CF900895FC018281418108
:100DB000882311F06A3010F0842F089596819A30BC
:100DC00018F4292F30E002C02AE030E0261B310958
:100DD00021503109220F822F840F0895CF92DF9284
:100DE000EF92FF920F931F93CF93DF931F92CDB794
:100DF000DEB77C018B016A010E941104DC01E091E5
:100E00007501F0917601ED30F10508F053C0EF5B0C
:100E1000FF4F9C910C94EA27965FF701908315C0D1
:100E200016962C91169730E02115310539F02430B3
:100E3000310534F421503109220F03C020E001C0F4
:100E400024E0965F290FF701208311968C918C5F27
:100E500017C09750F701908311968C918C5F25C035
:100E6000965FF701908360919001662311F02EEF59
:100E700001C024E0CD0129830E94D5062981820F7B
:100E8000F8018083F601108215C09750F701908316
:100E900060919001662311F02EEF01C024E0CD0196
:100EA00029830E94D5062981820FF801808381E081
:100EB000F60180830F90DF91CF911F910F91FF90EA
:100EC000EF90DF90CF900895EF92FF920F931F93D2
:100ED000CF93DF937C01FC01C681D0E0CA30D105FD
:100EE00014F02A9702C0C0E0D0E000E010E0F70163
:100EF00066816A3018F4862F90E002C08AE090E0A4
:100F000008171907B4F470E0601B710B6150710988
:100F10006C1B7D0BC7010E943212602F660FF70118
:100F20009181690F482F80810E945D060F5F1F4FDE
:100F3000DECFDF91CF911F910F91FF90EF90089539
:100F4000DF92EF92FF920F931F93CF93DF938091E5
:100F50008801882339F041E8609183018091820102
:100F60000E945D06C0E0D0E060918F01643008F01F
:100F70004FC070E0C617D707ACF46C1B7D0B6150F7
:100F8000710989E891E00E9432122C2F220F909172
:100F90008901482F60918A01822F890F0E945D0686
:100FA0002196E2CFC4E2D1E000E010E083E0D82E49
:100FB000C8018C5D9E4F7C01FC018681882361F015
:100FC00060E070E0CE010E943212482FF70161818B
:100FD00088810E945D060BC0D092F604D092F7047F
:100FE0002EE04AE0F701618188810E947916095F4D
:100FF0001F4F27960C311105D9F6C3E9D1E0CE0178
:101000000E9464072796F1E0C43CDF07C1F706C0E1
:10101000C330D1053CF663E070E0AFCFDF91CF91F4
:101020001F910F91FF90EF90DF90089580912A011A
:101030008D3061F5809131018D3041F5809138011D
:101040008D3021F580913F018D3001F585E090E0F4
:10105000909301018093000180914001813051F40F
:10106000809174029091750201969093750280931D
:10107000740209C080917002909171020196909360
:1010800071028093700280E00C9464030895CF9203
:10109000DF92EF92FF920F931F93CF93DF936C0138
:1010A0007A018B01C0E0D0E0CE15DF0589F0D801D0
:1010B0006D918D01D601ED91FC910190F081E02DB3
:1010C000C6010995892B11F47E0102C02196ECCF4F
:1010D000C701DF91CF911F910F91FF90EF90DF90AB
:1010E000CF9008950E940428DC01ED91FC910190BD
:1010F000F081E02D0994EF92FF920F931F93CF930D
:10110000DF938C017B01C0E0D0E0F701EC0FFD1F05
:101110006491662361F0D801ED91FC910190F0811A
:10112000E02DC8010995892B11F02196EECFCE0153
:10113000DF91CF911F910F91FF90EF90089561156E
:10114000710579F0FB0101900020E9F73197AF01BB
:10115000461B570BDC01ED91FC910280F381E02DE1
:10116000099480E090E008954F925F926F927F9291
:10117000EF92FF920F931F93CF93DF93CDB7DEB71C
:10118000A1970FB6F894DEBF0FBECDBF7C01FA0168
:10119000CB0119A2223008F42AE08E010F5D1F4F07
:1011A000422E512C612C712CBF01A30192010E948F
:1011B0005F26F901CA01015011096A3014F4605D1B
:1011C00001C0695CD8016C93232B242B252B61F77C
:1011D000B801C7010E949F08A1960FB6F894DEBF20
:1011E0000FBECDBFDF91CF911F910F91FF90EF9078
:1011F0007F906F905F904F900895833081F028F436
:10120000813099F08230A1F008958730A9F08830BC
:10121000B9F08430D1F4809180008F7D03C080913B
:1012200080008F7780938000089584B58F7702C007
:1012300084B58F7D84BD08958091B0008F7703C001
:101240008091B0008F7D8093B00008951F93CF935D
:10125000DF93282F30E0F901E158FA4F8491F9012A
:10126000E559FA4FD491F901E95AFA4FC491CC23C8
:10127000C9F0162F81110E94FD08EC2FF0E0EE0F4F
:10128000FF1FE951FF4FA591B4918FB7F894111149
:1012900005C09C91ED2FE095E92302C0EC91ED2B68
:1012A000EC938FBFDF91CF911F910895CF93DF9380
:1012B00090E0FC01E559FA4F2491FC01E95AFA4FFC
:1012C0008491882361F190E0880F991FFC01E3521B
:1012D000FF4FC591D491FC01E951FF4FA591B49105
:1012E000611109C09FB7F894888120958223888373
:1012F000EC912E230BC0623061F49FB7F8943881D3
:10130000822F809583238883EC912E2B2C939FBF73
:1013100006C08FB7F894E8812E2B28838FBFDF910A
:10132000CF9108951F93CF93DF93182FEB0161E0C6
:101330000E945609209711F460E004C0CF3FD10508
:1013400039F461E0812FDF91CF911F910C94260930
:10135000E12FF0E0E158FA4FE491E330F9F048F47E
:10136000E130B9F0E230A1F584B5806284BDC8BD3A
:1013700034C0E730E9F0E83019F1E43049F5809104
:101380008000806280938000D0938B00C0938A009D
:1013900024C084B5806884BDC7BD1FC08091800013
:1013A000806880938000D0938900C093880015C026
:1013B0008091B00080688093B000C093B3000DC0EE
:1013C0008091B00080628093B000C093B40005C0EB
:1013D000C038D1050CF0B5CFAFCFDF91CF911F91C1
:1013E00008958E3008F08E508770806480937C0062
:1013F00080917A00806480937A0080917A0086FDE3
:10140000FCCF809178002091790090E0922B089594
:101410003FB7F89480917A0290917B02A0917C0270
:10142000B0917D0226B5A89B05C02F3F19F001960B
:10143000A11DB11D3FBFBA2FA92F982F8827820F5A
:10144000911DA11DB11DBC01CD0142E0660F771FAA
:10145000881F991F4A95D1F708958F929F92AF9256
:10146000BF92CF92DF92EF92FF926B017C010E94BC
:10147000080A4B015C01C114D104E104F104F1F04C
:101480000E94080ADC01CB0188199909AA09BB0945
:10149000883E9340A105B10570F321E0C21AD1083E
:1014A000E108F10888EE880E83E0981EA11CB11CAB
:1014B000C114D104E104F10419F7DDCFFF90EF90DE
:1014C000DF90CF90BF90AF909F908F9008951F9224
:1014D0000F920FB60F9211242F933F938F939F93E8
:1014E000AF93BF938091830290918402A091850273
:1014F000B09186023091790223E0230F2D3720F43A
:101500000196A11DB11D05C026E8230F0296A11D5D
:10151000B11D209379028093830290938402A0935B
:101520008502B093860280917A0290917B02A0910D
:101530007C02B0917D020196A11DB11D80937A02BB
:1015400090937B02A0937C02B0937D02BF91AF91F8
:101550009F918F913F912F910F900FBE0F901F90F1
:1015600018951F920F920FB60F9211242F936F931D
:101570007F938F939F9360918002662359F18091AE
:1015800078028F5F8093780290918102891710F121
:1015900020917E0281E0282720937E02109278021B
:1015A00080918202882369F08091020193E4899FEF
:1015B000802D1124895B809302010E94CA27909399
:1015C0007F02222329F080917F028093B40002C021
:1015D00080E0FBCF9F918F917F916F912F910F9022
:1015E0000FBE0F901F901895FC0161110DC0178A56
:1015F000158A14A213A2108E10927F0210928002FC
:1016000010927E021092B4000895EF92FF920F9311
:101610001F93CF93DF931F92CDB7DEB77C018B0171
:10162000411105C060E049830E94F40A498150E0FD
:10163000FA01EE0FFF1FEE0DFF1D16870587DA0179
:101640001996AA0FBB1FAE0DBF1D1D921C92F7016C
:10165000E40FF51F81E0818389E0868B118E138E64
:10166000158E0F90DF91CF911F910F91FF90EF900A
:101670000895DF92EF92FF920F931F93CF93DF9322
:101680001F92CDB7DEB78C01D62EF42EE12CE216D8
:1016900054F46E2D6D0D4F2DC80129830E94C71182
:1016A000E3942981F4CF0F90DF91CF911F910F9197
:1016B000FF90EF90DF900895DF92EF92FF920F93EB
:1016C0001F93CF93DF937C01D62FD22EC42F002EF1
:1016D000000C110B040F111D47FD1A954C2F0C2EF9
:1016E000000C550B4017510744F42D2D4C2F6D2F36
:1016F000C7010E94390BCF5FF1CFDF91CF911F91CE
:101700000F91FF90EF90DF9008956F927F928F92EC
:101710009F92AF92BF92CF92DF92EF92FF920F9380
:101720001F93CF93DF93EC016A3019F42D819885D4
:10173000A1C06D3009F4A4C01885BA84D98488A0EA
:1017400083E58D150CF47FC08FE28B150CF47BC004
:101750008C8190E00197189F9001199F300D112402
:10176000C9018D0D911DD7FC9A95181619060CF01C
:101770006AC08D81819FC00111248B0D911DB7FC22
:101780009A95181619060CF05EC09D2CCD2CE62EED
:10179000F12CEC2DED190E2E000CFF0B8C8190E03E
:1017A000E817F9070CF04EC00197E817F90779F030
:1017B000E89E9001E99E300DF89E300D1124E20F55
:1017C000F31F8E8D9F8DE80FF91F749001C0712C4F
:1017D0006B2CAB2C2A2D2B19022E000C330B8D8178
:1017E00090E0281739075CF570FE10C0113031F415
:1017F0004A2D6C2DCE010E94C7111DC0012F212F33
:10180000462D692DCE010E945C0B15C089A198A1BF
:10181000891789F088A3113031F44A2D6C2DCE013F
:101820000E94C71107C0012F212F462D692DCE011F
:101830000E945C0B88A27694A394610ECBCFC394D4
:10184000910EA7CF88A228853C818985329F800D83
:10185000112489879F81992399F0082E000C990BF8
:1018600044E550E0239F40195109112448175907B6
:101870003CF49D818A85299F800D11248A871986D1
:1018800081E090E0DF91CF911F910F91FF90EF9059
:10189000DF90CF90BF90AF909F908F907F906F9090
:1018A0000895DF92EF92FF920F931F93CF93DF93F0
:1018B0001F92CDB7DEB78C01D62EF42EE12CE216A6
:1018C00054F44E2D4F0D6D2DC80129830E94C71170
:1018D000E3942981F4CF0F90DF91CF911F910F9165
:1018E000FF90EF90DF9008950F931F93CF93DF93B6
:1018F00000D0CDB7DEB78B01FB0160819A8389836D
:10190000CE0101960E94A711C8010F900F90DF91A0
:10191000CF911F910F910895EF92FF920F931F9314
:10192000CF93DF9300D0CDB7DEB78C017B01FB01F5
:1019300060819A838983CE0101960E94A711F701E5
:1019400061810F5F1F4F1A830983CE0101960E94A8
:10195000A711C7010F900F90DF91CF911F910F91A9
:10196000FF90EF9008950F931F93CF93DF938C0117
:10197000EB010E9417268883C80101960E94172652
:101980008983CE01DF91CF911F910F9108950E941D
:10199000800D8823E1F31092DF041092E00460E4EC
:1019A00071E086ED94E00E947B0880917602909130
:1019B00077020E94A51661E371E086ED94E00E9433
:1019C0007B0880917402909175020E94A51662E2D4
:1019D00071E086ED94E00E947B0880917202909104
:1019E00073020E94A51663E171E086ED94E00E9407
:1019F0007B0880917002909171020E94A5168091DF
:101A00009D04813049F080919E04813029F08091BD
:101A10009F04813009F0BBCF0895DF92EF92FF92CF
:101A20000F931F93CF93DF93EC017B01FB01168291
:101A30000E941726D82E21968E01802F8C1B8D1583
:101A400050F4C8010E941726682FC7010E94471250
:101A50000F5F1F4FF2CFF701858190E00196DF9174
:101A6000CF911F910F91FF90EF90DF900895CF924B
:101A7000DF92EF92FF920F931F93CF93DF9300D0EB
:101A8000CDB7DEB77C018B01FB0186818983BE0166
:101A90006F5F7F4FC7010E94740CC12CD12CFFEFE8
:101AA000EF1AFF0AF801858190E0C816D906E4F420
:101AB000F801268130E0C216D30694F42C193D09B2
:101AC000B90161507109C8010E94321297012C0DB1
:101AD0003D1D3A832983682FCE0101960E94A711EC
:101AE000FFEFCF1ADF0ADECF01960F900F90DF9144
:101AF000CF911F910F91FF90EF90DF90CF900895BD
:101B00004F925F926F927F928F929F92AF92BF920D
:101B1000CF92DF92EF92FF920F931F93CF93DF93B9
:101B200000D000D0CDB7DEB740910805509109052F
:101B300060910A0570910B052FB7F894809183028C
:101B400090918402A0918502B09186022FBF481B1C
:101B5000590B6A0B7B0B8091070590E0A0E0B0E089
:101B6000C0900305D0900405E0900505F0900605AF
:101B700084179507A607B70730F4C114D104E10410
:101B8000F10409F0FFC2CD28CE28CF2809F0F8C211
:101B900080919F0481508E3F08F580919E04813092
:101BA00011F58091B2048F5F6091B30487FD09C085
:101BB000082E000C990B70E06F5F7F4F0E94D627B4
:101BC000682F6093B20480E393E090930D058093B7
:101BD0000C0588E480930E050E94DE1680919F0418
:101BE00081508E3F70F480919D04813009F076C35E
:101BF00083E293E090930D0580930C0588E4809335
:101C00000E0580E00E94E2178091AE04882309F45B
:101C1000ADC08091C2048111A9C08091BA04909195
:101C2000BB04E091BF04F091C004EE0FFF1FE80F6A
:101C3000F91F459154914115510501F52091BE04BC
:101C4000222331F01092C0041092BF04FC0114C092
:101C50001092AE048091AD04882341F080E00E9490
:101C6000E217E091BF04F091C0042FC060E08DEA5C
:101C700094E00E94F40A7AC0459154919A013695F5
:101C800027953695279540FF51C0CA01B6E0969535
:101C90008795BA95E1F78F71952F969596959695BC
:101CA00090512F70223071F1F8F4211117C08B3050
:101CB00008F08AE08093C304E091BF04F091C0046F
:101CC0003196F093C004E093BF04EE0FFF1F8091A4
:101CD000BA049091BB04E80FF91FCECF213061F711
:101CE00060E00E942318E8CF2330B1F0243021F7C0
:101CF0002091B104829F802D11248093CA04909377
:101D0000CB04DACF2091B104829F802D11248093DF
:101D1000C6049093C704D0CF2091B104829F802D38
:101D200011248093C8049093C904C6CF2F732093C5
:101D3000C1048091B104859F802D11248093C20439
:101D40001092D2041092D1041092D00481E08093BA
:101D5000C40480937E021092C5048091BF049091C8
:101D6000C00401969093C0048093BF048091C40482
:101D7000882309F4F3C08091C204811106C060E099
:101D80008DEA94E00E94F40AE9C081508093C20475
:101D90008091D204811148C02091D0043091D104A7
:101DA0002F5F3F4FC901880F991FE091CC04F0913C
:101DB000CD04E80FF91F65917491862F8770809389
:101DC000D304AB0163E0569547956A95E1F7CA01E4
:101DD00096958795972F969596959093D4048F73A3
:101DE0009091B104899F802D11248093D204417079
:101DF000409382023093D1042093D0048091CE048A
:101E000090E02817390780F02091CF04222339F081
:101E1000821B91099093D1048093D00405C060E0A7
:101E20008DEA94E00E94F40A8091D204815080935C
:101E3000D2048091C50421E0280F2093C50440916D
:101E4000C1043091D404340F8091B904380F309319
:101E5000AF046091C804662371F070E0822F022EF7
:101E6000000C990B0E94D6278091C904869F300DE3
:101E700011243093AF048091AF0490E0849664E223
:101E800070E00E94D6278093AF043091C304309352
:101E9000B0046091C604662381F0062E000C770B17
:101EA000822F022E000C990B0E94D6278091C70426
:101EB000869F300D11243093B0046091CA046623CC
:101EC000A1F0822F220F990B70E00E94D627CB0140
:101ED00062E070E00E94D6272091CB049091B0047C
:101EE000289F900D11249093B0048091B0044F333B
:101EF00041F08A300CF089E087FD80E08093B004E7
:101F000002C01092B004F894E091AF04F0E0E15BFD
:101F1000FE4FE491E09381023091B0042091D5040A
:101F20003203900111244091D3044203C001439F26
:101F3000900D11240090B20402C0880F991F0A94DA
:101F4000E2F797FF02C081589F4F880F892F881FA3
:101F5000990B8093800280937F02789480910E0584
:101F6000882309F452C08C3020F49CE0D92ED81A72
:101F700001C0D12CEE24E394E092DE041092F6042A
:101F80001092F7041091DB043DE2F32ECF2CC11A1E
:101F9000CD0C03E0010F2EE44C2D63E086ED94E0C0
:101FA0000E945C0B145003E00C0D212F41E0602FC8
:101FB00080E50E949C18212F42E0602F83E00E9460
:101FC0009C18E092F604E092F7048091DB0463E051
:101FD000680FF81A8F2D8D0D0E945E1884E0809393
:101FE000DF048091DB04D81A8D2D815D8093E0049D
:101FF00060910C0570910D0586ED94E00E947B08C0
:1020000080910E05815080930E058091A4049091DB
:10201000A504892B09F48CC011E01093F6041092EA
:10202000F7049091DA0485E5891B8093DF04109210
:10203000E0046091A104613009F45BC030F080914C
:10204000A004653008F06DC068C060E08DEA94E0DF
:102050000E94F40A1092AE041093DE04E1EAF1E06B
:10206000E491EF5FE093DA04E2EAF1E0E491EF5FFC
:10207000E093DB0483EA91E09093F5048093F40409
:102080001092A5041092A4041092DC0418EA0E9495
:10209000800D8823E1F363E971E086ED94E00E940E
:1020A0007B084091A2045091A30460E070E02AE014
:1020B00086ED94E00E94B4086EE771E086ED94E04E
:1020C0000E947B08412F42954F7050E060E070E025
:1020D0002AE086ED94E00E94B40863E771E086EDA3
:1020E00094E00E947B0880919D04813009F0FCC03F
:1020F0001FC08091F9049091FA04A091FB04B09163
:10210000FC048F709927AA27BB270897A105B10562
:1021100010F467E009C068E707C0882349F06B5FE7
:1021200003C0882329F06FE286ED94E00E947408D2
:102130000E9458178091DC0481110EC088EF91E055
:10214000E8E8F2E0DF019C011D9221503040E1F708
:102150001092DF041092E0040E94080A60930305C5
:102160007093040580930505909306052091FF0464
:1021700030910005621B730B7093FE046093FD04A5
:1021800080E0CCC02FB7F8948091830290918402B4
:10219000A0918502B09186022FBF20910705820F82
:1021A000911DA11DB11D8093080590930905A09371
:1021B0000A05B0930B058091F9049091FA04A0915F
:1021C000FB04B091FC040196A11DB11D8093F9049C
:1021D0009093FA04A093FB04B093FC0410920305BF
:1021E0001092040510920505109206050E94080A37
:1021F0006093FF047093000580930105909302059E
:102200008091890490918A042FE0289F8001299F62
:10221000100D112485E10E94F109800F911F24E027
:10222000969587952A95E1F790938A04809389047F
:1022300020918804222309F44BC060918C04262F3E
:1022400030E040E050E029833A834B835C83C090C8
:102250008D04D12CE12CF12C4091900450919104EB
:102260004A01A12CB12C20918E0430918F042901B8
:10227000612C712C8217930728F09C01481759078D
:1022800008F49A01C901A0E0B0E09C01AD01241955
:1022900035094609570969817A818B819C816C19BE
:1022A0007D098E099F090E94BA27A501940124196E
:1022B0003509460957090E942D26C20ED31EE41E79
:1022C000F51EC0928B046C2D70E085E00E9492098F
:1022D0000E94E5160E94FF1881E020C0893209F0B3
:1022E00090CC0E94AB178DCC115009F0D0CE60E09D
:1022F00070E085E00E94920983B7817F846083BF8C
:1023000083B7816083BF83B7816083BF889583B7BC
:102310008E7F83BF83B78E7F83BFB9CE0F900F9020
:102320000F900F90DF91CF911F910F91FF90EF9041
:10233000DF90CF90BF90AF909F908F907F906F90E5
:102340005F904F900895089580E090E00895EF9297
:10235000FF920F931F93CF93DF931F92CDB7DEB7FA
:102360007C01FC0100811181C80169830E9417264C
:102370006981681719F0C8010E941F26C7010F90D4
:10238000DF91CF911F910F91FF90EF900895FC0185
:10239000643508F053C0403308F050C090A1742F4A
:1023A000759575957595262F062E000C330B542FB9
:1023B00057709230A1F4F901E857FD4F84E5780297
:1023C000E00DF11D1124808190E0052E02C095954D
:1023D00087950A94E2F78095982F91700AC0933000
:1023E00041F484858170462740954170841303C071
:1023F00014C0911112C084E57802200D311D112402
:10240000F901E857FD4F81E090E001C0880F5A952F
:10241000EAF780959081892310C084E57802200D29
:10242000311D1124F901E857FD4F81E090E001C012
:10243000880F5A95EAF79081892B80830895DC01F3
:1024400016969C911697992359F01396ED91FC914D
:102450001497915016969C93E90FF11D8081089571
:1024600081E00895DC0116962C91169730E06217F2
:1024700073075CF4261B370B1396ED91FC911497B0
:10248000E20FF31F31978081089581E00895FC01E8
:1024900026818581281748F48381948131E0320FA9
:1024A0003683FC01E20FF11D60830895FC018381F6
:1024B0009481009711F00C94232508950F931F9396
:1024C000CF93DF938C01FC0116826583C62FD0E089
:1024D000CE010E948E24FC01C80FD91F21E0EC1709
:1024E000FD0711F02193FBCFF80194838383DF91E3
:1024F000CF911F910F910895FC01908197FF02C029
:102500009F7701C0906890830895EF92FF920F9398
:102510001F93CF93DF931F92CDB7DEB700E010E09B
:10252000C8018D569E4F7C01FC018681882371F085
:10253000C7010E941F12898387FF04C0CE01019644
:102540000E947C126981C7010E944712095F1F4FD8
:102550000133110529F70E94160810929001AE016F
:102560004F5F5F4F61E971E082E991E00E94EE0602
:102570000F90DF91CF911F910F91FF90EF900895F1
:102580000F931F93CF93DF9300D000D01F92CDB74E
:10259000DEB70E9411048C012091740130E080911B
:1025A0008001909181019B838A831D830C8395E038
:1025B000929FD001939FB00D1124AF5BBE4FFE01DF
:1025C000319601900D929A95E1F7C9010196EAE0E2
:1025D000F0E0BF010E94D6279C0180937401809196
:1025E0007301821307C0C9010196BF010E94D6275B
:1025F00080937301C8010E94601681E090E090937F
:102600000101809300010F900F900F900F900F9099
:10261000DF91CF911F910F910C9485122F923F92D1
:102620004F925F926F927F928F929F92AF92BF92E2
:10263000CF92DF92EF92FF920F931F93CF93DF938E
:10264000CDB7DEB727970FB6F894DEBF0FBECDBF6C
:102650004FEF842E44E0942ECE0101965C0181E080
:102660008093DC049091F804992309F4BDC0809311
:10267000DE041092DD041092DC041092A00480931A
:10268000F6048093F7040E94800D8823E1F3F4019F
:102690008491882319F01091DB0401C010E067E6F3
:1026A00073E080E00E94581A6DED73E08CE0810FBA
:1026B0000E94581A1092DF04FCE0F093E0046FEFE0
:1026C00074E086ED94E00E947B088091DA04982FF4
:1026D000990F890F81958D5A8093DF048091DB04D7
:1026E000982F990F890F8195835D8093E0048091E5
:1026F000F90484FF03C083E693E002C08FE593E012
:102700000E9498178091DA04982F990F890F81956C
:102710008D5A8093DF048091E0048F5F8093E00402
:102720008091B204882319F08BE593E002C087E51D
:1027300093E00E9498178091DA04982F990F890FDF
:1027400081958D5A8093DF048091E0048F5F8093A0
:10275000E00483E593E00E94981780919E04813005
:10276000A1F48091B2048F5F6091B30487FD09C02A
:10277000082E000C990B70E06F5F7F4F0E94D627E8
:10278000682F6093B2040E94DE1680919D04813010
:10279000B9F08091F804482F50E060E070E00091BB
:1027A000F9041091FA042091FB043091FC04041701
:1027B00015072607370708F4D0C18F3F09F4CDC1AC
:1027C0008FEF8093F80460E08DEA94E00E94F40AB1
:1027D0001092AE0440E061EA75E08DEA94E00E9458
:1027E000050B81E08093A004C090A204D090A304C4
:1027F000C094D094E12CF12C0E94080A2B013C01DA
:102800000E94080AA30192012095309540955095A9
:1028100060957095809590950E94BA279B01AC01B8
:10282000C701B6010E94BA272B013C01C090890460
:10283000D0908A04E12CF12C0E94080ADC01CB0123
:102840008C0D9D1DAE1DBF1DBC01CD01640D751D00
:10285000861D971D611571058105910511F00E9476
:102860000E261092A004109273011092740110921F
:10287000760110927501109290018BE08093920185
:1028800084E08093910110928F0110928801E12CD5
:10289000F12CC70134E0880F991F3A95E1F7082F12
:1028A000006811E0612F602B82E891E00E944712DE
:1028B0001F5F1E30B9F72FEFE21AF20A84E0E81624
:1028C000F10439F700E010E02091880130E00217B0
:1028D00013077CF57901E01AF10A49F00E940926F4
:1028E0009701FF0C440B550B0E942D2603C060E09E
:1028F00070E0CB012091850130918601F901E60F4E
:10290000F71F9081A0918801B0E0A01BB10BA20F2E
:10291000B31F11978C91808380918801E82FF0E09C
:10292000E01BF10BE20FF31F319790830F5F1F4FF6
:10293000CBCF10922A0110923101109238011092DF
:102940003F0180E090E0FC01ED56FE4F16820796B5
:1029500081339105C1F710926C0293E9E92E91E061
:10296000F92E370100E010E026E0222E302E330C45
:102970002801C12CD12C82E891E00E941F128F8384
:102980000415150521F4CE0107960E947C12409192
:102990006C02D501E22D1D92EA95E9F7F1E0F98389
:1029A000249EC00111248C539E4FF501DC01322D71
:1029B00001900D923A95E1F7E1E0DC011296EC937B
:1029C000129713961C921397F301EC0DFD1D3081A5
:1029D00014963C9314973181330D15963C931597BB
:1029E00011964C9211973F813C9381E0840F809324
:1029F0006C02FFEF4F1A5F0A27E0C20ED11C87E07E
:102A00004816510409F0B7CF0F5F1F4F97E0690ECA
:102A1000711C0730110509F0A9CF10926C021092B9
:102A200001011092000180E090E00E9417268A3A8E
:102A300009F05AC066E772E081E090E00E94B30CB2
:102A400064E772E083E090E00E94B30C62E772E01A
:102A500085E090E00E94B30C60E772E087E090E0D0
:102A60000E94B30C89E090E00E9417268823D1F1E0
:102A700081E0809387028AE090E00E94172680938D
:102A8000400162E871E08BE090E00E940D0D8C0146
:102A9000055F1F4F69E871E0C8010E940D0D080F26
:102AA000191F84E2C82E81E0D82EB601C8010E9409
:102AB0000D0D080F191FA7E0CA0ED11CB0E4CB16EC
:102AC000B1E0DB0691F7B701C8010E940D0D080FB8
:102AD000191FE7E0EE0EF11CF4ECEF16F1E0FF0633
:102AE00091F702C01092870280918702882361F0DB
:102AF00080E00E94640381E090E090930101809364
:102B0000000133C00E94C70C63E087ED93E00E9490
:102B10003C198F3F09F4A3CD81110DC081E0809352
:102B2000400180917602909177020196909377020E
:102B3000809376020EC0813029F783E080934001B4
:102B40008091720290917302019690937302809328
:102B5000720280E00E94640308C080919F0481306B
:102B600009F091CD0E94AB178ECD27960FB6F89441
:102B7000DEBF0FBECDBFDF91CF911F910F91FF90B0
:102B8000EF90DF90CF90BF90AF909F908F907F900D
:102B90006F905F904F903F902F900895FC0120819F
:102BA00030E084E0359527958A95E1F72370332747
:102BB00081E02230310529F02330310511F080E029
:102BC00008950895AF92BF92CF92DF92EF92FF9255
:102BD0000F931F93CF93DF93182F062FC1E0D3E0FD
:102BE0008AEFD82E9EEFE92E842F8470C82E842F72
:102BF0008270B82E842F8870A82E4170F42E8C2FEE
:102C0000880F8F5FE80ECC2081F04D2F400F6C2F86
:102C1000610F86ED94E00E94C7114C2F400F6D2F7D
:102C2000610F86ED94E00E94C711BB2081F0402F18
:102C30004D1B6C2F610F86ED94E00E94C711402F51
:102C40004C1B6D2F610F86ED94E00E94C711AA20E6
:102C500081F04C2F400F612F6D1B86ED94E00E9498
:102C6000C7114D2F400F612F6C1B86ED94E00E9421
:102C7000C711FF2081F0402F4C1B612F6D1B86ED8B
:102C800094E00E94C711402F4D1B612F6C1B86EDF5
:102C900094E00E94C711CD1744F4E7FC04C0D15062
:102CA000D394D394ED0CCF5FAACFDF91CF911F9136
:102CB0000F91FF90EF90DF90CF90BF90AF9008956D
:102CC0000F931F93CF93DF938C01C0911505D0E034
:102CD000219750F0BE018FE095E00E943212682FDC
:102CE000C8010E944712F4CFDF91CF911F910F913D
:102CF00008950F931F93CF93DF93C82F162FD42FD0
:102D0000022F242F462F682F86ED94E00E94390B66
:102D10004FEF400F410F2D2F6C2F86ED94E00E9456
:102D2000390B202F412F6C2F86ED94E00E94510C1F
:102D3000D1506D2F6C0F202F412F86ED94E0DF9145
:102D4000CF911F910F910C94510CCF92DF92EF9283
:102D5000FF92CF93DF936C01990FEE08FF08F7FE07
:102D600016C06DE286ED94E00E947408EC014427E1
:102D70005527BA014C195D096E097F092AE086EDD5
:102D800094E00E94B4087C01EC0EFD1E08C02AE00D
:102D9000B701A60186ED94E00E94B4087C0169E1C8
:102DA00071E086ED94E00E949F088E0D9F1DDF91DB
:102DB000CF91FF90EF90DF90CF90089540E063E9CE
:102DC00075E08DEA94E00C94050BCF92DF92EF92C0
:102DD000FF920F931F93CF93DF93C2E9D4E009E9E9
:102DE00014E0FF24FA9497E0E92EE00E62E0888177
:102DF0000E945609288130E0F901E158FA4F849188
:102E0000F901E559FA4FC490F901E95AFA4FD49003
:102E1000DD2071F081110E94FD08ED2DF0E0EE0F34
:102E2000FF1FE35BFA4FA591B491EC91EC21B1F453
:102E3000F80180818F5F808360E088810E9456095D
:102E400021960F5F1F4FE012D1CFDF91CF911F91DD
:102E50000F91FF90EF90DF90CF900895F80180815F
:102E6000882371F3F8018F3F11F41082E5CFF082CF
:102E7000E3CFCF93C82FF89460E08091E5040E94DF
:102E800026098091E60418161CF460E00E942609C9
:102E9000CEBD00000DB407FEFDCF8EB58091E604D7
:102EA00018161CF461E00E9426097894CF910895C9
:102EB0000F931F93CF938091E2048F5F8093E2047E
:102EC00008E812E0C0E08C2F80640E94391780E887
:102ED0000E94391761E08091E5040E9426098091E3
:102EE000E60418161CF460E00E94260980E090E0D9
:102EF000F801E80FF91F20812EBD00000DB407FE78
:102F0000FDCF2EB501968435910591F78091E604A9
:102F100018161CF461E00E942609CF5F0C5A1F4F5F
:102F2000C63089F680E4CF911F910F910C94391728
:102F3000CF93DF93BC0186ED94E00E947B08EC0107
:102F400069E171E086ED94E00E949F088C0F9D1F5F
:102F5000DF91CF91089588EF91E0E8E8F2E0DF019A
:102F60009C011D9221503040E1F71092DF04109235
:102F7000E00465E275E086ED94E00E947B080E9423
:102F800058178CB583608CBD8DB58E7F8DBD8CE15F
:102F900091E0EEEFFFE309951092DC0480E095E00C
:102FA0000E9498170E9458170E94E51680919D0470
:102FB000813039F062E370E080E090E00E942D0AF9
:102FC000F3CF0895CF93DF93482F50E0EA01C8571D
:102FD000DB4F9DA19923A1F19EA1911131C09EA526
:102FE000FA01EE0FFF1FE157FB4F35A126A1E32F9A
:102FF000F22FE90FF11DE90FF11D259134912F3FBB
:103000009FEF390711F41DA21BC039AB440F551FA8
:10301000FA01EE56FB4F3327220F331F05A0F6A10E
:10302000E02DE20FF31F65917491811105C040E01E
:103030008DEA94E00E94050B29968DA18F5F8DA3E8
:10304000DF91CF91089570E0DB01AA0FBB1FA85755
:10305000BB4FD4962C91D497D5969C91D597E22FBF
:10306000F92FE80FF11DE80FF11D259134915F96BE
:1030700096963C932E939597F90185919491909112
:10308000B104989F802D112468577B4FFB01B196A6
:1030900085A3F901A591B4914B2F50E0E82FF0E002
:1030A0004E175F0720F4F90125913491832FFB011E
:1030B000B296899F802D112485A308951F93CF93E5
:1030C000DF93C82F162F2EE4482F63E086ED94E09F
:1030D0000E94390BDC2FD10F4FEF4D0F2EE463E030
:1030E00086ED94E00E94390B1650CD5F212F4C2FB6
:1030F00060E086ED94E00E94510C212F4C2F63E597
:1031000086ED94E00E94510C41E06C2F83E00E9418
:10311000E21542E06C2F80E50E94E215D45044E0B5
:103120006D2F80E50E94E21548E06D2F83E0DF916E
:10313000CF911F910C94E2159F92AF92BF92CF92C4
:10314000DF92EF92FF920F931F93CF93DF93F82EAE
:10315000E62EB22E03E0020FD0E0C3E08AEFC82EC5
:103160001EEF842F8170982EAA24A394A20E427081
:10317000D42EDF5F802F8B19180F9920A1F02C2FF0
:10318000220F2A0D4E2D4C1B6D2F6F0D86ED94E0F6
:103190000E94510C202F4E2D4D1B6C2F6F0D86ED74
:1031A00094E00E94510CDD20A1F02C2F220F2A0D5B
:1031B0004E2D4C1B6F2D6D1B86ED94E00E94510C23
:1031C000202F4E2D4D1B6F2D6C1B86ED94E00E9421
:1031D000510CDC1744F417FD04C0C150C394C394D0
:1031E0001C0D0E5FC6CFDF91CF911F910F91FF9005
:1031F000EF90DF90CF90BF90AF909F900895809117
:10320000A4049091A504892BB1F18091AC048F7135
:1032100069F584E10E94F109BC01990F880B990BB3
:103220000E94C12626EE3FE34EEC50E40E94252783
:103230000E9490269B017093A3046093A204672BC5
:1032400091F084E08093A104E4EAF4E080E041910D
:1032500051912417350718F48093A10408958F5FC6
:103260008430A9F703C08FEF8093A1048091AC0450
:103270008F5F8093AC0408952F923F924F925F929C
:103280006F927F928F929F92AF92BF92CF92DF9276
:10329000EF92FF920F931F93CF93DF9300D000D054
:1032A0001F92CDB7DEB7382E292EB62E1092DC0431
:1032B0002FEF2A8319821C8200E31D82662E712C57
:1032C0008FEF860F8B83AA24A3940E94800D8823FE
:1032D000E1F380919D04002E000C110B8130A1F1CF
:1032E00090919E04913081F180919F04813009F486
:1032F000B6C0998191113CC080919C048F3F21F010
:103300008370813009F49FC080919A048F3F21F02F
:103310008370813009F49DC0ED818E2F0E2E000C3C
:10332000990B8615970529F0E7FF04C0FB81FD8303
:1033300001C01D828091DB0494E0980F2D81829F53
:10334000901911249C831FC09091DB0491959B9D43
:10335000902D112492509C83813009F088C040E068
:1033600061EA75E08DEA94E00E94050B2D812A83C5
:10337000C801EC818E1B9109E7FD939502970CF42F
:103380007EC0F1E0F9832C81020F111D27FD1A95F3
:1033900017FF02C00F5F1F4F7801F594E7941E2DB1
:1033A0000E2D1092DF04E092E004A092DE04109251
:1033B000DD04C32CD22C812C912C8D81482E880FBA
:1033C000550886149704D9F08414950461F493E0A9
:1033D0009093DF048091DB04E12FFD81F89FE00DE5
:1033E0001124E093E004F601859194910E949817CE
:1033F0002FEF821A920A82E0C80ED11CE2CF1092FF
:10340000F6041092F7048091DB044E2D9D81989F65
:10341000400D1124415024E560E086ED94E00E94C7
:10342000390BA092F604A092F7048091DB0463E0CC
:10343000680FEE2DFD81F89FE00D11248E2F825034
:103440000E945E1842CF8D818F5F8D830E94DE16B1
:103450005BCF9D8191509D830E94DE165DCF809150
:10346000DB0481958B9D802D112482508C8340E05C
:1034700069E975E08DEA94E00E94050B79CF8A81B5
:103480000F900F900F900F900F90DF91CF911F91A1
:103490000F91FF90EF90DF90CF90BF90AF909F90F3
:1034A0008F907F906F905F904F903F902F900895F6
:1034B0008F929F92AF92BF92CF92DF92EF92FF9244
:1034C0000F931F93CF93DF93FB0124913196C49008
:1034D000F090F604022E000C330B121613060CF0BB
:1034E000D7C080330CF0D4C0482F082E000C550BE9
:1034F000FA01EC0DF11DC7FCFA951E161F060CF023
:10350000C7C06E5F7F4FD901179693E0B595A79519
:103510009A95E1F787FF0BC0C80EA49FC001A59F35
:10352000900DB49F900D1124681B790B80E04C2DF9
:103530000C2C000C550B480F511D87FD5A9541333B
:1035400051051CF090E3C92EC81A2535310514F039
:1035500024E530E01091E2041827982F977031E0AD
:1035600001C0330F9A95EAF7859585958595F4E521
:103570008F02C001112488579D4F00E00C2C000CD5
:10358000DD08BB24B394402F50E04C155D050CF0D2
:103590007FC0FB01E490F1E0FF1218C0FB01EC01D9
:1035A00040E8542F5E2119F05881532B588350E086
:1035B000559547954115510519F43196E49040E829
:1035C00021965C2F581B521760F359C0F1101AC096
:1035D000A32EA094FB01EC0140E8542F5E2119F0CA
:1035E00058815A21588350E055954795411551050A
:1035F00019F43196E49040E821965C2F581B52173D
:1036000060F33DC043E0F41223C0932E9094FB017D
:10361000EC0140E8A82E8C2E881A542F5E2141F030
:103620008126588180FE02C0532B01C05921588346
:1036300050E0559547954115510519F43196E490A0
:1036400040E821965C2F5A19521728F31B2517C002
:10365000FB01EC0140E8542F5E2119F058815327FB
:10366000588350E0559547954115510519F4319609
:10367000E49040E821965C2F581B521760F3330FFB
:1036800019F48C5A9F4F31E00F5F6A0F7B1F7BCF7D
:10369000DF91CF911F910F91FF90EF90DF90CF902E
:1036A000BF90AF909F908F900895CF93DF93CDB749
:1036B000DEB72C970FB6F894DEBF0FBECDBF78945F
:1036C00084B5826084BD84B5816084BD85B5826027
:1036D00085BD85B5816085BD80916E0081608093D8
:1036E0006E00109281008091810082608093810041
:1036F0008091810081608093810080918000816051
:10370000809380008091B10084608093B1008091AB
:10371000B00081608093B00080917A0084608093D3
:103720007A0080917A00826080937A0080917A009A
:10373000816080937A0080917A00806880937A001B
:103740001092C10082E38093070581E090E0A0E041
:10375000B0E08093030590930405A0930505B09312
:1037600006058FEF8093F804E0E8F7E725913491A0
:103770002130304C09F049C0E6E9F7E7E491E093E5
:10378000E104E7E9F7E7E491E0938C04E8E9F7E77F
:10379000E491E0938D04E9E9F7E7859194919093A2
:1037A0008F0480938E04EBE9F7E7859194919093D1
:1037B00091048093900488E08093B304EEE9F7E7E6
:1037C000E491E093B204EFE9F7E7E491E093F804C1
:1037D000E0EAF7E7859194919093A5048093A4047F
:1037E000E2EAF7E7859194919093A7048093A60469
:1037F000E4EAF7E7859194919093A9048093A80453
:10380000E6EAF7E7859194912CC09CE39093E1045C
:1038100010928C0480938D0480E293E090938F0447
:1038200080938E0484ED93E09093910480939004B0
:1038300088E08093B3048093B2048CEA9DE0909377
:10384000A5048093A4048EED9DE09093A70480933B
:10385000A60484E79EE09093A9048093A8048CE3D7
:103860009FE09093AB048093AA0411E01093880426
:103870006FEF70E085E00E94920988E080939204E7
:1038800089E08093930487E08093940486E080939A
:10389000950404E00093960482E08093970481E10C
:1038A000809398040E94E5168CE39FE09093A30414
:1038B0008093A2040093A1041093AC048BE0809346
:1038C000E4048DE08093E30480E18093E5048EE0DE
:1038D0008093E7048FE08093E6041093DE04109356
:1038E000F6041092F7041093DD04E1EAF1E0E491AC
:1038F000EF5FE093DA04E2EAF1E0E491EF5FE09356
:10390000DB0483EA91E09093F5048093F4041FB7FD
:10391000F89480916D02811127C0E1E6F5E0849171
:10392000E5E7F5E09491E82FF0E0EE0FFF1FE3529A
:10393000FF4FA591B491EC91E92321F461E08AE075
:103940000E94260961E08AE00E9456098CB58061D8
:103950008CBD8CB580648CBD61E08DE00E94560901
:1039600061E08BE00E94560980916D028F5F809329
:103970006D021FBF8CB58F7D8CBD8CB58C7F816037
:103980008CBD8DB581608DBD8CB58C608CBD61E0CA
:103990008091E4040E94560961E08091E3040E9452
:1039A000560961E08091E5040E9456098091E70480
:1039B00018161CF461E00E9456098091E60418165E
:1039C0001CF461E00E9456098091E704181674F413
:1039D00060E00E9426096AE070E080E090E00E94CA
:1039E0002D0A61E08091E7040E9426098091E3049A
:1039F000082E000C990BFC01E95AFA4FE491F0E013
:103A0000EE0FFF1FE951FF4F259134913093EB04E6
:103A10002093EA04FC01E559FA4FE491E093F104A4
:103A20008091E404082E000C990BFC01E95AFA4F2E
:103A3000E491F0E0EE0FFF1FE951FF4F2591349123
:103A40003093E9042093E804FC01E559FA4FE4912E
:103A5000E093F0048091E604082E000C990BFC0121
:103A6000E95AFA4FE491F0E0EE0FFF1FE951FF4FE2
:103A7000259134913093ED042093EC04FC01E55939
:103A8000FA4FE491E093F2048091E504082E000CD3
:103A9000990BFC01E95AFA4FE491F0E0EE0FFF1F99
:103AA000E951FF4F259134913093EF042093EE04B8
:103AB000FC01E559FA4FE491E093F30481E20E949E
:103AC000391784E10E9439178091E10487FF03C010
:103AD0008FE78093E1048091E10480680E943917A8
:103AE00080E20E9439178CE00E9439170E94581713
:103AF00081E08093B10484E08093D50489ED90E067
:103B00009093BD048093BC0460E080E00E94231881
:103B100061E070E083E00E9492098091B100887FAB
:103B200081608093B100F89410928000109281001F
:103B3000109285001092840088E191E090938900B2
:103B400080938800809181008860809381008091BB
:103B5000810081608093810080916F0082608093FA
:103B60006F0078940E94FF1880919E04813009F0C4
:103B700022C11092B20485E28093240110922501A3
:103B80001092260181E380932B0110922C01109258
:103B90002D018DE380933201109233011092340194
:103BA00089E48093390110923A0110923B01E5E9D2
:103BB000F1E080E020E191E0DF01129731E0380F81
:103BC0003C9311962C939083845F37968435A1F7AC
:103BD00081E08093820110928301109284018DE034
:103BE0008093890110928A010E940E138824839485
:103BF000912C04E0C02ED12C0E94800D882309F462
:103C0000D2C080919F048130E1F4809100019091B5
:103C10000101019711F063E001C064E08FEF90E0D3
:103C20000E943C19823031F0833039F0813009F044
:103C3000BAC0B7C00E94C70CE8CF81E00E946403FD
:103C4000B0C080910001909101018130910509F08F
:103C5000BFC0E0907501F090760180919B048130A7
:103C600009F40CC480919904813009F418C480913E
:103C70009C04813009F424C480919A04813009F4B1
:103C80003AC480919E04813009F06EC48091740121
:103C9000909173019817E9F0811164C48AE08093D0
:103CA0007401E091740185E08E9FF0011124EF5BB7
:103CB000FE4FDE01119601900D928A95E1F70A817F
:103CC0001B818C819D810E941F12682FC8010E9458
:103CD00047128091750190917601E816F90611F06E
:103CE0001092900100910001109101010530110521
:103CF00011F00E94A0070230110509F4FBC20CF478
:103D0000B9C00430110509F45EC30CF436C30530A4
:103D1000110509F048C08091DC04811107C081E0E1
:103D20008093DC040E94A0070E943E0420917E0143
:103D300030917F0120583F4F30937F0120937E01C7
:103D4000409178015091790180917C0190917D01A1
:103D5000840F951F909379018093780180917A0167
:103D600090917B01820F931F8130B2E29B070CF090
:103D700069C390937B0180937A0160917B014091AC
:103D80007701809179010E945D0680917801909180
:103D90007901965F81309E4530F00E943E0481118A
:103DA00002C00E940E1380E090E0892B09F424CF1A
:103DB0000E9400001BCF8091A104882309F4D9CE72
:103DC00040E061EF70E08DEA94E00E94050BD3CEF5
:103DD000039709F087CF80919B04813079F480911B
:103DE0007501909176018530910541F08C309105F7
:103DF00029F0019690937601809375018091990442
:103E0000813079F48091750190917601813091052E
:103E100041F08630910529F00197909376018093C7
:103E2000750180919C04813071F4809175019091AD
:103E300076018130910509F038C487E090E09093D5
:103E400076018093750180919A04813069F48091A4
:103E5000750190917601893091050CF42CC4079777
:103E6000909376018093750180919D04813009F0D3
:103E700039CF29C40115110529F00130110509F4C4
:103E80008CC091CF80916C028C31A8F44091F904E0
:103E90005091FA046091FB047091FC044370552723
:103EA00066277727452B462B472B29F48F5F809376
:103EB0006C020E94DB0380916C0291E08C3109F06E
:103EC00090E0E7ECEE2EE1E0FE2E09EC11E0F6ECDE
:103ED000AF2EF1E0BF2E612C712C282E312C6214F4
:103EE00073040CF052C0D5018C91F80122912F017E
:103EF000821306C0D7013C91F80120813217C9F125
:103F0000F6E0F69D9001F79D300D11242C533E4FA5
:103F1000D9014C91F70160812B873C870E945D0697
:103F2000D2014C90642DF50180810E94E203982F0C
:103F3000D5018C93F8015080652DD7018C919A871B
:103F40000E94E203F70180839A852B853C859411BA
:103F50000FC085110DC0F80134978081F7E0F89FFC
:103F6000C0011124D9016C918D569E4F0E944712B9
:103F700090E0BFEF6B1A7B0AE6E0EE0EF11C0A5FE1
:103F80001F4FF6E0AF0EB11CAACF992309F40BCF57
:103F9000909201018092000106CFAE01475F5F4F12
:103FA000BE01695F7F4FCE0108960E94EE066885CC
:103FB000809192010E94E203F82E809392016F811A
:103FC000809191010E94E203182F809391018985CD
:103FD00003E00F0D76E0E72EE10EA12CB12C882333
:103FE00009F4C1C044244394772473944092F604A6
:103FF0004092F704512E5A0C302E3A0C452D632D69
:1040000086ED94E00E94C7116E2C6A18462D632D30
:1040100086ED94E00E94C7111092F6041092F70406
:104020002A2D452D602F86ED94E00E94390B2A2D14
:10403000462D602F86ED94E00E94390B2FEFA21AD7
:10404000B20A44E0A416B10479F67092F6047092B4
:10405000F70427E0412F62E06F0D86ED94E00E94A7
:10406000510C22E042E0410F6F2D86ED94E00E945A
:10407000390B22E044E0410F6F2D86ED94E00E9461
:10408000390B03E0010F402F6F2D86ED94E00E9465
:10409000C7111092F6041092F70422E0402F61E05D
:1040A0006F0D86ED94E00E94390BE0909001EE20B8
:1040B00009F479CE0E9411046E2D70E00E94321234
:1040C000E82E8E838F70A82EB12C8A3011F030E04C
:1040D00001C032E081E08093F6048093F7045F2D05
:1040E000531B4DE0430F29E06FEF610F84EF850F05
:1040F0003C875A870E9479161092F6041092F704B2
:10410000402F6F2D86ED94E00E94C7113C852BE077
:10411000230F5A8565EF650F07E0412F86ED94E088
:104120000E945C0BCE0106960E94CE15811102C042
:1041300081E001C083E08093F6048093F7041F5F61
:10414000A501612F86EF8F0D0E94A1044E2D50E036
:1041500064E0559547956A95E1F743705527612FBF
:104160008AEF8F0DC4C03324339477247394309234
:10417000F6043092F704412E4A0C442D602F86ED50
:1041800094E00E94C7115E2C5A18452D602F86EDD1
:1041900094E00E94C7111092F6041092F70466246E
:1041A0006394600E2A2D442D662D86ED94E00E94C6
:1041B000390B2A2D452D662D86ED94E00E94390B92
:1041C0008FEFA81AB80A015094E0A916B10469F655
:1041D0007092F6047092F70427E0412F34E0B32E7A
:1041E000BF0C6B2D86ED94E00E94510C22E042E062
:1041F000410F05E00F0D602F86ED94E00E94390B12
:1042000022E044E0410F602F86ED94E00E94390BDC
:1042100043E0E42EE10E06E00F0D4E2D602F86EDFB
:1042200094E00E94C7111092F6041092F70422E065
:104230004E2D6B2D86ED94E00E94390BB0909001CD
:10424000BB2009F4B0CD0E9411046B2D70E00E94D8
:104250003212782E8E838F70A82EB12C8A3011F0F6
:10426000612C02C092E0692E81E08093F604809375
:10427000F70429E04DE0460D6FEF610F802F0E949B
:1042800079161092F6041092F7044E2D602F86EDE9
:1042900094E00E94C71107E02BE0260D412F67E054
:1042A0006F0D86ED94E00E945C0BCE0106960E9495
:1042B000CE15811102C081E001C083E08093F60435
:1042C0008093F7041F5F062D0F0DA501612F88E075
:1042D000800F0E94A104472D50E084E0559547953A
:1042E0008A95E1F743705527612F8CE0800F0E947B
:1042F0009D0559CD8FE095E00E94640761E18091B2
:104300000F050E94E203182F80930F0560E0809153
:1043100010050E94E20380931005113109F043CD8E
:10432000811141CD60E070E08FE095E00E94321293
:10433000682F89E891E00E94471280916E028823DD
:1043400009F426CE815080936E021092150582E802
:1043500091E00E941F128E83CE0106960E947C126D
:104360006E818FE095E00E94471281E080930F05F7
:10437000109210050E94DB0316CD8FE095E00E949D
:1043800064070E9411047C01DC0112968C91129743
:10439000882329F016961C91110F1E5F01C012E0B0
:1043A000F701608180910F050E94E20380930F0561
:1043B000D70111966C91610F809110050E94E20364
:1043C00080931005F0CC0091800110918101F801DB
:1043D0008281882321F08681F82EFF0C01C0F12C08
:1043E000D8016C9180910F050E94E20380930F0524
:1043F000F80161816F0D809110050E94E2038093A6
:1044000010058FE095E00E94640790910F05D80198
:104410008C919813C8CC2091100530E011964C91E6
:104420008F2D90E0840F911D2817390709F0BBCC20
:10443000C8010E94601690920101809200010E94C2
:104440008512B1CCE0E0F2E2F0937B01E0937A01D7
:104450004CEF4203C001439F900D112465E070E0D2
:104460000E94D62770937F0160937E0140E067E051
:1044700071E08DEA94E00E94050B7FCC25E0E21606
:10448000F10409F4EFCB8CE0E816F10409F4EACB6F
:10449000C70101969093760180937501E3CB8091DB
:1044A000750190917601009709F4E1CB8630910572
:1044B00009F4DDCB01979093760180937501D7CBFA
:1044C00080919001882321F0815080939001D4CB7A
:1044D00080917501909176018230910514F40696D1
:1044E00005C0863091050CF0C7CB079690937601F6
:1044F00080937501C1CBA0907501B09076018501C4
:10450000065011090730110578F40E9411047090CB
:104510009001672D70E06F5F7F4FDC0116962C9144
:1045200030E06217730764F0B8E0AB16B10484F0B2
:10453000E7E0AE1AB108B0927601A0927501A1CB66
:104540000E94321287FDF0CF73947092900199CB44
:10455000F6E0AF16B1040CF494CB109376010093FF
:1045600075018FCB81509BCB10919D04113009F0C8
:10457000B0CB80917501909176018130910509F061
:104580004AC00E9411045C019093810180938001D4
:10459000DC0116968C911697882309F49ACB109219
:1045A00015058C9180930F0560E0C5010E94D5062A
:1045B00080931005F50186810091900110E0282F6D
:1045C00030E00F5F1F4F201731070CF48901801B6B
:1045D000D50116968C93612C712C6016710691F0A2
:1045E000F50186810380F481E02DE60DF71DE80FCB
:1045F000F11D60818FE095E00E944712FFEF6F1A76
:104600007F0AEBCF83E090E090930101809300015B
:104610000E94DB035ECB823091050CF041C0892BF8
:1046200009F057CB80918801882331F1109215054C
:1046300082E891E00E941F128E83CE0106960E94AE
:104640007C126E818FE095E00E94471210930F0557
:10465000109210059091400180918801492F50E0FF
:10466000282F30E02417350714F08FEF890F80933F
:104670006E0282E090E0C8CF80918F01882309F418
:1046800028CB89E891E00E941F128E83CE01069606
:104690000E947C126E8182E891E00E944712ECCF6A
:1046A0000697079708F015CB6CCF863091050CF074
:1046B000CACB0796C4CB06970CF4D6CB9092760162
:1046C00080927501D1CB40E067E071E08DEA94E023
:1046D0000E94050B809175019091760186309105BD
:1046E0000CF04EC0823091050CF446C08091150547
:1046F000813009F083C00E941104DC0116962C91D0
:1047000060E070E0211109C08FE095E00E94321254
:104710008F70813009F072C02AC00E943212182FA7
:1047200060E070E08FE095E00E943212412F50E08F
:10473000A4E055954795AA95E1F743705527282F92
:1047400030E0B4E035952795BA95E1F7237033272B
:104750004217530709F052C01F70212F30E02F5F1E
:104760003F4F8F7090E02817390709F047C00E942B
:10477000C0120E941608B6CA019709F43FC0B2CA17
:104780000D970CF0AFCA0E941104FC012681222370
:1047900031F160E070E00E9432128F836091150564
:1047A00070E0615071098FE095E00E943212182F7D
:1047B0008E83CE0107960E94CE15082FCE01069655
:1047C0000E94CE150817D1F02F812F7030E01F7096
:1047D000812F90E001962817390781F40CC0609171
:1047E000150570E0615071098FE095E00E9432126A
:1047F0008F708D3019F40E94C01274CAD0920101DA
:10480000C09200016FCACF93DF93C4ECD1E0279729
:10481000CE010E94561281E0C339D807C1F789E35F
:1048200091E00E94561282E391E00E9456128BE2C0
:1048300091E00E94561284E291E00E94561289E8AB
:1048400091E00E94561282E891E00E9456128FE099
:1048500095E0DF91CF910C9456121092D9041092EA
:10486000D80481E191E09093D7048093D6046DE061
:104870008FE095E00E945E1264E382E891E00E947E
:104880005E1268E189E891E00E945E126DE084E2C8
:1048900091E00E945E126DE08BE291E00E945E1258
:1048A0006DE082E391E00E945E126DE089E391E0A9
:1048B0000E945E1264E183E991E00E945E1264E16D
:1048C0008AE991E00E945E1264E181EA91E00E942F
:1048D0005E1264E188EA91E00E945E1264E18FEA70
:1048E00091E00E945E1264E186EB91E00E945E120C
:1048F00064E18DEB91E00E945E12109274011092BF
:104900007301E4ECF1E081E08083369692E0EC36CE
:10491000F907D1F781E0809377010895CF93DF9372
:104920008230910510F482E090E0E0911805F0915A
:10493000190520E030E0C0E0D0E0309711F140816F
:10494000518148175907C0F04817590761F482810F
:104950009381209719F09B838A832BC0909319052C
:104960008093180526C02115310519F04217530709
:1049700018F49A01BE01DF01EF010280F381E02DFE
:10498000DCCF2115310509F1281B390B2430310505
:1049900090F412968D919C9113976115710521F0F9
:1049A000FB019383828304C09093190580931805BB
:1049B000FD01329644C0FD01E20FF31F81939193F4
:1049C000225031092D933C933AC020911605309125
:1049D0001705232B41F420910501309106013093F6
:1049E000170520931605209103013091040121152C
:1049F000310541F42DB73EB74091070150910801B0
:104A0000241B350BE0911605F0911705E217F3070B
:104A1000A0F42E1B3F0B2817390778F0AC014E5F2E
:104A20005F4F2417350748F04E0F5F1F509317054F
:104A3000409316058193919302C0E0E0F0E0CF012E
:104A4000DF91CF9108950F931F93CF93DF9300973A
:104A500009F48CC0FC013297138212820091180570
:104A6000109119050115110581F420813181820F02
:104A7000931F20911605309117052817390779F5EE
:104A8000F0931705E093160571C0D80140E050E09F
:104A9000AE17BF0750F412962D913C911397AD01BC
:104AA0002115310509F1D901F3CF9D01DA013383D5
:104AB000228360817181860F971F8217930769F4A3
:104AC000EC0128813981260F371F2E5F3F4F31833C
:104AD00020838A819B8193838283452B29F4F093E1
:104AE0001905E093180542C01396FC93EE931297B4
:104AF000ED01499159919E01240F351FE217F307EB
:104B000071F480819181840F951F029611969C9378
:104B10008E938281938113969C938E931297E0E0FB
:104B2000F0E0D80112968D919C911397009719F09F
:104B3000F8018C01F6CF8D919C9198012E5F3F4F2B
:104B4000820F931F209116053091170528173907FA
:104B500069F4309729F4109219051092180502C0D3
:104B6000138212821093170500931605DF91CF91DF
:104B70001F910F9108958F929F92AF92BF92CF9203
:104B8000DF92EF92FF92CF93DF93EC0168817981FE
:104B90008A819B81611571058105910521F464E28B
:104BA00079ED8BE597E02DE133EF41E050E00E9495
:104BB0002D2649015A019B01AC01A7EAB1E40E94EC
:104BC0004C266B017C01ACEEB4EFA50194010E9470
:104BD0005A26DC01CB018C0D9D1DAE1DBF1DB7FFFC
:104BE00003C00197A109B04888839983AA83BB8336
:104BF000BC01CD019F77DF91CF91FF90EF90DF90C7
:104C0000CF90BF90AF909F908F9008950E94BB254A
:104C1000089589E091E00E94BB2508956093090101
:104C200070930A0180930B0190930C010895F999F8
:104C3000FECF92BD81BDF89A992780B50895262FA1
:104C4000F999FECF1FBA92BD81BD20BD0FB6F89471
:104C5000FA9AF99A0FBE01960895052E97FB1EF455
:104C600000940E94442657FD07D00E945F2607FC4F
:104C700003D04EF40C9444265095409530952195E0
:104C80003F4F4F4F5F4F0895909580957095619578
:104C90007F4F8F4F9F4F08950E948126A59F900DB3
:104CA000B49F900DA49F800D911D11240895B7FF0E
:104CB0000C944C260E944C26821B930B0895A1E273
:104CC0001A2EAA1BBB1BFD010DC0AA1FBB1FEE1F86
:104CD000FF1FA217B307E407F50720F0A21BB30BD1
:104CE000E40BF50B661F771F881F991F1A9469F74D
:104CF00060957095809590959B01AC01BD01CF01A9
:104D00000895A29FB001B39FC001A39F700D811DA4
:104D10001124911DB29F700D811D1124911D0895C4
:104D20000E94042788F09F5798F0B92F9927B75110
:104D3000B0F0E1F0660F771F881F991F1AF0BA953F
:104D4000C9F714C0B13091F00E941E27B1E0089558
:104D50000C941E27672F782F8827B85F39F0B93F4A
:104D6000CCF3869577956795B395D9F73EF49095F2
:104D70008095709561957F4F8F4F9F4F0895E89470
:104D800009C097FB3EF490958095709561957F4F93
:104D90008F4F9F4F9923A9F0F92F96E9BB27939541
:104DA000F695879577956795B795F111F8CFFAF451
:104DB000BB0F11F460FF1BC06F5F7F4F8F4F9F4F82
:104DC00016C0882311F096E911C0772321F09EE8E0
:104DD000872F762F05C0662371F096E8862F70E046
:104DE00060E02AF09A95660F771F881FDAF7880F20
:104DF0009695879597F9089557FD9058440F551F3C
:104E000059F05F3F71F04795880F97FB991F61F04C
:104E10009F3F79F087950895121613061406551FC3
:104E2000F2CF4695F1DF08C0161617061806991F2F
:104E3000F1CF86957105610508940895E894BB2724
:104E400066277727CB0197F908950E9438270C949D
:104E5000A9270E949B2738F00E94A22720F09523C3
:104E600011F00C9492270C94982711240C941F276E
:104E70000E94FC2670F3959FC1F3950F50E0551FDB
:104E8000629FF001729FBB27F00DB11D639FAA279F
:104E9000F00DB11DAA1F649F6627B00DA11D661FEE
:104EA000829F2227B00DA11D621F739FB00DA11D0F
:104EB000621F839FA00D611D221F749F3327A00DC9
:104EC000611D231F849F600D211D822F762F6A2F65
:104ED00011249F5750409AF0F1F088234AF0EE0FCA
:104EE000FF1FBB1F661F771F881F91505040A9F7F7
:104EF0009E3F510580F00C9492270C941F275F3F32
:104F0000E4F3983ED4F3869577956795B795F79532
:104F1000E7959F5FC1F7FE2B880F911D96958795AA
:104F200097F9089597F99F6780E870E060E0089529
:104F30009FEF80EC089500240A94161617061806B1
:104F40000906089500240A9412161306140605068D
:104F50000895092E0394000C11F4882352F0BB0F1E
:104F600040F4BF2B11F460FF04C06F5F7F4F8F4F81
:104F70009F4F0895DB018F939F930E944C26BF9112
:104F8000AF91A29F800D911DA39F900DB29F900D98
:104F900011240895991B79E004C0991F961708F011
:104FA000961B881F7A95C9F78095089597FB072E61
:104FB00016F4009407D077FD09D00E94F02707FC73
:104FC00005D03EF4909581959F4F08957095619519
:104FD0007F4F0895EE0FFF1F0590F491E02D099487
:104FE000AA1BBB1B51E107C0AA1FBB1FA617B7070F
:104FF00010F0A61BB70B881F991F5A95A9F780952B
:105000009095BC01CD01089581E090E0F8940C9456
:10501000092812E0C6EDD2E004C0FE010E94EA2792
:0C5020002196C73DD107C9F7F894FFCFD7
:10502C0001000100001A05800001000000000000D2
:10503C0000850B4708A411A3110D0A004C4F4144E5
:04504C0045520000C9
:00000001FF
