:100000000C9490020C94B8020C94B8020C94B802B0
:100010000C94B8020C94B8020C94B8020C94B80278
:100020000C94B8020C94B8020C94B8020C94D3103F
:100030000C94B8020C94B8020C94B8020C94B80258
:100040000C9489100C94B8020C94B8020C94B80269
:100050000C94B8020C94B8020C94B8020C94B80238
:100060000C94B8020C94B8027E1B801B9D1B9F1B36
:10007000A11BA31BB31BB31BB31BB31BB31BB31B32
:10008000B31B6A0387039603AC03B203B803C2032E
:10009000D003DE03E803030418042F040101FF0367
:1000A0000101F703A0009C000000000024002700CD
:1000B0002A0000000000250028002B0005008930E0
:1000C0000802380249786814000045000801000061
:1000D0004861726400456173790017534400161338
:1000E0007800161314001510200015201000540A73
:1000F00003E181867F3E186D830F0F0E01838660BA
:1001000033186DC3198F1803C38E6033186DE33035
:10011000CF1803C39E603630CDE360CF3006C79E54
:100120007E3E30CDB360CF300CC6F6603330D9B6EA
:1001300060CF33CFCCF66061B0DB1E60CF30D86CBF
:10014000E6C061B0DB1E618F19986CC6C063B19BBD
:100150000E330F0FB078C6FF7E1F1B061E0F050063
:100160006801380100000500380168010000D50071
:10017000D0004024000080000124000000848000A2
:1001800001040000008880000104000000908F1628
:100190001D24CE0000A099993325990000C09091AC
:1001A0002125110000A0909121261F000090909120
:1001B00021251000008899913325980000848F1123
:1001C0001D24CF000000000000000000000000001F
:1001D0000000000000101C700E00100000103EF81F
:1001E0003F80100000383EF83F803800007C3FF828
:1001F0003F807C0000FE3FF9DF70FE0001FF1FF32F
:10020000FFF9FF0003FF8FF3FFFBFF8003FF8FE386
:10021000FFF9FF0003FF87C3F5F8FE0001D7038154
:10022000E4F07C0000100380040038000038010076
:100230000E00100000FE01003F80100000000000D2
:10024000000000000000009000400000003C008220
:100250000000000000440082000000000040789789
:100260009C4B38000060CC92024C640000188492D1
:1002700002484400000C84921E487C0000048492D2
:10028000224840000044CC922248600000787893D5
:100290009E483C0000F6E8DBCFC3B8AEA49B928A30
:1002A000827B746E68625C57524E4945413E3A37D4
:1002B00034312E2C29272523210A0A153A49676E45
:1002C0006F7265006D560A0A504C454153452054E3
:1002D00055524E204F464620004C4F572042415425
:1002E0005445525921200003053F213F1208120AAC
:1002F000100A0E1C0E0C1E0C141A14161F161E13B8
:100300001E1E1B1E1E1F1E3F213F3A2F3A173D1770
:100310003F213F181F02040A041F0E04040E1F0A87
:100320001F0A0E0E1F04110E2E252E2F2A2E2629EF
:1003300029021F02081F08150E04040E150E1515BC
:100340001B151B040604040C040000000017000326
:1003500000031F0A1F16371A1904130A153A00035F
:1003600000000E11110E000A040A040E04003000F1
:100370000404040010001804031F111F121F101D95
:10038000151711151F07041F17151D1F151D010136
:100390001F1F151F17151F000A00003200040A1145
:1003A0000A0A0A110A040115020E11171E051E1F62
:1003B000150A0E110A1F110E1F15111F05010E112E
:1003C0001D1F041F111F1108100F1F041B1F1010E9
:1003D0001F061F1E040F0E110E1F09060E112E1FE1
:1003E000051A121509011F011F101F0F180F1F0CEE
:1003F0001F1B041B031C03191513001F11030418F2
:10040000111F000201022020200001020C121E1FF9
:10041000120C0C12120C121F0C1A14041E05242AA2
:100420001E1F021C141D1020201D1F0814111F1058
:100430001E041E1E021C0C120C3E0A040C123E1E50
:10044000040214160A020F120E101E0E100E1E08C1
:100450001E120C1226281E322A26041E21001F00FE
:10046000211E040102013F213F172B152010204CB3
:100470004F4144455200172B162013140045001815
:100480000100000A4E6F2053442063617264206FA4
:10049000720A6E6F204C4F414445522E4845580A0F
:1004A0000A153A45786974001D20466C61736869C5
:1004B0006E670A20206C6F616465722E2E2E0A0A08
:1004C000444F4E2754205455524E204F464621004B
:1004D0000000000023002600290004040404040492
:1004E00004040202020202020303030303030102E3
:1004F00004081020408001020408102001020408B2
:1005000010200000000800020100000304070000A2
:10051000000000000000450068010000C320992091
:1005200011241FBECFEFD8E0DEBFCDBF11E0A0E0A9
:10053000B1E0E4E2F9E402C005900D92A432B10703
:10054000D9F724E0A4E2B1E001C01D92AD3DB207AD
:10055000E1F712E0CFE8D2E004C02197FE010E944B
:100560006624CE38D107C9F70E944A170C94852417
:100570000C940000089580E090E00895CF93DF93FD
:10058000C82FD62F0E94A5126D2F8C2F0E949D126E
:100590006D2F8C2F0E94C5126D2F8C2FDF91CF9164
:1005A0000C94BC12FC0182814181882311F06A30D5
:1005B00010F0842F089596819A3018F4292F30E096
:1005C00002C02AE030E0261B310921503109220FF8
:1005D000822F840F089580912B018D3091F48091AA
:1005E00032018D3071F4809139018D3051F4809158
:1005F00040018D3031F485E090E0909301018093CB
:1006000000010895FC01643508F053C0403308F040
:1006100050C090A1742F759575957595262F062E4F
:10062000000C330B542F57709230A1F4F901E55BA5
:10063000FD4F84E57802E00DF11D1124808190E0EA
:10064000052E02C0959587950A94E2F78095982F1C
:1006500091700AC0933041F484858170462740959B
:100660004170841303C014C0911112C084E5780254
:10067000200D311D1124F901E55BFD4F81E090E073
:1006800001C0880F5A95EAF780959081892310C0A0
:1006900084E57802200D311D1124F901E55BFD4F41
:1006A00081E090E001C0880F5A95EAF79081892B8C
:1006B000808308950F931F93CF93DF93FA013197AF
:1006C000ED30F10508F0EDC0D62FC82FEF5BFF4FDE
:1006D0000C94662411E0180F462F612F89E994E0ED
:1006E0000E94020301E00D0F24E0402F6C2F89E9E6
:1006F00094E00E94731262E06C0F24E0402F89E9BD
:1007000094E00E94731242E04D0F612F89C00E9455
:10071000CD126D2F8C2F0E94C5126D2F8C2F0E9431
:100720009D126D2F8C2F0E94AC120EC00E94CD1214
:100730006D2F8C2F0E94C5126D2F8C2F0E949D1241
:100740006D2F8C2F0E94BC126D2F8C2FDF91CF91BB
:100750001F910F910C94B412DF91CF911F910F91C3
:100760000C94BE02DF91CF911F910F910C949313C3
:100770000E9493136D2F8C2FDF91CF911F910F91BA
:100780000C94AC120E94CD126D2F8C2F0E94C512BA
:100790006D2F8C2FDF91CF911F910F910C94BC1274
:1007A0000E9493136D2F8C2F0E94AC126D2F8C2FF3
:1007B000DF91CF911F910F910C94C5120E94BE0240
:1007C0006D2F8C2FDF91CF911F910F910C94CD1233
:1007D0000E94CD126D2F8C2F0E94C5126D2F8C2F71
:1007E0000E94BC126D2F8C2F0E94B4126D2F8C2F83
:1007F0000E94AC126D2F8C2F0E94A5126EEF6C0F11
:1008000025E04D2F46C00E94C5126D2F8C2F0E94EF
:10081000BC126D2F8C2F0E94B41243E04D0F6C2F31
:1008200089E994E0DF91CF911F910F910C9402031D
:100830000E94CD126D2F8C2F0E94C5126D2F8C2F10
:100840000E94A51243E04D0F23E06C2F89E994E04C
:100850000E945B1144E04D0F61E06C0FE1CF0E94FC
:10086000A5126D2F8C2F0E94AC1242E04D0F61E05B
:100870006C0F89E994E00E940203CE5F22E04D2FC5
:100880006C2F89E994E00E94731243E04D0F22E03F
:100890006C2F89E994E0DF91CF911F910F910C9417
:1008A0007312DF91CF911F910F9108950F931F93B2
:1008B000CF93DF93082FC62F4130510509F449C06B
:1008C0000CF5452B09F0ADC0D2E0D80F462F6D2FA7
:1008D00089E994E00E94020341E04C0F61E0600F5F
:1008E00023E089E994E00E945B1142E04C0F25E08F
:1008F000602F89E994E00E945B1143E04C0F25E0F2
:10090000602F80C04230510509F450C0433051057A
:1009100009F087C0D2E0D80F462F6D2F89E994E007
:100920000E94020311E0100F41E04C0F23E0612F01
:1009300089E994E00E945B1142E04C0F25E0602FB2
:1009400089E994E00E945B1143E04C0F23E0612FA2
:1009500059C0D1E0D80F23E0462F6D2F89E994E0EC
:100960000E945B1142E04C0F23E06D2F89E994E077
:100970000E945B11CF5F23E04C2F602F89E994E048
:100980000E94731264E0600F23E04C2F89E994E029
:100990000E94731262E0600F24E04C2F89E994E01A
:1009A000DF91CF911F910F910C947312D1E0D80F6A
:1009B000462F6D2F89E994E00E94020363E0600FE7
:1009C0004C2F89E994E00E94020341E04C0F25E09E
:1009D000602F89E994E00E945B1142E04C0F25E012
:1009E000602F89E994E00E945B1143E04C0F23E003
:1009F0006D2F89E994E00E945B1144E04C0F62E0A6
:100A0000600F07C089E994E00E945B1144E04C0F3D
:100A10006D2F89E994E0DF91CF911F910F910C9494
:100A20000203DF91CF911F910F910895DC0116967B
:100A30009C911697992359F01396ED91FC91149778
:100A4000915016969C93E90FF11D8081089581E0E5
:100A50000895DC0116962C91169730E06217730703
:100A60005CF4261B370B1396ED91FC911497E20F63
:100A7000F31F31978081089582E20895FC01268159
:100A80008581281748F48381948131E0320F3683C1
:100A9000FC01E20FF11D60830895FC0183819481C4
:100AA000009711F00C94B52108950F931F93CF93E5
:100AB000DF938C01FC0116826583C62FD0E0CE0146
:100AC0000E942021FC01C80FD91F21E0EC17FD076F
:100AD00011F02193FBCFF80194838383DF91CF91B1
:100AE0001F910F910895FC01908197FF02C09F779D
:100AF00001C0906890830895EF92FF920F931F9327
:100B0000CF93DF931F92CDB7DEB700E010E0C801AE
:100B1000835A9E4F7C01FC018681882371F0C701B6
:100B20000E941605898387FF04C0CE0101960E94AA
:100B300073056981C7010E943E05095F1F4F01339C
:100B4000110529F70F90DF91CF911F910F91FF9021
:100B5000EF9008950E9403130E94411481E090E0F9
:100B600090930101809300010E947C050E94EB029A
:100B70001092510108954F925F926F927F928F92DF
:100B80009F92AF92BF92CF92DF92EF92FF920F931C
:100B90001F93CF93DF93CDB7DEB727970FB6F894A7
:100BA000DEBF0FBECDBF81E080939F049091BB0458
:100BB000992309F4BEC08093A1041092A00410925E
:100BC0009F04109263048093B9048093BA0404E9EB
:100BD00012E0ECE0FE2E0E94E0098823E1F3F80128
:100BE0008491882319F0E0909E0401C0E12C6EEE00
:100BF00070E080E00E94F50D62E771E08CE08E0D00
:100C00000E94F50D1092A204F092A30484E992E0F0
:100C10000E94981480919D04982F990F890F8195B7
:100C20008D5A8093A20480919E04982F990F890F6A
:100C30008195835D8093A3048091BC0484FF03C0ED
:100C40008AEE90E002C086EE90E00E94B914809196
:100C50009D04982F990F890F81958D5A8093A20436
:100C60008091A3048F5F8093A304809175048823EF
:100C700019F082EE90E002C08EED90E00E94B9146F
:100C800080919D04982F990F890F81958D5A80939B
:100C9000A2048091A3048F5F8093A3048AED90E067
:100CA0000E94B914809161048130A1F4809175048F
:100CB0008F5F6091760487FD09C0082E000C990BA8
:100CC00070E06F5F7F4F0E945224682F609375041D
:100CD0000E94C714809160048130B9F08091BB04F8
:100CE000482F50E060E070E08090BC049090BD041C
:100CF000A090BE04B090BF0484169506A606B70661
:100D000008F455C18F3F09F452C18FEF8093BB04A3
:100D100060E080E794E00E9416111092710440E0B8
:100D200066E671E080E794E00E94271181E08093FD
:100D30006304C0906504D0906604C094D094E12C04
:100D4000F12C0E942A104B015C010E942A10A5017F
:100D500094012095309540955095609570958095BB
:100D600090950E9436249B01AC01C701B6010E94F8
:100D700036244B015C0180914C0490914D046C0130
:100D8000E12CF12C0E942A10C60ED71EE81EF91E77
:100D9000C701B601680D791D8A1D9B1D611571057E
:100DA0008105910511F00E94A02210926304109217
:100DB0005C0110925B01109251018BE080935A010B
:100DC00085E0809359011092580110925001E12C56
:100DD000F12CC70174E0880F991F7A95E1F7082F6D
:100DE000006811E0612F602B8AE491E00E943E05CB
:100DF0001F5F1E30B9F7FFEFEF1AFF0A84E0E81615
:100E0000F10439F700E010E02091500130E00217C2
:100E100013077CF57901E01AF10A49F00E949B2240
:100E20009701FF0C440B550B0E94A92203C060E000
:100E300070E0CB0120914D0130914E01F901E60F98
:100E4000F71F9081A0915001B0E0A01BB10BA20F41
:100E5000B31F11978C91808380915001E82FF0E0AF
:100E6000E01BF10BE20FF31F319790830F5F1F4FD1
:100E7000CBCF10922B0110923201109239011092B7
:100E8000400180E090E0FC01E35AFE4F1682079695
:100E900081339105C1F7109236025DE5852E51E050
:100EA000952E00E010E066E0462EDE0111965D0111
:100EB0006624639455245394702E770C7801C12CCA
:100EC000D12C8AE491E00E9416058F830E151F0530
:100ED00021F4CE0107960E94730520913602F50198
:100EE000842D11928A95E9F75982429EC0011124FE
:100EF00082579E4FF501DC01342D01900D923A95F9
:100F0000E1F7DC0112966C92129713961C921397DC
:100F1000F401EC0DFD1D308114963C931497318142
:100F2000370D15963C9315971196EC9211973F81CA
:100F30003C932F5F20933602BFEFEB1AFB0AE7E0EA
:100F4000CE0ED11CF7E0EF16F10409F0BACF0F5F17
:100F50001F4F87E0880E911C0730110509F0ACCFB8
:100F600010923602109201011092000110929F041B
:100F700088248A94612C10E090E3E92E00E0992403
:100F8000939423E0722E3EE6C32E31E0D32E40E749
:100F9000A42E41E0B42E0E94E0098823E1F3809161
:100FA00060040E2C000CFF08813049F432C080919F
:100FB0006204813009F00FCE0E9481150CCE909111
:100FC0006104913031F180916204813009F4ADC047
:100FD00061102FC080915F048F3F21F083708130BA
:100FE00009F49BC080915D048F3F21F083708130B4
:100FF00009F497C0023021F007FF03C001E001C0EF
:1010000000E080919E0414E0180F809F10191124B5
:101010001EC010919E04110F11951250813009F0DD
:1010200089C040E066E671E080E794E00E94271105
:10103000802EC701811B910917FD939502972CF40F
:10104000882009F450C083E04FC066246394C70130
:10105000810F911D17FD9A9597FD01962C015594CE
:101060004794E42C1092A2044092A3049092A1040D
:101070001092A004011102C07092A204F6018591A1
:1010800094910E94B914013039F47092A2048091B5
:101090009E04840D8093A304F501859194910E9490
:1010A000B9141092B9041092BA0480919E04442D90
:1010B000089F400D1124415024E560E089E994E047
:1010C0000E945B119092B9049092BA0480919E04A0
:1010D00063E0680F942D089F900D1124892F825092
:1010E0000E945A1458CF81E08093240127960FB6AE
:1010F000F894DEBF0FBECDBFDF91CF911F910F914E
:10110000FF90EF90DF90CF90BF90AF909F908F9027
:101110007F906F905F904F9008950F5F0E94C7146B
:1011200061CF01500E94C71465CF10919E04110F2A
:101130001195125040E06EE571E080E794E00E9466
:10114000271177CFFC01208130E084E03595279589
:101150008A95E1F72370332781E02230310529F0A9
:101160002330310511F080E008950895CF92DF9289
:10117000EF92FF920F931F93CF93DF931F92CDB700
:10118000DEB7E82EF62E142F498347FF02C083E016
:1011900001C080E08093B9048093BA040CE028E099
:1011A000DD24D394DF0C4D2DCC24C394CE0C6C2DB8
:1011B00089E994E00E947E1181E08093B9048093D4
:1011C000BA0428E04F2D6C2D89E994E00E945B1150
:1011D00028E04DE04F0D6C2D89E994E00E945B11F1
:1011E0002CE04D2D6E2D89E994E00E9473122CE0C5
:1011F0004D2D69E06E0D89E994E00E94731217FD90
:1012000023C0CE0101960E94A208882329F083E022
:101210008093B9048093BA04412F50E084E055953F
:1012200047958A95E1F74370552762E06F0D82E09C
:101230008E0D0E9456041F70412F50E067E06F0D25
:1012400085E08E0D0E945A030F90DF91CF911F9180
:101250000F91FF90EF90DF90CF900895EF92FF9263
:101260000F931F93CF93DF937C01FC01C681D0E0E5
:10127000CA30D10514F02A9702C0C0E0D0E000E0E7
:1012800010E0F70166816A3018F4862F90E002C002
:101290008AE090E008171907B4F470E0601B710B46
:1012A000615071096C1B7D0BC7010E942905602FDD
:1012B000660FF7019181690F482F80810E94B6085F
:1012C0000F5F1F4FDECFDF91CF911F910F91FF90E6
:1012D000EF900895DF92EF92FF920F931F93CF93B9
:1012E000DF9380915001882339F041E860914B01F0
:1012F00080914A010E94B608C0E0D0E06091580198
:10130000643008F04FC070E0C617D707ACF46C1B10
:101310007D0B6150710982E591E00E9429052C2F17
:10132000220F90915201482F60915301822F890F13
:101330000E94B6082196E2CFC5E2D1E000E010E0BD
:1013400083E0D82EC8018B5D9E4F7C01FC01868115
:10135000882361F060E070E0CE010E942905482FEB
:10136000F701618188810E94B6080BC0D092B90450
:10137000D092BA042EE04AE0F701618188810E9490
:101380001E17095F1F4F27960C311105D9F6CDE5C1
:10139000D1E0CE010E942E092796F1E0CE38DF077A
:1013A000C1F706C0C330D1053CF663E070E0AFCFB3
:1013B000DF91CF911F910F91FF90EF90DF900895F3
:1013C0004F925F926F927F928F929F92AF92BF9255
:1013D000CF92DF92EF92FF920F931F93CF93DF9301
:1013E00000D000D0CDB7DEB74091CB045091CC04F3
:1013F0006091CD047091CE042FB7F8948091400293
:1014000090914102A0914202B09143022FBF481B2C
:10141000590B6A0B7B0B8091CA0490E0A0E0B0E00E
:10142000C090C604D090C704E090C804F090C904EE
:1014300084179507A607B70730F4C114D104E10457
:10144000F10409F0F1C2CD28CE28CF2809F0EAC274
:101450008091620481508E3F08F580916104813053
:1014600011F5809175048F5F6091760487FD09C046
:10147000082E000C990B70E06F5F7F4F0E94522482
:10148000682F6093750486E794E09093D00480936E
:10149000CF0488E48093D1040E94C7148091620431
:1014A00081508E3F70F480916004813009F068C3F0
:1014B00089E694E09093D0048093CF0488E48093ED
:1014C000D10480E00E94B61580917104882309F44C
:1014D000ADC0809185048111A9C080917D04909157
:1014E0007E04E0918204F0918304EE0FFF1FE80F69
:1014F000F91F459154914115510501F52091810441
:10150000222331F01092830410928204FC0114C053
:101510001092710480917004882341F080E00E9451
:10152000B615E0918204F09183042FC060E080E75B
:1015300094E00E9416117AC0459154919A01369513
:1015400027953695279540FF51C0CA01B6E096957C
:101550008795BA95E1F78F71952F96959695969503
:1015600090512F70223071F1F8F4211117C08B3097
:1015700008F08AE080938604E0918204F09183046D
:101580003196F0938304E0938204EE0FFF1F809165
:101590007D0490917E04E80FF91FCECF213061F7D2
:1015A00060E00E94F715E8CF2330B1F0243021F736
:1015B00020917404829F802D112480938D04909338
:1015C0008E04DACF20917404829F802D11248093A1
:1015D000890490938A04D0CF20917404829F802D37
:1015E000112480938B0490938C04C6CF2F73209387
:1015F000840480917404859F802D11248093850438
:1016000010929504109294041092930481E08093B8
:10161000870480933B021092880480918204909109
:1016200083040196909383048093820480918704BD
:10163000882309F4F3C080918504811106C060E01D
:1016400080E794E00E941611E9C0815080938504E0
:1016500080919504811148C02091930430919404A5
:101660002F5F3F4FC901880F991FE0918F04F091C0
:101670009004E80FF91F65917491862F877080930D
:101680009604AB0163E0569547956A95E1F7CA0168
:1016900096958795972F96959695909397048F7327
:1016A00090917404899F802D11248093950441703A
:1016B00040933F02309394042093930480919104CB
:1016C00090E02817390780F020919204222339F006
:1016D000821B9109909394048093930405C060E069
:1016E00080E794E00E9416118091950481508093C8
:1016F00095048091880421E0280F2093880440916C
:10170000840430919704340F80917C04380F309317
:10171000720460918B04662371F070E0822F022EB8
:10172000000C990B0E94522480918C04869F300DEE
:101730001124309372048091720490E0849664E2E4
:1017400070E00E945224809372043091860430939A
:10175000730460918904662381F0062E000C770BD8
:10176000822F022E000C990B0E94522480918A0431
:10177000869F300D11243093730460918D0466238D
:10178000A1F0822F220F990B70E00E945224CB010E
:1017900062E070E00E94522420918E0490917304C4
:1017A000289F900D112490937304809173044F33FC
:1017B00041F08A300CF089E087FD80E0809373046B
:1017C00002C010927304F894E0917204F0E0EB56BA
:1017D000FD4FE491E0933E02309173042091980410
:1017E000320390011124409196044203C001439FAB
:1017F000900D11240090750402C0880F991F0A945F
:10180000E2F797FF02C081589F4F880F892F881FEA
:10181000990B80933D0280933C0278948091D1048F
:10182000882309F450C08C3020F49CE0D92ED81ABB
:1018300001C0D12CEE24E394E092A1041092B904EB
:101840001092BA0410919E043DE2F32ECF2CC11ADF
:10185000CD0C03E0010F2EE44C2D63E089E994E008
:101860000E947E11145003E00C0D212F41E0602FE7
:1018700080E50E943216212F42E0602F83E00E9413
:101880003216E092B904E092BA0480919E0463E0BB
:10189000680FF81A8F2D8D0D0E945A1484E08093E2
:1018A000A20480919E04D81A8D2D815D8093A3049B
:1018B0008091CF049091D0040E9498148091D1041B
:1018C00081508093D1048091670490916804892BA2
:1018D00009F480C011E01093B9041092BA049091F9
:1018E0009D0485E5891B8093A2041092A304809136
:1018F0006404813009F451C030F090916304853064
:1019000008F063C05EC060E080E794E00E941611BA
:10191000109271041093A104E7EEF2E0E491EF5FFE
:10192000E0939D04E8EEF2E0E491EF5FE0939E0423
:1019300089EE92E09093B8048093B7041092680403
:101940001092670410929F0418EA0E94E00988230D
:10195000E1F389ED92E00E94981460916504709122
:10196000660480E090E04AE00E94951684EC92E0E4
:101970000E949814612F62956F7070E080E090E093
:101980004AE00E94951689EB92E00E94981480919B
:101990006004813009F0FAC01DC08091BC049091B0
:1019A000BD04A091BE04B091BF048F709927AA27EF
:1019B000BB270897A105B10510F487E009C088E7A7
:1019C00007C0992339F08B5F03C0992319F08FE288
:1019D0000E94D6160E94411580919F0481110EC06D
:1019E00088EF91E0EBE4F2E0DF019C011D922150D1
:1019F0003040E1F71092A2041092A3040E942A1032
:101A00006093C6047093C7048093C8049093C9047C
:101A10002091C2043091C304621B730B7093C10404
:101A20006093C00480E0CCC02FB7F894809140024E
:101A300090914102A0914202B09143022FBF2091A8
:101A4000CA04820F911DA11DB11D8093CB049093F8
:101A5000CC04A093CD04B093CE048091BC049091AB
:101A6000BD04A091BE04B091BF040196A11DB11D9B
:101A70008093BC049093BD04A093BE04B093BF04B4
:101A80001092C6041092C7041092C8041092C904A0
:101A90000E942A106093C2047093C3048093C4040C
:101AA0009093C50480914C0490914D042FE0289FA1
:101AB0008001299F100D112485E10E941310800FD1
:101AC000911F24E0969587952A95E1F790934D0410
:101AD00080934C0420914B04222309F44BC0609165
:101AE0004F04262F30E040E050E029833A834B83B7
:101AF0005C83C0905004D12CE12CF12C4091530414
:101B0000509154044A01A12CB12C209151043091E0
:101B100052042901612C712C8217930728F09C0133
:101B20004817590708F49A01C901A0E0B0E09C01E8
:101B3000AD01241935094609570969817A818B81DC
:101B40009C816C197D098E099F090E943624A5018C
:101B5000940124193509460957090E94A922C20E89
:101B6000D31EE41EF51EC0924E046C2D70E085E07D
:101B70000E94B40F0E94CE140E94E11681E020C0A2
:101B8000893209F09ECC0E9481159BCC115009F03E
:101B9000DCCE60E070E085E00E94B40F83B7817F07
:101BA000846083BF83B7816083BF83B7816083BF55
:101BB000889583B78E7F83BF83B78E7F83BFC5CE63
:101BC0000F900F900F900F90DF91CF911F910F9179
:101BD000FF90EF90DF90CF90BF90AF909F908F904D
:101BE0007F906F905F904F9008958F929F92AF92E9
:101BF000BF92CF92DF92EF92FF920F931F93CF93FA
:101C0000DF93FB0124913196C490F090B904022E29
:101C1000000C330B121613060CF0D7C080330CF0F7
:101C2000D4C0482F082E000C550BFA01EC0DF11D05
:101C3000C7FCFA951E161F060CF0C7C06E5F7F4FDB
:101C4000D901179693E0B595A7959A95E1F787FF87
:101C50000BC0C80EA49FC001A59F900DB49F900D0E
:101C60001124681B790B80E04C2D0C2C000C550BBB
:101C7000480F511D87FD5A95413351051CF090E3E3
:101C8000C92EC81A2535310514F024E530E010912D
:101C9000A5041827982F977031E001C0330F9A954B
:101CA000EAF7859585958595F4E58F02C0011124A5
:101CB000855B9D4F00E00C2C000CDD08BB24B39429
:101CC000402F50E04C155D050CF07FC0FB01E49007
:101CD000F1E0FF1218C0FB01EC0140E8542F5E2137
:101CE00019F05881532B588350E05595479541156D
:101CF000510519F43196E49040E821965C2F581B69
:101D0000521760F359C0F1101AC0A32EA094FB0122
:101D1000EC0140E8542F5E2119F058815A21588374
:101D200050E0559547954115510519F43196E490C9
:101D300040E821965C2F581B521760F33DC043E0EA
:101D4000F41223C0932E9094FB01EC0140E8A82EDE
:101D50008C2E881A542F5E2141F08126588180FEF6
:101D600002C0532B01C05921588350E05595479527
:101D70004115510519F43196E49040E821965C2F05
:101D80005A19521728F31B2517C0FB01EC0140E834
:101D9000542F5E2119F058815327588350E05595F0
:101DA00047954115510519F43196E49040E8219684
:101DB0005C2F581B521760F3330F19F48C5A9F4F46
:101DC00031E00F5F6A0F7B1F7BCFDF91CF911F91B7
:101DD0000F91FF90EF90DF90CF90BF90AF909F90CA
:101DE0008F900895CF92DF92EF92FF920F931F93FF
:101DF000CF93DF936C017A018B01C0E0D0E0CE1568
:101E0000DF0589F0D8016D918D01D601ED91FC912E
:101E10000190F081E02DC6010995892B11F47E0116
:101E200002C02196ECCFC701DF91CF911F910F9196
:101E3000FF90EF90DF90CF9008950E948024833030
:101E400081F028F4813099F08230A1F00895873034
:101E5000A9F08830B9F08430D1F4809180008F7D72
:101E600003C0809180008F7780938000089584B5AF
:101E70008F7702C084B58F7D84BD08958091B000B6
:101E80008F7703C08091B0008F7D8093B00008955C
:101E90001F93CF93DF93282F30E0F901EE5FFA4FC5
:101EA0008491F901E251FB4FD491F901E652FB4FC5
:101EB000C491CC23C9F0162F81110E941F0FEC2F63
:101EC000F0E0EE0FFF1FEE54FF4FA591B4918FB7D6
:101ED000F894111105C09C91ED2FE095E92302C003
:101EE000EC91ED2BEC938FBFDF91CF911F91089573
:101EF000CF93DF9390E0FC01E251FB4F2491FC0172
:101F0000E652FB4F8491882361F190E0880F991F7E
:101F1000FC01E855FF4FC591D491FC01EE54FF4FF1
:101F2000A591B491611109C09FB7F894888120955B
:101F300082238883EC912E230BC0623061F49FB71B
:101F4000F8943881822F809583238883EC912E2BFF
:101F50002C939FBF06C08FB7F894E8812E2B28835F
:101F60008FBFDF91CF9108951F93CF93DF93182FE9
:101F7000EB0161E00E94780F209711F460E004C04B
:101F8000CF3FD10539F461E0812FDF91CF911F91CF
:101F90000C94480FE12FF0E0EE5FFA4FE491E3304C
:101FA000F9F048F4E130B9F0E230A1F584B580628F
:101FB00084BDC8BD34C0E730E9F0E83019F1E43041
:101FC00049F580918000806280938000D0938B00DF
:101FD000C0938A0024C084B5806884BDC7BD1FC07B
:101FE00080918000806880938000D0938900C093A6
:101FF000880015C08091B00080688093B000C093C5
:10200000B3000DC08091B00080628093B000C09397
:10201000B40005C0C038D1050CF0B5CFAFCFDF910B
:10202000CF911F9108958E3008F08E508770806494
:1020300080937C0080917A00806480937A00809104
:102040007A0086FDFCCF809178002091790090E0A5
:10205000922B08953FB7F8948091470290914802DF
:10206000A0914902B0914A0226B5A89B05C02F3F16
:1020700019F00196A11DB11D3FBFBA2FA92F982FAE
:102080008827820F911DA11DB11DBC01CD0142E029
:10209000660F771F881F991F4A95D1F708958F9271
:1020A0009F92AF92BF92CF92DF92EF92FF926B011D
:1020B0007C010E942A104B015C01C114D104E1048F
:1020C000F104F1F00E942A10DC01CB018819990972
:1020D000AA09BB09883E9340A105B10570F321E030
:1020E000C21AD108E108F10888EE880E83E0981E34
:1020F000A11CB11CC114D104E104F10419F7DDCF16
:10210000FF90EF90DF90CF90BF90AF909F908F9017
:1021100008951F920F920FB60F9211242F933F93A1
:102120008F939F93AF93BF93809140029091410210
:10213000A0914202B09143023091460223E0230F66
:102140002D3720F40196A11DB11D05C026E8230FEF
:102150000296A11DB11D20934602809340029093E8
:102160004102A0934202B0934302809147029091B2
:102170004802A0914902B0914A020196A11DB11DE9
:102180008093470290934802A0934902B0934A0279
:10219000BF91AF919F918F913F912F910F900FBE63
:1021A0000F901F9018951F920F920FB60F92112447
:1021B0002F936F937F938F939F9360913D0266233C
:1021C00059F1809145028F5F8093450290913E02C4
:1021D000891710F120913B0281E0282720933B02D0
:1021E0001092450280913F02882369F0809102019C
:1021F00093E4899F802D1124895B809302010E94C2
:10220000462490933C02222329F080913C02809343
:10221000B40002C080E0FBCF9F918F917F916F91BE
:102220002F910F900FBE0F901F901895FC01611118
:102230000DC0178A158A14A213A2108E10923C02A8
:1022400010923D0210923B021092B4000895EF925A
:10225000FF920F931F93CF93DF931F92CDB7DEB7FB
:102260007C018B01411105C060E049830E94161179
:10227000498150E0FA01EE0FFF1FEE0DFF1D16879A
:102280000587DA011996AA0FBB1FAE0DBF1D1D925F
:102290001C92F701E40FF51F81E0818389E0868BB2
:1022A000118E138E158E0F90DF91CF911F910F918C
:1022B000FF90EF900895DF92EF92FF920F931F939C
:1022C000CF93DF931F92CDB7DEB78C01D62EF42EBD
:1022D000E12CE21654F46E2D6D0D4F2DC8012983AB
:1022E0000E940203E3942981F4CF0F90DF91CF91F4
:1022F0001F910F91FF90EF90DF900895DF92EF9282
:10230000FF920F931F93CF93DF937C01D62FD22E92
:10231000C42F002E000C110B040F111D47FD1A9540
:102320004C2F0C2E000C550B4017510744F42D2D4B
:102330004C2F6D2FC7010E945B11CF5FF1CFDF9152
:10234000CF911F910F91FF90EF90DF9008956F92C2
:102350007F928F929F92AF92BF92CF92DF92EF9235
:10236000FF920F931F93CF93DF93EC016A3019F420
:102370002D819885A1C06D3009F4A4C01885BA8458
:10238000D98488A083E58D150CF47FC08FE28B156E
:102390000CF47BC08C8190E00197189F9001199FED
:1023A000300D1124C9018D0D911DD7FC9A95181679
:1023B00019060CF06AC08D81819FC00111248B0D1C
:1023C000911DB7FC9A95181619060CF05EC09D2C4D
:1023D000CD2CE62EF12CEC2DED190E2E000CFF0B62
:1023E0008C8190E0E817F9070CF04EC00197E817D0
:1023F000F90779F0E89E9001E99E300DF89E300DC6
:102400001124E20FF31F8E8D9F8DE80FF91F74903A
:1024100001C0712C6B2CAB2C2A2D2B19022E000C19
:10242000330B8D8190E0281739075CF570FE10C0E2
:10243000113031F44A2D6C2DCE010E9402031DC0D3
:10244000012F212F462D692DCE010E947E1115C02E
:1024500089A198A1891789F088A3113031F44A2DF8
:102460006C2DCE010E94020307C0012F212F462DA3
:10247000692DCE010E947E1188A27694A394610EEC
:10248000CBCFC394910EA7CF88A228853C818985A4
:10249000329F800D112489879F81992399F0082EFE
:1024A000000C990B44E550E0239F40195109112479
:1024B000481759073CF49D818A85299F800D112476
:1024C0008A87198681E090E0DF91CF911F910F916B
:1024D000FF90EF90DF90CF90BF90AF909F908F9044
:1024E0007F906F900895DF92EF92FF920F931F936A
:1024F000CF93DF931F92CDB7DEB78C01D62EF42E8B
:10250000E12CE21654F44E2D4F0D6D2DC801298398
:102510000E940203E3942981F4CF0F90DF91CF91C1
:102520001F910F91FF90EF90DF90089540E06DE7CD
:1025300074E080E794E00C94271142E0460F23E01A
:10254000682F89E994E00C945B11462F23E0682FF3
:1025500089E994E00C94731242E0460F23E0682F5F
:1025600089E994E00C94731244E0460F23E0682F4D
:1025700089E994E00C945B1142E0460F62E0680F39
:1025800023E089E994E00C947312462F62E0680F0F
:1025900023E089E994E00C947312462F23E0682F1E
:1025A00089E994E00C945B111F93CF93DF93C82FBC
:1025B000162F861721F1862F90E08C1B910963E07E
:1025C00070E00E945224D62F611117C06091BC04A4
:1025D0007091BD048091BE049091BF0423E030E06F
:1025E00040E050E00E94DB22672B682B692B29F426
:1025F000C11710F0DFEF01C0D1E08D2F8C0FDF91FC
:10260000CF911F91089580915B0190915C0186307C
:10261000910554F482309105A4F40097E9F00197F4
:10262000D1F422E531E01AC08D309105A4F406976B
:1026300047E0489F9001499F300D1124235A3E4F97
:102640000DC0029747E0489F9001499F300D11242B
:102650002B5D3E4F03C008952AE431E0C90108957F
:10266000CF93DF93C091440287E0C89FE00111241B
:10267000CB5DDE4F8E81882309F451C0CE010E94CC
:102680001605809341018881109242018093430195
:10269000898110924401809345010E949B2222E08F
:1026A00030E040E050E00E94A922672B682B692BA4
:1026B00019F4CFEFDFEF02C0C1E0D0E00E949B220F
:1026C00020E031E040E050E00E94A922DC01CB0193
:1026D0009F5FAF4FBF4FC89F9001C99F300DD89FDC
:1026E000300D112430934701209346010E949B2214
:1026F00020E032E040E050E00E94A922719561950F
:10270000710970934901609348018091440290E0FF
:102710000196837099278093440281E001C080E094
:10272000DF91CF910895CF93DF93C82FD62F0E94CA
:10273000CD126D2F8C2F0E94A5126D2F8C2F0E9411
:102740009D126D2F8C2F0E94BC126D2F8C2FDF914C
:10275000CF910C94B412AF92BF92CF92DF92EF92CE
:10276000FF920F931F93CF93DF93182F062FC1E093
:10277000D3E08AEFD82E9EEFE92E842F8470C82EE6
:10278000842F8270B82E842F8870A82E4170F42E6A
:102790008C2F880F8F5FE80ECC2081F04D2F400FDB
:1027A0006C2F610F89E994E00E9402034C2F400FC7
:1027B0006D2F610F89E994E00E940203BB2081F034
:1027C000402F4D1B6C2F610F89E994E00E9402039A
:1027D000402F4C1B6D2F610F89E994E00E9402038A
:1027E000AA2081F04C2F400F612F6D1B89E994E0E6
:1027F0000E9402034D2F400F612F6C1B89E994E06A
:102800000E940203FF2081F0402F4C1B612F6D1BA3
:1028100089E994E00E940203402F4D1B612F6C1B3D
:1028200089E994E00E940203CD1744F4E7FC04C058
:10283000D150D394D394ED0CCF5FAACFDF91CF9139
:102840001F910F91FF90EF90DF90CF90BF90AF90CE
:102850000895BC01009791F0FC0101900020E9F778
:102860003197AF01481B590BE0919904F0919A04FC
:102870000280F381E02D89E994E0099480E090E002
:1028800008950F931F93CF93DF938C01C091D804C9
:10289000D0E0219750F0BE0182ED94E00E9429051E
:1028A000682FC8010E943E05F4CFDF91CF911F91A0
:1028B0000F9108951F93CF93DF93C82F162F2EE407
:1028C000482F63E089E994E00E945B11DC2FD10F6F
:1028D0004FEF4D0F2EE463E089E994E00E945B1115
:1028E0001650CD5F212F4C2F60E089E994E00E94C3
:1028F0007312212F4C2F63E589E994E00E94731233
:1029000041E06C2F83E00E94AB1342E06C2F80E526
:102910000E94AB13D45044E06D2F80E50E94AB13AE
:1029200048E06D2F83E0DF91CF911F910C94AB13A2
:102930000F931F93CF93DF938C01C0E0D0E0F80199
:10294000EC0FFD1F6491662371F0E0919904F09102
:102950009A040190F081E02D89E994E00995892B92
:1029600011F02196ECCFCE01DF91CF911F910F9105
:102970000895CF93DF930E949814EC0189E191E0D0
:102980000E9429148C0F9D1FDF91CF91089540E084
:1029900066E175E080E794E00C942711CF92DF9216
:1029A000EF92FF920F931F93CF93DF93C5E5D4E08F
:1029B0000CE514E0FF24FA9497E0E92EE00E62E0C3
:1029C00088810E94780F288130E0F901EE5FFA4F8C
:1029D0008491F901E251FB4FC490F901E652FB4F9B
:1029E000D490DD2071F081110E941F0FED2DF0E0D9
:1029F000EE0FFF1FE053FB4FA591B491EC91EC213A
:102A0000B1F4F80180818F5F808360E088810E944B
:102A1000780F21960F5F1F4FE012D1CFDF91CF913A
:102A20001F910F91FF90EF90DF90CF900895F801E4
:102A30008081882371F3F8018F3F11F41082E5CF74
:102A4000F082E3CFCF93C82FF89460E08091A80480
:102A50000E94480F8091A90418161CF460E00E949F
:102A6000480FCEBD00000DB407FEFDCF8EB580919E
:102A7000A90418161CF461E00E94480F7894CF91C5
:102A800008950F931F93CF938091A5048F5F809338
:102A9000A5040BE412E0C0E08C2F80640E94221594
:102AA00080E80E94221561E08091A8040E94480FEE
:102AB0008091A90418161CF460E00E94480F80E081
:102AC00090E0F801E80FF91F20812EBD00000DB441
:102AD00007FEFDCF2EB501968435910591F78091C3
:102AE000A90418161CF461E00E94480FCF5F0C5A2D
:102AF0001F4FC63089F680E4CF911F910F910C943F
:102B0000221588EF91E0EBE4F2E0DF019C011D92D9
:102B100021503040E1F71092A2041092A30488EAF9
:102B200094E00E9498140E9441158CB583608CBD7E
:102B30008DB58E7F8DBD8CE191E0EEEFFFE30995C1
:102B400010929F0483E894E00E94B9140E944115FA
:102B50000E94CE1480916004813039F062E370E00D
:102B600080E090E00E944F10F3CF0895CF93DF9361
:102B7000482F50E0EA01C55BDB4F9DA19923A1F1ED
:102B80009EA1911131C09EA5FA01EE0FFF1FEE5AD2
:102B9000FB4F35A126A1E32FF22FE90FF11DE90F1D
:102BA000F11D259134912F3F9FEF390711F41DA29C
:102BB0001BC039AB440F551FFA01EB5AFB4F3327AB
:102BC000220F331F05A0F6A1E02DE20FF31F659140
:102BD0007491811105C040E080E794E00E942711C4
:102BE00029968DA18F5F8DA3DF91CF91089570E01D
:102BF000DB01AA0FBB1FA55BBB4FD4962C91D497CA
:102C0000D5969C91D597E22FF92FE80FF11DE80F8B
:102C1000F11D259134915F9696963C932E9395974E
:102C2000F9018591949190917404989F802D1124BD
:102C3000655B7B4FFB01B19685A3F901A591B4912A
:102C40004B2F50E0E82FF0E04E175F0720F4F9011A
:102C500025913491832FFB01B296899F802D1124F9
:102C600085A308959F92AF92BF92CF92DF92EF9289
:102C7000FF920F931F93CF93DF93F82EE62EB22E81
:102C800003E0020FD0E0C3E08AEFC82E1EEF842FCE
:102C90008170982EAA24A394A20E4270D42EDF5FD6
:102CA000802F8B19180F9920A1F02C2F220F2A0D9D
:102CB0004E2D4C1B6D2F6F0D89E994E00E9473120D
:102CC000202F4E2D4D1B6C2F6F0D89E994E00E9433
:102CD0007312DD20A1F02C2F220F2A0D4E2D4C1B3C
:102CE0006F2D6D1B89E994E00E947312202F4E2DE9
:102CF0004D1B6F2D6C1B89E994E00E947312DC1749
:102D000044F417FD04C0C150C394C3941C0D0E5F5E
:102D1000C6CFDF91CF911F910F91FF90EF90DF9081
:102D2000CF90BF90AF909F9008958F929F92AF9257
:102D3000BF920F931F93CF93DF93CDB7DEB7A197C9
:102D40000FB6F894DEBF0FBECDBF19A2423008F413
:102D50004AE08E010F5D1F4F842E912CA12CB12CC7
:102D6000A50194010E94DB22E62FB901CA0101509E
:102D70001109EA3014F4E05D01C0E95CD801EC937C
:102D8000232B242B252B61F7C8010E942914A1961F
:102D90000FB6F894DEBF0FBECDBFDF91CF911F916C
:102DA0000F91BF90AF909F908F900895E0919904FC
:102DB000F0919A040190F081E02D682F89E994E068
:102DC00009948091670490916804892BB1F18091F6
:102DD0006F048F7169F584E10E941310BC01990F93
:102DE000880B990B0E943D2326EE3FE34EEC50E406
:102DF0000E94A1230E940C239B01709366046093A0
:102E00006504672B91F084E080936404E7E6F4E0C6
:102E100080E0419151912417350718F480936404A0
:102E200008958F5F8430A9F703C08FEF8093640407
:102E300080916F048F5F80936F0408950F931F93A9
:102E4000CF93DF93C82F162FD42F022F242F462F76
:102E5000682F89E994E00E945B114FEF400F410F0A
:102E60002D2F6C2F89E994E00E945B11202F412FB8
:102E70006C2F89E994E00E947312D1506D2F6C0F72
:102E8000202F412F89E994E0DF91CF911F910F917D
:102E90000C947312CF93DF9300D000D01F92CDB764
:102EA000DEB7789484B5826084BD84B5816084BDCA
:102EB00085B5826085BD85B5816085BD80916E00D8
:102EC000816080936E001092810080918100826009
:102ED0008093810080918100816080938100809146
:102EE00080008160809380008091B1008460809335
:102EF000B1008091B00081608093B00080917A0031
:102F0000846080937A0080917A00826080937A0056
:102F100080917A00816080937A0080917A00806845
:102F200080937A001092C10082E38093CA0481E00A
:102F300090E0A0E0B0E08093C6049093C704A09313
:102F4000C804B093C9048FEF8093BB04E0E8F7E7AF
:102F5000259134912130304C09F049C0E6E9F7E77A
:102F6000E491E093A404E7E9F7E7E491E0934F04E8
:102F7000E8E9F7E7E491E0935004E9E9F7E78591A0
:102F800094919093520480935104EBE9F7E7859173
:102F90009491909354048093530488E08093760432
:102FA000EEE9F7E7E491E0937504EFE9F7E7E491E0
:102FB000E093BB04E0EAF7E785919491909368046D
:102FC00080936704E2EAF7E78591949190936A040D
:102FD00080936904E4EAF7E78591949190936C04F7
:102FE00080936B04E6EAF7E7859194912CC09CE30B
:102FF0009093A40410924F048093500480E293E0D5
:10300000909352048093510484ED93E09093540480
:103010008093530488E080937604809375048CEA4F
:103020009DE090936804809367048EED9DE09093FB
:103030006A048093690484E79EE090936C04809313
:103040006B048CE39FE090936E0480936D0411E019
:1030500010934B046FEF70E085E00E94B40F88E09E
:103060008093550489E08093560487E08093570449
:1030700086E08093580404E00093590482E0809332
:103080005A0481E180935B040E94CE148CE39FE09C
:1030900090936604809365040093640410936F0416
:1030A0008BE08093A7048DE08093A60480E1809359
:1030B000A8048EE08093AA048FE08093A904109363
:1030C000A1041093B9041092BA041093A004E7EE7F
:1030D000F2E0E491EF5FE0939D04E8EEF2E0E4912A
:1030E000EF5FE0939E0489EE92E09093B8048093A2
:1030F000B7041FB7F89480913702811127C0E4EE1E
:10310000F4E08491E8EFF4E09491E82FF0E0EE0F22
:10311000FF1FE855FF4FA591B491EC91E92321F4ED
:1031200061E08AE00E94480F61E08AE00E94780F27
:103130008CB580618CBD8CB580648CBD61E08DE008
:103140000E94780F61E08BE00E94780F8091370237
:103150008F5F809337021FBF8CB58F7D8CBD8CB580
:103160008C7F81608CBD8DB581608DBD8CB58C6090
:103170008CBD61E08091A7040E94780F61E080918E
:10318000A6040E94780F61E08091A8040E94780F45
:103190008091AA0418161CF461E00E94780F8091B7
:1031A000A90418161CF461E00E94780F8091AA040B
:1031B000181674F460E00E94480F6AE070E080E046
:1031C00090E00E944F1061E08091AA040E94480F95
:1031D0008091A604082E000C990BFC01E652FB4FCF
:1031E000E491F0E0EE0FFF1FEE54FF4F2591349174
:1031F0003093AE042093AD04FC01E251FB4FE49107
:10320000E093B4048091A704082E000C990BFC01F4
:10321000E652FB4FE491F0E0EE0FFF1FEE54FF4F3C
:10322000259134913093AC042093AB04FC01E2511E
:10323000FB4FE491E093B3048091A904082E000CA5
:10324000990BFC01E652FB4FE491F0E0EE0FFF1FFB
:10325000EE54FF4F259134913093B0042093AF0486
:10326000FC01E251FB4FE491E093B5048091A80486
:10327000082E000C990BFC01E652FB4FE491F0E0A4
:10328000EE0FFF1FEE54FF4F259134913093B2049F
:103290002093B104FC01E251FB4FE491E093B604AA
:1032A00081E20E94221584E10E9422158091A404EB
:1032B00087FF03C08FE78093A4048091A4048068F3
:1032C0000E94221580E20E9422158CE00E942215A5
:1032D0000E94411581E08093740484E080939804F7
:1032E00084EA90E09093800480937F0460E080E023
:1032F0000E94F71561E070E083E00E94B40F8091B6
:10330000B100887F81608093B100F89410928000B2
:1033100010928100109285001092840088E191E063
:1033200090938900809388008091810088608093C9
:1033300081008091810081608093810080916F0085
:10334000826080936F0078940E94E11680916104FE
:10335000813009F0FCC41092750485E28093250148
:10336000109226011092270181E380932C01109284
:103370002D0110922E018DE38093330110923401C0
:103380001092350189E480933A0110923B0110922A
:103390003C01EFE5F1E080E020E191E0DF011297F0
:1033A00031E0380F3C9311962C939083845F3796CD
:1033B0008435A1F781E080934A0110924B0110926D
:1033C0004C018DE080935201109253010E94BB0585
:1033D00088248394912C74E0E72EF12C0E94E0095C
:1033E000882309F4ACC480916204813009F4BCC420
:1033F00080910001909101018130910521F00397A6
:1034000009F465C0C2C0A0905B01B0905C018091DE
:103410005E04813071F425E0A216B10451F08CE015
:10342000A816B10431F0C501019690935C01809318
:103430005B0180915C04813071F480915B0190911B
:103440005C01009741F08630910529F00197909337
:103450005C0180935B0180915F04813041F4809135
:103460005101882309F483C48150809351018091D4
:103470005D04813011F5C0905B01D0905C01860144
:10348000065011090730110508F084C40E94031387
:1034900070905101672D70E06F5F7F4FDC011696D1
:1034A0002C9130E0621773070CF074C40E94290558
:1034B00087FD70C4739470925101209161048091D2
:1034C0005B0190915C01213009F07AC44EC080917B
:1034D0005E04813079F480915B0190915C018530CC
:1034E000910541F08C30910529F0019690935C0193
:1034F00080935B0180915C04813079F480915B0161
:1035000090915C018130910541F08630910529F060
:10351000019790935C0180935B0180915F048130FF
:1035200071F480915B0190915C018130910509F00B
:1035300052C587E090E090935C0180935B0180919D
:103540005D04813069F480915B0190915C01893068
:1035500091050CF446C5079790935C0180935B013D
:1035600080916004813089F444C5863091050CF067
:103570002DC4019709F42AC480915B0190915C01EC
:10358000A816B90611F01092510100910001109196
:1035900001010530110511F00E946A090230110580
:1035A00009F4BCC244F40115110581F00130110584
:1035B00009F497C0C4C30430110509F41AC30CF40C
:1035C000F0C20530110509F457C3B9C38091360222
:1035D0008C31A8F44091BC045091BD046091BE04AC
:1035E0007091BF044370552766277727452B462BDC
:1035F000472B29F48F5F809336020E9496128091A8
:10360000360291E08C3109F090E011E9C12E11E011
:10361000D12E03E911E020E9A22E21E0B22E612C87
:10362000712C282E312C621473040CF052C0D50179
:103630008C91F80122912F01821306C0D6013C9192
:10364000F80120813217C9F1F6E0F69D9001F79D4F
:10365000300D112422573E4FD9014C91F601608163
:103660002D833C830E94B608D2014C90642DF50155
:1036700080810E94D412982FD5018C93F80150803C
:10368000652DD6018C919B830E94D412F601808314
:103690009B812D813C8194110FC085110DC0F801D3
:1036A00034978081F7E0F89FC0011124D9016C9113
:1036B000835A9E4F0E943E0590E0BFEF6B1A7B0A33
:1036C000E6E0CE0ED11C0A5F1F4FF6E0AF0EB11C34
:1036D000AACF992309F433C390920101809200018B
:1036E0002EC380915B0190915C018D30910508F0B3
:1036F0007EC0FC01EC5CFF4F0C9466246BE00FC0B5
:103700006091580170E06115710531F06430710508
:103710002CF4660F6B5E03C067E101C06BE1809122
:103720005A010E94D41280935A0164E08091590199
:103730000E94D412809359015AC06EE105C06AE21A
:1037400003C066E301C062E480915A010E94D41272
:1037500080935A0164E0809159010E94D4128093B1
:10376000590121E045C09C0126503109099794F484
:1037700047E0429FF001439FF00D1124E35AFE4FB2
:103780006081665F80915A010E94D41280935A0131
:1037900020E011C087E0829FF001839FF00D11248B
:1037A000E35AFE4F6081675080915A010E94D41203
:1037B00080935A0121E0609151012D83611107C06E
:1037C0000E94031360E00E94D20264E007C06B8392
:1037D0000E9403136B810E94D2026EEF680F8091EA
:1037E00059010E94D412809359012D8101C020E01B
:1037F00010915901D0905A0103E00D0DB6E07B2ED7
:10380000710EA12CB12C222309F4C1C0442443948D
:10381000CC24C3944092B9044092BA04512E5A0C5D
:10382000302E3A0C452D632D89E994E00E94020365
:10383000672C6A18462D632D89E994E00E940203E3
:103840001092B9041092BA042A2D452D602F89E9EF
:1038500094E00E945B112A2D462D602F89E994E0A7
:103860000E945B119FEFA91AB90AA4E0AA16B1043D
:1038700079F6C092B904C092BA0427E0412F62E001
:103880006D0D89E994E00E94731222E042E0410F3D
:103890006D2D89E994E00E945B1122E044E0410F24
:1038A0006D2D89E994E00E945B1103E0010F402F28
:1038B0006D2D89E994E00E9402031092B9041092E0
:1038C000BA0422E0402F61E06D0D89E994E00E9486
:1038D0005B11C0905101CC2009F431C20E94031346
:1038E0006C2D70E00E942905C82E89838F70A82E48
:1038F000B12C8A3011F030E001C032E081E08093D9
:10390000B9048093BA045D2D531B4DE0430F29E0A9
:103910006FEF610F84EF850F3C835B830E941E175E
:103920001092B9041092BA04402F6D2D89E994E0E9
:103930000E9402033C812BE0230F5B8165EF650F42
:1039400007E0412F89E994E00E947E11CE010196A3
:103950000E94A208811102C081E001C083E080932F
:10396000B9048093BA041F5FA501612F86EF8D0D06
:103970000E945A034C2D50E0A4E055954795AA9516
:10398000E1F743705527612F8AEF8D0DC4C03324B2
:103990003394CC24C3943092B9043092BA04412EAB
:1039A0004A0C442D602F89E994E00E940203572CB1
:1039B0005A18452D602F89E994E00E940203109265
:1039C000B9041092BA0466246394600E2A2D442D23
:1039D000662D89E994E00E945B112A2D452D662D04
:1039E00089E994E00E945B11BFEFAB1ABB0A01505A
:1039F000E4E0AE16B10469F6C092B904C092BA040C
:103A000027E0412FE4E0BE2EBD0C6B2D89E994E048
:103A10000E94731222E042E0410F05E00D0D602F7D
:103A200089E994E00E945B1122E044E0410F602F9D
:103A300089E994E00E945B11F3E0CF2EC10E06E00D
:103A40000D0D4C2D602F89E994E00E940203109225
:103A5000B9041092BA0422E04C2D6B2D89E994E050
:103A60000E945B11B0905101BB2009F468C10E9413
:103A700003136B2D70E00E942905782E89838F70C7
:103A8000A82EB12C8A3011F0612C02C072E0672E92
:103A900081E08093B9048093BA0429E04DE0460D9B
:103AA0006FEF610F802F0E941E171092B9041092C1
:103AB000BA044C2D602F89E994E00E94020307E0CC
:103AC0002BE0260D412F67E06D0D89E994E00E94FF
:103AD0007E11CE0101960E94A208811102C081E0F0
:103AE00001C083E08093B9048093BA041F5F062D60
:103AF0000D0DA501612F88E0800F0E945A03472D0C
:103B000050E064E0559547956A95E1F74370552775
:103B1000612F8CE0800F0E94560411C182ED94E069
:103B20000E942E0961E18091D2040E94D412182FC4
:103B30008093D20460E08091D3040E94D4128093D9
:103B4000D304113109F0FBC08111F9C060E070E0CD
:103B500082ED94E00E942905682F82E591E00E94A1
:103B60003E0580913A02882309F4B6CD81508093B6
:103B70003A021092D8048AE491E00E9416058983E3
:103B8000CE0101960E947305698182ED94E00E9446
:103B90003E0581E08093D2041092D3040E949612D5
:103BA000CEC082ED94E00E942E090E9403138C0186
:103BB000DC0112968C911297882331F01696DC90D6
:103BC000DD0CD394D39402C032E0D32EF80160818F
:103BD0008091D2040E94D4128093D204D80111960D
:103BE0006C916D0D8091D3040E94D4128093D30404
:103BF000A6C00091380210913902F8018281882311
:103C000021F08681D82EDD0C01C0D12CD8016C9119
:103C10008091D2040E94D4128093D204F801618171
:103C20006D0D8091D3040E94D4128093D30482ED51
:103C300094E00E942E099091D204D8018C9198139F
:103C40007EC02091D30430E011964C918D2D90E0F0
:103C5000840F911D2817390709F071C0C8010E940F
:103C6000411490920101809200010E947C050E9403
:103C7000EB021092510163C080919F04811107C033
:103C800081E080939F040E946A090E943013209172
:103C900048013091490120583F4F3093490120930A
:103CA0004801409142015091430180914601909119
:103CB0004701840F951F90934301809342018091A7
:103CC000440190914501820F931F8130B2E29B071E
:103CD0002CF490934501809344011BC0E0E0F2E294
:103CE000F0934501E09344014CEF4203C001439F30
:103CF000900D112465E070E00E94522470934901F8
:103D00006093480140E06AEC70E080E794E00E9434
:103D100027116091450140914101809143010E942A
:103D2000B6088091420190914301965F81309E4593
:103D300030F00E943013811102C00E94BB0580E068
:103D400090E0892B09F44ACB0E94000044CB80917B
:103D50006404882309F4FFCA40E06CEB70E080E75C
:103D600094E00E942711F9CA0E94BB0541CB8091C3
:103D70005B0190915C018230910514F4069605C0B8
:103D8000863091050CF073CB079690935C0180937D
:103D90005B016DCBB8E0CB16D10444F0E7E0CE1A5E
:103DA000D108D0925C01C0925B0187CBF6E0CF16C0
:103DB000D1040CF482CB10935C0100935B017DCBAA
:103DC00010916004113009F0D7CB39C00E94031361
:103DD0008C01DC0116968C91882309F4CDCB60E030
:103DE00070E0C8010E942905612C712C282F2F70CA
:103DF000F301EB5DFE4F6F01868181115AC02130C6
:103E000009F057C01092D804D8018C918093D20445
:103E100060E0C8010E94D2028093D304C8010E94CE
:103E20001605682F82ED94E00E943E05D09239027B
:103E3000C0923802F0920101E092000137C0813057
:103E4000910509F470C00CF06AC0892B09F094CB7D
:103E500080915001882309F4AAC01092D8048AE402
:103E600091E00E9416058983CE0101960E94730598
:103E7000698182ED94E00E943E051093D204109275
:103E8000D3049091240180915001492F50E0282FB4
:103E900030E02417350714F08FEF890F80933A0232
:103EA00082E090E090930101809300010E949612BD
:103EB00063CB60E070E0C6012D830E942905582E77
:103EC00060E070E0C8010E942905652D70E094E073
:103ED000759567959A95E1F763707727482F50E0BD
:103EE00024E0559547952A95E1F7437055272D8194
:103EF0006417750759F4452D4F7050E04F5F5F4FC1
:103F00008F7090E04817590709F47CCFB7E06B0E2B
:103F1000711CECE16E16710409F06ACF2DCB069787
:103F2000079708F029CB0E9403136C019093390284
:103F300080933802DC0116968C911697882309F439
:103F40001BCB1092D8048C918093D20460E0C60100
:103F50000E94D2028093D304F60186810091510120
:103F600010E0282F30E00F5F1F4F201731070CF4AF
:103F70008901801BD60116968C93612C712C6016DA
:103F8000710691F0F60186810380F481E02DE60D43
:103F9000F71DE80FF11D608182ED94E00E943E055F
:103FA000FFEF6F1A7F0AEBCF83E090E07BCF809129
:103FB0005801882309F4E0CA82E591E00E941605C1
:103FC0008983CE0101960E94730569818AE491E09C
:103FD0000E943E05ECCF863091050CF0B0CA0796E2
:103FE000AACA06970CF4BCCA90925C0180925B014D
:103FF000B7CA40E06AEC70E080E794E00E942711C5
:1040000080915B0190915C01863091050CF04EC06F
:10401000823091050CF446C08091D804813009F0BB
:1040200083C00E940313DC0116962C9160E070E0BF
:10403000211109C082ED94E00E9429058F70813022
:1040400009F072C02AC00E942905182F60E070E0B4
:1040500082ED94E00E942905412F50E034E055950F
:1040600047953A95E1F743705527282F30E064E0F3
:10407000359527956A95E1F7237033274217530743
:1040800009F052C01F70212F30E02F5F3F4F8F701B
:1040900090E02817390709F047C00E94AA050E943E
:1040A000EB0273CA019709F43FC06FCA0D970CF079
:1040B0006CCA0E940313FC012681222331F160E0C7
:1040C00070E00E9429058A836091D80470E06150F5
:1040D000710982ED94E00E942905182F8983CE0191
:1040E00002960E94A208082FCE0101960E94A20803
:1040F0000817D1F02A812F7030E01F70812F90E0D7
:1041000001962817390781F40CC06091D80470E03B
:104110006150710982ED94E00E9429058F708D3005
:1041200019F40E94AA0531CAF0920101E09200013F
:104130002CCACF93DF93CEE8D1E02797CE010E941F
:104140004D0581E0CD35D807C1F78AE391E00E94A3
:104150004D0583E391E00E944D058CE291E00E94C1
:104160004D0585E291E00E944D0582E591E00E94B7
:104170004D058AE491E00E944D0582ED94E0DF91C7
:10418000CF910C944D0510929C0410929B0481E1F8
:1041900091E090939A04809399046DE082ED94E00D
:1041A0000E94550564E38AE491E00E94550564E3AA
:1041B00082E591E00E9455056DE085E291E00E9464
:1041C00055056DE08CE291E00E9455056DE083E3BA
:1041D00091E00E9455056DE08AE391E00E9455054B
:1041E00064E18DE591E00E94550564E184E691E08B
:1041F0000E94550564E18BE691E00E94550564E15B
:1042000082E791E00E94550564E189E791E00E9410
:10421000550564E180E891E00E94550564E187E876
:1042200091E00E945505EEE8F1E081E0808336964A
:1042300092E0E633F907D1F781E0809341010895D8
:10424000CF93DF938230910510F482E090E0E0910B
:10425000DB04F091DC0420E030E0C0E0D0E03097F7
:1042600011F14081518148175907C0F0481759078B
:1042700061F482819381209719F09B838A832BC0FC
:104280009093DC048093DB0426C02115310519F0DE
:104290004217530718F49A01BE01DF01EF010280B3
:1042A000F381E02DDCCF2115310509F1281B390BF5
:1042B0002430310590F412968D919C9113976115DD
:1042C000710521F0FB019383828304C09093DC0489
:1042D0008093DB04FD01329644C0FD01E20FF31F21
:1042E00081939193225031092D933C933AC02091B0
:1042F000D9043091DA04232B41F420910501309147
:1043000006013093DA042093D904209103013091FF
:1043100004012115310541F42DB73EB74091070145
:1043200050910801241B350BE091D904F091DA0477
:10433000E217F307A0F42E1B3F0B2817390778F07C
:10434000AC014E5F5F4F2417350748F04E0F5F1FDB
:104350005093DA044093D9048193919302C0E0E032
:10436000F0E0CF01DF91CF9108950F931F93CF938A
:10437000DF93009709F48CC0FC01329713821282FC
:104380000091DB041091DC040115110581F42081FA
:104390003181820F931F2091D9043091DA042817BC
:1043A000390779F5F093DA04E093D90471C0D801A4
:1043B00040E050E0AE17BF0750F412962D913C91AB
:1043C0001397AD012115310509F1D901F3CF9D01F5
:1043D000DA013383228360817181860F971F8217F0
:1043E000930769F4EC0128813981260F371F2E5F6E
:1043F0003F4F318320838A819B8193838283452B26
:1044000029F4F093DC04E093DB0442C01396FC93A0
:10441000EE931297ED01499159919E01240F351F9A
:10442000E217F30771F480819181840F951F029642
:1044300011969C938E938281938113969C938E9375
:104440001297E0E0F0E0D80112968D919C911397BD
:10445000009719F0F8018C01F6CF8D919C9198018D
:104460002E5F3F4F820F931F2091D9043091DA04C1
:104470002817390769F4309729F41092DC04109258
:10448000DB0402C0138212821093DA040093D90471
:10449000DF91CF911F910F9108958F929F92AF92CC
:1044A000BF92CF92DF92EF92FF92CF93DF93EC0116
:1044B000688179818A819B816115710581059105EA
:1044C00021F464E279ED8BE597E02DE133EF41E0F3
:1044D00050E00E94A92249015A019B01AC01A7EAC0
:1044E000B1E40E94C8226B017C01ACEEB4EFA501DF
:1044F00094010E94D622DC01CB018C0D9D1DAE1DC6
:10450000BF1DB7FF03C00197A109B04888839983F5
:10451000AA83BB83BC01CD019F77DF91CF91FF9030
:10452000EF90DF90CF90BF90AF909F908F900895C5
:104530000E944D22089589E091E00E944D22089545
:104540006093090170930A0180930B0190930C0111
:104550000895052E97FB1EF400940E94C02257FD7B
:1045600007D00E94DB2207FC03D04EF40C94C0223B
:1045700050954095309521953F4F4F4F5F4F08958F
:1045800090958095709561957F4F8F4F9F4F0895BF
:104590000E94FD22A59F900DB49F900DA49F800DB9
:1045A000911D11240895B7FF0C94C8220E94C822BF
:1045B000821B930B0895A1E21A2EAA1BBB1BFD01BF
:1045C0000DC0AA1FBB1FEE1FFF1FA217B307E407F2
:1045D000F50720F0A21BB30BE40BF50B661F771F4A
:1045E000881F991F1A9469F760957095809590952A
:1045F0009B01AC01BD01CF010895A29FB001B39F03
:10460000C001A39F700D811D1124911DB29F700DDB
:10461000811D1124911D08950E94802388F09F57C9
:1046200098F0B92F9927B751B0F0E1F0660F771FD6
:10463000881F991F1AF0BA95C9F714C0B13091F0CC
:104640000E949A23B1E008950C949A23672F782F43
:104650008827B85F39F0B93FCCF386957795679591
:10466000B395D9F73EF490958095709561957F4FFD
:104670008F4F9F4F0895E89409C097FB3EF49095A3
:104680008095709561957F4F8F4F9F4F9923A9F02B
:10469000F92F96E9BB279395F695879577956795BA
:1046A000B795F111F8CFFAF4BB0F11F460FF1BC0FE
:1046B0006F5F7F4F8F4F9F4F16C0882311F096E991
:1046C00011C0772321F09EE8872F762F05C066233F
:1046D00071F096E8862F70E060E02AF09A95660FF8
:1046E000771F881FDAF7880F9695879597F90895B1
:1046F00057FD9058440F551F59F05F3F71F0479593
:10470000880F97FB991F61F09F3F79F08795089577
:10471000121613061406551FF2CF4695F1DF08C096
:10472000161617061806991FF1CF869571056105B3
:1047300008940895E894BB2766277727CB0197F95B
:1047400008950E94B4230C9425240E94172438F065
:104750000E941E2420F0952311F00C940E240C943A
:10476000142411240C949B230E94782370F3959FAA
:10477000C1F3950F50E0551F629FF001729FBB2758
:10478000F00DB11D639FAA27F00DB11DAA1F649FF4
:104790006627B00DA11D661F829F2227B00DA11DA7
:1047A000621F739FB00DA11D621F839FA00D611D2D
:1047B000221F749F3327A00D611D231F849F600D4E
:1047C000211D822F762F6A2F11249F5750409AF077
:1047D000F1F088234AF0EE0FFF1FBB1F661F771F03
:1047E000881F91505040A9F79E3F510580F00C94CE
:1047F0000E240C949B235F3FE4F3983ED4F38695FC
:1048000077956795B795F795E7959F5FC1F7FE2B6D
:10481000880F911D9695879597F9089597F99F6749
:1048200080E870E060E008959FEF80EC0895002438
:104830000A941616170618060906089500240A9405
:1048400012161306140605060895092E0394000C8B
:1048500011F4882352F0BB0F40F4BF2B11F460FF1A
:1048600004C06F5F7F4F8F4F9F4F0895DB018F9381
:104870009F930E94C822BF91AF91A29F800D911D6E
:10488000A39F900DB29F900D11240895991B79E07C
:1048900004C0991F961708F0961B881F7A95C9F7D0
:1048A0008095089597FB072E16F4009407D077FDA6
:1048B00009D00E946C2407FC05D03EF490958195A8
:1048C0009F4F0895709561957F4F0895EE0FFF1FDC
:1048D0000590F491E02D0994AA1BBB1B51E107C080
:1048E000AA1FBB1FA617B70710F0A61BB70B881F80
:1048F000991F5A95A9F780959095BC01CD0108950F
:1049000081E090E0F8940C94852412E0CFE8D2E0A6
:1049100004C0FE010E9466242196C039D107C9F760
:04492000F894FFCF39
:104924000100010000DD048000010000000000001F
:1049340000A711F20EBB02BA020D0A004C4F41440B
:0449440045520000D8
:00000001FF
