:100000000C94CE020C94F6020C94F6020C94F602B8
:100010000C94F6020C94F6020C94F6020C94F60280
:100020000C94F6020C94F6020C94F6020C94EA0B73
:100030000C94F6020C94F6020C94F6020C94F60260
:100040000C94A00B0C94F6020C94F6020C94F6029D
:100050000C94F6020C94F6020C94F6020C94F60240
:100060000C94F6020C94F602641D661D831D851D1A
:10007000871D891D991D991D991D991D991D991DF2
:10008000991DAD03CA03D903EF03F503FB03050470
:10009000130421042B0446045B0472040101FF03D2
:1000A0000101F70347616D652073746174697374AE
:1000B00069637300517569742067616D65005265ED
:1000C00073756D652067616D6500A0009C00000080
:1000D0000000240027002A0000000000250028005E
:1000E0002B000500893008023802497868140000A6
:1000F000BE00B400A4004500080100004E65772052
:10010000686172642067616D65004E657720656186
:1001100073792067616D65001753440016137800EA
:10012000161314001510200015201000540A03E1C6
:1001300081867F3E186D830F0F0E01838660331812
:100140006DC3198F1803C38E6033186DE330CF1859
:1001500003C39E603630CDE360CF3006C79E7E3E3F
:1001600030CDB360CF300CC6F6603330D9B660CF37
:1001700033CFCCF66061B0DB1E60CF30D86CE6C008
:1001800061B0DB1E618F19986CC6C063B19B0E33E2
:100190000F0FB078C6FF7E1F1B061E0F0A01FC0062
:1001A000A40040240000800001240000008480009E
:1001B00001040000008880000104000000908F16F8
:1001C0001D24CE0000A099993325990000C090917C
:1001D0002125110000A0909121261F0000909091F0
:1001E00021251000008899913325980000848F11F3
:1001F0001D24CF00000000000000000000000000EF
:100200000000000000101C700E00100000103EF8EE
:100210003F80100000383EF83F803800007C3FF8F7
:100220003F807C0000FE3FF9DF70FE0001FF1FF3FE
:10023000FFF9FF0003FF8FF3FFFBFF8003FF8FE356
:10024000FFF9FF0003FF87C3F5F8FE0001D7038124
:10025000E4F07C0000100380040038000038010046
:100260000E00100000FE01003F80100000000000A2
:10027000000000000000009000400000003C0082F0
:100280000000000000440082000000000040789759
:100290009C4B38000060CC92024C640000188492A1
:1002A00002484400000C84921E487C0000048492A2
:1002B000224840000044CC922248600000787893A5
:1002C0009E483C000045001801000048617264200F
:1002D000776F6E3A202020202000486172642073DE
:1002E0007461727465643A20004561737920776F98
:1002F0006E3A2020202020004561737920737461BC
:10030000727465643A200005006801380100000538
:1003100000380168010000F6E8DBCFC3B8AEA49B4B
:10032000928A827B746E68625C57524E4945413EA8
:100330003A3734312E2C29272523210A0A153A4928
:10034000676E6F7265006D560A0A504C4541534501
:10035000205455524E204F464620004C4F572042C5
:1003600041545445525921200003053F213F1208B2
:10037000120A100A0E1C0E0C1E0C141A14161F164C
:100380001E131E1E1B1E1E1F1E3F213F3A2F3A1713
:100390003D173F213F181F02040A041F0E04040EDC
:1003A0001F0A1F0A0E0E1F04110E2E252E2F2A2E95
:1003B000262929021F02081F08150E04040E150E17
:1003C00015151B151B040604040C0400000000177F
:1003D000000300031F0A1F16371A1904130A153ADF
:1003E000000300000E11110E000A040A040E04009E
:1003F00030000404040010001804031F111F121F12
:10040000101D151711151F07041F17151D1F151D8A
:1004100001011F1F151F17151F000A0000320004DD
:100420000A110A0A0A110A040115020E11171E0503
:100430001E1F150A0E110A1F110E1F15111F05018F
:100440000E111D1F041F111F1108100F1F041B1F69
:1004500010101F061F1E040F0E110E1F09060E118D
:100460002E1F051A121509011F011F101F0F180F4B
:100470001F0C1F1B041B031C03191513001F110362
:100480000418111F000201022020200001020C129A
:100490001E1F120C0C12120C121F0C1A14041E0533
:1004A000242A1E1F021C141D1020201D1F081411B9
:1004B0001F101E041E1E021C0C120C3E0A040C12FD
:1004C0003E1E040214160A020F120E101E0E100E0B
:1004D0001E081E120C1226281E322A26041E210077
:1004E0001F00211E040102013F213F172B15201080
:1004F000204C4F4144455200172B16201314000A7C
:100500004E6F2053442063617264206F720A6E6FD5
:10051000204C4F414445522E4845580A0A153A4549
:10052000786974001D20466C617368696E670A20E3
:10053000206C6F616465722E2E2E0A0A444F4E277E
:1005400054205455524E204F4646210000000000D2
:100550002300260029000404040404040404020205
:100560000202020203030303030301020408102032
:10057000408001020408102001020408102000003D
:100580000008000201000003040700000000000052
:100590000000450068010000AB22812211241FBE2B
:1005A000CFEFD8E0DEBFCDBF11E0A0E0B1E0E0E2E8
:1005B000FDE402C005900D92A432B107D9F724E002
:1005C000A4E2B1E001C01D92A53EB207E1F712E03E
:1005D000CDECD2E004C02197FE010E946426CC3C01
:1005E000D107C9F70E940C190C9483260C940000C3
:1005F000089580E090E00895FC0182814181882384
:1006000011F06A3010F0842F089596819A3018F412
:10061000292F30E002C02AE030E0261B31092150AA
:100620003109220F822F840F089580912B018D3084
:1006300059F5809132018D3039F5809139018D3035
:1006400019F5809140018D30F9F485E090E09093A8
:1006500001018093000180912401813051F4809147
:100660004F049091500401969093500480934F044E
:1006700009C080914B0490914C04019690934C04D6
:1006800080934B040C9449150895FC01643508F0DF
:1006900053C0403308F050C090A1742F75957595E4
:1006A0007595262F062E000C330B542F5770923061
:1006B000A1F4F901E55BFD4F84E57802E00DF11D41
:1006C0001124808190E0052E02C0959587950A94AB
:1006D000E2F78095982F91700AC0933041F4848599
:1006E0008170462740954170841303C014C0911156
:1006F00012C084E57802200D311D1124F901E55B5B
:10070000FD4F81E090E001C0880F5A95EAF780958F
:100710009081892310C084E57802200D311D1124B9
:10072000F901E55BFD4F81E090E001C0880F5A952B
:10073000EAF79081892B808308950F931F93CF93BD
:10074000DF93FA013197ED30F10508F0EDC0D62FB7
:10075000C82FEF5BFF4F0C94642611E0180F462F53
:10076000612F81EA94E00E94450301E00D0F24E02F
:10077000402F6C2F81EA94E00E948A0D62E06C0F9A
:1007800024E0402F81EA94E00E948A0D42E04D0F60
:10079000612F89C00E94720E6D2F8C2F0E946A0EED
:1007A0006D2F8C2F0E94420E6D2F8C2F0E94510EA8
:1007B0000EC00E94720E6D2F8C2F0E946A0E6D2F3C
:1007C0008C2F0E94420E6D2F8C2F0E94610E6D2F78
:1007D0008C2FDF91CF911F910F910C94590EDF91C7
:1007E000CF911F910F910C94500FDF91CF911F91DA
:1007F0000F910C94380F0E94380F6D2F8C2FDF91C2
:10080000CF911F910F910C94510E0E94720E6D2F7B
:100810008C2F0E946A0E6D2F8C2FDF91CF911F912C
:100820000F910C94610E0E94380F6D2F8C2F0E9437
:10083000510E6D2F8C2FDF91CF911F910F910C9442
:100840006A0E0E94500F6D2F8C2FDF91CF911F9158
:100850000F910C94720E0E94720E6D2F8C2F0E94BD
:100860006A0E6D2F8C2F0E94610E6D2F8C2F0E94AF
:10087000590E6D2F8C2F0E94510E6D2F8C2F0E94C0
:100880004A0E6EEF6C0F25E04D2F46C00E946A0E97
:100890006D2F8C2F0E94610E6D2F8C2F0E94590E90
:1008A00043E04D0F6C2F81EA94E0DF91CF911F91CF
:1008B0000F910C9445030E94720E6D2F8C2F0E9495
:1008C0006A0E6D2F8C2F0E944A0E43E04D0F23E0DD
:1008D0006C2F81EA94E00E94720C44E04D0F61E0BD
:1008E0006C0FE1CF0E944A0E6D2F8C2F0E94510E8B
:1008F00042E04D0F61E06C0F81EA94E00E944503F5
:10090000CE5F22E04D2F6C2F81EA94E00E948A0D89
:1009100043E04D0F22E06C2F81EA94E0DF91CF910C
:100920001F910F910C948A0DDF91CF911F910F9120
:1009300008950F931F93CF93DF93082FC62F413055
:10094000510509F449C00CF5452B09F0ADC0D2E0C2
:10095000D80F462F6D2F81EA94E00E94450341E0B5
:100960004C0F61E0600F23E081EA94E00E94720C7A
:1009700042E04C0F25E0602F81EA94E00E94720C67
:1009800043E04C0F25E0602F80C04230510509F450
:1009900050C04330510509F087C0D2E0D80F462F30
:1009A0006D2F81EA94E00E94450311E0100F41E0B1
:1009B0004C0F23E0612F81EA94E00E94720C42E028
:1009C0004C0F25E0602F81EA94E00E94720C43E016
:1009D0004C0F23E0612F59C0D1E0D80F23E0462F00
:1009E0006D2F81EA94E00E94720C42E04C0F23E0EC
:1009F0006D2F81EA94E00E94720CCF5F23E04C2FB0
:100A0000602F81EA94E00E948A0D64E0600F23E089
:100A10004C2F81EA94E00E948A0D62E0600F24E08E
:100A20004C2F81EA94E0DF91CF911F910F910C94AC
:100A30008A0DD1E0D80F462F6D2F81EA94E00E94F5
:100A4000450363E0600F4C2F81EA94E00E94450368
:100A500041E04C0F25E0602F81EA94E00E94720C87
:100A600042E04C0F25E0602F81EA94E00E94720C76
:100A700043E04C0F23E06D2F81EA94E00E94720C5A
:100A800044E04C0F62E0600F07C081EA94E00E94EE
:100A9000720C44E04C0F6D2F81EA94E0DF91CF910E
:100AA0001F910F910C944503DF91CF911F910F91EE
:100AB0000895DC0116969C911697992359F0139688
:100AC000ED91FC911497915016969C93E90FF11DAE
:100AD0008081089581E00895DC0116962C91169787
:100AE00030E0621773075CF4261B370B1396ED9109
:100AF000FC911497E20FF31F31978081089581E0F4
:100B00000895FC0126818581281748F4838194810A
:100B100031E0320F3683FC01E20FF11D608308954E
:100B2000FC0183819481009711F00C949D2308951A
:100B30000F931F93CF93DF938C01FC011682658383
:100B4000C62FD0E0CE010E940823FC01C80FD91F98
:100B500021E0EC17FD0711F02193FBCFF8019483FE
:100B60008383DF91CF911F910F910895FC019081B4
:100B700097FF02C09F7701C0906890830895EF921D
:100B8000FF920F931F93CF93DF931F92CDB7DEB7E2
:100B900000E010E0C801835A9E4F7C01FC01868171
:100BA000882371F0C7010E945905898387FF04C01B
:100BB000CE0101960E94B6056981C7010E94810598
:100BC000095F1F4F0133110529F70F90DF91CF9176
:100BD0001F910F91FF90EF9008950E94A80E0E9420
:100BE000041581E090E090930101809300010E9440
:100BF000BF050E9415031092510108954F925F9214
:100C00006F927F928F929F92AF92BF92CF92DF921C
:100C1000EF92FF920F931F93CF93DF93CDB7DEB781
:100C200027970FB6F894DEBF0FBECDBF81E080934B
:100C3000A7049091C304992309F4C0C08093A90428
:100C40001092A8041092A70410926B048093C10420
:100C50008093C20404EC12E03CE0F32E0E94640F87
:100C60008823E1F3F8018491882319F0E090A60429
:100C700001C0E12C6CE271E080E00E940F1862EA92
:100C800071E08CE08E0D0E940F181092AA04F09271
:100C9000AB0464EC72E081EA94E00E94B4098091B4
:100CA000A504982F990F890F81958D5A8093AA04D6
:100CB0008091A604982F990F890F8195835D809369
:100CC000AB048091C40484FF03C088E291E002C0B9
:100CD00084E291E00E946B168091A504982F990FF1
:100CE000890F81958D5A8093AA048091AB048F5F00
:100CF0008093AB0480917D04882319F080E291E019
:100D000002C08CE191E00E946B168091A504982F9F
:100D1000990F890F81958D5A8093AA048091AB0415
:100D20008F5F8093AB0488E191E00E946B16809105
:100D300069048130A1F480917D048F5F60917E040D
:100D400087FD09C0082E000C990B70E06F5F7F4F84
:100D50000E945026682F60937D040E94B1158091F7
:100D600068048130B9F08091C304482F50E060E0FE
:100D700070E08090C4049090C504A090C604B09028
:100D8000C70484169506A606B70608F473C18F3FFC
:100D900009F470C18FEF8093C30460E088E794E0AA
:100DA0000E942D0C1092790440E06FE073E088E718
:100DB00094E00E943E0C81E080936B04C0906D042F
:100DC000D0906E04C094D094E12CF12C0E94410B81
:100DD0004B015C010E94410BA501940120953095C7
:100DE0004095509560957095809590950E94342619
:100DF0009B01AC01C701B6010E9434264B015C0186
:100E000080915404909155046C01E12CF12C0E94C6
:100E1000410BC60ED71EE81EF91EC701B601680DAC
:100E2000791D8A1D9B1D611571058105910511F0C4
:100E30000E94882410926B0410925C0110925B0156
:100E4000109251018BE080935A0184E08093590104
:100E50001092580110925001E12CF12CC70124E0AE
:100E6000880F991F2A95E1F7082F006811E0612F7C
:100E7000602B8AE491E00E9481051F5F1E30B9F764
:100E8000FFEFEF1AFF0A84E0E816F10439F700E0FB
:100E900010E02091500130E0021713077CF5790132
:100EA000E01AF10A49F00E9483249701FF0C440BD9
:100EB000550B0E94A72403C060E070E0CB01209195
:100EC0004D0130914E01F901E60FF71F9081A0917D
:100ED0005001B0E0A01BB10BA20FB31F11978C9172
:100EE000808380915001E82FF0E0E01BF10BE20FCE
:100EF000F31F319790830F5F1F4FCBCF10922B01C1
:100F000010923201109239011092400180E090E07D
:100F1000FC01E35AFE4F1682079681339105C1F713
:100F2000109236028DE5882E81E0982E00E010E0C8
:100F300096E0492EDE0111965D01662463945524E6
:100F40005394702E770C7801C12CD12C8AE491E057
:100F50000E9459058F830E151F0521F4CE010796B7
:100F60000E94B60520913602F501842D11928A95D2
:100F7000E9F75982429EC001112482579E4FF50124
:100F8000DC01342D01900D923A95E1F7DC011296C7
:100F90006C92129713961C921397F401EC0DFD1DA1
:100FA000308114963C9314973181370D15963C93FC
:100FB00015971196EC9211973F813C932F5F2093E8
:100FC0003602BFEFEB1AFB0AE7E0CE0ED11CF7E0CA
:100FD000EF16F10409F0BACF0F5F1F4F87E0880EBC
:100FE000911C0730110509F0ACCF10923602109217
:100FF0000101109200018CE991E00E9487138F3F5C
:10100000D1F381110DC081E08093240180915104BE
:1010100090915204019690935204809351040EC013
:10102000813029F583E08093240180914D049091D3
:101030004E04019690934E0480934D040E944915EE
:1010400027960FB6F894DEBF0FBECDBFDF91CF91CC
:101050001F910F91FF90EF90DF90CF90BF90AF90D6
:101060009F908F907F906F905F904F9008950E9417
:10107000F50DC1CF80916A04813009F0EFCD0E9457
:101080007E16ECCDFC01208130E084E0359527957B
:101090008A95E1F72370332781E02230310529F06A
:1010A0002330310511F080E008950895CF92DF924A
:1010B000EF92FF920F931F93CF93DF931F92CDB7C1
:1010C000DEB7E82EF62E142F498347FF02C083E0D7
:1010D00001C080E08093C1048093C2040CE028E04A
:1010E000DD24D394DF0C4D2DCC24C394CE0C6C2D79
:1010F00081EA94E00E94950C81E08093C104809382
:10110000C20428E04F2D6C2D81EA94E00E94720CFD
:1011100028E04DE04F0D6C2D81EA94E00E94720CA6
:101120002CE04D2D6E2D81EA94E00E948A0D2CE07A
:101130004D2D69E06E0D81EA94E00E948A0D17FD45
:1011400023C0CE0101960E944208882329F083E043
:101150008093C1048093C204412F50E084E05595F0
:1011600047958A95E1F74370552762E06F0D82E05D
:101170008E0D0E9499041F70412F50E067E06F0DA3
:1011800085E08E0D0E949D030F90DF91CF911F91FE
:101190000F91FF90EF90DF90CF900895EF92FF9224
:1011A0000F931F93CF93DF937C01FC01C681D0E0A6
:1011B000CA30D10514F02A9702C0C0E0D0E000E0A8
:1011C00010E0F70166816A3018F4862F90E002C0C3
:1011D0008AE090E008171907B4F470E0601B710B07
:1011E000615071096C1B7D0BC7010E946C05602F5B
:1011F000660FF7019181690F482F80810E94560880
:101200000F5F1F4FDECFDF91CF911F910F91FF90A6
:10121000EF900895DF92EF92FF920F931F93CF9379
:10122000DF9380915001882339F041E860914B01B0
:1012300080914A010E945608C0E0D0E060915801B8
:10124000643008F04FC070E0C617D707ACF46C1BD1
:101250007D0B6150710982E591E00E946C052C2F95
:10126000220F90915201482F60915301822F890FD4
:101270000E9456082196E2CFC5E2D1E000E010E0DE
:1012800083E0D82EC8018B5D9E4F7C01FC018681D6
:10129000882361F060E070E0CE010E946C05482F69
:1012A000F701618188810E9456080BC0D092C10469
:1012B000D092C2042EE04AE0F701618188810E9449
:1012C0001D15095F1F4F27960C311105D9F6CDE585
:1012D000D1E0CE010E94CE082796F1E0CE38DF079C
:1012E000C1F706C0C330D1053CF663E070E0AFCF74
:1012F000DF91CF911F910F91FF90EF90DF900895B4
:10130000CF92DF92EF92FF920F931F93CF93DF93D1
:101310006C017A018B01C0E0D0E0CE15DF0589F0C9
:10132000D8016D918D01D601ED91FC910190F08174
:10133000E02DC6010995892B11F47E0102C021968A
:10134000ECCFC701DF91CF911F910F91FF90EF90EC
:10135000DF90CF9008950E947E26DC01ED91FC91F4
:101360000190F081E02D0994EF92FF920F931F936B
:10137000CF93DF938C017B01C0E0D0E0F701EC0F4D
:10138000FD1F6491662361F0D801ED91FC910190FD
:10139000F081E02DC8010995892B11F02196EECF3F
:1013A000CE01DF91CF911F910F91FF90EF900895A3
:1013B0006115710579F0FB0101900020E9F7319783
:1013C000AF01461B570BDC01ED91FC910280F381CC
:1013D000E02D099480E090E008954F925F926F9223
:1013E0007F92EF92FF920F931F93CF93DF93CDB72E
:1013F000DEB7A1970FB6F894DEBF0FBECDBF7C015C
:10140000FA01CB0119A2223008F42AE08E010F5D07
:101410001F4F422E512C612C712CBF01A301920150
:101420000E94D924F901CA01015011096A3014F44B
:10143000605D01C0695CD8016C93232B242B252BA4
:1014400061F7B801C7010E94D809A1960FB6F894B8
:10145000DEBF0FBECDBFDF91CF911F910F91FF90E7
:10146000EF907F906F905F904F900895833081F060
:1014700028F4813099F08230A1F008958730A9F0E6
:101480008830B9F08430D1F4809180008F7D03C022
:10149000809180008F7780938000089584B58F7746
:1014A00002C084B58F7D84BD08958091B0008F7790
:1014B00003C08091B0008F7D8093B00008951F938A
:1014C000CF93DF93282F30E0F901E258FA4F84914F
:1014D000F901E659FA4FD491F901EA5AFA4FC49149
:1014E000CC23C9F0162F81110E94360AEC2FF0E0B0
:1014F000EE0FFF1FE852FF4FA591B4918FB7F894FC
:10150000111105C09C91ED2FE095E92302C0EC91EB
:10151000ED2BEC938FBFDF91CF911F910895CF9367
:10152000DF9390E0FC01E659FA4F2491FC01EA5A5E
:10153000FA4F8491882361F190E0880F991FFC0194
:10154000E253FF4FC591D491FC01E852FF4FA591A2
:10155000B491611109C09FB7F894888120958223C6
:101560008883EC912E230BC0623061F49FB7F8940E
:101570003881822F809583238883EC912E2B2C93A6
:101580009FBF06C08FB7F894E8812E2B28838FBFAA
:10159000DF91CF9108951F93CF93DF93182FEB0125
:1015A00061E00E948F0A209711F460E004C0CF3FF1
:1015B000D10539F461E0812FDF91CF911F910C9417
:1015C0005F0AE12FF0E0E258FA4FE491E330F9F0DE
:1015D00048F4E130B9F0E230A1F584B5806284BD11
:1015E000C8BD34C0E730E9F0E83019F1E43049F51E
:1015F00080918000806280938000D0938B00C093A4
:101600008A0024C084B5806884BDC7BD1FC0809196
:101610008000806880938000D0938900C093880008
:1016200015C08091B00080688093B000C093B30073
:101630000DC08091B00080628093B000C093B40070
:1016400005C0C038D1050CF0B5CFAFCFDF91CF9139
:101650001F9108958E3008F08E50877080648093BB
:101660007C0080917A00806480937A0080917A0077
:1016700086FDFCCF809178002091790090E0922B3C
:1016800008953FB7F89480913E0290913F02A09157
:101690004002B091410226B5A89B05C02F3F19F02A
:1016A0000196A11DB11D3FBFBA2FA92F982F8827E2
:1016B000820F911DA11DB11DBC01CD0142E0660F3D
:1016C000771F881F991F4A95D1F708958F929F928F
:1016D000AF92BF92CF92DF92EF92FF926B017C01AB
:1016E0000E94410B4B015C01C114D104E104F104DF
:1016F000F1F00E94410BDC01CB0188199909AA097C
:10170000BB09883E9340A105B10570F321E0C21AE0
:10171000D108E108F10888EE880E83E0981EA11C2C
:10172000B11CC114D104E104F10419F7DDCFFF901D
:10173000EF90DF90CF90BF90AF909F908F900895E3
:101740001F920F920FB60F9211242F933F938F93F6
:101750009F93AF93BF938091470290914802A091CD
:101760004902B0914A0230913D0223E0230F2D3708
:1017700020F40196A11DB11D05C026E8230F029695
:10178000A11DB11D20933D02809347029093480212
:10179000A0934902B0934A0280913E0290913F0289
:1017A000A0914002B09141020196A11DB11D80930C
:1017B0003E0290933F02A0934002B0934102BF913A
:1017C000AF919F918F913F912F910F900FBE0F90EE
:1017D0001F9018951F920F920FB60F9211242F93FE
:1017E0006F937F938F939F9360914402662359F187
:1017F00080913C028F5F80933C0290914502891753
:1018000010F12091420281E0282720934202109299
:101810003C0280914602882369F08091020193E4A2
:10182000899F802D1124895B809302010E944426A8
:1018300090934302222329F0809143028093B400C5
:1018400002C080E0FBCF9F918F917F916F912F918C
:101850000F900FBE0F901F901895FC0161110DC0E5
:10186000178A158A14A213A2108E109243021092A6
:101870004402109242021092B4000895EF92FF9237
:101880000F931F93CF93DF931F92CDB7DEB77C01E9
:101890008B01411105C060E049830E942D0C4981F4
:1018A00050E0FA01EE0FFF1FEE0DFF1D16870587B2
:1018B000DA011996AA0FBB1FAE0DBF1D1D921C9217
:1018C000F701E40FF51F81E0818389E0868B118E9B
:1018D000138E158E0F90DF91CF911F910F91FF9076
:1018E000EF900895DF92EF92FF920F931F93CF93A3
:1018F000DF931F92CDB7DEB78C01D62EF42EE12CEC
:10190000E21654F46E2D6D0D4F2DC80129830E94EF
:101910004503E3942981F4CF0F90DF91CF911F917C
:101920000F91FF90EF90DF900895DF92EF92FF927A
:101930000F931F93CF93DF937C01D62FD22EC42F0A
:10194000002E000C110B040F111D47FD1A954C2F92
:101950000C2E000C550B4017510744F42D2D4C2F25
:101960006D2FC7010E94720CCF5FF1CFDF91CF9135
:101970001F910F91FF90EF90DF9008956F927F92EB
:101980008F929F92AF92BF92CF92DF92EF92FF928F
:101990000F931F93CF93DF93EC016A3019F42D81DD
:1019A0009885A1C06D3009F4A4C01885BA84D98483
:1019B00088A083E58D150CF47FC08FE28B150CF4A5
:1019C0007BC08C8190E00197189F9001199F300D8A
:1019D0001124C9018D0D911DD7FC9A951816190671
:1019E0000CF06AC08D81819FC00111248B0D911D67
:1019F000B7FC9A95181619060CF05EC09D2CCD2CDC
:101A0000E62EF12CEC2DED190E2E000CFF0B8C8127
:101A100090E0E817F9070CF04EC00197E817F907B6
:101A200079F0E89E9001E99E300DF89E300D11246A
:101A3000E20FF31F8E8D9F8DE80FF91F749001C088
:101A4000712C6B2CAB2C2A2D2B19022E000C330B76
:101A50008D8190E0281739075CF570FE10C01130B9
:101A600031F44A2D6C2DCE010E9445031DC0012F7B
:101A7000212F462D692DCE010E94950C15C089A1FC
:101A800098A1891789F088A3113031F44A2D6C2D63
:101A9000CE010E94450307C0012F212F462D692D3D
:101AA000CE010E94950C88A27694A394610ECBCFB0
:101AB000C394910EA7CF88A228853C818985329F47
:101AC000800D112489879F81992399F0082E000C9D
:101AD000990B44E550E0239F401951091124481700
:101AE00059073CF49D818A85299F800D11248A879E
:101AF000198681E090E0DF91CF911F910F91FF90C7
:101B0000EF90DF90CF90BF90AF909F908F907F909D
:101B10006F900895DF92EF92FF920F931F93CF93F0
:101B2000DF931F92CDB7DEB78C01D62EF42EE12CB9
:101B3000E21654F44E2D4F0D6D2DC80129830E94DD
:101B40004503E3942981F4CF0F90DF91CF911F914A
:101B50000F91FF90EF90DF900895AF92BF92CF92D8
:101B6000DF92EF92FF920F931F93CF93DF931F9219
:101B7000CDB7DEB75C017B018B016C0182E0C80E42
:101B8000D11CF80161918F01C50169830E949124E4
:101B90006981681719F0C5010E949924FFEFAF1AF7
:101BA000BF0AAC14BD0469F7C7010F90DF91CF9154
:101BB0001F910F91FF90EF90DF90CF90BF90AF906B
:101BC00008950F931F93CF93DF938C01EB010E9435
:101BD00091248883C80101960E9491248983CE01B3
:101BE000DF91CF911F910F9108950E94640F882378
:101BF000E1F31092AA041092AB0468EF72E081EA5C
:101C000094E00E94B40980915104909152040E9482
:101C1000781569EE72E081EA94E00E94B40980913F
:101C20004F04909150040E9478156AED72E081EAA9
:101C300094E00E94B40980914D0490914E040E945A
:101C400078156BEC72E081EA94E00E94B40980910F
:101C50004B0490914C040E94781580916804813067
:101C600049F080916904813029F080916A048130C3
:101C700009F0BBCF089540E065EC72E088E794E09E
:101C80000C943E0C42E0460F23E0682F81EA94E07A
:101C90000C94720C462F23E0682F81EA94E00C9498
:101CA0008A0D42E0460F23E0682F81EA94E00C940D
:101CB0008A0D44E0460F23E0682F81EA94E00C94FB
:101CC000720C42E0460F62E0680F23E081EA94E084
:101CD0000C948A0D462F62E0680F23E081EA94E0BD
:101CE0000C948A0D462F23E0682F81EA94E00C942F
:101CF000720C1F93CF93DF93C82F162F861721F1F5
:101D0000862F90E08C1B910963E070E00E945026C2
:101D1000D62F611117C06091C4047091C5048091E1
:101D2000C6049091C70423E030E040E050E00E94F8
:101D3000D924672B682B692B29F4C11710F0DFEF2A
:101D400001C0D1E08D2F8C0FDF91CF911F910895AD
:101D500080915B0190915C018630910554F4823052
:101D60009105A4F40097E9F00197D1F422E531E060
:101D70001AC08D309105A4F4069747E0489F900162
:101D8000499F300D1124235A3E4F0DC0029747E062
:101D9000489F9001499F300D11242B5D3E4F03C099
:101DA00008952AE431E0C9010895CF93DF93C091EB
:101DB0003B0287E0C89FE0011124CB5DDE4F8E819E
:101DC000882309F451C0CE010E9459058093410136
:101DD00088811092420180934301898110924401CD
:101DE000809345010E94832422E030E040E050E0EF
:101DF0000E94A724672B682B692B19F4CFEFDFEF24
:101E000002C0C1E0D0E00E94832420E031E040E045
:101E100050E00E94A724DC01CB019F5FAF4FBF4F72
:101E2000C89F9001C99F300DD89F300D1124309369
:101E30004701209346010E94832420E032E040E0E5
:101E400050E00E94A7247195619571097093490132
:101E50006093480180913B0290E00196837099273E
:101E600080933B0281E001C080E0DF91CF91089533
:101E7000CF93DF93C82FD62F0E94720E6D2F8C2F19
:101E80000E944A0E6D2F8C2F0E94420E6D2F8C2FB8
:101E90000E94610E6D2F8C2FDF91CF910C94590E03
:101EA000CF93DF93C82FD62F0E944A0E6D2F8C2F11
:101EB0000E94420E6D2F8C2F0E946A0E6D2F8C2F68
:101EC000DF91CF910C94610E4F925F926F927F924F
:101ED0008F929F92AF92BF92CF92DF92EF92FF923A
:101EE0000F931F93CF93DF9300D000D0CDB7DEB711
:101EF0004091D3045091D4046091D5047091D604DC
:101F00002FB7F8948091470290914802A09149021E
:101F1000B0914A022FBF481B590B6A0B7B0B809173
:101F2000D20490E0A0E0B0E0C090CE04D090CF0406
:101F3000E090D004F090D10484179507A607B70766
:101F400030F4C114D104E104F10409F0FFC2CD283A
:101F5000CE28CF2809F0F8C280916A0481508E3FC4
:101F600008F580916904813011F580917D048F5FBF
:101F700060917E0487FD09C0082E000C990B70E06B
:101F80006F5F7F4F0E945026682F60937D0488EF1B
:101F900094E09093D8048093D70488E48093D90484
:101FA0000E94B11580916A0481508E3F70F4809137
:101FB0006804813009F076C38BEE94E09093D804E6
:101FC0008093D70488E48093D90480E00E94B516FA
:101FD00080917904882309F4ADC080918D0481112A
:101FE000A9C08091850490918604E0918A04F091C3
:101FF0008B04EE0FFF1FE80FF91F45915491411517
:10200000510501F520918904222331F010928B04AF
:1020100010928A04FC0114C0109279048091780413
:10202000882341F080E00E94B516E0918A04F09187
:102030008B042FC060E088E794E00E942D0C7AC0EA
:10204000459154919A01369527953695279540FFED
:1020500051C0CA01B6E096958795BA95E1F78F71A0
:10206000952F96959695969590512F70223071F1F7
:10207000F8F4211117C08B3008F08AE080938E04A9
:10208000E0918A04F0918B043196F0938B04E093F5
:102090008A04EE0FFF1F8091850490918604E80F5B
:1020A000F91FCECF213061F760E00E94F616E8CF2D
:1020B0002330B1F0243021F720917C04829F802DC1
:1020C00011248093950490939604DACF20917C0498
:1020D000829F802D11248093910490939204D0CFFD
:1020E00020917C04829F802D1124809393049093EF
:1020F0009404C6CF2F7320938C0480917C04859F19
:10210000802D112480938D0410929D0410929C04C4
:1021100010929B0481E080938F048093420210927E
:10212000900480918A0490918B04019690938B0483
:1021300080938A0480918F04882309F4F3C08091EE
:102140008D04811106C060E088E794E00E942D0CA8
:10215000E9C0815080938D0480919D04811148C015
:1021600020919B0430919C042F5F3F4FC901880F41
:10217000991FE0919704F0919804E80FF91F659179
:102180007491862F877080939E04AB0163E056950F
:1021900047956A95E1F7CA0196958795972F969589
:1021A000969590939F048F7390917C04899F802DC6
:1021B000112480939D0441704093460230939C0407
:1021C00020939B048091990490E02817390780F0B0
:1021D00020919A04222339F0821B910990939C0448
:1021E00080939B0405C060E088E794E00E942D0C7A
:1021F00080919D04815080939D048091900421E002
:10220000280F2093900440918C0430919F04340F48
:1022100080918404380F30937A046091930466238C
:1022200071F070E0822F022E000C990B0E94502654
:1022300080919404869F300D112430937A0480910C
:102240007A0490E0849664E270E00E9450268093C5
:102250007A0430918E0430937B046091910466235C
:1022600081F0062E000C770B822F022E000C990BAA
:102270000E94502680919204869F300D1124309345
:102280007B04609195046623A1F0822F220F990BA5
:1022900070E00E945026CB0162E070E00E94502660
:1022A0002091960490917B04289F900D1124909387
:1022B0007B0480917B044F3341F08A300CF089E03D
:1022C00087FD80E080937B0402C010927B04F89429
:1022D000E0917A04F0E0E95EFC4FE491E09345027E
:1022E00030917B042091A00432039001112440918D
:1022F0009E044203C001439F900D112400907D0471
:1023000002C0880F991F0A94E2F797FF02C0815814
:102310009F4F880F892F881F990B809344028093C9
:10232000430278948091D904882309F452C08C30F8
:1023300020F49CE0D92ED81A01C0D12CEE24E394CD
:10234000E092A9041092C1041092C2041091A60454
:102350003DE2F32ECF2CC11ACD0C03E0010F2EE489
:102360004C2D63E081EA94E00E94950C145003E048
:102370000C0D212F41E0602F80E50E946F17212F67
:1023800042E0602F83E00E946F17E092C104E09268
:10239000C2048091A60463E0680FF81A8F2D8D0D9A
:1023A0000E94311784E08093AA048091A604D81A71
:1023B0008D2D815D8093AB046091D7047091D8041A
:1023C00081EA94E00E94B4098091D90481508093FD
:1023D000D90480916F0490917004892B09F48CC00A
:1023E00011E01093C1041092C2049091A50485E5F8
:1023F000891B8093AA041092AB0460916C04613035
:1024000009F45BC030F080916B04653008F06DC05A
:1024100068C060E088E794E00E942D0C1092790477
:102420001093A904E9E6F3E0E491EF5FE093A504DB
:10243000EAE6F3E0E491EF5FE093A6048BE693E035
:102440009093C0048093BF041092700410926F04A4
:102450001092A70418EA0E94640F8823E1F36BE549
:1024600073E081EA94E00E94B40940916D045091B8
:102470006E0460E070E02AE081EA94E00E94ED09D9
:1024800066E473E081EA94E00E94B409412F42952A
:102490004F7050E060E070E02AE081EA94E00E9432
:1024A000ED096BE373E081EA94E00E94B409809146
:1024B0006804813009F0FCC01FC08091C404909171
:1024C000C504A091C604B091C7048F709927AA27AC
:1024D000BB270897A105B10510F467E009C068E7BC
:1024E00007C0882349F06B5F03C0882329F06FE29F
:1024F00081EA94E00E94AD090E942B168091A70406
:1025000081110EC088EF91E0EBE4F2E0DF019C0165
:102510001D9221503040E1F71092AA041092AB04B2
:102520000E94410B6093CE047093CF048093D0043B
:102530009093D1042091CA043091CB04621B730B99
:102540007093C9046093C80480E0CCC02FB7F8949E
:102550008091470290914802A0914902B0914A02AD
:102560002FBF2091D204820F911DA11DB11D809318
:10257000D3049093D404A093D504B093D60480914F
:10258000C4049091C504A091C604B091C7040196FB
:10259000A11DB11D8093C4049093C504A093C604EB
:1025A000B093C7041092CE041092CF041092D004BE
:1025B0001092D1040E94410B6093CA047093CB0423
:1025C0008093CC049093CD04809154049091550451
:1025D0002FE0289F8001299F100D112485E10E9482
:1025E0002A0B800F911F24E0969587952A95E1F795
:1025F000909355048093540420915304222309F4AA
:102600004BC060915704262F30E040E050E0298312
:102610003A834B835C83C0905804D12CE12CF12C7D
:1026200040915B0450915C044A01A12CB12C209193
:10263000590430915A042901612C712C8217930797
:1026400028F09C014817590708F49A01C901A0E035
:10265000B0E09C01AD01241935094609570969818B
:102660007A818B819C816C197D098E099F090E945A
:102670003426A501940124193509460957090E94F9
:10268000A724C20ED31EE41EF51EC09256046C2D64
:1026900070E085E00E94CB0A0E94B8150E94D21714
:1026A00081E020C0893209F090CC0E947E168DCC4A
:1026B000115009F0D0CE60E070E085E00E94CB0AB6
:1026C00083B7817F846083BF83B7816083BF83B713
:1026D000816083BF889583B78E7F83BF83B78E7FEA
:1026E00083BFB9CE0F900F900F900F90DF91CF91D5
:1026F0001F910F91FF90EF90DF90CF90BF90AF9020
:102700009F908F907F906F905F904F9008952F9241
:102710003F924F925F926F927F928F929F92AF9271
:10272000BF92CF92DF92EF92FF920F931F93CF93BE
:10273000DF93D82EC92E1092A704FF24FA94212CDF
:10274000312CC0E310E001E033E0E32E0E94640F7F
:102750008823E1F3809168040C2E000CDD0B81309E
:1027600059F190916904913039F180916A04813076
:1027700009F4A4C0211037C0809167048F3F21F075
:102780008370813009F492C0809165048F3F21F0FD
:102790008370813009F48EC0133021F017FF03C01D
:1027A00012E001C010E08091A60424E0280F322E30
:1027B000819F3018112421C02091A60430E031956A
:1027C00021953109322E330C230D9EEF392E320E16
:1027D000813009F07FC040E06FE073E088E794E06B
:1027E0000E943E0CF12ECE018319910937FC93957E
:1027F00002970CF477C022242394C30DD11D37FC1B
:10280000DA95D7FD21965E01B594A794DA2DCA2DED
:102810001092AA04A092AB040093A9041092A804F9
:102820008D2C9C2C412C512C612E012E000C7708F4
:102830004614570451F4E092AA048091A6049D2FF7
:10284000189F900D11249093AB04F40185919491FD
:102850000E946B168FEF481A580A92E0890E911C5D
:1028600083E04816510421F71092C1041092C2046B
:102870008091A6044A2D189F400D1124415024E553
:1028800060E081EA94E00E94720C0093C10400931E
:10289000C2048091A60463E0680F9A2D189F900DE2
:1028A0001124892F82500E94311750CF1F5F0E9440
:1028B000B1156ACF11500E94B1156ECF2091A604B8
:1028C00030E0319521953109822F880F280F8EEF46
:1028D000382E320E40E067E073E088E794E00E9413
:1028E0003E0C81CF8F2DDF91CF911F910F91FF90E3
:1028F000EF90DF90CF90BF90AF909F908F907F90A0
:102900006F905F904F903F902F900895AF92BF923D
:10291000CF92DF92EF92FF920F931F93CF93DF93AB
:10292000182F062FC1E0D3E08AEFD82E9EEFE92EB4
:10293000842F8470C82E842F8270B82E842F8870C4
:10294000A82E4170F42E8C2F880F8F5FE80ECC20BC
:1029500081F04D2F400F6C2F610F81EA94E00E94AF
:1029600045034C2F400F6D2F610F81EA94E00E94C8
:102970004503BB2081F0402F4D1B6C2F610F81EA76
:1029800094E00E944503402F4C1B6D2F610F81EA9C
:1029900094E00E944503AA2081F04C2F400F612F44
:1029A0006D1B81EA94E00E9445034D2F400F612F7B
:1029B0006C1B81EA94E00E944503FF2081F0402FC8
:1029C0004C1B612F6D1B81EA94E00E944503402F50
:1029D0004D1B612F6C1B81EA94E00E944503CD17CB
:1029E00044F4E7FC04C0D150D394D394ED0CCF5FF2
:1029F000AACFDF91CF911F910F91FF90EF90DF90C1
:102A0000CF90BF90AF9008950F931F93CF93DF9314
:102A10008C01C091E004D0E0219750F0BE018AED16
:102A200094E00E946C05682FC8010E948105F4CFD4
:102A3000DF91CF911F910F9108950F931F93CF9323
:102A4000DF93C82F162FD42F022F242F462F682F45
:102A500081EA94E00E94720C4FEF400F410F2D2F3E
:102A60006C2F81EA94E00E94720C202F412F6C2F72
:102A700081EA94E00E948A0DD1506D2F6C0F202FB7
:102A8000412F81EA94E0DF91CF911F910F910C9437
:102A90008A0D80E090E00E9491248A3A29F06AEA47
:102AA00080E090E00E94992461E574E081E090E08C
:102AB0000E94AD0D6FE474E083E090E00E94AD0DE4
:102AC0006DE474E085E090E00E94AD0D6BE474E08D
:102AD00087E090E00E94AD0D89E090E00E94912493
:102AE000882329F060E089E090E00C94992408950F
:102AF000CF92DF92EF92FF92CF93DF936C01990F09
:102B0000EE08FF08F7FE16C06DE281EA94E00E942D
:102B1000AD09EC0144275527BA014C195D096E092E
:102B20007F092AE081EA94E00E94ED097C01EC0E25
:102B3000FD1E08C02AE0B701A60181EA94E00E94C8
:102B4000ED097C0169E171E081EA94E00E94D80915
:102B50008E0D9F1DDF91CF91FF90EF90DF90CF9072
:102B6000089540E062E975E088E794E00C943E0C3B
:102B7000CF92DF92EF92FF920F931F93CF93DF9349
:102B8000CDE5D4E004E614E0FF24FA9497E0E92EC2
:102B9000E00E62E088810E948F0A288130E0F9010E
:102BA000E258FA4F8491F901E659FA4FC490F901BD
:102BB000EA5AFA4FD490DD2071F081110E94360A52
:102BC000ED2DF0E0EE0FFF1FE45BFA4FA591B491FD
:102BD000EC91EC21B1F4F80180818F5F808360E09B
:102BE00088810E948F0A21960F5F1F4FE012D1CF7C
:102BF000DF91CF911F910F91FF90EF90DF90CF90D9
:102C00000895F8018081882371F3F8018F3F11F452
:102C10001082E5CFF082E3CFCF93C82FF89460E025
:102C20008091B0040E945F0A8091B10418161CF4D0
:102C300060E00E945F0ACEBD00000DB407FEFDCF2C
:102C40008EB58091B10418161CF461E00E945F0AF1
:102C50007894CF9108950F931F93CF938091AD04F3
:102C60008F5F8093AD040BE412E0C0E08C2F806492
:102C70000E940C1680E80E940C1661E08091B0045E
:102C80000E945F0A8091B10418161CF460E00E9453
:102C90005F0A80E090E0F801E80FF91F20812EBD67
:102CA00000000DB407FEFDCF2EB5019684359105C9
:102CB00091F78091B10418161CF461E00E945F0A3C
:102CC000CF5F0C5A1F4FC63089F680E4CF911F9119
:102CD0000F910C940C16CF93DF93BC0181EA94E022
:102CE0000E94B409EC0169E171E081EA94E00E947C
:102CF000D8098C0F9D1FDF91CF91089588EF91E047
:102D0000EBE4F2E0DF019C011D9221503040E1F73D
:102D10001092AA041092AB0464E275E081EA94E098
:102D20000E94B4090E942B168CB583608CBD8DB5B2
:102D30008E7F8DBD8CE191E0EEEFFFE3099510925F
:102D4000A7048FEF94E00E946B160E942B160E943E
:102D5000B81580916804813039F062E370E080E05A
:102D600090E00E94660BF3CF0895CF93DF93482F36
:102D700050E0EA01CD5ADB4F9DA19923A1F19EA11C
:102D8000911131C09EA5FA01EE0FFF1FE65AFB4FCD
:102D900035A126A1E32FF22FE90FF11DE90FF11D57
:102DA000259134912F3F9FEF390711F41DA21BC0CD
:102DB00039AB440F551FFA01E35AFB4F3327220F5B
:102DC000331F05A0F6A1E02DE20FF31F659174916A
:102DD000811105C040E088E794E00E943E0C2996EE
:102DE0008DA18F5F8DA3DF91CF91089570E0DB01FE
:102DF000AA0FBB1FAD5ABB4FD4962C91D497D59632
:102E00009C91D597E22FF92FE80FF11DE80FF11DE6
:102E1000259134915F9696963C932E939597F90160
:102E20008591949190917C04989F802D11246D5AE6
:102E30007B4FFB01B19685A3F901A591B4914B2F6E
:102E400050E0E82FF0E04E175F0720F4F9012591DC
:102E50003491832FFB01B296899F802D112485A385
:102E600008951F93CF93DF93C82F162F2EE4482F7A
:102E700063E081EA94E00E94720CDC2FD10F4FEFE7
:102E80004D0F2EE463E081EA94E00E94720C16502C
:102E9000CD5F212F4C2F60E081EA94E00E948A0DE3
:102EA000212F4C2F63E581EA94E00E948A0D41E0D6
:102EB0006C2F83E00E94861442E06C2F80E50E9414
:102EC0008614D45044E06D2F80E50E94861448E0BB
:102ED0006D2F83E0DF91CF911F910C9486149F9208
:102EE000AF92BF92CF92DF92EF92FF920F931F9318
:102EF000CF93DF93F82EE62EB22E03E0020FD0E040
:102F0000C3E08AEFC82E1EEF842F8170982EAA246A
:102F1000A394A20E4270D42EDF5F802F8B19180F5E
:102F20009920A1F02C2F220F2A0D4E2D4C1B6D2F16
:102F30006F0D81EA94E00E948A0D202F4E2D4D1BCB
:102F40006C2F6F0D81EA94E00E948A0DDD20A1F0C4
:102F50002C2F220F2A0D4E2D4C1B6F2D6D1B81EA3D
:102F600094E00E948A0D202F4E2D4D1B6F2D6C1B5F
:102F700081EA94E00E948A0DDC1744F417FD04C036
:102F8000C150C394C3941C0D0E5FC6CFDF91CF9187
:102F90001F910F91FF90EF90DF90CF90BF90AF9077
:102FA0009F90089580916F0490917004892BB1F1E6
:102FB000809177048F7169F584E10E942A0BBC012E
:102FC000990F880B990B0E943B2526EE3FE34EECB0
:102FD00050E40E949F250E940A259B0170936E0475
:102FE00060936D04672B91F084E080936C04EFE6AE
:102FF000F4E080E0419151912417350718F4809353
:103000006C0408958F5F8430A9F703C08FEF80931D
:103010006C04809177048F5F8093770408958F927A
:103020009F92AF92BF92CF92DF92EF92FF920F9357
:103030001F93CF93DF93FB0124913196C490F090BE
:10304000C104022E000C330B121613060CF0D7C06D
:1030500080330CF0D4C0482F082E000C550BFA0119
:10306000EC0DF11DC7FCFA951E161F060CF0C7C02B
:103070006E5F7F4FD901179693E0B595A7959A9506
:10308000E1F787FF0BC0C80EA49FC001A59F900D5C
:10309000B49F900D1124681B790B80E04C2D0C2CF3
:1030A000000C550B480F511D87FD5A9541335105B2
:1030B0001CF090E3C92EC81A2535310514F024E51B
:1030C00030E01091AD041827982F977031E001C0BF
:1030D000330F9A95EAF7859585958595F4E58F02E6
:1030E000C0011124855B9D4F00E00C2C000CDD0815
:1030F000BB24B394402F50E04C155D050CF07FC00D
:10310000FB01E490F1E0FF1218C0FB01EC0140E884
:10311000542F5E2119F05881532B588350E0559558
:1031200047954115510519F43196E49040E82196F0
:103130005C2F581B521760F359C0F1101AC0A32E10
:10314000A094FB01EC0140E8542F5E2119F0588156
:103150005A21588350E0559547954115510519F46A
:103160003196E49040E821965C2F581B521760F38B
:103170003DC043E0F41223C0932E9094FB01EC0178
:1031800040E8A82E8C2E881A542F5E2141F081260B
:10319000588180FE02C0532B01C05921588350E052
:1031A000559547954115510519F43196E49040E83D
:1031B00021965C2F5A19521728F31B2517C0FB01C3
:1031C000EC0140E8542F5E2119F0588153275883B1
:1031D00050E0559547954115510519F43196E49005
:1031E00040E821965C2F581B521760F3330F19F4F7
:1031F0008C5A9F4F31E00F5F6A0F7B1F7BCFDF91AF
:10320000CF911F910F91FF90EF90DF90CF90BF90E3
:10321000AF909F908F900895CF93DF9300D000D010
:10322000CDB7DEB7789484B5826084BD84B5816003
:1032300084BD85B5826085BD85B5816085BD809181
:103240006E00816080936E001092810080918100F9
:1032500082608093810080918100816080938100F1
:10326000809180008160809380008091B1008460B3
:103270008093B1008091B00081608093B000809114
:103280007A00846080937A0080917A0082608093D3
:103290007A0080917A00816080937A0080917A0030
:1032A000806880937A001092C10082E38093D204F8
:1032B00081E090E0A0E0B0E08093CE049093CF0452
:1032C000A093D004B093D1048FEF8093C304E0E8BF
:1032D000F7E7259134912130304C09F049C0E6E9F7
:1032E000F7E7E491E093AC04E7E9F7E7E491E093D2
:1032F0005704E8E9F7E7E491E0935804E9E9F7E7D0
:103300008591949190935A0480935904EBE9F7E7DF
:103310008591949190935C0480935B0488E0809302
:103320007E04EEE9F7E7E491E0937D04EFE9F7E747
:10333000E491E093C304E0EAF7E7859194919093D8
:10334000700480936F04E2EAF7E78591949190937B
:10335000720480937104E4EAF7E785919491909365
:10336000740480937304E6EAF7E7859194912CC086
:103370009CE39093AC04109257048093580480E22D
:1033800093E090935A048093590484ED93E09093D2
:103390005C0480935B0488E080937E0480937D04CA
:1033A0008CEA9DE09093700480936F048EED9DE015
:1033B000909372048093710484E79EE09093740468
:1033C000809373048CE39FE090937604809375045C
:1033D00011E0109353046FEF70E085E00E94CB0A78
:1033E00088E080935D0489E080935E0487E08093A9
:1033F0005F0486E08093600404E00093610482E04F
:103400008093620481E1809363040E94B8158CE389
:103410009FE090936E0480936D0400936C0410936E
:1034200077048BE08093AF048DE08093AE0480E15D
:103430008093B0048EE08093B2048FE08093B10457
:103440001093A9041093C1041092C2041093A8040D
:10345000E9E6F3E0E491EF5FE093A504EAE6F3E048
:10346000E491EF5FE093A6048BE693E09093C004B1
:103470008093BF041FB7F89480913702811127C051
:10348000E0E6F5E08491E4E7F5E09491E82FF0E0E0
:10349000EE0FFF1FE253FF4FA591B491EC91E9238A
:1034A00021F461E08AE00E945F0A61E08AE00E9404
:1034B0008F0A8CB580618CBD8CB580648CBD61E059
:1034C0008DE00E948F0A61E08BE00E948F0A80915C
:1034D00037028F5F809337021FBF8CB58F7D8CBD05
:1034E0008CB58C7F81608CBD8DB581608DBD8CB5B8
:1034F0008C608CBD61E08091AF040E948F0A61E016
:103500008091AE040E948F0A61E08091B0040E9415
:103510008F0A8091B20418161CF461E00E948F0A91
:103520008091B10418161CF461E00E948F0A80910A
:10353000B204181674F460E00E945F0A6AE070E05A
:1035400080E090E00E94660B61E08091B2040E94EE
:103550005F0A8091AE04082E000C990BFC01EA5A18
:10356000FA4FE491F0E0EE0FFF1FE852FF4F259174
:1035700034913093B6042093B504FC01E659FA4F18
:10358000E491E093BC048091AF04082E000C990BE9
:10359000FC01EA5AFA4FE491F0E0EE0FFF1FE85207
:1035A000FF4F259134913093B4042093B304FC0170
:1035B000E659FA4FE491E093BB048091B104082EE0
:1035C000000C990BFC01EA5AFA4FE491F0E0EE0F7F
:1035D000FF1FE852FF4F259134913093B804209398
:1035E000B704FC01E659FA4FE491E093BD048091E1
:1035F000B004082E000C990BFC01EA5AFA4FE49132
:10360000F0E0EE0FFF1FE852FF4F25913491309309
:10361000BA042093B904FC01E659FA4FE491E0930F
:10362000BE0481E20E940C1684E10E940C16809177
:10363000AC0487FF03C08FE78093AC048091AC0497
:1036400080680E940C1680E20E940C168CE00E949A
:103650000C160E942B1681E080937C0484E08093FA
:10366000A0048AEC90E0909388048093870460E043
:1036700080E00E94F61661E070E083E00E94CB0AD1
:103680008091B100887F81608093B100F89410929E
:10369000800010928100109285001092840088E1D1
:1036A00091E09093890080938800809181008860E8
:1036B000809381008091810081608093810080915E
:1036C0006F00826080936F0078940E94D21780917F
:1036D0006904813009F020C510927D0485E2809351
:1036E0002501109226011092270181E380932C017D
:1036F00010922D0110922E018DE3809333011092D0
:1037000034011092350189E480933A0110923B0113
:1037100010923C01EFE5F1E080E020E191E0DF0173
:10372000129731E0380F3C9311962C939083845F6D
:1037300037968435A1F781E080934A0110924B01BE
:1037400010924C018DE0809352011092530180E061
:1037500090E00E9491248A3AC1F461E574E081E02E
:1037600090E00E94E10D6FE474E083E090E00E943D
:10377000E10D6DE474E085E090E00E94E10D6BE402
:1037800074E087E090E00E94E10D0E94FE0588242D
:103790008394912C0E94640F882309F4B5C480910E
:1037A0006A04813069F480EF90E00E9487138130D1
:1037B00029F0823029F40E94F50DF5CF0E94FE0514
:1037C00080910001909101018130910521F00397D2
:1037D00009F465C0C2C0C0905B01D0905C018091CB
:1037E0006604813071F485E0C816D10451F05CE0C4
:1037F000C516D10431F0C601019690935C01809307
:103800005B0180916404813071F480915B0190913F
:103810005C01009741F08630910529F00197909363
:103820005C0180935B0180916704813041F4809159
:103830005101882309F47DC4815080935101809106
:103840006504813011F5E0905B01F0905C01870127
:10385000065011090730110508F07EC40E94A80E19
:10386000B09051016B2D70E06F5F7F4FDC011696B9
:103870002C9130E0621773070CF06EC40E946C0547
:1038800087FD6AC4B394B09251012091690480917C
:103890005B0190915C01213009F0EAC44EC0809137
:1038A0006604813079F480915B0190915C018530F0
:1038B000910541F08C30910529F0019690935C01BF
:1038C00080935B0180916404813079F480915B0185
:1038D00090915C018130910541F08630910529F08D
:1038E000019790935C0180935B0180916704813024
:1038F00071F480915B0190915C018130910509F038
:1039000050C587E090E090935C0180935B018091CB
:103910006504813069F480915B0190915C0189308C
:1039200091050CF444C5079790935C0180935B016B
:1039300080916804813089F442C5863091050CF08D
:1039400021C4019709F41EC480915B0190915C0130
:10395000C816D90611F01092510100910001109182
:1039600001010530110511F00E940A09023011050C
:1039700009F4BAC244F40115110581F001301105B2
:1039800009F495C0C1C30430110509F414C30CF443
:10399000EEC20530110509F454C3B6C38091360256
:1039A0008C31A8F44091C4045091C5046091C604C0
:1039B0007091C7044370552766277727452B462B00
:1039C000472B29F48F5F809336020E943B0E809133
:1039D000360291E08C3109F090E0E1E9EE2EE1E071
:1039E000FE2E03E911E0F0E9CF2EF1E0DF2EA12C4D
:1039F000B12C282E312CA214B3040CF050C0D601E7
:103A00008C91F80122913F01821306C0D7013C91AD
:103A1000F80120813217B9F1F6E0FA9D9001FB9D83
:103A2000300D1124A90142575E4F2A01DA014C9151
:103A3000F70160810E945608D3016C90662DF60153
:103A400080810E94790E982FD6018C93F8017080A6
:103A5000672DD7018C919B830E94790EF70180839B
:103A60009B8196110FC087110DC0F801349780819A
:103A7000F7E0F89FC0011124D2016C91835A9E4F48
:103A80000E94810590E0BFEFAB1ABB0AE6E0EE0EA4
:103A9000F11C0A5F1F4FF6E0CF0ED11CACCF99236B
:103AA00009F432C390920101809200012DC38091EC
:103AB0005B0190915C018D30910508F07EC0FC01A6
:103AC000EC5CFF4F0C9464266BE00FC060915801D2
:103AD00070E06115710531F0643071052CF4660FEA
:103AE0006B5E03C067E101C06BE180915A010E94E7
:103AF000790E80935A0164E0809159010E94790EF9
:103B0000809359015AC06EE105C06AE203C066E3C2
:103B100001C062E480915A010E94790E80935A019B
:103B200064E0809159010E94790E8093590121E04F
:103B300045C09C0126503109099794F447E0429F03
:103B4000F001439FF00D1124E35AFE4F6081665F40
:103B500080915A010E94790E80935A0120E011C091
:103B600057E0529FF001539FF00D1124E35AFE4F8E
:103B70006081675080915A010E94790E80935A01AA
:103B800021E0609151012C83611107C00E94A80EB1
:103B900060E00E94FC0264E007C06B830E94A80EF4
:103BA0006B810E94FC026EEF680F809159010E94A8
:103BB000790E809359012C8101C020E010915901A8
:103BC000F0905A0103E00F0D76E0B72EB10EC12C34
:103BD000D12C222309F4C1C066246394EE24E3941B
:103BE0006092C1046092C204712E7C0C502E5C0C59
:103BF000472D652D81EA94E00E944503AB2CAC185B
:103C00004A2D652D81EA94E00E9445031092C1047B
:103C10001092C2042C2D472D602F81EA94E00E945F
:103C2000720C2C2D4A2D602F81EA94E00E94720CB8
:103C30008FEFC81AD80A94E0C916D10479F6E09239
:103C4000C104E092C20427E0412F62E06F0D81EAD7
:103C500094E00E948A0D22E042E0410F6F2D81EA3C
:103C600094E00E94720C22E044E0410F6F2D81EA43
:103C700094E00E94720C03E0010F402F6F2D81EA47
:103C800094E00E9445031092C1041092C20422E005
:103C9000402F61E06F0D81EA94E00E94720CE09089
:103CA0005101EE2009F430C20E94A80E6E2D70E082
:103CB0000E946C05E82E89838F70C82ED12C8A3023
:103CC00011F030E001C032E081E08093C1048093C4
:103CD000C2045F2D531B4DE0430F29E06FEF610FCE
:103CE00084EF850F3B835C830E941D151092C104F5
:103CF0001092C204402F6F2D81EA94E00E94450388
:103D00003B812BE0230F5C8165EF650F07E0412FBE
:103D100081EA94E00E94950CCE0101960E9442082F
:103D2000811102C081E001C083E08093C1048093CF
:103D3000C2041F5FA601612F86EF8F0D0E949D03B5
:103D40004E2D50E064E0559547956A95E1F7437034
:103D50005527612F8AEF8F0DC4C055245394EE244C
:103D6000E3945092C1045092C204612E6C0C462D13
:103D7000602F81EA94E00E9445037B2C7C18472D3C
:103D8000602F81EA94E00E9445031092C1041092D2
:103D9000C204AA24A394A00E2C2D462D6A2D81EADC
:103DA00094E00E94720C2C2D472D6A2D81EA94E03C
:103DB0000E94720CAFEFCA1ADA0A0150B4E0CB16B7
:103DC000D10469F6E092C104E092C20427E0412FD9
:103DD00034E0D32EDF0C6D2D81EA94E00E948A0D31
:103DE00022E042E0410F05E00F0D602F81EA94E0F0
:103DF0000E94720C22E044E0410F602F81EA94E0BF
:103E00000E94720C43E0E42EE10E06E00F0D4E2DF1
:103E1000602F81EA94E00E9445031092C104109241
:103E2000C20422E04E2D6D2D81EA94E00E94720CB6
:103E3000D0905101DD2009F467C10E94A80E6D2DBC
:103E400070E00E946C05B82E89838F70C82ED12C2B
:103E50008A3011F0A12C02C022E0A22E81E08093D2
:103E6000C1048093C20429E04DE04A0D6FEF610F59
:103E7000802F0E941D151092C1041092C2044E2D75
:103E8000602F81EA94E00E94450307E02BE02A0DB1
:103E9000412F67E06F0D81EA94E00E94950CCE01FE
:103EA00001960E944208811102C081E001C083E0B6
:103EB0008093C1048093C2041F5F0A2D0F0DA601D9
:103EC000612F88E0800F0E949D034B2D50E094E00D
:103ED000559547959A95E1F743705527612F8CE0EA
:103EE000800F0E94990410C18AED94E00E94CE08D0
:103EF00061E18091DA040E94790E182F8093DA0430
:103F000060E08091DB040E94790E8093DB04113124
:103F100009F0FAC08111F8C060E070E08AED94E029
:103F20000E946C05682F82E591E00E9481058091D6
:103F30003A02882309F4B6CD815080933A02109258
:103F4000E0048AE491E00E9459058983CE0101963C
:103F50000E94B60569818AED94E00E94810581E0A6
:103F60008093DA041092DB040E943B0ECDC08AEDF0
:103F700094E00E94CE080E94A80E8C01FC01828170
:103F8000882329F0F680FF0CF394F39402C082E0BA
:103F9000F82ED8016C918091DA040E94790E8093FA
:103FA000DA04F80161816F0D8091DB040E94790EC3
:103FB0008093DB04A9C00091380210913902D80126
:103FC00012968C911297882329F016968C91F82ED0
:103FD000FF0C01C0F12CF80160818091DA040E948D
:103FE000790E8093DA04D80111966C916F0D80914F
:103FF000DB040E94790E8093DB048AED94E00E943A
:10400000CE089091DA04F801808198137DC0209148
:10401000DB0430E041818F2D90E0840F911D281743
:10402000390709F071C0C8010E940415909201017E
:10403000809200010E94BF050E9415031092510159
:1040400063C08091A704811107C081E08093A70419
:104050000E940A090E94D50E209148013091490121
:1040600020583F4F3093490120934801409142012D
:10407000509143018091460190914701840F951F13
:1040800090934301809342018091440190914501B6
:10409000820F931F8130F2E29F072CF49093450129
:1040A000809344011BC040E052E25093450140938D
:1040B00044014CEF4203C001439F900D112465E081
:1040C00070E00E945026709349016093480140E0DF
:1040D00066EF70E088E794E00E943E0C6091450135
:1040E00040914101809143010E9456088091420114
:1040F00090914301965F81309E4530F00E94D50E2D
:10410000811102C00E94FE0580E090E0892B09F435
:1041100041CB0E9400003ECB80916C04882309F4BF
:10412000DBCA40E062EE70E088E794E00E943E0C5B
:10413000D5CA80915B0190915C018230910514F4A5
:10414000069605C0863091050CF079CB07969093C2
:104150005C0180935B0173CBB8E0EB16F10444F093
:10416000E7E0EE1AF108F0925C01E0925B018DCB82
:10417000F6E0EF16F1040CF488CB10935C01009389
:104180005B0183CB0E94A80E8C01DC0116968C91FA
:10419000882309F4D9CB60E070E0C8010E946C0567
:1041A000A12CB12C282F2F70F501EB5DFE4F7F0164
:1041B000868181111EC0213009F048C01092E004B0
:1041C000D8018C918093DA0460E0C8010E94FC025F
:1041D0008093DB04C8010E945905682F8AED94E0A2
:1041E0000E948105F0923902E092380284E090E06A
:1041F00038C060E070E0CF012C830E946C05782EFF
:1042000060E070E0C8010E946C05672D70E094E0EA
:10421000759567959A95E1F763707727482F50E079
:1042200024E0559547952A95E1F7437055272C8151
:104230006417750759F4472D4F7050E04F5F5F4F7B
:104240008F7090E04817590709F4B8CFB7E0AB0E6C
:10425000B11CECE1AE16B10409F0A6CF75CB83E03A
:1042600090E090930101809300010E943B0E6CCB83
:1042700010916804113009F067CB8130910509F085
:1042800042C00E94A80E7C019093390280933802AC
:10429000DC0116968C911697882309F455CB109261
:1042A000E0048C918093DA0460E0C7010E94FC0274
:1042B0008093DB04F70186810091510110E0282FE3
:1042C00030E00F5F1F4F201731070CF48901801B6E
:1042D000D70116968C93A12CB12CA016B10609F427
:1042E000BECFF70186810380F481E02DEA0DFB1D2E
:1042F000E80FF11D60818AED94E00E948105FFEFD7
:10430000AF1ABF0AEACF823091050CF045C0892B65
:1043100009F01ACB80915001882351F11092E004EA
:104320008AE491E00E9459058983CE0101960E949A
:10433000B60569818AED94E00E9481051093DA0444
:104340001092DB049091240180915001492F50E09C
:10435000282F30E02417350714F08FEF890F809352
:104360003A0242E050E050930101409300017DCFBA
:1043700080915801882309F4E7CA82E591E00E9400
:1043800059058983CE0101960E94B60569818AE4A8
:1043900091E00E948105ECCF0697079708F0D4CAF8
:1043A00070CF863091050CF0B2CA0796ACCA06975A
:1043B0000CF4BECA90925C0180925B01B9CA40E0E5
:1043C00066EF70E088E794E00E943E0C80915B010C
:1043D00090915C01863091050CF04EC082309105C1
:1043E0000CF446C08091E004813009F083C00E9443
:1043F000A80EDC0116962C9160E070E0211109C036
:104400008AED94E00E946C058F70813009F072C0D3
:104410002AC00E946C05182F60E070E08AED94E0DD
:104420000E946C05412F50E0A4E055954795AA9550
:10443000E1F743705527282F30E0B4E035952795F4
:10444000BA95E1F7237033274217530709F052C09A
:104450001F70212F30E02F5F3F4F8F7090E02817A3
:10446000390709F047C00E94ED050E94150375CA7F
:10447000019709F43FC071CA0D970CF06ECA0E94F3
:10448000A80EFC012681222331F160E070E00E9439
:104490006C058A836091E00470E0615071098AEDD7
:1044A00094E00E946C05182F8983CE0102960E9429
:1044B0004208082FCE0101960E9442080817D1F049
:1044C0002A812F7030E01F70812F90E0019628170D
:1044D000390781F40CC06091E00470E0615071090B
:1044E0008AED94E00E946C058F708D3019F40E9463
:1044F000ED0533CA84E090E09093010180930001C0
:104500002CCACF93DF93CEE8D1E02797CE010E944B
:10451000900581E0CD35D807C1F78AE391E00E948C
:10452000900583E391E00E9490058CE291E00E9467
:10453000900585E291E00E94900582E591E00E945D
:1045400090058AE491E00E9490058AED94E0DF9165
:10455000CF910C9490051092A4041092A30481E1D1
:1045600091E09093A2048093A1046DE08AED94E021
:104570000E94980564E38AE491E00E94980568E14E
:1045800082E591E00E9498056DE085E291E00E944D
:1045900098056DE08CE291E00E9498056DE083E360
:1045A00091E00E9498056DE08AE391E00E949805F1
:1045B00064E18DE591E00E94980564E184E691E074
:1045C0000E94980564E18BE691E00E94980564E101
:1045D00082E791E00E94980564E189E791E00E94FA
:1045E000980564E180E891E00E94980564E187E81D
:1045F00091E00E949805EEE8F1E081E08083369634
:1046000092E0E633F907D1F781E080934101089504
:10461000CF93DF938230910510F482E090E0E09137
:10462000E304F091E40420E030E0C0E0D0E0309713
:1046300011F14081518148175907C0F048175907B7
:1046400061F482819381209719F09B838A832BC028
:104650009093E4048093E30426C02115310519F0FA
:104660004217530718F49A01BE01DF01EF010280DF
:10467000F381E02DDCCF2115310509F1281B390B21
:104680002430310590F412968D919C911397611509
:10469000710521F0FB019383828304C09093E404AD
:1046A0008093E304FD01329644C0FD01E20FF31F45
:1046B00081939193225031092D933C933AC02091DC
:1046C000E1043091E204232B41F420910501309163
:1046D00006013093E2042093E1042091030130911C
:1046E00004012115310541F42DB73EB74091070172
:1046F00050910801241B350BE091E104F091E20494
:10470000E217F307A0F42E1B3F0B2817390778F0A8
:10471000AC014E5F5F4F2417350748F04E0F5F1F07
:104720005093E2044093E1048193919302C0E0E04E
:10473000F0E0CF01DF91CF9108950F931F93CF93B6
:10474000DF93009709F48CC0FC0132971382128228
:104750000091E3041091E4040115110581F4208116
:104760003181820F931F2091E1043091E2042817D8
:10477000390779F5F093E204E093E10471C0D801C0
:1047800040E050E0AE17BF0750F412962D913C91D7
:104790001397AD012115310509F1D901F3CF9D0121
:1047A000DA013383228360817181860F971F82171C
:1047B000930769F4EC0128813981260F371F2E5F9A
:1047C0003F4F318320838A819B8193838283452B52
:1047D00029F4F093E404E093E30442C01396FC93BD
:1047E000EE931297ED01499159919E01240F351FC7
:1047F000E217F30771F480819181840F951F02966F
:1048000011969C938E938281938113969C938E93A1
:104810001297E0E0F0E0D80112968D919C911397E9
:10482000009719F0F8018C01F6CF8D919C919801B9
:104830002E5F3F4F820F931F2091E1043091E204DD
:104840002817390769F4309729F41092E40410927C
:10485000E30402C0138212821093E2040093E10485
:10486000DF91CF911F910F9108958F929F92AF92F8
:10487000BF92CF92DF92EF92FF92CF93DF93EC0142
:10488000688179818A819B81611571058105910516
:1048900021F464E279ED8BE597E02DE133EF41E01F
:1048A00050E00E94A72449015A019B01AC01A7EAEC
:1048B000B1E40E94C6246B017C01ACEEB4EFA5010B
:1048C00094010E94D424DC01CB018C0D9D1DAE1DF2
:1048D000BF1DB7FF03C00197A109B0488883998322
:1048E000AA83BB83BC01CD019F77DF91CF91FF905D
:1048F000EF90DF90CF90BF90AF909F908F900895F2
:104900000E943524089589E091E00E94352408959D
:104910006093090170930A0180930B0190930C013D
:104920000895F999FECF92BD81BDF89A992780B577
:104930000895262FF999FECF1FBA92BD81BD20BDE3
:104940000FB6F894FA9AF99A0FBE01960895052EBB
:1049500097FB1EF400940E94BE2457FD07D00E94CE
:10496000D92407FC03D04EF40C94BE2450954095F6
:10497000309521953F4F4F4F5F4F0895909580950B
:10498000709561957F4F8F4F9F4F08950E94FB2434
:10499000A59F900DB49F900DA49F800D911D112493
:1049A0000895B7FF0C94C6240E94C624821B930B63
:1049B0000895A1E21A2EAA1BBB1BFD010DC0AA1F60
:1049C000BB1FEE1FFF1FA217B307E407F50720F078
:1049D000A21BB30BE40BF50B661F771F881F991FF3
:1049E0001A9469F760957095809590959B01AC013C
:1049F000BD01CF010895A29FB001B39FC001A39F45
:104A0000700D811D1124911DB29F700D811D112407
:104A1000911D08950E947E2588F09F5798F0B92F28
:104A20009927B751B0F0E1F0660F771F881F991FE3
:104A30001AF0BA95C9F714C0B13091F00E949825C8
:104A4000B1E008950C949825672F782F8827B85FD8
:104A500039F0B93FCCF3869577956795B395D9F73B
:104A60003EF490958095709561957F4F8F4F9F4F45
:104A70000895E89409C097FB3EF490958095709551
:104A800061957F4F8F4F9F4F9923A9F0F92F96E99A
:104A9000BB279395F695879577956795B795F1110F
:104AA000F8CFFAF4BB0F11F460FF1BC06F5F7F4FAC
:104AB0008F4F9F4F16C0882311F096E911C07723BE
:104AC00021F09EE8872F762F05C0662371F096E8C7
:104AD000862F70E060E02AF09A95660F771F881F96
:104AE000DAF7880F9695879597F9089557FD9058AE
:104AF000440F551F59F05F3F71F04795880F97FBA2
:104B0000991F61F09F3F79F087950895121613065B
:104B10001406551FF2CF4695F1DF08C0161617068A
:104B20001806991FF1CF86957105610508940895BF
:104B3000E894BB2766277727CB0197F908950E9451
:104B4000B2250C9423260E94152638F00E941C26BC
:104B500020F0952311F00C940C260C9412261124AD
:104B60000C9499250E94762570F3959FC1F3950FBB
:104B700050E0551F629FF001729FBB27F00DB11DE1
:104B8000639FAA27F00DB11DAA1F649F6627B00D71
:104B9000A11D661F829F2227B00DA11D621F739F5A
:104BA000B00DA11D621F839FA00D611D221F749F68
:104BB0003327A00D611D231F849F600D211D822FAF
:104BC000762F6A2F11249F5750409AF0F1F08823D6
:104BD0004AF0EE0FFF1FBB1F661F771F881F915003
:104BE0005040A9F79E3F510580F00C940C260C9480
:104BF00099255F3FE4F3983ED4F3869577956795C2
:104C0000B795F795E7959F5FC1F7FE2B880F911D2C
:104C10009695879597F9089597F99F6780E870E0D2
:104C200060E008959FEF80EC089500240A94161622
:104C3000170618060906089500240A94121613068A
:104C4000140605060895092E0394000C11F4882318
:104C500052F0BB0F40F4BF2B11F460FF04C06F5F34
:104C60007F4F8F4F9F4F0895DB018F939F930E943B
:104C7000C624BF91AF91A29F800D911DA39F900D5F
:104C8000B29F900D11240895991B79E004C0991FDB
:104C9000961708F0961B881F7A95C9F78095089596
:104CA00097FB072E16F4009407D077FD09D00E94D9
:104CB0006A2607FC05D03EF4909581959F4F089594
:104CC000709561957F4F0895EE0FFF1F0590F49149
:104CD000E02D0994AA1BBB1B51E107C0AA1FBB1FF3
:104CE000A617B70710F0A61BB70B881F991F5A9578
:104CF000A9F780959095BC01CD01089581E090E0E1
:104D0000F8940C94832612E0CDECD2E004C0FE01AE
:104D10000E9464262196CE3CD107C9F7F894FFCFB4
:104D20000100010000E50480000100000000000017
:104D300000BE0C8009F902F8020D0A004C4F4144F4
:044D400045520000D8
:00000001FF
