:100000000C94F3010C941B020C941B020C941B0225
:100010000C941B020C941B020C941B020C941B02EC
:100020000C941B020C941B020C941B020C946B0F7F
:100030000C941B020C941B020C941B020C941B02CC
:100040000C94160F0C941B020C941B020C941B02B4
:100050000C941B020C941B020C941B020C941B02AC
:100060000C941B020C941B020D1A0F1A2C1A2E1A38
:10007000301A321A421A421A421A421A421A421AC2
:10008000421AA002BD02CC02E202E802EE02F8022D
:10009000060314031E0339034E0365030101FF0326
:1000A0000101F703A0009C000000000024002700CD
:1000B0002A0000000000250028002B0005008930E0
:1000C0000802380249786814000005003801680108
:1000D000000017534400161378001613140015106F
:1000E000200015201000540A03E181867F3E186D20
:1000F000830F0F0E0183866033186DC3198F1803A9
:10010000C38E6033186DE330CF1803C39E60363062
:10011000CDE360CF3006C79E7E3E30CDB360CF309A
:100120000CC6F6603330D9B660CF33CFCCF6606101
:10013000B0DB1E60CF30D86CE6C061B0DB1E618FD3
:1001400019986CC6C063B19B0E330F0FB078C6FF11
:100150007E1F1B061E0F536F6C6974616972650008
:10016000450068010000F6E8DBCFC3B8AEA49B925F
:100170008A827B746E68625C57524E4945413E3AB2
:100180003734312E2C29272523210A0A153A4967AD
:100190006E6F7265006D560A0A504C4541534520FA
:1001A0005455524E204F464620004C4F5720424156
:1001B000545445525921200003053F213F12081293
:1001C0000A100A0E1C0E0C1E0C141A14161F161EF2
:1001D000131E1E1B1E1E1F1E3F213F3A2F3A173DA6
:1001E000173F213F181F02040A041F0E04040E1FAC
:1001F0000A1F0A0E0E1F04110E2E252E2F2A2E2640
:100200002929021F02081F08150E04040E150E15D9
:10021000151B151B040604040C0400000000170045
:100220000300031F0A1F16371A1904130A153A0090
:100230000300000E11110E000A040A040E0400301F
:10024000000404040010001804031F111F121F10E3
:100250001D151711151F07041F17151D1F151D014B
:10026000011F1F151F17151F000A00003200040A86
:10027000110A0A0A110A040115020E11171E051EA1
:100280001F150A0E110A1F110E1F15111F05010E51
:10029000111D1F041F111F1108100F1F041B1F1019
:1002A000101F061F1E040F0E110E1F09060E112E21
:1002B0001F051A121509011F011F101F0F180F1F0C
:1002C0000C1F1B041B031C03191513001F1103042F
:1002D00018111F000201022020200001020C121E32
:1002E0001F120C0C12120C121F0C1A14041E0524DF
:1002F0002A1E1F021C141D1020201D1F0814111F70
:10030000101E041E1E021C0C120C3E0A040C123E8F
:100310001E040214160A020F120E101E0E100E1EDC
:10032000081E120C1226281E322A26041E21001F27
:1003300000211E040102013F213F172B1520102030
:100340004C4F4144455200172B16201314000A4EFF
:100350006F2053442063617264206F720A6E6F20B5
:100360004C4F414445522E4845580A0A153A4578A3
:100370006974001D20466C617368696E670A2020ED
:100380006C6F616465722E2E2E0A0A444F4E2754FC
:10039000205455524E204F464621000000000023B5
:1003A00000260029000404040404040404020202D8
:1003B00002020203030303030301020408102040A6
:1003C000800102040810200102040810200000002F
:1003D0000800020100000304070000000000000004
:1003E00000001A1FF01E11241FBECFEFD8E0DEBFA1
:1003F000CDBF11E0A0E0B1E0E2EDF5E402C0059070
:100400000D92A432B107D9F724E0A4E2B1E001C013
:100410001D92AC3DB207E1F711E0C2EFD1E004C09C
:100420002197FE010E94BD22C13FD107C9F70E945A
:1004300095150C94DC220C940000089580E090E067
:10044000089580912A018D3091F4809131018D3091
:1004500071F4809138018D3051F480913F018D30DD
:1004600031F485E090E090930101809300010895BC
:10047000FC01643508F053C0403308F050C090A12F
:10048000742F759575957595262F062E000C330BD8
:10049000542F57709230A1F4F901E95BFD4F84E5C8
:1004A0007802E00DF11D1124808190E0052E02C03C
:1004B000959587950A94E2F78095982F91700AC0D8
:1004C000933041F4848581704627409541708413B0
:1004D00003C014C0911112C084E57802200D311DB3
:1004E0001124F901E95BFD4F81E090E001C0880F24
:1004F0005A95EAF780959081892310C084E57802A7
:10050000200D311D1124F901E95BFD4F81E090E0E0
:1005100001C0880F5A95EAF79081892B808308954E
:100520000F931F93CF93DF93FA013197ED30F105CD
:1005300008F0EDC0D62FC82FEF5BFF4F0C94BD2203
:1005400011E0180F462F612F88E994E00E943802CD
:1005500001E00D0F24E0402F6C2F88E994E00E9409
:10056000CD1062E06C0F24E0402F88E994E00E94F7
:10057000CD1042E04D0F612F89C00E9420116D2FD8
:100580008C2F0E9418116D2F8C2F0E94F0106D2F50
:100590008C2F0E94FF100EC00E9420116D2F8C2FF7
:1005A0000E9418116D2F8C2F0E94F0106D2F8C2F30
:1005B0000E940F116D2F8C2FDF91CF911F910F9102
:1005C0000C940711DF91CF911F910F910C94FE11A4
:1005D000DF91CF911F910F910C94E6110E94E611CB
:1005E0006D2F8C2FDF91CF911F910F910C94FF10E5
:1005F0000E9420116D2F8C2F0E9418116D2F8C2FAF
:10060000DF91CF911F910F910C940F110E94E61171
:100610006D2F8C2F0E94FF106D2F8C2FDF91CF91AB
:100620001F910F910C9418110E94FE116D2F8C2FA9
:10063000DF91CF911F910F910C9420110E942011F6
:100640006D2F8C2F0E9418116D2F8C2F0E940F116F
:100650006D2F8C2F0E9407116D2F8C2F0E94FF1081
:100660006D2F8C2F0E94F8106EEF6C0F25E04D2F30
:1006700046C00E9418116D2F8C2F0E940F116D2FF4
:100680008C2F0E94071143E04D0F6C2F88E994E0F6
:10069000DF91CF911F910F910C9438020E9420118D
:1006A0006D2F8C2F0E9418116D2F8C2F0E94F81027
:1006B00043E04D0F23E06C2F88E994E00E94B50FD2
:1006C00044E04D0F61E06C0FE1CF0E94F8106D2FF8
:1006D0008C2F0E94FF1042E04D0F61E06C0F88E903
:1006E00094E00E943802CE5F22E04D2F6C2F88E903
:1006F00094E00E94CD1043E04D0F22E06C2F88E97A
:1007000094E0DF91CF911F910F910C94CD10DF9168
:10071000CF911F910F9108950F931F93CF93DF9364
:10072000082FC62F4130510509F449C00CF5452B5F
:1007300009F0ADC0D2E0D80F462F6D2F88E994E0C4
:100740000E94380241E04C0F61E0600F23E088E92D
:1007500094E00E94B50F42E04C0F25E0602F88E93D
:1007600094E00E94B50F43E04C0F25E0602F80C05D
:100770004230510509F450C04330510509F087C09B
:10078000D2E0D80F462F6D2F88E994E00E943802FE
:1007900011E0100F41E04C0F23E0612F88E994E055
:1007A0000E94B50F42E04C0F25E0602F88E994E0ED
:1007B0000E94B50F43E04C0F23E0612F59C0D1E0F8
:1007C000D80F23E0462F6D2F88E994E00E94B50FE3
:1007D00042E04C0F23E06D2F88E994E00E94B50FB2
:1007E000CF5F23E04C2F602F88E994E00E94CD106A
:1007F00064E0600F23E04C2F88E994E00E94CD1064
:1008000062E0600F24E04C2F88E994E0DF91CF9103
:100810001F910F910C94CD10D1E0D80F462F6D2F62
:1008200088E994E00E94380263E0600F4C2F88E969
:1008300094E00E94380241E04C0F25E0602F88E9E7
:1008400094E00E94B50F42E04C0F25E0602F88E94C
:1008500094E00E94B50F43E04C0F23E06D2F88E930
:1008600094E00E94B50F44E04C0F62E0600F07C0B7
:1008700088E994E00E94B50F44E04C0F6D2F88E9A1
:1008800094E0DF91CF911F910F910C943802DF918A
:10089000CF911F910F910895DC0116969C911697A8
:1008A000992359F01396ED91FC9114979150169657
:1008B0009C93E90FF11D8081089581E00895DC018A
:1008C00016962C91169730E0621773075CF4261B7E
:1008D000370B1396ED91FC911497E20FF31F3197AC
:1008E0008081089582E20895FC0126818581281780
:1008F00048F48381948131E0320F3683FC01E20FAA
:10090000F11D60830895FC0183819481009711F0AB
:100910000C940C2008950F931F93CF93DF938C01B9
:10092000FC0116826583C62FD0E0CE010E94771F9E
:10093000FC01C80FD91F21E0EC17FD0711F021932E
:10094000FBCFF80194838383DF91CF911F910F91A7
:100950000895FC01908197FF02C09F7701C09068C5
:1009600090830895EF92FF920F931F93CF93DF939D
:100970001F92CDB7DEB700E010E0C801845A9E4F49
:100980007C01FC018681882371F0C7010E944C0420
:10099000898387FF04C0CE0101960E94A904698162
:1009A000C7010E947404095F1F4F0133110529F725
:1009B0000F90DF91CF911F910F91FF90EF900895CD
:1009C0000E9456110E942A1281E090E0909301014A
:1009D00080930001109250010C94B2042F923F9228
:1009E0004F925F926F927F928F929F92AF92BF923F
:1009F000CF92DF92EF92FF920F931F93CF93DF93EB
:100A0000CDB7DEB727970FB6F894DEBF0FBECDBFC8
:100A100081E080939E049091BA04992309F486C1E1
:100A20008093A00410929F0410929E04109262047E
:100A30008093B8048093B90490E6292E91E0392E72
:100A4000BB24B394CC24C3941CE00E94FA088823EE
:100A5000E1F3E6E5F1E08491E6EEF0E08490E7EE84
:100A6000F0E04490F090B804082C000C9908181499
:100A700019040CF11092A1041093A20486E591E0F0
:100A80000E94221380919C04982F990F890F8195C1
:100A90008D5A8093A10480919D04982F990F890FFE
:100AA0008195835D8093A2048091BB0484FFA7C0DD
:100AB00082EE90E0A6C01414ECF6442D41330CF005
:100AC00040E3382DF5E58F1691040CF034E5E09005
:100AD000A40487E0880E911C83E0959487948A95FE
:100AE000E1F700E087E492E021E068EE70E0442E58
:100AF000440F5508402F50E0441555050CF0BACF6F
:100B0000FB01D490F1E0FF1218C0FB01DC0140E8CA
:100B1000542F5D2119F05C91522B5C9350E0559558
:100B200047954115510519F43196D49040E8119636
:100B30005A2F581B531760F359C0F1101AC0A22E38
:100B4000A094FB01DC0140E8542F5D2119F05C9179
:100B50005A215C9350E0559547954115510519F47C
:100B60003196D49040E811965A2F581B531760F3D2
:100B70003DC043E0F41223C0722E7094FB01DC01EF
:100B800040E8A82E6A2E681A542F5D2141F06E2489
:100B90005C9160FE02C0522B01C057215C9350E073
:100BA000559547954115510519F43196D49040E873
:100BB00011965A2F5A19531728F3EB2417C0FB012B
:100BC000DC0140E8542F5D2119F05C9152275C93C1
:100BD00050E0559547954115510519F43196D4903B
:100BE00040E811965A2F581B531760F3220F19F43F
:100BF0008C5A9F4F21E00F5F680D791D7BCF8EEDE2
:100C000090E00E94431380919C04982F990F890FC4
:100C100081958D5A8093A1048091A2048F5F809367
:100C2000A20480917404882319F08AED90E002C038
:100C300086ED90E00E94431380919C04982F990FB9
:100C4000890F81958D5A8093A1048091A2048F5FB2
:100C50008093A20482ED90E00E944313809160048F
:100C6000813041F5809174048F5F6091750487FD38
:100C700009C0082E000C990B70E06F5F7F4F0E9437
:100C8000A922682F6093740480E00E945812309269
:100C90007D0420927C041092820410928104C09200
:100CA000700489E0809385041092880410928A046D
:100CB00010928C0480915F048130B9F08091BA0465
:100CC000482F50E060E070E04090BB045090BC04BE
:100CD0006090BD047090BE04441655066606770603
:100CE00008F45AC18F3F09F457C18FEF8093BA04BB
:100CF00080E00E94581280E00E9458128AEC90E036
:100D000090937D0480937C0410928204109281045D
:100D100081E08093700499E0909385041092880498
:100D200010928A0410928C0480936204C090640430
:100D3000D0906504C094D094E12CF12C0E94B70EA1
:100D40004B015C010E94B70EA501940120953095DE
:100D50004095509560957095809590950E948D2254
:100D60009B01AC01C701B6010E948D224B015C01C1
:100D700080914B0490914C046C01E12CF12C0E9469
:100D8000B70EC60ED71EE81EF91EC701B601680DC4
:100D9000791D8A1D9B1D611571058105910511F055
:100DA0000E94F7201092620410925B0110925A0187
:100DB000109250018BE08093590185E08093580197
:100DC0001092570110924F01E12CF12CC70124E041
:100DD000880F991F2A95E1F7082F006811E0612F0D
:100DE000602B89E491E00E9474041F5F1E30B9F704
:100DF0008FEFE81AF80A94E0E916F10439F700E0F9
:100E000010E020914F0130E0021713077CF57901C3
:100E1000E01AF10A49F00E94F2209701FF0C440BFE
:100E2000550B0E94002103C060E070E0CB012091CF
:100E30004C0130914D01F901E60FF71F9081A0910F
:100E40004F01B0E0A01BB10BA20FB31F11978C9103
:100E5000808380914F01E82FF0E0E01BF10BE20F5F
:100E6000F31F319790830F5F1F4FCBCF10922A0152
:100E7000109231011092380110923F0180E090E011
:100E8000FC01E45AFE4F1682079681339105C1F7A3
:100E9000109235028CE5882E81E0982E00E010E05B
:100EA00096E0492EDE0111965D0177247394552456
:100EB0005394602E660C7801C12CD12C89E491E00A
:100EC0000E944C048F830E151F0521F4CE01079656
:100ED0000E94A90420913502F501442D11924A95F2
:100EE000E9F75982429EC001112483579E4FF501B4
:100EF000DC01342D01900D923A95E1F7DC01129658
:100F00007C92129713967C921397F401EC0DFD1DC1
:100F1000308114963C9314973181360D15963C938D
:100F200015971196EC9211973F813C932F5F209378
:100F30003502BFEFEB1AFB0AE7E0CE0ED11CF7E05B
:100F4000EF16F10409F0BACF0F5F1F4F47E0840E90
:100F5000911C0730110509F0ACCF109235021092A8
:100F600001011092000127960FB6F894DEBF0FBE64
:100F7000CDBFDF91CF911F910F91FF90EF90DF9048
:100F8000CF90BF90AF909F908F907F906F905F9029
:100F90004F903F902F90089580916104813009F027
:100FA00054CD0E9451134CCDFC01208130E084E0EF
:100FB000359527958A95E1F72370332781E0223014
:100FC000310529F02330310511F080E008950895AE
:100FD000CF92DF92EF92FF920F931F93CF93DF9305
:100FE0001F92CDB7DEB7E82EF62E142F498347FFA8
:100FF00002C083E001C080E08093B8048093B9040C
:101000000CE028E0DD24D394DF0C4D2DCC24C394D8
:10101000CE0C6C2D88E994E00E94D80F81E080937B
:10102000B8048093B90428E04F2D6C2D88E994E032
:101030000E94B50F28E04DE04F0D6C2D88E994E03B
:101040000E94B50F2CE04D2D6E2D88E994E00E9492
:10105000CD102CE04D2D69E06E0D88E994E00E94E2
:10106000CD1017FD23C0CE0101960E94D40788231E
:1010700029F083E08093B8048093B904412F50E0B5
:1010800084E0559547958A95E1F74370552762E0CE
:101090006F0D82E08E0D0E948C031F70412F50E077
:1010A00067E06F0D85E08E0D0E9490020F90DF913A
:1010B000CF911F910F91FF90EF90DF90CF90089507
:1010C0000F931F93CF93DF938C01C0E0D0E0F80122
:1010D000668170E0C617D70794F46C1B7D0B6150D6
:1010E0007109C8010E945F046C2F660FF80191819D
:1010F000690F482F80810E94E8072196E8CFDF9191
:10110000CF911F910F910895DF92EF92FF920F936D
:101110001F93CF93DF9380914F01882339F041E8EB
:1011200060914A01809149010E94E807C0E0D0E047
:1011300060915701643008F04FC070E0C617D707C0
:10114000ACF46C1B7D0B6150710981E591E00E944C
:101150005F042C2F220F90915101482F6091520172
:10116000822F890F0E94E8072196E2CFC4E2D1E0E6
:1011700000E010E083E0D82EC8018C5D9E4F7C011A
:10118000FC018681882361F060E070E0CE010E945E
:101190005F04482FF701618188810E94E8070BC036
:1011A000D092B804D092B9042EE04AE0F7016181F0
:1011B00088810E94530D095F1F4F27960C3111053E
:1011C000D9F6CCE5D1E0CE010E9460082796F1E087
:1011D000CD38DF07C1F706C0C330D1053CF663E068
:1011E00070E0AFCFDF91CF911F910F91FF90EF9003
:1011F000DF9008954F925F926F927F928F929F92AD
:10120000AF92BF92CF92DF92EF92FF920F931F9314
:10121000CF93DF9300D000D01F92CDB7DEB74091BF
:10122000CA045091CB046091CC047091CD042FB7C7
:10123000F89480913C0290913D02A0913E02B091C1
:101240003F022FBF481B590B6A0B7B0B8091C904CF
:1012500090E0A0E0B0E00091C5041091C604209198
:10126000C7043091C80484179507A607B70730F460
:10127000011511052105310509F033C3012B022B9E
:10128000032B09F02CC38091610481508E3FC0F57F
:10129000809160048130C9F5809174048F5F609102
:1012A000750487FD09C0082E000C990B70E06F5F74
:1012B0007F4F0E94A922682F6093740487E493E013
:1012C0009093CF048093CE0488E48093D00480E090
:1012D0000E94581280E691E090937D0480937C04F4
:1012E000109282041092810481E08093700489E05E
:1012F000809385041092880410928A0410928C04C2
:101300008091610481508E3F70F480915F04813040
:1013100009F093C38AE393E09093CF048093CE04C3
:1013200088E48093D00480E00E948613809170044A
:10133000882309F4ABC0809184048111A7C08091F7
:101340007C0490917D04E0918104F0918204EE0F81
:10135000FF1FE80FF91F4591549141155105F1F414
:1013600020918004222331F0109282041092810493
:10137000FC0112C01092700480916F04882341F028
:1013800080E00E948613E0918104F09182042DC0D8
:1013900080E00E9443127AC0459154919A0136959B
:1013A00027953695279540FF51C0CA0116E09695BE
:1013B00087951A95E1F78F71952F96959695969545
:1013C00090512F70223071F1F8F4211117C08B3039
:1013D00008F08AE080938504E0918104F091820412
:1013E0003196F0938204E0938104EE0FFF1F809109
:1013F0007C0490917D04E80FF91FCECF213061F776
:1014000060E00E94F013E8CF2330B1F0243021F7E0
:1014100020917304829F802D112480938C049093DB
:101420008D04DACF20917304829F802D1124809344
:10143000880490938904D0CF20917304829F802DDB
:10144000112480938A0490938B04C6CF2F7320932A
:10145000830480917304859F802D112480938404DC
:1014600010929404109293041092920481E080935D
:1014700086048093470410928704809181049091A0
:101480008204019690938204809381048091860463
:10149000882309F4EEC080918404811103C00E9466
:1014A0004312E7C081508093840480919404811199
:1014B00046C020919204309193042F5F3F4FC901A1
:1014C000880F991FE0918E04F0918F04E80FF91FA7
:1014D00065917491862F877080939504AB01E3E04A
:1014E00056954795EA95E1F7CA0196958795972F06
:1014F00096959695909396048F7390917304899F17
:10150000802D112480939404417040933B023093CA
:101510009304209392048091900490E02817390757
:1015200070F020919104222339F0821B910990934D
:1015300093048093920403C080E00E944312809140
:1015400094048150809394048091870421E0280FB3
:10155000209387044091830430919604340F809146
:101560007B04380F3093710460918A04662371F014
:1015700070E0822F022E000C990B0E94A92280910C
:101580008B04869F300D1124309371048091710477
:1015900090E0849664E270E00E94A9228093710436
:1015A000309185043093720460918804662381F041
:1015B000062E000C770B822F022E000C990B0E9436
:1015C000A92280918904869F300D112430937204E2
:1015D00060918C046623A1F0822F220F990B70E09A
:1015E0000E94A922CB0162E070E00E94A922209112
:1015F0008D0490917204289F900D11249093720491
:10160000809172044F3341F08A300CF089E087FDFD
:1016100080E08093720402C010927204F894E0910A
:101620007104F0E0EA59FE4FE491E0933A02309100
:101630007204209197043203900111244091950483
:101640004203C001439F900D11240090740402C016
:10165000880F991F0A94E2F797FF02C081589F4FA5
:10166000880F892F881F990B809348048093490421
:1016700078948091D004882309F486C08C3020F4BB
:101680009CE0E92EE81A01C0E12CFF24F394F092CB
:10169000A0041092B8041092B90430919D044DE258
:1016A000D42E1D2D131B1E0D03E0030F2EE4412F1E
:1016B00063E088E994E03D830E94D80F3D810CEF00
:1016C000030F1D5F202F41E0612F80E50E94A914C8
:1016D000202F42E0612F83E00E94A914F092B80409
:1016E000F092B90400919D04FD2CF01AFE0C2EE43A
:1016F0004F2D63E088E994E00E94B50F13E0100FCE
:101700001F0D4FEF410F2EE463E088E994E00E9443
:10171000B50F035033E0F30E202F4F2D60E088E922
:1017200094E00E94CD10202F4F2D63E588E994E0CE
:101730000E94CD1041E06F2D83E00E942B1442E007
:101740006F2D80E50E942B14145044E0612F80E53A
:101750000E942B1448E0612F83E00E942B1484E048
:101760008093A10480919D04E81A8E2D815D809361
:10177000A2048091CE049091CF040E942213809104
:10178000D00481508093D0048091660490916704C6
:10179000892B09F47CC011E01093B8041092B904AD
:1017A00090919C0485E5891B8093A1041092A2046A
:1017B00080916304813009F44DC030F0909162044F
:1017C000853008F05FC05AC080E00E945812109324
:1017D000A004E8EBF1E0E491EF5FE0939C04E9EB17
:1017E000F1E0E491EF5FE0939D048AEB91E0909348
:1017F000B7048093B60410926704109266041092A6
:101800009E0418EA0E94FA088823E1F38AEA91E02C
:101810000E942213609164047091650480E090E05E
:101820004AE00E940C1585E991E00E942213612F85
:1018300062956F7070E080E090E04AE00E940C15C5
:101840008AE891E00E94221380915F04813009F0C0
:10185000FAC01DC08091BB049091BC04A091BD044E
:10186000B091BE048F709927AA27BB270897A105BE
:10187000B10510F487E009C088E707C0992339F063
:101880008B5F03C0992319F08FE20E944D150E94CF
:10189000E21280919E0481110EC088EF91E0E7E48E
:1018A000F2E0DF019C011D9221503040E1F71092DF
:1018B000A1041092A2040E94B70E6093C504709315
:1018C000C6048093C7049093C8042091C10430914A
:1018D000C204621B730B7093C0046093BF0480E06A
:1018E000CCC02FB7F89480913C0290913D02A0911A
:1018F0003E02B0913F022FBF2091C904820F911D7B
:10190000A11DB11D8093CA049093CB04A093CC0475
:10191000B093CD048091BB049091BC04A091BD0410
:10192000B091BE040196A11DB11D8093BB0490939C
:10193000BC04A093BD04B093BE041092C5041092E1
:10194000C6041092C7041092C8040E94B70E609398
:10195000C1047093C2048093C3049093C404809123
:101960004B0490914C042FE0289F8001299F100D7B
:10197000112485E10E94A00E800F911F24E096950E
:1019800087952A95E1F790934C0480934B0420911E
:101990004A04222309F44BC060914E04262F30E004
:1019A00040E050E029833A834B835C83C0904F042E
:1019B000D12CE12CF12C40915204509153044A0156
:1019C000A12CB12C20915004309151042901612C9B
:1019D000712C8217930728F09C014817590708F4C7
:1019E0009A01C901A0E0B0E09C01AD0124193509BC
:1019F0004609570969817A818B819C816C197D091F
:101A00008E099F090E948D22A50194012419350990
:101A1000460957090E940021C20ED31EE41EF51E7E
:101A2000C0924D046C2D70E085E00E94410E0E9432
:101A30006F120E94581581E020C0893209F073CCE2
:101A40000E94511370CC115009F0DCCE60E070E0C0
:101A500085E00E94410E83B7817F846083BF83B796
:101A6000816083BF83B7816083BF889583B78E7F92
:101A700083BF83B78E7F83BFC5CE0F900F900F902B
:101A80000F900F90DF91CF911F910F91FF90EF90EA
:101A9000DF90CF90BF90AF909F908F907F906F908E
:101AA0005F904F9008950F931F93CF93DF93C82FAC
:101AB000162FD42F022F242F462F682F88E994E069
:101AC0000E94B50F4FEF400F410F2D2F6C2F88E96B
:101AD00094E00E94B50F202F412F6C2F88E994E0ED
:101AE0000E94CD10D1506D2F6C0F202F412F88E90F
:101AF00094E0DF91CF911F910F910C94CD10CF9274
:101B0000DF92EF92FF920F931F93CF93DF936C01BD
:101B10007A018B01C0E0D0E0CE15DF0589F0D80155
:101B20006D918D01D601ED91FC910190F081E02D38
:101B3000C6010995892B11F47E0102C02196ECCFD4
:101B4000C701DF91CF911F910F91FF90EF90DF9030
:101B5000CF9008950E94D722833081F028F48130FD
:101B600099F08230A1F008958730A9F08830B9F05B
:101B70008430D1F4809180008F7D03C080918000FB
:101B80008F7780938000089584B58F7702C084B5E5
:101B90008F7D84BD08958091B0008F7703C08091C0
:101BA000B0008F7D8093B00008951F93CF93DF9393
:101BB000282F30E0F901E353FC4F8491F901E754F9
:101BC000FC4FD491F901EB55FC4FC491CC23C9F0E3
:101BD000162F81110E94AC0DEC2FF0E0EE0FFF1FCD
:101BE000EE54FF4FA591B4918FB7F894111105C031
:101BF0009C91ED2FE095E92302C0EC91ED2BEC9345
:101C00008FBFDF91CF911F910895CF93DF9390E025
:101C1000FC01E754FC4F2491FC01EB55FC4F8491EF
:101C2000882361F190E0880F991FFC01E855FF4F70
:101C3000C591D491FC01EE54FF4FA591B49161116F
:101C400009C09FB7F8948881209582238883EC91FE
:101C50002E230BC0623061F49FB7F8943881822F35
:101C6000809583238883EC912E2B2C939FBF06C0F5
:101C70008FB7F894E8812E2B28838FBFDF91CF9107
:101C800008951F93CF93DF93182FEB0161E00E941B
:101C9000050E209711F460E004C0CF3FD10539F460
:101CA00061E0812FDF91CF911F910C94D50DE12F31
:101CB000F0E0E353FC4FE491E330F9F048F4E13015
:101CC000B9F0E230A1F584B5806284BDC8BD34C0EE
:101CD000E730E9F0E83019F1E43049F5809180000F
:101CE000806280938000D0938B00C0938A0024C0D0
:101CF00084B5806884BDC7BD1FC0809180008068A6
:101D000080938000D0938900C093880015C0809193
:101D1000B00080688093B000C093B3000DC0809184
:101D2000B00080628093B000C093B40005C0C0389A
:101D3000D1050CF0B5CFAFCFDF91CF911F910895B2
:101D40008E3008F08E508770806480937C00809184
:101D50007A00806480937A0080917A0086FDFCCFBF
:101D6000809178002091790090E0922B08953FB700
:101D7000F8948091430290914402A0914502B09161
:101D8000460226B5A89B05C02F3F19F00196A11D5C
:101D9000B11D3FBFBA2FA92F982F8827820F911D01
:101DA000A11DB11DBC01CD0142E0660F771F881F48
:101DB000991F4A95D1F708958F929F92AF92BF9243
:101DC000CF92DF92EF92FF926B017C010E94B70EDF
:101DD0004B015C01C114D104E104F104F1F00E9453
:101DE000B70EDC01CB0188199909AA09BB09883E05
:101DF0009340A105B10570F321E0C21AD108E108B2
:101E0000F10888EE880E83E0981EA11CB11CC11455
:101E1000D104E104F10419F7DDCFFF90EF90DF90DA
:101E2000CF90BF90AF909F908F9008951F920F9288
:101E30000FB60F9211242F933F938F939F93AF93DD
:101E4000BF9380913C0290913D02A0913E02B091DF
:101E50003F023091420223E0230F2D3720F40196F8
:101E6000A11DB11D05C026E8230F0296A11DB11DBD
:101E70002093420280933C0290933D02A0933E0245
:101E8000B0933F028091430290914402A091450299
:101E9000B09146020196A11DB11D8093430290931B
:101EA0004402A0934502B0934602BF91AF919F9127
:101EB0008F913F912F910F900FBE0F901F9018950B
:101EC00080914704882319F08091490401C080E083
:101ED0008093B40008951F920F920FB60F921124B1
:101EE0002F933F934F935F936F937F938F939F9322
:101EF000AF93BF93EF93FF9360914804662321F162
:101F0000809141028F5F8093410290913A0289173C
:101F1000D8F09091470481E089278093470410927C
:101F2000410280913B02882369F08091020193E491
:101F3000899F802D1124895B809302010E949D223C
:101F4000909349040E94600FFF91EF91BF91AF9170
:101F50009F918F917F916F915F914F913F912F91C1
:101F60000F900FBE0F901F901895DF92EF92FF9287
:101F70000F931F93CF93DF931F92CDB7DEB78C01E2
:101F8000D62EF42EE12CE21654F46E2D6D0D4F2D4D
:101F9000C80129830E943802E3942981F4CF0F906D
:101FA000DF91CF911F910F91FF90EF90DF900895F7
:101FB000DF92EF92FF920F931F93CF93DF937C01F9
:101FC000D62FD22EC42F002E000C110B040F111D82
:101FD00047FD1A954C2F0C2E000C550B401751073E
:101FE00044F42D2D4C2F6D2FC7010E94B50FCF5FEC
:101FF000F1CFDF91CF911F910F91FF90EF90DF9084
:1020000008956F927F928F929F92AF92BF92CF92DC
:10201000DF92EF92FF920F931F93CF93DF93EC0128
:102020006A3019F42D819885A1C06D3009F4A4C0DF
:102030001885BA84D98488A083E58D150CF47FC0F7
:102040008FE28B150CF47BC08C8190E00197189F78
:102050009001199F300D1124C9018D0D911DD7FCE0
:102060009A95181619060CF06AC08D81819FC001DF
:1020700011248B0D911DB7FC9A95181619060CF0BA
:102080005EC09D2CCD2CE62EF12CEC2DED190E2EE4
:10209000000CFF0B8C8190E0E817F9070CF04EC0A4
:1020A0000197E817F90779F0E89E9001E99E300D55
:1020B000F89E300D1124E20FF31F8E8D9F8DE80FD7
:1020C000F91F749001C0712C6B2CAB2C2A2D2B198D
:1020D000022E000C330B8D8190E0281739075CF538
:1020E00070FE10C0113031F44A2D6C2DCE010E94CB
:1020F00038021DC0012F212F462D692DCE010E94CF
:10210000D80F15C089A198A1891789F088A311302B
:1021100031F44A2D6C2DCE010E94380207C0012FE8
:10212000212F462D692DCE010E94D80F88A27694CA
:10213000A394610ECBCFC394910EA7CF88A228851C
:102140003C818985329F800D112489879F81992345
:1021500099F0082E000C990B44E550E0239F40199C
:1021600051091124481759073CF49D818A85299FFC
:10217000800D11248A87198681E090E0DF91CF914C
:102180001F910F91FF90EF90DF90CF90BF90AF9095
:102190009F908F907F906F900895DF92EF92FF92C3
:1021A0000F931F93CF93DF931F92CDB7DEB78C01B0
:1021B000D62EF42EE12CE21654F44E2D4F0D6D2D3B
:1021C000C80129830E943802E3942981F4CF0F903B
:1021D000DF91CF911F910F91FF90EF90DF900895C5
:1021E00042E0460F23E0682F88E994E00C94B50F95
:1021F000462F23E0682F88E994E00C94CD1042E04C
:10220000460F23E0682F88E994E00C94CD1044E059
:10221000460F23E0682F88E994E00C94B50F42E064
:10222000460F62E0680F23E088E994E00C94CD103B
:10223000462F62E0680F23E088E994E00C94CD100B
:10224000462F23E0682F88E994E00C94B50F1F9384
:10225000CF93DF93C82F162F861721F1862F90E09A
:102260008C1B910963E070E00E94A922D62F6111B6
:1022700017C06091BB047091BC048091BD04909123
:10228000BE0423E030E040E050E00E943221672BA2
:10229000682B692B29F4C11710F0DFEF01C0D1E0E2
:1022A0008D2F8C0FDF91CF911F91089580915A014E
:1022B00090915B018630910554F482309105A4F42D
:1022C0000097E9F00197D1F421E531E01AC08D3093
:1022D0009105A4F4069747E0489F9001499F300D6F
:1022E0001124245A3E4F0DC0029747E0489F9001A9
:1022F000499F300D11242C5D3E4F03C0089529E401
:1023000031E0C9010895CF93DF93C091400287E087
:10231000C89FE0011124CC5DDE4F8E81882309F433
:1023200051C0CE010E944C048093400188811092DC
:1023300041018093420189811092430180934401BD
:102340000E94F22022E030E040E050E00E940021B4
:10235000672B682B692B19F4CFEFDFEF02C0C1E0C8
:10236000D0E00E94F22020E031E040E050E00E9406
:102370000021DC01CB019F5FAF4FBF4FC89F900191
:10238000C99F300DD89F300D112430934601209302
:1023900045010E94F22020E032E040E050E00E943F
:1023A000002171956195710970934801609347010F
:1023B0008091400290E001968370992780934002BB
:1023C00081E001C080E0DF91CF910895CF93DF934A
:1023D000C82FD62F0E9420116D2F8C2F0E94F8102D
:1023E0006D2F8C2F0E94F0106D2F8C2F0E940F11DB
:1023F0006D2F8C2FDF91CF910C940711CF93DF932A
:10240000C82FD62F0E94F8106D2F8C2F0E94F0102D
:102410006D2F8C2F0E9418116D2F8C2FDF91CF9173
:102420000C940F11BC01009791F0FC010190002069
:10243000E9F73197AF01481B590BE0919804F091EF
:1024400099040280F381E02D88E994E0099480E00A
:1024500090E008950F931F93CF93DF938C01C09169
:10246000D704D0E0219750F0BE0181ED94E00E94A6
:102470005F04682FC8010E947404F4CFDF91CF91EC
:102480001F910F910895811112C01092860410922D
:102490008404109293041092920410928704109274
:1024A000490410924804109247040C94600F089558
:1024B000811114C010928604109284041092930427
:1024C00010929204109287041092490410924804CA
:1024D000109247040E94600F109270040895CF92EA
:1024E000DF92EF92FF920F931F93CF93DF93C4E598
:1024F000D4E00BE514E0FF24FA9497E0E92EE00E17
:1025000062E088810E94050E288130E0F901E353E2
:10251000FC4F8491F901E754FC4FC490F901EB554D
:10252000FC4FD490DD2071F081110E94AC0DED2D97
:10253000F0E0EE0FFF1FE556FC4FA591B491EC9132
:10254000EC21B1F4F80180818F5F808360E08881A5
:102550000E94050E21960F5F1F4FE012D1CFDF9131
:10256000CF911F910F91FF90EF90DF90CF90089542
:10257000F8018081882371F3F8018F3F11F41082F4
:10258000E5CFF082E3CFCF93C82FF89460E080913D
:10259000A7040E94D50D8091A80418161CF460E0D1
:1025A0000E94D50DCEBD00000DB407FEFDCF8EB547
:1025B0008091A80418161CF461E00E94D50D78944F
:1025C000CF9108950F931F93CF938091A4048F5FB1
:1025D0008093A40407E412E0C0E08C2F80640E9482
:1025E000C31280E80E94C31261E08091A7040E9498
:1025F000D50D8091A80418161CF460E00E94D50D3A
:1026000080E090E0F801E80FF91F20812EBD000066
:102610000DB407FEFDCF2EB501968435910591F7D7
:102620008091A80418161CF461E00E94D50DCF5FBC
:102630000C5A1F4FC63089F680E4CF911F910F913D
:102640000C94C3120F931F93CF93DF938C01C0E0C0
:10265000D0E0F801EC0FFD1F6491662371F0E0916A
:102660009804F09199040190F081E02D88E994E0BC
:102670000995892B11F02196ECCFCE01DF91CF91F6
:102680001F910F910895CF93DF930E942213EC01C5
:1026900089E191E00E9412128C0F9D1FDF91CF9172
:1026A000089588EF91E0E7E4F2E0DF019C011D92DC
:1026B00021503040E1F71092A1041092A20483E768
:1026C00093E00E9422130E94E2128CB583608CBDBD
:1026D0008DB58E7F8DBD8CE191E0EEEFFFE3099526
:1026E00010929E048EE493E00E9443130E94E21233
:1026F0000E946F1280915F04813039F062E370E0D4
:1027000080E090E00E94DC0EF3CF0895AF92BF927C
:10271000CF92DF92EF92FF920F931F93CF93DF93AD
:10272000C82ED12CE601C65BDB4F9DA1992309F48D
:102730004CC07E019FEFE91AF90AF70195A19111AA
:1027400044C09EA58601000F111F065B1B4FF801B8
:1027500034A525A5E32FF22FE90FF11DE90FF11D97
:10276000259134912F3FFFEF3F0711F41DA22DC09B
:1027700039ABF601EE0FFF1FEC5AFB4F3327220F48
:10278000331F05A0F6A1E02DE20FF31FA590B49032
:10279000811117C00E945812F801B3AAA2AAF6012B
:1027A000EE0FFF1FE45AFB4F16A215A281E0F701BE
:1027B00085A389E08BAF1EAEFE017B9615A23296F3
:1027C00015A229968DA18F5F8DA3DF91CF911F91C7
:1027D0000F91FF90EF90DF90CF90BF90AF90089552
:1027E00070E0DB01AA0FBB1FA65BBB4FD4962C91F8
:1027F000D497D5969C91D597E22FF92FE80FF11D2C
:10280000E80FF11D259134915F9696963C932E9397
:102810009597F9018591949190917304989F802DDB
:102820001124665B7B4FFB01B19685A3F901A5914D
:10283000B4914B2F50E0E82FF0E04E175F0720F4E3
:10284000F90125913491832FFB01B296899F802D48
:10285000112485A30895AF92BF92CF92DF92EF9299
:10286000FF920F931F93CF93DF93182F062FC1E092
:10287000D3E08AEFD82E9EEFE92E842F8470C82EE5
:10288000842F8270B82E842F8870A82E4170F42E69
:102890008C2F880F8F5FE80ECC2081F04D2F400FDA
:1028A0006C2F610F88E994E00E9438024C2F400F92
:1028B0006D2F610F88E994E00E943802BB2081F0FF
:1028C000402F4D1B6C2F610F88E994E00E94380265
:1028D000402F4C1B6D2F610F88E994E00E94380255
:1028E000AA2081F04C2F400F612F6D1B88E994E0E6
:1028F0000E9438024D2F400F612F6C1B88E994E035
:102900000E943802FF2081F0402F4C1B612F6D1B6D
:1029100088E994E00E943802402F4D1B612F6C1B08
:1029200088E994E00E943802CD1744F4E7FC04C023
:10293000D150D394D394ED0CCF5FAACFDF91CF9138
:102940001F910F91FF90EF90DF90CF90BF90AF90CD
:1029500008959F92AF92BF92CF92DF92EF92FF9233
:102960000F931F93CF93DF93F82EE62EB22E03E042
:10297000020FD0E0C3E08AEFC82E1EEF842F8170D3
:10298000982EAA24A394A20E4270D42EDF5F802F2B
:102990008B19180F9920A1F02C2F220F2A0D4E2DE4
:1029A0004C1B6D2F6F0D88E994E00E94CD10202FF5
:1029B0004E2D4D1B6C2F6F0D88E994E00E94CD10B9
:1029C000DD20A1F02C2F220F2A0D4E2D4C1B6F2D38
:1029D0006D1B88E994E00E94CD10202F4E2D4D1BD9
:1029E0006F2D6C1B88E994E00E94CD10DC1744F435
:1029F00017FD04C0C150C394C3941C0D0E5FC6CF15
:102A0000DF91CF911F910F91FF90EF90DF90CF90CA
:102A1000BF90AF909F9008958F929F92AF92BF9278
:102A20000F931F93CF93DF93CDB7DEB7A1970FB668
:102A3000F894DEBF0FBECDBF19A2423008F44AE0C1
:102A40008E010F5D1F4F842E912CA12CB12CA5015E
:102A500094010E943221E62FB901CA0101501109E7
:102A6000EA3014F4E05D01C0E95CD801EC93232B5B
:102A7000242B252B61F7C8010E941212A1960FB6D4
:102A8000F894DEBF0FBECDBFDF91CF911F910F91A4
:102A9000BF90AF909F908F900895E0919804F0912F
:102AA00099040190F081E02D682F88E994E0099461
:102AB0008091660490916704892BB1F180916E0436
:102AC0008F7169F584E10E94A00EBC01990F880BFB
:102AD000990B0E94942126EE3FE34EEC50E40E94B5
:102AE000F8210E9463219B01709365046093640444
:102AF000672B91F084E080936304E6E6F4E080E0E5
:102B0000419151912417350718F480936304089577
:102B10008F5F8430A9F703C08FEF809363048091A7
:102B20006E048F5F80936E040895CF93DF9300D07F
:102B300000D000D0CDB7DEB7789484B5826084BD74
:102B400084B5816084BD85B5826085BD85B58160B1
:102B500085BD80916E00816080936E00109281002F
:102B600080918100826080938100809181008160EA
:102B700080938100809180008160809380008091AB
:102B8000B10084608093B1008091B0008160809337
:102B9000B00080917A00846080937A0080917A00FE
:102BA000826080937A0080917A00816080937A00BD
:102BB00080917A00806880937A001092C10082E34D
:102BC0008093C90481E090E0A0E0B0E08093C50468
:102BD0009093C604A093C704B093C8048FEF80936A
:102BE000BA04E0E8F7E7259134912130304C09F040
:102BF00049C0E6E9F7E7E491E093A304E7E9F7E7E2
:102C0000E491E0934E04E8E9F7E7E491E0934F04A0
:102C1000E9E9F7E7859194919093510480935004EA
:102C2000EBE9F7E7859194919093530480935204D4
:102C300088E080937504EEE9F7E7E491E09374048B
:102C4000EFE9F7E7E491E093BA04E0EAF7E785916A
:102C500094919093670480936604E2EAF7E7859184
:102C600094919093690480936804E4EAF7E785916E
:102C7000949190936B0480936A04E6EAF7E7859158
:102C800094912CC09CE39093A30410924E048093E3
:102C90004F0480E293E0909351048093500484EDBC
:102CA00093E0909353048093520488E080937504DA
:102CB000809374048CEA9DE090936704809366048B
:102CC0008EED9DE0909369048093680484E79EE014
:102CD00090936B0480936A048CE39FE090936D045F
:102CE00080936C0411E010934A046FEF70E085E06C
:102CF0000E94410E88E08093540489E0809355043B
:102D000087E08093560486E08093570404E00093A4
:102D1000580482E08093590481E180935A040E9410
:102D20006F128CE39FE0909365048093640400939A
:102D3000630410936E048BE08093A6048DE080936F
:102D4000A50480E18093A7048EE08093A9048FE01E
:102D50008093A8041093A0041093B8041092B904AF
:102D600010939F04E8EBF1E0E491EF5FE0939C04A3
:102D7000E9EBF1E0E491EF5FE0939D048AEB91E0F1
:102D80009093B7048093B6041FB7F89480913602ED
:102D9000811127C0EFEAF3E08491E3ECF3E0949132
:102DA000E82FF0E0EE0FFF1FE855FF4FA591B4911B
:102DB000EC91E92321F461E08AE00E94D50D61E005
:102DC0008AE00E94050E8CB580618CBD8CB5806454
:102DD0008CBD61E08DE00E94050E61E08BE00E94F9
:102DE000050E809136028F5F809336021FBF8CB52F
:102DF0008F7D8CBD8CB58C7F81608CBD8DB58160E5
:102E00008DBD8CB58C608CBD61E08091A6040E9464
:102E1000050E61E08091A5040E94050E61E080919D
:102E2000A7040E94050E8091A90418161CF461E005
:102E30000E94050E8091A80418161CF461E00E94FF
:102E4000050E8091A904181674F460E00E94D50D57
:102E50006AE070E080E090E00E94DC0E61E080912A
:102E6000A9040E94D50D8091A504082E000C990B91
:102E7000FC01EB55FC4FE491F0E0EE0FFF1FEE5428
:102E8000FF4F259134913093AD042093AC04FC01A5
:102E9000E754FC4FE491E093B3048091A604082E1C
:102EA000000C990BFC01EB55FC4FE491F0E0EE0FA8
:102EB000FF1FEE54FF4F259134913093AB042093C4
:102EC000AA04FC01E754FC4FE491E093B204809122
:102ED000A804082E000C990BFC01EB55FC4FE49163
:102EE000F0E0EE0FFF1FEE54FF4F25913491309329
:102EF000AF042093AE04FC01E754FC4FE491E0934F
:102F0000B4048091A704082E000C990BFC01EB552A
:102F1000FC4FE491F0E0EE0FFF1FEE54FF4F2591C0
:102F200034913093B1042093B004FC01E754FC4F7A
:102F3000E491E093B50481E20E94C31284E10E940F
:102F4000C3128091A30487FF03C08FE78093A3047B
:102F50008091A30480680E94C31280E20E94C31281
:102F60008CE00E94C3120E94E21211E010937304DD
:102F700084E08093970484EA90E090937F048093A8
:102F80007E0460E080E00E94F01361E070E083E086
:102F90000E94410E8091B100887F81608093B100D2
:102FA000F894109280001092810010928500109287
:102FB000840088E191E0909389008093880080915B
:102FC000810088608093810080918100816080937E
:102FD000810080916F00826080936F0078940E94DE
:102FE000581580916004813009F034C51092740442
:102FF00085E28093240181E08093250110922601CF
:1030000091E390932B0180932C0110922D019DE36D
:1030100090933201809333011092340199E490939C
:10302000390180933A0110923B01EEE5F1E080E036
:1030300031E121E0DF01129791E0980F9C93119606
:103040003C9391E02083845F3796843599F7909381
:10305000490190934A0110924B018DE080935101F8
:10306000909352010E94EE0466246394712C77E0E1
:10307000372EE4E0EE2EF12C0E94FA08882309F4A2
:10308000E1C480916104813009F402C5809100019E
:10309000909101018130910521F0039709F492C0CC
:1030A00004C1C0905A01D0905B0180915D048130D1
:1030B00071F425E0C216D10451F07CE0C716D104AA
:1030C00031F0C601019690935B0180935A01809183
:1030D0005B04813071F480915A0190915B010097FB
:1030E00041F08630910529F0019790935B01809320
:1030F0005A0180915E04813041F48091500188230F
:1031000009F4C9C481508093500180915C048130DE
:1031100011F5A0905A01B0905B018501065011098C
:103120000730110508F0CAC40E9456119090500152
:10313000692D70E06F5F7F4FDC0116962C9130E0B7
:10314000621773070CF0BAC40E945F0487FDB6C40F
:1031500093949092500180916004813071F4A0901A
:103160005A01B0905B0136E0A316B1040CF0BCC468
:1031700021E0A216B10409F4B7C410915F04113024
:10318000B1F480905A0190905B0161E08616910441
:1031900009F068C50E9456118C0190933802809303
:1031A0003702DC0116968C911697811116C5809115
:1031B0005A0190915B01C816D90609F476C01092A5
:1031C000500173C080915D04813079F480915A017F
:1031D00090915B018530910541F08C30910529F08B
:1031E000019690935B0180935A0180915B0481303A
:1031F00079F480915A0190915B018130910541F001
:103200008630910529F0019790935B0180935A01D4
:1032100080915E04813071F480915A0190915B013C
:103220008130910509F05CC587E090E090935B01E7
:1032300080935A0180915C04813069F480915A0135
:1032400090915B01893091050CF450C507979093DC
:103250005B0180935A0180915F04813031F5809148
:103260005A0190915B01863091050CF076C5823051
:1032700091050CF46EC58091D704813009F0ABC57F
:103280000E945611DC0116962C9160E070E021112D
:1032900035C581ED94E00E945F048F70813009F0A4
:1032A0009AC50E94E0040E94210200910001109141
:1032B00001010530110511F00E948408023011054A
:1032C00009F4B8C244F40115110581F0013011056B
:1032D00009F496C0B7C30430110509F415C30CF402
:1032E000EBC20530110509F452C3ACC3809135021D
:1032F0008C3198F44091BB045091BC046091BD04A2
:103300007091BE044370552766277727452B462BBF
:10331000472B19F48F5F809335028091350291E03D
:103320008C3109F090E010E9C12E11E0D12E02E9B4
:1033300011E02FE8A22E21E0B22E812C912C282F13
:1033400030E03C832B832B813C81821693060CF06A
:103350004FC0D5018C91F80122912F01821306C034
:10336000D6013C91F80120813217B1F1F6E0F89DC9
:103370009001F99D300D112423573E4FD9014C91F6
:10338000F60160812D833E830E94E807D2014C90B4
:10339000642DF50180810E942711282ED5018C9380
:1033A000F8015080652DD6018C910E942711F601FD
:1033B00080832D813E8124100EC085110CC0F80140
:1033C00034978081389EC0011124D9016C91845AB0
:1033D0009E4F0E94740490E0BFEF8B1A9B0AE6E0B8
:1033E000CE0ED11C0A5F1F4FF6E0AF0EB11CABCF63
:1033F000992309F427C3709201016092000122C34E
:1034000080915A0190915B018D30910508F07BC04D
:10341000FC01EC5CFF4F0C94BD226BE00FC060918F
:10342000570170E06115710531F0643071052CF4BD
:10343000660F6B5E03C067E101C06BE180915901CB
:103440000E9427118093590165E0809158010E94E4
:1034500027118093580157C06EE105C06AE203C08E
:1034600066E301C062E4809159010E9427118093B4
:10347000590165E0809158010E94271180935801FD
:1034800091E042C08C0106501109309EF001319E3E
:10349000F00D1124E45AFE4F608109974CF4665FE9
:1034A000809159010E9427118093590190E008C032
:1034B0006750809159010E9427118093590191E032
:1034C00080915001309EF001319EF00D1124E45A9C
:1034D000FE4F811106C081816681660F680F6E5FA5
:1034E00009C06181625026818095820F32E0839FFE
:1034F000600D1124809158019D830E9427118093B3
:1035000058019D8101C090E010915801D09059015F
:1035100003E00D0DB6E09B2E910EA12CB12C99234A
:1035200009F4C1C044244394CC24C3944092B80409
:103530004092B904512E5A0C202E2A0C452D622D92
:1035400088E994E00E943802892C8A18482D622D5F
:1035500088E994E00E9438021092B8041092B904ED
:103560002A2D452D602F88E994E00E94B50F2A2D61
:10357000482D602F88E994E00E94B50F6FEFA61ADE
:10358000B60A74E0A716B10479F6C092B804C092E6
:10359000B90427E0412F62E06D0D88E994E00E94B4
:1035A000CD1022E042E0410F6D2D88E994E00E94A9
:1035B000B50F22E044E0410F6D2D88E994E00E94B0
:1035C000B50F03E0010F402F6D2D88E994E00E94B4
:1035D00038021092B8041092B90422E0402F61E042
:1035E0006D0D88E994E00E94B50FC0905001CC2089
:1035F00009F428C20E9456116C2D70E00E945F04ED
:10360000C82E89838F70A82EB12C8A3011F030E03B
:1036100001C032E081E08093B8048093B9045D2D4D
:10362000531B4DE0430F29E06FEF610F84EF850FCF
:103630003E835D830E94530D1092B8041092B9042A
:10364000402F6D2D88E994E00E9438023E812BE0E6
:10365000230F5D8165EF650F07E0412F88E994E056
:103660000E94D80FCE0101960E94D407811102C09A
:1036700081E001C083E08093B8048093B9041F5FA8
:10368000A501612F86EF8D0D0E9490024C2D50E018
:10369000A4E055954795AA95E1F743705527612F0A
:1036A0008AEF8D0DC4C022242394CC24C39420928D
:1036B000B8042092B904412E4A0C442D602F88E9A9
:1036C00094E00E943802592C5A18452D602F88E941
:1036D00094E00E9438021092B8041092B904882431
:1036E0008394800E2A2D442D682D88E994E00E9451
:1036F000B50F2A2D452D682D88E994E00E94B50F5D
:103700008FEFA81AB80A015094E0A916B10469F61F
:10371000C092B804C092B90427E0412FE4E0BE2E65
:10372000BD0C6B2D88E994E00E94CD1022E042E0B0
:10373000410F05E00D0D602F88E994E00E94B50F60
:1037400022E044E0410F602F88E994E00E94B50F29
:10375000F3E0CF2EC10E06E00D0D4C2D602F88E951
:1037600094E00E9438021092B8041092B90422E04A
:103770004C2D6B2D88E994E00E94B50FB09050015C
:10378000BB2009F45FC10E9456116B2D70E00E94AE
:103790005F04982E89838F70A82EB12C8A3011F087
:1037A000812C02C072E0872E81E08093B804809360
:1037B000B90429E04DE0480D6FEF610F802F0E94A2
:1037C000530D1092B8041092B9044C2D602F88E963
:1037D00094E00E94380207E02BE0280D412F67E0BB
:1037E0006D0D88E994E00E94D80FCE0101960E94E9
:1037F000D407811102C081E001C083E08093B80446
:103800008093B9041F5F082D0D0DA501612F88E07D
:10381000800F0E949002492D50E064E05595479535
:103820006A95E1F743705527612F8CE0800F0E9465
:103830008C0308C181ED94E00E94600861E18091F1
:10384000D1040E942711082F8093D10461E0809158
:10385000D2040E942711182F8093D204013109F05D
:10386000F1C0813009F0EEC060E070E081ED94E0DD
:103870000E945F04682F81E591E00E9474048091AA
:103880003902882309F4B7CD815080933902109210
:10389000D70489E491E00E944C048983CE0101960B
:1038A0000E94A904698181ED94E00E947404109340
:1038B000D1041093D204C6C081ED94E00E94600848
:1038C0000E9456118C01DC0112968C91129788236C
:1038D00031F01696DC90DD0CD394D39402C032E024
:1038E000D32EF80160818091D1040E94271180932A
:1038F000D104D80111966C916D0D8091D2040E9473
:1039000027118093D2049EC0009137021091380293
:10391000F8018281882321F08681D82EDD0C01C038
:10392000D12CD8016C918091D1040E9427118093F1
:10393000D104F80161816D0D8091D2040E9427119C
:103940008093D20481ED94E00E9460089091D104AC
:10395000D8018C91981376C02091D20430E0119652
:103960004C918D2D90E0840F911D2817390709F097
:1039700069C0C8010E942A12709201016092000180
:10398000109250010E94B2040E9421025BC08091FB
:103990009E04811107C081E080939E040E948408E8
:1039A0000E948311409147015091480140585F4F58
:1039B00050934801409347012091410130914201C9
:1039C0008091450190914601280F391F30934201A3
:1039D000209341018091430190914401840F951FF0
:1039E0008130B2E29B072CF4909344018093430111
:1039F00014C0E0E0F2E2F0934401E09343016CEF85
:103A00006403C001659F900D112465E070E00E9481
:103A1000A92270934801609347016091440140914D
:103A20004001832F0E94E80780914101909142015B
:103A3000965F81309E4530F00E948311811102C053
:103A40000E94EE0480E090E0892B09F415CB0E94DF
:103A500000000DCB80916304882309F4C7CA80E07D
:103A60000E9458128CEB90E090937D0480937C042C
:103A700010928204109281041093700489E0809364
:103A800085041092880410928A0410928C04B0CAA3
:103A90000E94EE04FBCA80915A0190915B01823032
:103AA000910514F4069605C0863091050CF02DCBD7
:103AB000079690935B0180935A0127CBB8E0AB1631
:103AC000B10444F0E7E0AE1AB108B0925B01A092F5
:103AD0005A0141CBF6E0AF16B1040CF43CCB109385
:103AE0005B0100935A0137CB0E9456118C01DC0117
:103AF00016968C91882309F440CB60E070E0C801F1
:103B00000E945F04412C512C282F2F70F201EC5D94
:103B1000FE4F4F01868181112AC0213041F510925C
:103B2000D704C8010E944C04682F81ED94E00E94E4
:103B30007404D8018C918093D10411969C91B6E0C5
:103B4000AB16B10414F480E006C0E0913702F091A6
:103B500038028681880F890F8093D20490923802B0
:103B600080923702F0920101E092000106CB60E002
:103B700070E0C4012D830E945F04282E60E070E095
:103B8000C8010E945F04622D70E094E0759567950E
:103B90009A95E1F763707727482F50E024E0559518
:103BA00047952A95E1F7437055272D8164177507CE
:103BB00059F4422D4F7050E04F5F5F4F8F7090E08F
:103BC0004817590709F4ABCFE7E04E0E511CFCE152
:103BD0004F16510409F09ACFD0CA1092D704169606
:103BE0008C91A09050012A2D30E0482F50E0F9012F
:103BF00031965F014E175F070CF45A018A19D801FC
:103C000016968C93412C512C4A145B0491F0F801C8
:103C100086810380F481E02DE40DF51DE80FF11D90
:103C2000608181ED94E00E947404FFEF4F1A5F0AF7
:103C3000EBCFD8018C918093D10411969C91B6E082
:103C40008B16910424F0F8018681880F01C080E072
:103C5000890F8093D20483E090E0909301018093D8
:103C60000001A5CA72E087169104A4F5892809F01D
:103C70009ECA80914F018823C9F01092D70489E42D
:103C800091E00E944C048983CE0101960E94A90410
:103C9000698181ED94E00E9474041093D104109323
:103CA000D2041092390282E090E0D7CF8091570180
:103CB000882309F47CCA81E591E00E944C04898341
:103CC000CE0101960E94A904698189E491E00E94D5
:103CD0007404ECCFC4010697079708F068CA5ACA63
:103CE000863091050CF0A6CA0796A0CA06970CF478
:103CF000B2CA70925B0160925A01ADCA0E945F0421
:103D0000182F60E070E081ED94E00E945F04412F85
:103D100050E034E0559547953A95E1F743705527C3
:103D2000282F30E064E0359527956A95E1F72370F8
:103D300033274217530709F04EC01F70212F30E080
:103D40002F5F3F4F8F7090E02817390709F043C06D
:103D5000A8CA019709F43FC0A8CA0D970CF0A5CADC
:103D60000E945611FC012681222331F160E070E0AF
:103D70000E945F048A836091D70470E061507109EA
:103D800081ED94E00E945F04182F8983CE01029692
:103D90000E94D407082FCE0101960E94D40708176D
:103DA000D1F02A812F7030E01F70812F90E00196B2
:103DB0002817390781F40CC06091D70470E0615076
:103DC000710981ED94E00E945F048F708D3019F4C9
:103DD0000E94E0046ACAF0920101E092000165CA03
:103DE000CF93DF93CDE8D1E02797CE010E948304E3
:103DF00081E0CC35D807C1F789E391E00E948304C4
:103E000082E391E00E9483048BE291E00E948304AC
:103E100084E291E00E94830481E591E00E948304A2
:103E200089E491E00E94830481ED94E0DF91CF91D9
:103E30000C94830410929B0410929A0481E191E007
:103E400090939904809398046DE081ED94E00E9432
:103E50008B0464E389E491E00E948B0464E381E5D0
:103E600091E00E948B046DE084E291E00E948B045B
:103E70006DE08BE291E00E948B046DE082E391E0C3
:103E80000E948B046DE089E391E00E948B0464E161
:103E90008CE591E00E948B0464E183E691E00E944E
:103EA0008B0464E18AE691E00E948B0464E181E77F
:103EB00091E00E948B0464E188E791E00E948B040A
:103EC00064E18FE791E00E948B0464E186E891E071
:103ED0000E948B04EDE8F1E081E08083369692E069
:103EE000E533F907D1F781E0809340010895CF933E
:103EF000DF938230910510F482E090E0E091DA04E3
:103F0000F091DB0420E030E0C0E0D0E0309711F128
:103F10004081518148175907C0F04817590761F48B
:103F200082819381209719F09B838A832BC0909381
:103F3000DB048093DA0426C02115310519F04217FD
:103F4000530718F49A01BE01DF01EF010280F381EB
:103F5000E02DDCCF2115310509F1281B390B243068
:103F6000310590F412968D919C911397611571050E
:103F700021F0FB019383828304C09093DB04809340
:103F8000DA04FD01329644C0FD01E20FF31F819374
:103F90009193225031092D933C933AC02091D8043B
:103FA0003091D904232B41F4209105013091060171
:103FB0003093D9042093D804209103013091040157
:103FC0002115310541F42DB73EB7409107015091BD
:103FD0000801241B350BE091D804F091D904E217B5
:103FE000F307A0F42E1B3F0B2817390778F0AC011C
:103FF0004E5F5F4F2417350748F04E0F5F1F5093F9
:10400000D9044093D8048193919302C0E0E0F0E09A
:10401000CF01DF91CF9108950F931F93CF93DF933B
:10402000009709F48CC0FC01329713821282009130
:10403000DA041091DB040115110581F4208131812E
:10404000820F931F2091D8043091D9042817390783
:1040500079F5F093D904E093D80471C0D80140E019
:1040600050E0AE17BF0750F412962D913C91139774
:10407000AD012115310509F1D901F3CF9D01DA0117
:104080003383228360817181860F971F8217930784
:1040900069F4EC0128813981260F371F2E5F3F4FCD
:1040A000318320838A819B8193838283452B29F4EA
:1040B000F093DB04E093DA0442C01396FC93EE9392
:1040C0001297ED01499159919E01240F351FE21776
:1040D000F30771F480819181840F951F02961196E8
:1040E0009C938E938281938113969C938E931297C7
:1040F000E0E0F0E0D80112968D919C911397009723
:1041000019F0F8018C01F6CF8D919C9198012E5FEA
:104110003F4F820F931F2091D8043091D904281764
:10412000390769F4309729F41092DB041092DA040D
:1041300002C0138212821093D9040093D804DF9135
:10414000CF911F910F9108958F929F92AF92BF923E
:10415000CF92DF92EF92FF92CF93DF93EC016881D1
:1041600079818A819B81611571058105910521F411
:1041700064E279ED8BE597E02DE133EF41E050E02B
:104180000E94002149015A019B01AC01A7EAB1E458
:104190000E941F216B017C01ACEEB4EFA5019401DC
:1041A0000E942D21DC01CB018C0D9D1DAE1DBF1D7C
:1041B000B7FF03C00197A109B04888839983AA83F8
:1041C000BB83BC01CD019F77DF91CF91FF90EF9032
:1041D000DF90CF90BF90AF909F908F9008950E94F6
:1041E000A420089589E091E00E94A420089560939E
:1041F000090170930A0180930B0190930C010895BB
:10420000052E97FB1EF400940E94172157FD07D03E
:104210000E94322107FC03D04EF40C9417215095D4
:104220004095309521953F4F4F4F5F4F08959095A2
:104230008095709561957F4F8F4F9F4F08950E9495
:104240005421A59F900DB49F900DA49F800D911DAA
:1042500011240895B7FF0C941F210E941F21821B77
:10426000930B0895A1E21A2EAA1BBB1BFD010DC0E2
:10427000AA1FBB1FEE1FFF1FA217B307E407F50716
:1042800020F0A21BB30BE40BF50B661F771F881FF2
:10429000991F1A9469F760957095809590959B0188
:1042A000AC01BD01CF010895A29FB001B39FC00131
:1042B000A39F700D811D1124911DB29F700D811D52
:1042C0001124911D08950E94D72188F09F5798F0DE
:1042D000B92F9927B751B0F0E1F0660F771F881F0B
:1042E000991F1AF0BA95C9F714C0B13091F00E9425
:1042F000F121B1E008950C94F121672F782F8827E0
:10430000B85F39F0B93FCCF3869577956795B3954B
:10431000D9F73EF490958095709561957F4F8F4FBA
:104320009F4F0895E89409C097FB3EF490958095BF
:10433000709561957F4F8F4F9F4F9923A9F0F92F6B
:1043400096E9BB279395F695879577956795B795E9
:10435000F111F8CFFAF4BB0F11F460FF1BC06F5FCF
:104360007F4F8F4F9F4F16C0882311F096E911C0E1
:10437000772321F09EE8872F762F05C0662371F002
:1043800096E8862F70E060E02AF09A95660F771F16
:10439000881FDAF7880F9695879597F9089557FD46
:1043A0009058440F551F59F05F3F71F04795880FA3
:1043B00097FB991F61F09F3F79F08795089512163A
:1043C00013061406551FF2CF4695F1DF08C01616E6
:1043D00017061806991FF1CF869571056105089497
:1043E0000895E894BB2766277727CB0197F90895AE
:1043F0000E940B220C947C220E946E2238F00E94B4
:10440000752220F0952311F00C9465220C946B22F8
:1044100011240C94F2210E94CF2170F3959FC1F3D7
:10442000950F50E0551F629FF001729FBB27F00D62
:10443000B11D639FAA27F00DB11DAA1F649F6627B7
:10444000B00DA11D661F829F2227B00DA11D621F06
:10445000739FB00DA11D621F839FA00D611D221FC0
:10446000749F3327A00D611D231F849F600D211DA4
:10447000822F762F6A2F11249F5750409AF0F1F027
:1044800088234AF0EE0FFF1FBB1F661F771F881F90
:1044900091505040A9F79E3F510580F00C94652241
:1044A0000C94F2215F3FE4F3983ED4F38695779520
:1044B0006795B795F795E7959F5FC1F7FE2B880F36
:1044C000911D9695879597F9089597F99F6780E8CC
:1044D00070E060E008959FEF80EC089500240A9456
:1044E0001616170618060906089500240A941216CF
:1044F0001306140605060895092E0394000C11F402
:10450000882352F0BB0F40F4BF2B11F460FF04C0AE
:104510006F5F7F4F8F4F9F4F0895DB018F939F9366
:104520000E941F21BF91AF91A29F800D911DA39F5B
:10453000900DB29F900D11240895991B79E004C04D
:10454000991F961708F0961B881F7A95C9F78095D2
:10455000089597FB072E16F4009407D077FD09D035
:104560000E94C32207FC05D03EF4909581959F4F91
:104570000895709561957F4F0895EE0FFF1F059088
:10458000F491E02D0994AA1BBB1B51E107C0AA1F9F
:10459000BB1FA617B70710F0A61BB70B881F991FE4
:1045A0005A95A9F780959095BC01CD01089581E0B9
:1045B00090E0F8940C94DC2211E0C2EFD1E004C04A
:1045C000FE010E94BD222196C33FD107C9F7F8948E
:0245D000FFCF1B
:1045D2000100010000DC0480000100000000000076
:1045E2000001107F0D1E021D020D0A004C4F4144B6
:0445F200455200002E
:00000001FF
