:100000000C94F2010C941A020C941A020C941A0229
:100010000C941A020C941A020C941A020C941A02F0
:100020000C941A020C941A020C941A020C94DF031A
:100030000C941A020C941A020C941A020C941A02D0
:100040000C948A030C941A020C941A020C941A024F
:100050000C941A020C941A020C941A020C941A02B0
:100060000C941A020C941A021A09380949096509F4
:100070006E097A097F099309A709B709D409EF091D
:10008000080A56155815611563156515671570151D
:100090007915821591159A15A315AC15050038012F
:1000A000680100001753440016137800161314005B
:1000B0001510200015201000540A03E181867F3EB0
:1000C000186D830F0F0E0183866033186DC3198F6F
:1000D0001803C38E6033186DE330CF1803C39E60DE
:1000E0003630CDE360CF3006C79E7E3E30CDB36064
:1000F000CF300CC6F6603330D9B660CF33CFCCF6F4
:100100006061B0DB1E60CF30D86CE6C061B0DB1E32
:10011000618F19986CC6C063B19B0E330F0FB07816
:10012000C6FF7E1F1B061E0F536F6C6974616972D8
:1001300065000101FF030101F703360132010000F0
:100140000000240027002A000000000025002800ED
:100150002B00050089300802380249786814000035
:10016000450068010000F6E8DBCFC3B8AEA49B925F
:100170008A827B746E68625C57524E4945413E3AB2
:100180003734312E2C29272523210A0A153A4967AD
:100190006E6F7265006D560A0A504C4541534520FA
:1001A0005455524E204F464620004C4F5720424156
:1001B000545445525921200003053F213F12081293
:1001C0000A100A0E1C0E0C1E0C141A14161F161EF2
:1001D000131E1E1B1E1E1F1E3F213F3A2F3A173DA6
:1001E000173F213F181F02040A041F0E04040E1FAC
:1001F0000A1F0A0E0E1F04110E2E252E2F2A2E2640
:100200002929021F02081F08150E04040E150E15D9
:10021000151B151B040604040C0400000000170045
:100220000300031F0A1F16371A1904130A153A0090
:100230000300000E11110E000A040A040E0400301F
:10024000000404040010001804031F111F121F10E3
:100250001D151711151F07041F17151D1F151D014B
:10026000011F1F151F17151F000A00003200040A86
:10027000110A0A0A110A040115020E11171E051EA1
:100280001F150A0E110A1F110E1F15111F05010E51
:10029000111D1F041F111F1108100F1F041B1F1019
:1002A000101F061F1E040F0E110E1F09060E112E21
:1002B0001F051A121509011F011F101F0F180F1F0C
:1002C0000C1F1B041B031C03191513001F1103042F
:1002D00018111F000201022020200001020C121E32
:1002E0001F120C0C12120C121F0C1A14041E0524DF
:1002F0002A1E1F021C141D1020201D1F0814111F70
:10030000101E041E1E021C0C120C3E0A040C123E8F
:100310001E040214160A020F120E101E0E100E1EDC
:10032000081E120C1226281E322A26041E21001F27
:1003300000211E040102013F213F172B1520102030
:100340004C4F4144455200172B16201314000A4EFF
:100350006F2053442063617264206F720A6E6F20B5
:100360004C4F414445522E4845580A0A153A4578A3
:100370006974001D20466C617368696E670A2020ED
:100380006C6F616465722E2E2E0A0A444F4E2754FC
:10039000205455524E204F464621000000000023B5
:1003A00000260029000404040404040404020202D8
:1003B00002020203030303030301020408102040A6
:1003C000800102040810200102040810200000002F
:1003D0000800020100000304070000000000000004
:1003E00000003A1211241FBECFEFD8E0DEBFCDBF10
:1003F00011E0A0E0B1E0E8EEF0E302C005900D925C
:10040000AA31B107D9F723E0AAE1B1E001C01D92FA
:10041000A23BB207E1F711E0C2EFD1E004C021979F
:10042000FE010E945318C13FD107C9F70E9445122F
:100430000C9472180C940000089580E090E00895E8
:10044000833081F028F4813099F08230A1F0089552
:100450008730A9F08830B9F08430D1F480918000E1
:100460008F7D03C0809180008F77809380000895F6
:1004700084B58F7702C084B58F7D84BD0895809147
:10048000B0008F7703C08091B0008F7D8093B00063
:1004900008951F93CF93DF93282F30E0F901E353A2
:1004A000FC4F8491F901E754FC4FD491F901EB55CD
:1004B000FC4FC491CC23C9F0162F81110E94200259
:1004C000EC2FF0E0EE0FFF1FE85BFE4FA591B4911B
:1004D0008FB7F894111105C09C91ED2FE095E92399
:1004E00002C0EC91ED2BEC938FBFDF91CF911F9168
:1004F0000895CF93DF9390E0FC01E754FC4F2491E3
:10050000FC01EB55FC4F8491882361F190E0880F4A
:10051000991FFC01E25CFE4FC591D491FC01E85BA0
:10052000FE4FA591B491611109C09FB7F8948881DD
:10053000209582238883EC912E230BC0623061F4D6
:100540009FB7F8943881822F809583238883EC911C
:100550002E2B2C939FBF06C08FB7F894E8812E2BCB
:1005600028838FBFDF91CF9108951F93CF93DF939F
:10057000182FEB0161E00E947902209711F460E0EE
:1005800004C0CF3FD10539F461E0812FDF91CF91D5
:100590001F910C944902E12FF0E0E353FC4FE491EA
:1005A000E330F9F048F4E130B9F0E230A1F584B578
:1005B000806284BDC8BD34C0E730E9F0E83019F18D
:1005C000E43049F580918000806280938000D09370
:1005D0008B00C0938A0024C084B5806884BDC7BDE9
:1005E0001FC080918000806880938000D093890034
:1005F000C093880015C08091B00080688093B000DF
:10060000C093B3000DC08091B00080628093B000B1
:10061000C093B40005C0C038D1050CF0B5CFAFCF42
:10062000DF91CF911F9108958E3008F08E50877022
:10063000806480937C0080917A00806480937A004B
:1006400080917A0086FDFCCF80917800209179001E
:1006500090E0922B08953FB7F89480911C019091FF
:100660001D01A0911E01B0911F0126B5A89B05C0D8
:100670002F3F19F00196A11DB11D3FBFBA2FA92F21
:10068000982F8827820F911DA11DB11DBC01CD019E
:1006900042E0660F771F881F991F4A95D1F708958A
:1006A0008F929F92AF92BF92CF92DF92EF92FF9282
:1006B0006B017C010E942B034B015C01C114D1042E
:1006C000E104F104F1F00E942B03DC01CB01881955
:1006D0009909AA09BB09883E9340A105B10570F3A9
:1006E00021E0C21AD108E108F10888EE880E83E003
:1006F000981EA11CB11CC114D104E104F10419F726
:10070000DDCFFF90EF90DF90CF90BF90AF909F90A4
:100710008F9008951F920F920FB60F9211242F936E
:100720003F938F939F93AF93BF93809124019091B8
:100730002501A0912601B091270130911B0123E0F2
:10074000230F2D3720F40196A11DB11D05C026E809
:10075000230F0296A11DB11D20931B01809324013C
:1007600090932501A0932601B093270180911C014D
:1007700090911D01A0911E01B0911F010196A11D34
:10078000B11D80931C0190931D01A0931E01B09395
:100790001F01BF91AF919F918F913F912F910F902A
:1007A0000FBE0F901F90189580912803882319F091
:1007B00080912A0301C080E08093B40008951F92C5
:1007C0000F920FB60F9211242F933F934F935F9385
:1007D0006F937F938F939F93AF93BF93EF93FF9309
:1007E00060912903662321F180911A018F5F809324
:1007F0001A01909122018917D8F09091280381E085
:1008000089278093280310921A018091230188235D
:1008100069F08091000193E4899F802D1124895B08
:10082000809300010E94331890932A030E94D403FE
:10083000FF91EF91BF91AF919F918F917F916F91B8
:100840005F914F913F912F910F900FBE0F901F908E
:1008500018951F93CF93DF93C82F162F861721F17A
:10086000862F90E08C1B910963E070E00E943F1896
:10087000D62F611117C060919C0370919D038091E8
:100880009E0390919F0323E030E040E050E00E94FF
:10089000C816672B682B692B29F4C11710F0DFEFFE
:1008A00001C0D1E08D2F8C0FDF91CF911F91089562
:1008B0002F923F924F925F926F927F928F929F9270
:1008C000AF92BF92CF92DF92EF92FF920F931F935E
:1008D000CF93DF9380919B03882309F482C181E049
:1008E000809381031092800310927F031092430340
:1008F0008093990380939A0399EB292E90E0392EE7
:1009000020E6422E21E0522EDD24D394C1E0DCE02B
:100910000E94660A8823E1F3E8E2F1E08491E8EBC3
:10092000F0E0A490F1018490009199030A2C000C4E
:10093000BB081A141B040CF110928203D09383039A
:1009400088E291E00E94C70F80917D03982F990F54
:10095000890F81958D5A8093820380917E03982F11
:10096000990F890F8195835D8093830380919C0308
:1009700084FFA4C084EB90E0A3C01814ECF6482DCB
:1009800041330CF040E33A2DF5E5AF16B1040CF01D
:1009900034E5F090850387E0A80EB11C83E0B594A0
:1009A000A7948A95E1F710E088E291E021E06AEBF4
:1009B00070E0842E440F9908412F50E048155905E6
:1009C0000CF0BACFFB01E4900130B9F4DC0140E84F
:1009D000542F5E2119F05C91522B5C9350E0559599
:1009E00047954115510519F43196E49040E8119668
:1009F0005A2F581B531760F358C001111AC0C22E4A
:100A0000C094FB01DC0140E8542F5E2119F05C9199
:100A10005C215C9350E0559547954115510519F4BB
:100A20003196E49040E811965A2F581B531760F303
:100A30003CC0033019F5722E7094FB01DC0140E8D4
:100A4000C82E6A2E681A5E2D542341F06F245C91E3
:100A500060FE02C0522B01C057215C9350E05595B7
:100A600047954115510519F43196E49040E81196E7
:100A70005A2F5C19531728F3FD2417C0FB01DC0122
:100A800040E85E2D542319F05C9152275C9350E0AE
:100A9000559547954115510519F43196E49040E874
:100AA00011965A2F581B531760F3220F19F48C5AC2
:100AB0009F4F21E01F5F6A0D7B1D7ECF80EB90E092
:100AC0000E94E80F80917D03982F990F890F8195DF
:100AD0008D5A80938203809183038F5F8093830379
:100AE00080915503882319F08CEA90E002C088EACF
:100AF00090E00E94E80F80917D03982F990F890F55
:100B000081958D5A80938203809183038F5F8093B8
:100B1000830384EA90E00E94E80F809141038130D2
:100B200041F5809155038F5F6091560387FD09C0A1
:100B3000082E000C990B70E06F5F7F4F0E943F18EA
:100B4000682F6093550380E00E94FD0E50925E0373
:100B500040925D031092630310926203C0935103AD
:100B600089E0809366031092690310926B031092E0
:100B70006D03809140038130A9F080919B03482F41
:100B800050E060E070E000919C0310919D03209183
:100B90009E0330919F030417150726073707F0F1CE
:100BA0008F3FE1F18FEF80939B0380E00E94FD0E69
:100BB00080E00E94FD0E8CE990E090935E038093AC
:100BC0005D03109263031092620381E080935103EE
:100BD00089E0809366031092690310926B03109270
:100BE0006D0310924303109220018BE08093020169
:100BF00085E080930101DF91CF911F910F91FF90CC
:100C0000EF90DF90CF90BF90AF909F908F907F90AC
:100C10006F905F904F903F902F9008958091420386
:100C2000813009F075CE0E94F60F6ECEFC0164355E
:100C300008F053C0403308F050C090A1742F759550
:100C400075957595262F062E000C330B542F577073
:100C50009230A1F4F901E85DFE4F84E57802E00DE1
:100C6000F11D1124808190E0052E02C09595879595
:100C70000A94E2F78095982F91700AC0933041F45E
:100C800084858170462740954170841303C014C049
:100C9000911112C084E57802200D311D1124F90153
:100CA000E85DFE4F81E090E001C0880F5A95EAF7B9
:100CB00080959081892310C084E57802200D311D34
:100CC0001124F901E85DFE4F81E090E001C0880F3A
:100CD0005A95EAF79081892B80830895DF92EF92ED
:100CE000FF920F931F93CF93DF931F92CDB7DEB781
:100CF0008C01D62EF42EE12CE21654F46E2D6D0DDF
:100D00004F2DC80129830E941606E3942981F4CF50
:100D10000F90DF91CF911F910F91FF90EF90DF9097
:100D200008952F923F924F925F926F927F928F928F
:100D30009F92AF92BF92CF92DF92EF92FF920F936A
:100D40001F93CF93DF93EC016A3019F42D819885BE
:100D5000C3C06D3009F4C6C038847A84D98448A0F1
:100D600083E58D150CF4A1C08FE287150CF49DC0AE
:100D70008C8190E00197389E9001399E300D1124AE
:100D8000C9018D0D911DD7FC9A95181619060CF006
:100D90008CC08D81839DC0011124870D911D77FC2E
:100DA0009A95181619060CF080C05D2CCD2CE62EF5
:100DB000F12CA32C032C000CBB08EC2DED190E2EEE
:100DC000000CFF0B8C8190E0E817F9070CF06CC069
:100DD0000197E817F90779F0E89E9001E99E300D38
:100DE000F89E300D1124E20FF31F8E8D9F8DE80FBA
:100DF000F91F149101C010E0072D672C262D27192B
:100E0000022E000C330B8D8190E0281739070CF06F
:100E100048C010FF1EC081E0381206C0462D6C2D60
:100E2000CE010E94160639C0202E4501800E911C6D
:100E300007FD9A94822D022C000C990B88159905B8
:100E400064F5232D422D652DCE010E946E0623945C
:100E5000F1CF89A198A1891701F188A381E0381207
:100E600006C0462D6C2DCE010E94160615C0202E00
:100E70004501800E911C07FD9A94822D022C000CD6
:100E8000990B8815990544F4232D422D652DCE012B
:100E90000E946E062394F1CF48A216956394030D29
:100EA000ADCFC394530C89CF48A228853C81898556
:100EB000329F800D112489879F81992399F0082EF4
:100EC000000C990B44E550E0239F4019510911246F
:100ED000481759073CF49D818A85299F800D11246C
:100EE0008A87198681E090E0DF91CF911F910F9161
:100EF000FF90EF90DF90CF90BF90AF909F908F903A
:100F00007F906F905F904F903F902F90089542E0B8
:100F1000460F23E0682F89E793E00C946E0644E0C7
:100F2000460F23E0682F89E793E00C946E06462F66
:100F300023E0682F89E793E00C946E06DF92EF922E
:100F4000FF920F931F93CF93DF931F92CDB7DEB71E
:100F50008C01D62EF42EE12CE21654F44E2D4F0DBA
:100F60006D2DC80129830E941606E3942981F4CFD0
:100F70000F90DF91CF911F910F91FF90EF90DF9035
:100F80000895462F23E0682F89E793E00C949E078D
:100F900042E0460F23E0682F89E793E00C949E0718
:100FA00042E0460F62E0680F23E089E793E00C948B
:100FB0009E07CF93DF93C82FD62F0E9497076D2FE0
:100FC0008C2F0E94C1076D2F8C2F0E9487076D2FD9
:100FD0008C2F0E94D0076D2F8C2FDF91CF910C9416
:100FE0008F07462F62E0680F23E089E793E00C94B7
:100FF0009E07CF92DF92EF92FF920F931F93CF93B2
:10100000DF93082F162FF42E47FF02C083E001C0A4
:1010100080E08093990380939A03C1E0C10FEE248E
:10102000E394E00EDC2FCC2E0C2E000CDD088CE0BF
:10103000C80ED11C8D2F0D2E000C990B8C159D0503
:101040004CF428E04D2F6E2D89E793E00E946E0648
:10105000DF5FF0CF81E08093990380939A0328E0CB
:10106000412F6E2D89E793E00E946E0628E04DE047
:10107000410F6E2D89E793E00E946E062CE04C2F05
:10108000602F89E793E00E949E072CE04C2F69E0D7
:10109000600F89E793E00E949E07F7FCE1C1F5FE2F
:1010A00005C083E08093990380939A03F2E0EF2ECA
:1010B000E10ED2E0D00F8F2D8073C5E0C00F8111FB
:1010C0001FC04E2DE4E0EE2EE00E6E2D89E793E07A
:1010D0000E94160623E043E0410F63E0600F89E7BA
:1010E00093E00E946E0625E044E0410F6D2F89E7F2
:1010F00093E00E946E0625E045E0410F6D2F7FC012
:10110000803169F523E04E2D63E0E62EE00E6E2D72
:1011100089E793E00E946E0623E044E0410F6E2DC4
:1011200089E793E00E946E0623E073E0E72EE10E6C
:101130004E2D6D2F89E793E00E949E0723E04E2DF0
:1011400066E0600F89E793E00E949E0724E04E2D41
:1011500064E0600F89E793E00E949E075BC08032E5
:1011600061F54E2D53E0D52ED00E6D2D89E793E01D
:101170000E9416064E2D6C2F89E793E00E941606FA
:1011800025E043E0410F6D2F89E793E00E946E0652
:1011900025E044E0410F6D2F89E793E00E946E0641
:1011A00023E045E0410F6D2D89E793E00E946E0634
:1011B00046E0410F64E0600F29C0803359F54E2DA1
:1011C00094E0E92EE00E6E2D89E793E00E9416066A
:1011D00023E043E0410F33E0D32ED00E6D2D89E79D
:1011E00093E00E946E0625E044E0410F6D2F89E7F1
:1011F00093E00E946E0623E045E0410F6D2D89E7E4
:1012000093E00E946E0646E0410F6E2D89E793E061
:101210000E941606D7E0D10FEF2DEF704E2F50E051
:10122000FA013197ED30F10508F01AC1EC5CFF4F7F
:101230000C94531886E0F82EF00E4D2F6F2D89E791
:1012400093E00E941606D8E0D10F24E04D2F6C2FBA
:1012500089E793E00E949E0767E0600F24E04D2F2E
:1012600089E793E00E949E0749E0410F6F2DABC0D4
:101270006D2F8C2F0E9497076D2F8C2F0E94F107E6
:101280006D2F8C2F0E9487076D2F8C2F0E94C8070F
:1012900010C06D2F8C2F0E9497076D2F8C2F0E94EE
:1012A000F1076D2F8C2F0E9487076D2F8C2F0E94C6
:1012B000D0076D2F8C2FDF91CF911F910F91FF9051
:1012C000EF90DF90CF900C948F076D2F8C2F0E94A2
:1012D000C1076D2F8C2F0E94870715C06D2F8C2F93
:1012E000DF91CF911F910F91FF90EF90DF90CF9002
:1012F0000C94D9076D2F8C2F0E94D9071CC06D2F1D
:101300008C2F0E9497076D2F8C2F0E94F1076D2F55
:101310008C2FDF91CF911F910F91FF90EF90DF9075
:10132000CF900C94D0076D2F8C2F0E94D9076D2F72
:101330008C2F0E94F1076D2F8C2FDF91CF911F9181
:101340000F91FF90EF90DF90CF900C94C8076D2F16
:101350008C2F0E94D9076D2F8C2FDF91CF911F9179
:101360000F91FF90EF90DF90CF900C94F1076D2FCD
:101370008C2F0E9497076D2F8C2F0E94F1076D2FE5
:101380008C2F0E94D0076D2F8C2F0E948F076D2FFE
:101390008C2F0E94C8076D2F8C2F0E94C10763E01D
:1013A000600F25E04D2F50C06D2F8C2F0E94F1074C
:1013B0006D2F8C2F0E94D0076D2F8C2F0E948F07CE
:1013C0004AE0410F6C2F89E793E0DF91CF911F91A5
:1013D0000F91FF90EF90DF90CF900C9416066D2F39
:1013E0008C2F0E9497076D2F8C2F0E94F1076D2F75
:1013F0008C2F0E94C1074AE0410F23E06C2F89E740
:1014000093E00E946E064BE0410F66E0600FDBCF79
:101410006D2F8C2F0E94C1076D2F8C2F0E94C80743
:1014200049E0410F66E0600F89E793E00E941606ED
:10143000095F22E04D2F602F89E793E00E949E070D
:101440004AE0410F22E0602F89E793E0DF91CF91DE
:101450001F910F91FF90EF90DF90CF900C949E071B
:10146000DF91CF911F910F91FF90EF90DF90CF9080
:101470000895CF92DF92EF92FF920F931F93CF9335
:10148000DF936C017A018B01C0E0D0E0CE15DF055F
:1014900089F0D8016D918D01D601ED91FC910190FB
:1014A000F081E02DC6010995892B11F47E0102C05F
:1014B0002196ECCFC701DF91CF911F910F91FF9043
:1014C000EF90DF90CF9008950E946D184F925F9239
:1014D0006F927F928F929F92AF92BF92CF92DF9244
:1014E000EF92FF920F931F93CF93DF9300D000D022
:1014F0001F92CDB7DEB74091AB035091AC03609122
:10150000AD037091AE032FB7F894809124019091B0
:101510002501A0912601B09127012FBF481B590B2F
:101520006A0B7B0B8091AA0390E0A0E0B0E00091F1
:10153000A6031091A7032091A8033091A903841753
:101540009507A607B70730F40115110521053105E8
:1015500009F044C3012B022B032B09F03DC38091FA
:10156000420381508E3FC0F5809141038130C9F51F
:10157000809155038F5F6091560387FD09C0082E47
:10158000000C990B70E06F5F7F4F0E943F18682F2F
:101590006093550387E493E09093B0038093AF0387
:1015A00088E48093B10380E00E94FD0E80E691E024
:1015B00090935E0380935D03109263031092620325
:1015C00081E08093510389E0809366031092690360
:1015D00010926B0310926D038091420381508E3FF5
:1015E00070F480914003813009F0A4C38AE393E052
:1015F0009093B0038093AF0388E48093B10380E0BD
:101600000E942B1080915103882309F4ABC0809174
:1016100065038111A7C080915D0390915E03E09105
:101620006203F0916303EE0FFF1FE80FF91F45916E
:10163000549141155105F1F420916103222331F0B9
:101640001092630310926203FC0112C010925103C6
:1016500080915003882341F080E00E942B10E0919C
:101660006203F09163032DC080E00E94E80E7AC00F
:10167000459154919A01369527953695279540FFC7
:1016800051C0CA01B6E096958795BA95E1F78F717A
:10169000952F96959695969590512F70223071F1D1
:1016A000F8F4211117C08B3008F08AE080936603AC
:1016B000E0916203F09163033196F0936303E0934A
:1016C0006203EE0FFF1F80915D0390915E03E80FB0
:1016D000F91FCECF213061F760E00E949510E8CF6E
:1016E0002330B1F0243021F720915403829F802DC4
:1016F000112480936D0390936E03DACF20915403ED
:10170000829F802D11248093690390936A03D0CF28
:1017100020915403829F802D112480936B0390931A
:101720006C03C6CF2F732093640380915403859F6D
:10173000802D112480936503109275031092740319
:101740001092730381E080936703809328031092C3
:101750006803809162039091630301969093630301
:101760008093620380916703882309F4EEC080911F
:101770006503811103C00E94E80EE7C08150809389
:10178000650380917503811146C0209173033091E8
:1017900074032F5F3F4FC901880F991FE0916F03BA
:1017A000F0917003E80FF91F65917491862F87708F
:1017B00080937603AB0163E0569547956A95E1F710
:1017C000CA0196958795972F96959695909377034E
:1017D0008F7390915403899F802D112480937503FA
:1017E00041704093230130937403209373038091DD
:1017F000710390E02817390770F0209172032223BB
:1018000039F0821B9109909374038093730303C092
:1018100080E00E94E80E80917503815080937503EB
:101820008091680321E0280F2093680340916403AE
:1018300030917703340F80915C03380F309352035B
:1018400060916B03662371F070E0822F022E000C12
:10185000990B0E943F1880916C03869F300D1124D4
:10186000309352038091520390E0849664E270E0DA
:101870000E943F18809352033091660330935303C4
:1018800060916903662381F0062E000C770B822F8E
:10189000022E000C990B0E943F1880916A03869FCC
:1018A000300D11243093530360916D036623A1F032
:1018B000822F220F990B70E00E943F18CB0162E04B
:1018C00070E00E943F1820916E0390915303289F6F
:1018D000900D112490935303809153034F3341F0A3
:1018E0008A300CF089E087FD80E08093530302C0CA
:1018F00010925303F894E0915203F0E0EA59FE4F3E
:10190000E491E09322013091530320917803320354
:1019100090011124409176034203C001439F900D32
:1019200011240090550302C0880F991F0A94E2F712
:1019300097FF02C081589F4F880F892F881F990BEE
:101940008093290380932A0378948091B10388239C
:1019500009F497C08C3020F49CE0D92ED81A01C02D
:10196000D12C81E0809381031092990310929A0305
:1019700010917E0383E0810F3D2D311B335D032FDA
:10198000E82E880FFF08E30EF11C37FDFA94802F34
:10199000002E000C990B8E159F055CF42EE4402F51
:1019A00063E089E793E03D830E946E060F5F3D810F
:1019B000EECF145003E0030F212F41E0602F80E5AC
:1019C0000E944E11212F42E0602F83E00E944E11B1
:1019D00081E08093990380939A0300917E038D2D7B
:1019E000801B3DE2F32EF80E2EE44F2D63E089E7D5
:1019F00093E00E946E0613E0100F1F0D4FEF410F92
:101A00002EE463E089E793E00E946E06035033E022
:101A1000F30E202F4F2D60E089E793E00E949E0790
:101A2000202F4F2D63E589E793E00E949E0741E058
:101A30006F2D83E00E94D01042E06F2D80E50E9460
:101A4000D010145044E0612F80E50E94D01048E08F
:101A5000612F83E00E94D01084E080938203809104
:101A60007E03D81A8D2D815D809383038091AF030F
:101A70009091B0030E94C70F8091B1038150809371
:101A8000B1038091470390914803892B09F47CC0EE
:101A900011E01093990310929A0390917D0385E5CC
:101AA000891B8093820310928303809144038130C9
:101AB00009F44DC030F090914303853008F05FC0C9
:101AC0005AC080E00E94FD0E10938103E8EBF1E024
:101AD000E491EF5FE0937D03E9EBF1E0E491EF5FE8
:101AE000E0937E038AEB91E09093980380939703B1
:101AF000109248031092470310927F0318EA0E9445
:101B0000660A8823E1F38AEA91E00E94C70F609198
:101B100045037091460380E090E04AE00E94B111D5
:101B200085E991E00E94C70F612F62956F7070E0A8
:101B300080E090E04AE00E94B1118AE891E00E94C2
:101B4000C70F80914003813009F0FAC01DC0809119
:101B50009C0390919D03A0919E03B0919F038F7071
:101B60009927AA27BB270897A105B10510F487E09C
:101B700009C088E707C0992339F08B5F03C0992318
:101B800019F08FE20E94F2110E94870F80917F036B
:101B900081110EC088EF91E0E8E2F1E0DF019C01E5
:101BA0001D9221503040E1F710928203109283037E
:101BB0000E942B036093A6037093A7038093A8034E
:101BC0009093A9032091A2033091A303621B730B8E
:101BD0007093A1036093A00380E0CCC02FB7F8946A
:101BE0008091240190912501A0912601B0912701B7
:101BF0002FBF2091AA03820F911DA11DB11D8093BB
:101C0000AB039093AC03A093AD03B093AE0380916C
:101C10009C0390919D03A0919E03B0919F03019618
:101C2000A11DB11D80939C0390939D03A0939E03DF
:101C3000B0939F031092A6031092A7031092A803DB
:101C40001092A9030E942B036093A2037093A30335
:101C50008093A4039093A50380912C0390912D036E
:101C60002FE0289F8001299F100D112485E10E94FB
:101C70001403800F911F24E0969587952A95E1F72C
:101C800090932D0380932C0320912B03222309F49E
:101C90004BC060912F03262F30E040E050E02983B5
:101CA0003A834B835C83C0903003D12CE12CF12C20
:101CB00040913303509134034A01A12CB12C20915F
:101CC0003103309132032901612C712C8217930763
:101CD00028F09C014817590708F49A01C901A0E0AF
:101CE000B0E09C01AD012419350946095709698105
:101CF0007A818B819C816C197D098E099F090E94D4
:101D00002318A501940124193509460957090E9491
:101D10009E16C20ED31EE41EF51EC0922E036C2D1D
:101D200070E085E00E94B5020E94140F0E94FD1130
:101D300081E020C0893209F062CC0E94F60F5FCCAE
:101D4000115009F0DCCE60E070E085E00E94B50241
:101D500083B7817F846083BF83B7816083BF83B78C
:101D6000816083BF889583B78E7F83BF83B78E7F63
:101D700083BFC5CE0F900F900F900F900F90DF9103
:101D8000CF911F910F91FF90EF90DF90CF90BF9078
:101D9000AF909F908F907F906F905F904F9008953D
:101DA000BC01009791F0FC0101900020E9F7319708
:101DB000AF01481B590BE0917903F0917A0302803F
:101DC000F381E02D89E793E0099480E090E00895A5
:101DD000811112C010926703109265031092740370
:101DE000109273031092680310922A031092290331
:101DF000109228030C94D4030895811114C01092FA
:101E0000670310926503109274031092730310928B
:101E1000680310922A0310922903109228030E944B
:101E2000D403109251030895CF92DF92EF92FF9264
:101E30000F931F93CF93DF93C5E3D3E00CE313E03D
:101E4000FF24FA9497E0E92EE00E62E088810E9478
:101E50007902288130E0F901E353FC4F8491F901C4
:101E6000E754FC4FC490F901EB55FC4FD490DD20B2
:101E700071F081110E942002ED2DF0E0EE0FFF1FA6
:101E8000E556FC4FA591B491EC91EC21B1F4F80129
:101E900080818F5F808360E088810E947902219633
:101EA0000F5F1F4FE012D1CFDF91CF911F910F91A4
:101EB000FF90EF90DF90CF900895F8018081882304
:101EC00071F3F8018F3F11F41082E5CFF082E3CF78
:101ED000CF93C82FF89460E0809188030E94490254
:101EE0008091890318161CF460E00E944902CEBD5F
:101EF00000000DB407FEFDCF8EB580918903181642
:101F00001CF461E00E9449027894CF9108950F93E8
:101F10001F93CF93809185038F5F8093850308E2A1
:101F200011E0C0E08C2F80640E94680F80E80E945E
:101F3000680F61E0809188030E94490280918903C3
:101F400018161CF460E00E94490280E090E0F8015D
:101F5000E80FF91F20812EBD00000DB407FEFDCF54
:101F60002EB501968435910591F780918903181655
:101F70001CF461E00E944902CF5F0C5A1F4FC6302B
:101F800089F680E4CF911F910F910C94680F0F9305
:101F90001F93CF93DF938C01C0E0D0E0F801EC0FEA
:101FA000FD1F6491662371F0E0917903F0917A034B
:101FB0000190F081E02D89E793E00995892B11F0DC
:101FC0002196ECCFCE01DF91CF911F910F91089513
:101FD000CF93DF930E94C70FEC018FE091E00E9446
:101FE000D00E8C0F9D1FDF91CF91089588EF91E067
:101FF000E8E2F1E0DF019C011D9221503040E1F761
:10200000109282031092830383E793E00E94C70F2C
:102010000E94870F8CB583608CBD8DB58E7F8DBD82
:1020200082E191E0EEEFFFE3099510927F038EE4E9
:1020300093E00E94E80F0E94870F0E94140F809186
:102040004003813039F062E370E080E090E00E946C
:102050005003F3CF0895AF92BF92CF92DF92EF92E9
:10206000FF920F931F93CF93DF93C82ED12CE601DD
:10207000C55DDC4F9DA1992309F44CC07E019FEF03
:10208000E91AF90AF70195A1911144C09EA58601AC
:10209000000F111F055D1C4FF80134A525A5E32F86
:1020A000F22FE90FF11DE90FF11D259134912F3F1A
:1020B000FFEF3F0711F41DA22DC039ABF601EE0F63
:1020C000FF1FEB5CFC4F3327220F331F05A0F6A147
:1020D000E02DE20FF31FA590B490811117C00E946C
:1020E000FD0EF801B3AAA2AAF601EE0FFF1FE35CF2
:1020F000FC4F16A215A281E0F70185A389E08BAF02
:102100001EAEFE017B9615A2329615A229968DA1D0
:102110008F5F8DA3DF91CF911F910F91FF90EF9073
:10212000DF90CF90BF90AF90089570E0DB01AA0FD1
:10213000BB1FA55DBC4FD4962C91D497D5969C918E
:10214000D597E22FF92FE80FF11DE80FF11D25912A
:1021500034915F9696963C932E939597F9018591CD
:10216000949190915403989F802D1124655D7C4F2C
:10217000FB01B19685A3F901A591B4914B2F50E0D5
:10218000E82FF0E04E175F0720F4F9012591349114
:10219000832FFB01B296899F802D112485A308957A
:1021A000AF92BF92CF92DF92EF92FF920F931F9365
:1021B000CF93DF93182F062FC1E0D3E08AEFD82EFC
:1021C0009EEFE92E842F8470C82E842F8270B82E43
:1021D000842F8870A82E4170F42E8C2F880F8F5F6B
:1021E000E80ECC2081F04D2F400F6C2F610F89E756
:1021F00093E00E9416064C2F400F6D2F610F89E768
:1022000093E00E941606BB2081F0402F4D1B6C2FDF
:10221000610F89E793E00E941606402F4C1B6D2F3B
:10222000610F89E793E00E941606AA2081F04C2FE7
:10223000400F612F6D1B89E793E00E9416064D2F1A
:10224000400F612F6C1B89E793E00E941606FF2068
:1022500081F0402F4C1B612F6D1B89E793E00E949A
:102260001606402F4D1B612F6C1B89E793E00E94DF
:102270001606CD1744F4E7FC04C0D150D394D39490
:10228000ED0CCF5FAACFDF91CF911F910F91FF90FF
:10229000EF90DF90CF90BF90AF9008959F92AF9254
:1022A000BF92CF92DF92EF92FF920F931F93CF9343
:1022B000DF93F82EE62EB22E03E0020FD0E0C3E04B
:1022C0008AEFC82E1EEF842F8170982EAA24A39423
:1022D000A20E4270D42EDF5F802F8B19180F992029
:1022E000A1F02C2F220F2A0D4E2D4C1B6D2F6F0DA0
:1022F00089E793E00E949E07202F4E2D4D1B6C2FE7
:102300006F0D89E793E00E949E07DD20A1F02C2F3E
:10231000220F2A0D4E2D4C1B6F2D6D1B89E793E06C
:102320000E949E07202F4E2D4D1B6F2D6C1B89E7A1
:1023300093E00E949E07DC1744F417FD04C0C150CF
:10234000C394C3941C0D0E5FC6CFDF91CF911F9134
:102350000F91FF90EF90DF90CF90BF90AF909F9044
:1023600008958F929F92AF92BF920F931F93CF9336
:10237000DF93CDB7DEB7A1970FB6F894DEBF0FBEDF
:10238000CDBF19A2423008F44AE08E010F5D1F4F05
:10239000842E912CA12CB12CA50194010E94C81669
:1023A000E62FB901CA0101501109EA3014F4E05DC9
:1023B00001C0E95CD801EC93232B242B252B61F77A
:1023C000C8010E94D00EA1960FB6F894DEBF0FBED2
:1023D000CDBFDF91CF911F910F91BF90AF909F9094
:1023E0008F900895E0917903F0917A030190F08144
:1023F000E02D682F89E793E009948091470390913D
:102400004803892BB1F180914F038F7169F584E105
:102410000E941403BC01990F880B990B0E942A1784
:1024200026EE3FE34EEC50E40E948E170E94F91610
:102430009B017093460360934503672B91F084E002
:1024400080934403E7E4F3E080E041915191241745
:10245000350718F48093440308958F5F8430A9F7FB
:1024600003C08FEF8093440380914F038F5F80936D
:102470004F03089510927C0310927B0387E091E054
:1024800090937A03809379030895789484B5826059
:1024900084BD84B5816084BD85B5826085BD85B508
:1024A000816085BD80916E00816080936E00109286
:1024B0008100809181008260809381008091810001
:1024C0008160809381008091800081608093800092
:1024D0008091B10084608093B1008091B0008160F0
:1024E0008093B00080917A00846080937A0080911C
:1024F0007A00826080937A0080917A008160809374
:102500007A0080917A00806880937A001092C100EE
:1025100082E38093AA0381E090E0A0E0B0E08093A2
:10252000A6039093A703A093A803B093A9038FEFEA
:1025300080939B03E0E8F7E7259134912130304CFC
:1025400009F049C0E6E9F7E7E491E0938403E7E99D
:10255000F7E7E491E0932F03E8E9F7E7E491E093EC
:102560003003E9E9F7E785919491909332038093E2
:102570003103EBE9F7E785919491909334038093CD
:10258000330388E080935603EEE9F7E7E491E093A4
:102590005503EFE9F7E7E491E0939B03E0EAF7E7FF
:1025A000859194919093480380934703E2EAF7E77B
:1025B0008591949190934A0380934903E4EAF7E765
:1025C0008591949190934C0380934B03E6EAF7E74F
:1025D000859194912CC09CE39093840310922F03D7
:1025E0008093300380E293E0909332038093310331
:1025F00084ED93E0909334038093330388E08093D9
:102600005603809355038CEA9DE090934803809392
:1026100047038EED9DE090934A038093490384E73E
:102620009EE090934C0380934B038CE39FE0909348
:102630004E0380934D03C1E0C0932B036FEF70E016
:1026400085E00E94B50288E08093350389E080939D
:10265000360387E08093370386E080933803D4E025
:10266000D093390382E080933A0381E180933B0366
:102670000E94140F8CE39FE09093460380934503E0
:10268000D0934403C0934F038BE0809387038DE086
:102690008093860380E1809388038EE080938A0391
:1026A0008FE080938903C0938103C09399031092B4
:1026B0009A03C0938003E8EBF1E0E491EF5FE093CD
:1026C0007D03E9EBF1E0E491EF5FE0937E038AEBB9
:1026D00091E09093980380939703CFB7F8948091FB
:1026E0002101811127C0EFEAF3E08491E3ECF3E0EC
:1026F0009491E82FF0E0EE0FFF1FE25CFE4FA591F2
:10270000B491EC91E92321F461E08AE00E9449024E
:1027100061E08AE00E9479028CB580618CBD8CB545
:1027200080648CBD61E08DE00E94790261E08BE005
:102730000E947902809121018F5F80932101CFBF98
:102740008CB58F7D8CBD8CB58C7F81608CBD8DB53B
:1027500081608DBD8CB58C608CBD61E080918703FC
:102760000E94790261E0809186030E94790261E013
:10277000809188030E94790280918A0318161CF4C4
:1027800061E00E9479028091890318161CF461E0CF
:102790000E94790280918A03181674F460E00E9406
:1027A00049026AE070E080E090E00E94500361E03E
:1027B00080918A030E94490280918603082E000CB2
:1027C000990BFC01EB55FC4FE491F0E0EE0FFF1F7D
:1027D000E85BFE4F2591349130938E0320938D0357
:1027E000FC01E754FC4FE491E0939403809187034C
:1027F000082E000C990BFC01EB55FC4FE491F0E026
:10280000EE0FFF1FE85BFE4F2591349130938C0350
:1028100020938B03FC01E754FC4FE491E093930376
:1028200080918903082E000C990BFC01EB55FC4F9D
:10283000E491F0E0EE0FFF1FE85BFE4F259134912D
:102840003093900320938F03FC01E754FC4FE491F5
:10285000E093950380918803082E000C990BFC01EE
:10286000EB55FC4FE491F0E0EE0FFF1FE85BFE4FED
:10287000259134913093920320939103FC01E75406
:10288000FC4FE491E093960381E20E94680F84E19B
:102890000E94680F8091840387FF03C08FE78093B5
:1028A00084038091840380680E94680F80E20E9404
:1028B000680F8CE00E94680F0E94870FC1E0C093F0
:1028C000540384E0809378038AE391E0909360035B
:1028D00080935F0360E080E00E94951061E070E00B
:1028E00083E00E94B5028091B100887F816080936F
:1028F000B100F8941092800010928100109285002F
:102900001092840088E191E0909389008093880080
:102910008091810088608093810080918100816036
:102920008093810080916F00826080936F00789423
:102930000E94FD1180914103813019F410925503DA
:102940001CC0809144038823C9F380E00E94FD0EDF
:1029500082E591E090935E0380935D0310926303A0
:1029600010926203C093510389E080936603109232
:10297000690310926B0310926D030E94580430E0BB
:10298000E32E30E0F32E01E00E94660A882309F46A
:10299000C1C180914203813009F4C3C180913E03DB
:1029A000813049F480912001853029F08C3019F074
:1029B0008F5F8093200180913C03813049F48091A6
:1029C0002001882329F0863019F08150809320015E
:1029D00080913F03813041F480912001823008F0E2
:1029E000A3C18A5F8093200180913D03813041F42F
:1029F00080912001883008F49CC187508093200189
:102A000041E161E081E00E94F90742E261E08DE08E
:102A10000E94F90742E261E08FE00E94F90742E27A
:102A200061E081E10E94F90743E061E085E20E94F4
:102A3000F90744E161E081E30E94F90745E261E0C2
:102A40008DE30E94F90746E361E089E40E94F907FB
:102A500011E0C12CD12CC0E0D0E027E0B22EBC0C9C
:102A60006C2F4B2D80E1C89F400D1124CC16DD0644
:102A700009F04068660F6F5E812F0E94F90721966A
:102A8000CC16DD066CF78FEFC81AD80A145F15351F
:102A900011F7E09120018E2F90E08D30910508F024
:102AA0006BC0FC01EF5BFF4F0C9453186BE001C04F
:102AB0006BE1809102010E9429048093020165E08C
:102AC00029C06EE105C06AE203C066E301C062E4AA
:102AD000809102010E9429048093020165E044C0B4
:102AE0006BE0809102010E9429048093020165E15C
:102AF00011C067E1809102010E94290480930201C4
:102B000067E108C063E2809102010E94290480937A
:102B1000020169E1809101010E9429048093010171
:102B20002BC06EE1809102010E9429048093020172
:102B30006BE11AC06AE2809102010E94290480932D
:102B400002016DE111C066E3809102010E94290437
:102B5000809302016FE108C062E4809102010E944B
:102B600029048093020161E2809101010E942904FD
:102B70008093010181E001C080E0C0910101D0910A
:102B8000020113E01D0F96E0892E8C0EC12CD12C72
:102B9000882309F45BC00093990300939A03AC2E39
:102BA000AC0C912E9C0C4A2D692D89E793E00E9474
:102BB0001606B82CBC184B2D692D89E793E00E94AE
:102BC00016061092990310929A032C2D4A2D612F0C
:102BD00089E793E00E946E062C2D4B2D612F89E72B
:102BE00093E00E946E069FEFC91AD90A84E0C816C6
:102BF000D10489F60093990300939A0362E06D0F64
:102C000027E04C2F89E793E00E949E0742E04C0F9B
:102C100022E06D2F89E793E00E946E0644E04C0F9E
:102C200022E06D2F89E793E00E946E06CD5F4C2F66
:102C30006D2F89E793E00E94160610929903109277
:102C40009A0361E06D0F22E04C2F60C0009399035E
:102C500000939A039C2E9C0C492D612F89E793E0E9
:102C60000E941606A82CAC184A2D612F89E793E024
:102C70000E9416061092990310929A03BB24B394F3
:102C8000B10E2C2D492D6B2D89E793E00E946E0625
:102C90002C2D4A2D6B2D89E793E00E946E069FEF45
:102CA000C91AD90A115084E0C816D10479F60093E4
:102CB000990300939A0314E01D0F27E04C2F612F16
:102CC00089E793E00E949E0785E0D82EDD0E42E062
:102CD0004C0F22E06D2D89E793E00E946E0644E0E0
:102CE0004C0F22E06D2D89E793E00E946E06CD5FC8
:102CF00066E06D0F4C2F89E793E00E941606109254
:102D0000990310929A0322E04C2F612F89E793E0F8
:102D10000E946E06E114F10409F436CE0E94000010
:102D200033CE0E9458043ACE863008F05DCE895FDB
:102D300059CE863008F464CE865060CE052E97FBBF
:102D40001EF400940E94B51657FD07D00E94C816C5
:102D500007FC03D04EF40C94B51650954095309571
:102D600021953F4F4F4F5F4F0895909580957095F7
:102D700061957F4F8F4F9F4F08950E94EA16A59F40
:102D8000900DB49F900DA49F800D911D1124089566
:102D9000A1E21A2EAA1BBB1BFD010DC0AA1FBB1F5F
:102DA000EE1FFF1FA217B307E407F50720F0A21BD1
:102DB000B30BE40BF50B661F771F881F991F1A943E
:102DC00069F760957095809590959B01AC01BD0168
:102DD000CF010895A29FB001B39FC001A39F700DC2
:102DE000811D1124911DB29F700D811D1124911D13
:102DF00008950E946D1788F09F5798F0B92F992772
:102E0000B751B0F0E1F0660F771F881F991F1AF0D5
:102E1000BA95C9F714C0B13091F00E948717B1E09C
:102E200008950C948717672F782F8827B85F39F09B
:102E3000B93FCCF3869577956795B395D9F73EF46E
:102E400090958095709561957F4F8F4F9F4F089516
:102E5000E89409C097FB3EF4909580957095619534
:102E60007F4F8F4F9F4F9923A9F0F92F96E9BB27EA
:102E70009395F695879577956795B795F111F8CF66
:102E8000FAF4BB0F11F460FF1BC06F5F7F4F8F4FD1
:102E90009F4F16C0882311F096E911C0772321F0C7
:102EA0009EE8872F762F05C0662371F096E8862F5F
:102EB00070E060E02AF09A95660F771F881FDAF7B6
:102EC000880F9695879597F9089557FD9058440F68
:102ED000551F59F05F3F71F04795880F97FB991F79
:102EE00061F09F3F79F08795089512161306140636
:102EF000551FF2CF4695F1DF08C0161617061806C3
:102F0000991FF1CF86957105610508940895E8949D
:102F1000BB2766277727CB0197F908950E94A11751
:102F20000C9412180E94041838F00E940B1820F01C
:102F3000952311F00C94FB170C94011811240C9498
:102F400088170E94651770F3959FC1F3950F50E0A5
:102F5000551F629FF001729FBB27F00DB11D639F4B
:102F6000AA27F00DB11DAA1F649F6627B00DA11DF1
:102F7000661F829F2227B00DA11D621F739FB00D97
:102F8000A11D621F839FA00D611D221F749F332707
:102F9000A00D611D231F849F600D211D822F762FA0
:102FA0006A2F11249F5750409AF0F1F088234AF07D
:102FB000EE0FFF1FBB1F661F771F881F91505040E9
:102FC000A9F79E3F510580F00C94FB170C948817CD
:102FD0005F3FE4F3983ED4F3869577956795B79570
:102FE000F795E7959F5FC1F7FE2B880F911D96958A
:102FF000879597F9089597F99F6780E870E060E0FA
:1030000008959FEF80EC089500240A941616170681
:1030100018060906089500240A94121613061406C9
:1030200005060895092E0394000C11F4882352F02C
:10303000BB0F40F4BF2B11F460FF04C06F5F7F4FE4
:103040008F4F9F4F0895DB018F939F930E94BD1672
:10305000BF91AF91A29F800D911DA39F900DB29F34
:10306000900D11240895991B79E004C0991F9617BB
:1030700008F0961B881F7A95C9F78095089597FBED
:10308000072E16F4009407D077FD09D00E94591836
:1030900007FC05D03EF4909581959F4F089570955B
:1030A00061957F4F0895EE0FFF1F0590F491E02D7D
:1030B0000994AA1BBB1B51E107C0AA1FBB1FA6177F
:1030C000B70710F0A61BB70B881F991F5A95A9F7D1
:1030D00080959095BC01CD01089581E090E0F89431
:0830E0000C947218F894FFCF64
:1030E80001050B000000009106390A1D021C020DA3
:0A30F8000A004C4F4144455200000D
:00000001FF
