:100000000C94F3010C941B020C941B020C941B0225
:100010000C941B020C941B020C941B020C941B02EC
:100020000C941B020C941B020C941B020C94570999
:100030000C941B020C941B020C941B020C941B02CC
:100040000C9402090C941B020C941B020C941B02CE
:100050000C941B020C941B020C941B020C941B02AC
:100060000C941B020C941B02A71AA91AC61AC81AD0
:10007000CA1ACC1ADC1ADC1ADC1ADC1ADC1ADC1AF2
:10008000DC1AAB0BC80BD70BED0BF30BF90B030C06
:10009000110C1F0C290C440C590C700C0101FF03AE
:1000A0000101F703A0009C000000000024002700CD
:1000B0002A0000000000250028002B0005008930E0
:1000C0000802380249786814000005003801680108
:1000D000000017534400161378001613140015106F
:1000E000200015201000540A03E181867F3E186D20
:1000F000830F0F0E0183866033186DC3198F1803A9
:10010000C38E6033186DE330CF1803C39E60363062
:10011000CDE360CF3006C79E7E3E30CDB360CF309A
:100120000CC6F6603330D9B660CF33CFCCF6606101
:10013000B0DB1E60CF30D86CE6C061B0DB1E618FD3
:1001400019986CC6C063B19B0E330F0FB078C6FF11
:100150007E1F1B061E0F536F6C6974616972650008
:10016000450068010000F6E8DBCFC3B8AEA49B925F
:100170008A827B746E68625C57524E4945413E3AB2
:100180003734312E2C29272523210A0A153A4967AD
:100190006E6F7265006D560A0A504C4541534520FA
:1001A0005455524E204F464620004C4F5720424156
:1001B000545445525921200003053F213F12081293
:1001C0000A100A0E1C0E0C1E0C141A14161F161EF2
:1001D000131E1E1B1E1E1F1E3F213F3A2F3A173DA6
:1001E000173F213F181F02040A041F0E04040E1FAC
:1001F0000A1F0A0E0E1F04110E2E252E2F2A2E2640
:100200002929021F02081F08150E04040E150E15D9
:10021000151B151B040604040C0400000000170045
:100220000300031F0A1F16371A1904130A153A0090
:100230000300000E11110E000A040A040E0400301F
:10024000000404040010001804031F111F121F10E3
:100250001D151711151F07041F17151D1F151D014B
:10026000011F1F151F17151F000A00003200040A86
:10027000110A0A0A110A040115020E11171E051EA1
:100280001F150A0E110A1F110E1F15111F05010E51
:10029000111D1F041F111F1108100F1F041B1F1019
:1002A000101F061F1E040F0E110E1F09060E112E21
:1002B0001F051A121509011F011F101F0F180F1F0C
:1002C0000C1F1B041B031C03191513001F1103042F
:1002D00018111F000201022020200001020C121E32
:1002E0001F120C0C12120C121F0C1A14041E0524DF
:1002F0002A1E1F021C141D1020201D1F0814111F70
:10030000101E041E1E021C0C120C3E0A040C123E8F
:100310001E040214160A020F120E101E0E100E1EDC
:10032000081E120C1226281E322A26041E21001F27
:1003300000211E040102013F213F172B1520102030
:100340004C4F4144455200172B16201314000A4EFF
:100350006F2053442063617264206F720A6E6F20B5
:100360004C4F414445522E4845580A0A153A4578A3
:100370006974001D20466C617368696E670A2020ED
:100380006C6F616465722E2E2E0A0A444F4E2754FC
:10039000205455524E204F464621000000000023B5
:1003A00000260029000404040404040404020202D8
:1003B00002020203030303030301020408102040A6
:1003C000800102040810200102040810200000002F
:1003D0000800020100000304070000000000000004
:1003E0000000961D6C1D11241FBECFEFD8E0DEBFAC
:1003F000CDBF11E0A0E0B1E0E4ECF2E402C0059072
:100400000D92A432B107D9F724E0A4E2B1E001C013
:100410001D92A23DB207E1F711E0C2EFD1E004C0A6
:100420002197FE010E943621C13FD107C9F70E94E2
:100430009F140C9455210C940000089580E090E0E6
:100440000895FC01643508F053C0403308F050C0F3
:1004500090A1742F759575957595262F062E000C15
:10046000330B542F57709230A1F4F901E35CFD4F28
:1004700084E57802E00DF11D1124808190E0052EC5
:1004800002C0959587950A94E2F78095982F917010
:100490000AC0933041F484858170462740954170AD
:1004A000841303C014C0911112C084E57802200D9A
:1004B000311D1124F901E35CFD4F81E090E001C0A2
:1004C000880F5A95EAF780959081892310C084E5BA
:1004D0007802200D311D1124F901E35CFD4F81E00C
:1004E00090E001C0880F5A95EAF79081892B8083AC
:1004F00008950F931F93CF93DF93082FC62F41309A
:10050000510509F449C00CF5452B09F0ADC0D2E006
:10051000D80F462F6D2F8EE894E00E94210241E013
:100520004C0F61E0600F23E08EE894E00E94A10987
:1005300042E04C0F25E0602F8EE894E00E94A10974
:1005400043E04C0F25E0602F80C04230510509F494
:1005500050C04330510509F087C0D2E0D80F462F74
:100560006D2F8EE894E00E94210211E0100F41E00F
:100570004C0F23E0612F8EE894E00E94A10942E035
:100580004C0F25E0602F8EE894E00E94A10943E023
:100590004C0F23E0612F59C0D1E0D80F23E0462F44
:1005A0006D2F8EE894E00E94A10942E04C0F23E0F9
:1005B0006D2F8EE894E00E94A109CF5F23E04C2FBD
:1005C000602F8EE894E00E94D00A64E0600F23E080
:1005D0004C2F8EE894E00E94D00A62E0600F24E085
:1005E0004C2F8EE894E0DF91CF911F910F910C94E6
:1005F000D00AD1E0D80F462F6D2F8EE894E00E94EC
:10060000210263E0600F4C2F8EE894E00E942102EB
:1006100041E04C0F25E0602F8EE894E00E94A10994
:1006200042E04C0F25E0602F8EE894E00E94A10983
:1006300043E04C0F23E06D2F8EE894E00E94A10967
:1006400044E04C0F62E0600F07C08EE894E00E9427
:10065000A10944E04C0F6D2F8EE894E0DF91CF911B
:100660001F910F910C942102DF91CF911F910F9157
:100670000895DC0116969C911697992359F01396CC
:10068000ED91FC911497915016969C93E90FF11DF2
:100690008081089581E00895DC0116962C911697CB
:1006A00030E0621773075CF4261B370B1396ED914D
:1006B000FC911497E20FF31F31978081089582E235
:1006C0000895FC0126818581281748F4838194814F
:1006D00031E0320F3683FC01E20FF11D6083089593
:1006E000FC0183819481009711F00C94851E08957C
:1006F0000F931F93CF93DF938C01FC0116826583C8
:10070000C62FD0E0CE010E94F01DFC01C80FD91FFA
:1007100021E0EC17FD0711F02193FBCFF801948342
:100720008383DF91CF911F910F910895FC019081F8
:1007300097FF02C09F7701C0906890830895EF9261
:10074000FF920F931F93CF93DF931F92CDB7DEB726
:100750000E946E0B0E94341181E090E090930101A1
:10076000809300011092240100E010E0C8018E5235
:100770009E4F7C01FC018681882371F0C7010E9495
:100780003903898387FF04C0CE0101960E94960336
:100790006981C7010E946103095F1F4F0133110581
:1007A00029F70F90DF91CF911F910F91FF90EF905C
:1007B00008952F923F924F925F926F927F928F9205
:1007C0009F92AF92BF92CF92DF92EF92FF920F93E0
:1007D0001F93CF93DF93CDB7DEB727970FB6F8946B
:1007E000DEBF0FBECDBF8091B004882309F487C15E
:1007F00081E08093960410929504109294041092D4
:1008000058048093AE048093AF0490E6292E91E0C3
:10081000392EBB24B394CC24C3941CE00E94970CC3
:100820008823E1F3E6E5F1E08491E6EEF0E08490E0
:10083000E7EEF0E04490F090AE04082C000C99082C
:10084000181419040CF1109297041093980486E57B
:1008500091E00E942C1280919204982F990F890F99
:1008600081958D5A8093970480919304982F990FC6
:10087000890F8195835D809398048091B10484FFF2
:10088000A7C082EE90E0A6C01414ECF6442D4133CC
:100890000CF040E3382DF5E58F1691040CF034E5AB
:1008A000E0909A0487E0880E911C83E095948794E9
:1008B0008A95E1F700E08DE392E021E068EE70E0D8
:1008C000442E440F5508402F50E0441555050CF0B8
:1008D000BACFFB01D490F1E0FF1218C0FB01DC019C
:1008E00040E8542F5D2119F05C91522B5C9350E04D
:1008F000559547954115510519F43196D49040E826
:1009000011965A2F581B531760F359C0F1101AC093
:10091000A22EA094FB01DC0140E8542F5D2119F0C8
:100920005C915A215C9350E05595479541155105CE
:1009300019F43196D49040E811965A2F581B53174A
:1009400060F33DC043E0F41223C0722E7094FB01AB
:10095000DC0140E8A82E6A2E681A542F5D2141F070
:100960006E245C9160FE02C0522B01C057215C9343
:1009700050E0559547954115510519F43196D4909D
:1009800040E811965A2F5A19531728F3EB2417C031
:10099000FB01DC0140E8542F5D2119F05C915227E6
:1009A0005C9350E0559547954115510519F43196E2
:1009B000D49040E811965A2F581B531760F3220F1A
:1009C00019F48C5A9F4F21E00F5F680D791D7BCF82
:1009D0008EED90E00E944D1280919204982F990F15
:1009E000890F81958D5A80939704809198048F5F29
:1009F0008093980480916A04882319F08AED90E02E
:100A000002C086ED90E00E944D1280919204982FD2
:100A1000990F890F81958D5A80939704809198043E
:100A20008F5F8093980482ED90E00E944D12809138
:100A30005604813041F580916A048F5F60916B04A8
:100A400087FD09C0082E000C990B70E06F5F7F4F87
:100A50000E942221682F60936A0480E00E94621144
:100A600030927304209272041092780410927704EA
:100A7000C092660489E080937B0410927E041092F9
:100A8000800410928204809155048130B9F08091E5
:100A9000B004482F50E060E070E04090B104509006
:100AA000B2046090B3047090B40444165506660610
:100AB000770608F458C18F3F09F455C18FEF809332
:100AC000B00480E00E94621180E00E9462118AEC12
:100AD00090E09093730480937204109278041092C3
:100AE000770481E08093660499E090937B041092F0
:100AF0007E04109280041092820480935804C09067
:100B00005A04D0905B04C094D094E12CF12C0E9444
:100B1000A3084B015C010E94A308A5019401209544
:100B200030954095509560957095809590950E9470
:100B300006219B01AC01C701B6010E9406214B01B1
:100B40005C0180914104909142046C01E12CF12CF4
:100B50000E94A308C60ED71EE81EF91EC701B601E3
:100B6000680D791D8A1D9B1D611571058105910513
:100B700011F00E94701F10925804109228011092D8
:100B800027018BE08093260185E080932501109258
:100B9000250210922C02E12CF12CC70124E0880FD1
:100BA000991F2A95E1F7082F006811E0612F602B4B
:100BB00086E292E00E9461031F5F1E30B9F78FEF5B
:100BC000E81AF80A94E0E916F10439F700E010E0B9
:100BD00020912C0230E0021713077CF57901E01A0E
:100BE000F10A49F00E946B1F9701FF0C440B550B53
:100BF0000E94791F03C060E070E0CB0120912902C0
:100C000030912A02F901E60FF71F9081A0912C0282
:100C1000B0E0A01BB10BA20FB31F11978C91808382
:100C200080912C02E82FF0E0E01BF10BE20FF31FA4
:100C3000319790830F5F1F4FCBCF10920902109214
:100C400010021092170210921E0280E090E0FC0148
:100C5000EE52FE4F1682079681339105C1F710922E
:100C6000D10182ED882E81E0982E00E010E096E020
:100C7000492EDE0111965D01772473945524539417
:100C8000602E660C7801C12CD12C86E292E00E9485
:100C900039038F830E151F0521F4CE0107960E949C
:100CA00096032091D101F501442D11924A95E9F75F
:100CB0005982429EC0011124875D9E4FF501DC01DF
:100CC000342D01900D923A95E1F7DC0112967C9259
:100CD000129713967C921397F401EC0DFD1D308151
:100CE00014963C9314973181360D15963C931597C5
:100CF0001196EC9211973F813C932F5F2093D10185
:100D0000BFEFEB1AFB0AE7E0CE0ED11CF7E0EF16BF
:100D1000F10409F0BACF0F5F1F4F47E0840E911C1A
:100D20000730110509F0ACCF1092D10110920101EA
:100D30001092000127960FB6F894DEBF0FBECDBF0C
:100D4000DF91CF911F910F91FF90EF90DF90CF90A7
:100D5000BF90AF909F908F907F906F905F904F90DB
:100D60003F902F90089580915704813009F056CD1F
:100D70000E945B124ECDFC01208130E084E035956D
:100D800027958A95E1F72370332781E022303105DA
:100D900029F02330310511F080E008950895CF92B5
:100DA000DF92EF92FF920F931F93CF93DF931F92E7
:100DB000CDB7DEB7E82EF62E142F498347FF02C0C9
:100DC00083E001C080E08093AE048093AF040CE028
:100DD00028E0DD24D394DF0C4D2DCC24C394CE0C1D
:100DE0006C2D8EE894E00E94C40981E08093AE04EB
:100DF0008093AF0428E04F2D6C2D8EE894E00E9484
:100E0000A10928E04DE04F0D6C2D8EE894E00E9482
:100E1000A1092CE04D2D6E2D8EE894E00E94D00AA1
:100E20002CE04D2D69E06E0D8EE894E00E94D00A12
:100E300017FD23C0CE0101960E94BB06882329F02E
:100E400083E08093AE048093AF04412F50E084E0B0
:100E5000559547958A95E1F74370552762E06F0DE8
:100E600082E08E0D0E9479021F70412F50E067E0F2
:100E70006F0D85E08E0D0E949B0B0F90DF91CF913F
:100E80001F910F91FF90EF90DF90CF9008950F93F7
:100E90001F93CF93DF938C01C0E0D0E0F80166810F
:100EA00070E0C617D70794F46C1B7D0B6150710975
:100EB000C8010E944C036C2F660FF8019181690FE5
:100EC000482F80810E94CF062196E8CFDF91CF91F5
:100ED0001F910F910895CF92DF92EF92FF920F939F
:100EE0001F93CF93DF936C017A018B01C0E0D0E0B8
:100EF000CE15DF0589F0D8016D918D01D601ED91F8
:100F0000FC910190F081E02DC6010995892B11F427
:100F10007E0102C02196ECCFC701DF91CF911F91D6
:100F20000F91FF90EF90DF90CF9008950E94502195
:100F3000833081F028F4813099F08230A1F0089557
:100F40008730A9F08830B9F08430D1F480918000E6
:100F50008F7D03C0809180008F77809380000895FB
:100F600084B58F7702C084B58F7D84BD089580914C
:100F7000B0008F7703C08091B0008F7D8093B00068
:100F800008951F93CF93DF93282F30E0F901E353A7
:100F9000FC4F8491F901E754FC4FD491F901EB55D2
:100FA000FC4FC491CC23C9F0162F81110E949807E1
:100FB000EC2FF0E0EE0FFF1FEE54FF4FA591B49120
:100FC0008FB7F894111105C09C91ED2FE095E9239E
:100FD00002C0EC91ED2BEC938FBFDF91CF911F916D
:100FE0000895CF93DF9390E0FC01E754FC4F2491E8
:100FF000FC01EB55FC4F8491882361F190E0880F50
:10100000991FFC01E855FF4FC591D491FC01EE54A6
:10101000FF4FA591B491611109C09FB7F8948881E1
:10102000209582238883EC912E230BC0623061F4DB
:101030009FB7F8943881822F809583238883EC9121
:101040002E2B2C939FBF06C08FB7F894E8812E2BD0
:1010500028838FBFDF91CF9108951F93CF93DF93A4
:10106000182FEB0161E00E94F107209711F460E076
:1010700004C0CF3FD10539F461E0812FDF91CF91DA
:101080001F910C94C107E12FF0E0E353FC4FE49172
:10109000E330F9F048F4E130B9F0E230A1F584B57D
:1010A000806284BDC8BD34C0E730E9F0E83019F192
:1010B000E43049F580918000806280938000D09375
:1010C0008B00C0938A0024C084B5806884BDC7BDEE
:1010D0001FC080918000806880938000D093890039
:1010E000C093880015C08091B00080688093B000E4
:1010F000C093B3000DC08091B00080628093B000B7
:10110000C093B40005C0C038D1050CF0B5CFAFCF47
:10111000DF91CF911F9108958E3008F08E50877027
:10112000806480937C0080917A00806480937A0050
:1011300080917A0086FDFCCF809178002091790023
:1011400090E0922B08953FB7F894809133029091EC
:101150003402A0913502B091360226B5A89B05C095
:101160002F3F19F00196A11DB11D3FBFBA2FA92F26
:10117000982F8827820F911DA11DB11DBC01CD01A3
:1011800042E0660F771F881F991F4A95D1F708958F
:101190008F929F92AF92BF92CF92DF92EF92FF9287
:1011A0006B017C010E94A3084B015C01C114D104B6
:1011B000E104F104F1F00E94A308DC01CB018819DD
:1011C0009909AA09BB09883E9340A105B10570F3AE
:1011D00021E0C21AD108E108F10888EE880E83E008
:1011E000981EA11CB11CC114D104E104F10419F72B
:1011F000DDCFFF90EF90DF90CF90BF90AF909F90AA
:101200008F9008951F920F920FB60F9211242F9373
:101210003F938F939F93AF93BF93809139029091A7
:101220003A02A0913B02B0913C023091320223E09D
:10123000230F2D3720F40196A11DB11D05C026E80E
:10124000230F0296A11DB11D209332028093390213
:1012500090933A02A0933B02B0933C0280913302F8
:1012600090913402A0913502B09136020196A11DF1
:10127000B11D8093330290933402A0933502B09352
:101280003602BF91AF919F918F913F912F910F9017
:101290000FBE0F901F90189580913D04882319F080
:1012A00080913F0401C080E08093B40008951F92B4
:1012B0000F920FB60F9211242F933F934F935F938A
:1012C0006F937F938F939F93AF93BF93EF93FF930E
:1012D00060913E04662321F1809131028F5F8093FB
:1012E0003102909137028917D8F090913D0481E046
:1012F000892780933D04109231028091380288231F
:1013000069F08091020193E4899F802D1124895B0B
:10131000809302010E94162190933F040E944C0981
:10132000FF91EF91BF91AF919F918F917F916F91BD
:101330005F914F913F912F910F900FBE0F901F9093
:101340001895DF92EF92FF920F931F93CF93DF9345
:101350001F92CDB7DEB78C01D62EF42EE12CE2160B
:1013600054F46E2D6D0D4F2DC80129830E9421026A
:10137000E3942981F4CF0F90DF91CF911F910F91CA
:10138000FF90EF90DF900895DF92EF92FF920F931E
:101390001F93CF93DF937C01D62FD22EC42F002E24
:1013A000000C110B040F111D47FD1A954C2F0C2E2C
:1013B000000C550B4017510744F42D2D4C2F6D2F69
:1013C000C7010E94A109CF5FF1CFDF91CF911F919B
:1013D0000F91FF90EF90DF9008956F927F928F9220
:1013E0009F92AF92BF92CF92DF92EF92FF920F93B4
:1013F0001F93CF93DF93EC016A3019F42D81988508
:10140000A1C06D3009F4A4C01885BA84D98488A01D
:1014100083E58D150CF47FC08FE28B150CF47BC037
:101420008C8190E00197189F9001199F300D112435
:10143000C9018D0D911DD7FC9A95181619060CF04F
:101440006AC08D81819FC00111248B0D911DB7FC55
:101450009A95181619060CF05EC09D2CCD2CE62E20
:10146000F12CEC2DED190E2E000CFF0B8C8190E071
:10147000E817F9070CF04EC00197E817F90779F063
:10148000E89E9001E99E300DF89E300D1124E20F88
:10149000F31F8E8D9F8DE80FF91F749001C0712C82
:1014A0006B2CAB2C2A2D2B19022E000C330B8D81AB
:1014B00090E0281739075CF570FE10C0113031F448
:1014C0004A2D6C2DCE010E9421021DC0012F212F1B
:1014D000462D692DCE010E94C40915C089A198A18D
:1014E000891789F088A3113031F44A2D6C2DCE0173
:1014F0000E94210207C0012F212F462D692DCE0108
:101500000E94C40988A27694A394610ECBCFC394A1
:10151000910EA7CF88A228853C818985329F800DB6
:10152000112489879F81992399F0082E000C990B2B
:1015300044E550E0239F40195109112448175907E9
:101540003CF49D818A85299F800D11248A87198604
:1015500081E090E0DF91CF911F910F91FF90EF908C
:10156000DF90CF90BF90AF909F908F907F906F90C3
:10157000089542E0460F23E0682F8EE894E00C9433
:10158000A10944E0460F23E0682F8EE894E00C9414
:10159000A109462F23E0682F8EE894E00C94A1095E
:1015A000DF92EF92FF920F931F93CF93DF931F92DF
:1015B000CDB7DEB78C01D62EF42EE12CE21654F412
:1015C0004E2D4F0D6D2DC80129830E942102E394F9
:1015D0002981F4CF0F90DF91CF911F910F91FF9050
:1015E000EF90DF900895462F23E0682F8EE894E077
:1015F0000C94D00A42E0460F23E0682F8EE894E076
:101600000C94D00A42E0460F62E0680F23E08EE8B7
:1016100094E00C94D00ACF93DF93C82FD62F0E946A
:10162000C90A6D2F8C2F0E94F30A6D2F8C2F0E94F8
:10163000B90A6D2F8C2F0E94020B6D2F8C2FDF911A
:10164000CF910C94C10A462F62E0680F23E08EE828
:1016500094E00C94D00ACF93DF93C82FD62F0E942A
:10166000F30A6D2F8C2F0E94B90A6D2F8C2F0E94C8
:10167000230B6D2F8C2FDF91CF910C94020B1F93B6
:10168000CF93DF93C82F162F861721F1862F90E076
:101690008C1B910963E070E00E942221D62F61111A
:1016A00017C06091B1047091B2048091B30490911D
:1016B000B40423E030E040E050E00E94AB1F672B11
:1016C000682B692B29F4C11710F0DFEF01C0D1E0BE
:1016D0008D2F8C0FDF91CF911F910895809127015D
:1016E000909128018630910554F482309105A4F43C
:1016F0000097E9F00197D1F42FE132E01AC08D3064
:101700009105A4F4069747E0489F9001499F300D4A
:1017100011242E523E4F0DC0029747E0489F900182
:10172000499F300D11242D5F3D4F03C0089526E2DF
:1017300032E0C90108950F931F93CF93DF93FA010D
:101740003197ED30F10508F0EDC0D62FC82FEF5BD3
:10175000FF4F0C94362111E0180F462F612F8EE8B1
:1017600094E00E94210201E00D0F24E0402F6C2F35
:101770008EE894E00E94D00A62E06C0F24E0402FD3
:101780008EE894E00E94D00A42E04D0F612F89C09C
:101790000E94C90A6D2F8C2F0E94230B6D2F8C2F56
:1017A0000E94B90A6D2F8C2F0E94FA0A0EC00E9467
:1017B000C90A6D2F8C2F0E94230B6D2F8C2F0E9436
:1017C000B90A6D2F8C2F0E94020B6D2F8C2FDF9189
:1017D000CF911F910F910C94C10ADF91CF911F916E
:1017E0000F910C942B0BDF91CF911F910F910C94C3
:1017F0000B0B0E940B0B6D2F8C2FDF91CF911F9144
:101800000F910C94FA0A0E94C90A6D2F8C2F0E9426
:10181000230B6D2F8C2FDF91CF911F910F910C9483
:10182000020B0E940B0B6D2F8C2F0E94FA0A6D2F5A
:101830008C2FDF91CF911F910F910C94230B0E945D
:101840002B0B6D2F8C2FDF91CF911F910F910C944B
:10185000C90A0E94C90A6D2F8C2F0E94230B6D2F7D
:101860008C2F0E94020B6D2F8C2F0E94C10A6D2FAE
:101870008C2F0E94FA0A6D2F8C2F0E94F30A6EEFB4
:101880006C0F25E04D2F46C00E94230B6D2F8C2F2F
:101890000E94020B6D2F8C2F0E94C10A43E04D0F56
:1018A0006C2F8EE894E0DF91CF911F910F910C94F3
:1018B00021020E94C90A6D2F8C2F0E94230B6D2FCD
:1018C0008C2F0E94F30A43E04D0F23E06C2F8EE82B
:1018D00094E00E94A10944E04D0F61E06C0FE1CF5C
:1018E0000E94F30A6D2F8C2F0E94FA0A42E04D0FDE
:1018F00061E06C0F8EE894E00E942102CE5F22E04E
:101900004D2F6C2F8EE894E00E94D00A43E04D0FDB
:1019100022E06C2F8EE894E0DF91CF911F910F9120
:101920000C94D00ADF91CF911F910F9108954F929F
:101930005F926F927F928F929F92AF92BF92CF925F
:10194000DF92EF92FF920F931F93CF93DF9300D01C
:1019500000D01F92CDB7DEB74091C0045091C104B2
:101960006091C2047091C3042FB7F894809139023A
:1019700090913A02A0913B02B0913C022FBF481BCC
:10198000590B6A0B7B0B8091BF0490E0A0E0B0E0A4
:101990000091BB041091BC042091BD043091BE04A1
:1019A00084179507A607B70730F40115110521051F
:1019B000310509F033C3012B022B032B09F02CC393
:1019C0008091570481508E3FC0F58091560481303C
:1019D000C9F580916A048F5F60916B0487FD09C02F
:1019E000082E000C990B70E06F5F7F4F0E94222140
:1019F000682F60936A0487E493E09093C504809312
:101A0000C40488E48093C60480E00E94621180E6EA
:101A100091E0909373048093720410927804109272
:101A2000770481E08093660489E080937B041092C0
:101A30007E04109280041092820480915704815099
:101A40008E3F70F480915504813009F093C38AE38E
:101A500093E09093C5048093C40488E48093C60403
:101A600080E00E94901280916604882309F4ABC044
:101A700080917A048111A7C08091720490917304BF
:101A8000E0917704F0917804EE0FFF1FE80FF91F43
:101A90004591549141155105F1F42091760422238A
:101AA00031F01092780410927704FC0112C0109269
:101AB000660480916504882341F080E00E949012C2
:101AC000E0917704F09178042DC080E00E944D11E0
:101AD0007AC0459154919A01369527953695279568
:101AE00040FF51C0CA0116E0969587951A95E1F717
:101AF0008F71952F96959695969590512F702230CF
:101B000071F1F8F4211117C08B3008F08AE080934E
:101B10007B04E0917704F09178043196F093780497
:101B2000E0937704EE0FFF1F80917204909173048D
:101B3000E80FF91FCECF213061F760E00E94FA1262
:101B4000E8CF2330B1F0243021F720916904829F3F
:101B5000802D11248093820490938304DACF209106
:101B60006904829F802D112480937E0490937F04CA
:101B7000D0CF20916904829F802D1124809380040E
:101B800090938104C6CF2F732093790480916904C8
:101B9000859F802D112480937A0410928A041092DC
:101BA00089041092880481E080937C0480933D0432
:101BB00010927D048091770490917804019690931F
:101BC00078048093770480917C04882309F4EEC024
:101BD00080917A04811103C00E944D11E7C08150A9
:101BE00080937A0480918A04811146C020918804F0
:101BF000309189042F5F3F4FC901880F991FE091F1
:101C00008404F0918504E80FF91F65917491862F83
:101C1000877080938B04AB01E3E056954795EA9576
:101C2000E1F7CA0196958795972F9695969590938B
:101C30008C048F7390916904899F802D1124809367
:101C40008A044170409338023093890420938804B9
:101C50008091860490E02817390770F0209187045E
:101C6000222339F0821B9109909389048093880480
:101C700003C080E00E944D1180918A0481508093BE
:101C80008A0480917D0421E0280F20937D044091F7
:101C9000790430918C04340F80917104380F3093A3
:101CA000670460918004662371F070E0822F022E39
:101CB000000C990B0E94222180918104869F300D97
:101CC0001124309367048091670490E0849664E265
:101CD00070E00E9422218093670430917B0430934E
:101CE000680460917E04662381F0062E000C770B59
:101CF000822F022E000C990B0E94222180917F04DA
:101D0000869F300D1124309368046091820466230D
:101D1000A1F0822F220F990B70E00E942221CB01AB
:101D200062E070E00E942221209183049091680477
:101D3000289F900D112490936804809168044F337C
:101D400041F08A300CF089E087FD80E080936804E0
:101D500002C010926804F894E0916704F0E0EA5938
:101D6000FE4FE491E09337023091680420918D0496
:101D700032039001112440918B044203C001439F20
:101D8000900D112400906A0402C0880F991F0A94D4
:101D9000E2F797FF02C081589F4F880F892F881F55
:101DA000990B80933E0480933F0478948091C604FD
:101DB000882309F486C08C3020F49CE0E92EE81AD0
:101DC00001C0E12CFF24F394F09296041092AE042B
:101DD0001092AF04309193044DE2D42E1D2D131BAD
:101DE0001E0D03E0030F2EE4412F63E08EE894E024
:101DF0003D830E94C4093D810CEF030F1D5F202F1E
:101E000041E0612F80E50E94B313202F42E0612F53
:101E100083E00E94B313F092AE04F092AF040091FD
:101E20009304FD2CF01AFE0C2EE44F2D63E08EE897
:101E300094E00E94A10913E0100F1F0D4FEF410F16
:101E40002EE463E08EE894E00E94A109035033E0A1
:101E5000F30E202F4F2D60E08EE894E00E94D00A10
:101E6000202F4F2D63E58EE894E00E94D00A41E0D8
:101E70006F2D83E00E94351342E06F2D80E50E94B4
:101E80003513145044E0612F80E50E94351348E07B
:101E9000612F83E00E94351384E080939704809142
:101EA0009304E81A8E2D815D809398048091C40478
:101EB0009091C5040E942C128091C6048150809399
:101EC000C60480915C0490915D04892B09F47CC068
:101ED00011E01093AE041092AF049091920485E546
:101EE000891B809397041092980480915904813043
:101EF00009F44DC030F090915804853008F05FC06F
:101F00005AC080E00E94621110939604E8EBF1E061
:101F1000E491EF5FE0939204E9EBF1E0E491EF5F8D
:101F2000E09393048AEB91E09093AD048093AC042A
:101F300010925D0410925C041092940418EA0E94BE
:101F4000970C8823E1F38AEA91E00E942C126091B9
:101F50005A0470915B0480E090E04AE00E941614FD
:101F600085E991E00E942C12612F62956F7070E0FC
:101F700080E090E04AE00E9416148AE891E00E9416
:101F80002C1280915504813009F0FAC01DC0809157
:101F9000B1049091B204A091B304B091B4048F70D5
:101FA0009927AA27BB270897A105B10510F487E058
:101FB00009C088E707C0992339F08B5F03C09923D4
:101FC00019F08FE20E9457140E94EC118091940442
:101FD00081110EC088EF91E0EDE3F2E0DF019C019A
:101FE0001D9221503040E1F710929704109298040E
:101FF0000E94A3086093BB047093BC048093BD044B
:102000009093BE042091B7043091B804621B730B07
:102010007093B6046093B50480E0CCC02FB7F894F9
:102020008091390290913A02A0913B02B0913C021A
:102030002FBF2091BF04820F911DA11DB11D809360
:10204000C0049093C104A093C204B093C3048091D0
:10205000B1049091B204A091B304B091B40401967C
:10206000A11DB11D8093B1049093B204A093B30459
:10207000B093B4041092BB041092BC041092BD043F
:102080001092BE040E94A3086093B7047093B80432
:102090008093B9049093BA048091410490914204D2
:1020A0002FE0289F8001299F100D112485E10E94B7
:1020B0008C08800F911F24E0969587952A95E1F76B
:1020C000909342048093410420914004222309F418
:1020D0004BC060914404262F30E040E050E029835B
:1020E0003A834B835C83C0904504D12CE12CF12CC6
:1020F00040914804509149044A01A12CB12C2091EF
:102100004604309147042901612C712C82179307F2
:1021100028F09C014817590708F49A01C901A0E06A
:10212000B0E09C01AD0124193509460957096981C0
:102130007A818B819C816C197D098E099F090E948F
:102140000621A501940124193509460957090E9461
:10215000791FC20ED31EE41EF51EC09243046C2DDF
:1021600070E085E00E942D080E9479110E9462149F
:1021700081E020C0893209F073CC0E945B1270CCE0
:10218000115009F0DCCE60E070E085E00E942D087F
:1021900083B7817F846083BF83B7816083BF83B748
:1021A000816083BF889583B78E7F83BF83B78E7F1F
:1021B00083BFC5CE0F900F900F900F900F90DF91BF
:1021C000CF911F910F91FF90EF90DF90CF90BF9034
:1021D000AF909F908F907F906F905F904F900895F9
:1021E0000F931F93CF93DF93C82F162FD42F022F57
:1021F000242F462F682F8EE894E00E94A1094FEF0C
:10220000400F410F2D2F6C2F8EE894E00E94A10902
:10221000202F412F6C2F8EE894E00E94D00AD150DD
:102220006D2F6C0F202F412F8EE894E0DF91CF911E
:102230001F910F910C94D00ABC01009791F0FC0102
:1022400001900020E9F73197AF01481B590BE0914D
:102250008E04F0918F040280F381E02D8EE894E0EB
:10226000099480E090E008950F931F93CF93DF933C
:102270008C01C091CD04D0E0219750F0BE0187ECD5
:1022800094E00E944C03682FC8010E946103F4CFC0
:10229000DF91CF911F910F910895811112C010927B
:1022A0007C0410927A04109289041092880410928F
:1022B0007D0410923F0410923E0410923D040C9451
:1022C0004C090895811114C010927C0410927A0474
:1022D000109289041092880410927D0410923F0499
:1022E00010923E0410923D040E944C091092660424
:1022F0000895CF92DF92EF92FF920F931F93CF93A7
:10230000DF93CAE4D4E001E514E0FF24FA9497E0F7
:10231000E92EE00E62E088810E94F107288130E01A
:10232000F901E353FC4F8491F901E754FC4FC49049
:10233000F901EB55FC4FD490DD2071F081110E9422
:102340009807ED2DF0E0EE0FFF1FE556FC4FA5912D
:10235000B491EC91EC21B1F4F80180818F5F80831E
:1023600060E088810E94F10721960F5F1F4FE01205
:10237000D1CFDF91CF911F910F91FF90EF90DF9020
:10238000CF900895F8018081882371F3F8018F3F81
:1023900011F41082E5CFF082E3CFCF93C82FF894E9
:1023A00060E080919D040E94C10780919E041816F0
:1023B0001CF460E00E94C107CEBD00000DB407FE12
:1023C000FDCF8EB580919E0418161CF461E00E942A
:1023D000C1077894CF9108950F931F93CF93809165
:1023E0009A048F5F80939A040DE312E0C0E08C2F73
:1023F00080640E94CD1180E80E94CD1161E080913F
:102400009D040E94C10780919E0418161CF460E090
:102410000E94C10780E090E0F801E80FF91F2081D9
:102420002EBD00000DB407FEFDCF2EB501968435FC
:10243000910591F780919E0418161CF461E00E94AA
:10244000C107CF5F0C5A1F4FC63089F680E4CF9189
:102450001F910F910C94CD110F931F93CF93DF9386
:102460008C01C0E0D0E0F801EC0FFD1F6491662301
:1024700071F0E0918E04F0918F040190F081E02DD5
:102480008EE894E00995892B11F02196ECCFCE01CE
:10249000DF91CF911F910F910895CF93DF930E9409
:1024A0002C12EC0189E191E00E941C118C0F9D1F00
:1024B000DF91CF91089588EF91E0EDE3F2E0DF0145
:1024C0009C011D9221503040E1F710929704109228
:1024D000980483E793E00E942C120E94EC118CB5C3
:1024E00083608CBD8DB58E7F8DBD8CE191E0EEEF6C
:1024F000FFE30995109294048EE493E00E944D123C
:102500000E94EC110E94791180915504813039F0BC
:1025100062E370E080E090E00E94C808F3CF089585
:10252000AF92BF92CF92DF92EF92FF920F931F93E1
:10253000CF93DF93C82ED12CE601C05CDB4F9DA169
:10254000992309F44CC07E019FEFE91AF90AF701BB
:1025500095A1911144C09EA58601000F111F005C3A
:102560001B4FF80134A525A5E32FF22FE90FF11D2C
:10257000E90FF11D259134912F3FFFEF3F0711F433
:102580001DA22DC039ABF601EE0FFF1FE65BFB4F1E
:102590003327220F331F05A0F6A1E02DE20FF31F12
:1025A000A590B490811117C00E946211F801B3AADE
:1025B000A2AAF601EE0FFF1FEE5AFB4F16A215A2BC
:1025C00081E0F70185A389E08BAF1EAEFE017B960B
:1025D00015A2329615A229968DA18F5F8DA3DF914A
:1025E000CF911F910F91FF90EF90DF90CF90BF9010
:1025F000AF90089570E0DB01AA0FBB1FA05CBB4F3A
:10260000D4962C91D497D5969C91D597E22FF92FFB
:10261000E80FF11DE80FF11D259134915F96969614
:102620003C932E939597F90185919491909169042B
:10263000989F802D1124605C7B4FFB01B19685A390
:10264000F901A591B4914B2F50E0E82FF0E04E171F
:102650005F0720F4F90125913491832FFB01B29695
:10266000899F802D112485A30895AF92BF92CF92A8
:10267000DF92EF92FF920F931F93CF93DF93182F68
:10268000062FC1E0D3E08AEFD82E9EEFE92E842FEB
:102690008470C82E842F8270B82E842F8870A82E44
:1026A0004170F42E8C2F880F8F5FE80ECC2081F0C4
:1026B0004D2F400F6C2F610F8EE894E00E94210295
:1026C0004C2F400F6D2F610F8EE894E00E94210285
:1026D000BB2081F0402F4D1B6C2F610F8EE894E0E2
:1026E0000E942102402F4C1B6D2F610F8EE894E059
:1026F0000E942102AA2081F04C2F400F612F6D1BF8
:102700008EE894E00E9421024D2F400F612F6C1B38
:102710008EE894E00E942102FF2081F0402F4C1BA4
:10272000612F6D1B8EE894E00E942102402F4D1B0B
:10273000612F6C1B8EE894E00E942102CD1744F4B7
:10274000E7FC04C0D150D394D394ED0CCF5FAACF53
:10275000DF91CF911F910F91FF90EF90DF90CF907D
:10276000BF90AF9008959F92AF92BF92CF92DF92A9
:10277000EF92FF920F931F93CF93DF93F82EE62EE5
:10278000B22E03E0020FD0E0C3E08AEFC82E1EEFA6
:10279000842F8170982EAA24A394A20E4270D42E66
:1027A000DF5F802F8B19180F9920A1F02C2F220F9B
:1027B0002A0D4E2D4C1B6D2F6F0D8EE894E00E945C
:1027C000D00A202F4E2D4D1B6C2F6F0D8EE894E0FC
:1027D0000E94D00ADD20A1F02C2F220F2A0D4E2DB1
:1027E0004C1B6F2D6D1B8EE894E00E94D00A202FA9
:1027F0004E2D4D1B6F2D6C1B8EE894E00E94D00A6D
:10280000DC1744F417FD04C0C150C394C3941C0DDD
:102810000E5FC6CFDF91CF911F910F91FF90EF9088
:10282000DF90CF90BF90AF909F9008958F929F922E
:10283000AF92BF920F931F93CF93DF93CDB7DEB7C5
:10284000A1970FB6F894DEBF0FBECDBF19A24230DC
:1028500008F44AE08E010F5D1F4F842E912CA12CAD
:10286000B12CA50194010E94AB1FE62FB901CA014A
:1028700001501109EA3014F4E05D01C0E95CD801AF
:10288000EC93232B242B252B61F7C8010E941C11EC
:10289000A1960FB6F894DEBF0FBECDBFDF91CF91EA
:1028A0001F910F91BF90AF909F908F900895E091EE
:1028B0008E04F0918F040190F081E02D682F8EE856
:1028C00094E0099480915C0490915D04892BB1F1AE
:1028D000809164048F7169F584E10E948C08BC01C9
:1028E000990F880B990B0E940D2026EE3FE34EECCA
:1028F00050E40E9471200E94DC1F9B0170935B04D6
:1029000060935A04672B91F084E080935904ECE5BE
:10291000F4E080E0419151912417350718F4809339
:10292000590408958F5F8430A9F703C08FEF809317
:102930005904809164048F5F809364040895CF9359
:10294000DF9300D01F92CDB7DEB7789484B5826054
:1029500084BD84B5816084BD85B5826085BD85B543
:10296000816085BD80916E00816080936E001092C1
:10297000810080918100826080938100809181003C
:1029800081608093810080918000816080938000CD
:102990008091B10084608093B1008091B00081602B
:1029A0008093B00080917A00846080937A00809157
:1029B0007A00826080937A0080917A0081608093AF
:1029C0007A0080917A00806880937A001092C1002A
:1029D00082E38093BF0481E090E0A0E0B0E08093C8
:1029E000BB049093BC04A093BD04B093BE048FEFCE
:1029F0008093B004E0E8F7E7259134912130304C22
:102A000009F049C0E6E9F7E7E491E0939904E7E9C2
:102A1000F7E7E491E0934404E8E9F7E7E491E09311
:102A20004504E9E9F7E785919491909347048093F1
:102A30004604EBE9F7E785919491909349048093DC
:102A4000480488E080936B04EEE9F7E7E491E093B3
:102A50006A04EFE9F7E7E491E093B004E0EAF7E70E
:102A60008591949190935D0480935C04E2EAF7E78A
:102A70008591949190935F0480935E04E4EAF7E774
:102A8000859194919093610480936004E6EAF7E75E
:102A9000859194912CC09CE39093990410924404E6
:102AA0008093450480E293E090934704809346042A
:102AB00084ED93E0909349048093480488E08093E8
:102AC0006B0480936A048CEA9DE090935D0480938C
:102AD0005C048EED9DE090935F0480935E0484E738
:102AE0009EE090936104809360048CE39FE0909358
:102AF00063048093620411E0109340046FEF70E070
:102B000085E00E942D0888E080934A0489E0809344
:102B10004B0487E080934C0486E080934D0404E0EE
:102B200000934E0482E080934F0481E1809350042F
:102B30000E9479118CE39FE090935B0480935A0488
:102B400000935904109364048BE080939C048DE0FF
:102B500080939B0480E180939D048EE080939F048A
:102B60008FE080939E04109396041093AE0410920D
:102B7000AF0410939504E8EBF1E0E491EF5FE0938C
:102B80009204E9EBF1E0E491EF5FE09393048AEBC8
:102B900091E09093AD048093AC041FB7F8948091BA
:102BA0002D02811127C0EFEAF3E08491E3ECF3E01A
:102BB0009491E82FF0E0EE0FFF1FE855FF4FA5912D
:102BC000B491EC91E92321F461E08AE00E94C1070D
:102BD00061E08AE00E94F1078CB580618CBD8CB504
:102BE00080648CBD61E08DE00E94F10761E08BE0C4
:102BF0000E94F10780912D028F5F80932D021FBFED
:102C00008CB58F7D8CBD8CB58C7F81608CBD8DB576
:102C100081608DBD8CB58C608CBD61E080919C0421
:102C20000E94F10761E080919B040E94F10761E03E
:102C300080919D040E94F10780919F0418161CF456
:102C400061E00E94F10780919E0418161CF461E077
:102C50000E94F10780919F04181674F460E00E94AE
:102C6000C1076AE070E080E090E00E94C80861E07F
:102C700080919F040E94C10780919B04082E000C44
:102C8000990BFC01EB55FC4FE491F0E0EE0FFF1FB8
:102C9000EE54FF4F259134913093A3042093A20466
:102CA000FC01E754FC4FE491E093A90480919C045B
:102CB000082E000C990BFC01EB55FC4FE491F0E061
:102CC000EE0FFF1FEE54FF4F259134913093A10476
:102CD0002093A004FC01E754FC4FE491E093A80486
:102CE00080919E04082E000C990BFC01EB55FC4FC3
:102CF000E491F0E0EE0FFF1FEE54FF4F2591349169
:102D00003093A5042093A404FC01E754FC4FE49104
:102D1000E093AA0480919D04082E000C990BFC01FD
:102D2000EB55FC4FE491F0E0EE0FFF1FEE54FF4F28
:102D3000259134913093A7042093A604FC01E75415
:102D4000FC4FE491E093AB0481E20E94CD1184E159
:102D50000E94CD118091990487FF03C08FE7809373
:102D600099048091990480680E94CD1180E20E94AC
:102D7000CD118CE00E94CD110E94EC1111E0109356
:102D8000690484E080938D0484EA90E09093750454
:102D90008093740460E080E00E94FA1261E070E0C9
:102DA00083E00E942D088091B100887F816080932C
:102DB000B100F8941092800010928100109285006A
:102DC0001092840088E191E09093890080938800BC
:102DD0008091810088608093810080918100816072
:102DE0008093810080916F00826080936F0078945F
:102DF0000E94621480915604813009F0D9C110926A
:102E00006A0485E28093030281E0809304021092B9
:102E1000050291E390930A0280930B0210920C0238
:102E20009DE390931102809312021092130299E491
:102E3000909318028093190210921A02E4EDF1E0C7
:102E400080E031E121E0DF01129791E0980F9C933F
:102E500011963C9391E02083845F3796843599F7EF
:102E60009093260290932702109228028DE080937F
:102E70001F02909320020E94D90388248394912CEE
:102E80000E94970C882309F48BC1809157048130EC
:102E900009F4ACC18091000190910101813091054C
:102EA00021F0039709F49FC00FC1C0902701D09073
:102EB000280180915304813071F4B5E0CB16D10420
:102EC00051F05CE0C516D10431F0C6010196909333
:102ED00028018093270180915104813071F4809101
:102EE000270190912801009741F08630910529F043
:102EF0000197909328018093270180915404813099
:102F000041F480912401882309F473C18150809396
:102F1000240180915204813021F500912701109104
:102F200028017801E6E0EE1AF108F7E0EF16F10467
:102F300008F072C10E946E0BB09024016B2D70E0FE
:102F40006F5F7F4FDC0116962C9130E0621773079C
:102F50000CF062C10E944C0387FD5EC1B394B09235
:102F6000240110915504113099F5A0902701B090DB
:102F7000280121E0A216B10409F466C10CF05FC17A
:102F8000AB2831F580912C02882309F4AEC1109250
:102F9000CD0486E292E00E9439038983CE01019636
:102FA0000E949603698187EC94E00E94610310936C
:102FB000C7041093C80480912C02833008F082E08B
:102FC0008093300282E090E09093010180930001B1
:102FD0008091270190912801C816D90609F474C080
:102FE0001092240171C080915304813079F4809152
:102FF0002701909128018530910541F08C30910591
:1030000029F0019690932801809327018091510423
:10301000813079F4809127019091280181309105C8
:1030200041F08630910529F0019790932801809313
:10303000270180915404813071F48091270190918F
:1030400028018130910509F064C187E090E09093F8
:1030500028018093270180915204813069F4809186
:10306000270190912801893091050CF458C10797E8
:10307000909328018093270180915504813021F598
:103080008091270190912801863091050CF07BC139
:10309000823091050CF474C18091CD04813009F027
:1030A0009FC10E946E0BDC0116962C9160E070E0CF
:1030B00021113DC187EC94E00E944C038F70813058
:1030C00009F08EC10E949F0380912C02882339F061
:1030D00041E860912702809126020E94CF0600E01D
:1030E00010E060912502643008F081C170E006179D
:1030F0001707B4F4601B710B615071098FE192E006
:103100000E944C03202F220F90911F02482F6091A4
:103110002002822F890F0E94CF060F5F1F4FE1CF41
:1031200003E012E0E12CF12C83E0B82EA7014D5F03
:103130005D4F6A01DA0116968C91882309F45EC10D
:1031400060E070E0C8010E944C03482FF6016181E5
:10315000D8018C910E94CF06B7E0EB0EF11C095FFD
:103160001F4FECE1EE16F10409F702ED11E0C80182
:103170000E944707095F1F4FF2E003301F07B9F7AE
:1031800080910001909101018230910509F4FDC305
:103190000CF041C1009709F446C1019709F4CAC176
:1031A00080E090E0892B09F46BCE0E94000068CE8D
:1031B00080915904882309F422CE80E00E94621194
:1031C0008CEB90E0909373048093720410927804D7
:1031D000109277041093660489E080937B04109228
:1031E0007E0410928004109282040BCE0E94D903B8
:1031F00051CE80912701909128018230910514F4DD
:10320000069605C0863091050CF083CE0796909304
:103210002801809327017DCE083011053CF007502E
:10322000110910932801009327019BCE0630110548
:103230000CF497CEF0922801E092270192CEC501BE
:103240000697079708F0C4CE0E946E0B8C019093EE
:103250002F0280932E02FC018681882309F4B8CEC8
:103260001092CD048681E09024012E2D30E0482F6D
:1032700050E0B9016F5F7F4F7B01461757070CF491
:103280007A018E19D80116968C93612C712C6E14CC
:103290007F0491F0F80186810380F481E02DE60D32
:1032A000F71DE80FF11D608187EC94E00E94610337
:1032B000FFEF6F1A7F0AEBCFD8018C918093C70480
:1032C00011969C91B6E0AB16B10424F0F80186810A
:1032D000880F01C080E0890F8093C80443E050E06C
:1032E000509301014093000173CE80912502882301
:1032F00009F46ECE8FE192E00E9439038983CE01FA
:1033000001960E949603698186E292E00E94610321
:10331000ECCF863091050CF09ECE079698CE06979E
:103320000CF4AACE9092280180922701A5CE0E948B
:103330004C03182F60E070E087EC94E00E944C038F
:10334000412F50E0B4E055954795BA95E1F74370A9
:103350005527282F30E004E0359527950A95E1F7A9
:103360002370332742175307D9F51F70212F30E000
:103370002F5F3F4F8F7090E02817390789F5A2CE55
:10338000019771F1A1CE0D970CF09ECE0E946E0BAD
:10339000FC012681222309F495CE60E070E00E94B2
:1033A0004C038A836091CD0470E06150710987EC11
:1033B00094E00E944C03182F8983CE0102960E944C
:1033C000BB06082FCE0101960E94BB06081741F0EC
:1033D0002A812F7030E01F70812F90E00196CCCFB2
:1033E00084E090E090930101809300016DCE033062
:1033F00011050CF095CE63E070E07CCEB092AE0487
:10340000B092AF042EE04AE0F6016181D8018C91C0
:103410000E94F010A1CE8330910509F4F8C2049700
:1034200009F41BC3BDCE8091D1018C3198F4409139
:10343000B1045091B2046091B3047091B40443702C
:10344000552766277727452B462B472B19F48F5F87
:103450008093D1018091D10191E08C3109F090E00D
:10346000FCE2EF2EF1E0FF2E0EE211E0ABE2CA2EFD
:10347000A1E0DA2EA12CB12C282E312CA214B304F9
:103480000CF050C0D6018C91F80122913F018213BB
:1034900006C0D7013C91F80120813217B9F1F6E05E
:1034A000FA9D9001FB9D300D1124A901475D5E4FEF
:1034B0002A01DA014C91F70160810E94CF06D30105
:1034C0006C90662DF60180810E943F0B982FD601EB
:1034D0008C93F8017080672DD7018C919B830E949B
:1034E0003F0BF70180839B8196110FC087110DC0A0
:1034F000F80134978081F7E0F89FC0011124D201D0
:103500006C918E529E4F0E94610390E0BFEFAB1A08
:10351000BB0AE6E0EE0EF11C0A5F1F4FF6E0CF0E8D
:10352000D11CACCF992309F43BCE9092010180923B
:10353000000136CE80912701909128018D309105B0
:1035400008F08EC0FC01EC5CFF4F0C9436216BE060
:103550000FC06091250270E06115710531F0643093
:1035600071052CF4660F6B5E03C067E101C06BE16F
:10357000809126010E943F0B8093260165E0809197
:1035800025010E943F0B809325016AC06EE105C0B2
:103590006AE203C066E301C062E4809126010E94F2
:1035A0003F0B8093260165E0809125010E943F0B2F
:1035B0008093250191E055C08C01065011090997AF
:1035C00094F487E0809FF001819FF00D1124EE526A
:1035D000FE4F6081665F809126010E943F0B8093C1
:1035E000260190E011C087E0809FF001819FF00DDF
:1035F0001124EE52FE4F60816750809126010E9497
:103600003F0B8093260191E08091240181110EC02F
:1036100087E0809FF001819FF00D1124EE52FE4F54
:1036200081816681660F680F6E5F11C027E0209F61
:10363000F001219FF00D1124EE52FE4F6181625086
:1036400026818095820F22E0829F600D1124809157
:1036500025019B830E943F0B809325019B8101C024
:1036600090E010912501F090260103E00F0DE6E0B7
:10367000BE2EB10EC12CD12C55245394992309F49C
:10368000BEC0EE24E3945092AE045092AF04712E6B
:103690007C0C602E6C0C472D662D8EE894E00E9409
:1036A0002102AB2CAC184A2D662D8EE894E00E94C6
:1036B00021021092AE041092AF042C2D472D602FE2
:1036C0008EE894E00E94A1092C2D4A2D602F8EE8EF
:1036D00094E00E94A1094FEFC41AD40A54E0C51621
:1036E000D10479F6E092AE04E092AF0427E0412FD6
:1036F00062E06F0D8EE894E00E94D00A22E042E082
:10370000410F6F2D8EE894E00E94A10922E044E071
:10371000410F6F2D8EE894E00E94A10973E0B72E4F
:10372000B10E4B2D6F2D8EE894E00E942102109275
:10373000AE041092AF0422E04B2D61E06F0D8EE8D5
:1037400094E00E94A10900912401002309F428CDEE
:103750000E946E0B602F70E00E944C03E82E89835C
:103760008F70C82ED12C8A3011F000E001C002E029
:1037700081E08093AE048093AF043F2D301B4DE079
:10378000400F29E06FEF610F84EF830F3B830E94AE
:10379000F0101092AE041092AF044B2D6F2D8EE8F6
:1037A00094E00E9421022BE0200F3B8165EF630F24
:1037B00007E0412F8EE894E00E94C409CE010196F3
:1037C0000E94BB06811102C081E001C083E08093AA
:1037D000AE048093AF041F5FA601612F86EF8F0DAB
:1037E0000E949B0B4E2D50E064E0559547956A95DD
:1037F000E1F743705527612F8AEF8F0DC3C0EE2488
:10380000E3945092AE045092AF04612E6C0C462D9E
:10381000602F8EE894E00E9421027B2C7C18472DBB
:10382000602F8EE894E00E9421021092AE04109264
:10383000AF04AA24A394A00E2C2D462D6A2D8EE849
:1038400094E00E94A1092C2D472D6A2D8EE894E06A
:103850000E94A1096FEFC61AD60A015074E0C7167C
:10386000D10469F6E092AE04E092AF0427E0412F64
:1038700004E00F0D602F8EE894E00E94D00A22E051
:1038800042E0410F35E0E32EEF0C6E2D8EE894E020
:103890000E94A10922E044E0410F6E2D8EE894E0E1
:1038A0000E94A10943E0742E710E56E0A52EAF0CC4
:1038B000472D6A2D8EE894E00E9421021092AE04FA
:1038C0001092AF0422E0472D602F8EE894E00E9412
:1038D000A10900912401002309F462CC0E946E0B1F
:1038E000602F70E00E944C03E82E89838F70C82EF1
:1038F000D12C8A3011F0B12C02C022E0B22E81E02E
:103900008093AE048093AF0429E04DE04B0D6FEF40
:10391000610F8A2D0E94F0101092AE041092AF0435
:10392000472D6A2D8EE894E00E94210207E02BE0EB
:103930002B0D412F67E06F0D8EE894E00E94C409C3
:10394000CE0101960E94BB06811102C081E001C038
:1039500083E08093AE048093AF041F5F0B2D0F0DA7
:10396000A601612F88E0800F0E949B0B4E2D50E036
:1039700094E0559547959A95E1F743705527612F47
:103980008CE0800F0E9479020BCC87EC94E00E94BF
:10399000470761E18091C7040E943F0B082F809385
:1039A000C70461E08091C8040E943F0B182F8093E8
:1039B000C804013109F0F4CB813009F0F1CB60E0AB
:1039C00070E087EC94E00E944C03682F8FE192E056
:1039D0000E94610380913002882309F4A6CD8150B2
:1039E000809330021092CD0486E292E00E94390367
:1039F0008983CE0101960E949603698187EC94E049
:103A00000E9461031093C7041093C804C9CB87ECCC
:103A100094E00E9447070E946E0B7C01DC01129625
:103A20008C911297882329F016961C91110F1E5F16
:103A300001C012E0F70160818091C7040E943F0B32
:103A40008093C704D70111966C91610F8091C804CF
:103A50000E943F0B8093C804A3CBE0902E02F0900D
:103A60002F02F7018281882321F02681122F110F66
:103A700001C010E0D7016C918091C7040E943F0BF8
:103A80008093C704F7016181610F8091C8040E948F
:103A90003F0B8093C80487EC94E00E944707909105
:103AA000C704D7018C9198137BCB8091C80490E018
:103AB00011964C91212F30E0240F311D821793076E
:103AC00009F06ECBC7010E943411909201018092DF
:103AD00000011092240164CBCF93DF93C3E0D2E0C6
:103AE0002797CE010E94700381E0C23DD807C1F73D
:103AF00088E192E00E94700381E192E00E947003ED
:103B00008AE092E00E94700383E092E00E947003DA
:103B10008FE192E00E94700386E292E00E947003BF
:103B200087EC94E0DF91CF910C9470031092910494
:103B30001092900481E191E090938F0480938E0421
:103B40006DE087EC94E00E94780364E386E292E003
:103B50000E94780364E38FE192E00E9478036DE0B5
:103B600083E092E00E9478036DE08AE092E00E9498
:103B700078036DE081E192E00E9478036DE088E1D6
:103B800092E00E94780364E182ED91E00E94780364
:103B900064E189ED91E00E94780364E180EE91E0B8
:103BA0000E94780364E187EE91E00E94780364E16B
:103BB0008EEE91E00E94780364E185EF91E00E942F
:103BC000780364E18CEF91E00E947803E9E2F1E090
:103BD00081E08083369691E0E13DF907D1F70895C1
:103BE000CF93DF938230910510F482E090E0E09172
:103BF000D004F091D10420E030E0C0E0D0E0309774
:103C000011F14081518148175907C0F048175907F1
:103C100061F482819381209719F09B838A832BC062
:103C20009093D1048093D00426C02115310519F05A
:103C30004217530718F49A01BE01DF01EF01028019
:103C4000F381E02DDCCF2115310509F1281B390B5B
:103C50002430310590F412968D919C911397611543
:103C6000710521F0FB019383828304C09093D104FA
:103C70008093D004FD01329644C0FD01E20FF31F92
:103C800081939193225031092D933C933AC0209116
:103C9000CE043091CF04232B41F4209105013091C3
:103CA00006013093CF042093CE042091030130917C
:103CB00004012115310541F42DB73EB740910701AC
:103CC00050910801241B350BE091CE04F091CF04F4
:103CD000E217F307A0F42E1B3F0B2817390778F0E3
:103CE000AC014E5F5F4F2417350748F04E0F5F1F42
:103CF0005093CF044093CE048193919302C0E0E0AF
:103D0000F0E0CF01DF91CF9108950F931F93CF93F0
:103D1000DF93009709F48CC0FC0132971382128262
:103D20000091D0041091D1040115110581F4208176
:103D30003181820F931F2091CE043091CF04281738
:103D4000390779F5F093CF04E093CE0471C0D80120
:103D500040E050E0AE17BF0750F412962D913C9111
:103D60001397AD012115310509F1D901F3CF9D015B
:103D7000DA013383228360817181860F971F821756
:103D8000930769F4EC0128813981260F371F2E5FD4
:103D90003F4F318320838A819B8193838283452B8C
:103DA00029F4F093D104E093D00442C01396FC931D
:103DB000EE931297ED01499159919E01240F351F01
:103DC000E217F30771F480819181840F951F0296A9
:103DD00011969C938E938281938113969C938E93DC
:103DE0001297E0E0F0E0D80112968D919C91139724
:103DF000009719F0F8018C01F6CF8D919C919801F4
:103E00002E5F3F4F820F931F2091CE043091CF043D
:103E10002817390769F4309729F41092D1041092C9
:103E2000D00402C0138212821093CF040093CE04F8
:103E3000DF91CF911F910F9108958F929F92AF9232
:103E4000BF92CF92DF92EF92FF92CF93DF93EC017C
:103E5000688179818A819B81611571058105910550
:103E600021F464E279ED8BE597E02DE133EF41E059
:103E700050E00E94791F49015A019B01AC01A7EA59
:103E8000B1E40E94981F6B017C01ACEEB4EFA50178
:103E900094010E94A61FDC01CB018C0D9D1DAE1D5F
:103EA000BF1DB7FF03C00197A109B048888399835C
:103EB000AA83BB83BC01CD019F77DF91CF91FF9097
:103EC000EF90DF90CF90BF90AF909F908F9008952C
:103ED0000E941D1F089589E091E00E941D1F089512
:103EE0006093090170930A0180930B0190930C0178
:103EF0000895052E97FB1EF400940E94901F57FD15
:103F000007D00E94AB1F07FC03D04EF40C94901F07
:103F100050954095309521953F4F4F4F5F4F0895F5
:103F200090958095709561957F4F8F4F9F4F089525
:103F30000E94CD1FA59F900DB49F900DA49F800D52
:103F4000911D11240895B7FF0C94981F0E94981F8B
:103F5000821B930B0895A1E21A2EAA1BBB1BFD0125
:103F60000DC0AA1FBB1FEE1FFF1FA217B307E40758
:103F7000F50720F0A21BB30BE40BF50B661F771FB0
:103F8000881F991F1A9469F7609570958095909590
:103F90009B01AC01BD01CF010895A29FB001B39F69
:103FA000C001A39F700D811D1124911DB29F700D42
:103FB000811D1124911D08950E94502088F09F5763
:103FC00098F0B92F9927B751B0F0E1F0660F771F3D
:103FD000881F991F1AF0BA95C9F714C0B13091F033
:103FE0000E946A20B1E008950C946A20672F782F10
:103FF0008827B85F39F0B93FCCF3869577956795F8
:10400000B395D9F73EF490958095709561957F4F63
:104010008F4F9F4F0895E89409C097FB3EF4909509
:104020008095709561957F4F8F4F9F4F9923A9F091
:10403000F92F96E9BB279395F69587957795679520
:10404000B795F111F8CFFAF4BB0F11F460FF1BC064
:104050006F5F7F4F8F4F9F4F16C0882311F096E9F7
:1040600011C0772321F09EE8872F762F05C06623A5
:1040700071F096E8862F70E060E02AF09A95660F5E
:10408000771F881FDAF7880F9695879597F9089517
:1040900057FD9058440F551F59F05F3F71F04795F9
:1040A000880F97FB991F61F09F3F79F087950895DE
:1040B000121613061406551FF2CF4695F1DF08C0FD
:1040C000161617061806991FF1CF8695710561051A
:1040D00008940895E894BB2766277727CB0197F9C2
:1040E00008950E9484200C94F5200E94E72038F067
:1040F0000E94EE2020F0952311F00C94DE200C9409
:10410000E42011240C946B200E94482070F3959FAA
:10411000C1F3950F50E0551F629FF001729FBB27BE
:10412000F00DB11D639FAA27F00DB11DAA1F649F5A
:104130006627B00DA11D661F829F2227B00DA11D0D
:10414000621F739FB00DA11D621F839FA00D611D93
:10415000221F749F3327A00D611D231F849F600DB4
:10416000211D822F762F6A2F11249F5750409AF0DD
:10417000F1F088234AF0EE0FFF1FBB1F661F771F69
:10418000881F91505040A9F79E3F510580F00C9434
:10419000DE200C946B205F3FE4F3983ED4F38695C9
:1041A00077956795B795F795E7959F5FC1F7FE2BD4
:1041B000880F911D9695879597F9089597F99F67B0
:1041C00080E870E060E008959FEF80EC089500249F
:1041D0000A941616170618060906089500240A946C
:1041E00012161306140605060895092E0394000CF2
:1041F00011F4882352F0BB0F40F4BF2B11F460FF81
:1042000004C06F5F7F4F8F4F9F4F0895DB018F93E7
:104210009F930E94981FBF91AF91A29F800D911D07
:10422000A39F900DB29F900D11240895991B79E0E2
:1042300004C0991F961708F0961B881F7A95C9F736
:104240008095089597FB072E16F4009407D077FD0C
:1042500009D00E943C2107FC05D03EF49095819541
:104260009F4F0895709561957F4F0895EE0FFF1F42
:104270000590F491E02D0994AA1BBB1B51E107C0E6
:10428000AA1FBB1FA617B70710F0A61BB70B881FE6
:10429000991F5A95A9F780959095BC01CD01089575
:1042A00081E090E0F8940C94552111E0C2EFD1E048
:1042B00004C0FE010E9436212196C33FD107C9F7F1
:0442C000F894FFCFA0
:1042C4000100010000D20480000100000000000091
:1042D40000ED096B071E021D020D0A004C4F4144FC
:0442E400455200003F
:00000001FF
