:100000000C94F3010C941B020C941B020C941B0225
:100010000C941B020C941B020C941B020C941B02EC
:100020000C941B020C941B020C941B020C94B30E38
:100030000C941B020C941B020C941B020C941B02CC
:100040000C945E0E0C941B020C941B020C941B026D
:100050000C941B020C941B020C941B020C941B02AC
:100060000C941B020C941B02E219E419F319F51904
:10007000F719F919091A091A091A091A091A091A8C
:10008000091AAB03C903DA03F803060414042604AF
:100090003C045204640480049D04B6040101FF037F
:1000A0000101F703A0009C000000000024002700CD
:1000B0002A0000000000250028002B0005008930E0
:1000C0000802380249786814000005003801680108
:1000D000000017534400161378001613140015106F
:1000E000200015201000540A03E181867F3E186D20
:1000F000830F0F0E0183866033186DC3198F1803A9
:10010000C38E6033186DE330CF1803C39E60363062
:10011000CDE360CF3006C79E7E3E30CDB360CF309A
:100120000CC6F6603330D9B660CF33CFCCF6606101
:10013000B0DB1E60CF30D86CE6C061B0DB1E618FD3
:1001400019986CC6C063B19B0E330F0FB078C6FF11
:100150007E1F1B061E0F536F6C6974616972650008
:10016000450068010000F6E8DBCFC3B8AEA49B925F
:100170008A827B746E68625C57524E4945413E3AB2
:100180003734312E2C29272523210A0A153A4967AD
:100190006E6F7265006D560A0A504C4541534520FA
:1001A0005455524E204F464620004C4F5720424156
:1001B000545445525921200003053F213F12081293
:1001C0000A100A0E1C0E0C1E0C141A14161F161EF2
:1001D000131E1E1B1E1E1F1E3F213F3A2F3A173DA6
:1001E000173F213F181F02040A041F0E04040E1FAC
:1001F0000A1F0A0E0E1F04110E2E252E2F2A2E2640
:100200002929021F02081F08150E04040E150E15D9
:10021000151B151B040604040C0400000000170045
:100220000300031F0A1F16371A1904130A153A0090
:100230000300000E11110E000A040A040E0400301F
:10024000000404040010001804031F111F121F10E3
:100250001D151711151F07041F17151D1F151D014B
:10026000011F1F151F17151F000A00003200040A86
:10027000110A0A0A110A040115020E11171E051EA1
:100280001F150A0E110A1F110E1F15111F05010E51
:10029000111D1F041F111F1108100F1F041B1F1019
:1002A000101F061F1E040F0E110E1F09060E112E21
:1002B0001F051A121509011F011F101F0F180F1F0C
:1002C0000C1F1B041B031C03191513001F1103042F
:1002D00018111F000201022020200001020C121E32
:1002E0001F120C0C12120C121F0C1A14041E0524DF
:1002F0002A1E1F021C141D1020201D1F0814111F70
:10030000101E041E1E021C0C120C3E0A040C123E8F
:100310001E040214160A020F120E101E0E100E1EDC
:10032000081E120C1226281E322A26041E21001F27
:1003300000211E040102013F213F172B1520102030
:100340004C4F4144455200172B16201314000A4EFF
:100350006F2053442063617264206F720A6E6F20B5
:100360004C4F414445522E4845580A0A153A4578A3
:100370006974001D20466C617368696E670A2020ED
:100380006C6F616465722E2E2E0A0A444F4E2754FC
:10039000205455524E204F464621000000000023B5
:1003A00000260029000404040404040404020202D8
:1003B00002020203030303030301020408102040A6
:1003C000800102040810200102040810200000002F
:1003D0000800020100000304070000000000000004
:1003E0000000C11B971B11241FBECFEFD8E0DEBF5A
:1003F000CDBF11E0A0E0B1E0EAE1FFE302C005906B
:100400000D92A432B107D9F724E0A4E2B1E001C013
:100410001D92A23CB207E1F711E0C2EFD1E004C0A7
:100420002197FE010E94611FC13FD107C9F70E94B9
:1004300036140C94801F0C940000089580E090E026
:100440000895CF93DF93C82FD62F0E9469106D2F88
:100450008C2F0E9441106D2F8C2F0E9439106D2F10
:100460008C2F0E9458106D2F8C2FDF91CF910C9400
:100470005010CF93DF93C82FD62F0E9441106D2FBD
:100480008C2F0E9439106D2F8C2F0E9461106D2FC0
:100490008C2FDF91CF910C945810FC01643508F03B
:1004A00053C0403308F050C090A1742F75957595D6
:1004B0007595262F062E000C330B542F5770923053
:1004C000A1F4F901EC5CFD4F84E57802E00DF11D2B
:1004D0001124808190E0052E02C0959587950A949D
:1004E000E2F78095982F91700AC0933041F484858B
:1004F0008170462740954170841303C014C0911148
:1005000012C084E57802200D311D1124F901EC5C44
:10051000FD4F81E090E001C0880F5A95EAF7809581
:100520009081892310C084E57802200D311D1124AB
:10053000F901EC5CFD4F81E090E001C0880F5A9515
:10054000EAF79081892B80830895AF92BF92CF9272
:10055000DF92EF92FF920F931F93CF93DF93082FB9
:10056000162FF42E47FF02C083E001C080E0809385
:10057000A5048093A604C1E0C10FEE24E394E00E2D
:10058000DC2FCC2E0C2E000CDD088CE0C80ED11C0C
:100590008D2F0D2E000C990B8C159D054CF428E029
:1005A0004D2F6E2D85E894E00E94FD0EDF5FF0CFA9
:1005B00081E08093A5048093A60428E0412F6E2D4E
:1005C00085E894E00E94FD0E28E04DE0410F6E2D7D
:1005D00085E894E00E94FD0E2CE04C2F602F85E80A
:1005E00094E00E9416102CE04C2F69E0600F85E823
:1005F00094E00E941610F7FCE9C18F2D90E074E0A2
:10060000959587957A95E1F7837099279C012250FB
:1006100031092230310508F4D3C122E0B22EB10EE7
:1006200032E0D32ED00ED4E0D00F43E0C42EC10E62
:1006300053E0E52EE00E64E0A62EA10EC5E0C00F4B
:100640008230910509F444C08330910509F450C00B
:100650000197C9F04B2D6D2F85E894E00E944D0263
:1006600023E04C2D6E2D85E894E00E94FD0E25E0E0
:100670004A2D6D2D85E894E00E94FD0E25E045E0B1
:10068000410F6D2D4DC023E04B2D6E2D85E894E07C
:100690000E94FD0E23E04A2D6E2D85E894E00E9415
:1006A000FD0E23E04C2D6D2D85E894E00E94161080
:1006B00023E04C2D66E0600F85E894E00E94161060
:1006C00024E04C2D6D2F85E894E00E94161033C075
:1006D0004B2D6E2D85E894E00E944D024B2D6C2F22
:1006E00085E894E00E944D0225E04C2D6D2D09C057
:1006F0004B2D6D2F85E894E00E944D0223E04C2D98
:100700006E2D85E894E00E94FD0E25E04A2D6D2DAA
:1007100085E894E00E94FD0E23E045E0410F6E2D38
:1007200085E894E00E94FD0E46E0410F6D2F85E8BC
:1007300094E00E944D02D7E0D10FEF2DEF704E2FC5
:1007400050E0FA013197ED30F10508F03FC1EF5B61
:10075000FF4F0C94611F86E0F82EF00E4D2F6F2D89
:1007600085E894E00E944D02D8E0D10F24E04D2F9F
:100770006C2F85E894E00E94161067E0600F24E07B
:100780004D2F85E894E00E94161049E0410F6F2D2F
:10079000C6C06D2F8C2F0E9469106D2F8C2F0E9468
:1007A00061106D2F8C2F0E9439106D2F8C2F0E949D
:1007B000481010C06D2F8C2F0E9469106D2F8C2F48
:1007C0000E9461106D2F8C2F0E9439106D2F8C2F7D
:1007D0000E9458106D2F8C2FDF91CF911F910F9198
:1007E000FF90EF90DF90CF90BF90AF900C9450109F
:1007F0006D2F8C2FDF91CF911F910F91FF90EF9074
:10080000DF90CF90BF90AF900C9439026D2F8C2F5A
:10081000DF91CF911F910F91FF90EF90DF90CF90DC
:10082000BF90AF900C9421026D2F8C2F0E9421025B
:100830006D2F8C2FDF91CF911F910F91FF90EF9033
:10084000DF90CF90BF90AF900C9448106D2F8C2FFD
:100850000E9469106D2F8C2F0E9461106D2F8C2FBC
:10086000DF91CF911F910F91FF90EF90DF90CF908C
:10087000BF90AF900C9458106D2F8C2F0E942102C6
:100880006D2F8C2F0E9448106D2F8C2FDF91CF91F0
:100890001F910F91FF90EF90DF90CF90BF90AF909E
:1008A0000C9461106D2F8C2F0E9439026D2F8C2FAC
:1008B000DF91CF911F910F91FF90EF90DF90CF903C
:1008C000BF90AF900C9469106D2F8C2F0E9469100F
:1008D0006D2F8C2F0E9461106D2F8C2F0E9458104D
:1008E0006D2F8C2F0E9450106D2F8C2F0E9448105E
:1008F0006D2F8C2F0E94411025E04D2F6E2D52C080
:100900006D2F8C2F0E9461106D2F8C2F0E9458101C
:100910006D2F8C2F0E9450104AE0410F6C2F85E8FC
:1009200094E0DF91CF911F910F91FF90EF90DF90B6
:10093000CF90BF90AF900C944D026D2F8C2F0E94E2
:1009400069106D2F8C2F0E9461106D2F8C2F0E94CB
:1009500041104AE0410F23E06C2F85E894E00E94AB
:10096000FD0E4BE0410F66E0600FD9CF6D2F8C2F4D
:100970000E9441106D2F8C2F0E94481049E0410FBA
:1009800066E0600F85E894E00E944D02095F22E076
:100990004D2F602F85E894E00E9416104AE0410F29
:1009A00022E0602F85E894E0DF91CF911F910F91B5
:1009B000FF90EF90DF90CF90BF90AF900C94161007
:1009C00023E02093A5042093A60427CEDF91CF91A6
:1009D0001F910F91FF90EF90DF90CF90BF90AF905D
:1009E0000895DC0115969C911597992359F012965C
:1009F000ED91FC911397915015969C93E90FF11D81
:100A00008081089581E00895DC0115962C91159759
:100A100030E0621773075CF4261B370B1296ED91DA
:100A2000FC911397E20FF31F31978081089582E2C2
:100A300008950F931F93CF93DF938C01C0E0D0E014
:100A4000F801658170E0C617D70794F46C1B7D0B25
:100A500061507109C8010E9404056C2F660FF801EE
:100A60009181690F482F80810E94A5022196E8CFCD
:100A7000DF91CF911F910F910895FC012581848111
:100A8000281748F48281938131E0320F3583FC01CD
:100A9000E20FF11D60830895FC018281938100972C
:100AA00011F00C94B01C08950F931F93CF93DF9314
:100AB0008C01FC0115826483C62FD0E0CE010E9418
:100AC0001B1CFC01C80FD91F21E0EC17FD0711F01A
:100AD0002193FBCFF80193838283DF91CF911F9104
:100AE0000F910895FC01908197FF02C09F7701C08C
:100AF0009068908308952F923F924F925F926F92E9
:100B00007F928F929F92AF92BF92CF92DF92EF929D
:100B1000FF920F931F93CF93DF93CDB7DEB7279745
:100B20000FB6F894DEBF0FBECDBF8091A704882317
:100B300009F487C181E080938D0410928C04109297
:100B40008B0410924F048093A5048093A60490E632
:100B5000292E91E0392EBB24B394CC24C3941CE0FD
:100B60000E945D088823E1F3E6E5F1E08491E6EE7A
:100B7000F0E08490E7EEF0E04490F090A504082CBB
:100B8000000C9908181419040CF110928E0410939B
:100B90008F0486E591E00E94C31180918904982F0B
:100BA000990F890F81958D5A80938E0480918A04C4
:100BB000982F990F890F8195835D80938F04809181
:100BC000A80484FFA7C082EE90E0A6C01414ECF63F
:100BD000442D41330CF040E3382DF5E58F16910498
:100BE0000CF034E5E090910487E0880E911C83E0DE
:100BF000959487948A95E1F700E084E392E021E000
:100C000068EE70E0442E440F5508402F50E0441524
:100C100055050CF0BACFFB01D490F1E0FF1218C0DB
:100C2000FB01DC0140E8542F5D2119F05C91522B4F
:100C30005C9350E0559547954115510519F431964F
:100C4000D49040E811965A2F581B531760F359C09F
:100C5000F1101AC0A22EA094FB01DC0140E8542F31
:100C60005D2119F05C915A215C9350E055954795B0
:100C70004115510519F43196D49040E811965A2F38
:100C8000581B531760F33DC043E0F41223C0722E8B
:100C90007094FB01DC0140E8A82E6A2E681A542FDC
:100CA0005D2141F06E245C9160FE02C0522B01C0B8
:100CB00057215C9350E0559547954115510519F41E
:100CC0003196D49040E811965A2F5A19531728F3A9
:100CD000EB2417C0FB01DC0140E8542F5D2119F023
:100CE0005C9152275C9350E055954795411551050D
:100CF00019F43196D49040E811965A2F581B531787
:100D000060F3220F19F48C5A9F4F21E00F5F680D9A
:100D1000791D7BCF8EED90E00E94E41180918904D3
:100D2000982F990F890F81958D5A80938E04809109
:100D30008F048F5F80938F0480916104882319F062
:100D40008AED90E002C086ED90E00E94E41180916F
:100D50008904982F990F890F81958D5A80938E045D
:100D600080918F048F5F80938F0482ED90E00E94CA
:100D7000E41180914D04813041F5809161048F5FD1
:100D80006091620487FD09C0082E000C990B70E089
:100D90006F5F7F4F0E944D1F682F6093610480E05A
:100DA0000E94F91030926A042092690410926F0434
:100DB00010926E04C0925D0489E0809372041092D8
:100DC0007504109277041092790480914C0481305C
:100DD000B9F08091A704482F50E060E070E04090A7
:100DE000A8045090A9046090AA047090AB04441623
:100DF00055066606770608F458C18F3F09F455C1B9
:100E00008FEF8093A70480E00E94F91080E00E9499
:100E1000F9108AEC90E090936A0480936904109230
:100E20006F0410926E0481E080935D0499E09093CA
:100E300072041092750410927704109279048093D2
:100E40004F04C0905104D0905204C094D094E12C2F
:100E5000F12C0E94FF0D4B015C010E94FF0DA501CA
:100E600094012095309540955095609570958095AA
:100E700090950E94311F9B01AC01C701B6010E94F1
:100E8000311F4B015C0180913804909139046C0151
:100E9000E12CF12C0E94FF0DC60ED71EE81EF91E94
:100EA000C701B601680D791D8A1D9B1D611571056D
:100EB0008105910511F00E949B1D10924F04109224
:100EC0002402109223028BE08093250185E0809319
:100ED00024011092160210922202E12CF12CC7017B
:100EE00024E0880F991F2A95E1F7082F006811E088
:100EF000612F602B8DE192E00E943D051F5F1E3047
:100F0000B9F78FEFE81AF80A94E0E916F10439F717
:100F100000E010E02091220230E0021713077CF578
:100F20007901E01AF10A49F00E94961D9701FF0C21
:100F3000440B550B0E94A41D03C060E070E0CB0180
:100F400020911F0230912002F901E60FF71F9081D6
:100F5000A0912202B0E0A01BB10BA20FB31F11970A
:100F60008C91808380912202E82FF0E0E01BF10B4E
:100F7000E20FF31F319790830F5F1F4FCBCF10927B
:100F8000FE011092040210920A021092100280E0F8
:100F900090E0FC01E153FE4F158206968A329105DE
:100FA000C1F71092CE018FEC882E81E0982E00E0E0
:100FB00010E096E0492EDE0111965D0177247394CE
:100FC00055245394602E660C7801C12CD12C8DE1F0
:100FD00092E00E94F1048F830E151F0521F4CE01CB
:100FE00007960E9472052091CE01F501442D1192C1
:100FF0004A95E9F75982429EC00111248A5D9E4FAD
:10100000F501DC01342D01900D923A95E1F7DC01F8
:1010100012967C92129713967C921397F401EC0D22
:10102000FD1D308114963C9314973181360D159631
:101030003C9315971196EC9211973F813C932F5F4B
:101040002093CE01BFEFEB1AFB0AE6E0CE0ED11CD7
:10105000F7E0EF16F10409F0BACF0F5F1F4F46E03B
:10106000840E911C0730110509F0ACCF1092CE010F
:10107000109201011092000127960FB6F894DEBF7E
:101080000FBECDBFDF91CF911F910F91FF90EF90D9
:10109000DF90CF90BF90AF909F908F907F906F9098
:1010A0005F904F903F902F90089580914E04813033
:1010B00009F056CD0E94F2114ECD4F925F926F9281
:1010C0007F928F929F92AF92BF92CF92DF92EF92D8
:1010D000FF920F931F93CF93DF9300D000D01F9206
:1010E000CDB7DEB74091B7045091B8046091B90410
:1010F0007091BA042FB7F89480912A0290912B0234
:10110000A0912C02B0912D022FBF481B590B6A0BE6
:101110007B0B8091B60490E0A0E0B0E00091B204B7
:101120001091B3042091B4043091B504841795074D
:10113000A607B70730F4011511052105310509F09F
:1011400044C3012B022B032B09F03DC380914E04B5
:1011500081508E3FC0F580914D048130C9F580915A
:1011600061048F5F6091620487FD09C0082E000C46
:10117000990B70E06F5F7F4F0E944D1F682F609347
:10118000610487E493E09093BC048093BB0488E4FB
:101190008093BD0480E00E94F91080E691E0909376
:1011A0006A048093690410926F0410926E0481E0C7
:1011B00080935D0489E0809372041092750410920C
:1011C00077041092790480914E0481508E3F70F420
:1011D00080914C04813009F0A4C38AE393E090939A
:1011E000BC048093BB0488E48093BD0480E00E942B
:1011F000271280915D04882309F4ABC080917104AB
:101200008111A7C08091690490916A04E0916E04F5
:10121000F0916F04EE0FFF1FE80FF91F45915491F5
:1012200041155105F1F420916D04222331F0109203
:101230006F0410926E04FC0112C010925D04809144
:101240005C04882341F080E00E942712E0916E0444
:10125000F0916F042DC080E00E94E4107AC04591A7
:1012600054919A01369527953695279540FF51C0A0
:10127000CA01B6E096958795BA95E1F78F71952FDB
:1012800096959695969590512F70223071F1F8F4BD
:10129000211117C08B3008F08AE080937204E0912E
:1012A0006E04F0916F043196F0936F04E0936E0436
:1012B000EE0FFF1F8091690490916A04E80FF91FF7
:1012C000CECF213061F760E00E949112E8CF233049
:1012D000B1F0243021F720916004829F802D1124E9
:1012E0008093790490937A04DACF20916004829FEE
:1012F000802D11248093750490937604D0CF209193
:101300006004829F802D1124809377049093780449
:10131000C6CF2F732093700480916004859F802D29
:101320001124809371041092810410928004109211
:101330007F0481E0809373048093340410927404DA
:1013400080916E0490916F04019690936F04809346
:101350006E0480917304882309F4EEC080917104B7
:10136000811103C00E94E410E7C081508093710492
:1013700080918104811146C020917F0430918004C6
:101380002F5F3F4FC901880F991FE0917B04F091B7
:101390007C04E80FF91F65917491862F8770809304
:1013A0008204AB0163E0569547956A95E1F7CA015F
:1013B00096958795972F96959695909383048F731E
:1013C00090916004899F802D112480938104417045
:1013D000409329023093800420937F0480917D0400
:1013E00090E02817390770F020917E04222339F00D
:1013F000821B91099093800480937F0403C080E056
:101400000E94E41080918104815080938104809136
:10141000740421E0280F20937404409170043091EB
:101420008304340F80916804380F30935E04609118
:101430007704662371F070E0822F022E000C990B66
:101440000E944D1F80917804869F300D11243093A7
:101450005E0480915E0490E0849664E270E00E94F5
:101460004D1F80935E043091720430935F0460914D
:101470007504662381F0062E000C770B822F022E56
:10148000000C990B0E944D1F80917604869F300DB1
:10149000112430935F04609179046623A1F0822FB8
:1014A000220F990B70E00E944D1FCB0162E070E0AB
:1014B0000E944D1F20917A0490915F04289F900D07
:1014C000112490935F0480915F044F3341F08A3080
:1014D0000CF089E087FD80E080935F0402C01092E9
:1014E0005F04F894E0915E04F0E0EA59FE4FE49165
:1014F000E093280230915F0420918404320390012C
:101500001124409182044203C001439F900D112495
:101510000090610402C0880F991F0A94E2F797FFB8
:1015200002C081589F4F880F892F881F990B809385
:1015300035048093360478948091BD04882309F49F
:1015400097C08C3020F49CE0D92ED81A01C0D12C41
:1015500081E080938D041092A5041092A60410914E
:101560008A0483E0810F3D2D311B335D032FE82E6C
:10157000880FFF08E30EF11C37FDFA94802F002E30
:10158000000C990B8E159F055CF42EE4402F63E050
:1015900085E894E03D830E94FD0E0F5F3D81EECF14
:1015A000145003E0030F212F41E0602F80E50E94DB
:1015B0004A13212F42E0602F83E00E944A1381E00A
:1015C0008093A5048093A60400918A048D2D801B2E
:1015D0003DE2F32EF80E2EE44F2D63E085E894E013
:1015E0000E94FD0E13E0100F1F0D4FEF410F2EE470
:1015F00063E085E894E00E94FD0E035033E0F30EB3
:10160000202F4F2D60E085E894E00E941610202FD7
:101610004F2D63E585E894E00E94161041E06F2DA0
:1016200083E00E94CC1242E06F2D80E50E94CC1234
:10163000145044E0612F80E50E94CC1248E0612FF5
:1016400083E00E94CC1284E080938E0480918A040F
:10165000D81A8D2D815D80938F048091BB04909169
:10166000BC040E94C3118091BD0481508093BD04CD
:101670008091530490915404892B09F47CC011E0AB
:101680001093A5041092A6049091890485E5891B06
:1016900080938E0410928F0480915004813009F45D
:1016A0004DC030F090914F04853008F05FC05AC0B3
:1016B00080E00E94F91010938D04E8EBF1E0E491D2
:1016C000EF5FE0938904E9EBF1E0E491EF5FE093F1
:1016D0008A048AEB91E09093A4048093A30410926F
:1016E00054041092530410928B0418EA0E945D086F
:1016F0008823E1F38AEA91E00E94C31160915104CA
:101700007091520480E090E04AE00E94AD1385E9B8
:1017100091E00E94C311612F62956F7070E080E0CC
:1017200090E04AE00E94AD138AE891E00E94C31164
:1017300080914C04813009F0FAC01DC08091A8044A
:101740009091A904A091AA04B091AB048F7099273D
:10175000AA27BB270897A105B10510F487E009C0A7
:1017600088E707C0992339F08B5F03C0992319F0EC
:101770008FE20E94EE130E94831180918B048111ED
:101780000EC088EF91E0E4E3F2E0DF019C011D92DE
:1017900021503040E1F710928E0410928F040E9485
:1017A000FF0D6093B2047093B3048093B4049093DC
:1017B000B5042091AE043091AF04621B730B70939B
:1017C000AD046093AC0480E0CCC02FB7F894809156
:1017D0002A0290912B02A0912C02B0912D022FBFD2
:1017E0002091B604820F911DA11DB11D8093B704F5
:1017F0009093B804A093B904B093BA048091A8045C
:101800009091A904A091AA04B091AB040196A11DE6
:10181000B11D8093A8049093A904A093AA04B09347
:10182000AB041092B2041092B3041092B40410925C
:10183000B5040E94FF0D6093AE047093AF048093D3
:10184000B0049093B10480913804909139042FE052
:10185000289F8001299F100D112485E10E94E80D29
:10186000800F911F24E0969587952A95E1F7909334
:1018700039048093380420913704222309F44BC0A3
:1018800060913B04262F30E040E050E029833A830A
:101890004B835C83C0903C04D12CE12CF12C409113
:1018A0003F04509140044A01A12CB12C20913D04E9
:1018B00030913E042901612C712C8217930728F086
:1018C0009C014817590708F49A01C901A0E0B0E04B
:1018D0009C01AD01241935094609570969817A81AE
:1018E0008B819C816C197D098E099F090E94311F93
:1018F000A501940124193509460957090E94A41D20
:10190000C20ED31EE41EF51EC0923A046C2D70E088
:1019100085E00E94890D0E9410110E94F91381E058
:1019200020C0893209F062CC0E94F2115FCC1150C4
:1019300009F0DCCE60E070E085E00E94890D83B79D
:10194000817F846083BF83B7816083BF83B78160F9
:1019500083BF889583B78E7F83BF83B78E7F83BF16
:10196000C5CE0F900F900F900F900F90DF91CF91F9
:101970001F910F91FF90EF90DF90CF90BF90AF90AD
:101980009F908F907F906F905F904F900895CF922F
:10199000DF92EF92FF920F931F93CF93DF936C012F
:1019A0007A018B01C0E0D0E0CE15DF0589F0D801C7
:1019B0006D918D01D601ED91FC910190F081E02DAA
:1019C000C6010995892B11F47E0102C02196ECCF46
:1019D000C701DF91CF911F910F91FF90EF90DF90A2
:1019E000CF9008950E947B1F833081F028F48130CE
:1019F00099F08230A1F008958730A9F08830B9F0CD
:101A00008430D1F4809180008F7D03C0809180006C
:101A10008F7780938000089584B58F7702C084B556
:101A20008F7D84BD08958091B0008F7703C0809131
:101A3000B0008F7D8093B00008951F93CF93DF9304
:101A4000282F30E0F901E353FC4F8491F901E7546A
:101A5000FC4FD491F901EB55FC4FC491CC23C9F054
:101A6000162F81110E94F40CEC2FF0E0EE0FFF1FF7
:101A7000EE54FF4FA591B4918FB7F894111105C0A2
:101A80009C91ED2FE095E92302C0EC91ED2BEC93B6
:101A90008FBFDF91CF911F910895CF93DF9390E097
:101AA000FC01E754FC4F2491FC01EB55FC4F849161
:101AB000882361F190E0880F991FFC01E855FF4FE2
:101AC000C591D491FC01EE54FF4FA591B4916111E1
:101AD00009C09FB7F8948881209582238883EC9170
:101AE0002E230BC0623061F49FB7F8943881822FA7
:101AF000809583238883EC912E2B2C939FBF06C067
:101B00008FB7F894E8812E2B28838FBFDF91CF9178
:101B100008951F93CF93DF93182FEB0161E00E948C
:101B20004D0D209711F460E004C0CF3FD10539F48A
:101B300061E0812FDF91CF911F910C941D0DE12F5A
:101B4000F0E0E353FC4FE491E330F9F048F4E13086
:101B5000B9F0E230A1F584B5806284BDC8BD34C05F
:101B6000E730E9F0E83019F1E43049F58091800080
:101B7000806280938000D0938B00C0938A0024C041
:101B800084B5806884BDC7BD1FC080918000806817
:101B900080938000D0938900C093880015C0809105
:101BA000B00080688093B000C093B3000DC08091F6
:101BB000B00080628093B000C093B40005C0C0380C
:101BC000D1050CF0B5CFAFCFDF91CF911F91089524
:101BD0008E3008F08E508770806480937C008091F6
:101BE0007A00806480937A0080917A0086FDFCCF31
:101BF000809178002091790090E0922B08953FB772
:101C0000F8948091300290913102A0913202B0910B
:101C1000330226B5A89B05C02F3F19F00196A11DE0
:101C2000B11D3FBFBA2FA92F982F8827820F911D72
:101C3000A11DB11DBC01CD0142E0660F771F881FB9
:101C4000991F4A95D1F708958F929F92AF92BF92B4
:101C5000CF92DF92EF92FF926B017C010E94FF0D09
:101C60004B015C01C114D104E104F104F1F00E94C4
:101C7000FF0DDC01CB0188199909AA09BB09883E2F
:101C80009340A105B10570F321E0C21AD108E10823
:101C9000F10888EE880E83E0981EA11CB11CC114C7
:101CA000D104E104F10419F7DDCFFF90EF90DF904C
:101CB000CF90BF90AF909F908F9008951F920F92FA
:101CC0000FB60F9211242F933F938F939F93AF934F
:101CD000BF9380912A0290912B02A0912C02B09187
:101CE0002D0230912F0223E0230F2D3720F401968F
:101CF000A11DB11D05C026E8230F0296A11DB11D2F
:101D000020932F0280932A0290932B02A0932C02FF
:101D1000B0932D028091300290913102A091320255
:101D2000B09133020196A11DB11D809330029093B2
:101D30003102A0933202B0933302BF91AF919F91D1
:101D40008F913F912F910F900FBE0F901F9018957C
:101D500080913404882319F08091360401C080E01A
:101D60008093B40008951F920F920FB60F92112422
:101D70002F933F934F935F936F937F938F939F9393
:101D8000AF93BF93EF93FF9360913504662321F1E6
:101D900080912E028F5F80932E02909128028917E6
:101DA000D8F09091340481E0892780933404109214
:101DB0002E0280912902882369F08091020193E428
:101DC000899F802D1124895B809302010E94411F0D
:101DD000909336040E94A80EFF91EF91BF91AF91AE
:101DE0009F918F917F916F915F914F913F912F9133
:101DF0000F900FBE0F901F901895DF92EF92FF92F9
:101E00000F931F93CF93DF931F92CDB7DEB78C0153
:101E1000D62EF42EE12CE21654F46E2D6D0D4F2DBE
:101E2000C80129830E944D02E3942981F4CF0F90C9
:101E3000DF91CF911F910F91FF90EF90DF90089568
:101E40002F923F924F925F926F927F928F929F92CA
:101E5000AF92BF92CF92DF92EF92FF920F931F93B8
:101E6000CF93DF93EC016A3019F42D819885C3C0BC
:101E70006D3009F4C6C038847A84D98448A083E5DB
:101E80008D150CF4A1C08FE287150CF49DC08C81D8
:101E900090E00197389E9001399E300D1124C901C0
:101EA0008D0D911DD7FC9A95181619060CF08CC053
:101EB0008D81839DC0011124870D911D77FC9A951A
:101EC000181619060CF080C05D2CCD2CE62EF12CD6
:101ED000A32C032C000CBB08EC2DED190E2E000CCE
:101EE000FF0B8C8190E0E817F9070CF06CC00197AC
:101EF000E817F90779F0E89E9001E99E300DF89E09
:101F0000300D1124E20FF31F8E8D9F8DE80FF91F06
:101F1000149101C010E0072D672C262D2719022EE1
:101F2000000C330B8D8190E0281739070CF048C066
:101F300010FF1EC081E0381206C0462D6C2DCE0168
:101F40000E944D0239C0202E4501800E911C07FDD4
:101F50009A94822D022C000C990B8815990564F532
:101F6000232D422D652DCE010E94FD0E2394F1CF2D
:101F700089A198A1891701F188A381E0381206C0D0
:101F8000462D6C2DCE010E944D0215C0202E45011C
:101F9000800E911C07FD9A94822D022C000C990B47
:101FA0008815990544F4232D422D652DCE010E94FC
:101FB000FD0E2394F1CF48A216956394030DADCF87
:101FC000C394530C89CF48A228853C818985329FD0
:101FD000800D112489879F81992399F0082E000C88
:101FE000990B44E550E0239F4019510911244817EB
:101FF00059073CF49D818A85299F800D11248A8789
:10200000198681E090E0DF91CF911F910F91FF90B1
:10201000EF90DF90CF90BF90AF909F908F907F9088
:102020006F905F904F903F902F900895DF92EF92C6
:10203000FF920F931F93CF93DF931F92CDB7DEB71D
:102040008C01D62EF42EE12CE21654F44E2D4F0DB9
:102050006D2DC80129830E944D02E3942981F4CF9C
:102060000F90DF91CF911F910F91FF90EF90DF9034
:10207000089542E0460F23E0682F85E894E00C9431
:10208000FD0E462F23E0682F85E894E00C9416108F
:1020900042E0460F23E0682F85E894E00C94161088
:1020A00044E0460F23E0682F85E894E00C94FD0E91
:1020B00042E0460F62E0680F23E085E894E00C946C
:1020C0001610462F62E0680F23E085E894E00C9438
:1020D0001610462F23E0682F85E894E00C94FD0E3F
:1020E0001F93CF93DF93C82F162F861721F1862FCA
:1020F00090E08C1B910963E070E00E944D1FD62F89
:10210000611117C06091A8047091A9048091AA047C
:102110009091AB0423E030E040E050E00E94D61DF7
:10212000672B682B692B29F4C11710F0DFEF01C072
:10213000D1E08D2F8C0FDF91CF911F910895809169
:102140002302909124028630910554F48230910547
:10215000A4F40097E9F00197D1F421E132E01AC02C
:102160008D309105A4F4069746E0489F9001499F61
:10217000300D112421533E4F0DC0029746E0489F79
:102180009001499F300D112427503E4F03C0089500
:102190002DE132E0C9010895BC01009791F0FC01E6
:1021A00001900020E9F73197AF01481B590BE091EE
:1021B0008504F09186040280F381E02D85E894E0A7
:1021C000099480E090E00895811112C01092730488
:1021D000109271041092800410927F041092740483
:1021E0001092360410923504109234040C94A80E08
:1021F0000895811114C0109273041092710410920A
:10220000800410927F04109274041092360410928D
:102210003504109234040E94A80E10925D040895B3
:10222000CF92DF92EF92FF920F931F93CF93DF93A2
:10223000C1E4D4E008E414E0FF24FA9497E0E92E26
:10224000E00E62E088810E944D0D288130E0F901A6
:10225000E353FC4F8491F901E754FC4FC490F9011A
:10226000EB55FC4FD490DD2071F081110E94F40CED
:10227000ED2DF0E0EE0FFF1FE556FC4FA591B49158
:10228000EC91EC21B1F4F80180818F5F808360E0F4
:1022900088810E944D0D21960F5F1F4FE012D1CF14
:1022A000DF91CF911F910F91FF90EF90DF90CF9032
:1022B0000895F8018081882371F3F8018F3F11F4AC
:1022C0001082E5CFF082E3CFCF93C82FF89460E07F
:1022D000809194040E941D0D8091950418161CF4A1
:1022E00060E00E941D0DCEBD00000DB407FEFDCFC5
:1022F0008EB58091950418161CF461E00E941D0DA6
:102300007894CF9108950F931F93CF938091910468
:102310008F5F8093910404E312E0C0E08C2F80640F
:102320000E94641180E80E94641161E0809194042D
:102330000E941D0D8091950418161CF460E00E9407
:102340001D0D80E090E0F801E80FF91F20812EBDFF
:1023500000000DB407FEFDCF2EB501968435910522
:1023600091F78091950418161CF461E00E941D0DF0
:10237000CF5F0C5A1F4FC63089F680E4CF911F9172
:102380000F910C9464110F931F93CF93DF938C01E3
:10239000C0E0D0E0F801EC0FFD1F6491662371F0FE
:1023A000E0918504F09186040190F081E02D85E8AC
:1023B00094E00995892B11F02196ECCFCE01DF91A5
:1023C000CF911F910F910895CF93DF930E94C31176
:1023D000EC0189E191E00E94CC108C0F9D1FDF91F0
:1023E000CF91089588EF91E0E4E3F2E0DF019C01F2
:1023F0001D9221503040E1F710928E0410928F040C
:1024000083E793E00E94C3110E9483118CB583601F
:102410008CBD8DB58E7F8DBD8CE191E0EEEFFFE33D
:10242000099510928B048EE493E00E94E4110E94BF
:1024300083110E94101180914C04813039F062E3C5
:1024400070E080E090E00E94240EF3CF0895AF92F8
:10245000BF92CF92DF92EF92FF920F931F93CF9391
:10246000DF93C82ED12CE601C95CDB4F9DA19923D7
:1024700009F44CC07E019FEFE91AF90AF70195A112
:10248000911144C09EA58601000F111F095C1B4FCE
:10249000F80134A525A5E32FF22FE90FF11DE90F6F
:1024A000F11D259134912F3FFFEF3F0711F41DA23D
:1024B0002DC039ABF601EE0FFF1FEF5BFB4F33274B
:1024C000220F331F05A0F6A1E02DE20FF31FA59008
:1024D000B490811117C00E94F910F801B3AAA2AA02
:1024E000F601EE0FFF1FE75BFB4F16A215A281E07E
:1024F000F70185A389E08BAF1EAEFE017B9615A286
:10250000329615A229968DA18F5F8DA3DF91CF9171
:102510001F910F91FF90EF90DF90CF90BF90AF9001
:10252000089570E0DB01AA0FBB1FA95CBB4FD496D6
:102530002C91D497D5969C91D597E22FF92FE80F3F
:10254000F11DE80FF11D259134915F9696963C930D
:102550002E939597F9018591949190916004989F9D
:10256000802D1124695C7B4FFB01B19685A3F90195
:10257000A591B4914B2F50E0E82FF0E04E175F0784
:1025800020F4F90125913491832FFB01B296899FA4
:10259000802D112485A30895AF92BF92CF92DF9230
:1025A000EF92FF920F931F93CF93DF93182F062F75
:1025B000C1E0D3E08AEFD82E9EEFE92E842F8470FD
:1025C000C82E842F8270B82E842F8870A82E417058
:1025D000F42E8C2F880F8F5FE80ECC2081F04D2FCA
:1025E000400F6C2F610F85E894E00E944D024C2F44
:1025F000400F6D2F610F85E894E00E944D02BB20D3
:1026000081F0402F4D1B6C2F610F85E894E00E94F4
:102610004D02402F4C1B6D2F610F85E894E00E9406
:102620004D02AA2081F04C2F400F612F6D1B85E8D1
:1026300094E00E944D024D2F400F612F6C1B85E8E6
:1026400094E00E944D02FF2081F0402F4C1B612F2F
:102650006D1B85E894E00E944D02402F4D1B612FB9
:102660006C1B85E894E00E944D02CD1744F4E7FC12
:1026700004C0D150D394D394ED0CCF5FAACFDF9197
:10268000CF911F910F91FF90EF90DF90CF90BF906F
:10269000AF9008959F92AF92BF92CF92DF92EF9248
:1026A000FF920F931F93CF93DF93F82EE62EB22E57
:1026B00003E0020FD0E0C3E08AEFC82E1EEF842FA4
:1026C0008170982EAA24A394A20E4270D42EDF5FAC
:1026D000802F8B19180F9920A1F02C2F220F2A0D73
:1026E0004E2D4C1B6D2F6F0D85E894E00E94161047
:1026F000202F4E2D4D1B6C2F6F0D85E894E00E940E
:102700001610DD20A1F02C2F220F2A0D4E2D4C1B70
:102710006F2D6D1B85E894E00E941610202F4E2D22
:102720004D1B6F2D6C1B85E894E00E941610DC1782
:1027300044F417FD04C0C150C394C3941C0D0E5F34
:10274000C6CFDF91CF911F910F91FF90EF90DF9057
:10275000CF90BF90AF909F9008958F929F92AF922D
:10276000BF920F931F93CF93DF93CDB7DEB7A1979F
:102770000FB6F894DEBF0FBECDBF19A2423008F4E9
:102780004AE08E010F5D1F4F842E912CA12CB12C9D
:10279000A50194010E94D61DE62FB901CA0101507E
:1027A0001109EA3014F4E05D01C0E95CD801EC9352
:1027B000232B242B252B61F7C8010E94CC10A19656
:1027C0000FB6F894DEBF0FBECDBFDF91CF911F9142
:1027D0000F91BF90AF909F908F900895E0918504E6
:1027E000F09186040190F081E02D682F85E894E057
:1027F00009948091530490915404892BB1F18091F4
:102800005B048F7169F584E10E94E80DBC01990FAA
:10281000880B990B0E94381E26EE3FE34EEC50E4E5
:102820000E949C1E0E94071E9B017093520460939D
:102830005104672B91F084E080935004E3E5F4E0C9
:1028400080E0419151912417350718F4809350048A
:1028500008958F5F8430A9F703C08FEF80935004F1
:1028600080915B048F5F80935B040895CF93DF9327
:1028700000D01F92CDB7DEB7789484B5826084BD56
:1028800084B5816084BD85B5826085BD85B5816074
:1028900085BD80916E00816080936E0010928100F2
:1028A00080918100826080938100809181008160AD
:1028B000809381008091800081608093800080916E
:1028C000B10084608093B1008091B00081608093FA
:1028D000B00080917A00846080937A0080917A00C1
:1028E000826080937A0080917A00816080937A0080
:1028F00080917A00806880937A001092C10082E310
:102900008093B60481E090E0A0E0B0E08093B20450
:102910009093B304A093B404B093B5048FEF809365
:10292000A704E0E8F7E7259134912130304C09F015
:1029300049C0E6E9F7E7E491E0939004E7E9F7E7B7
:10294000E491E0933B04E8E9F7E7E491E0933C0489
:10295000E9E9F7E78591949190933E0480933D04D3
:10296000EBE9F7E7859194919093400480933F04BD
:1029700088E080936204EEE9F7E7E491E093610474
:10298000EFE9F7E7E491E093A704E0EAF7E7859140
:1029900094919093540480935304E2EAF7E785916D
:1029A00094919093560480935504E4EAF7E7859157
:1029B00094919093580480935704E6EAF7E7859141
:1029C00094912CC09CE39093900410923B048093CC
:1029D0003C0480E293E090933E0480933D0484EDB8
:1029E00093E09093400480933F0488E080936204D6
:1029F000809361048CEA9DE0909354048093530487
:102A00008EED9DE0909356048093550484E79EE0FC
:102A100090935804809357048CE39FE090935A045A
:102A20008093590411E0109337046FEF70E085E054
:102A30000E94890D88E08093410489E080934204DC
:102A400087E08093430486E08093440404E000938D
:102A5000450482E08093460481E1809347040E940C
:102A600010118CE39FE090935204809351040093E3
:102A7000500410935B048BE0809393048DE080936B
:102A8000920480E1809394048EE0809396048FE01A
:102A90008093950410938D041093A5041092A604BE
:102AA00010938C04E8EBF1E0E491EF5FE09389048C
:102AB000E9EBF1E0E491EF5FE0938A048AEB91E0C7
:102AC0009093A4048093A3041FB7F89480912502E7
:102AD000811127C0EFEAF3E08491E3ECF3E09491F5
:102AE000E82FF0E0EE0FFF1FE855FF4FA591B491DE
:102AF000EC91E92321F461E08AE00E941D0D61E080
:102B00008AE00E944D0D8CB580618CBD8CB58064CF
:102B10008CBD61E08DE00E944D0D61E08BE00E9474
:102B20004D0D809125028F5F809325021FBF8CB5CC
:102B30008F7D8CBD8CB58C7F81608CBD8DB58160A7
:102B40008DBD8CB58C608CBD61E0809193040E943A
:102B50004D0D61E0809192040E944D0D61E08091E5
:102B600094040E944D0D8091960418161CF461E0A7
:102B70000E944D0D8091950418161CF461E00E948E
:102B80004D0D80919604181674F460E00E941D0D9E
:102B90006AE070E080E090E00E94240E61E08091A5
:102BA00096040E941D0D80919204082E000C990B32
:102BB000FC01EB55FC4FE491F0E0EE0FFF1FEE54EB
:102BC000FF4F2591349130939A0420939904FC018E
:102BD000E754FC4FE491E093A00480919304082E05
:102BE000000C990BFC01EB55FC4FE491F0E0EE0F6B
:102BF000FF1FEE54FF4F259134913093980420939A
:102C00009704FC01E754FC4FE491E0939F0480910A
:102C10009504082E000C990BFC01EB55FC4FE49138
:102C2000F0E0EE0FFF1FEE54FF4F259134913093EB
:102C30009C0420939B04FC01E754FC4FE491E09337
:102C4000A10480919404082E000C990BFC01EB5513
:102C5000FC4FE491F0E0EE0FFF1FEE54FF4F259183
:102C6000349130939E0420939D04FC01E754FC4F63
:102C7000E491E093A20481E20E94641184E10E9445
:102C800064118091900487FF03C08FE780939004C4
:102C90008091900480680E94641180E20E94641117
:102CA0008CE00E9464110E94831111E01093600473
:102CB00084E08093840484EA90E090936C04809391
:102CC0006B0460E080E00E94911261E070E083E0BC
:102CD0000E94890D8091B100887F81608093B1004E
:102CE000F89410928000109281001092850010924A
:102CF000840088E191E0909389008093880080911E
:102D00008100886080938100809181008160809340
:102D1000810080916F00826080936F0078940E94A0
:102D2000F91380914D04813009F087C1109261043C
:102D300085E28093F90181E08093FA0191E3909319
:102D4000FF01809300029DE39093050280930602A9
:102D500099E490930B0280930C02EFECF1E080E099
:102D600091E121E0280F20839183845F369684359A
:102D7000C1F781E080931D0280931E029DE0909335
:102D80001102809312020E947B0588248394912C67
:102D9000332433940E945D08882309F446C180914E
:102DA0004E04813009F467C18091000190910101C6
:102DB0008130910521F0039709F47AC0CDC0A0902D
:102DC0002302B090240280914A04813071F4B5E06E
:102DD000AB16B10451F06CE0A616B10431F0C50198
:102DE00001969093240280932302809148048130BD
:102DF00071F48091230290912402009741F0863073
:102E0000910529F0019790932402809323028091E9
:102E10004B04813041F480912702882309F42EC1AC
:102E200081508093270280914904813011F5E09010
:102E30002302F09024028701065011090730110582
:102E400008F02FC10E949F10D09027026D2D70E0D6
:102E50006F5F7F4FDC0115962C9130E0621773078E
:102E60000CF01FC10E94040587FD1BC1D394D092B2
:102E7000270210914C04113091F4C0902302D0909D
:102E80002402E1E0CE16D10409F066C10E949F1031
:102E90008C01DC0115968C911597811118C18091D8
:102EA000230290912402A816B90609F053C054C019
:102EB00080914A04813079F4809123029091240218
:102EC0008530910541F08C30910529F00196909361
:102ED00024028093230280914804813079F4809108
:102EE0002302909124028130910541F086309105B2
:102EF00029F00197909324028093230280914B0440
:102F0000813071F4809123029091240281309105E7
:102F100009F065C187E090E090932402809323023A
:102F200080914904813069F48091230290912402B8
:102F3000893091050CF459C107979093240280932E
:102F4000230280914C04813039F457C190920101E1
:102F5000809200011092270280912202882339F08A
:102F600041E860911E0280911D020E94A50200E0CE
:102F700010E060911602643008F05AC170E0061744
:102F80001707B4F4601B710B6150710981E192E085
:102F90000E940405202F220F90911102482F60916A
:102FA0001202822F890F0E94A5020F5F1F4FE1CFEF
:102FB00009EF11E0E12CF12C83E0B82EC701875016
:102FC0009E4F6C01DC0115968C91882309F437C162
:102FD00060E070E0C8010E940405482FF60161819D
:102FE000D8018C910E94A502B6E0EB0EF11C0A5F9D
:102FF0001F4FE8E1EE16F10409F70FEC11E0C801EC
:103000000E9419050A5F1F4FF1E0093F1F07B9F73A
:1030100080910001909101018130910509F4C5C1B1
:103020000CF034C1892B09F439C180E090E0892B80
:1030300009F4B0CE0E940000ABCE809150048823EA
:1030400009F474CE80E00E94F9108CEB90E090932C
:103050006A048093690410926F0410926E041093B6
:103060005D0489E0809372041092750410927704D5
:10307000109279045DCE0E947B0596CE809123024A
:10308000909124028230910514F4069605C0863092
:1030900091050CF0C8CE07969093240280932302EA
:1030A000C2CEB8E0EB16F10444F0E7E0EE1AF10806
:1030B000F0922402E0922302DCCEF6E0EF16F10457
:1030C0000CF4D7CE1093240200932302D2CE109298
:1030D0001C0215968C91E09027022E2D30E0482F8F
:1030E00050E0F90131967F014E175F070CF47A0129
:1030F0008E19D80115968C93612C712C6E147F0457
:1031000091F0F80185810280F381E02DE60DF71D35
:10311000E80FF11D608187E192E00E943D05FFEF1D
:103120006F1A7F0AEBCFD8018C918093170211960A
:103130009C91B6E0CB16D10424F0F8018581880F6C
:1031400001C080E0890F8093180263E070E0709303
:10315000010160930001A3CEF2E0CF16D104CCF5BB
:10316000CD2809F09CCE809122028823F1F01092A4
:103170001C028DE192E00E94F1048983CE01019648
:103180000E947205698187E192E00E943D051093DB
:1031900017021093180280912202833008F082E017
:1031A0008093260262E070E0D2CF809116028823DD
:1031B00009F475CE81E192E00E94F1048983CE0189
:1031C00001960E94720569818DE192E00E943D05A1
:1031D000ECCFC6010697079708F061CE57CE863030
:1031E00091050CF09DCE079697CE06970CF4A9CECC
:1031F0009092240280922302A4CE80912302909187
:10320000240201970C9708F0A7CE00911C0210E051
:103210000150110908F49ACEB80187E192E00E94AA
:1032200004058A830E949F106A810E943D05F0CFA9
:10323000033011050CF0BCCE63E070E0A3CEB09279
:10324000A504B092A604F601C180D801DC902AE062
:103250004C2D6D2D85E894E00E94FD0E4DE04C0D47
:103260002AE06D2D85E894E00E94FD0E2EE04C2DA5
:103270006D2D85E894E00E94161069E06D0D2EE03A
:103280004C2D85E894E00E941610AECE8230910558
:1032900009F4E4C1039709F423C2C7CE8091CE019B
:1032A0008C3198F44091A8045091A9046091AA042B
:1032B0007091AB044370552766277727452B462B23
:1032C000472B19F48F5F8093CE018091CE0191E05E
:1032D0008C3109F090E059E2E52E51E0F52E0BE239
:1032E00011E068E2C62E61E0D62EA12CB12C482E4A
:1032F000512CA414B5040CF050C0D6018C91F801E7
:1033000022913F01821306C0D7013C91F801208130
:103310003217B9F1F6E0FA9D9001FB9D300D1124B2
:103320002A5D3E4FD9014C91F70160812A833B838E
:103330000E94A502D3016C90662DF60180810E9447
:103340007010282ED6018C93F8017080672DD7015C
:103350008C910E947010F70180832A813B81261096
:103360000FC087110DC0F80134978081F6E0F89FF7
:10337000C0011124D9016C9181539E4F0E943D05DB
:1033800090E0BFEFAB1ABB0AE6E0EE0EF11C0A5F5D
:103390001F4FF6E0CF0ED11CACCF992309F445CED8
:1033A000909201018092000140CE80912302909181
:1033B00024028D30910508F080C0FC01EC5CFF4FC9
:1033C0000C94611F6BE001C06BE1809125010E94AC
:1033D00070108093250165E0809124010E94701097
:1033E000809324016AC06EE105C06AE203C066E30F
:1033F00001C062E4809125010E9470108093250134
:1034000065E0809124010E9470108093240191E076
:1034100055C08C0106501109099794F486E0809FED
:10342000F001819FF00D1124E153FE4F6081665F32
:10343000809125010E9470108093250190E011C0B9
:1034400086E0809FF001819FF00D1124E153FE4F33
:1034500060816750809125010E9470108093250142
:1034600091E08091270281110EC086E0809FF001DB
:10347000819FF00D1124E153FE4F81816581660F1C
:10348000680F6E5F11C026E0209FF001219FF00DB4
:103490001124E153FE4F6181625025818095820F96
:1034A00022E0829F600D1124809124019A830E9462
:1034B0007010809324019A8101C090E01091240142
:1034C0000091250133E0F32EF00E46E0E42EE10EEC
:1034D000C12CD12C992309F45BC03092A504309201
:1034E000A604A12EAC0C7F2C7C0C4A2D672D85E800
:1034F00094E00E944D02BE2CBC184B2D672D85E830
:1035000094E00E944D021092A5041092A6042C2D66
:103510004A2D6F2D85E894E00E94FD0E2C2D4B2D39
:103520006F2D85E894E00E94FD0E4FEFC41AD40A77
:1035300064E0C616D10489F63092A5043092A60440
:1035400062E0600F27E0412F85E894E00E941610AA
:1035500042E0410F22E0602F85E894E00E94FD0EDA
:1035600044E0410F22E0602F85E894E00E94FD0EC8
:103570001D5F412F602F85E894E00E944D0210925C
:10358000A5041092A60461E0600F22E0412F61C003
:103590003092A5043092A604712E7C0C472D6F2D1D
:1035A00085E894E00E944D02AE2CAC184A2D6F2D98
:1035B00085E894E00E944D021092A5041092A604A2
:1035C000BB24B394BF0C2C2D472D6B2D85E894E0C4
:1035D0000E94FD0E2C2D4A2D6B2D85E894E00E9453
:1035E000FD0E7FEFC71AD70AFA9484E0C816D104FB
:1035F00079F63092A5043092A60494E0F92EF00EEC
:1036000027E0412F6F2D85E894E00E94161025E0F9
:10361000E22EE00E42E0410F22E06E2D85E894E0BC
:103620000E94FD0E44E0410F22E06E2D85E894E0FB
:103630000E94FD0E1D5F66E0600F412F85E894E05B
:103640000E944D021092A5041092A60422E0412F80
:103650006F2D85E894E00E94FD0EE7CC87E192E0B3
:103660000E94190561E1809117020E947010082FD5
:103670008093170261E0809118020E947010182F49
:1036800080931802013109F0D0CC813009F0CDCC03
:1036900060E070E087E192E00E940405682F81E11C
:1036A00092E00E943D0580912602882309F478CE9D
:1036B00081508093260210921C028DE192E00E94BC
:1036C000F1048983CE0101960E947205698187E128
:1036D00092E00E943D051093170210931802A5CCAA
:1036E00087E192E00E9419050E949F107C01809161
:1036F000230290912402069734F0D70115961C916D
:10370000110F1E5F01C012E0F70160818091170266
:103710000E94701080931702D70111966C91610F6F
:10372000809118020E947010809318027ECCCF9373
:10373000DF93C9EFD1E02697CE010E944C0581E0CE
:10374000CF3CD807C1F78BE092E00E944C0585E0A2
:1037500092E00E944C058FEF91E00E944C0589EFAA
:1037600091E00E944C0581E192E00E944C058DE1C0
:1037700092E00E944C0587E192E0DF91CF910C949A
:103780004C05109288041092870481E191E0909397
:103790008604809385046DE087E192E00E945405E1
:1037A00064E38DE192E00E94540564E381E192E0DC
:1037B0000E9454056DE089EF91E00E9454056DE090
:1037C0008FEF91E00E9454056DE085E092E00E9449
:1037D00054056DE08BE092E00E94540564E18FECAB
:1037E00091E00E94540564E185ED91E00E9454054A
:1037F00064E18BED91E00E94540564E181EE91E07B
:103800000E94540564E187EE91E00E94540564E152
:103810008DEE91E00E94540564E183EF91E00E94F7
:103820005405E6E2F1E081E08083369691E0EE3CDB
:10383000F907D1F70895CF93DF938230910510F403
:1038400082E090E0E091C004F091C10420E030E01B
:10385000C0E0D0E0309711F14081518148175907FD
:10386000C0F04817590761F482819381209719F0BD
:103870009B838A832BC09093C1048093C00426C08D
:103880002115310519F04217530718F49A01BE01AA
:10389000DF01EF010280F381E02DDCCF211531053E
:1038A00009F1281B390B2430310590F412968D91C3
:1038B0009C9113976115710521F0FB01938382831D
:1038C00004C09093C1048093C004FD01329644C0AB
:1038D000FD01E20FF31F81939193225031092D9343
:1038E0003C933AC02091BE043091BF04232B41F495
:1038F00020910501309106013093BF042093BE044E
:1039000020910301309104012115310541F42DB7B7
:103910003EB74091070150910801241B350BE091FF
:10392000BE04F091BF04E217F307A0F42E1B3F0B77
:103930002817390778F0AC014E5F5F4F2417350721
:1039400048F04E0F5F1F5093BF044093BE04819315
:10395000919302C0E0E0F0E0CF01DF91CF910895B4
:103960000F931F93CF93DF93009709F48CC0FC0152
:103970003297138212820091C0041091C104011584
:10398000110581F420813181820F931F2091BE04A3
:103990003091BF042817390779F5F093BF04E093FD
:1039A000BE0471C0D80140E050E0AE17BF0750F42C
:1039B00012962D913C911397AD012115310509F116
:1039C000D901F3CF9D01DA013383228360817181B4
:1039D000860F971F8217930769F4EC0128813981BC
:1039E000260F371F2E5F3F4F318320838A819B81B3
:1039F00093838283452B29F4F093C104E093C004A0
:103A000042C01396FC93EE931297ED0149915991A0
:103A10009E01240F351FE217F30771F48081918115
:103A2000840F951F029611969C938E9382819381A9
:103A300013969C938E931297E0E0F0E0D8011296D3
:103A40008D919C911397009719F0F8018C01F6CF96
:103A50008D919C9198012E5F3F4F820F931F209173
:103A6000BE043091BF042817390769F4309729F450
:103A70001092C1041092C00402C0138212821093EB
:103A8000BF040093BE04DF91CF911F910F91089561
:103A90008F929F92AF92BF92CF92DF92EF92FF925E
:103AA000CF93DF93EC01688179818A819B816115D5
:103AB00071058105910521F464E279ED8BE597E0CC
:103AC0002DE133EF41E050E00E94A41D49015A016D
:103AD0009B01AC01A7EAB1E40E94C31D6B017C010C
:103AE000ACEEB4EFA50194010E94D11DDC01CB0125
:103AF0008C0D9D1DAE1DBF1DB7FF03C00197A10911
:103B0000B04888839983AA83BB83BC01CD019F778A
:103B1000DF91CF91FF90EF90DF90CF90BF90AF906B
:103B20009F908F9008950E94481D089589E091E02C
:103B30000E94481D08956093090170930A018093C3
:103B40000B0190930C010895052E97FB1EF4009431
:103B50000E94BB1D57FD07D00E94D61D07FC03D055
:103B60004EF40C94BB1D50954095309521953F4FD8
:103B70004F4F5F4F089590958095709561957F4F59
:103B80008F4F9F4F08950E94F81DA59F900DB49FE1
:103B9000900DA49F800D911D11240895B7FF0C94E2
:103BA000C31D0E94C31D821B930B0895A1E21A2E10
:103BB000AA1BBB1BFD010DC0AA1FBB1FEE1FFF1FD1
:103BC000A217B307E407F50720F0A21BB30BE40B21
:103BD000F50B661F771F881F991F1A9469F7609568
:103BE0007095809590959B01AC01BD01CF01089522
:103BF000A29FB001B39FC001A39F700D811D11242E
:103C0000911DB29F700D811D1124911D08950E9478
:103C10007B1E88F09F5798F0B92F9927B751B0F0C5
:103C2000E1F0660F771F881F991F1AF0BA95C9F740
:103C300014C0B13091F00E94951EB1E008950C942B
:103C4000951E672F782F8827B85F39F0B93FCCF3DE
:103C5000869577956795B395D9F73EF490958095BD
:103C6000709561957F4F8F4F9F4F0895E89409C0DD
:103C700097FB3EF490958095709561957F4F8F4F9F
:103C80009F4F9923A9F0F92F96E9BB279395F695B5
:103C9000879577956795B795F111F8CFFAF4BB0F33
:103CA00011F460FF1BC06F5F7F4F8F4F9F4F16C097
:103CB000882311F096E911C0772321F09EE8872F21
:103CC000762F05C0662371F096E8862F70E060E0DD
:103CD0002AF09A95660F771F881FDAF7880F969556
:103CE000879597F9089557FD9058440F551F59F03F
:103CF0005F3F71F04795880F97FB991F61F09F3FD9
:103D000079F087950895121613061406551FF2CF01
:103D10004695F1DF08C0161617061806991FF1CF51
:103D200086957105610508940895E894BB27662778
:103D30007727CB0197F908950E94AF1E0C94201F9E
:103D40000E94121F38F00E94191F20F0952311F0D5
:103D50000C94091F0C940F1F11240C94961E0E94A2
:103D6000731E70F3959FC1F3950F50E0551F629F2E
:103D7000F001729FBB27F00DB11D639FAA27F00DC4
:103D8000B11DAA1F649F6627B00DA11D661F829FEB
:103D90002227B00DA11D621F739FB00DA11D621FD0
:103DA000839FA00D611D221F749F3327A00D611DED
:103DB000231F849F600D211D822F762F6A2F1124CF
:103DC0009F5750409AF0F1F088234AF0EE0FFF1F02
:103DD000BB1F661F771F881F91505040A9F79E3F59
:103DE000510580F00C94091F0C94961E5F3FE4F37C
:103DF000983ED4F3869577956795B795F795E795AF
:103E00009F5FC1F7FE2B880F911D9695879597F9B7
:103E1000089597F99F6780E870E060E008959FEF4C
:103E200080EC089500240A94161617061806090651
:103E3000089500240A941216130614060506089520
:103E4000092E0394000C11F4882352F0BB0F40F4A8
:103E5000BF2B11F460FF04C06F5F7F4F8F4F9F4FE8
:103E60000895DB018F939F930E94C31DBF91AF9173
:103E7000A29F800D911DA39F900DB29F900D1124C4
:103E80000895991B79E004C0991F961708F0961BB6
:103E9000881F7A95C9F78095089597FB072E16F429
:103EA000009407D077FD09D00E94671F07FC05D05A
:103EB0003EF4909581959F4F0895709561957F4F41
:103EC0000895EE0FFF1F0590F491E02D0994AA1BB1
:103ED000BB1B51E107C0AA1FBB1FA617B70710F0F5
:103EE000A61BB70B881F991F5A95A9F78095909527
:103EF000BC01CD01089581E090E0F8940C94801FFE
:103F000011E0C2EFD1E004C0FE010E94611F2196C2
:0A3F1000C33FD107C9F7F894FFCFB3
:103F1A000100010000C2048000010000000000004E
:103F2A0000200FC70C1E021D020D0A004C4F41440F
:043F3A0045520000EC
:00000001FF
