:100000000C94D7020C94FF020C94FF020C94FF0294
:100010000C94FF020C94FF020C94FF020C94FF025C
:100020000C94FF020C94FF020C94FF020C949D0EA2
:100030000C94FF020C94FF020C94FF020C94FF023C
:100040000C94530E0C94FF020C94FF020C94FF02CC
:100050000C94FF020C94FF020C94FF020C94FF021C
:100060000C94FF020C94FF02E403E8030104010472
:10007000010401040804080408041D041D041D04EF
:100080001D04F5041205210537053D0543054D0501
:100090005B05690573058E05A305BA050101FF031C
:1000A0000101F7035361766520666F72206C6174FD
:1000B00065720047616D652073746174697374695A
:1000C000637300517569742067616D6500526573D3
:1000D000756D652067616D6500A0009C00000000E3
:1000E00000240027002A0000000000250028002B23
:1000F000000500893008023802497868140000CDF4
:1001000000C300B300A4004500080100004E65775D
:1001100020686172642067616D65004E65772065B7
:100120006173792067616D65001753440016137879
:1001300000161314001510200015201000540A0397
:10014000E181867F3E186D830F0F0E018386603339
:10015000186DC3198F1803C38E6033186DE330CF49
:100160001803C39E603630CDE360CF3006C79E7E55
:100170003E30CDB360CF300CC6F6603330D9B660B8
:10018000CF33CFCCF66061B0DB1E60CF30D86CE6E9
:10019000C061B0DB1E618F19986CC6C063B19B0E45
:1001A000330F0FB078C6FF7E1F1B061E0F1B010DFD
:1001B00001B300402400008000012400000084807E
:1001C0000001040000008880000104000000908FFE
:1001D000161D24CE0000A099993325990000C090E7
:1001E000912125110000A0909121261F00009090E0
:1001F0009121251000008899913325980000848F63
:10020000111D24CF000000000000000000000000CD
:10021000000000000000101C700E00100000103ED6
:10022000F83F80100000383EF83F803800007C3FE7
:10023000F83F807C0000FE3FF9DF70FE0001FF1FE9
:10024000F3FFF9FF0003FF8FF3FFFBFF8003FF8F36
:10025000E3FFF9FF0003FF87C3F5F8FE0001D703B2
:1002600081E4F07C000010038004003800003801B5
:10027000000E00100000FE01003F80100000000092
:1002800000000000000000009000400000003C0062
:10029000820000000000440082000000000040785E
:1002A000979C4B38000060CC92024C64000018848C
:1002B0009202484400000C84921E487C0000048492
:1002C00092224840000044CC922248600000787896
:1002D000939E483C0000450018010000486172648C
:1002E00020776F6E3A202020202000486172642021
:1002F000737461727465643A200045617379207784
:100300006F6E3A202020202000456173792073749D
:1003100061727465643A2000F6E8DBCFC3B8AEA41E
:100320009B928A827B746E68625C57524E4945414B
:100330003E3A3734312E2C29272523210A0A153A33
:1003400049676E6F7265006D560A0A504C454153FD
:1003500045205455524E204F464620004C4F5720C2
:100360004241545445525921200003053F213F1278
:1003700008120A100A0E1C0E0C1E0C141A14161F5A
:10038000161E131E1E1B1E1E1F1E3F213F3A2F3A14
:10039000173D173F213F181F02040A041F0E0404D3
:1003A0000E1F0A1F0A0E0E1F04110E2E252E2F2AB5
:1003B0002E262929021F02081F08150E04040E15F7
:1003C0000E15151B151B040604040C040000000088
:1003D00017000300031F0A1F16371A1904130A1502
:1003E0003A000300000E11110E000A040A040E0464
:1003F0000030000404040010001804031F111F1231
:100400001F101D151711151F07041F17151D1F1588
:100410001D01011F1F151F17151F000A00003200C4
:10042000040A110A0A0A110A040115020E11171E04
:10043000051E1F150A0E110A1F110E1F15111F058B
:10044000010E111D1F041F111F1108100F1F041B87
:100450001F10101F061F1E040F0E110E1F09060E7F
:10046000112E1F051A121509011F011F101F0F1849
:100470000F1F0C1F1B041B031C03191513001F1156
:10048000030418111F000201022020200001020CA9
:10049000121E1F120C0C12120C121F0C1A14041E26
:1004A00005242A1E1F021C141D1020201D1F0814C5
:1004B000111F101E041E1E021C0C120C3E0A040CFE
:1004C000123E1E040214160A020F120E101E0E1007
:1004D0000E1E081E120C1226281E322A26041E2169
:1004E000001F00211E040102013F213F172B152090
:1004F00010204C4F4144455200172B162013140076
:100500000A4E6F2053442063617264206F720A6E3A
:100510006F204C4F414445522E4845580A0A153A1F
:1005200045786974001D20466C617368696E670ABE
:1005300020206C6F616465722E2E2E0A0A444F4E85
:100540002754205455524E204F46462100000000AB
:100550000023002600290004040404040404040207
:100560000202020202030303030303010204081050
:10057000204080010204081020010204081020001D
:100580000000080002010000030407000000000052
:100590000000004500680100000500680138010006
:1005A0000005003801680100000035240B241124E7
:1005B0001FBECFEFD8E0DEBFCDBF11E0A0E0B1E0BD
:1005C000E4E3F0E502C005900D92A432B107D9F73B
:1005D00024E0A4E2B1E001C01D92A63EB207E1F71B
:1005E00012E0C6EDD2E004C02197FE010E94EE2782
:1005F000C53DD107C9F70E940F1B0C940D280C9420
:100600000000089580E090E0089544E0460F23E064
:10061000682F82EA94E00C94250F462F23E0682F80
:1006200082EA94E00C94250F42E0460F62E0680FE6
:1006300023E082EA94E00C943D10462F62E0680FBC
:1006400023E082EA94E00C943D10CF93DF93C82F0F
:10065000D62F0E940D036D2F8C2F0E946A116D2FD3
:100660008C2F0E9462116D2F8C2F0E9414036D2F0E
:100670008C2FDF91CF910C940503CF93DF93C82F7C
:10068000D62F0E946A116D2F8C2F0E9462116D2F40
:100690008C2F0E941D036D2F8C2FDF91CF910C9416
:1006A00014031F93CF93DF93C82F162F861721F1C2
:1006B000862F90E08C1B910963E070E00E94DA279E
:1006C000D62F611117C06091C5047091C604809146
:1006D000C7049091C80423E030E040E050E00E945D
:1006E0006326672B682B692B29F4C11710F0DFEF05
:1006F00001C0D1E08D2F8C0FDF91CF911F91089514
:1007000080914101909142018630910554F48230EC
:100710009105A4F40097E9F00197D1F423E531E0C5
:100720001AC08D309105A4F4069747E0489F9001C8
:10073000499F300D1124235A3E4F0DC0029747E0C8
:10074000489F9001499F300D11242B5D3E4F03C0FF
:1007500008952CE431E0C9010895FC0182814181B2
:10076000882311F06A3010F0842F089596819A3012
:1007700018F4292F30E002C02AE030E0261B3109AE
:1007800021503109220F822F840F0895CF92DF92DA
:10079000EF92FF920F931F93CF93DF931F92CDB7EA
:1007A000DEB77C018B016A010E948003DC01E091CD
:1007B0004101F0914201ED30F10508F053C0EC5CCD
:1007C000FF4F9C910C94EE27965FF701908315C024
:1007D00016962C91169730E02115310539F024300A
:1007E000310534F421503109220F03C020E001C04B
:1007F00024E0965F290FF701208311968C918C5F7E
:1008000017C09750F701908311968C918C5F25C08B
:10081000965FF701908360915A01662311F02EEFE5
:1008200001C024E0CD0129830E94AD032981820FFC
:10083000F8018083F601108215C09750F70190836C
:1008400060915A01662311F02EEF01C024E0CD0122
:1008500029830E94AD032981820FF801808381E002
:10086000F60180830F90DF91CF911F910F91FF9040
:10087000EF90DF90CF90089580912B018D3061F53E
:10088000809132018D3041F5809139018D3021F513
:10089000809140018D3001F585E090E09093010159
:1008A0008093000180912401813051F480914102B4
:1008B000909142020196909342028093410209C0B6
:1008C00080913D0290913E02019690933E0280936A
:1008D0003D0280E00C94E4100895EF92FF920F9394
:1008E0001F93CF93DF931F92CDB7DEB77C01FC013E
:1008F00000811181C80169830E941B2669816817E4
:1009000019F0C8010E942326C7010F90DF91CF91F3
:100910001F910F91FF90EF900895FC01643508F04E
:1009200053C0403308F050C090A1742F7595759551
:100930007595262F062E000C330B542F57709230CE
:10094000A1F4F901EC5AFD4F84E57802E00DF11DA8
:100950001124808190E0052E02C0959587950A9418
:10096000E2F78095982F91700AC0933041F4848506
:100970008170462740954170841303C014C09111C3
:1009800012C084E57802200D311D1124F901EC5AC2
:10099000FD4F81E090E001C0880F5A95EAF78095FD
:1009A0009081892310C084E57802200D311D112427
:1009B000F901EC5AFD4F81E090E001C0880F5A9593
:1009C000EAF79081892B808308950F931F93CF932B
:1009D000DF93FA013197ED30F10508F0EDC0D62F25
:1009E000C82FEF5BFF4F0C94EE2711E0180F462F36
:1009F000612F82EA94E00E948D0401E00D0F24E053
:100A0000402F6C2F82EA94E00E943D1062E06C0F50
:100A100024E0402F82EA94E00E943D1042E04D0F16
:100A2000612F89C00E940D036D2F8C2F0E941D0322
:100A30006D2F8C2F0E9462116D2F8C2F0E947111CF
:100A40000EC00E940D036D2F8C2F0E941D036D2F71
:100A50008C2F0E9462116D2F8C2F0E9414036D2F1A
:100A60008C2FDF91CF911F910F910C940503DF9193
:100A7000CF911F910F910C943D03DF91CF911F9166
:100A80000F910C9425030E9425036D2F8C2FDF916D
:100A9000CF911F910F910C9471110E940D036D2F36
:100AA0008C2F0E941D036D2F8C2FDF91CF911F91F2
:100AB0000F910C9414030E9425036D2F8C2F0E941C
:100AC00071116D2F8C2FDF91CF911F910F910C948D
:100AD0001D030E943D036D2F8C2FDF91CF911F913D
:100AE0000F910C940D030E940D036D2F8C2F0E940B
:100AF0001D036D2F8C2F0E9414036D2F8C2F0E94CD
:100B000005036D2F8C2F0E9471116D2F8C2F0E9469
:100B10006A116EEF6C0F25E04D2F46C00E941D0339
:100B20006D2F8C2F0E9414036D2F8C2F0E940503B4
:100B300043E04D0F6C2F82EA94E0DF91CF911F913B
:100B40000F910C948D040E940D036D2F8C2F0E9429
:100B50001D036D2F8C2F0E946A1143E04D0F23E07F
:100B60006C2F82EA94E00E94250F44E04D0F61E073
:100B70006C0FE1CF0E946A116D2F8C2F0E947111B2
:100B800042E04D0F61E06C0F82EA94E00E948D0418
:100B9000CE5F22E04D2F6C2F82EA94E00E943D1040
:100BA00043E04D0F22E06C2F82EA94E0DF91CF9179
:100BB0001F910F910C943D10DF91CF911F910F91D8
:100BC00008950F931F93CF93DF93082FC62F4130C3
:100BD000510509F449C00CF5452B09F0ADC0D2E030
:100BE000D80F462F6D2F82EA94E00E948D0441E0D9
:100BF0004C0F61E0600F23E082EA94E00E94250F31
:100C000042E04C0F25E0602F82EA94E00E94250F1D
:100C100043E04C0F25E0602F80C04230510509F4BD
:100C200050C04330510509F087C0D2E0D80F462F9D
:100C30006D2F82EA94E00E948D0411E0100F41E0D4
:100C40004C0F23E0612F82EA94E00E94250F42E0DE
:100C50004C0F25E0602F82EA94E00E94250F43E0CC
:100C60004C0F23E0612F59C0D1E0D80F23E0462F6D
:100C70006D2F82EA94E00E94250F42E04C0F23E0A2
:100C80006D2F82EA94E00E94250FCF5F23E04C2F66
:100C9000602F82EA94E00E943D1064E0600F23E040
:100CA0004C2F82EA94E00E943D1062E0600F24E045
:100CB0004C2F82EA94E0DF91CF911F910F910C9419
:100CC0003D10D1E0D80F462F6D2F82EA94E00E94AC
:100CD0008D0463E0600F4C2F82EA94E00E948D0443
:100CE00041E04C0F25E0602F82EA94E00E94250F3E
:100CF00042E04C0F25E0602F82EA94E00E94250F2D
:100D000043E04C0F23E06D2F82EA94E00E94250F10
:100D100044E04C0F62E0600F07C082EA94E00E945A
:100D2000250F44E04C0F6D2F82EA94E0DF91CF91C4
:100D30001F910F910C948D04DF91CF911F910F9112
:100D40000895DC0116969C911697992359F01396F5
:100D5000ED91FC911497915016969C93E90FF11D1B
:100D60008081089581E00895CF93DF93C0913C0284
:100D700087E0C89FE0011124CB5DDE4F8E81882380
:100D800009F451C0CE010E94A106809343018881DD
:100D9000109244018093450189811092460180930D
:100DA00047010E940D2622E030E040E050E00E9422
:100DB0003126672B682B692B19F4CFEFDFEF02C0C8
:100DC000C1E0D0E00E940D2620E031E040E050E09C
:100DD0000E943126DC01CB019F5FAF4FBF4FC89F00
:100DE0009001C99F300DD89F300D112430934901D7
:100DF000209348010E940D2620E032E040E050E0C0
:100E00000E94312671956195710970934B01609331
:100E10004A0180913C0290E001968370992780936B
:100E20003C0281E001C080E0DF91CF910895DC01B8
:100E300016962C91169730E0621773075CF4261B08
:100E4000370B1396ED91FC911497E20FF31F319736
:100E50008081089581E00895FC012681858128170D
:100E600048F48381948131E0320F3683FC01E20F34
:100E7000F11D60830895FC0183819481009711F036
:100E80000C94272508950F931F93CF93DF938C0124
:100E9000FC0116826583C62FD0E0CE010E94922409
:100EA000FC01C80FD91F21E0EC17FD0711F02193B9
:100EB000FBCFF80194838383DF91CF911F910F9132
:100EC0000895FC01908197FF02C09F7701C0906850
:100ED00090830895EF92FF920F931F93CF93DF9328
:100EE0001F92CDB7DEB700E010E0C801835A9E4FD5
:100EF0007C01FC018681882371F0C7010E94A10654
:100F0000898387FF04C0CE0101960E946107698131
:100F1000C7010E942C07095F1F4F0133110529F7F4
:100F20000E943C0410925A01AE014F5F5F4F6BE587
:100F300071E08CE591E00E94C6030F90DF91CF91A4
:100F40001F910F91FF90EF9008950E9480030E94DF
:100F50001A1681E090E090930101809300010C94B7
:100F60006A072F923F924F925F926F927F928F9279
:100F70009F92AF92BF92CF92DF92EF92FF920F9328
:100F80001F93CF93DF93CDB7DEB727970FB6F894B3
:100F9000DEBF0FBECDBF45ED842E42E0942ECE01C4
:100FA00001965C0181E08093A8049091C404992388
:100FB00009F4BDC08093AA041092A9041092A80459
:100FC00010926C048093C2048093C3040E94791130
:100FD0008823E1F3F4018491882319F01091A70488
:100FE00001C010E06DE371E080E00E94121A63EB33
:100FF00071E08CE0810F0E94121A1092AB04FCE0A9
:10100000F093AC0465ED72E082EA94E00E94670C14
:101010008091A604982F990F890F81958D5A8093FE
:10102000AB048091A704982F990F890F8195835D58
:101030008093AC048091C50484FF03C089E391E0F0
:1010400002C085E391E00E9452178091A604982F78
:10105000990F890F81958D5A8093AB048091AC04D0
:101060008F5F8093AC0480917E04882319F081E324
:1010700091E002C08DE291E00E9452178091A60497
:10108000982F990F890F81958D5A8093AB04809189
:10109000AC048F5F8093AC0489E291E00E94521708
:1010A00080916A048130A1F480917E048F5F609109
:1010B0007F0487FD09C0082E000C990B70E06F5F5C
:1010C0007F4F0E94DA27682F60937E040E94981653
:1010D000809169048130B9F08091C404482F50E0B8
:1010E00060E070E00091C5041091C6042091C7042F
:1010F0003091C804041715072607370708F4CCC138
:101100008F3F09F4C9C18FEF8093C40460E089E781
:1011100094E00E94E00E10927A0440E061EA75E0EB
:1011200089E794E00E94F10E81E080936C04C09006
:101130006E04D0906F04C094D094E12CF12C0E94E6
:10114000F40D2B013C010E94F40DA30192012095A6
:1011500030954095509560957095809590950E943A
:10116000BE279B01AC01C701B6010E94BE272B011F
:101170003C01C0905504D0905604E12CF12C0E9403
:10118000F40DDC01CB018C0D9D1DAE1DBF1DBC01FE
:10119000CD01640D751D861D971D611571058105B5
:1011A000910511F00E94122610926C0410924201D7
:1011B0001092410110925A018BE080935C0184E00F
:1011C00080935B011092590110925201E12CF12C95
:1011D000C70134E0880F991F3A95E1F7082F00689E
:1011E00011E0612F602B8CE491E00E942C071F5FBF
:1011F0001E30B9F72FEFE21AF20A84E0E816F10484
:1012000039F700E010E02091520130E00217130797
:101210007CF57901E01AF10A49F00E940D26970148
:10122000FF0C440B550B0E94312603C060E070E0B8
:10123000CB0120914F0130915001F901E60FF71FCA
:101240009081A0915201B0E0A01BB10BA20FB31F7F
:1012500011978C91808380915201E82FF0E0E01B80
:10126000F10BE20FF31F319790830F5F1F4FCBCF2E
:1012700010922B011092320110923901109240010C
:1012800080E090E0FC01E35AFE4F1682079681331E
:101290009105C1F7109236029DE5E92E91E0F92EF5
:1012A000370100E010E026E0222E302E330C28011A
:1012B000C12CD12C8CE491E00E94A1068F830415EF
:1012C000150521F4CE0107960E9461074091360270
:1012D000D501E22D1D92EA95E9F7F1E0F983249E0C
:1012E000C001112482579E4FF501DC01322D01907F
:1012F0000D923A95E1F7E1E0DC011296EC9312973A
:1013000013961C921397F301EC0DFD1D308114967A
:101310003C9314973181330D15963C931597119694
:101320004C9211973F813C9381E0840F8093360269
:10133000FFEF4F1A5F0A27E0C20ED11C87E0481664
:10134000510409F0B7CF0F5F1F4F97E0690E711C72
:101350000730110509F0A9CF109236021092010151
:101360001092000180E090E00E941B268A3A09F06A
:101370005AC063E472E081E090E00E94601061E492
:1013800072E083E090E00E9460106FE372E085E01D
:1013900090E00E9460106DE372E087E090E00E94B0
:1013A000601089E090E00E941B268823D1F181E043
:1013B00080933B028AE090E00E941B2680932401E8
:1013C0006CE471E08BE090E00E94BA108C01055F44
:1013D0001F4F63E571E0C8010E94BA10080F191F82
:1013E00085E2C82E81E0D82EB601C8010E94BA104D
:1013F000080F191FA7E0CA0ED11CB1E4CB16B1E04B
:10140000DB0691F7B701C8010E94BA10080F191F37
:10141000E7E0EE0EF11CFEE8EF16F1E0FF0691F7B3
:1014200002C010923B0280913B02882361F080E071
:101430000E94E41081E090E090930101809300010C
:1014400033C00E94741063E08DEA91E00E94F618A8
:101450008F3F09F4A7CD81110DC081E08093240155
:1014600080914302909144020196909344028093AC
:1014700043020EC0813029F783E0809324018091DC
:101480003F029091400201969093400280933F0268
:1014900080E00E94E41008C080916B04813009F064
:1014A00095CD0E94651792CD27960FB6F894DEBFB2
:1014B0000FBECDBFDF91CF911F910F91FF90EF90A5
:1014C000DF90CF90BF90AF909F908F907F906F9064
:1014D0005F904F903F902F900895FC01208130E065
:1014E00084E0359527958A95E1F72370332781E0CD
:1014F0002230310529F02330310511F080E00895C4
:101500000895CF92DF92EF92FF920F931F93CF93A4
:10151000DF931F92CDB7DEB7E82EF62E142F498346
:1015200047FF02C083E001C080E08093C204809343
:10153000C3040CE028E0DD24D394DF0C4D2DCC2433
:10154000C394CE0C6C2D82EA94E00E94480F81E097
:101550008093C2048093C30428E04F2D6C2D82EA4F
:1015600094E00E94250F28E04DE04F0D6C2D82EA9B
:1015700094E00E94250F2CE04D2D6E2D82EA94E020
:101580000E943D102CE04D2D69E06E0D82EA94E042
:101590000E943D1017FD23C0CE0101960E946D0AE6
:1015A000882329F083E08093C2048093C304412FF1
:1015B00050E084E0559547958A95E1F743705527AB
:1015C00062E06F0D82E08E0D0E94E1051F70412FD9
:1015D00050E067E06F0D85E08E0D0E94E5040F90EE
:1015E000DF91CF911F910F91FF90EF90DF90CF90FF
:1015F0000895EF92FF920F931F93CF93DF937C0197
:10160000FC01C681D0E0CA30D10514F02A9702C08F
:10161000C0E0D0E000E010E0F70166816A3018F425
:10162000862F90E002C08AE090E008171907B4F412
:1016300070E0601B710B615071096C1B7D0BC70161
:101640000E941707602F660FF7019181690F482FDD
:1016500080810E94810A0F5F1F4FDECFDF91CF9103
:101660001F910F91FF90EF900895DF92EF92FF92FC
:101670000F931F93CF93DF9380915201882339F00A
:1016800041E860914D0180914C010E94810AC0E0C7
:10169000D0E060915901643008F04FC070E0C61787
:1016A000D707ACF46C1B7D0B6150710983E591E0A9
:1016B0000E9417072C2F220F90915301482F609101
:1016C0005401822F890F0E94810A2196E2CFC5E240
:1016D000D1E000E010E083E0D82EC8018B5D9E4F82
:1016E0007C01FC018681882361F060E070E0CE011E
:1016F0000E941707482FF701618188810E94810AA3
:101700000BC0D092C204D092C3042EE04AE0F7018D
:10171000618188810E943316095F1F4F27960C3123
:101720001105D9F6CDE5D1E0CE010E94F90A279640
:10173000F1E0CE38DF07C1F706C0C330D1053CF673
:1017400063E070E0AFCFDF91CF911F910F91FF90D9
:10175000EF90DF900895CF92DF92EF92FF920F9378
:101760001F93CF93DF936C017A018B01C0E0D0E02F
:10177000CE15DF0589F0D8016D918D01D601ED916F
:10178000FC910190F081E02DC6010995892B11F49F
:101790007E0102C02196ECCFC701DF91CF911F914E
:1017A0000F91FF90EF90DF90CF9008950E9408284E
:1017B0000F931F93CF93DF9300D0CDB7DEB78B018C
:1017C000FB0160819A838983CE0101960E946D049A
:1017D000C8010F900F90DF91CF911F910F91089545
:1017E000EF92FF920F931F93CF93DF9300D0CDB76B
:1017F000DEB78C017B01FB0160819A838983CE0176
:1018000001960E946D04F70161810F5F1F4F1A83DB
:101810000983CE0101960E946D04C7010F900F90BD
:10182000DF91CF911F910F91FF90EF900895CF928C
:10183000DF92EF92FF920F931F93CF93DF9300D02D
:10184000CDB7DEB77C018B01FB0186818983BE01A8
:101850006F5F7F4FC7010E94D80BC12CD12CFFEFC7
:10186000EF1AFF0AF801858190E0C816D906E4F462
:10187000F801268130E0C216D30694F42C193D09F4
:10188000B90161507109C8010E94170797012C0D19
:101890003D1D3A832983682FCE0101960E946D0475
:1018A000FFEFCF1ADF0ADECF01960F900F90DF9186
:1018B000CF911F910F91FF90EF90DF90CF900895FF
:1018C000DC01ED91FC910190F081E02D0994EF9203
:1018D000FF920F931F93CF93DF938C017B01C0E0A6
:1018E000D0E0F701EC0FFD1F6491662361F0D80191
:1018F000ED91FC910190F081E02DC8010995892BB3
:1019000011F02196EECFCE01DF91CF911F910F9173
:10191000FF90EF9008956115710579F0FB0101903A
:101920000020E9F73197AF01461B570BDC01ED9121
:10193000FC910280F381E02D099480E090E008950D
:101940004F925F926F927F92EF92FF920F931F934D
:10195000CF93DF93CDB7DEB7A1970FB6F894DEBF74
:101960000FBECDBF7C01FA01CB0119A2223008F4D1
:101970002AE08E010F5D1F4F422E512C612C712CDD
:10198000BF01A30192010E946326F901CA0101501F
:1019900011096A3014F4605D01C0695CD8016C9370
:1019A000232B242B252B61F7B801C7010E948B0C38
:1019B000A1960FB6F894DEBF0FBECDBFDF91CF91D9
:1019C0001F910F91FF90EF907F906F905F904F90DD
:1019D0000895833081F028F4813099F08230A1F0AD
:1019E00008958730A9F08830B9F08430D1F480911F
:1019F00080008F7D03C0809180008F77809380006E
:101A0000089584B58F7702C084B58F7D84BD089515
:101A10008091B0008F7703C08091B0008F7D80935C
:101A2000B00008951F93CF93DF93282F30E0F90182
:101A3000E158FA4F8491F901E559FA4FD491F9012F
:101A4000E95AFA4FC491CC23C9F0162F81110E9494
:101A5000E90CEC2FF0E0EE0FFF1FE951FF4FA591CD
:101A6000B4918FB7F894111105C09C91ED2FE095BA
:101A7000E92302C0EC91ED2BEC938FBFDF91CF9166
:101A80001F910895CF93DF9390E0FC01E559FA4F41
:101A90002491FC01E95AFA4F8491882361F190E086
:101AA000880F991FFC01E352FF4FC591D491FC01AF
:101AB000E951FF4FA591B491611109C09FB7F89406
:101AC0008881209582238883EC912E230BC062307D
:101AD00061F49FB7F8943881822F8095832388839F
:101AE000EC912E2B2C939FBF06C08FB7F894E88102
:101AF0002E2B28838FBFDF91CF9108951F93CF9313
:101B0000DF93182FEB0161E00E94420D209711F442
:101B100060E004C0CF3FD10539F461E0812FDF914F
:101B2000CF911F910C94120DE12FF0E0E158FA4F84
:101B3000E491E330F9F048F4E130B9F0E230A1F596
:101B400084B5806284BDC8BD34C0E730E9F0E830B8
:101B500019F1E43049F58091800080628093800023
:101B6000D0938B00C0938A0024C084B5806884BD64
:101B7000C7BD1FC080918000806880938000D09393
:101B80008900C093880015C08091B0008068809360
:101B9000B000C093B3000DC08091B000806280930C
:101BA000B000C093B40005C0C038D1050CF0B5CF6B
:101BB000AFCFDF91CF911F9108958E3008F08E50F6
:101BC0008770806480937C0080917A008064809329
:101BD0007A0080917A0086FDFCCF80917800209178
:101BE000790090E0922B08953FB7F89480914702D6
:101BF00090914802A0914902B0914A0226B5A89B53
:101C000005C02F3F19F00196A11DB11D3FBFBA2F8E
:101C1000A92F982F8827820F911DA11DB11DBC01EE
:101C2000CD0142E0660F771F881F991F4A95D1F7B3
:101C300008958F929F92AF92BF92CF92DF92EF92D0
:101C4000FF926B017C010E94F40D4B015C01C114F9
:101C5000D104E104F104F1F00E94F40DDC01CB01A8
:101C600088199909AA09BB09883E9340A105B105C5
:101C700070F321E0C21AD108E108F10888EE880E5D
:101C800083E0981EA11CB11CC114D104E104F1042D
:101C900019F7DDCFFF90EF90DF90CF90BF90AF901E
:101CA0009F908F9008951F920F920FB60F9211245C
:101CB0002F933F938F939F93AF93BF938091500245
:101CC00090915102A0915202B0915302309146027C
:101CD00023E0230F2D3720F40196A11DB11D05C06F
:101CE00026E8230F0296A11DB11D20934602809382
:101CF000500290935102A0935202B09353028091EC
:101D0000470290914802A0914902B0914A0201967F
:101D1000A11DB11D8093470290934802A0934902F0
:101D2000B0934A02BF91AF919F918F913F912F91B4
:101D30000F900FBE0F901F9018951F920F920FB625
:101D40000F9211242F936F937F938F939F936091A2
:101D50004D02662359F1809145028F5F80934502C1
:101D600090914E02891710F120914B0281E02827B3
:101D700020934B021092450280914F02882369F014
:101D80008091020193E4899F802D1124895B8093C7
:101D900002010E94CE2790934C02222329F08091C9
:101DA0004C028093B40002C080E0FBCF9F918F91E2
:101DB0007F916F912F910F900FBE0F901F901895EC
:101DC000FC0161110DC0178A158A14A213A2108E8E
:101DD00010924C0210924D0210924B021092B400DD
:101DE0000895EF92FF920F931F93CF93DF931F926B
:101DF000CDB7DEB77C018B01411105C060E049839E
:101E00000E94E00E498150E0FA01EE0FFF1FEE0D37
:101E1000FF1D16870587DA011996AA0FBB1FAE0DA5
:101E2000BF1D1D921C92F701E40FF51F81E0818315
:101E300089E0868B118E138E158E0F90DF91CF91D6
:101E40001F910F91FF90EF900895DF92EF92FF9214
:101E50000F931F93CF93DF931F92CDB7DEB78C0103
:101E6000D62EF42EE12CE21654F46E2D6D0D4F2D6E
:101E7000C80129830E948D04E3942981F4CF0F9037
:101E8000DF91CF911F910F91FF90EF90DF90089518
:101E9000DF92EF92FF920F931F93CF93DF937C011A
:101EA000D62FD22EC42F002E000C110B040F111DA3
:101EB00047FD1A954C2F0C2E000C550B401751075F
:101EC00044F42D2D4C2F6D2FC7010E94250FCF5F9D
:101ED000F1CFDF91CF911F910F91FF90EF90DF90A5
:101EE00008956F927F928F929F92AF92BF92CF92FE
:101EF000DF92EF92FF920F931F93CF93DF93EC014A
:101F00006A3019F42D819885A1C06D3009F4A4C000
:101F10001885BA84D98488A083E58D150CF47FC018
:101F20008FE28B150CF47BC08C8190E00197189F99
:101F30009001199F300D1124C9018D0D911DD7FC01
:101F40009A95181619060CF06AC08D81819FC00100
:101F500011248B0D911DB7FC9A95181619060CF0DB
:101F60005EC09D2CCD2CE62EF12CEC2DED190E2E05
:101F7000000CFF0B8C8190E0E817F9070CF04EC0C5
:101F80000197E817F90779F0E89E9001E99E300D76
:101F9000F89E300D1124E20FF31F8E8D9F8DE80FF8
:101FA000F91F749001C0712C6B2CAB2C2A2D2B19AE
:101FB000022E000C330B8D8190E0281739075CF559
:101FC00070FE10C0113031F44A2D6C2DCE010E94EC
:101FD0008D041DC0012F212F462D692DCE010E9499
:101FE000480F15C089A198A1891789F088A31130DD
:101FF00031F44A2D6C2DCE010E948D0407C0012FB3
:10200000212F462D692DCE010E94480F88A276947B
:10201000A394610ECBCFC394910EA7CF88A228853D
:102020003C818985329F800D112489879F81992366
:1020300099F0082E000C990B44E550E0239F4019BD
:1020400051091124481759073CF49D818A85299F1D
:10205000800D11248A87198681E090E0DF91CF916D
:102060001F910F91FF90EF90DF90CF90BF90AF90B6
:102070009F908F907F906F900895DF92EF92FF92E4
:102080000F931F93CF93DF931F92CDB7DEB78C01D1
:10209000D62EF42EE12CE21654F44E2D4F0D6D2D5C
:1020A000C80129830E948D04E3942981F4CF0F9005
:1020B000DF91CF911F910F91FF90EF90DF900895E6
:1020C0000F931F93CF93DF938C01EB010E941B268C
:1020D0008883C80101960E941B268983CE01DF9167
:1020E000CF911F910F9108950E9479118823E1F3F8
:1020F0001092AB041092AC0469E073E082EA94E0C1
:102100000E94670C80914302909144020E945F16E6
:102110006AEF72E082EA94E00E94670C80914102CB
:10212000909142020E945F166BEE72E082EA94E0A8
:102130000E94670C80913F02909140020E945F16BE
:102140006CED72E082EA94E00E94670C80913D029F
:1021500090913E020E945F1680916904813049F09F
:1021600080916A04813029F080916B04813009F0FC
:10217000BBCF0895DF92EF92FF920F931F93CF93FF
:10218000DF93EC017B01FB0116820E941B26D82EF7
:1021900021968E01802F8C1B8D1550F4C8010E9452
:1021A0001B26682FC7010E942C070F5F1F4FF2CF1D
:1021B000F701858190E00196DF91CF911F910F91FA
:1021C000FF90EF90DF900895EF92FF920F931F938F
:1021D000CF93DF9300D0CDB7DEB7182F1A821982C4
:1021E0006AEACE0101960E946D0463E472E081E028
:1021F00090E00E94F00B61E472E083E090E00E94C6
:10220000F00B6FE372E085E090E00E94F00B6DE36D
:1022100072E087E090E00E94F00B89E090E09A8302
:102220008983612FCE0101960E946D041123D1F1A3
:1022300064E271E08AE090E00E94D80B6CE471E007
:102240008BE090E00E94170C8C01055F1F4F63E547
:1022500071E0C8010E94170C080F191F95E2E92EC2
:1022600091E0F92EB701C8010E94170C080F191F41
:1022700087E0E80EF11C81E4E81681E0F80691F7AA
:102280008DE5E82E81E0F82EB701C8010E94170CF9
:10229000080F191F87E0E80EF11C8EE8E81681E0B0
:1022A000F80691F70F900F90DF91CF911F910F914A
:1022B000FF90EF90089540E066ED72E089E794E0CA
:1022C0000C94F10E42E0460F23E0682F82EA94E07E
:1022D0000C94250F462F23E0682F82EA94E00C949B
:1022E0003D1042E0460F23E0682F82EA94E00C9410
:1022F0003D104F925F926F927F928F929F92AF921A
:10230000BF92CF92DF92EF92FF920F931F93CF93E2
:10231000DF9300D000D0CDB7DEB74091D404509108
:10232000D5046091D6047091D7042FB7F8948091AA
:10233000500290915102A0915202B09153022FBFCE
:10234000481B590B6A0B7B0B8091D30490E0A0E0F3
:10235000B0E0C090CF04D090D004E090D104F090D1
:10236000D20484179507A607B70730F4C114D10427
:10237000E104F10409F0FFC2CD28CE28CF2809F0EE
:10238000F8C280916B0481508E3F08F580916A04F9
:10239000813011F580917E048F5F60917F0487FD0D
:1023A00009C0082E000C990B70E06F5F7F4F0E94F0
:1023B000DA27682F60937E0489EF94E09093D90424
:1023C0008093D80488E48093DA040E949816809160
:1023D0006B0481508E3F70F480916904813009F064
:1023E00076C38CEE94E09093D9048093D80488E46B
:1023F0008093DA0480E00E949C1780917A048823FD
:1024000009F4ADC080918E048111A9C08091860429
:1024100090918704E0918B04F0918C04EE0FFF1FE4
:10242000E80FF91F459154914115510501F520918F
:102430008A04222331F010928C0410928B04FC0148
:1024400014C010927A0480917904882341F080E0CE
:102450000E949C17E0918B04F0918C042FC060E0E7
:1024600089E794E00E94E00E7AC0459154919A0168
:10247000369527953695279540FF51C0CA01B6E09D
:1024800096958795BA95E1F78F71952F96959695C4
:10249000969590512F70223071F1F8F4211117C0E8
:1024A0008B3008F08AE080938F04E0918B04F091E8
:1024B0008C043196F0938C04E0938B04EE0FFF1F95
:1024C0008091860490918704E80FF91FCECF2130C8
:1024D00061F760E00E94DD17E8CF2330B1F02430CF
:1024E00021F720917D04829F802D112480939604F2
:1024F00090939704DACF20917D04829F802D112440
:102500008093920490939304D0CF20917D04829F76
:10251000802D11248093940490939504C6CF2F733B
:1025200020938D0480917D04859F802D11248093BC
:102530008E0410929E0410929D0410929C0481E0DF
:102540008093900480934B021092910480918B04AD
:1025500090918C04019690938C0480938B048091CD
:102560009004882309F4F3C080918E04811106C081
:1025700060E089E794E00E94E00EE9C0815080931A
:102580008E0480919E04811148C020919C0430915A
:102590009D042F5F3F4FC901880F991FE091980458
:1025A000F0919904E80FF91F65917491862F877057
:1025B00080939F04AB0163E0569547956A95E1F7D8
:1025C000CA0196958795972F969596959093A00416
:1025D0008F7390917D04899F802D112480939E0498
:1025E000417040934F0230939D0420939C0480914E
:1025F0009A0490E02817390780F020919B04222349
:1026000039F0821B910990939D0480939C0405C02E
:1026100060E089E794E00E94E00E80919E04815082
:1026200080939E048091910421E0280F20939104CF
:1026300040918D043091A004340F80918504380FAF
:1026400030937B0460919404662371F070E0822FD4
:10265000022E000C990B0E94DA2780919504869F28
:10266000300D112430937B0480917B0490E084969C
:1026700064E270E00E94DA2780937B0430918F043B
:1026800030937C0460919204662381F0062E000C46
:10269000770B822F022E000C990B0E94DA27809173
:1026A0009304869F300D112430937C04609196042E
:1026B0006623A1F0822F220F990B70E00E94DA2787
:1026C000CB0162E070E00E94DA272091970490919C
:1026D0007C04289F900D112490937C0480917C04AD
:1026E0004F3341F08A300CF089E087FD80E0809321
:1026F0007C0402C010927C04F894E0917B04F0E02A
:10270000E85EFC4FE491E0934E0230917C0420910E
:10271000A10432039001112440919F044203C0019F
:10272000439F900D112400907E0402C0880F991FD2
:102730000A94E2F797FF02C081589F4F880F892FB4
:10274000881F990B80934D0280934C02789480915E
:10275000DA04882309F452C08C3020F49CE0D92E8E
:10276000D81A01C0D12CEE24E394E092AA0410926E
:10277000C2041092C3041091A7043DE2F32ECF2CA3
:10278000C11ACD0C03E0010F2EE44C2D63E082EA68
:1027900094E00E94480F145003E00C0D212F41E0FB
:1027A000602F80E50E945618212F42E0602F83E0C1
:1027B0000E945618E092C204E092C3048091A704DC
:1027C00063E0680FF81A8F2D8D0D0E94181884E0B1
:1027D0008093AB048091A704D81A8D2D815D8093DE
:1027E000AC046091D8047091D90482EA94E00E940C
:1027F000670C8091DA0481508093DA048091700430
:1028000090917104892B09F48CC011E01093C204DB
:102810001092C3049091A60485E5891B8093AB04B4
:102820001092AC0460916D04613009F45BC030F02B
:1028300080916C04653008F06DC068C060E089E785
:1028400094E00E94E00E10927A041093AA04EAE643
:10285000F3E0E491EF5FE093A604EBE6F3E0E491AC
:10286000EF5FE093A7048CE693E09093C10480931C
:10287000C00410927104109270041092A80418EA17
:102880000E9479118823E1F36CE573E082EA94E019
:102890000E94670C40916E0450916F0460E070E0FC
:1028A0002AE082EA94E00E94A00C67E473E082EAE6
:1028B00094E00E94670C412F42954F7050E060E019
:1028C00070E02AE082EA94E00E94A00C6CE373E0DE
:1028D00082EA94E00E94670C80916904813009F0DB
:1028E000FCC01FC08091C5049091C604A091C7048C
:1028F000B091C8048F709927AA27BB270897A10514
:10290000B10510F467E009C068E707C0882349F003
:102910006B5F03C0882329F06FE282EA94E00E9493
:10292000600C0E9412178091A80481110EC088EFDC
:1029300091E0E4E5F2E0DF019C011D92215030407E
:10294000E1F71092AB041092AC040E94F40D609376
:10295000CF047093D0048093D1049093D20420913B
:10296000CB043091CC04621B730B7093CA04609348
:10297000C90480E0CCC02FB7F894809150029091A8
:102980005102A0915202B09153022FBF2091D30463
:10299000820F911DA11DB11D8093D4049093D50485
:1029A000A093D604B093D7048091C5049091C60437
:1029B000A091C704B091C8040196A11DB11D8093D8
:1029C000C5049093C604A093C704B093C8041092A2
:1029D000CF041092D0041092D1041092D2040E941D
:1029E000F40D6093CB047093CC048093CD0490934A
:1029F000CE0480915504909156042FE0289F8001C9
:102A0000299F100D112485E10E94DD0D800F911F7B
:102A100024E0969587952A95E1F790935604809344
:102A2000550420915404222309F44BC060915804AA
:102A3000262F30E040E050E029833A834B835C83CB
:102A4000C0905904D12CE12CF12C40915C045091A0
:102A50005D044A01A12CB12C20915A0430915B04F1
:102A60002901612C712C8217930728F09C014817CB
:102A7000590708F49A01C901A0E0B0E09C01AD013A
:102A8000241935094609570969817A818B819C810E
:102A90006C197D098E099F090E94BE27A50194012A
:102AA00024193509460957090E943126C20ED31E42
:102AB000E41EF51EC09257046C2D70E085E00E9464
:102AC0007E0D0E949F160E94B91881E020C08932B5
:102AD00009F090CC0E9465178DCC115009F0D0CE32
:102AE00060E070E085E00E947E0D83B7817F8460A6
:102AF00083BF83B7816083BF83B7816083BF8895BD
:102B000083B78E7F83BF83B78E7F83BFB9CE0F908D
:102B10000F900F900F90DF91CF911F910F91FF9029
:102B2000EF90DF90CF90BF90AF909F908F907F906D
:102B30006F905F904F900895AF92BF92CF92DF92C7
:102B4000EF92FF920F931F93CF93DF93182F062FCF
:102B5000C1E0D3E08AEFD82E9EEFE92E842F847057
:102B6000C82E842F8270B82E842F8870A82E4170B2
:102B7000F42E8C2F880F8F5FE80ECC2081F04D2F24
:102B8000400F6C2F610F82EA94E00E948D044C2F5D
:102B9000400F6D2F610F82EA94E00E948D04BB20EC
:102BA00081F0402F4D1B6C2F610F82EA94E00E9450
:102BB0008D04402F4C1B6D2F610F82EA94E00E9420
:102BC0008D04AA2081F04C2F400F612F6D1B82EAEB
:102BD00094E00E948D044D2F400F612F6C1B82EA00
:102BE00094E00E948D04FF2081F0402F4C1B612F48
:102BF0006D1B82EA94E00E948D04402F4D1B612FD3
:102C00006C1B82EA94E00E948D04CD1744F4E7FC2B
:102C100004C0D150D394D394ED0CCF5FAACFDF91F1
:102C2000CF911F910F91FF90EF90DF90CF90BF90C9
:102C3000AF9008950F931F93CF93DF938C01C091B2
:102C4000E104D0E0219750F0BE018BED94E00E94AA
:102C50001707682FC8010E942C07F4CFDF91CF918E
:102C60001F910F9108950F931F93CF93DF93C82F58
:102C7000162FD42F022F242F462F682F82EA94E09C
:102C80000E94250F4FEF400F410F2D2F6C2F82EA2E
:102C900094E00E94250F202F412F6C2F82EA94E0B0
:102CA0000E943D10D1506D2F6C0F202F412F82EAD2
:102CB00094E0DF91CF911F910F910C943D10CF9232
:102CC000DF92EF92FF92CF93DF936C01990FEE08A2
:102CD000FF08F7FE16C06DE282EA94E00E94600CE5
:102CE000EC0144275527BA014C195D096E097F098B
:102CF0002AE082EA94E00E94A00C7C01EC0EFD1E0A
:102D000008C02AE0B701A60182EA94E00E94A00C64
:102D10007C0169E171E082EA94E00E948B0C8E0DE7
:102D20009F1DDF91CF91FF90EF90DF90CF9008959E
:102D300040E063E975E089E794E00C94F10ECF92EE
:102D4000DF92EF92FF920F931F93CF93DF93CEE525
:102D5000D4E005E614E0FF24FA9497E0E92EE00EB3
:102D600062E088810E94420D288130E0F901E1583B
:102D7000FA4F8491F901E559FA4FC490F901E95AE3
:102D8000FA4FD490DD2071F081110E94E90CED2DF5
:102D9000F0E0EE0FFF1FE35BFA4FA591B491EC91C9
:102DA000EC21B1F4F80180818F5F808360E088813D
:102DB0000E94420D21960F5F1F4FE012D1CFDF918D
:102DC000CF911F910F91FF90EF90DF90CF900895DA
:102DD000F8018081882371F3F8018F3F11F410828C
:102DE000E5CFF082E3CFCF93C82FF89460E08091D5
:102DF000B1040E94120D8091B20418161CF460E018
:102E00000E94120DCEBD00000DB407FEFDCF8EB5A1
:102E10008091B20418161CF461E00E94120D78949F
:102E2000CF9108950F931F93CF938091AE048F5F3E
:102E30008093AE0404E512E0C0E08C2F80640E9411
:102E4000F31680E80E94F31661E08091B1040E94BD
:102E5000120D8091B20418161CF460E00E94120D4D
:102E600080E090E0F801E80FF91F20812EBD0000FE
:102E70000DB407FEFDCF2EB501968435910591F76F
:102E80008091B20418161CF461E00E94120DCF5F0D
:102E90000C5A1F4FC63089F680E4CF911F910F91D5
:102EA0000C94F316CF93DF93BC0182EA94E00E9466
:102EB000670CEC0169E171E082EA94E00E948B0CFE
:102EC0008C0F9D1FDF91CF91089588EF91E0E4E58D
:102ED000F2E0DF019C011D9221503040E1F7109299
:102EE000AB041092AC0465E275E082EA94E00E94C3
:102EF000670C0E9412178CB583608CBD8DB58E7FD8
:102F00008DBD8CE191E0EEEFFFE309951092A804EE
:102F100080E095E00E9452170E9412170E949F16AF
:102F200080916904813039F062E370E080E090E0E4
:102F30000E94190EF3CF0895CF93DF93482F50E0EE
:102F4000EA01CC5ADB4F9DA19923A1F19EA19111D9
:102F500031C09EA5FA01EE0FFF1FE55AFB4F35A1C8
:102F600026A1E32FF22FE90FF11DE90FF11D2591A5
:102F700034912F3F9FEF390711F41DA21BC039ABCD
:102F8000440F551FFA01E25AFB4F3327220F331F1C
:102F900005A0F6A1E02DE20FF31F65917491811158
:102FA00005C040E089E794E00E94F10E29968DA1CA
:102FB0008F5F8DA3DF91CF91089570E0DB01AA0FA1
:102FC000BB1FAC5ABB4FD4962C91D497D5969C91ED
:102FD000D597E22FF92FE80FF11DE80FF11D25918C
:102FE00034915F9696963C932E939597F90185912F
:102FF000949190917D04989F802D11246C5A7B4F61
:10300000FB01B19685A3F901A591B4914B2F50E036
:10301000E82FF0E04E175F0720F4F9012591349175
:10302000832FFB01B296899F802D112485A30895DB
:103030001F93CF93DF93C82F162F2EE4482F63E002
:1030400082EA94E00E94250FDC2FD10F4FEF4D0F45
:103050002EE463E082EA94E00E94250F1650CD5FD3
:10306000212F4C2F60E082EA94E00E943D10212F36
:103070004C2F63E582EA94E00E943D1041E06C2F02
:1030800083E00E949C1542E06C2F80E50E949C1515
:10309000D45044E06D2F80E50E949C1548E06D2FD0
:1030A00083E0DF91CF911F910C949C159F92AF927A
:1030B000BF92CF92DF92EF92FF920F931F93CF9325
:1030C000DF93F82EE62EB22E03E0020FD0E0C3E02D
:1030D0008AEFC82E1EEF842F8170982EAA24A39405
:1030E000A20E4270D42EDF5F802F8B19180F99200B
:1030F000A1F02C2F220F2A0D4E2D4C1B6D2F6F0D82
:1031000082EA94E00E943D10202F4E2D4D1B6C2F23
:103110006F0D82EA94E00E943D10DD20A1F02C2F7B
:10312000220F2A0D4E2D4C1B6F2D6D1B82EA94E051
:103130000E943D10202F4E2D4D1B6F2D6C1B82EADF
:1031400094E00E943D10DC1744F417FD04C0C15008
:10315000C394C3941C0D0E5FC6CFDF91CF911F9116
:103160000F91FF90EF90DF90CF90BF90AF909F9026
:1031700008958091700490917104892BB1F1809130
:1031800078048F7169F584E10E94DD0DBC01990F0F
:10319000880B990B0E94C52626EE3FE34EEC50E4C7
:1031A0000E9429270E9494269B0170936F046093CC
:1031B0006E04672B91F084E080936D04E0E7F4E007
:1031C00080E0419151912417350718F480936D04E4
:1031D00008958F5F8430A9F703C08FEF80936D044B
:1031E000809178048F5F8093780408952F923F92A6
:1031F0004F925F926F927F928F929F92AF92BF9207
:10320000CF92DF92EF92FF920F931F93CF93DF93B2
:1032100000D000D01F92CDB7DEB7382E292EB62EA3
:103220001092A8042FEF2A8319821C8200E31D82CA
:10323000662E712C8FEF860F8B83AA24A3940E9495
:1032400079118823E1F380916904002E000C110BA1
:103250008130A1F190916A04913081F180916B04E9
:10326000813009F4B6C0998191113CC08091680405
:103270008F3F21F08370813009F49FC080916604F4
:103280008F3F21F08370813009F49DC0ED818E2F36
:103290000E2E000C990B8615970529F0E7FF04C048
:1032A000FB81FD8301C01D828091A70494E0980FEB
:1032B0002D81829F901911249C831FC09091A70497
:1032C00091959B9D902D112492509C83813009F003
:1032D00088C040E061EA75E089E794E00E94F10E61
:1032E0002D812A83C801EC818E1B9109E7FD9395FE
:1032F00002970CF47EC0F1E0F9832C81020F111DBE
:1033000027FD1A9517FF02C00F5F1F4F7801F59434
:10331000E7941E2D0E2D1092AB04E092AC04A09207
:10332000AA041092A904C32CD22C812C912C8D813B
:10333000482E880F550886149704D9F084149504F4
:1033400061F493E09093AB048091A704E12FFD8199
:10335000F89FE00D1124E093AC04F601859194915F
:103360000E9452172FEF821A920A82E0C80ED11CD7
:10337000E2CF1092C2041092C3048091A7044E2D94
:103380009D81989F400D1124415024E560E082EA20
:1033900094E00E94250FA092C204A092C3048091E1
:1033A000A70463E0680FEE2DFD81F89FE00D112466
:1033B0008E2F82500E94181842CF8D818F5F8D838F
:1033C0000E9498165BCF9D8191509D830E94981614
:1033D0005DCF8091A70481958B9D802D1124825013
:1033E0008C8340E069E975E089E794E00E94F10E82
:1033F00079CF8A810F900F900F900F900F90DF91EF
:10340000CF911F910F91FF90EF90DF90CF90BF90E1
:10341000AF909F908F907F906F905F904F903F9074
:103420002F9008958F929F92AF92BF92CF92DF928A
:10343000EF92FF920F931F93CF93DF93FB012491A1
:103440003196C490F090C204022E000C330B121679
:1034500013060CF0D7C080330CF0D4C0482F082ED0
:10346000000C550BFA01EC0DF11DC7FCFA951E1668
:103470001F060CF0C7C06E5F7F4FD901179693E00F
:10348000B595A7959A95E1F787FF0BC0C80EA49F45
:10349000C001A59F900DB49F900D1124681B790B5E
:1034A00080E04C2D0C2C000C550B480F511D87FD56
:1034B0005A95413351051CF090E3C92EC81A2535A1
:1034C000310514F024E530E01091AE041827982F50
:1034D000977031E001C0330F9A95EAF7859585958D
:1034E0008595F4E58F02C00111248C5A9D4F00E0B0
:1034F0000C2C000CDD08BB24B394402F50E04C157D
:103500005D050CF07FC0FB01E490F1E0FF1218C0F4
:10351000FB01EC0140E8542F5E2119F05881532B38
:10352000588350E0559547954115510519F431964A
:10353000E49040E821965C2F581B521760F359C065
:10354000F1101AC0A32EA094FB01EC0140E8542F07
:103550005E2119F058815A21588350E055954795BE
:103560004115510519F43196E49040E821965C2FFD
:10357000581B521760F33DC043E0F41223C0932E52
:103580009094FB01EC0140E8A82E8C2E881A542F51
:103590005E2141F08126588180FE02C0532B01C07C
:1035A0005921588350E0559547954115510519F417
:1035B0003196E49040E821965C2F5A19521728F36F
:1035C0001B2517C0FB01EC0140E8542F5E2119F0C8
:1035D00058815327588350E055954795411551051B
:1035E00019F43196E49040E821965C2F581B52174D
:1035F00060F3330F19F48C5A9F4F31E00F5F6A0F5D
:103600007B1F7BCFDF91CF911F910F91FF90EF90A8
:10361000DF90CF90BF90AF909F908F900895CF9301
:10362000DF93CDB7DEB727970FB6F894DEBF0FBE96
:10363000CDBF789484B5826084BD84B5816084BD3B
:1036400085B5826085BD85B5816085BD80916E0040
:10365000816080936E001092810080918100826071
:1036600080938100809181008160809381008091AE
:1036700080008160809380008091B100846080939D
:10368000B1008091B00081608093B00080917A0099
:10369000846080937A0080917A00826080937A00BF
:1036A00080917A00816080937A0080917A008068AE
:1036B00080937A001092C10082E38093D30481E06A
:1036C00090E0A0E0B0E08093CF049093D004A0936A
:1036D000D104B093D2048FEF8093C404E0E8F7E7FD
:1036E000259134912130304C09F049C0E6E9F7E7E3
:1036F000E491E093AD04E7E9F7E7E491E09358043F
:10370000E8E9F7E7E491E0935904E9E9F7E78591FF
:10371000949190935B0480935A04EBE9F7E78591C9
:10372000949190935D0480935C0488E080937F047F
:10373000EEE9F7E7E491E0937E04EFE9F7E7E4913F
:10374000E093C404E0EAF7E78591949190937104C3
:1037500080937004E2EAF7E7859194919093730463
:1037600080937204E4EAF7E785919491909375044D
:1037700080937404E6EAF7E7859194912CC09CE36A
:103780009093AD04109258048093590480E293E022
:1037900090935B0480935A0484ED93E090935D04CE
:1037A00080935C0488E080937F0480937E048CEA9D
:1037B0009DE090937104809370048EED9DE0909352
:1037C00073048093720484E79EE090937504809361
:1037D00074048CE39FE0909377048093760411E067
:1037E000109354046FEF70E085E00E947E0D88E036
:1037F00080935E0489E080935F0487E08093600497
:1038000086E08093610404E00093620482E0809388
:10381000630481E1809364040E949F168CE39FE01F
:1038200090936F0480936E0400936D04109378045A
:103830008BE08093B0048DE08093AF0480E18093AF
:10384000B1048EE08093B3048FE08093B2041093B0
:10385000AA041093C2041092C3041093A904EAE6C8
:10386000F3E0E491EF5FE093A604EBE6F3E0E4918C
:10387000EF5FE093A7048CE693E09093C1048093FC
:10388000C0041FB7F89480913702811127C0E1E688
:10389000F5E08491E5E7F5E09491E82FF0E0EE0F94
:1038A000FF1FE352FF4FA591B491EC91E92321F45E
:1038B00061E08AE00E94120D61E08AE00E94420D00
:1038C0008CB580618CBD8CB580648CBD61E08DE071
:1038D0000E94420D61E08BE00E94420D8091370210
:1038E0008F5F809337021FBF8CB58F7D8CBD8CB5E9
:1038F0008C7F81608CBD8DB581608DBD8CB58C60F9
:103900008CBD61E08091B0040E94420D61E0809125
:10391000AF040E94420D61E08091B1040E94420D0B
:103920008091B30418161CF461E00E94420D80914E
:10393000B20418161CF461E00E94420D8091B30499
:10394000181674F460E00E94120D6AE070E080E0E6
:1039500090E00E94190E61E08091B3040E94120D64
:103960008091AF04082E000C990BFC01E95AFA4F24
:10397000E491F0E0EE0FFF1FE951FF4F25913491E4
:103980003093B7042093B604FC01E559FA4FE49153
:10399000E093BD048091B004082E000C990BFC014B
:1039A000E95AFA4FE491F0E0EE0FFF1FE951FF4FA3
:1039B000259134913093B5042093B404FC01E5596A
:1039C000FA4FE491E093BC048091B204082E000CFD
:1039D000990BFC01E95AFA4FE491F0E0EE0FFF1F5A
:1039E000E951FF4F259134913093B9042093B804E5
:1039F000FC01E559FA4FE491E093BE048091B104D3
:103A0000082E000C990BFC01E95AFA4FE491F0E002
:103A1000EE0FFF1FE951FF4F259134913093BB0406
:103A20002093BA04FC01E559FA4FE491E093BF04F6
:103A300081E20E94F31684E10E94F3168091AD04A6
:103A400087FF03C08FE78093AD048091AD04806849
:103A50000E94F31680E20E94F3168CE00E94F31697
:103A60000E94121781E080937D0484E08093A1047A
:103A700089ED90E0909389048093880460E080E071
:103A80000E94DD1761E070E083E00E947E0D80916E
:103A9000B100887F81608093B100F894109280001B
:103AA00010928100109285001092840088E191E0CC
:103AB0009093890080938800809181008860809332
:103AC00081008091810081608093810080916F00EE
:103AD000826080936F0078940E94B91880916A0484
:103AE000813009F00AC110927E0485E2809325019D
:103AF000109226011092270181E380932C011092ED
:103B00002D0110922E018DE3809333011092340128
:103B10001092350189E480933A0110923B01109292
:103B20003C01EFE5F1E080E020E191E0DF01129758
:103B300031E0380F3C9311962C939083845F379635
:103B40008435A1F781E080934C0110924D011092D1
:103B50004E018DE080935301109254010E94B107F1
:103B600044244394512C74E0E72EF12C0E947911E7
:103B7000882309F4BAC080916B048130E1F480910C
:103B8000000190910101019711F063E001C064E030
:103B90008FEF90E00E94F618823031F0833039F0D8
:103BA000813009F0A2C09FC00E947410E8CF81E06C
:103BB0000E94E41098C08091000190910101813031
:103BC000910509F0A7C0A0904101B09042018091F9
:103BD0006704813009F4F6C380916504813009F4EB
:103BE00002C480916804813009F40EC48091660497
:103BF000813009F424C420916A048091410190919C
:103C00004201213009F052C4863091050CF054C4B1
:103C1000019709F451C48091410190914201A81685
:103C2000B90611F010925A010091000110910101A2
:103C30000530110511F00E94350B0230110509F411
:103C4000FBC20CF4B9C00430110509F460C30CF4D4
:103C500036C30530110509F048C08091A8048111D0
:103C600007C081E08093A8040E94350B0E94B4062F
:103C700020914A0130914B0120583F4F30934B0126
:103C800020934A014091440150914501809148019F
:103C900090914901840F951F9093450180934401B1
:103CA0008091460190914701820F931F8130B2E2CB
:103CB0009B070CF06BC39093470180934601609182
:103CC000470140914301809145010E94810A809102
:103CD000440190914501965F81309E4530F00E94ED
:103CE000B406811102C00E94B10780E090E0892BE8
:103CF00009F43CCF0E94000036CF80916D048823E8
:103D000009F4F1CE40E061EF70E089E794E00E94B1
:103D1000F10EEBCE039709F087CF809167048130D5
:103D200079F480914101909142018530910541F0F3
:103D30008C30910529F001969093420180934101C6
:103D400080916504813079F4809141019091420124
:103D50008130910541F08630910529F001979093CB
:103D600042018093410180916804813071F4809117
:103D70004101909142018130910509F09EC487E094
:103D800090E09093420180934101809166048130DC
:103D900069F48091410190914201893091050CF4C0
:103DA00092C40797909342018093410180916904E6
:103DB000813009F039CF8FC40115110529F0013088
:103DC000110509F48CC091CF809136028C31A8F492
:103DD0004091C5045091C6046091C7047091C80415
:103DE0004370552766277727452B462B472B29F409
:103DF0008F5F809336020E945B118091360291E0C2
:103E00008C3109F090E0E1E9CE2EE1E0DE2E03E90D
:103E100011E0F0E9AF2EF1E0BF2E812C912C282E7D
:103E2000312C821493040CF052C0D5018C91F8010E
:103E300022913F01821306C0D6013C91F8012081F6
:103E40003217C9F1F6E0F89D9001F99D300D11246B
:103E500022573E4FD9014C91F60160812E833F835A
:103E60000E94810AD3016C90662DF50180810E9429
:103E70005103982FD5018C93F8017080672DD601DE
:103E80008C919D830E945103F60180839D812E8138
:103E90003F8196110FC087110DC0F80134978081C2
:103EA000F7E0F89FC0011124D9016C91835A9E4F0D
:103EB0000E942C0790E0BFEF8B1A9B0AE6E0CE0E23
:103EC000D11C0A5F1F4FF6E0AF0EB11CAACF992399
:103ED00009F40BCF509201014092000106CFAE01D0
:103EE0004C5F5F4FBE016E5F7F4FCE0103960E9415
:103EF000C6036B8180915C010E945103D82E809390
:103F00005C016A8180915B010E945103182F8093AC
:103F10005B018C8103E00D0D76E0C72EC10EA12C54
:103F2000B12C882309F4C1C0662463949924939426
:103F30006092C2046092C304712E7A0C302E3A0C47
:103F4000472D632D82EA94E00E948D048C2C8A1800
:103F5000482D632D82EA94E00E948D041092C204E1
:103F60001092C3042A2D472D602F82EA94E00E940C
:103F7000250F2A2D482D602F82EA94E00E94250FFC
:103F80002FEFA21AB20A44E0A416B10479F6909277
:103F9000C2049092C30427E0412F62E06D0D82EAD3
:103FA00094E00E943D1022E042E0410F6D2D82EA34
:103FB00094E00E94250F22E044E0410F6D2D82EA3B
:103FC00094E00E94250F03E0010F402F6D2D82EA3F
:103FD00094E00E948D041092C2041092C30422E067
:103FE000402F61E06D0D82EA94E00E94250FC090A1
:103FF0005A01CC2009F479CE0E9480036C2D70E028
:104000000E941707C82E89838F70A82EB12C8A3082
:1040100011F030E001C032E081E08093C20480936F
:10402000C3045D2D531B4DE0430F29E06FEF610F7B
:1040300084EF850F3F835D830E9433161092C20484
:104040001092C304402F6D2D82EA94E00E948D04EB
:104050003F812BE0230F5D8165EF650F07E0412F66
:1040600082EA94E00E94480FCE0101960E946D0AF8
:10407000811102C081E001C083E08093C20480937B
:10408000C3041F5FA501612F86EF8D0D0E94E5041B
:104090004C2D50E064E0559547956A95E1F74370E3
:1040A0005527612F8AEF8D0DC4C033243394992492
:1040B00093943092C2043092C304612E6A0C462D50
:1040C000602F82EA94E00E948D047C2C7A18472DA0
:1040D000602F82EA94E00E948D041092C204109234
:1040E000C30488248394800E2A2D462D682D82EAED
:1040F00094E00E94250F2A2D472D682D82EA94E036
:104100000E94250F8FEFA81AB80A015094E0A91653
:10411000B10469F69092C2049092C30427E0412F43
:1041200034E0B32EBD0C6B2D82EA94E00E943D106A
:1041300022E042E0410F05E00D0D602F82EA94E09D
:104140000E94250F22E044E0410F602F82EA94E0B4
:104150000E94250F43E0C42EC10E06E00D0D4C2D2C
:10416000602F82EA94E00E948D041092C2041092A3
:10417000C30422E04C2D6B2D82EA94E00E94250FAF
:10418000B0905A01BB2009F4B0CD0E9480036B2D82
:1041900070E00E941707982E89838F70A82EB12C8B
:1041A0008A3011F0812C02C022E0822E81E08093BF
:1041B000C2048093C30429E04DE0480D6FEF610F06
:1041C000802F0E9433161092C2041092C3044C2D0B
:1041D000602F82EA94E00E948D0407E02BE0280D16
:1041E000412F67E06D0D82EA94E00E94480FCE01F6
:1041F00001960E946D0A811102C081E001C083E036
:104200008093C2048093C3041F5F082D0D0DA50188
:10421000612F88E0800F0E94E504492D50E094E072
:10422000559547959A95E1F743705527612F8CE096
:10423000800F0E94E10559CD8BED94E00E94F90AB0
:1042400061E18091DB040E945103182F8093DB040D
:1042500060E08091DC040E9451038093DC04113102
:1042600009F043CD811141CD60E070E08BED94E029
:104270000E941707682F83E591E00E942C07809128
:104280003A02882309F426CE815080933A02109294
:10429000E1048CE491E00E94A1068983CE0101969D
:1042A0000E94610769818BED94E00E942C0781E0F8
:1042B0008093DB041092DC040E945B1116CD8BED21
:1042C00094E00E94F90A0E9480038C01DC0112969E
:1042D0008C911297882331F01696DC90DD0CD394E4
:1042E000D39402C082E0D82EF80160818091DB0473
:1042F0000E9451038093DB04D80111966C916D0DDF
:104300008091DC040E9451038093DC04EECC009188
:10431000380210913902F8018281882321F08681C8
:10432000D82EDD0C01C0D12CD8016C918091DB041A
:104330000E9451038093DB04F80161816D0D80912F
:10434000DC040E9451038093DC048BED94E00E9416
:10435000F90A9091DB04D8018C919813C6CC209176
:10436000DC0430E011964C918D2D90E0840F911D6E
:104370002817390709F0B9CCC8010E941A165092C3
:104380000101409200010E946A07AFCCE0E0F2E236
:10439000F0934701E09346014CEF4203C001439F75
:1043A000900D112465E070E00E94DA2770934B01B4
:1043B00060934A0140E067E071E089E794E00E9481
:1043C000F10E7DCC25E0A216B10409F405CC8CE0F9
:1043D000A816B10409F400CCC501019690934201DE
:1043E00080934101F9CB8091410190914201009766
:1043F00009F4F7CB8630910509F4F3CB019790933C
:10440000420180934101EDCB80915A01882321F034
:10441000815080935A01EACB8091410190914201F1
:104420008230910514F4069605C0863091050CF093
:10443000DDCB07969093420180934101D7CBC0908A
:104440004101D09042018601065011090730110543
:1044500078F40E94800390905A01692D70E06F5F9C
:104460007F4FDC0116962C9130E06217730764F0E1
:10447000B8E0CB16D10484F0E7E0CE1AD108D09290
:104480004201C0924101B7CB0E94170787FDF0CFD0
:10449000939490925A01AFCBF6E0CF16D1040CF46E
:1044A000AACB1093420100934101A5CB109169045E
:1044B000113009F0B0CB6DC00E9480036C01DC01AB
:1044C00016968C91882309F4A6CB60E070E0C601B3
:1044D0000E941707612C712C082F0F70F301EB5D00
:1044E000FE4F4F018681811120C0013009F048C084
:1044F0001092E104D6018C918093DB0460E0C60148
:104500000E94AD038093DC04C6010E94A106682FBF
:104510008BED94E00E942C07909239028092380231
:10452000F0920101E092000169C060E070E0CF010B
:104530000E941707182F60E070E0C6010E9417075D
:10454000412F50E094E0559547959A95E1F74370D7
:104550005527282F30E064E0359527956A95E1F7D7
:10456000237033274217530759F41F70212F30E06F
:104570002F5F3F4F8F7090E02817390709F4B8CFAD
:10458000B7E06B0E711CECE16E16710409F0A6CF5A
:1045900042CB81309105C9F1A4F5892B09F03BCBC1
:1045A00080915201882309F474C01092E1048CE4D4
:1045B00091E00E94A1068983CE0101960E946107C5
:1045C00069818BED94E00E942C071093DB0410921C
:1045D000DC049091240180915201492F50E0282F52
:1045E00030E02417350714F08FEF890F80933A02DB
:1045F00082E090E090930101809300010E945B11A2
:104600000ACB0697079708F006CB0E9480036C013F
:104610009093390280933802DC0116968C9116979C
:10462000882309F4F8CA1092E1048C918093DB048A
:1046300060E0C6010E94AD038093DC04F601268190
:1046400000915A0110E0822F90E00F5F1F4F8017FA
:1046500091070CF48C01201BD60116962C93812C0B
:10466000912C8016910691F0F60186810380F481E9
:10467000E02DE80DF91DE80FF11D60818BED94E050
:104680000E942C07FFEF8F1A9F0AEBCF83E090E088
:10469000B1CF80915901882309F4BDCA83E591E027
:1046A0000E94A1068983CE0101960E94610769815B
:1046B0008CE491E00E942C07ECCF863091050CF041
:1046C00064CB07965ECB06970CF470CB50924201F8
:1046D000409241016BCB40E067E071E089E794E0F4
:1046E0000E94F10E80914101909142018630910526
:1046F0000CF04EC0823091050CF446C08091E1046C
:10470000813009F083C00E948003DC0116962C9151
:1047100060E070E0211109C08BED94E00E94170762
:104720008F70813009F072C02AC00E941707182FBD
:1047300060E070E08BED94E00E941707612F70E05D
:10474000A4E075956795AA95E1F763707727482FE0
:1047500050E0B4E055954795BA95E1F74370552779
:104760006417750709F052C0212F2F7030E02F5FBA
:104770003F4F8F7090E02817390709F047C00E941B
:10478000A5070E943C0450CA019709F43FC04CCAD7
:104790000D970CF049CA0E948003FC012681222358
:1047A00031F160E070E00E9417078A836091E104B4
:1047B00070E0615071098BED94E00E941707182F8B
:1047C0008983CE0102960E946D0A082FCE010196C0
:1047D0000E946D0A0817D1F02A812F7030E01F70F7
:1047E000812F90E001962817390781F40CC0609161
:1047F000E10470E0615071098BED94E00E941707AD
:104800008F708D3019F40E94A5070ECAF092010135
:10481000E092000109CACF93DF93CEE8D1E0279759
:10482000CE010E943B0781E0CD35D807C1F78AE36E
:1048300091E00E943B0783E391E00E943B078CE2FA
:1048400091E00E943B0785E291E00E943B0783E5EF
:1048500091E00E943B078CE491E00E943B078BEDC6
:1048600094E0DF91CF910C943B071092A504109235
:10487000A40481E191E09093A3048093A2046DE0ED
:104880008BED94E00E94430764E38CE491E00E9486
:10489000430768E183E591E00E9443076DE085E20C
:1048A00091E00E9443076DE08CE291E00E94430793
:1048B0006DE083E391E00E9443076DE08AE391E0BD
:1048C0000E94430764E18DE591E00E94430764E1A3
:1048D00084E691E00E94430764E18BE691E00E9448
:1048E000430764E182E791E00E94430764E189E7BE
:1048F00091E00E94430764E180E891E00E94430751
:1049000064E187E891E00E944307EEE8F1E081E08E
:104910008083369692E0E633F907D1F781E0809301
:1049200043010895CF93DF938230910510F482E024
:1049300090E0E091E404F091E50420E030E0C0E094
:10494000D0E0309711F14081518148175907C0F0EC
:104950004817590761F482819381209719F09B834E
:104960008A832BC09093E5048093E40426C021152C
:10497000310519F04217530718F49A01BE01DF01FF
:10498000EF010280F381E02DDCCF2115310509F123
:10499000281B390B2430310590F412968D919C918F
:1049A00013976115710521F0FB019383828304C085
:1049B0009093E5048093E404FD01329644C0FD0128
:1049C000E20FF31F81939193225031092D933C9371
:1049D0003AC02091E2043091E304232B41F420916A
:1049E0000501309106013093E3042093E204209105
:1049F0000301309104012115310541F42DB73EB773
:104A00004091070150910801241B350BE091E2040D
:104A1000F091E304E217F307A0F42E1B3F0B2817D5
:104A2000390778F0AC014E5F5F4F2417350748F027
:104A30004E0F5F1F5093E3044093E20481939193E0
:104A400002C0E0E0F0E0CF01DF91CF9108950F9335
:104A50001F93CF93DF93009709F48CC0FC0132972A
:104A6000138212820091E4041091E50401151105EE
:104A700081F420813181820F931F2091E2043091D3
:104A8000E3042817390779F5F093E304E093E2048F
:104A900071C0D80140E050E0AE17BF0750F4129645
:104AA0002D913C911397AD012115310509F1D901E3
:104AB000F3CF9D01DA013383228360817181860FF8
:104AC000971F8217930769F4EC0128813981260F1B
:104AD000371F2E5F3F4F318320838A819B819383D1
:104AE0008283452B29F4F093E504E093E40442C06B
:104AF0001396FC93EE931297ED01499159919E0103
:104B0000240F351FE217F30771F480819181840F20
:104B1000951F029611969C938E9382819381139692
:104B20009C938E931297E0E0F0E0D80112968D915D
:104B30009C911397009719F0F8018C01F6CF8D9195
:104B40009C9198012E5F3F4F820F931F2091E204AA
:104B50003091E3042817390769F4309729F410924B
:104B6000E5041092E40402C0138212821093E3045D
:104B70000093E204DF91CF911F910F9108958F92DE
:104B80009F92AF92BF92CF92DF92EF92FF92CF931C
:104B9000DF93EC01688179818A819B8161157105C0
:104BA0008105910521F464E279ED8BE597E02DE133
:104BB00033EF41E050E00E94312649015A019B0148
:104BC000AC01A7EAB1E40E9450266B017C01ACEE77
:104BD000B4EFA50194010E945E26DC01CB018C0D8F
:104BE0009D1DAE1DBF1DB7FF03C00197A109B048B1
:104BF00088839983AA83BB83BC01CD019F77DF9112
:104C0000CF91FF90EF90DF90CF90BF90AF909F90AB
:104C10008F9008950E94BF25089589E091E00E9439
:104C2000BF2508956093090170930A0180930B01D9
:104C300090930C010895F999FECF92BD81BDF89A29
:104C4000992780B50895262FF999FECF1FBA92BDF6
:104C500081BD20BD0FB6F894FA9AF99A0FBE01965D
:104C60000895052E97FB1EF400940E94482657FDD8
:104C700007D00E94632607FC03D04EF40C9448260C
:104C800050954095309521953F4F4F4F5F4F089578
:104C900090958095709561957F4F8F4F9F4F0895A8
:104CA0000E948526A59F900DB49F900DA49F800D16
:104CB000911D11240895B7FF0C9450260E94502690
:104CC000821B930B0895A1E21A2EAA1BBB1BFD01A8
:104CD0000DC0AA1FBB1FEE1FFF1FA217B307E407DB
:104CE000F50720F0A21BB30BE40BF50B661F771F33
:104CF000881F991F1A9469F7609570958095909513
:104D00009B01AC01BD01CF010895A29FB001B39FEB
:104D1000C001A39F700D811D1124911DB29F700DC4
:104D2000811D1124911D08950E94082788F09F5726
:104D300098F0B92F9927B751B0F0E1F0660F771FBF
:104D4000881F991F1AF0BA95C9F714C0B13091F0B5
:104D50000E942227B1E008950C942227672F782F14
:104D60008827B85F39F0B93FCCF38695779567957A
:104D7000B395D9F73EF490958095709561957F4FE6
:104D80008F4F9F4F0895E89409C097FB3EF490958C
:104D90008095709561957F4F8F4F9F4F9923A9F014
:104DA000F92F96E9BB279395F695879577956795A3
:104DB000B795F111F8CFFAF4BB0F11F460FF1BC0E7
:104DC0006F5F7F4F8F4F9F4F16C0882311F096E97A
:104DD00011C0772321F09EE8872F762F05C0662328
:104DE00071F096E8862F70E060E02AF09A95660FE1
:104DF000771F881FDAF7880F9695879597F908959A
:104E000057FD9058440F551F59F05F3F71F047957B
:104E1000880F97FB991F61F09F3F79F08795089560
:104E2000121613061406551FF2CF4695F1DF08C07F
:104E3000161617061806991FF1CF8695710561059C
:104E400008940895E894BB2766277727CB0197F944
:104E500008950E943C270C94AD270E949F2738F0AC
:104E60000E94A62720F0952311F00C9496270C940D
:104E70009C2711240C9423270E94002770F3959FF0
:104E8000C1F3950F50E0551F629FF001729FBB2741
:104E9000F00DB11D639FAA27F00DB11DAA1F649FDD
:104EA0006627B00DA11D661F829F2227B00DA11D90
:104EB000621F739FB00DA11D621F839FA00D611D16
:104EC000221F749F3327A00D611D231F849F600D37
:104ED000211D822F762F6A2F11249F5750409AF060
:104EE000F1F088234AF0EE0FFF1FBB1F661F771FEC
:104EF000881F91505040A9F79E3F510580F00C94B7
:104F000096270C9423275F3FE4F3983ED4F38695CD
:104F100077956795B795F795E7959F5FC1F7FE2B56
:104F2000880F911D9695879597F9089597F99F6732
:104F300080E870E060E008959FEF80EC0895002421
:104F40000A941616170618060906089500240A94EE
:104F500012161306140605060895092E0394000C74
:104F600011F4882352F0BB0F40F4BF2B11F460FF03
:104F700004C06F5F7F4F8F4F9F4F0895DB018F936A
:104F80009F930E945026BF91AF91A29F800D911DCB
:104F9000A39F900DB29F900D11240895991B79E065
:104FA00004C0991F961708F0961B881F7A95C9F7B9
:104FB0008095089597FB072E16F4009407D077FD8F
:104FC00009D00E94F42707FC05D03EF49095819506
:104FD0009F4F0895709561957F4F0895EE0FFF1FC5
:104FE0000590F491E02D0994AA1BBB1B51E107C069
:104FF000AA1FBB1FA617B70710F0A61BB70B881F69
:10500000991F5A95A9F780959095BC01CD010895F7
:1050100081E090E0F8940C940D2812E0C6EDD2E007
:1050200004C0FE010E94EE272196C73DD107C9F7B3
:04503000F894FFCF22
:105034000100010000E604800001000000000000FF
:1050440000710FAB0B020301030D0A004C4F4144E6
:0450540045520000C1
:00000001FF
